{
	"RESORT/ERC20.sol": {
		"ERC20Basic": {
			"abi": [
				{
					"inputs": [
						{
							"internalType": "uint256",
							"name": "initialSupply",
							"type": "uint256"
						}
					],
					"stateMutability": "nonpayable",
					"type": "constructor"
				},
				{
					"anonymous": false,
					"inputs": [
						{
							"indexed": true,
							"internalType": "address",
							"name": "owner",
							"type": "address"
						},
						{
							"indexed": true,
							"internalType": "address",
							"name": "spender",
							"type": "address"
						},
						{
							"indexed": false,
							"internalType": "uint256",
							"name": "value",
							"type": "uint256"
						}
					],
					"name": "Approval",
					"type": "event"
				},
				{
					"anonymous": false,
					"inputs": [
						{
							"indexed": true,
							"internalType": "address",
							"name": "from",
							"type": "address"
						},
						{
							"indexed": true,
							"internalType": "address",
							"name": "to",
							"type": "address"
						},
						{
							"indexed": false,
							"internalType": "uint256",
							"name": "value",
							"type": "uint256"
						}
					],
					"name": "Transfer",
					"type": "event"
				},
				{
					"inputs": [
						{
							"internalType": "address",
							"name": "_owner",
							"type": "address"
						},
						{
							"internalType": "address",
							"name": "_delegate",
							"type": "address"
						}
					],
					"name": "allowance",
					"outputs": [
						{
							"internalType": "uint256",
							"name": "",
							"type": "uint256"
						}
					],
					"stateMutability": "view",
					"type": "function"
				},
				{
					"inputs": [
						{
							"internalType": "address",
							"name": "_delegate",
							"type": "address"
						},
						{
							"internalType": "uint256",
							"name": "_numTokens",
							"type": "uint256"
						}
					],
					"name": "approve",
					"outputs": [
						{
							"internalType": "bool",
							"name": "",
							"type": "bool"
						}
					],
					"stateMutability": "nonpayable",
					"type": "function"
				},
				{
					"inputs": [
						{
							"internalType": "address",
							"name": "_tokenOwner",
							"type": "address"
						}
					],
					"name": "balanceOf",
					"outputs": [
						{
							"internalType": "uint256",
							"name": "",
							"type": "uint256"
						}
					],
					"stateMutability": "view",
					"type": "function"
				},
				{
					"inputs": [],
					"name": "decimals",
					"outputs": [
						{
							"internalType": "uint8",
							"name": "",
							"type": "uint8"
						}
					],
					"stateMutability": "view",
					"type": "function"
				},
				{
					"inputs": [
						{
							"internalType": "uint256",
							"name": "_newTokensAmount",
							"type": "uint256"
						}
					],
					"name": "increaseTotalSupply",
					"outputs": [],
					"stateMutability": "nonpayable",
					"type": "function"
				},
				{
					"inputs": [],
					"name": "name",
					"outputs": [
						{
							"internalType": "string",
							"name": "",
							"type": "string"
						}
					],
					"stateMutability": "view",
					"type": "function"
				},
				{
					"inputs": [],
					"name": "renounceOwnership",
					"outputs": [],
					"stateMutability": "nonpayable",
					"type": "function"
				},
				{
					"inputs": [],
					"name": "symbol",
					"outputs": [
						{
							"internalType": "string",
							"name": "",
							"type": "string"
						}
					],
					"stateMutability": "view",
					"type": "function"
				},
				{
					"inputs": [],
					"name": "totalSupply",
					"outputs": [
						{
							"internalType": "uint256",
							"name": "",
							"type": "uint256"
						}
					],
					"stateMutability": "view",
					"type": "function"
				},
				{
					"inputs": [
						{
							"internalType": "address",
							"name": "_recipient",
							"type": "address"
						},
						{
							"internalType": "uint256",
							"name": "_numTokens",
							"type": "uint256"
						}
					],
					"name": "transfer",
					"outputs": [
						{
							"internalType": "bool",
							"name": "",
							"type": "bool"
						}
					],
					"stateMutability": "nonpayable",
					"type": "function"
				},
				{
					"inputs": [
						{
							"internalType": "address",
							"name": "_owner",
							"type": "address"
						},
						{
							"internalType": "address",
							"name": "_buyer",
							"type": "address"
						},
						{
							"internalType": "uint256",
							"name": "_numTokens",
							"type": "uint256"
						}
					],
					"name": "transferFrom",
					"outputs": [
						{
							"internalType": "bool",
							"name": "",
							"type": "bool"
						}
					],
					"stateMutability": "nonpayable",
					"type": "function"
				},
				{
					"inputs": [
						{
							"internalType": "address",
							"name": "_client",
							"type": "address"
						},
						{
							"internalType": "address",
							"name": "_recipient",
							"type": "address"
						},
						{
							"internalType": "uint256",
							"name": "_numTokens",
							"type": "uint256"
						}
					],
					"name": "transferFromClient",
					"outputs": [
						{
							"internalType": "bool",
							"name": "",
							"type": "bool"
						}
					],
					"stateMutability": "nonpayable",
					"type": "function"
				}
			],
			"devdoc": {
				"kind": "dev",
				"methods": {},
				"version": 1
			},
			"evm": {
				"assembly": "    /* \"RESORT/ERC20.sol\":861:3731  contract ERC20Basic is IERC20{... */\n  mstore(0x40, 0x80)\n    /* \"RESORT/ERC20.sol\":1303:1456  constructor (uint256 initialSupply){... */\n  callvalue\n  dup1\n  iszero\n  tag_1\n  jumpi\n  0x00\n  dup1\n  revert\ntag_1:\n  pop\n  mload(0x40)\n  sub(codesize, bytecodeSize)\n  dup1\n  bytecodeSize\n  dup4\n  codecopy\n  dup2\n  dup2\n  add\n  0x40\n  mstore\n  dup2\n  add\n  swap1\n  tag_2\n  swap2\n  swap1\n  tag_3\n  jump\t// in\ntag_2:\n    /* \"RESORT/ERC20.sol\":1356:1366  msg.sender */\n  caller\n    /* \"RESORT/ERC20.sol\":1348:1353  owner */\n  0x00\n  dup1\n    /* \"RESORT/ERC20.sol\":1348:1366  owner = msg.sender */\n  0x0100\n  exp\n  dup2\n  sload\n  dup2\n  0xffffffffffffffffffffffffffffffffffffffff\n  mul\n  not\n  and\n  swap1\n  dup4\n  0xffffffffffffffffffffffffffffffffffffffff\n  and\n  mul\n  or\n  swap1\n  sstore\n  pop\n    /* \"RESORT/ERC20.sol\":1391:1404  initialSupply */\n  dup1\n    /* \"RESORT/ERC20.sol\":1376:1388  totalSupply_ */\n  0x03\n    /* \"RESORT/ERC20.sol\":1376:1404  totalSupply_ = initialSupply */\n  dup2\n  swap1\n  sstore\n  pop\n    /* \"RESORT/ERC20.sol\":1437:1449  totalSupply_ */\n  sload(0x03)\n    /* \"RESORT/ERC20.sol\":1414:1422  balances */\n  0x01\n    /* \"RESORT/ERC20.sol\":1414:1434  balances[msg.sender] */\n  0x00\n    /* \"RESORT/ERC20.sol\":1423:1433  msg.sender */\n  caller\n    /* \"RESORT/ERC20.sol\":1414:1434  balances[msg.sender] */\n  0xffffffffffffffffffffffffffffffffffffffff\n  and\n  0xffffffffffffffffffffffffffffffffffffffff\n  and\n  dup2\n  mstore\n  0x20\n  add\n  swap1\n  dup2\n  mstore\n  0x20\n  add\n  0x00\n  keccak256\n    /* \"RESORT/ERC20.sol\":1414:1449  balances[msg.sender] = totalSupply_ */\n  dup2\n  swap1\n  sstore\n  pop\n    /* \"RESORT/ERC20.sol\":1303:1456  constructor (uint256 initialSupply){... */\n  pop\n    /* \"RESORT/ERC20.sol\":861:3731  contract ERC20Basic is IERC20{... */\n  jump(tag_6)\n    /* \"#utility.yul\":88:205   */\ntag_8:\n    /* \"#utility.yul\":197:198   */\n  0x00\n    /* \"#utility.yul\":194:195   */\n  dup1\n    /* \"#utility.yul\":187:199   */\n  revert\n    /* \"#utility.yul\":334:411   */\ntag_10:\n    /* \"#utility.yul\":371:378   */\n  0x00\n    /* \"#utility.yul\":400:405   */\n  dup2\n    /* \"#utility.yul\":389:405   */\n  swap1\n  pop\n    /* \"#utility.yul\":334:411   */\n  swap2\n  swap1\n  pop\n  jump\t// out\n    /* \"#utility.yul\":417:539   */\ntag_11:\n    /* \"#utility.yul\":490:514   */\n  tag_19\n    /* \"#utility.yul\":508:513   */\n  dup2\n    /* \"#utility.yul\":490:514   */\n  tag_10\n  jump\t// in\ntag_19:\n    /* \"#utility.yul\":483:488   */\n  dup2\n    /* \"#utility.yul\":480:515   */\n  eq\n    /* \"#utility.yul\":470:533   */\n  tag_20\n  jumpi\n    /* \"#utility.yul\":529:530   */\n  0x00\n    /* \"#utility.yul\":526:527   */\n  dup1\n    /* \"#utility.yul\":519:531   */\n  revert\n    /* \"#utility.yul\":470:533   */\ntag_20:\n    /* \"#utility.yul\":417:539   */\n  pop\n  jump\t// out\n    /* \"#utility.yul\":545:688   */\ntag_12:\n    /* \"#utility.yul\":602:607   */\n  0x00\n    /* \"#utility.yul\":633:639   */\n  dup2\n    /* \"#utility.yul\":627:640   */\n  mload\n    /* \"#utility.yul\":618:640   */\n  swap1\n  pop\n    /* \"#utility.yul\":649:682   */\n  tag_22\n    /* \"#utility.yul\":676:681   */\n  dup2\n    /* \"#utility.yul\":649:682   */\n  tag_11\n  jump\t// in\ntag_22:\n    /* \"#utility.yul\":545:688   */\n  swap3\n  swap2\n  pop\n  pop\n  jump\t// out\n    /* \"#utility.yul\":694:1045   */\ntag_3:\n    /* \"#utility.yul\":764:770   */\n  0x00\n    /* \"#utility.yul\":813:815   */\n  0x20\n    /* \"#utility.yul\":801:810   */\n  dup3\n    /* \"#utility.yul\":792:799   */\n  dup5\n    /* \"#utility.yul\":788:811   */\n  sub\n    /* \"#utility.yul\":784:816   */\n  slt\n    /* \"#utility.yul\":781:900   */\n  iszero\n  tag_24\n  jumpi\n    /* \"#utility.yul\":819:898   */\n  tag_25\n  tag_8\n  jump\t// in\ntag_25:\n    /* \"#utility.yul\":781:900   */\ntag_24:\n    /* \"#utility.yul\":939:940   */\n  0x00\n    /* \"#utility.yul\":964:1028   */\n  tag_26\n    /* \"#utility.yul\":1020:1027   */\n  dup5\n    /* \"#utility.yul\":1011:1017   */\n  dup3\n    /* \"#utility.yul\":1000:1009   */\n  dup6\n    /* \"#utility.yul\":996:1018   */\n  add\n    /* \"#utility.yul\":964:1028   */\n  tag_12\n  jump\t// in\ntag_26:\n    /* \"#utility.yul\":954:1028   */\n  swap2\n  pop\n    /* \"#utility.yul\":910:1038   */\n  pop\n    /* \"#utility.yul\":694:1045   */\n  swap3\n  swap2\n  pop\n  pop\n  jump\t// out\n    /* \"RESORT/ERC20.sol\":861:3731  contract ERC20Basic is IERC20{... */\ntag_6:\n  dataSize(sub_0)\n  dup1\n  dataOffset(sub_0)\n  0x00\n  codecopy\n  0x00\n  return\nstop\n\nsub_0: assembly {\n        /* \"RESORT/ERC20.sol\":861:3731  contract ERC20Basic is IERC20{... */\n      mstore(0x40, 0x80)\n      callvalue\n      dup1\n      iszero\n      tag_1\n      jumpi\n      0x00\n      dup1\n      revert\n    tag_1:\n      pop\n      jumpi(tag_2, lt(calldatasize, 0x04))\n      shr(0xe0, calldataload(0x00))\n      dup1\n      0x70a08231\n      gt\n      tag_15\n      jumpi\n      dup1\n      0x70a08231\n      eq\n      tag_9\n      jumpi\n      dup1\n      0x715018a6\n      eq\n      tag_10\n      jumpi\n      dup1\n      0x95d89b41\n      eq\n      tag_11\n      jumpi\n      dup1\n      0xa9059cbb\n      eq\n      tag_12\n      jumpi\n      dup1\n      0xdd62ed3e\n      eq\n      tag_13\n      jumpi\n      dup1\n      0xe0631f7f\n      eq\n      tag_14\n      jumpi\n      jump(tag_2)\n    tag_15:\n      dup1\n      0x06fdde03\n      eq\n      tag_3\n      jumpi\n      dup1\n      0x095ea7b3\n      eq\n      tag_4\n      jumpi\n      dup1\n      0x18160ddd\n      eq\n      tag_5\n      jumpi\n      dup1\n      0x1d43cc98\n      eq\n      tag_6\n      jumpi\n      dup1\n      0x23b872dd\n      eq\n      tag_7\n      jumpi\n      dup1\n      0x313ce567\n      eq\n      tag_8\n      jumpi\n    tag_2:\n      0x00\n      dup1\n      revert\n        /* \"RESORT/ERC20.sol\":897:935  string public constant name = \"Resort\" */\n    tag_3:\n      tag_16\n      tag_17\n      jump\t// in\n    tag_16:\n      mload(0x40)\n      tag_18\n      swap2\n      swap1\n      tag_19\n      jump\t// in\n    tag_18:\n      mload(0x40)\n      dup1\n      swap2\n      sub\n      swap1\n      return\n        /* \"RESORT/ERC20.sol\":2659:2937  function approve(address _delegate, uint256 _numTokens) public override returns (bool){... */\n    tag_4:\n      tag_20\n      0x04\n      dup1\n      calldatasize\n      sub\n      dup2\n      add\n      swap1\n      tag_21\n      swap2\n      swap1\n      tag_22\n      jump\t// in\n    tag_21:\n      tag_23\n      jump\t// in\n    tag_20:\n      mload(0x40)\n      tag_24\n      swap2\n      swap1\n      tag_25\n      jump\t// in\n    tag_24:\n      mload(0x40)\n      dup1\n      swap2\n      sub\n      swap1\n      return\n        /* \"RESORT/ERC20.sol\":1462:1559  function totalSupply() public override view returns (uint256){... */\n    tag_5:\n      tag_26\n      tag_27\n      jump\t// in\n    tag_26:\n      mload(0x40)\n      tag_28\n      swap2\n      swap1\n      tag_29\n      jump\t// in\n    tag_28:\n      mload(0x40)\n      dup1\n      swap2\n      sub\n      swap1\n      return\n        /* \"RESORT/ERC20.sol\":3559:3727  function increaseTotalSupply(uint _newTokensAmount) public onlyOwner{... */\n    tag_6:\n      tag_30\n      0x04\n      dup1\n      calldatasize\n      sub\n      dup2\n      add\n      swap1\n      tag_31\n      swap2\n      swap1\n      tag_32\n      jump\t// in\n    tag_31:\n      tag_33\n      jump\t// in\n    tag_30:\n      stop\n        /* \"RESORT/ERC20.sol\":2943:3439  function transferFrom(address _owner, address _buyer, uint256 _numTokens) public override returns (bool){... */\n    tag_7:\n      tag_34\n      0x04\n      dup1\n      calldatasize\n      sub\n      dup2\n      add\n      swap1\n      tag_35\n      swap2\n      swap1\n      tag_36\n      jump\t// in\n    tag_35:\n      tag_37\n      jump\t// in\n    tag_34:\n      mload(0x40)\n      tag_38\n      swap2\n      swap1\n      tag_25\n      jump\t// in\n    tag_38:\n      mload(0x40)\n      dup1\n      swap2\n      sub\n      swap1\n      return\n        /* \"RESORT/ERC20.sol\":984:1019  uint8 public constant decimals = 18 */\n    tag_8:\n      tag_39\n      tag_40\n      jump\t// in\n    tag_39:\n      mload(0x40)\n      tag_41\n      swap2\n      swap1\n      tag_42\n      jump\t// in\n    tag_41:\n      mload(0x40)\n      dup1\n      swap2\n      sub\n      swap1\n      return\n        /* \"RESORT/ERC20.sol\":1565:1687  function balanceOf(address _tokenOwner) public override view returns(uint256){... */\n    tag_9:\n      tag_43\n      0x04\n      dup1\n      calldatasize\n      sub\n      dup2\n      add\n      swap1\n      tag_44\n      swap2\n      swap1\n      tag_45\n      jump\t// in\n    tag_44:\n      tag_46\n      jump\t// in\n    tag_43:\n      mload(0x40)\n      tag_47\n      swap2\n      swap1\n      tag_29\n      jump\t// in\n    tag_47:\n      mload(0x40)\n      dup1\n      swap2\n      sub\n      swap1\n      return\n        /* \"RESORT/ERC20.sol\":3472:3552  function renounceOwnership() public onlyOwner{... */\n    tag_10:\n      tag_48\n      tag_49\n      jump\t// in\n    tag_48:\n      stop\n        /* \"RESORT/ERC20.sol\":941:978  string public constant symbol = \"RST\" */\n    tag_11:\n      tag_50\n      tag_51\n      jump\t// in\n    tag_50:\n      mload(0x40)\n      tag_52\n      swap2\n      swap1\n      tag_19\n      jump\t// in\n    tag_52:\n      mload(0x40)\n      dup1\n      swap2\n      sub\n      swap1\n      return\n        /* \"RESORT/ERC20.sol\":1870:2234  function transfer(address _recipient, uint256 _numTokens) public override returns (bool){... */\n    tag_12:\n      tag_53\n      0x04\n      dup1\n      calldatasize\n      sub\n      dup2\n      add\n      swap1\n      tag_54\n      swap2\n      swap1\n      tag_22\n      jump\t// in\n    tag_54:\n      tag_55\n      jump\t// in\n    tag_53:\n      mload(0x40)\n      tag_56\n      swap2\n      swap1\n      tag_25\n      jump\t// in\n    tag_56:\n      mload(0x40)\n      dup1\n      swap2\n      sub\n      swap1\n      return\n        /* \"RESORT/ERC20.sol\":1693:1834  function allowance(address _owner, address _delegate) public override view returns(uint256){... */\n    tag_13:\n      tag_57\n      0x04\n      dup1\n      calldatasize\n      sub\n      dup2\n      add\n      swap1\n      tag_58\n      swap2\n      swap1\n      tag_59\n      jump\t// in\n    tag_58:\n      tag_60\n      jump\t// in\n    tag_57:\n      mload(0x40)\n      tag_61\n      swap2\n      swap1\n      tag_29\n      jump\t// in\n    tag_61:\n      mload(0x40)\n      dup1\n      swap2\n      sub\n      swap1\n      return\n        /* \"RESORT/ERC20.sol\":2268:2653  function transferFromClient(address _client, address _recipient, uint256 _numTokens) public override returns (bool){... */\n    tag_14:\n      tag_62\n      0x04\n      dup1\n      calldatasize\n      sub\n      dup2\n      add\n      swap1\n      tag_63\n      swap2\n      swap1\n      tag_36\n      jump\t// in\n    tag_63:\n      tag_64\n      jump\t// in\n    tag_62:\n      mload(0x40)\n      tag_65\n      swap2\n      swap1\n      tag_25\n      jump\t// in\n    tag_65:\n      mload(0x40)\n      dup1\n      swap2\n      sub\n      swap1\n      return\n        /* \"RESORT/ERC20.sol\":897:935  string public constant name = \"Resort\" */\n    tag_17:\n      mload(0x40)\n      dup1\n      0x40\n      add\n      0x40\n      mstore\n      dup1\n      0x06\n      dup2\n      mstore\n      0x20\n      add\n      0x5265736f72740000000000000000000000000000000000000000000000000000\n      dup2\n      mstore\n      pop\n      dup2\n      jump\t// out\n        /* \"RESORT/ERC20.sol\":2659:2937  function approve(address _delegate, uint256 _numTokens) public override returns (bool){... */\n    tag_23:\n        /* \"RESORT/ERC20.sol\":2740:2744  bool */\n      0x00\n        /* \"RESORT/ERC20.sol\":2777:2785  balances */\n      0x01\n        /* \"RESORT/ERC20.sol\":2777:2797  balances[msg.sender] */\n      0x00\n        /* \"RESORT/ERC20.sol\":2786:2796  msg.sender */\n      caller\n        /* \"RESORT/ERC20.sol\":2777:2797  balances[msg.sender] */\n      0xffffffffffffffffffffffffffffffffffffffff\n      and\n      0xffffffffffffffffffffffffffffffffffffffff\n      and\n      dup2\n      mstore\n      0x20\n      add\n      swap1\n      dup2\n      mstore\n      0x20\n      add\n      0x00\n      keccak256\n      sload\n        /* \"RESORT/ERC20.sol\":2763:2773  _numTokens */\n      dup3\n        /* \"RESORT/ERC20.sol\":2763:2797  _numTokens <= balances[msg.sender] */\n      gt\n      iszero\n        /* \"RESORT/ERC20.sol\":2755:2798  require(_numTokens <= balances[msg.sender]) */\n      tag_67\n      jumpi\n      0x00\n      dup1\n      revert\n    tag_67:\n        /* \"RESORT/ERC20.sol\":2841:2851  _numTokens */\n      dup2\n        /* \"RESORT/ERC20.sol\":2808:2815  allowed */\n      0x02\n        /* \"RESORT/ERC20.sol\":2808:2827  allowed[msg.sender] */\n      0x00\n        /* \"RESORT/ERC20.sol\":2816:2826  msg.sender */\n      caller\n        /* \"RESORT/ERC20.sol\":2808:2827  allowed[msg.sender] */\n      0xffffffffffffffffffffffffffffffffffffffff\n      and\n      0xffffffffffffffffffffffffffffffffffffffff\n      and\n      dup2\n      mstore\n      0x20\n      add\n      swap1\n      dup2\n      mstore\n      0x20\n      add\n      0x00\n      keccak256\n        /* \"RESORT/ERC20.sol\":2808:2838  allowed[msg.sender][_delegate] */\n      0x00\n        /* \"RESORT/ERC20.sol\":2828:2837  _delegate */\n      dup6\n        /* \"RESORT/ERC20.sol\":2808:2838  allowed[msg.sender][_delegate] */\n      0xffffffffffffffffffffffffffffffffffffffff\n      and\n      0xffffffffffffffffffffffffffffffffffffffff\n      and\n      dup2\n      mstore\n      0x20\n      add\n      swap1\n      dup2\n      mstore\n      0x20\n      add\n      0x00\n      keccak256\n        /* \"RESORT/ERC20.sol\":2808:2851  allowed[msg.sender][_delegate] = _numTokens */\n      dup2\n      swap1\n      sstore\n      pop\n        /* \"RESORT/ERC20.sol\":2887:2896  _delegate */\n      dup3\n        /* \"RESORT/ERC20.sol\":2866:2909  Approval(msg.sender, _delegate, _numTokens) */\n      0xffffffffffffffffffffffffffffffffffffffff\n      and\n        /* \"RESORT/ERC20.sol\":2875:2885  msg.sender */\n      caller\n        /* \"RESORT/ERC20.sol\":2866:2909  Approval(msg.sender, _delegate, _numTokens) */\n      0xffffffffffffffffffffffffffffffffffffffff\n      and\n      0x8c5be1e5ebec7d5bd14f71427d1e84f3dd0314c0f7b2291e5b200ac8c7c3b925\n        /* \"RESORT/ERC20.sol\":2898:2908  _numTokens */\n      dup5\n        /* \"RESORT/ERC20.sol\":2866:2909  Approval(msg.sender, _delegate, _numTokens) */\n      mload(0x40)\n      tag_68\n      swap2\n      swap1\n      tag_29\n      jump\t// in\n    tag_68:\n      mload(0x40)\n      dup1\n      swap2\n      sub\n      swap1\n      log3\n        /* \"RESORT/ERC20.sol\":2926:2930  true */\n      0x01\n        /* \"RESORT/ERC20.sol\":2919:2930  return true */\n      swap1\n      pop\n        /* \"RESORT/ERC20.sol\":2659:2937  function approve(address _delegate, uint256 _numTokens) public override returns (bool){... */\n      swap3\n      swap2\n      pop\n      pop\n      jump\t// out\n        /* \"RESORT/ERC20.sol\":1462:1559  function totalSupply() public override view returns (uint256){... */\n    tag_27:\n        /* \"RESORT/ERC20.sol\":1515:1522  uint256 */\n      0x00\n        /* \"RESORT/ERC20.sol\":1540:1552  totalSupply_ */\n      sload(0x03)\n        /* \"RESORT/ERC20.sol\":1533:1552  return totalSupply_ */\n      swap1\n      pop\n        /* \"RESORT/ERC20.sol\":1462:1559  function totalSupply() public override view returns (uint256){... */\n      swap1\n      jump\t// out\n        /* \"RESORT/ERC20.sol\":3559:3727  function increaseTotalSupply(uint _newTokensAmount) public onlyOwner{... */\n    tag_33:\n        /* \"RESORT/ERC20.sol\":1252:1262  msg.sender */\n      caller\n        /* \"RESORT/ERC20.sol\":1243:1262  owner == msg.sender */\n      0xffffffffffffffffffffffffffffffffffffffff\n      and\n        /* \"RESORT/ERC20.sol\":1243:1248  owner */\n      0x00\n      dup1\n      sload\n      swap1\n      0x0100\n      exp\n      swap1\n      div\n      0xffffffffffffffffffffffffffffffffffffffff\n      and\n        /* \"RESORT/ERC20.sol\":1243:1262  owner == msg.sender */\n      0xffffffffffffffffffffffffffffffffffffffff\n      and\n      eq\n        /* \"RESORT/ERC20.sol\":1235:1279  require(owner == msg.sender,\"Must be Owner\") */\n      tag_71\n      jumpi\n      mload(0x40)\n      0x08c379a000000000000000000000000000000000000000000000000000000000\n      dup2\n      mstore\n      0x04\n      add\n      tag_72\n      swap1\n      tag_73\n      jump\t// in\n    tag_72:\n      mload(0x40)\n      dup1\n      swap2\n      sub\n      swap1\n      revert\n    tag_71:\n        /* \"RESORT/ERC20.sol\":3654:3670  _newTokensAmount */\n      dup1\n        /* \"RESORT/ERC20.sol\":3637:3649  totalSupply_ */\n      0x03\n      0x00\n        /* \"RESORT/ERC20.sol\":3637:3670  totalSupply_ +=  _newTokensAmount */\n      dup3\n      dup3\n      sload\n      tag_75\n      swap2\n      swap1\n      tag_76\n      jump\t// in\n    tag_75:\n      swap3\n      pop\n      pop\n      dup2\n      swap1\n      sstore\n      pop\n        /* \"RESORT/ERC20.sol\":3704:3720  _newTokensAmount */\n      dup1\n        /* \"RESORT/ERC20.sol\":3680:3688  balances */\n      0x01\n        /* \"RESORT/ERC20.sol\":3680:3700  balances[msg.sender] */\n      0x00\n        /* \"RESORT/ERC20.sol\":3689:3699  msg.sender */\n      caller\n        /* \"RESORT/ERC20.sol\":3680:3700  balances[msg.sender] */\n      0xffffffffffffffffffffffffffffffffffffffff\n      and\n      0xffffffffffffffffffffffffffffffffffffffff\n      and\n      dup2\n      mstore\n      0x20\n      add\n      swap1\n      dup2\n      mstore\n      0x20\n      add\n      0x00\n      keccak256\n      0x00\n        /* \"RESORT/ERC20.sol\":3680:3720  balances[msg.sender] += _newTokensAmount */\n      dup3\n      dup3\n      sload\n      tag_77\n      swap2\n      swap1\n      tag_76\n      jump\t// in\n    tag_77:\n      swap3\n      pop\n      pop\n      dup2\n      swap1\n      sstore\n      pop\n        /* \"RESORT/ERC20.sol\":3559:3727  function increaseTotalSupply(uint _newTokensAmount) public onlyOwner{... */\n      pop\n      jump\t// out\n        /* \"RESORT/ERC20.sol\":2943:3439  function transferFrom(address _owner, address _buyer, uint256 _numTokens) public override returns (bool){... */\n    tag_37:\n        /* \"RESORT/ERC20.sol\":3042:3046  bool */\n      0x00\n        /* \"RESORT/ERC20.sol\":3079:3087  balances */\n      0x01\n        /* \"RESORT/ERC20.sol\":3079:3095  balances[_owner] */\n      0x00\n        /* \"RESORT/ERC20.sol\":3088:3094  _owner */\n      dup6\n        /* \"RESORT/ERC20.sol\":3079:3095  balances[_owner] */\n      0xffffffffffffffffffffffffffffffffffffffff\n      and\n      0xffffffffffffffffffffffffffffffffffffffff\n      and\n      dup2\n      mstore\n      0x20\n      add\n      swap1\n      dup2\n      mstore\n      0x20\n      add\n      0x00\n      keccak256\n      sload\n        /* \"RESORT/ERC20.sol\":3065:3075  _numTokens */\n      dup3\n        /* \"RESORT/ERC20.sol\":3065:3095  _numTokens <= balances[_owner] */\n      gt\n      iszero\n        /* \"RESORT/ERC20.sol\":3057:3096  require(_numTokens <= balances[_owner]) */\n      tag_79\n      jumpi\n      0x00\n      dup1\n      revert\n    tag_79:\n        /* \"RESORT/ERC20.sol\":3128:3135  allowed */\n      0x02\n        /* \"RESORT/ERC20.sol\":3128:3143  allowed[_owner] */\n      0x00\n        /* \"RESORT/ERC20.sol\":3136:3142  _owner */\n      dup6\n        /* \"RESORT/ERC20.sol\":3128:3143  allowed[_owner] */\n      0xffffffffffffffffffffffffffffffffffffffff\n      and\n      0xffffffffffffffffffffffffffffffffffffffff\n      and\n      dup2\n      mstore\n      0x20\n      add\n      swap1\n      dup2\n      mstore\n      0x20\n      add\n      0x00\n      keccak256\n        /* \"RESORT/ERC20.sol\":3128:3155  allowed[_owner][msg.sender] */\n      0x00\n        /* \"RESORT/ERC20.sol\":3144:3154  msg.sender */\n      caller\n        /* \"RESORT/ERC20.sol\":3128:3155  allowed[_owner][msg.sender] */\n      0xffffffffffffffffffffffffffffffffffffffff\n      and\n      0xffffffffffffffffffffffffffffffffffffffff\n      and\n      dup2\n      mstore\n      0x20\n      add\n      swap1\n      dup2\n      mstore\n      0x20\n      add\n      0x00\n      keccak256\n      sload\n        /* \"RESORT/ERC20.sol\":3114:3124  _numTokens */\n      dup3\n        /* \"RESORT/ERC20.sol\":3114:3155  _numTokens <= allowed[_owner][msg.sender] */\n      gt\n      iszero\n        /* \"RESORT/ERC20.sol\":3106:3156  require(_numTokens <= allowed[_owner][msg.sender]) */\n      tag_80\n      jumpi\n      0x00\n      dup1\n      revert\n    tag_80:\n        /* \"RESORT/ERC20.sol\":3185:3217  balances[_owner].sub(_numTokens) */\n      tag_81\n        /* \"RESORT/ERC20.sol\":3206:3216  _numTokens */\n      dup3\n        /* \"RESORT/ERC20.sol\":3185:3193  balances */\n      0x01\n        /* \"RESORT/ERC20.sol\":3185:3201  balances[_owner] */\n      0x00\n        /* \"RESORT/ERC20.sol\":3194:3200  _owner */\n      dup8\n        /* \"RESORT/ERC20.sol\":3185:3201  balances[_owner] */\n      0xffffffffffffffffffffffffffffffffffffffff\n      and\n      0xffffffffffffffffffffffffffffffffffffffff\n      and\n      dup2\n      mstore\n      0x20\n      add\n      swap1\n      dup2\n      mstore\n      0x20\n      add\n      0x00\n      keccak256\n      sload\n        /* \"RESORT/ERC20.sol\":3185:3205  balances[_owner].sub */\n      tag_82\n      swap1\n        /* \"RESORT/ERC20.sol\":3185:3217  balances[_owner].sub(_numTokens) */\n      swap2\n      swap1\n      0xffffffff\n      and\n      jump\t// in\n    tag_81:\n        /* \"RESORT/ERC20.sol\":3166:3174  balances */\n      0x01\n        /* \"RESORT/ERC20.sol\":3166:3182  balances[_owner] */\n      0x00\n        /* \"RESORT/ERC20.sol\":3175:3181  _owner */\n      dup7\n        /* \"RESORT/ERC20.sol\":3166:3182  balances[_owner] */\n      0xffffffffffffffffffffffffffffffffffffffff\n      and\n      0xffffffffffffffffffffffffffffffffffffffff\n      and\n      dup2\n      mstore\n      0x20\n      add\n      swap1\n      dup2\n      mstore\n      0x20\n      add\n      0x00\n      keccak256\n        /* \"RESORT/ERC20.sol\":3166:3217  balances[_owner] = balances[_owner].sub(_numTokens) */\n      dup2\n      swap1\n      sstore\n      pop\n        /* \"RESORT/ERC20.sol\":3257:3300  allowed[_owner][msg.sender].sub(_numTokens) */\n      tag_83\n        /* \"RESORT/ERC20.sol\":3289:3299  _numTokens */\n      dup3\n        /* \"RESORT/ERC20.sol\":3257:3264  allowed */\n      0x02\n        /* \"RESORT/ERC20.sol\":3257:3272  allowed[_owner] */\n      0x00\n        /* \"RESORT/ERC20.sol\":3265:3271  _owner */\n      dup8\n        /* \"RESORT/ERC20.sol\":3257:3272  allowed[_owner] */\n      0xffffffffffffffffffffffffffffffffffffffff\n      and\n      0xffffffffffffffffffffffffffffffffffffffff\n      and\n      dup2\n      mstore\n      0x20\n      add\n      swap1\n      dup2\n      mstore\n      0x20\n      add\n      0x00\n      keccak256\n        /* \"RESORT/ERC20.sol\":3257:3284  allowed[_owner][msg.sender] */\n      0x00\n        /* \"RESORT/ERC20.sol\":3273:3283  msg.sender */\n      caller\n        /* \"RESORT/ERC20.sol\":3257:3284  allowed[_owner][msg.sender] */\n      0xffffffffffffffffffffffffffffffffffffffff\n      and\n      0xffffffffffffffffffffffffffffffffffffffff\n      and\n      dup2\n      mstore\n      0x20\n      add\n      swap1\n      dup2\n      mstore\n      0x20\n      add\n      0x00\n      keccak256\n      sload\n        /* \"RESORT/ERC20.sol\":3257:3288  allowed[_owner][msg.sender].sub */\n      tag_82\n      swap1\n        /* \"RESORT/ERC20.sol\":3257:3300  allowed[_owner][msg.sender].sub(_numTokens) */\n      swap2\n      swap1\n      0xffffffff\n      and\n      jump\t// in\n    tag_83:\n        /* \"RESORT/ERC20.sol\":3227:3234  allowed */\n      0x02\n        /* \"RESORT/ERC20.sol\":3227:3242  allowed[_owner] */\n      0x00\n        /* \"RESORT/ERC20.sol\":3235:3241  _owner */\n      dup7\n        /* \"RESORT/ERC20.sol\":3227:3242  allowed[_owner] */\n      0xffffffffffffffffffffffffffffffffffffffff\n      and\n      0xffffffffffffffffffffffffffffffffffffffff\n      and\n      dup2\n      mstore\n      0x20\n      add\n      swap1\n      dup2\n      mstore\n      0x20\n      add\n      0x00\n      keccak256\n        /* \"RESORT/ERC20.sol\":3227:3254  allowed[_owner][msg.sender] */\n      0x00\n        /* \"RESORT/ERC20.sol\":3243:3253  msg.sender */\n      caller\n        /* \"RESORT/ERC20.sol\":3227:3254  allowed[_owner][msg.sender] */\n      0xffffffffffffffffffffffffffffffffffffffff\n      and\n      0xffffffffffffffffffffffffffffffffffffffff\n      and\n      dup2\n      mstore\n      0x20\n      add\n      swap1\n      dup2\n      mstore\n      0x20\n      add\n      0x00\n      keccak256\n        /* \"RESORT/ERC20.sol\":3227:3300  allowed[_owner][msg.sender] = allowed[_owner][msg.sender].sub(_numTokens) */\n      dup2\n      swap1\n      sstore\n      pop\n        /* \"RESORT/ERC20.sol\":3329:3361  balances[_buyer].add(_numTokens) */\n      tag_84\n        /* \"RESORT/ERC20.sol\":3350:3360  _numTokens */\n      dup3\n        /* \"RESORT/ERC20.sol\":3329:3337  balances */\n      0x01\n        /* \"RESORT/ERC20.sol\":3329:3345  balances[_buyer] */\n      0x00\n        /* \"RESORT/ERC20.sol\":3338:3344  _buyer */\n      dup7\n        /* \"RESORT/ERC20.sol\":3329:3345  balances[_buyer] */\n      0xffffffffffffffffffffffffffffffffffffffff\n      and\n      0xffffffffffffffffffffffffffffffffffffffff\n      and\n      dup2\n      mstore\n      0x20\n      add\n      swap1\n      dup2\n      mstore\n      0x20\n      add\n      0x00\n      keccak256\n      sload\n        /* \"RESORT/ERC20.sol\":3329:3349  balances[_buyer].add */\n      tag_85\n      swap1\n        /* \"RESORT/ERC20.sol\":3329:3361  balances[_buyer].add(_numTokens) */\n      swap2\n      swap1\n      0xffffffff\n      and\n      jump\t// in\n    tag_84:\n        /* \"RESORT/ERC20.sol\":3310:3318  balances */\n      0x01\n        /* \"RESORT/ERC20.sol\":3310:3326  balances[_buyer] */\n      0x00\n        /* \"RESORT/ERC20.sol\":3319:3325  _buyer */\n      dup6\n        /* \"RESORT/ERC20.sol\":3310:3326  balances[_buyer] */\n      0xffffffffffffffffffffffffffffffffffffffff\n      and\n      0xffffffffffffffffffffffffffffffffffffffff\n      and\n      dup2\n      mstore\n      0x20\n      add\n      swap1\n      dup2\n      mstore\n      0x20\n      add\n      0x00\n      keccak256\n        /* \"RESORT/ERC20.sol\":3310:3361  balances[_buyer] = balances[_buyer].add(_numTokens) */\n      dup2\n      swap1\n      sstore\n      pop\n        /* \"RESORT/ERC20.sol\":3392:3398  _buyer */\n      dup3\n        /* \"RESORT/ERC20.sol\":3376:3410  Transfer(_owner,_buyer,_numTokens) */\n      0xffffffffffffffffffffffffffffffffffffffff\n      and\n        /* \"RESORT/ERC20.sol\":3385:3391  _owner */\n      dup5\n        /* \"RESORT/ERC20.sol\":3376:3410  Transfer(_owner,_buyer,_numTokens) */\n      0xffffffffffffffffffffffffffffffffffffffff\n      and\n      0xddf252ad1be2c89b69c2b068fc378daa952ba7f163c4a11628f55a4df523b3ef\n        /* \"RESORT/ERC20.sol\":3399:3409  _numTokens */\n      dup5\n        /* \"RESORT/ERC20.sol\":3376:3410  Transfer(_owner,_buyer,_numTokens) */\n      mload(0x40)\n      tag_86\n      swap2\n      swap1\n      tag_29\n      jump\t// in\n    tag_86:\n      mload(0x40)\n      dup1\n      swap2\n      sub\n      swap1\n      log3\n        /* \"RESORT/ERC20.sol\":3427:3432  false */\n      0x00\n        /* \"RESORT/ERC20.sol\":3420:3432  return false */\n      swap1\n      pop\n        /* \"RESORT/ERC20.sol\":2943:3439  function transferFrom(address _owner, address _buyer, uint256 _numTokens) public override returns (bool){... */\n      swap4\n      swap3\n      pop\n      pop\n      pop\n      jump\t// out\n        /* \"RESORT/ERC20.sol\":984:1019  uint8 public constant decimals = 18 */\n    tag_40:\n        /* \"RESORT/ERC20.sol\":1017:1019  18 */\n      0x12\n        /* \"RESORT/ERC20.sol\":984:1019  uint8 public constant decimals = 18 */\n      dup2\n      jump\t// out\n        /* \"RESORT/ERC20.sol\":1565:1687  function balanceOf(address _tokenOwner) public override view returns(uint256){... */\n    tag_46:\n        /* \"RESORT/ERC20.sol\":1634:1641  uint256 */\n      0x00\n        /* \"RESORT/ERC20.sol\":1659:1667  balances */\n      0x01\n        /* \"RESORT/ERC20.sol\":1659:1680  balances[_tokenOwner] */\n      0x00\n        /* \"RESORT/ERC20.sol\":1668:1679  _tokenOwner */\n      dup4\n        /* \"RESORT/ERC20.sol\":1659:1680  balances[_tokenOwner] */\n      0xffffffffffffffffffffffffffffffffffffffff\n      and\n      0xffffffffffffffffffffffffffffffffffffffff\n      and\n      dup2\n      mstore\n      0x20\n      add\n      swap1\n      dup2\n      mstore\n      0x20\n      add\n      0x00\n      keccak256\n      sload\n        /* \"RESORT/ERC20.sol\":1652:1680  return balances[_tokenOwner] */\n      swap1\n      pop\n        /* \"RESORT/ERC20.sol\":1565:1687  function balanceOf(address _tokenOwner) public override view returns(uint256){... */\n      swap2\n      swap1\n      pop\n      jump\t// out\n        /* \"RESORT/ERC20.sol\":3472:3552  function renounceOwnership() public onlyOwner{... */\n    tag_49:\n        /* \"RESORT/ERC20.sol\":1252:1262  msg.sender */\n      caller\n        /* \"RESORT/ERC20.sol\":1243:1262  owner == msg.sender */\n      0xffffffffffffffffffffffffffffffffffffffff\n      and\n        /* \"RESORT/ERC20.sol\":1243:1248  owner */\n      0x00\n      dup1\n      sload\n      swap1\n      0x0100\n      exp\n      swap1\n      div\n      0xffffffffffffffffffffffffffffffffffffffff\n      and\n        /* \"RESORT/ERC20.sol\":1243:1262  owner == msg.sender */\n      0xffffffffffffffffffffffffffffffffffffffff\n      and\n      eq\n        /* \"RESORT/ERC20.sol\":1235:1279  require(owner == msg.sender,\"Must be Owner\") */\n      tag_89\n      jumpi\n      mload(0x40)\n      0x08c379a000000000000000000000000000000000000000000000000000000000\n      dup2\n      mstore\n      0x04\n      add\n      tag_90\n      swap1\n      tag_73\n      jump\t// in\n    tag_90:\n      mload(0x40)\n      dup1\n      swap2\n      sub\n      swap1\n      revert\n    tag_89:\n        /* \"RESORT/ERC20.sol\":3543:3544  0 */\n      0x00\n        /* \"RESORT/ERC20.sol\":3527:3532  owner */\n      dup1\n      0x00\n        /* \"RESORT/ERC20.sol\":3527:3545  owner = address(0) */\n      0x0100\n      exp\n      dup2\n      sload\n      dup2\n      0xffffffffffffffffffffffffffffffffffffffff\n      mul\n      not\n      and\n      swap1\n      dup4\n      0xffffffffffffffffffffffffffffffffffffffff\n      and\n      mul\n      or\n      swap1\n      sstore\n      pop\n        /* \"RESORT/ERC20.sol\":3472:3552  function renounceOwnership() public onlyOwner{... */\n      jump\t// out\n        /* \"RESORT/ERC20.sol\":941:978  string public constant symbol = \"RST\" */\n    tag_51:\n      mload(0x40)\n      dup1\n      0x40\n      add\n      0x40\n      mstore\n      dup1\n      0x03\n      dup2\n      mstore\n      0x20\n      add\n      0x5253540000000000000000000000000000000000000000000000000000000000\n      dup2\n      mstore\n      pop\n      dup2\n      jump\t// out\n        /* \"RESORT/ERC20.sol\":1870:2234  function transfer(address _recipient, uint256 _numTokens) public override returns (bool){... */\n    tag_55:\n        /* \"RESORT/ERC20.sol\":1953:1957  bool */\n      0x00\n        /* \"RESORT/ERC20.sol\":1990:1998  balances */\n      0x01\n        /* \"RESORT/ERC20.sol\":1990:2010  balances[msg.sender] */\n      0x00\n        /* \"RESORT/ERC20.sol\":1999:2009  msg.sender */\n      caller\n        /* \"RESORT/ERC20.sol\":1990:2010  balances[msg.sender] */\n      0xffffffffffffffffffffffffffffffffffffffff\n      and\n      0xffffffffffffffffffffffffffffffffffffffff\n      and\n      dup2\n      mstore\n      0x20\n      add\n      swap1\n      dup2\n      mstore\n      0x20\n      add\n      0x00\n      keccak256\n      sload\n        /* \"RESORT/ERC20.sol\":1976:1986  _numTokens */\n      dup3\n        /* \"RESORT/ERC20.sol\":1976:2010  _numTokens <= balances[msg.sender] */\n      gt\n      iszero\n        /* \"RESORT/ERC20.sol\":1968:2011  require(_numTokens <= balances[msg.sender]) */\n      tag_93\n      jumpi\n      0x00\n      dup1\n      revert\n    tag_93:\n        /* \"RESORT/ERC20.sol\":2044:2080  balances[msg.sender].sub(_numTokens) */\n      tag_94\n        /* \"RESORT/ERC20.sol\":2069:2079  _numTokens */\n      dup3\n        /* \"RESORT/ERC20.sol\":2044:2052  balances */\n      0x01\n        /* \"RESORT/ERC20.sol\":2044:2064  balances[msg.sender] */\n      0x00\n        /* \"RESORT/ERC20.sol\":2053:2063  msg.sender */\n      caller\n        /* \"RESORT/ERC20.sol\":2044:2064  balances[msg.sender] */\n      0xffffffffffffffffffffffffffffffffffffffff\n      and\n      0xffffffffffffffffffffffffffffffffffffffff\n      and\n      dup2\n      mstore\n      0x20\n      add\n      swap1\n      dup2\n      mstore\n      0x20\n      add\n      0x00\n      keccak256\n      sload\n        /* \"RESORT/ERC20.sol\":2044:2068  balances[msg.sender].sub */\n      tag_82\n      swap1\n        /* \"RESORT/ERC20.sol\":2044:2080  balances[msg.sender].sub(_numTokens) */\n      swap2\n      swap1\n      0xffffffff\n      and\n      jump\t// in\n    tag_94:\n        /* \"RESORT/ERC20.sol\":2021:2029  balances */\n      0x01\n        /* \"RESORT/ERC20.sol\":2021:2041  balances[msg.sender] */\n      0x00\n        /* \"RESORT/ERC20.sol\":2030:2040  msg.sender */\n      caller\n        /* \"RESORT/ERC20.sol\":2021:2041  balances[msg.sender] */\n      0xffffffffffffffffffffffffffffffffffffffff\n      and\n      0xffffffffffffffffffffffffffffffffffffffff\n      and\n      dup2\n      mstore\n      0x20\n      add\n      swap1\n      dup2\n      mstore\n      0x20\n      add\n      0x00\n      keccak256\n        /* \"RESORT/ERC20.sol\":2021:2080  balances[msg.sender] = balances[msg.sender].sub(_numTokens) */\n      dup2\n      swap1\n      sstore\n      pop\n        /* \"RESORT/ERC20.sol\":2113:2149  balances[_recipient].add(_numTokens) */\n      tag_95\n        /* \"RESORT/ERC20.sol\":2138:2148  _numTokens */\n      dup3\n        /* \"RESORT/ERC20.sol\":2113:2121  balances */\n      0x01\n        /* \"RESORT/ERC20.sol\":2113:2133  balances[_recipient] */\n      0x00\n        /* \"RESORT/ERC20.sol\":2122:2132  _recipient */\n      dup7\n        /* \"RESORT/ERC20.sol\":2113:2133  balances[_recipient] */\n      0xffffffffffffffffffffffffffffffffffffffff\n      and\n      0xffffffffffffffffffffffffffffffffffffffff\n      and\n      dup2\n      mstore\n      0x20\n      add\n      swap1\n      dup2\n      mstore\n      0x20\n      add\n      0x00\n      keccak256\n      sload\n        /* \"RESORT/ERC20.sol\":2113:2137  balances[_recipient].add */\n      tag_85\n      swap1\n        /* \"RESORT/ERC20.sol\":2113:2149  balances[_recipient].add(_numTokens) */\n      swap2\n      swap1\n      0xffffffff\n      and\n      jump\t// in\n    tag_95:\n        /* \"RESORT/ERC20.sol\":2090:2098  balances */\n      0x01\n        /* \"RESORT/ERC20.sol\":2090:2110  balances[_recipient] */\n      0x00\n        /* \"RESORT/ERC20.sol\":2099:2109  _recipient */\n      dup6\n        /* \"RESORT/ERC20.sol\":2090:2110  balances[_recipient] */\n      0xffffffffffffffffffffffffffffffffffffffff\n      and\n      0xffffffffffffffffffffffffffffffffffffffff\n      and\n      dup2\n      mstore\n      0x20\n      add\n      swap1\n      dup2\n      mstore\n      0x20\n      add\n      0x00\n      keccak256\n        /* \"RESORT/ERC20.sol\":2090:2149  balances[_recipient] = balances[_recipient].add(_numTokens) */\n      dup2\n      swap1\n      sstore\n      pop\n        /* \"RESORT/ERC20.sol\":2184:2194  _recipient */\n      dup3\n        /* \"RESORT/ERC20.sol\":2164:2206  Transfer(msg.sender,_recipient,_numTokens) */\n      0xffffffffffffffffffffffffffffffffffffffff\n      and\n        /* \"RESORT/ERC20.sol\":2173:2183  msg.sender */\n      caller\n        /* \"RESORT/ERC20.sol\":2164:2206  Transfer(msg.sender,_recipient,_numTokens) */\n      0xffffffffffffffffffffffffffffffffffffffff\n      and\n      0xddf252ad1be2c89b69c2b068fc378daa952ba7f163c4a11628f55a4df523b3ef\n        /* \"RESORT/ERC20.sol\":2195:2205  _numTokens */\n      dup5\n        /* \"RESORT/ERC20.sol\":2164:2206  Transfer(msg.sender,_recipient,_numTokens) */\n      mload(0x40)\n      tag_96\n      swap2\n      swap1\n      tag_29\n      jump\t// in\n    tag_96:\n      mload(0x40)\n      dup1\n      swap2\n      sub\n      swap1\n      log3\n        /* \"RESORT/ERC20.sol\":2223:2227  true */\n      0x01\n        /* \"RESORT/ERC20.sol\":2216:2227  return true */\n      swap1\n      pop\n        /* \"RESORT/ERC20.sol\":1870:2234  function transfer(address _recipient, uint256 _numTokens) public override returns (bool){... */\n      swap3\n      swap2\n      pop\n      pop\n      jump\t// out\n        /* \"RESORT/ERC20.sol\":1693:1834  function allowance(address _owner, address _delegate) public override view returns(uint256){... */\n    tag_60:\n        /* \"RESORT/ERC20.sol\":1776:1783  uint256 */\n      0x00\n        /* \"RESORT/ERC20.sol\":1801:1808  allowed */\n      0x02\n        /* \"RESORT/ERC20.sol\":1801:1816  allowed[_owner] */\n      0x00\n        /* \"RESORT/ERC20.sol\":1809:1815  _owner */\n      dup5\n        /* \"RESORT/ERC20.sol\":1801:1816  allowed[_owner] */\n      0xffffffffffffffffffffffffffffffffffffffff\n      and\n      0xffffffffffffffffffffffffffffffffffffffff\n      and\n      dup2\n      mstore\n      0x20\n      add\n      swap1\n      dup2\n      mstore\n      0x20\n      add\n      0x00\n      keccak256\n        /* \"RESORT/ERC20.sol\":1801:1827  allowed[_owner][_delegate] */\n      0x00\n        /* \"RESORT/ERC20.sol\":1817:1826  _delegate */\n      dup4\n        /* \"RESORT/ERC20.sol\":1801:1827  allowed[_owner][_delegate] */\n      0xffffffffffffffffffffffffffffffffffffffff\n      and\n      0xffffffffffffffffffffffffffffffffffffffff\n      and\n      dup2\n      mstore\n      0x20\n      add\n      swap1\n      dup2\n      mstore\n      0x20\n      add\n      0x00\n      keccak256\n      sload\n        /* \"RESORT/ERC20.sol\":1794:1827  return allowed[_owner][_delegate] */\n      swap1\n      pop\n        /* \"RESORT/ERC20.sol\":1693:1834  function allowance(address _owner, address _delegate) public override view returns(uint256){... */\n      swap3\n      swap2\n      pop\n      pop\n      jump\t// out\n        /* \"RESORT/ERC20.sol\":2268:2653  function transferFromClient(address _client, address _recipient, uint256 _numTokens) public override returns (bool){... */\n    tag_64:\n        /* \"RESORT/ERC20.sol\":2378:2382  bool */\n      0x00\n        /* \"RESORT/ERC20.sol\":2415:2423  balances */\n      0x01\n        /* \"RESORT/ERC20.sol\":2415:2432  balances[_client] */\n      0x00\n        /* \"RESORT/ERC20.sol\":2424:2431  _client */\n      dup6\n        /* \"RESORT/ERC20.sol\":2415:2432  balances[_client] */\n      0xffffffffffffffffffffffffffffffffffffffff\n      and\n      0xffffffffffffffffffffffffffffffffffffffff\n      and\n      dup2\n      mstore\n      0x20\n      add\n      swap1\n      dup2\n      mstore\n      0x20\n      add\n      0x00\n      keccak256\n      sload\n        /* \"RESORT/ERC20.sol\":2401:2411  _numTokens */\n      dup3\n        /* \"RESORT/ERC20.sol\":2401:2432  _numTokens <= balances[_client] */\n      gt\n      iszero\n        /* \"RESORT/ERC20.sol\":2393:2433  require(_numTokens <= balances[_client]) */\n      tag_99\n      jumpi\n      0x00\n      dup1\n      revert\n    tag_99:\n        /* \"RESORT/ERC20.sol\":2463:2499  balances[msg.sender].sub(_numTokens) */\n      tag_100\n        /* \"RESORT/ERC20.sol\":2488:2498  _numTokens */\n      dup3\n        /* \"RESORT/ERC20.sol\":2463:2471  balances */\n      0x01\n        /* \"RESORT/ERC20.sol\":2463:2483  balances[msg.sender] */\n      0x00\n        /* \"RESORT/ERC20.sol\":2472:2482  msg.sender */\n      caller\n        /* \"RESORT/ERC20.sol\":2463:2483  balances[msg.sender] */\n      0xffffffffffffffffffffffffffffffffffffffff\n      and\n      0xffffffffffffffffffffffffffffffffffffffff\n      and\n      dup2\n      mstore\n      0x20\n      add\n      swap1\n      dup2\n      mstore\n      0x20\n      add\n      0x00\n      keccak256\n      sload\n        /* \"RESORT/ERC20.sol\":2463:2487  balances[msg.sender].sub */\n      tag_82\n      swap1\n        /* \"RESORT/ERC20.sol\":2463:2499  balances[msg.sender].sub(_numTokens) */\n      swap2\n      swap1\n      0xffffffff\n      and\n      jump\t// in\n    tag_100:\n        /* \"RESORT/ERC20.sol\":2443:2451  balances */\n      0x01\n        /* \"RESORT/ERC20.sol\":2443:2460  balances[_client] */\n      0x00\n        /* \"RESORT/ERC20.sol\":2452:2459  _client */\n      dup7\n        /* \"RESORT/ERC20.sol\":2443:2460  balances[_client] */\n      0xffffffffffffffffffffffffffffffffffffffff\n      and\n      0xffffffffffffffffffffffffffffffffffffffff\n      and\n      dup2\n      mstore\n      0x20\n      add\n      swap1\n      dup2\n      mstore\n      0x20\n      add\n      0x00\n      keccak256\n        /* \"RESORT/ERC20.sol\":2443:2499  balances[_client] = balances[msg.sender].sub(_numTokens) */\n      dup2\n      swap1\n      sstore\n      pop\n        /* \"RESORT/ERC20.sol\":2532:2568  balances[_recipient].add(_numTokens) */\n      tag_101\n        /* \"RESORT/ERC20.sol\":2557:2567  _numTokens */\n      dup3\n        /* \"RESORT/ERC20.sol\":2532:2540  balances */\n      0x01\n        /* \"RESORT/ERC20.sol\":2532:2552  balances[_recipient] */\n      0x00\n        /* \"RESORT/ERC20.sol\":2541:2551  _recipient */\n      dup7\n        /* \"RESORT/ERC20.sol\":2532:2552  balances[_recipient] */\n      0xffffffffffffffffffffffffffffffffffffffff\n      and\n      0xffffffffffffffffffffffffffffffffffffffff\n      and\n      dup2\n      mstore\n      0x20\n      add\n      swap1\n      dup2\n      mstore\n      0x20\n      add\n      0x00\n      keccak256\n      sload\n        /* \"RESORT/ERC20.sol\":2532:2556  balances[_recipient].add */\n      tag_85\n      swap1\n        /* \"RESORT/ERC20.sol\":2532:2568  balances[_recipient].add(_numTokens) */\n      swap2\n      swap1\n      0xffffffff\n      and\n      jump\t// in\n    tag_101:\n        /* \"RESORT/ERC20.sol\":2509:2517  balances */\n      0x01\n        /* \"RESORT/ERC20.sol\":2509:2529  balances[_recipient] */\n      0x00\n        /* \"RESORT/ERC20.sol\":2518:2528  _recipient */\n      dup6\n        /* \"RESORT/ERC20.sol\":2509:2529  balances[_recipient] */\n      0xffffffffffffffffffffffffffffffffffffffff\n      and\n      0xffffffffffffffffffffffffffffffffffffffff\n      and\n      dup2\n      mstore\n      0x20\n      add\n      swap1\n      dup2\n      mstore\n      0x20\n      add\n      0x00\n      keccak256\n        /* \"RESORT/ERC20.sol\":2509:2568  balances[_recipient] = balances[_recipient].add(_numTokens) */\n      dup2\n      swap1\n      sstore\n      pop\n        /* \"RESORT/ERC20.sol\":2603:2613  _recipient */\n      dup3\n        /* \"RESORT/ERC20.sol\":2583:2625  Transfer(msg.sender,_recipient,_numTokens) */\n      0xffffffffffffffffffffffffffffffffffffffff\n      and\n        /* \"RESORT/ERC20.sol\":2592:2602  msg.sender */\n      caller\n        /* \"RESORT/ERC20.sol\":2583:2625  Transfer(msg.sender,_recipient,_numTokens) */\n      0xffffffffffffffffffffffffffffffffffffffff\n      and\n      0xddf252ad1be2c89b69c2b068fc378daa952ba7f163c4a11628f55a4df523b3ef\n        /* \"RESORT/ERC20.sol\":2614:2624  _numTokens */\n      dup5\n        /* \"RESORT/ERC20.sol\":2583:2625  Transfer(msg.sender,_recipient,_numTokens) */\n      mload(0x40)\n      tag_102\n      swap2\n      swap1\n      tag_29\n      jump\t// in\n    tag_102:\n      mload(0x40)\n      dup1\n      swap2\n      sub\n      swap1\n      log3\n        /* \"RESORT/ERC20.sol\":2642:2646  true */\n      0x01\n        /* \"RESORT/ERC20.sol\":2635:2646  return true */\n      swap1\n      pop\n        /* \"RESORT/ERC20.sol\":2268:2653  function transferFromClient(address _client, address _recipient, uint256 _numTokens) public override returns (bool){... */\n      swap4\n      swap3\n      pop\n      pop\n      pop\n      jump\t// out\n        /* \"RESORT/SafeMath.sol\":867:977  function sub(uint256 a, uint256 b) internal pure returns (uint256) {... */\n    tag_82:\n        /* \"RESORT/SafeMath.sol\":925:932  uint256 */\n      0x00\n        /* \"RESORT/SafeMath.sol\":952:953  a */\n      dup3\n        /* \"RESORT/SafeMath.sol\":947:948  b */\n      dup3\n        /* \"RESORT/SafeMath.sol\":947:953  b <= a */\n      gt\n      iszero\n        /* \"RESORT/SafeMath.sol\":940:954  assert(b <= a) */\n      tag_104\n      jumpi\n      tag_105\n      tag_106\n      jump\t// in\n    tag_105:\n    tag_104:\n        /* \"RESORT/SafeMath.sol\":971:972  b */\n      dup2\n        /* \"RESORT/SafeMath.sol\":967:968  a */\n      dup4\n        /* \"RESORT/SafeMath.sol\":967:972  a - b */\n      tag_107\n      swap2\n      swap1\n      tag_108\n      jump\t// in\n    tag_107:\n        /* \"RESORT/SafeMath.sol\":960:972  return a - b */\n      swap1\n      pop\n        /* \"RESORT/SafeMath.sol\":867:977  function sub(uint256 a, uint256 b) internal pure returns (uint256) {... */\n      swap3\n      swap2\n      pop\n      pop\n      jump\t// out\n        /* \"RESORT/SafeMath.sol\":1039:1162  function add(uint256 a, uint256 b) internal pure returns (uint256 c) {... */\n    tag_85:\n        /* \"RESORT/SafeMath.sol\":1097:1106  uint256 c */\n      0x00\n        /* \"RESORT/SafeMath.sol\":1122:1123  b */\n      dup2\n        /* \"RESORT/SafeMath.sol\":1118:1119  a */\n      dup4\n        /* \"RESORT/SafeMath.sol\":1118:1123  a + b */\n      tag_110\n      swap2\n      swap1\n      tag_76\n      jump\t// in\n    tag_110:\n        /* \"RESORT/SafeMath.sol\":1114:1123  c = a + b */\n      swap1\n      pop\n        /* \"RESORT/SafeMath.sol\":1141:1142  a */\n      dup3\n        /* \"RESORT/SafeMath.sol\":1136:1137  c */\n      dup2\n        /* \"RESORT/SafeMath.sol\":1136:1142  c >= a */\n      lt\n      iszero\n        /* \"RESORT/SafeMath.sol\":1129:1143  assert(c >= a) */\n      tag_111\n      jumpi\n      tag_112\n      tag_106\n      jump\t// in\n    tag_112:\n    tag_111:\n        /* \"RESORT/SafeMath.sol\":1039:1162  function add(uint256 a, uint256 b) internal pure returns (uint256 c) {... */\n      swap3\n      swap2\n      pop\n      pop\n      jump\t// out\n        /* \"#utility.yul\":7:106   */\n    tag_113:\n        /* \"#utility.yul\":59:65   */\n      0x00\n        /* \"#utility.yul\":93:98   */\n      dup2\n        /* \"#utility.yul\":87:99   */\n      mload\n        /* \"#utility.yul\":77:99   */\n      swap1\n      pop\n        /* \"#utility.yul\":7:106   */\n      swap2\n      swap1\n      pop\n      jump\t// out\n        /* \"#utility.yul\":112:281   */\n    tag_114:\n        /* \"#utility.yul\":196:207   */\n      0x00\n        /* \"#utility.yul\":230:236   */\n      dup3\n        /* \"#utility.yul\":225:228   */\n      dup3\n        /* \"#utility.yul\":218:237   */\n      mstore\n        /* \"#utility.yul\":270:274   */\n      0x20\n        /* \"#utility.yul\":265:268   */\n      dup3\n        /* \"#utility.yul\":261:275   */\n      add\n        /* \"#utility.yul\":246:275   */\n      swap1\n      pop\n        /* \"#utility.yul\":112:281   */\n      swap3\n      swap2\n      pop\n      pop\n      jump\t// out\n        /* \"#utility.yul\":287:533   */\n    tag_115:\n        /* \"#utility.yul\":368:369   */\n      0x00\n        /* \"#utility.yul\":378:491   */\n    tag_140:\n        /* \"#utility.yul\":392:398   */\n      dup4\n        /* \"#utility.yul\":389:390   */\n      dup2\n        /* \"#utility.yul\":386:399   */\n      lt\n        /* \"#utility.yul\":378:491   */\n      iszero\n      tag_142\n      jumpi\n        /* \"#utility.yul\":477:478   */\n      dup1\n        /* \"#utility.yul\":472:475   */\n      dup3\n        /* \"#utility.yul\":468:479   */\n      add\n        /* \"#utility.yul\":462:480   */\n      mload\n        /* \"#utility.yul\":458:459   */\n      dup2\n        /* \"#utility.yul\":453:456   */\n      dup5\n        /* \"#utility.yul\":449:460   */\n      add\n        /* \"#utility.yul\":442:481   */\n      mstore\n        /* \"#utility.yul\":414:416   */\n      0x20\n        /* \"#utility.yul\":411:412   */\n      dup2\n        /* \"#utility.yul\":407:417   */\n      add\n        /* \"#utility.yul\":402:417   */\n      swap1\n      pop\n        /* \"#utility.yul\":378:491   */\n      jump(tag_140)\n    tag_142:\n        /* \"#utility.yul\":525:526   */\n      0x00\n        /* \"#utility.yul\":516:522   */\n      dup5\n        /* \"#utility.yul\":511:514   */\n      dup5\n        /* \"#utility.yul\":507:523   */\n      add\n        /* \"#utility.yul\":500:527   */\n      mstore\n        /* \"#utility.yul\":349:533   */\n      pop\n        /* \"#utility.yul\":287:533   */\n      pop\n      pop\n      pop\n      jump\t// out\n        /* \"#utility.yul\":539:641   */\n    tag_116:\n        /* \"#utility.yul\":580:586   */\n      0x00\n        /* \"#utility.yul\":631:633   */\n      0x1f\n        /* \"#utility.yul\":627:634   */\n      not\n        /* \"#utility.yul\":622:624   */\n      0x1f\n        /* \"#utility.yul\":615:620   */\n      dup4\n        /* \"#utility.yul\":611:625   */\n      add\n        /* \"#utility.yul\":607:635   */\n      and\n        /* \"#utility.yul\":597:635   */\n      swap1\n      pop\n        /* \"#utility.yul\":539:641   */\n      swap2\n      swap1\n      pop\n      jump\t// out\n        /* \"#utility.yul\":647:1024   */\n    tag_117:\n        /* \"#utility.yul\":735:738   */\n      0x00\n        /* \"#utility.yul\":763:802   */\n      tag_145\n        /* \"#utility.yul\":796:801   */\n      dup3\n        /* \"#utility.yul\":763:802   */\n      tag_113\n      jump\t// in\n    tag_145:\n        /* \"#utility.yul\":818:889   */\n      tag_146\n        /* \"#utility.yul\":882:888   */\n      dup2\n        /* \"#utility.yul\":877:880   */\n      dup6\n        /* \"#utility.yul\":818:889   */\n      tag_114\n      jump\t// in\n    tag_146:\n        /* \"#utility.yul\":811:889   */\n      swap4\n      pop\n        /* \"#utility.yul\":898:963   */\n      tag_147\n        /* \"#utility.yul\":956:962   */\n      dup2\n        /* \"#utility.yul\":951:954   */\n      dup6\n        /* \"#utility.yul\":944:948   */\n      0x20\n        /* \"#utility.yul\":937:942   */\n      dup7\n        /* \"#utility.yul\":933:949   */\n      add\n        /* \"#utility.yul\":898:963   */\n      tag_115\n      jump\t// in\n    tag_147:\n        /* \"#utility.yul\":988:1017   */\n      tag_148\n        /* \"#utility.yul\":1010:1016   */\n      dup2\n        /* \"#utility.yul\":988:1017   */\n      tag_116\n      jump\t// in\n    tag_148:\n        /* \"#utility.yul\":983:986   */\n      dup5\n        /* \"#utility.yul\":979:1018   */\n      add\n        /* \"#utility.yul\":972:1018   */\n      swap2\n      pop\n        /* \"#utility.yul\":739:1024   */\n      pop\n        /* \"#utility.yul\":647:1024   */\n      swap3\n      swap2\n      pop\n      pop\n      jump\t// out\n        /* \"#utility.yul\":1030:1343   */\n    tag_19:\n        /* \"#utility.yul\":1143:1147   */\n      0x00\n        /* \"#utility.yul\":1181:1183   */\n      0x20\n        /* \"#utility.yul\":1170:1179   */\n      dup3\n        /* \"#utility.yul\":1166:1184   */\n      add\n        /* \"#utility.yul\":1158:1184   */\n      swap1\n      pop\n        /* \"#utility.yul\":1230:1239   */\n      dup2\n        /* \"#utility.yul\":1224:1228   */\n      dup2\n        /* \"#utility.yul\":1220:1240   */\n      sub\n        /* \"#utility.yul\":1216:1217   */\n      0x00\n        /* \"#utility.yul\":1205:1214   */\n      dup4\n        /* \"#utility.yul\":1201:1218   */\n      add\n        /* \"#utility.yul\":1194:1241   */\n      mstore\n        /* \"#utility.yul\":1258:1336   */\n      tag_150\n        /* \"#utility.yul\":1331:1335   */\n      dup2\n        /* \"#utility.yul\":1322:1328   */\n      dup5\n        /* \"#utility.yul\":1258:1336   */\n      tag_117\n      jump\t// in\n    tag_150:\n        /* \"#utility.yul\":1250:1336   */\n      swap1\n      pop\n        /* \"#utility.yul\":1030:1343   */\n      swap3\n      swap2\n      pop\n      pop\n      jump\t// out\n        /* \"#utility.yul\":1430:1547   */\n    tag_119:\n        /* \"#utility.yul\":1539:1540   */\n      0x00\n        /* \"#utility.yul\":1536:1537   */\n      dup1\n        /* \"#utility.yul\":1529:1541   */\n      revert\n        /* \"#utility.yul\":1676:1802   */\n    tag_121:\n        /* \"#utility.yul\":1713:1720   */\n      0x00\n        /* \"#utility.yul\":1753:1795   */\n      0xffffffffffffffffffffffffffffffffffffffff\n        /* \"#utility.yul\":1746:1751   */\n      dup3\n        /* \"#utility.yul\":1742:1796   */\n      and\n        /* \"#utility.yul\":1731:1796   */\n      swap1\n      pop\n        /* \"#utility.yul\":1676:1802   */\n      swap2\n      swap1\n      pop\n      jump\t// out\n        /* \"#utility.yul\":1808:1904   */\n    tag_122:\n        /* \"#utility.yul\":1845:1852   */\n      0x00\n        /* \"#utility.yul\":1874:1898   */\n      tag_156\n        /* \"#utility.yul\":1892:1897   */\n      dup3\n        /* \"#utility.yul\":1874:1898   */\n      tag_121\n      jump\t// in\n    tag_156:\n        /* \"#utility.yul\":1863:1898   */\n      swap1\n      pop\n        /* \"#utility.yul\":1808:1904   */\n      swap2\n      swap1\n      pop\n      jump\t// out\n        /* \"#utility.yul\":1910:2032   */\n    tag_123:\n        /* \"#utility.yul\":1983:2007   */\n      tag_158\n        /* \"#utility.yul\":2001:2006   */\n      dup2\n        /* \"#utility.yul\":1983:2007   */\n      tag_122\n      jump\t// in\n    tag_158:\n        /* \"#utility.yul\":1976:1981   */\n      dup2\n        /* \"#utility.yul\":1973:2008   */\n      eq\n        /* \"#utility.yul\":1963:2026   */\n      tag_159\n      jumpi\n        /* \"#utility.yul\":2022:2023   */\n      0x00\n        /* \"#utility.yul\":2019:2020   */\n      dup1\n        /* \"#utility.yul\":2012:2024   */\n      revert\n        /* \"#utility.yul\":1963:2026   */\n    tag_159:\n        /* \"#utility.yul\":1910:2032   */\n      pop\n      jump\t// out\n        /* \"#utility.yul\":2038:2177   */\n    tag_124:\n        /* \"#utility.yul\":2084:2089   */\n      0x00\n        /* \"#utility.yul\":2122:2128   */\n      dup2\n        /* \"#utility.yul\":2109:2129   */\n      calldataload\n        /* \"#utility.yul\":2100:2129   */\n      swap1\n      pop\n        /* \"#utility.yul\":2138:2171   */\n      tag_161\n        /* \"#utility.yul\":2165:2170   */\n      dup2\n        /* \"#utility.yul\":2138:2171   */\n      tag_123\n      jump\t// in\n    tag_161:\n        /* \"#utility.yul\":2038:2177   */\n      swap3\n      swap2\n      pop\n      pop\n      jump\t// out\n        /* \"#utility.yul\":2183:2260   */\n    tag_125:\n        /* \"#utility.yul\":2220:2227   */\n      0x00\n        /* \"#utility.yul\":2249:2254   */\n      dup2\n        /* \"#utility.yul\":2238:2254   */\n      swap1\n      pop\n        /* \"#utility.yul\":2183:2260   */\n      swap2\n      swap1\n      pop\n      jump\t// out\n        /* \"#utility.yul\":2266:2388   */\n    tag_126:\n        /* \"#utility.yul\":2339:2363   */\n      tag_164\n        /* \"#utility.yul\":2357:2362   */\n      dup2\n        /* \"#utility.yul\":2339:2363   */\n      tag_125\n      jump\t// in\n    tag_164:\n        /* \"#utility.yul\":2332:2337   */\n      dup2\n        /* \"#utility.yul\":2329:2364   */\n      eq\n        /* \"#utility.yul\":2319:2382   */\n      tag_165\n      jumpi\n        /* \"#utility.yul\":2378:2379   */\n      0x00\n        /* \"#utility.yul\":2375:2376   */\n      dup1\n        /* \"#utility.yul\":2368:2380   */\n      revert\n        /* \"#utility.yul\":2319:2382   */\n    tag_165:\n        /* \"#utility.yul\":2266:2388   */\n      pop\n      jump\t// out\n        /* \"#utility.yul\":2394:2533   */\n    tag_127:\n        /* \"#utility.yul\":2440:2445   */\n      0x00\n        /* \"#utility.yul\":2478:2484   */\n      dup2\n        /* \"#utility.yul\":2465:2485   */\n      calldataload\n        /* \"#utility.yul\":2456:2485   */\n      swap1\n      pop\n        /* \"#utility.yul\":2494:2527   */\n      tag_167\n        /* \"#utility.yul\":2521:2526   */\n      dup2\n        /* \"#utility.yul\":2494:2527   */\n      tag_126\n      jump\t// in\n    tag_167:\n        /* \"#utility.yul\":2394:2533   */\n      swap3\n      swap2\n      pop\n      pop\n      jump\t// out\n        /* \"#utility.yul\":2539:3013   */\n    tag_22:\n        /* \"#utility.yul\":2607:2613   */\n      0x00\n        /* \"#utility.yul\":2615:2621   */\n      dup1\n        /* \"#utility.yul\":2664:2666   */\n      0x40\n        /* \"#utility.yul\":2652:2661   */\n      dup4\n        /* \"#utility.yul\":2643:2650   */\n      dup6\n        /* \"#utility.yul\":2639:2662   */\n      sub\n        /* \"#utility.yul\":2635:2667   */\n      slt\n        /* \"#utility.yul\":2632:2751   */\n      iszero\n      tag_169\n      jumpi\n        /* \"#utility.yul\":2670:2749   */\n      tag_170\n      tag_119\n      jump\t// in\n    tag_170:\n        /* \"#utility.yul\":2632:2751   */\n    tag_169:\n        /* \"#utility.yul\":2790:2791   */\n      0x00\n        /* \"#utility.yul\":2815:2868   */\n      tag_171\n        /* \"#utility.yul\":2860:2867   */\n      dup6\n        /* \"#utility.yul\":2851:2857   */\n      dup3\n        /* \"#utility.yul\":2840:2849   */\n      dup7\n        /* \"#utility.yul\":2836:2858   */\n      add\n        /* \"#utility.yul\":2815:2868   */\n      tag_124\n      jump\t// in\n    tag_171:\n        /* \"#utility.yul\":2805:2868   */\n      swap3\n      pop\n        /* \"#utility.yul\":2761:2878   */\n      pop\n        /* \"#utility.yul\":2917:2919   */\n      0x20\n        /* \"#utility.yul\":2943:2996   */\n      tag_172\n        /* \"#utility.yul\":2988:2995   */\n      dup6\n        /* \"#utility.yul\":2979:2985   */\n      dup3\n        /* \"#utility.yul\":2968:2977   */\n      dup7\n        /* \"#utility.yul\":2964:2986   */\n      add\n        /* \"#utility.yul\":2943:2996   */\n      tag_127\n      jump\t// in\n    tag_172:\n        /* \"#utility.yul\":2933:2996   */\n      swap2\n      pop\n        /* \"#utility.yul\":2888:3006   */\n      pop\n        /* \"#utility.yul\":2539:3013   */\n      swap3\n      pop\n      swap3\n      swap1\n      pop\n      jump\t// out\n        /* \"#utility.yul\":3019:3109   */\n    tag_128:\n        /* \"#utility.yul\":3053:3060   */\n      0x00\n        /* \"#utility.yul\":3096:3101   */\n      dup2\n        /* \"#utility.yul\":3089:3102   */\n      iszero\n        /* \"#utility.yul\":3082:3103   */\n      iszero\n        /* \"#utility.yul\":3071:3103   */\n      swap1\n      pop\n        /* \"#utility.yul\":3019:3109   */\n      swap2\n      swap1\n      pop\n      jump\t// out\n        /* \"#utility.yul\":3115:3224   */\n    tag_129:\n        /* \"#utility.yul\":3196:3217   */\n      tag_175\n        /* \"#utility.yul\":3211:3216   */\n      dup2\n        /* \"#utility.yul\":3196:3217   */\n      tag_128\n      jump\t// in\n    tag_175:\n        /* \"#utility.yul\":3191:3194   */\n      dup3\n        /* \"#utility.yul\":3184:3218   */\n      mstore\n        /* \"#utility.yul\":3115:3224   */\n      pop\n      pop\n      jump\t// out\n        /* \"#utility.yul\":3230:3440   */\n    tag_25:\n        /* \"#utility.yul\":3317:3321   */\n      0x00\n        /* \"#utility.yul\":3355:3357   */\n      0x20\n        /* \"#utility.yul\":3344:3353   */\n      dup3\n        /* \"#utility.yul\":3340:3358   */\n      add\n        /* \"#utility.yul\":3332:3358   */\n      swap1\n      pop\n        /* \"#utility.yul\":3368:3433   */\n      tag_177\n        /* \"#utility.yul\":3430:3431   */\n      0x00\n        /* \"#utility.yul\":3419:3428   */\n      dup4\n        /* \"#utility.yul\":3415:3432   */\n      add\n        /* \"#utility.yul\":3406:3412   */\n      dup5\n        /* \"#utility.yul\":3368:3433   */\n      tag_129\n      jump\t// in\n    tag_177:\n        /* \"#utility.yul\":3230:3440   */\n      swap3\n      swap2\n      pop\n      pop\n      jump\t// out\n        /* \"#utility.yul\":3446:3564   */\n    tag_130:\n        /* \"#utility.yul\":3533:3557   */\n      tag_179\n        /* \"#utility.yul\":3551:3556   */\n      dup2\n        /* \"#utility.yul\":3533:3557   */\n      tag_125\n      jump\t// in\n    tag_179:\n        /* \"#utility.yul\":3528:3531   */\n      dup3\n        /* \"#utility.yul\":3521:3558   */\n      mstore\n        /* \"#utility.yul\":3446:3564   */\n      pop\n      pop\n      jump\t// out\n        /* \"#utility.yul\":3570:3792   */\n    tag_29:\n        /* \"#utility.yul\":3663:3667   */\n      0x00\n        /* \"#utility.yul\":3701:3703   */\n      0x20\n        /* \"#utility.yul\":3690:3699   */\n      dup3\n        /* \"#utility.yul\":3686:3704   */\n      add\n        /* \"#utility.yul\":3678:3704   */\n      swap1\n      pop\n        /* \"#utility.yul\":3714:3785   */\n      tag_181\n        /* \"#utility.yul\":3782:3783   */\n      0x00\n        /* \"#utility.yul\":3771:3780   */\n      dup4\n        /* \"#utility.yul\":3767:3784   */\n      add\n        /* \"#utility.yul\":3758:3764   */\n      dup5\n        /* \"#utility.yul\":3714:3785   */\n      tag_130\n      jump\t// in\n    tag_181:\n        /* \"#utility.yul\":3570:3792   */\n      swap3\n      swap2\n      pop\n      pop\n      jump\t// out\n        /* \"#utility.yul\":3798:4127   */\n    tag_32:\n        /* \"#utility.yul\":3857:3863   */\n      0x00\n        /* \"#utility.yul\":3906:3908   */\n      0x20\n        /* \"#utility.yul\":3894:3903   */\n      dup3\n        /* \"#utility.yul\":3885:3892   */\n      dup5\n        /* \"#utility.yul\":3881:3904   */\n      sub\n        /* \"#utility.yul\":3877:3909   */\n      slt\n        /* \"#utility.yul\":3874:3993   */\n      iszero\n      tag_183\n      jumpi\n        /* \"#utility.yul\":3912:3991   */\n      tag_184\n      tag_119\n      jump\t// in\n    tag_184:\n        /* \"#utility.yul\":3874:3993   */\n    tag_183:\n        /* \"#utility.yul\":4032:4033   */\n      0x00\n        /* \"#utility.yul\":4057:4110   */\n      tag_185\n        /* \"#utility.yul\":4102:4109   */\n      dup5\n        /* \"#utility.yul\":4093:4099   */\n      dup3\n        /* \"#utility.yul\":4082:4091   */\n      dup6\n        /* \"#utility.yul\":4078:4100   */\n      add\n        /* \"#utility.yul\":4057:4110   */\n      tag_127\n      jump\t// in\n    tag_185:\n        /* \"#utility.yul\":4047:4110   */\n      swap2\n      pop\n        /* \"#utility.yul\":4003:4120   */\n      pop\n        /* \"#utility.yul\":3798:4127   */\n      swap3\n      swap2\n      pop\n      pop\n      jump\t// out\n        /* \"#utility.yul\":4133:4752   */\n    tag_36:\n        /* \"#utility.yul\":4210:4216   */\n      0x00\n        /* \"#utility.yul\":4218:4224   */\n      dup1\n        /* \"#utility.yul\":4226:4232   */\n      0x00\n        /* \"#utility.yul\":4275:4277   */\n      0x60\n        /* \"#utility.yul\":4263:4272   */\n      dup5\n        /* \"#utility.yul\":4254:4261   */\n      dup7\n        /* \"#utility.yul\":4250:4273   */\n      sub\n        /* \"#utility.yul\":4246:4278   */\n      slt\n        /* \"#utility.yul\":4243:4362   */\n      iszero\n      tag_187\n      jumpi\n        /* \"#utility.yul\":4281:4360   */\n      tag_188\n      tag_119\n      jump\t// in\n    tag_188:\n        /* \"#utility.yul\":4243:4362   */\n    tag_187:\n        /* \"#utility.yul\":4401:4402   */\n      0x00\n        /* \"#utility.yul\":4426:4479   */\n      tag_189\n        /* \"#utility.yul\":4471:4478   */\n      dup7\n        /* \"#utility.yul\":4462:4468   */\n      dup3\n        /* \"#utility.yul\":4451:4460   */\n      dup8\n        /* \"#utility.yul\":4447:4469   */\n      add\n        /* \"#utility.yul\":4426:4479   */\n      tag_124\n      jump\t// in\n    tag_189:\n        /* \"#utility.yul\":4416:4479   */\n      swap4\n      pop\n        /* \"#utility.yul\":4372:4489   */\n      pop\n        /* \"#utility.yul\":4528:4530   */\n      0x20\n        /* \"#utility.yul\":4554:4607   */\n      tag_190\n        /* \"#utility.yul\":4599:4606   */\n      dup7\n        /* \"#utility.yul\":4590:4596   */\n      dup3\n        /* \"#utility.yul\":4579:4588   */\n      dup8\n        /* \"#utility.yul\":4575:4597   */\n      add\n        /* \"#utility.yul\":4554:4607   */\n      tag_124\n      jump\t// in\n    tag_190:\n        /* \"#utility.yul\":4544:4607   */\n      swap3\n      pop\n        /* \"#utility.yul\":4499:4617   */\n      pop\n        /* \"#utility.yul\":4656:4658   */\n      0x40\n        /* \"#utility.yul\":4682:4735   */\n      tag_191\n        /* \"#utility.yul\":4727:4734   */\n      dup7\n        /* \"#utility.yul\":4718:4724   */\n      dup3\n        /* \"#utility.yul\":4707:4716   */\n      dup8\n        /* \"#utility.yul\":4703:4725   */\n      add\n        /* \"#utility.yul\":4682:4735   */\n      tag_127\n      jump\t// in\n    tag_191:\n        /* \"#utility.yul\":4672:4735   */\n      swap2\n      pop\n        /* \"#utility.yul\":4627:4745   */\n      pop\n        /* \"#utility.yul\":4133:4752   */\n      swap3\n      pop\n      swap3\n      pop\n      swap3\n      jump\t// out\n        /* \"#utility.yul\":4758:4844   */\n    tag_131:\n        /* \"#utility.yul\":4793:4800   */\n      0x00\n        /* \"#utility.yul\":4833:4837   */\n      0xff\n        /* \"#utility.yul\":4826:4831   */\n      dup3\n        /* \"#utility.yul\":4822:4838   */\n      and\n        /* \"#utility.yul\":4811:4838   */\n      swap1\n      pop\n        /* \"#utility.yul\":4758:4844   */\n      swap2\n      swap1\n      pop\n      jump\t// out\n        /* \"#utility.yul\":4850:4962   */\n    tag_132:\n        /* \"#utility.yul\":4933:4955   */\n      tag_194\n        /* \"#utility.yul\":4949:4954   */\n      dup2\n        /* \"#utility.yul\":4933:4955   */\n      tag_131\n      jump\t// in\n    tag_194:\n        /* \"#utility.yul\":4928:4931   */\n      dup3\n        /* \"#utility.yul\":4921:4956   */\n      mstore\n        /* \"#utility.yul\":4850:4962   */\n      pop\n      pop\n      jump\t// out\n        /* \"#utility.yul\":4968:5182   */\n    tag_42:\n        /* \"#utility.yul\":5057:5061   */\n      0x00\n        /* \"#utility.yul\":5095:5097   */\n      0x20\n        /* \"#utility.yul\":5084:5093   */\n      dup3\n        /* \"#utility.yul\":5080:5098   */\n      add\n        /* \"#utility.yul\":5072:5098   */\n      swap1\n      pop\n        /* \"#utility.yul\":5108:5175   */\n      tag_196\n        /* \"#utility.yul\":5172:5173   */\n      0x00\n        /* \"#utility.yul\":5161:5170   */\n      dup4\n        /* \"#utility.yul\":5157:5174   */\n      add\n        /* \"#utility.yul\":5148:5154   */\n      dup5\n        /* \"#utility.yul\":5108:5175   */\n      tag_132\n      jump\t// in\n    tag_196:\n        /* \"#utility.yul\":4968:5182   */\n      swap3\n      swap2\n      pop\n      pop\n      jump\t// out\n        /* \"#utility.yul\":5188:5517   */\n    tag_45:\n        /* \"#utility.yul\":5247:5253   */\n      0x00\n        /* \"#utility.yul\":5296:5298   */\n      0x20\n        /* \"#utility.yul\":5284:5293   */\n      dup3\n        /* \"#utility.yul\":5275:5282   */\n      dup5\n        /* \"#utility.yul\":5271:5294   */\n      sub\n        /* \"#utility.yul\":5267:5299   */\n      slt\n        /* \"#utility.yul\":5264:5383   */\n      iszero\n      tag_198\n      jumpi\n        /* \"#utility.yul\":5302:5381   */\n      tag_199\n      tag_119\n      jump\t// in\n    tag_199:\n        /* \"#utility.yul\":5264:5383   */\n    tag_198:\n        /* \"#utility.yul\":5422:5423   */\n      0x00\n        /* \"#utility.yul\":5447:5500   */\n      tag_200\n        /* \"#utility.yul\":5492:5499   */\n      dup5\n        /* \"#utility.yul\":5483:5489   */\n      dup3\n        /* \"#utility.yul\":5472:5481   */\n      dup6\n        /* \"#utility.yul\":5468:5490   */\n      add\n        /* \"#utility.yul\":5447:5500   */\n      tag_124\n      jump\t// in\n    tag_200:\n        /* \"#utility.yul\":5437:5500   */\n      swap2\n      pop\n        /* \"#utility.yul\":5393:5510   */\n      pop\n        /* \"#utility.yul\":5188:5517   */\n      swap3\n      swap2\n      pop\n      pop\n      jump\t// out\n        /* \"#utility.yul\":5523:5997   */\n    tag_59:\n        /* \"#utility.yul\":5591:5597   */\n      0x00\n        /* \"#utility.yul\":5599:5605   */\n      dup1\n        /* \"#utility.yul\":5648:5650   */\n      0x40\n        /* \"#utility.yul\":5636:5645   */\n      dup4\n        /* \"#utility.yul\":5627:5634   */\n      dup6\n        /* \"#utility.yul\":5623:5646   */\n      sub\n        /* \"#utility.yul\":5619:5651   */\n      slt\n        /* \"#utility.yul\":5616:5735   */\n      iszero\n      tag_202\n      jumpi\n        /* \"#utility.yul\":5654:5733   */\n      tag_203\n      tag_119\n      jump\t// in\n    tag_203:\n        /* \"#utility.yul\":5616:5735   */\n    tag_202:\n        /* \"#utility.yul\":5774:5775   */\n      0x00\n        /* \"#utility.yul\":5799:5852   */\n      tag_204\n        /* \"#utility.yul\":5844:5851   */\n      dup6\n        /* \"#utility.yul\":5835:5841   */\n      dup3\n        /* \"#utility.yul\":5824:5833   */\n      dup7\n        /* \"#utility.yul\":5820:5842   */\n      add\n        /* \"#utility.yul\":5799:5852   */\n      tag_124\n      jump\t// in\n    tag_204:\n        /* \"#utility.yul\":5789:5852   */\n      swap3\n      pop\n        /* \"#utility.yul\":5745:5862   */\n      pop\n        /* \"#utility.yul\":5901:5903   */\n      0x20\n        /* \"#utility.yul\":5927:5980   */\n      tag_205\n        /* \"#utility.yul\":5972:5979   */\n      dup6\n        /* \"#utility.yul\":5963:5969   */\n      dup3\n        /* \"#utility.yul\":5952:5961   */\n      dup7\n        /* \"#utility.yul\":5948:5970   */\n      add\n        /* \"#utility.yul\":5927:5980   */\n      tag_124\n      jump\t// in\n    tag_205:\n        /* \"#utility.yul\":5917:5980   */\n      swap2\n      pop\n        /* \"#utility.yul\":5872:5990   */\n      pop\n        /* \"#utility.yul\":5523:5997   */\n      swap3\n      pop\n      swap3\n      swap1\n      pop\n      jump\t// out\n        /* \"#utility.yul\":6003:6166   */\n    tag_133:\n        /* \"#utility.yul\":6143:6158   */\n      0x4d757374206265204f776e657200000000000000000000000000000000000000\n        /* \"#utility.yul\":6139:6140   */\n      0x00\n        /* \"#utility.yul\":6131:6137   */\n      dup3\n        /* \"#utility.yul\":6127:6141   */\n      add\n        /* \"#utility.yul\":6120:6159   */\n      mstore\n        /* \"#utility.yul\":6003:6166   */\n      pop\n      jump\t// out\n        /* \"#utility.yul\":6172:6538   */\n    tag_134:\n        /* \"#utility.yul\":6314:6317   */\n      0x00\n        /* \"#utility.yul\":6335:6402   */\n      tag_208\n        /* \"#utility.yul\":6399:6401   */\n      0x0d\n        /* \"#utility.yul\":6394:6397   */\n      dup4\n        /* \"#utility.yul\":6335:6402   */\n      tag_114\n      jump\t// in\n    tag_208:\n        /* \"#utility.yul\":6328:6402   */\n      swap2\n      pop\n        /* \"#utility.yul\":6411:6504   */\n      tag_209\n        /* \"#utility.yul\":6500:6503   */\n      dup3\n        /* \"#utility.yul\":6411:6504   */\n      tag_133\n      jump\t// in\n    tag_209:\n        /* \"#utility.yul\":6529:6531   */\n      0x20\n        /* \"#utility.yul\":6524:6527   */\n      dup3\n        /* \"#utility.yul\":6520:6532   */\n      add\n        /* \"#utility.yul\":6513:6532   */\n      swap1\n      pop\n        /* \"#utility.yul\":6172:6538   */\n      swap2\n      swap1\n      pop\n      jump\t// out\n        /* \"#utility.yul\":6544:6963   */\n    tag_73:\n        /* \"#utility.yul\":6710:6714   */\n      0x00\n        /* \"#utility.yul\":6748:6750   */\n      0x20\n        /* \"#utility.yul\":6737:6746   */\n      dup3\n        /* \"#utility.yul\":6733:6751   */\n      add\n        /* \"#utility.yul\":6725:6751   */\n      swap1\n      pop\n        /* \"#utility.yul\":6797:6806   */\n      dup2\n        /* \"#utility.yul\":6791:6795   */\n      dup2\n        /* \"#utility.yul\":6787:6807   */\n      sub\n        /* \"#utility.yul\":6783:6784   */\n      0x00\n        /* \"#utility.yul\":6772:6781   */\n      dup4\n        /* \"#utility.yul\":6768:6785   */\n      add\n        /* \"#utility.yul\":6761:6808   */\n      mstore\n        /* \"#utility.yul\":6825:6956   */\n      tag_211\n        /* \"#utility.yul\":6951:6955   */\n      dup2\n        /* \"#utility.yul\":6825:6956   */\n      tag_134\n      jump\t// in\n    tag_211:\n        /* \"#utility.yul\":6817:6956   */\n      swap1\n      pop\n        /* \"#utility.yul\":6544:6963   */\n      swap2\n      swap1\n      pop\n      jump\t// out\n        /* \"#utility.yul\":6969:7149   */\n    tag_135:\n        /* \"#utility.yul\":7017:7094   */\n      0x4e487b7100000000000000000000000000000000000000000000000000000000\n        /* \"#utility.yul\":7014:7015   */\n      0x00\n        /* \"#utility.yul\":7007:7095   */\n      mstore\n        /* \"#utility.yul\":7114:7118   */\n      0x11\n        /* \"#utility.yul\":7111:7112   */\n      0x04\n        /* \"#utility.yul\":7104:7119   */\n      mstore\n        /* \"#utility.yul\":7138:7142   */\n      0x24\n        /* \"#utility.yul\":7135:7136   */\n      0x00\n        /* \"#utility.yul\":7128:7143   */\n      revert\n        /* \"#utility.yul\":7155:7346   */\n    tag_76:\n        /* \"#utility.yul\":7195:7198   */\n      0x00\n        /* \"#utility.yul\":7214:7234   */\n      tag_214\n        /* \"#utility.yul\":7232:7233   */\n      dup3\n        /* \"#utility.yul\":7214:7234   */\n      tag_125\n      jump\t// in\n    tag_214:\n        /* \"#utility.yul\":7209:7234   */\n      swap2\n      pop\n        /* \"#utility.yul\":7248:7268   */\n      tag_215\n        /* \"#utility.yul\":7266:7267   */\n      dup4\n        /* \"#utility.yul\":7248:7268   */\n      tag_125\n      jump\t// in\n    tag_215:\n        /* \"#utility.yul\":7243:7268   */\n      swap3\n      pop\n        /* \"#utility.yul\":7291:7292   */\n      dup3\n        /* \"#utility.yul\":7288:7289   */\n      dup3\n        /* \"#utility.yul\":7284:7293   */\n      add\n        /* \"#utility.yul\":7277:7293   */\n      swap1\n      pop\n        /* \"#utility.yul\":7312:7315   */\n      dup1\n        /* \"#utility.yul\":7309:7310   */\n      dup3\n        /* \"#utility.yul\":7306:7316   */\n      gt\n        /* \"#utility.yul\":7303:7339   */\n      iszero\n      tag_216\n      jumpi\n        /* \"#utility.yul\":7319:7337   */\n      tag_217\n      tag_135\n      jump\t// in\n    tag_217:\n        /* \"#utility.yul\":7303:7339   */\n    tag_216:\n        /* \"#utility.yul\":7155:7346   */\n      swap3\n      swap2\n      pop\n      pop\n      jump\t// out\n        /* \"#utility.yul\":7352:7532   */\n    tag_106:\n        /* \"#utility.yul\":7400:7477   */\n      0x4e487b7100000000000000000000000000000000000000000000000000000000\n        /* \"#utility.yul\":7397:7398   */\n      0x00\n        /* \"#utility.yul\":7390:7478   */\n      mstore\n        /* \"#utility.yul\":7497:7501   */\n      0x01\n        /* \"#utility.yul\":7494:7495   */\n      0x04\n        /* \"#utility.yul\":7487:7502   */\n      mstore\n        /* \"#utility.yul\":7521:7525   */\n      0x24\n        /* \"#utility.yul\":7518:7519   */\n      0x00\n        /* \"#utility.yul\":7511:7526   */\n      revert\n        /* \"#utility.yul\":7538:7732   */\n    tag_108:\n        /* \"#utility.yul\":7578:7582   */\n      0x00\n        /* \"#utility.yul\":7598:7618   */\n      tag_220\n        /* \"#utility.yul\":7616:7617   */\n      dup3\n        /* \"#utility.yul\":7598:7618   */\n      tag_125\n      jump\t// in\n    tag_220:\n        /* \"#utility.yul\":7593:7618   */\n      swap2\n      pop\n        /* \"#utility.yul\":7632:7652   */\n      tag_221\n        /* \"#utility.yul\":7650:7651   */\n      dup4\n        /* \"#utility.yul\":7632:7652   */\n      tag_125\n      jump\t// in\n    tag_221:\n        /* \"#utility.yul\":7627:7652   */\n      swap3\n      pop\n        /* \"#utility.yul\":7676:7677   */\n      dup3\n        /* \"#utility.yul\":7673:7674   */\n      dup3\n        /* \"#utility.yul\":7669:7678   */\n      sub\n        /* \"#utility.yul\":7661:7678   */\n      swap1\n      pop\n        /* \"#utility.yul\":7700:7701   */\n      dup2\n        /* \"#utility.yul\":7694:7698   */\n      dup2\n        /* \"#utility.yul\":7691:7702   */\n      gt\n        /* \"#utility.yul\":7688:7725   */\n      iszero\n      tag_222\n      jumpi\n        /* \"#utility.yul\":7705:7723   */\n      tag_223\n      tag_135\n      jump\t// in\n    tag_223:\n        /* \"#utility.yul\":7688:7725   */\n    tag_222:\n        /* \"#utility.yul\":7538:7732   */\n      swap3\n      swap2\n      pop\n      pop\n      jump\t// out\n\n    auxdata: 0xa26469706673582212200e71384d145c809f9d0b7a417f0244eba0ef75ff7a694a4398b27a46dfe26fbc64736f6c63430008120033\n}\n",
				"bytecode": {
					"linkReferences": {},
					"object": "60806040523480156200001157600080fd5b50604051620014383803806200143883398181016040528101906200003791906200010b565b336000806101000a81548173ffffffffffffffffffffffffffffffffffffffff021916908373ffffffffffffffffffffffffffffffffffffffff16021790555080600381905550600354600160003373ffffffffffffffffffffffffffffffffffffffff1673ffffffffffffffffffffffffffffffffffffffff16815260200190815260200160002081905550506200013d565b600080fd5b6000819050919050565b620000e581620000d0565b8114620000f157600080fd5b50565b6000815190506200010581620000da565b92915050565b600060208284031215620001245762000123620000cb565b5b60006200013484828501620000f4565b91505092915050565b6112eb806200014d6000396000f3fe608060405234801561001057600080fd5b50600436106100b45760003560e01c806370a082311161007157806370a082311461018f578063715018a6146101bf57806395d89b41146101c9578063a9059cbb146101e7578063dd62ed3e14610217578063e0631f7f14610247576100b4565b806306fdde03146100b9578063095ea7b3146100d757806318160ddd146101075780631d43cc981461012557806323b872dd14610141578063313ce56714610171575b600080fd5b6100c1610277565b6040516100ce9190610f04565b60405180910390f35b6100f160048036038101906100ec9190610fbf565b6102b0565b6040516100fe919061101a565b60405180910390f35b61010f6103ee565b60405161011c9190611044565b60405180910390f35b61013f600480360381019061013a919061105f565b6103f8565b005b61015b6004803603810190610156919061108c565b6104f8565b604051610168919061101a565b60405180910390f35b610179610878565b60405161018691906110fb565b60405180910390f35b6101a960048036038101906101a49190611116565b61087d565b6040516101b69190611044565b60405180910390f35b6101c76108c6565b005b6101d1610997565b6040516101de9190610f04565b60405180910390f35b61020160048036038101906101fc9190610fbf565b6109d0565b60405161020e919061101a565b60405180910390f35b610231600480360381019061022c9190611143565b610bb7565b60405161023e9190611044565b60405180910390f35b610261600480360381019061025c919061108c565b610c3e565b60405161026e919061101a565b60405180910390f35b6040518060400160405280600681526020017f5265736f7274000000000000000000000000000000000000000000000000000081525081565b6000600160003373ffffffffffffffffffffffffffffffffffffffff1673ffffffffffffffffffffffffffffffffffffffff168152602001908152602001600020548211156102fe57600080fd5b81600260003373ffffffffffffffffffffffffffffffffffffffff1673ffffffffffffffffffffffffffffffffffffffff16815260200190815260200160002060008573ffffffffffffffffffffffffffffffffffffffff1673ffffffffffffffffffffffffffffffffffffffff168152602001908152602001600020819055508273ffffffffffffffffffffffffffffffffffffffff163373ffffffffffffffffffffffffffffffffffffffff167f8c5be1e5ebec7d5bd14f71427d1e84f3dd0314c0f7b2291e5b200ac8c7c3b925846040516103dc9190611044565b60405180910390a36001905092915050565b6000600354905090565b3373ffffffffffffffffffffffffffffffffffffffff1660008054906101000a900473ffffffffffffffffffffffffffffffffffffffff1673ffffffffffffffffffffffffffffffffffffffff1614610486576040517f08c379a000000000000000000000000000000000000000000000000000000000815260040161047d906111cf565b60405180910390fd5b8060036000828254610498919061121e565b9250508190555080600160003373ffffffffffffffffffffffffffffffffffffffff1673ffffffffffffffffffffffffffffffffffffffff16815260200190815260200160002060008282546104ee919061121e565b9250508190555050565b6000600160008573ffffffffffffffffffffffffffffffffffffffff1673ffffffffffffffffffffffffffffffffffffffff1681526020019081526020016000205482111561054657600080fd5b600260008573ffffffffffffffffffffffffffffffffffffffff1673ffffffffffffffffffffffffffffffffffffffff16815260200190815260200160002060003373ffffffffffffffffffffffffffffffffffffffff1673ffffffffffffffffffffffffffffffffffffffff168152602001908152602001600020548211156105cf57600080fd5b61062182600160008773ffffffffffffffffffffffffffffffffffffffff1673ffffffffffffffffffffffffffffffffffffffff16815260200190815260200160002054610e2690919063ffffffff16565b600160008673ffffffffffffffffffffffffffffffffffffffff1673ffffffffffffffffffffffffffffffffffffffff168152602001908152602001600020819055506106f382600260008773ffffffffffffffffffffffffffffffffffffffff1673ffffffffffffffffffffffffffffffffffffffff16815260200190815260200160002060003373ffffffffffffffffffffffffffffffffffffffff1673ffffffffffffffffffffffffffffffffffffffff16815260200190815260200160002054610e2690919063ffffffff16565b600260008673ffffffffffffffffffffffffffffffffffffffff1673ffffffffffffffffffffffffffffffffffffffff16815260200190815260200160002060003373ffffffffffffffffffffffffffffffffffffffff1673ffffffffffffffffffffffffffffffffffffffff168152602001908152602001600020819055506107c582600160008673ffffffffffffffffffffffffffffffffffffffff1673ffffffffffffffffffffffffffffffffffffffff16815260200190815260200160002054610e4d90919063ffffffff16565b600160008573ffffffffffffffffffffffffffffffffffffffff1673ffffffffffffffffffffffffffffffffffffffff168152602001908152602001600020819055508273ffffffffffffffffffffffffffffffffffffffff168473ffffffffffffffffffffffffffffffffffffffff167fddf252ad1be2c89b69c2b068fc378daa952ba7f163c4a11628f55a4df523b3ef846040516108659190611044565b60405180910390a3600090509392505050565b601281565b6000600160008373ffffffffffffffffffffffffffffffffffffffff1673ffffffffffffffffffffffffffffffffffffffff168152602001908152602001600020549050919050565b3373ffffffffffffffffffffffffffffffffffffffff1660008054906101000a900473ffffffffffffffffffffffffffffffffffffffff1673ffffffffffffffffffffffffffffffffffffffff1614610954576040517f08c379a000000000000000000000000000000000000000000000000000000000815260040161094b906111cf565b60405180910390fd5b60008060006101000a81548173ffffffffffffffffffffffffffffffffffffffff021916908373ffffffffffffffffffffffffffffffffffffffff160217905550565b6040518060400160405280600381526020017f525354000000000000000000000000000000000000000000000000000000000081525081565b6000600160003373ffffffffffffffffffffffffffffffffffffffff1673ffffffffffffffffffffffffffffffffffffffff16815260200190815260200160002054821115610a1e57600080fd5b610a7082600160003373ffffffffffffffffffffffffffffffffffffffff1673ffffffffffffffffffffffffffffffffffffffff16815260200190815260200160002054610e2690919063ffffffff16565b600160003373ffffffffffffffffffffffffffffffffffffffff1673ffffffffffffffffffffffffffffffffffffffff16815260200190815260200160002081905550610b0582600160008673ffffffffffffffffffffffffffffffffffffffff1673ffffffffffffffffffffffffffffffffffffffff16815260200190815260200160002054610e4d90919063ffffffff16565b600160008573ffffffffffffffffffffffffffffffffffffffff1673ffffffffffffffffffffffffffffffffffffffff168152602001908152602001600020819055508273ffffffffffffffffffffffffffffffffffffffff163373ffffffffffffffffffffffffffffffffffffffff167fddf252ad1be2c89b69c2b068fc378daa952ba7f163c4a11628f55a4df523b3ef84604051610ba59190611044565b60405180910390a36001905092915050565b6000600260008473ffffffffffffffffffffffffffffffffffffffff1673ffffffffffffffffffffffffffffffffffffffff16815260200190815260200160002060008373ffffffffffffffffffffffffffffffffffffffff1673ffffffffffffffffffffffffffffffffffffffff16815260200190815260200160002054905092915050565b6000600160008573ffffffffffffffffffffffffffffffffffffffff1673ffffffffffffffffffffffffffffffffffffffff16815260200190815260200160002054821115610c8c57600080fd5b610cde82600160003373ffffffffffffffffffffffffffffffffffffffff1673ffffffffffffffffffffffffffffffffffffffff16815260200190815260200160002054610e2690919063ffffffff16565b600160008673ffffffffffffffffffffffffffffffffffffffff1673ffffffffffffffffffffffffffffffffffffffff16815260200190815260200160002081905550610d7382600160008673ffffffffffffffffffffffffffffffffffffffff1673ffffffffffffffffffffffffffffffffffffffff16815260200190815260200160002054610e4d90919063ffffffff16565b600160008573ffffffffffffffffffffffffffffffffffffffff1673ffffffffffffffffffffffffffffffffffffffff168152602001908152602001600020819055508273ffffffffffffffffffffffffffffffffffffffff163373ffffffffffffffffffffffffffffffffffffffff167fddf252ad1be2c89b69c2b068fc378daa952ba7f163c4a11628f55a4df523b3ef84604051610e139190611044565b60405180910390a3600190509392505050565b600082821115610e3957610e38611252565b5b8183610e459190611281565b905092915050565b60008183610e5b919061121e565b905082811015610e6e57610e6d611252565b5b92915050565b600081519050919050565b600082825260208201905092915050565b60005b83811015610eae578082015181840152602081019050610e93565b60008484015250505050565b6000601f19601f8301169050919050565b6000610ed682610e74565b610ee08185610e7f565b9350610ef0818560208601610e90565b610ef981610eba565b840191505092915050565b60006020820190508181036000830152610f1e8184610ecb565b905092915050565b600080fd5b600073ffffffffffffffffffffffffffffffffffffffff82169050919050565b6000610f5682610f2b565b9050919050565b610f6681610f4b565b8114610f7157600080fd5b50565b600081359050610f8381610f5d565b92915050565b6000819050919050565b610f9c81610f89565b8114610fa757600080fd5b50565b600081359050610fb981610f93565b92915050565b60008060408385031215610fd657610fd5610f26565b5b6000610fe485828601610f74565b9250506020610ff585828601610faa565b9150509250929050565b60008115159050919050565b61101481610fff565b82525050565b600060208201905061102f600083018461100b565b92915050565b61103e81610f89565b82525050565b60006020820190506110596000830184611035565b92915050565b60006020828403121561107557611074610f26565b5b600061108384828501610faa565b91505092915050565b6000806000606084860312156110a5576110a4610f26565b5b60006110b386828701610f74565b93505060206110c486828701610f74565b92505060406110d586828701610faa565b9150509250925092565b600060ff82169050919050565b6110f5816110df565b82525050565b600060208201905061111060008301846110ec565b92915050565b60006020828403121561112c5761112b610f26565b5b600061113a84828501610f74565b91505092915050565b6000806040838503121561115a57611159610f26565b5b600061116885828601610f74565b925050602061117985828601610f74565b9150509250929050565b7f4d757374206265204f776e657200000000000000000000000000000000000000600082015250565b60006111b9600d83610e7f565b91506111c482611183565b602082019050919050565b600060208201905081810360008301526111e8816111ac565b9050919050565b7f4e487b7100000000000000000000000000000000000000000000000000000000600052601160045260246000fd5b600061122982610f89565b915061123483610f89565b925082820190508082111561124c5761124b6111ef565b5b92915050565b7f4e487b7100000000000000000000000000000000000000000000000000000000600052600160045260246000fd5b600061128c82610f89565b915061129783610f89565b92508282039050818111156112af576112ae6111ef565b5b9291505056fea26469706673582212200e71384d145c809f9d0b7a417f0244eba0ef75ff7a694a4398b27a46dfe26fbc64736f6c63430008120033",
					"opcodes": "PUSH1 0x80 PUSH1 0x40 MSTORE CALLVALUE DUP1 ISZERO PUSH3 0x11 JUMPI PUSH1 0x0 DUP1 REVERT JUMPDEST POP PUSH1 0x40 MLOAD PUSH3 0x1438 CODESIZE SUB DUP1 PUSH3 0x1438 DUP4 CODECOPY DUP2 DUP2 ADD PUSH1 0x40 MSTORE DUP2 ADD SWAP1 PUSH3 0x37 SWAP2 SWAP1 PUSH3 0x10B JUMP JUMPDEST CALLER PUSH1 0x0 DUP1 PUSH2 0x100 EXP DUP2 SLOAD DUP2 PUSH20 0xFFFFFFFFFFFFFFFFFFFFFFFFFFFFFFFFFFFFFFFF MUL NOT AND SWAP1 DUP4 PUSH20 0xFFFFFFFFFFFFFFFFFFFFFFFFFFFFFFFFFFFFFFFF AND MUL OR SWAP1 SSTORE POP DUP1 PUSH1 0x3 DUP2 SWAP1 SSTORE POP PUSH1 0x3 SLOAD PUSH1 0x1 PUSH1 0x0 CALLER PUSH20 0xFFFFFFFFFFFFFFFFFFFFFFFFFFFFFFFFFFFFFFFF AND PUSH20 0xFFFFFFFFFFFFFFFFFFFFFFFFFFFFFFFFFFFFFFFF AND DUP2 MSTORE PUSH1 0x20 ADD SWAP1 DUP2 MSTORE PUSH1 0x20 ADD PUSH1 0x0 KECCAK256 DUP2 SWAP1 SSTORE POP POP PUSH3 0x13D JUMP JUMPDEST PUSH1 0x0 DUP1 REVERT JUMPDEST PUSH1 0x0 DUP2 SWAP1 POP SWAP2 SWAP1 POP JUMP JUMPDEST PUSH3 0xE5 DUP2 PUSH3 0xD0 JUMP JUMPDEST DUP2 EQ PUSH3 0xF1 JUMPI PUSH1 0x0 DUP1 REVERT JUMPDEST POP JUMP JUMPDEST PUSH1 0x0 DUP2 MLOAD SWAP1 POP PUSH3 0x105 DUP2 PUSH3 0xDA JUMP JUMPDEST SWAP3 SWAP2 POP POP JUMP JUMPDEST PUSH1 0x0 PUSH1 0x20 DUP3 DUP5 SUB SLT ISZERO PUSH3 0x124 JUMPI PUSH3 0x123 PUSH3 0xCB JUMP JUMPDEST JUMPDEST PUSH1 0x0 PUSH3 0x134 DUP5 DUP3 DUP6 ADD PUSH3 0xF4 JUMP JUMPDEST SWAP2 POP POP SWAP3 SWAP2 POP POP JUMP JUMPDEST PUSH2 0x12EB DUP1 PUSH3 0x14D PUSH1 0x0 CODECOPY PUSH1 0x0 RETURN INVALID PUSH1 0x80 PUSH1 0x40 MSTORE CALLVALUE DUP1 ISZERO PUSH2 0x10 JUMPI PUSH1 0x0 DUP1 REVERT JUMPDEST POP PUSH1 0x4 CALLDATASIZE LT PUSH2 0xB4 JUMPI PUSH1 0x0 CALLDATALOAD PUSH1 0xE0 SHR DUP1 PUSH4 0x70A08231 GT PUSH2 0x71 JUMPI DUP1 PUSH4 0x70A08231 EQ PUSH2 0x18F JUMPI DUP1 PUSH4 0x715018A6 EQ PUSH2 0x1BF JUMPI DUP1 PUSH4 0x95D89B41 EQ PUSH2 0x1C9 JUMPI DUP1 PUSH4 0xA9059CBB EQ PUSH2 0x1E7 JUMPI DUP1 PUSH4 0xDD62ED3E EQ PUSH2 0x217 JUMPI DUP1 PUSH4 0xE0631F7F EQ PUSH2 0x247 JUMPI PUSH2 0xB4 JUMP JUMPDEST DUP1 PUSH4 0x6FDDE03 EQ PUSH2 0xB9 JUMPI DUP1 PUSH4 0x95EA7B3 EQ PUSH2 0xD7 JUMPI DUP1 PUSH4 0x18160DDD EQ PUSH2 0x107 JUMPI DUP1 PUSH4 0x1D43CC98 EQ PUSH2 0x125 JUMPI DUP1 PUSH4 0x23B872DD EQ PUSH2 0x141 JUMPI DUP1 PUSH4 0x313CE567 EQ PUSH2 0x171 JUMPI JUMPDEST PUSH1 0x0 DUP1 REVERT JUMPDEST PUSH2 0xC1 PUSH2 0x277 JUMP JUMPDEST PUSH1 0x40 MLOAD PUSH2 0xCE SWAP2 SWAP1 PUSH2 0xF04 JUMP JUMPDEST PUSH1 0x40 MLOAD DUP1 SWAP2 SUB SWAP1 RETURN JUMPDEST PUSH2 0xF1 PUSH1 0x4 DUP1 CALLDATASIZE SUB DUP2 ADD SWAP1 PUSH2 0xEC SWAP2 SWAP1 PUSH2 0xFBF JUMP JUMPDEST PUSH2 0x2B0 JUMP JUMPDEST PUSH1 0x40 MLOAD PUSH2 0xFE SWAP2 SWAP1 PUSH2 0x101A JUMP JUMPDEST PUSH1 0x40 MLOAD DUP1 SWAP2 SUB SWAP1 RETURN JUMPDEST PUSH2 0x10F PUSH2 0x3EE JUMP JUMPDEST PUSH1 0x40 MLOAD PUSH2 0x11C SWAP2 SWAP1 PUSH2 0x1044 JUMP JUMPDEST PUSH1 0x40 MLOAD DUP1 SWAP2 SUB SWAP1 RETURN JUMPDEST PUSH2 0x13F PUSH1 0x4 DUP1 CALLDATASIZE SUB DUP2 ADD SWAP1 PUSH2 0x13A SWAP2 SWAP1 PUSH2 0x105F JUMP JUMPDEST PUSH2 0x3F8 JUMP JUMPDEST STOP JUMPDEST PUSH2 0x15B PUSH1 0x4 DUP1 CALLDATASIZE SUB DUP2 ADD SWAP1 PUSH2 0x156 SWAP2 SWAP1 PUSH2 0x108C JUMP JUMPDEST PUSH2 0x4F8 JUMP JUMPDEST PUSH1 0x40 MLOAD PUSH2 0x168 SWAP2 SWAP1 PUSH2 0x101A JUMP JUMPDEST PUSH1 0x40 MLOAD DUP1 SWAP2 SUB SWAP1 RETURN JUMPDEST PUSH2 0x179 PUSH2 0x878 JUMP JUMPDEST PUSH1 0x40 MLOAD PUSH2 0x186 SWAP2 SWAP1 PUSH2 0x10FB JUMP JUMPDEST PUSH1 0x40 MLOAD DUP1 SWAP2 SUB SWAP1 RETURN JUMPDEST PUSH2 0x1A9 PUSH1 0x4 DUP1 CALLDATASIZE SUB DUP2 ADD SWAP1 PUSH2 0x1A4 SWAP2 SWAP1 PUSH2 0x1116 JUMP JUMPDEST PUSH2 0x87D JUMP JUMPDEST PUSH1 0x40 MLOAD PUSH2 0x1B6 SWAP2 SWAP1 PUSH2 0x1044 JUMP JUMPDEST PUSH1 0x40 MLOAD DUP1 SWAP2 SUB SWAP1 RETURN JUMPDEST PUSH2 0x1C7 PUSH2 0x8C6 JUMP JUMPDEST STOP JUMPDEST PUSH2 0x1D1 PUSH2 0x997 JUMP JUMPDEST PUSH1 0x40 MLOAD PUSH2 0x1DE SWAP2 SWAP1 PUSH2 0xF04 JUMP JUMPDEST PUSH1 0x40 MLOAD DUP1 SWAP2 SUB SWAP1 RETURN JUMPDEST PUSH2 0x201 PUSH1 0x4 DUP1 CALLDATASIZE SUB DUP2 ADD SWAP1 PUSH2 0x1FC SWAP2 SWAP1 PUSH2 0xFBF JUMP JUMPDEST PUSH2 0x9D0 JUMP JUMPDEST PUSH1 0x40 MLOAD PUSH2 0x20E SWAP2 SWAP1 PUSH2 0x101A JUMP JUMPDEST PUSH1 0x40 MLOAD DUP1 SWAP2 SUB SWAP1 RETURN JUMPDEST PUSH2 0x231 PUSH1 0x4 DUP1 CALLDATASIZE SUB DUP2 ADD SWAP1 PUSH2 0x22C SWAP2 SWAP1 PUSH2 0x1143 JUMP JUMPDEST PUSH2 0xBB7 JUMP JUMPDEST PUSH1 0x40 MLOAD PUSH2 0x23E SWAP2 SWAP1 PUSH2 0x1044 JUMP JUMPDEST PUSH1 0x40 MLOAD DUP1 SWAP2 SUB SWAP1 RETURN JUMPDEST PUSH2 0x261 PUSH1 0x4 DUP1 CALLDATASIZE SUB DUP2 ADD SWAP1 PUSH2 0x25C SWAP2 SWAP1 PUSH2 0x108C JUMP JUMPDEST PUSH2 0xC3E JUMP JUMPDEST PUSH1 0x40 MLOAD PUSH2 0x26E SWAP2 SWAP1 PUSH2 0x101A JUMP JUMPDEST PUSH1 0x40 MLOAD DUP1 SWAP2 SUB SWAP1 RETURN JUMPDEST PUSH1 0x40 MLOAD DUP1 PUSH1 0x40 ADD PUSH1 0x40 MSTORE DUP1 PUSH1 0x6 DUP2 MSTORE PUSH1 0x20 ADD PUSH32 0x5265736F72740000000000000000000000000000000000000000000000000000 DUP2 MSTORE POP DUP2 JUMP JUMPDEST PUSH1 0x0 PUSH1 0x1 PUSH1 0x0 CALLER PUSH20 0xFFFFFFFFFFFFFFFFFFFFFFFFFFFFFFFFFFFFFFFF AND PUSH20 0xFFFFFFFFFFFFFFFFFFFFFFFFFFFFFFFFFFFFFFFF AND DUP2 MSTORE PUSH1 0x20 ADD SWAP1 DUP2 MSTORE PUSH1 0x20 ADD PUSH1 0x0 KECCAK256 SLOAD DUP3 GT ISZERO PUSH2 0x2FE JUMPI PUSH1 0x0 DUP1 REVERT JUMPDEST DUP2 PUSH1 0x2 PUSH1 0x0 CALLER PUSH20 0xFFFFFFFFFFFFFFFFFFFFFFFFFFFFFFFFFFFFFFFF AND PUSH20 0xFFFFFFFFFFFFFFFFFFFFFFFFFFFFFFFFFFFFFFFF AND DUP2 MSTORE PUSH1 0x20 ADD SWAP1 DUP2 MSTORE PUSH1 0x20 ADD PUSH1 0x0 KECCAK256 PUSH1 0x0 DUP6 PUSH20 0xFFFFFFFFFFFFFFFFFFFFFFFFFFFFFFFFFFFFFFFF AND PUSH20 0xFFFFFFFFFFFFFFFFFFFFFFFFFFFFFFFFFFFFFFFF AND DUP2 MSTORE PUSH1 0x20 ADD SWAP1 DUP2 MSTORE PUSH1 0x20 ADD PUSH1 0x0 KECCAK256 DUP2 SWAP1 SSTORE POP DUP3 PUSH20 0xFFFFFFFFFFFFFFFFFFFFFFFFFFFFFFFFFFFFFFFF AND CALLER PUSH20 0xFFFFFFFFFFFFFFFFFFFFFFFFFFFFFFFFFFFFFFFF AND PUSH32 0x8C5BE1E5EBEC7D5BD14F71427D1E84F3DD0314C0F7B2291E5B200AC8C7C3B925 DUP5 PUSH1 0x40 MLOAD PUSH2 0x3DC SWAP2 SWAP1 PUSH2 0x1044 JUMP JUMPDEST PUSH1 0x40 MLOAD DUP1 SWAP2 SUB SWAP1 LOG3 PUSH1 0x1 SWAP1 POP SWAP3 SWAP2 POP POP JUMP JUMPDEST PUSH1 0x0 PUSH1 0x3 SLOAD SWAP1 POP SWAP1 JUMP JUMPDEST CALLER PUSH20 0xFFFFFFFFFFFFFFFFFFFFFFFFFFFFFFFFFFFFFFFF AND PUSH1 0x0 DUP1 SLOAD SWAP1 PUSH2 0x100 EXP SWAP1 DIV PUSH20 0xFFFFFFFFFFFFFFFFFFFFFFFFFFFFFFFFFFFFFFFF AND PUSH20 0xFFFFFFFFFFFFFFFFFFFFFFFFFFFFFFFFFFFFFFFF AND EQ PUSH2 0x486 JUMPI PUSH1 0x40 MLOAD PUSH32 0x8C379A000000000000000000000000000000000000000000000000000000000 DUP2 MSTORE PUSH1 0x4 ADD PUSH2 0x47D SWAP1 PUSH2 0x11CF JUMP JUMPDEST PUSH1 0x40 MLOAD DUP1 SWAP2 SUB SWAP1 REVERT JUMPDEST DUP1 PUSH1 0x3 PUSH1 0x0 DUP3 DUP3 SLOAD PUSH2 0x498 SWAP2 SWAP1 PUSH2 0x121E JUMP JUMPDEST SWAP3 POP POP DUP2 SWAP1 SSTORE POP DUP1 PUSH1 0x1 PUSH1 0x0 CALLER PUSH20 0xFFFFFFFFFFFFFFFFFFFFFFFFFFFFFFFFFFFFFFFF AND PUSH20 0xFFFFFFFFFFFFFFFFFFFFFFFFFFFFFFFFFFFFFFFF AND DUP2 MSTORE PUSH1 0x20 ADD SWAP1 DUP2 MSTORE PUSH1 0x20 ADD PUSH1 0x0 KECCAK256 PUSH1 0x0 DUP3 DUP3 SLOAD PUSH2 0x4EE SWAP2 SWAP1 PUSH2 0x121E JUMP JUMPDEST SWAP3 POP POP DUP2 SWAP1 SSTORE POP POP JUMP JUMPDEST PUSH1 0x0 PUSH1 0x1 PUSH1 0x0 DUP6 PUSH20 0xFFFFFFFFFFFFFFFFFFFFFFFFFFFFFFFFFFFFFFFF AND PUSH20 0xFFFFFFFFFFFFFFFFFFFFFFFFFFFFFFFFFFFFFFFF AND DUP2 MSTORE PUSH1 0x20 ADD SWAP1 DUP2 MSTORE PUSH1 0x20 ADD PUSH1 0x0 KECCAK256 SLOAD DUP3 GT ISZERO PUSH2 0x546 JUMPI PUSH1 0x0 DUP1 REVERT JUMPDEST PUSH1 0x2 PUSH1 0x0 DUP6 PUSH20 0xFFFFFFFFFFFFFFFFFFFFFFFFFFFFFFFFFFFFFFFF AND PUSH20 0xFFFFFFFFFFFFFFFFFFFFFFFFFFFFFFFFFFFFFFFF AND DUP2 MSTORE PUSH1 0x20 ADD SWAP1 DUP2 MSTORE PUSH1 0x20 ADD PUSH1 0x0 KECCAK256 PUSH1 0x0 CALLER PUSH20 0xFFFFFFFFFFFFFFFFFFFFFFFFFFFFFFFFFFFFFFFF AND PUSH20 0xFFFFFFFFFFFFFFFFFFFFFFFFFFFFFFFFFFFFFFFF AND DUP2 MSTORE PUSH1 0x20 ADD SWAP1 DUP2 MSTORE PUSH1 0x20 ADD PUSH1 0x0 KECCAK256 SLOAD DUP3 GT ISZERO PUSH2 0x5CF JUMPI PUSH1 0x0 DUP1 REVERT JUMPDEST PUSH2 0x621 DUP3 PUSH1 0x1 PUSH1 0x0 DUP8 PUSH20 0xFFFFFFFFFFFFFFFFFFFFFFFFFFFFFFFFFFFFFFFF AND PUSH20 0xFFFFFFFFFFFFFFFFFFFFFFFFFFFFFFFFFFFFFFFF AND DUP2 MSTORE PUSH1 0x20 ADD SWAP1 DUP2 MSTORE PUSH1 0x20 ADD PUSH1 0x0 KECCAK256 SLOAD PUSH2 0xE26 SWAP1 SWAP2 SWAP1 PUSH4 0xFFFFFFFF AND JUMP JUMPDEST PUSH1 0x1 PUSH1 0x0 DUP7 PUSH20 0xFFFFFFFFFFFFFFFFFFFFFFFFFFFFFFFFFFFFFFFF AND PUSH20 0xFFFFFFFFFFFFFFFFFFFFFFFFFFFFFFFFFFFFFFFF AND DUP2 MSTORE PUSH1 0x20 ADD SWAP1 DUP2 MSTORE PUSH1 0x20 ADD PUSH1 0x0 KECCAK256 DUP2 SWAP1 SSTORE POP PUSH2 0x6F3 DUP3 PUSH1 0x2 PUSH1 0x0 DUP8 PUSH20 0xFFFFFFFFFFFFFFFFFFFFFFFFFFFFFFFFFFFFFFFF AND PUSH20 0xFFFFFFFFFFFFFFFFFFFFFFFFFFFFFFFFFFFFFFFF AND DUP2 MSTORE PUSH1 0x20 ADD SWAP1 DUP2 MSTORE PUSH1 0x20 ADD PUSH1 0x0 KECCAK256 PUSH1 0x0 CALLER PUSH20 0xFFFFFFFFFFFFFFFFFFFFFFFFFFFFFFFFFFFFFFFF AND PUSH20 0xFFFFFFFFFFFFFFFFFFFFFFFFFFFFFFFFFFFFFFFF AND DUP2 MSTORE PUSH1 0x20 ADD SWAP1 DUP2 MSTORE PUSH1 0x20 ADD PUSH1 0x0 KECCAK256 SLOAD PUSH2 0xE26 SWAP1 SWAP2 SWAP1 PUSH4 0xFFFFFFFF AND JUMP JUMPDEST PUSH1 0x2 PUSH1 0x0 DUP7 PUSH20 0xFFFFFFFFFFFFFFFFFFFFFFFFFFFFFFFFFFFFFFFF AND PUSH20 0xFFFFFFFFFFFFFFFFFFFFFFFFFFFFFFFFFFFFFFFF AND DUP2 MSTORE PUSH1 0x20 ADD SWAP1 DUP2 MSTORE PUSH1 0x20 ADD PUSH1 0x0 KECCAK256 PUSH1 0x0 CALLER PUSH20 0xFFFFFFFFFFFFFFFFFFFFFFFFFFFFFFFFFFFFFFFF AND PUSH20 0xFFFFFFFFFFFFFFFFFFFFFFFFFFFFFFFFFFFFFFFF AND DUP2 MSTORE PUSH1 0x20 ADD SWAP1 DUP2 MSTORE PUSH1 0x20 ADD PUSH1 0x0 KECCAK256 DUP2 SWAP1 SSTORE POP PUSH2 0x7C5 DUP3 PUSH1 0x1 PUSH1 0x0 DUP7 PUSH20 0xFFFFFFFFFFFFFFFFFFFFFFFFFFFFFFFFFFFFFFFF AND PUSH20 0xFFFFFFFFFFFFFFFFFFFFFFFFFFFFFFFFFFFFFFFF AND DUP2 MSTORE PUSH1 0x20 ADD SWAP1 DUP2 MSTORE PUSH1 0x20 ADD PUSH1 0x0 KECCAK256 SLOAD PUSH2 0xE4D SWAP1 SWAP2 SWAP1 PUSH4 0xFFFFFFFF AND JUMP JUMPDEST PUSH1 0x1 PUSH1 0x0 DUP6 PUSH20 0xFFFFFFFFFFFFFFFFFFFFFFFFFFFFFFFFFFFFFFFF AND PUSH20 0xFFFFFFFFFFFFFFFFFFFFFFFFFFFFFFFFFFFFFFFF AND DUP2 MSTORE PUSH1 0x20 ADD SWAP1 DUP2 MSTORE PUSH1 0x20 ADD PUSH1 0x0 KECCAK256 DUP2 SWAP1 SSTORE POP DUP3 PUSH20 0xFFFFFFFFFFFFFFFFFFFFFFFFFFFFFFFFFFFFFFFF AND DUP5 PUSH20 0xFFFFFFFFFFFFFFFFFFFFFFFFFFFFFFFFFFFFFFFF AND PUSH32 0xDDF252AD1BE2C89B69C2B068FC378DAA952BA7F163C4A11628F55A4DF523B3EF DUP5 PUSH1 0x40 MLOAD PUSH2 0x865 SWAP2 SWAP1 PUSH2 0x1044 JUMP JUMPDEST PUSH1 0x40 MLOAD DUP1 SWAP2 SUB SWAP1 LOG3 PUSH1 0x0 SWAP1 POP SWAP4 SWAP3 POP POP POP JUMP JUMPDEST PUSH1 0x12 DUP2 JUMP JUMPDEST PUSH1 0x0 PUSH1 0x1 PUSH1 0x0 DUP4 PUSH20 0xFFFFFFFFFFFFFFFFFFFFFFFFFFFFFFFFFFFFFFFF AND PUSH20 0xFFFFFFFFFFFFFFFFFFFFFFFFFFFFFFFFFFFFFFFF AND DUP2 MSTORE PUSH1 0x20 ADD SWAP1 DUP2 MSTORE PUSH1 0x20 ADD PUSH1 0x0 KECCAK256 SLOAD SWAP1 POP SWAP2 SWAP1 POP JUMP JUMPDEST CALLER PUSH20 0xFFFFFFFFFFFFFFFFFFFFFFFFFFFFFFFFFFFFFFFF AND PUSH1 0x0 DUP1 SLOAD SWAP1 PUSH2 0x100 EXP SWAP1 DIV PUSH20 0xFFFFFFFFFFFFFFFFFFFFFFFFFFFFFFFFFFFFFFFF AND PUSH20 0xFFFFFFFFFFFFFFFFFFFFFFFFFFFFFFFFFFFFFFFF AND EQ PUSH2 0x954 JUMPI PUSH1 0x40 MLOAD PUSH32 0x8C379A000000000000000000000000000000000000000000000000000000000 DUP2 MSTORE PUSH1 0x4 ADD PUSH2 0x94B SWAP1 PUSH2 0x11CF JUMP JUMPDEST PUSH1 0x40 MLOAD DUP1 SWAP2 SUB SWAP1 REVERT JUMPDEST PUSH1 0x0 DUP1 PUSH1 0x0 PUSH2 0x100 EXP DUP2 SLOAD DUP2 PUSH20 0xFFFFFFFFFFFFFFFFFFFFFFFFFFFFFFFFFFFFFFFF MUL NOT AND SWAP1 DUP4 PUSH20 0xFFFFFFFFFFFFFFFFFFFFFFFFFFFFFFFFFFFFFFFF AND MUL OR SWAP1 SSTORE POP JUMP JUMPDEST PUSH1 0x40 MLOAD DUP1 PUSH1 0x40 ADD PUSH1 0x40 MSTORE DUP1 PUSH1 0x3 DUP2 MSTORE PUSH1 0x20 ADD PUSH32 0x5253540000000000000000000000000000000000000000000000000000000000 DUP2 MSTORE POP DUP2 JUMP JUMPDEST PUSH1 0x0 PUSH1 0x1 PUSH1 0x0 CALLER PUSH20 0xFFFFFFFFFFFFFFFFFFFFFFFFFFFFFFFFFFFFFFFF AND PUSH20 0xFFFFFFFFFFFFFFFFFFFFFFFFFFFFFFFFFFFFFFFF AND DUP2 MSTORE PUSH1 0x20 ADD SWAP1 DUP2 MSTORE PUSH1 0x20 ADD PUSH1 0x0 KECCAK256 SLOAD DUP3 GT ISZERO PUSH2 0xA1E JUMPI PUSH1 0x0 DUP1 REVERT JUMPDEST PUSH2 0xA70 DUP3 PUSH1 0x1 PUSH1 0x0 CALLER PUSH20 0xFFFFFFFFFFFFFFFFFFFFFFFFFFFFFFFFFFFFFFFF AND PUSH20 0xFFFFFFFFFFFFFFFFFFFFFFFFFFFFFFFFFFFFFFFF AND DUP2 MSTORE PUSH1 0x20 ADD SWAP1 DUP2 MSTORE PUSH1 0x20 ADD PUSH1 0x0 KECCAK256 SLOAD PUSH2 0xE26 SWAP1 SWAP2 SWAP1 PUSH4 0xFFFFFFFF AND JUMP JUMPDEST PUSH1 0x1 PUSH1 0x0 CALLER PUSH20 0xFFFFFFFFFFFFFFFFFFFFFFFFFFFFFFFFFFFFFFFF AND PUSH20 0xFFFFFFFFFFFFFFFFFFFFFFFFFFFFFFFFFFFFFFFF AND DUP2 MSTORE PUSH1 0x20 ADD SWAP1 DUP2 MSTORE PUSH1 0x20 ADD PUSH1 0x0 KECCAK256 DUP2 SWAP1 SSTORE POP PUSH2 0xB05 DUP3 PUSH1 0x1 PUSH1 0x0 DUP7 PUSH20 0xFFFFFFFFFFFFFFFFFFFFFFFFFFFFFFFFFFFFFFFF AND PUSH20 0xFFFFFFFFFFFFFFFFFFFFFFFFFFFFFFFFFFFFFFFF AND DUP2 MSTORE PUSH1 0x20 ADD SWAP1 DUP2 MSTORE PUSH1 0x20 ADD PUSH1 0x0 KECCAK256 SLOAD PUSH2 0xE4D SWAP1 SWAP2 SWAP1 PUSH4 0xFFFFFFFF AND JUMP JUMPDEST PUSH1 0x1 PUSH1 0x0 DUP6 PUSH20 0xFFFFFFFFFFFFFFFFFFFFFFFFFFFFFFFFFFFFFFFF AND PUSH20 0xFFFFFFFFFFFFFFFFFFFFFFFFFFFFFFFFFFFFFFFF AND DUP2 MSTORE PUSH1 0x20 ADD SWAP1 DUP2 MSTORE PUSH1 0x20 ADD PUSH1 0x0 KECCAK256 DUP2 SWAP1 SSTORE POP DUP3 PUSH20 0xFFFFFFFFFFFFFFFFFFFFFFFFFFFFFFFFFFFFFFFF AND CALLER PUSH20 0xFFFFFFFFFFFFFFFFFFFFFFFFFFFFFFFFFFFFFFFF AND PUSH32 0xDDF252AD1BE2C89B69C2B068FC378DAA952BA7F163C4A11628F55A4DF523B3EF DUP5 PUSH1 0x40 MLOAD PUSH2 0xBA5 SWAP2 SWAP1 PUSH2 0x1044 JUMP JUMPDEST PUSH1 0x40 MLOAD DUP1 SWAP2 SUB SWAP1 LOG3 PUSH1 0x1 SWAP1 POP SWAP3 SWAP2 POP POP JUMP JUMPDEST PUSH1 0x0 PUSH1 0x2 PUSH1 0x0 DUP5 PUSH20 0xFFFFFFFFFFFFFFFFFFFFFFFFFFFFFFFFFFFFFFFF AND PUSH20 0xFFFFFFFFFFFFFFFFFFFFFFFFFFFFFFFFFFFFFFFF AND DUP2 MSTORE PUSH1 0x20 ADD SWAP1 DUP2 MSTORE PUSH1 0x20 ADD PUSH1 0x0 KECCAK256 PUSH1 0x0 DUP4 PUSH20 0xFFFFFFFFFFFFFFFFFFFFFFFFFFFFFFFFFFFFFFFF AND PUSH20 0xFFFFFFFFFFFFFFFFFFFFFFFFFFFFFFFFFFFFFFFF AND DUP2 MSTORE PUSH1 0x20 ADD SWAP1 DUP2 MSTORE PUSH1 0x20 ADD PUSH1 0x0 KECCAK256 SLOAD SWAP1 POP SWAP3 SWAP2 POP POP JUMP JUMPDEST PUSH1 0x0 PUSH1 0x1 PUSH1 0x0 DUP6 PUSH20 0xFFFFFFFFFFFFFFFFFFFFFFFFFFFFFFFFFFFFFFFF AND PUSH20 0xFFFFFFFFFFFFFFFFFFFFFFFFFFFFFFFFFFFFFFFF AND DUP2 MSTORE PUSH1 0x20 ADD SWAP1 DUP2 MSTORE PUSH1 0x20 ADD PUSH1 0x0 KECCAK256 SLOAD DUP3 GT ISZERO PUSH2 0xC8C JUMPI PUSH1 0x0 DUP1 REVERT JUMPDEST PUSH2 0xCDE DUP3 PUSH1 0x1 PUSH1 0x0 CALLER PUSH20 0xFFFFFFFFFFFFFFFFFFFFFFFFFFFFFFFFFFFFFFFF AND PUSH20 0xFFFFFFFFFFFFFFFFFFFFFFFFFFFFFFFFFFFFFFFF AND DUP2 MSTORE PUSH1 0x20 ADD SWAP1 DUP2 MSTORE PUSH1 0x20 ADD PUSH1 0x0 KECCAK256 SLOAD PUSH2 0xE26 SWAP1 SWAP2 SWAP1 PUSH4 0xFFFFFFFF AND JUMP JUMPDEST PUSH1 0x1 PUSH1 0x0 DUP7 PUSH20 0xFFFFFFFFFFFFFFFFFFFFFFFFFFFFFFFFFFFFFFFF AND PUSH20 0xFFFFFFFFFFFFFFFFFFFFFFFFFFFFFFFFFFFFFFFF AND DUP2 MSTORE PUSH1 0x20 ADD SWAP1 DUP2 MSTORE PUSH1 0x20 ADD PUSH1 0x0 KECCAK256 DUP2 SWAP1 SSTORE POP PUSH2 0xD73 DUP3 PUSH1 0x1 PUSH1 0x0 DUP7 PUSH20 0xFFFFFFFFFFFFFFFFFFFFFFFFFFFFFFFFFFFFFFFF AND PUSH20 0xFFFFFFFFFFFFFFFFFFFFFFFFFFFFFFFFFFFFFFFF AND DUP2 MSTORE PUSH1 0x20 ADD SWAP1 DUP2 MSTORE PUSH1 0x20 ADD PUSH1 0x0 KECCAK256 SLOAD PUSH2 0xE4D SWAP1 SWAP2 SWAP1 PUSH4 0xFFFFFFFF AND JUMP JUMPDEST PUSH1 0x1 PUSH1 0x0 DUP6 PUSH20 0xFFFFFFFFFFFFFFFFFFFFFFFFFFFFFFFFFFFFFFFF AND PUSH20 0xFFFFFFFFFFFFFFFFFFFFFFFFFFFFFFFFFFFFFFFF AND DUP2 MSTORE PUSH1 0x20 ADD SWAP1 DUP2 MSTORE PUSH1 0x20 ADD PUSH1 0x0 KECCAK256 DUP2 SWAP1 SSTORE POP DUP3 PUSH20 0xFFFFFFFFFFFFFFFFFFFFFFFFFFFFFFFFFFFFFFFF AND CALLER PUSH20 0xFFFFFFFFFFFFFFFFFFFFFFFFFFFFFFFFFFFFFFFF AND PUSH32 0xDDF252AD1BE2C89B69C2B068FC378DAA952BA7F163C4A11628F55A4DF523B3EF DUP5 PUSH1 0x40 MLOAD PUSH2 0xE13 SWAP2 SWAP1 PUSH2 0x1044 JUMP JUMPDEST PUSH1 0x40 MLOAD DUP1 SWAP2 SUB SWAP1 LOG3 PUSH1 0x1 SWAP1 POP SWAP4 SWAP3 POP POP POP JUMP JUMPDEST PUSH1 0x0 DUP3 DUP3 GT ISZERO PUSH2 0xE39 JUMPI PUSH2 0xE38 PUSH2 0x1252 JUMP JUMPDEST JUMPDEST DUP2 DUP4 PUSH2 0xE45 SWAP2 SWAP1 PUSH2 0x1281 JUMP JUMPDEST SWAP1 POP SWAP3 SWAP2 POP POP JUMP JUMPDEST PUSH1 0x0 DUP2 DUP4 PUSH2 0xE5B SWAP2 SWAP1 PUSH2 0x121E JUMP JUMPDEST SWAP1 POP DUP3 DUP2 LT ISZERO PUSH2 0xE6E JUMPI PUSH2 0xE6D PUSH2 0x1252 JUMP JUMPDEST JUMPDEST SWAP3 SWAP2 POP POP JUMP JUMPDEST PUSH1 0x0 DUP2 MLOAD SWAP1 POP SWAP2 SWAP1 POP JUMP JUMPDEST PUSH1 0x0 DUP3 DUP3 MSTORE PUSH1 0x20 DUP3 ADD SWAP1 POP SWAP3 SWAP2 POP POP JUMP JUMPDEST PUSH1 0x0 JUMPDEST DUP4 DUP2 LT ISZERO PUSH2 0xEAE JUMPI DUP1 DUP3 ADD MLOAD DUP2 DUP5 ADD MSTORE PUSH1 0x20 DUP2 ADD SWAP1 POP PUSH2 0xE93 JUMP JUMPDEST PUSH1 0x0 DUP5 DUP5 ADD MSTORE POP POP POP POP JUMP JUMPDEST PUSH1 0x0 PUSH1 0x1F NOT PUSH1 0x1F DUP4 ADD AND SWAP1 POP SWAP2 SWAP1 POP JUMP JUMPDEST PUSH1 0x0 PUSH2 0xED6 DUP3 PUSH2 0xE74 JUMP JUMPDEST PUSH2 0xEE0 DUP2 DUP6 PUSH2 0xE7F JUMP JUMPDEST SWAP4 POP PUSH2 0xEF0 DUP2 DUP6 PUSH1 0x20 DUP7 ADD PUSH2 0xE90 JUMP JUMPDEST PUSH2 0xEF9 DUP2 PUSH2 0xEBA JUMP JUMPDEST DUP5 ADD SWAP2 POP POP SWAP3 SWAP2 POP POP JUMP JUMPDEST PUSH1 0x0 PUSH1 0x20 DUP3 ADD SWAP1 POP DUP2 DUP2 SUB PUSH1 0x0 DUP4 ADD MSTORE PUSH2 0xF1E DUP2 DUP5 PUSH2 0xECB JUMP JUMPDEST SWAP1 POP SWAP3 SWAP2 POP POP JUMP JUMPDEST PUSH1 0x0 DUP1 REVERT JUMPDEST PUSH1 0x0 PUSH20 0xFFFFFFFFFFFFFFFFFFFFFFFFFFFFFFFFFFFFFFFF DUP3 AND SWAP1 POP SWAP2 SWAP1 POP JUMP JUMPDEST PUSH1 0x0 PUSH2 0xF56 DUP3 PUSH2 0xF2B JUMP JUMPDEST SWAP1 POP SWAP2 SWAP1 POP JUMP JUMPDEST PUSH2 0xF66 DUP2 PUSH2 0xF4B JUMP JUMPDEST DUP2 EQ PUSH2 0xF71 JUMPI PUSH1 0x0 DUP1 REVERT JUMPDEST POP JUMP JUMPDEST PUSH1 0x0 DUP2 CALLDATALOAD SWAP1 POP PUSH2 0xF83 DUP2 PUSH2 0xF5D JUMP JUMPDEST SWAP3 SWAP2 POP POP JUMP JUMPDEST PUSH1 0x0 DUP2 SWAP1 POP SWAP2 SWAP1 POP JUMP JUMPDEST PUSH2 0xF9C DUP2 PUSH2 0xF89 JUMP JUMPDEST DUP2 EQ PUSH2 0xFA7 JUMPI PUSH1 0x0 DUP1 REVERT JUMPDEST POP JUMP JUMPDEST PUSH1 0x0 DUP2 CALLDATALOAD SWAP1 POP PUSH2 0xFB9 DUP2 PUSH2 0xF93 JUMP JUMPDEST SWAP3 SWAP2 POP POP JUMP JUMPDEST PUSH1 0x0 DUP1 PUSH1 0x40 DUP4 DUP6 SUB SLT ISZERO PUSH2 0xFD6 JUMPI PUSH2 0xFD5 PUSH2 0xF26 JUMP JUMPDEST JUMPDEST PUSH1 0x0 PUSH2 0xFE4 DUP6 DUP3 DUP7 ADD PUSH2 0xF74 JUMP JUMPDEST SWAP3 POP POP PUSH1 0x20 PUSH2 0xFF5 DUP6 DUP3 DUP7 ADD PUSH2 0xFAA JUMP JUMPDEST SWAP2 POP POP SWAP3 POP SWAP3 SWAP1 POP JUMP JUMPDEST PUSH1 0x0 DUP2 ISZERO ISZERO SWAP1 POP SWAP2 SWAP1 POP JUMP JUMPDEST PUSH2 0x1014 DUP2 PUSH2 0xFFF JUMP JUMPDEST DUP3 MSTORE POP POP JUMP JUMPDEST PUSH1 0x0 PUSH1 0x20 DUP3 ADD SWAP1 POP PUSH2 0x102F PUSH1 0x0 DUP4 ADD DUP5 PUSH2 0x100B JUMP JUMPDEST SWAP3 SWAP2 POP POP JUMP JUMPDEST PUSH2 0x103E DUP2 PUSH2 0xF89 JUMP JUMPDEST DUP3 MSTORE POP POP JUMP JUMPDEST PUSH1 0x0 PUSH1 0x20 DUP3 ADD SWAP1 POP PUSH2 0x1059 PUSH1 0x0 DUP4 ADD DUP5 PUSH2 0x1035 JUMP JUMPDEST SWAP3 SWAP2 POP POP JUMP JUMPDEST PUSH1 0x0 PUSH1 0x20 DUP3 DUP5 SUB SLT ISZERO PUSH2 0x1075 JUMPI PUSH2 0x1074 PUSH2 0xF26 JUMP JUMPDEST JUMPDEST PUSH1 0x0 PUSH2 0x1083 DUP5 DUP3 DUP6 ADD PUSH2 0xFAA JUMP JUMPDEST SWAP2 POP POP SWAP3 SWAP2 POP POP JUMP JUMPDEST PUSH1 0x0 DUP1 PUSH1 0x0 PUSH1 0x60 DUP5 DUP7 SUB SLT ISZERO PUSH2 0x10A5 JUMPI PUSH2 0x10A4 PUSH2 0xF26 JUMP JUMPDEST JUMPDEST PUSH1 0x0 PUSH2 0x10B3 DUP7 DUP3 DUP8 ADD PUSH2 0xF74 JUMP JUMPDEST SWAP4 POP POP PUSH1 0x20 PUSH2 0x10C4 DUP7 DUP3 DUP8 ADD PUSH2 0xF74 JUMP JUMPDEST SWAP3 POP POP PUSH1 0x40 PUSH2 0x10D5 DUP7 DUP3 DUP8 ADD PUSH2 0xFAA JUMP JUMPDEST SWAP2 POP POP SWAP3 POP SWAP3 POP SWAP3 JUMP JUMPDEST PUSH1 0x0 PUSH1 0xFF DUP3 AND SWAP1 POP SWAP2 SWAP1 POP JUMP JUMPDEST PUSH2 0x10F5 DUP2 PUSH2 0x10DF JUMP JUMPDEST DUP3 MSTORE POP POP JUMP JUMPDEST PUSH1 0x0 PUSH1 0x20 DUP3 ADD SWAP1 POP PUSH2 0x1110 PUSH1 0x0 DUP4 ADD DUP5 PUSH2 0x10EC JUMP JUMPDEST SWAP3 SWAP2 POP POP JUMP JUMPDEST PUSH1 0x0 PUSH1 0x20 DUP3 DUP5 SUB SLT ISZERO PUSH2 0x112C JUMPI PUSH2 0x112B PUSH2 0xF26 JUMP JUMPDEST JUMPDEST PUSH1 0x0 PUSH2 0x113A DUP5 DUP3 DUP6 ADD PUSH2 0xF74 JUMP JUMPDEST SWAP2 POP POP SWAP3 SWAP2 POP POP JUMP JUMPDEST PUSH1 0x0 DUP1 PUSH1 0x40 DUP4 DUP6 SUB SLT ISZERO PUSH2 0x115A JUMPI PUSH2 0x1159 PUSH2 0xF26 JUMP JUMPDEST JUMPDEST PUSH1 0x0 PUSH2 0x1168 DUP6 DUP3 DUP7 ADD PUSH2 0xF74 JUMP JUMPDEST SWAP3 POP POP PUSH1 0x20 PUSH2 0x1179 DUP6 DUP3 DUP7 ADD PUSH2 0xF74 JUMP JUMPDEST SWAP2 POP POP SWAP3 POP SWAP3 SWAP1 POP JUMP JUMPDEST PUSH32 0x4D757374206265204F776E657200000000000000000000000000000000000000 PUSH1 0x0 DUP3 ADD MSTORE POP JUMP JUMPDEST PUSH1 0x0 PUSH2 0x11B9 PUSH1 0xD DUP4 PUSH2 0xE7F JUMP JUMPDEST SWAP2 POP PUSH2 0x11C4 DUP3 PUSH2 0x1183 JUMP JUMPDEST PUSH1 0x20 DUP3 ADD SWAP1 POP SWAP2 SWAP1 POP JUMP JUMPDEST PUSH1 0x0 PUSH1 0x20 DUP3 ADD SWAP1 POP DUP2 DUP2 SUB PUSH1 0x0 DUP4 ADD MSTORE PUSH2 0x11E8 DUP2 PUSH2 0x11AC JUMP JUMPDEST SWAP1 POP SWAP2 SWAP1 POP JUMP JUMPDEST PUSH32 0x4E487B7100000000000000000000000000000000000000000000000000000000 PUSH1 0x0 MSTORE PUSH1 0x11 PUSH1 0x4 MSTORE PUSH1 0x24 PUSH1 0x0 REVERT JUMPDEST PUSH1 0x0 PUSH2 0x1229 DUP3 PUSH2 0xF89 JUMP JUMPDEST SWAP2 POP PUSH2 0x1234 DUP4 PUSH2 0xF89 JUMP JUMPDEST SWAP3 POP DUP3 DUP3 ADD SWAP1 POP DUP1 DUP3 GT ISZERO PUSH2 0x124C JUMPI PUSH2 0x124B PUSH2 0x11EF JUMP JUMPDEST JUMPDEST SWAP3 SWAP2 POP POP JUMP JUMPDEST PUSH32 0x4E487B7100000000000000000000000000000000000000000000000000000000 PUSH1 0x0 MSTORE PUSH1 0x1 PUSH1 0x4 MSTORE PUSH1 0x24 PUSH1 0x0 REVERT JUMPDEST PUSH1 0x0 PUSH2 0x128C DUP3 PUSH2 0xF89 JUMP JUMPDEST SWAP2 POP PUSH2 0x1297 DUP4 PUSH2 0xF89 JUMP JUMPDEST SWAP3 POP DUP3 DUP3 SUB SWAP1 POP DUP2 DUP2 GT ISZERO PUSH2 0x12AF JUMPI PUSH2 0x12AE PUSH2 0x11EF JUMP JUMPDEST JUMPDEST SWAP3 SWAP2 POP POP JUMP INVALID LOG2 PUSH5 0x6970667358 0x22 SLT KECCAK256 0xE PUSH18 0x384D145C809F9D0B7A417F0244EBA0EF75FF PUSH27 0x694A4398B27A46DFE26FBC64736F6C634300081200330000000000 "
				},
				"gasEstimates": {
					"creation": {
						"codeDepositCost": "968600",
						"executionCost": "infinite",
						"totalCost": "infinite"
					},
					"external": {
						"allowance(address,address)": "infinite",
						"approve(address,uint256)": "infinite",
						"balanceOf(address)": "2841",
						"decimals()": "446",
						"increaseTotalSupply(uint256)": "infinite",
						"name()": "infinite",
						"renounceOwnership()": "26600",
						"symbol()": "infinite",
						"totalSupply()": "2482",
						"transfer(address,uint256)": "infinite",
						"transferFrom(address,address,uint256)": "infinite",
						"transferFromClient(address,address,uint256)": "infinite"
					}
				},
				"methodIdentifiers": {
					"allowance(address,address)": "dd62ed3e",
					"approve(address,uint256)": "095ea7b3",
					"balanceOf(address)": "70a08231",
					"decimals()": "313ce567",
					"increaseTotalSupply(uint256)": "1d43cc98",
					"name()": "06fdde03",
					"renounceOwnership()": "715018a6",
					"symbol()": "95d89b41",
					"totalSupply()": "18160ddd",
					"transfer(address,uint256)": "a9059cbb",
					"transferFrom(address,address,uint256)": "23b872dd",
					"transferFromClient(address,address,uint256)": "e0631f7f"
				}
			},
			"storageLayout": {
				"storage": [
					{
						"astId": 96,
						"contract": "RESORT/ERC20.sol:ERC20Basic",
						"label": "owner",
						"offset": 0,
						"slot": "0",
						"type": "t_address"
					},
					{
						"astId": 100,
						"contract": "RESORT/ERC20.sol:ERC20Basic",
						"label": "balances",
						"offset": 0,
						"slot": "1",
						"type": "t_mapping(t_address,t_uint256)"
					},
					{
						"astId": 106,
						"contract": "RESORT/ERC20.sol:ERC20Basic",
						"label": "allowed",
						"offset": 0,
						"slot": "2",
						"type": "t_mapping(t_address,t_mapping(t_address,t_uint256))"
					},
					{
						"astId": 108,
						"contract": "RESORT/ERC20.sol:ERC20Basic",
						"label": "totalSupply_",
						"offset": 0,
						"slot": "3",
						"type": "t_uint256"
					}
				],
				"types": {
					"t_address": {
						"encoding": "inplace",
						"label": "address",
						"numberOfBytes": "20"
					},
					"t_mapping(t_address,t_mapping(t_address,t_uint256))": {
						"encoding": "mapping",
						"key": "t_address",
						"label": "mapping(address => mapping(address => uint256))",
						"numberOfBytes": "32",
						"value": "t_mapping(t_address,t_uint256)"
					},
					"t_mapping(t_address,t_uint256)": {
						"encoding": "mapping",
						"key": "t_address",
						"label": "mapping(address => uint256)",
						"numberOfBytes": "32",
						"value": "t_uint256"
					},
					"t_uint256": {
						"encoding": "inplace",
						"label": "uint256",
						"numberOfBytes": "32"
					}
				}
			},
			"userdoc": {
				"kind": "user",
				"methods": {},
				"version": 1
			}
		}
	}
}