{
	"RESORT/Resort.sol": {
		"Resort": {
			"abi": [
				{
					"inputs": [],
					"stateMutability": "nonpayable",
					"type": "constructor"
				},
				{
					"anonymous": false,
					"inputs": [
						{
							"indexed": false,
							"internalType": "string",
							"name": "",
							"type": "string"
						}
					],
					"name": "closed_attraction",
					"type": "event"
				},
				{
					"anonymous": false,
					"inputs": [
						{
							"indexed": false,
							"internalType": "string",
							"name": "",
							"type": "string"
						},
						{
							"indexed": false,
							"internalType": "uint256",
							"name": "",
							"type": "uint256"
						},
						{
							"indexed": false,
							"internalType": "address",
							"name": "",
							"type": "address"
						}
					],
					"name": "enjoy_attraction",
					"type": "event"
				},
				{
					"anonymous": false,
					"inputs": [
						{
							"indexed": false,
							"internalType": "string",
							"name": "",
							"type": "string"
						},
						{
							"indexed": false,
							"internalType": "uint256",
							"name": "",
							"type": "uint256"
						}
					],
					"name": "new_attraction",
					"type": "event"
				},
				{
					"inputs": [
						{
							"internalType": "string",
							"name": "",
							"type": "string"
						}
					],
					"name": "Attractions",
					"outputs": [
						{
							"internalType": "string",
							"name": "attraction_name",
							"type": "string"
						},
						{
							"internalType": "uint256",
							"name": "attraction_price",
							"type": "uint256"
						},
						{
							"internalType": "bool",
							"name": "attraction_state",
							"type": "bool"
						}
					],
					"stateMutability": "view",
					"type": "function"
				},
				{
					"inputs": [
						{
							"internalType": "address",
							"name": "",
							"type": "address"
						}
					],
					"name": "Clients",
					"outputs": [
						{
							"internalType": "uint256",
							"name": "tokens_amount",
							"type": "uint256"
						}
					],
					"stateMutability": "view",
					"type": "function"
				},
				{
					"inputs": [],
					"name": "availableAttractions",
					"outputs": [
						{
							"internalType": "string[]",
							"name": "",
							"type": "string[]"
						}
					],
					"stateMutability": "view",
					"type": "function"
				},
				{
					"inputs": [],
					"name": "balanceOf",
					"outputs": [
						{
							"internalType": "uint256",
							"name": "",
							"type": "uint256"
						}
					],
					"stateMutability": "view",
					"type": "function"
				},
				{
					"inputs": [
						{
							"internalType": "uint256",
							"name": "_tokenAmount",
							"type": "uint256"
						}
					],
					"name": "buyTokens",
					"outputs": [],
					"stateMutability": "payable",
					"type": "function"
				},
				{
					"inputs": [
						{
							"internalType": "string",
							"name": "_attractionName",
							"type": "string"
						}
					],
					"name": "closeAttraction",
					"outputs": [],
					"stateMutability": "nonpayable",
					"type": "function"
				},
				{
					"inputs": [
						{
							"internalType": "uint256",
							"name": "_tokenAmount",
							"type": "uint256"
						}
					],
					"name": "mintTokens",
					"outputs": [],
					"stateMutability": "nonpayable",
					"type": "function"
				},
				{
					"inputs": [],
					"name": "myTokenAmount",
					"outputs": [
						{
							"internalType": "uint256",
							"name": "",
							"type": "uint256"
						}
					],
					"stateMutability": "view",
					"type": "function"
				},
				{
					"inputs": [
						{
							"internalType": "string",
							"name": "_attractionName",
							"type": "string"
						},
						{
							"internalType": "uint256",
							"name": "_price",
							"type": "uint256"
						}
					],
					"name": "newAttraction",
					"outputs": [],
					"stateMutability": "nonpayable",
					"type": "function"
				},
				{
					"inputs": [],
					"name": "owner",
					"outputs": [
						{
							"internalType": "address payable",
							"name": "",
							"type": "address"
						}
					],
					"stateMutability": "view",
					"type": "function"
				},
				{
					"inputs": [
						{
							"internalType": "string",
							"name": "_attractionName",
							"type": "string"
						}
					],
					"name": "useAttraction",
					"outputs": [],
					"stateMutability": "nonpayable",
					"type": "function"
				}
			],
			"devdoc": {
				"kind": "dev",
				"methods": {},
				"version": 1
			},
			"evm": {
				"assembly": "    /* \"RESORT/Resort.sol\":81:3683  contract Resort{... */\n  mstore(0x40, 0x80)\n    /* \"RESORT/Resort.sol\":242:338  constructor(){... */\n  callvalue\n  dup1\n  iszero\n  tag_1\n  jumpi\n  0x00\n  dup1\n  revert\ntag_1:\n  pop\n    /* \"RESORT/Resort.sol\":288:293  10000 */\n  0x2710\n    /* \"RESORT/Resort.sol\":273:294  new ERC20Basic(10000) */\n  mload(0x40)\n  tag_4\n  swap1\n  tag_5\n  jump\t// in\ntag_4:\n  tag_6\n  swap2\n  swap1\n  tag_7\n  jump\t// in\ntag_6:\n  mload(0x40)\n  dup1\n  swap2\n  sub\n  swap1\n  0x00\n  create\n  dup1\n  iszero\n  dup1\n  iszero\n  tag_8\n  jumpi\n  returndatasize\n  0x00\n  dup1\n  returndatacopy\n  revert(0x00, returndatasize)\ntag_8:\n  pop\n    /* \"RESORT/Resort.sol\":265:270  token */\n  0x00\n  dup1\n    /* \"RESORT/Resort.sol\":265:294  token = new ERC20Basic(10000) */\n  0x0100\n  exp\n  dup2\n  sload\n  dup2\n  0xffffffffffffffffffffffffffffffffffffffff\n  mul\n  not\n  and\n  swap1\n  dup4\n  0xffffffffffffffffffffffffffffffffffffffff\n  and\n  mul\n  or\n  swap1\n  sstore\n  pop\n    /* \"RESORT/Resort.sol\":320:330  msg.sender */\n  caller\n    /* \"RESORT/Resort.sol\":304:309  owner */\n  0x01\n  0x00\n    /* \"RESORT/Resort.sol\":304:331  owner = payable(msg.sender) */\n  0x0100\n  exp\n  dup2\n  sload\n  dup2\n  0xffffffffffffffffffffffffffffffffffffffff\n  mul\n  not\n  and\n  swap1\n  dup4\n  0xffffffffffffffffffffffffffffffffffffffff\n  and\n  mul\n  or\n  swap1\n  sstore\n  pop\n    /* \"RESORT/Resort.sol\":81:3683  contract Resort{... */\n  jump(tag_9)\ntag_5:\n  dataSize(sub_1)\n  dup1\n  dataOffset(sub_1)\n  dup4\n  codecopy\n  add\n  swap1\n  jump\t// out\n    /* \"#utility.yul\":7:96   */\ntag_10:\n    /* \"#utility.yul\":56:63   */\n  0x00\n    /* \"#utility.yul\":85:90   */\n  dup2\n    /* \"#utility.yul\":74:90   */\n  swap1\n  pop\n    /* \"#utility.yul\":7:96   */\n  swap2\n  swap1\n  pop\n  jump\t// out\n    /* \"#utility.yul\":102:179   */\ntag_11:\n    /* \"#utility.yul\":139:146   */\n  0x00\n    /* \"#utility.yul\":168:173   */\n  dup2\n    /* \"#utility.yul\":157:173   */\n  swap1\n  pop\n    /* \"#utility.yul\":102:179   */\n  swap2\n  swap1\n  pop\n  jump\t// out\n    /* \"#utility.yul\":185:245   */\ntag_12:\n    /* \"#utility.yul\":213:216   */\n  0x00\n    /* \"#utility.yul\":234:239   */\n  dup2\n    /* \"#utility.yul\":227:239   */\n  swap1\n  pop\n    /* \"#utility.yul\":185:245   */\n  swap2\n  swap1\n  pop\n  jump\t// out\n    /* \"#utility.yul\":251:417   */\ntag_13:\n    /* \"#utility.yul\":313:322   */\n  0x00\n    /* \"#utility.yul\":346:411   */\n  tag_20\n    /* \"#utility.yul\":364:410   */\n  tag_21\n    /* \"#utility.yul\":373:409   */\n  tag_22\n    /* \"#utility.yul\":403:408   */\n  dup5\n    /* \"#utility.yul\":373:409   */\n  tag_10\n  jump\t// in\ntag_22:\n    /* \"#utility.yul\":364:410   */\n  tag_12\n  jump\t// in\ntag_21:\n    /* \"#utility.yul\":346:411   */\n  tag_11\n  jump\t// in\ntag_20:\n    /* \"#utility.yul\":333:411   */\n  swap1\n  pop\n    /* \"#utility.yul\":251:417   */\n  swap2\n  swap1\n  pop\n  jump\t// out\n    /* \"#utility.yul\":423:578   */\ntag_14:\n    /* \"#utility.yul\":522:571   */\n  tag_24\n    /* \"#utility.yul\":565:570   */\n  dup2\n    /* \"#utility.yul\":522:571   */\n  tag_13\n  jump\t// in\ntag_24:\n    /* \"#utility.yul\":517:520   */\n  dup3\n    /* \"#utility.yul\":510:572   */\n  mstore\n    /* \"#utility.yul\":423:578   */\n  pop\n  pop\n  jump\t// out\n    /* \"#utility.yul\":584:830   */\ntag_7:\n    /* \"#utility.yul\":689:693   */\n  0x00\n    /* \"#utility.yul\":727:729   */\n  0x20\n    /* \"#utility.yul\":716:725   */\n  dup3\n    /* \"#utility.yul\":712:730   */\n  add\n    /* \"#utility.yul\":704:730   */\n  swap1\n  pop\n    /* \"#utility.yul\":740:823   */\n  tag_26\n    /* \"#utility.yul\":820:821   */\n  0x00\n    /* \"#utility.yul\":809:818   */\n  dup4\n    /* \"#utility.yul\":805:822   */\n  add\n    /* \"#utility.yul\":796:802   */\n  dup5\n    /* \"#utility.yul\":740:823   */\n  tag_14\n  jump\t// in\ntag_26:\n    /* \"#utility.yul\":584:830   */\n  swap3\n  swap2\n  pop\n  pop\n  jump\t// out\n    /* \"RESORT/Resort.sol\":81:3683  contract Resort{... */\ntag_9:\n  dataSize(sub_0)\n  dup1\n  dataOffset(sub_0)\n  0x00\n  codecopy\n  0x00\n  return\nstop\n\nsub_0: assembly {\n        /* \"RESORT/Resort.sol\":81:3683  contract Resort{... */\n      mstore(0x40, 0x80)\n      jumpi(tag_1, lt(calldatasize, 0x04))\n      shr(0xe0, calldataload(0x00))\n      dup1\n      0xa5956738\n      gt\n      tag_13\n      jumpi\n      dup1\n      0xa5956738\n      eq\n      tag_7\n      jumpi\n      dup1\n      0xb96f2cd4\n      eq\n      tag_8\n      jumpi\n      dup1\n      0xc4834899\n      eq\n      tag_9\n      jumpi\n      dup1\n      0xc4e5dff2\n      eq\n      tag_10\n      jumpi\n      dup1\n      0xcb0a4a33\n      eq\n      tag_11\n      jumpi\n      dup1\n      0xfbd98b20\n      eq\n      tag_12\n      jumpi\n      jump(tag_1)\n    tag_13:\n      dup1\n      0x3610724e\n      eq\n      tag_2\n      jumpi\n      dup1\n      0x722713f7\n      eq\n      tag_3\n      jumpi\n      dup1\n      0x79ac996a\n      eq\n      tag_4\n      jumpi\n      dup1\n      0x8da5cb5b\n      eq\n      tag_5\n      jumpi\n      dup1\n      0x97304ced\n      eq\n      tag_6\n      jumpi\n    tag_1:\n      0x00\n      dup1\n      revert\n        /* \"RESORT/Resort.sol\":786:1281  function buyTokens(uint _tokenAmount) public payable{... */\n    tag_2:\n      tag_14\n      0x04\n      dup1\n      calldatasize\n      sub\n      dup2\n      add\n      swap1\n      tag_15\n      swap2\n      swap1\n      tag_16\n      jump\t// in\n    tag_15:\n      tag_17\n      jump\t// in\n    tag_14:\n      stop\n        /* \"RESORT/Resort.sol\":1328:1429  function balanceOf() public view returns(uint){... */\n    tag_3:\n      callvalue\n      dup1\n      iszero\n      tag_18\n      jumpi\n      0x00\n      dup1\n      revert\n    tag_18:\n      pop\n      tag_19\n      tag_20\n      jump\t// in\n    tag_19:\n      mload(0x40)\n      tag_21\n      swap2\n      swap1\n      tag_22\n      jump\t// in\n    tag_21:\n      mload(0x40)\n      dup1\n      swap2\n      sub\n      swap1\n      return\n        /* \"RESORT/Resort.sol\":2770:2963  function closeAttraction(string memory _attractionName) public onlyOwner(){... */\n    tag_4:\n      callvalue\n      dup1\n      iszero\n      tag_23\n      jumpi\n      0x00\n      dup1\n      revert\n    tag_23:\n      pop\n      tag_24\n      0x04\n      dup1\n      calldatasize\n      sub\n      dup2\n      add\n      swap1\n      tag_25\n      swap2\n      swap1\n      tag_26\n      jump\t// in\n    tag_25:\n      tag_27\n      jump\t// in\n    tag_24:\n      stop\n        /* \"RESORT/Resort.sol\":189:217  address payable public owner */\n    tag_5:\n      callvalue\n      dup1\n      iszero\n      tag_28\n      jumpi\n      0x00\n      dup1\n      revert\n    tag_28:\n      pop\n      tag_29\n      tag_30\n      jump\t// in\n    tag_29:\n      mload(0x40)\n      tag_31\n      swap2\n      swap1\n      tag_32\n      jump\t// in\n    tag_31:\n      mload(0x40)\n      dup1\n      swap2\n      sub\n      swap1\n      return\n        /* \"RESORT/Resort.sol\":1606:1719  function mintTokens(uint _tokenAmount) public onlyOwner(){... */\n    tag_6:\n      callvalue\n      dup1\n      iszero\n      tag_33\n      jumpi\n      0x00\n      dup1\n      revert\n    tag_33:\n      pop\n      tag_34\n      0x04\n      dup1\n      calldatasize\n      sub\n      dup2\n      add\n      swap1\n      tag_35\n      swap2\n      swap1\n      tag_16\n      jump\t// in\n    tag_35:\n      tag_36\n      jump\t// in\n    tag_34:\n      stop\n        /* \"RESORT/Resort.sol\":517:559  mapping (address => client) public Clients */\n    tag_7:\n      callvalue\n      dup1\n      iszero\n      tag_37\n      jumpi\n      0x00\n      dup1\n      revert\n    tag_37:\n      pop\n      tag_38\n      0x04\n      dup1\n      calldatasize\n      sub\n      dup2\n      add\n      swap1\n      tag_39\n      swap2\n      swap1\n      tag_40\n      jump\t// in\n    tag_39:\n      tag_41\n      jump\t// in\n    tag_38:\n      mload(0x40)\n      tag_42\n      swap2\n      swap1\n      tag_22\n      jump\t// in\n    tag_42:\n      mload(0x40)\n      dup1\n      swap2\n      sub\n      swap1\n      return\n        /* \"RESORT/Resort.sol\":3009:3112  function availableAttractions() public view returns(string[] memory){... */\n    tag_8:\n      callvalue\n      dup1\n      iszero\n      tag_43\n      jumpi\n      0x00\n      dup1\n      revert\n    tag_43:\n      pop\n      tag_44\n      tag_45\n      jump\t// in\n    tag_44:\n      mload(0x40)\n      tag_46\n      swap2\n      swap1\n      tag_47\n      jump\t// in\n    tag_46:\n      mload(0x40)\n      dup1\n      swap2\n      sub\n      swap1\n      return\n        /* \"RESORT/Resort.sol\":1471:1572  function myTokenAmount() public view returns(uint){... */\n    tag_9:\n      callvalue\n      dup1\n      iszero\n      tag_48\n      jumpi\n      0x00\n      dup1\n      revert\n    tag_48:\n      pop\n      tag_49\n      tag_50\n      jump\t// in\n    tag_49:\n      mload(0x40)\n      tag_51\n      swap2\n      swap1\n      tag_22\n      jump\t// in\n    tag_51:\n      mload(0x40)\n      dup1\n      swap2\n      sub\n      swap1\n      return\n        /* \"RESORT/Resort.sol\":2185:2233  mapping(string => attraction) public Attractions */\n    tag_10:\n      callvalue\n      dup1\n      iszero\n      tag_52\n      jumpi\n      0x00\n      dup1\n      revert\n    tag_52:\n      pop\n      tag_53\n      0x04\n      dup1\n      calldatasize\n      sub\n      dup2\n      add\n      swap1\n      tag_54\n      swap2\n      swap1\n      tag_26\n      jump\t// in\n    tag_54:\n      tag_55\n      jump\t// in\n    tag_53:\n      mload(0x40)\n      tag_56\n      swap4\n      swap3\n      swap2\n      swap1\n      tag_57\n      jump\t// in\n    tag_56:\n      mload(0x40)\n      dup1\n      swap2\n      sub\n      swap1\n      return\n        /* \"RESORT/Resort.sol\":3146:3672  function useAttraction(string memory _attractionName) public{... */\n    tag_11:\n      callvalue\n      dup1\n      iszero\n      tag_58\n      jumpi\n      0x00\n      dup1\n      revert\n    tag_58:\n      pop\n      tag_59\n      0x04\n      dup1\n      calldatasize\n      sub\n      dup2\n      add\n      swap1\n      tag_60\n      swap2\n      swap1\n      tag_26\n      jump\t// in\n    tag_60:\n      tag_61\n      jump\t// in\n    tag_59:\n      stop\n        /* \"RESORT/Resort.sol\":2466:2732  function newAttraction(string memory _attractionName, uint _price) public onlyOwner{... */\n    tag_12:\n      callvalue\n      dup1\n      iszero\n      tag_62\n      jumpi\n      0x00\n      dup1\n      revert\n    tag_62:\n      pop\n      tag_63\n      0x04\n      dup1\n      calldatasize\n      sub\n      dup2\n      add\n      swap1\n      tag_64\n      swap2\n      swap1\n      tag_65\n      jump\t// in\n    tag_64:\n      tag_66\n      jump\t// in\n    tag_63:\n      stop\n        /* \"RESORT/Resort.sol\":786:1281  function buyTokens(uint _tokenAmount) public payable{... */\n    tag_17:\n        /* \"RESORT/Resort.sol\":875:884  uint cost */\n      0x00\n        /* \"RESORT/Resort.sol\":887:911  tokenPrice(_tokenAmount) */\n      tag_68\n        /* \"RESORT/Resort.sol\":898:910  _tokenAmount */\n      dup3\n        /* \"RESORT/Resort.sol\":887:897  tokenPrice */\n      tag_69\n        /* \"RESORT/Resort.sol\":887:911  tokenPrice(_tokenAmount) */\n      jump\t// in\n    tag_68:\n        /* \"RESORT/Resort.sol\":875:911  uint cost = tokenPrice(_tokenAmount) */\n      swap1\n      pop\n        /* \"RESORT/Resort.sol\":942:946  cost */\n      dup1\n        /* \"RESORT/Resort.sol\":929:938  msg.value */\n      callvalue\n        /* \"RESORT/Resort.sol\":929:946  msg.value >= cost */\n      lt\n      iszero\n        /* \"RESORT/Resort.sol\":921:969  require(msg.value >= cost,\"Insufficient amount\") */\n      tag_70\n      jumpi\n      mload(0x40)\n      0x08c379a000000000000000000000000000000000000000000000000000000000\n      dup2\n      mstore\n      0x04\n      add\n      tag_71\n      swap1\n      tag_72\n      jump\t// in\n    tag_71:\n      mload(0x40)\n      dup1\n      swap2\n      sub\n      swap1\n      revert\n    tag_70:\n        /* \"RESORT/Resort.sol\":979:995  uint returnValue */\n      0x00\n        /* \"RESORT/Resort.sol\":1010:1014  cost */\n      dup2\n        /* \"RESORT/Resort.sol\":998:1007  msg.value */\n      callvalue\n        /* \"RESORT/Resort.sol\":998:1014  msg.value - cost */\n      tag_73\n      swap2\n      swap1\n      tag_74\n      jump\t// in\n    tag_73:\n        /* \"RESORT/Resort.sol\":979:1014  uint returnValue = msg.value - cost */\n      swap1\n      pop\n        /* \"RESORT/Resort.sol\":1032:1042  msg.sender */\n      caller\n        /* \"RESORT/Resort.sol\":1024:1052  payable(msg.sender).transfer */\n      0xffffffffffffffffffffffffffffffffffffffff\n      and\n        /* \"RESORT/Resort.sol\":1024:1065  payable(msg.sender).transfer(returnValue) */\n      0x08fc\n        /* \"RESORT/Resort.sol\":1053:1064  returnValue */\n      dup3\n        /* \"RESORT/Resort.sol\":1024:1065  payable(msg.sender).transfer(returnValue) */\n      swap1\n      dup2\n      iszero\n      mul\n      swap1\n      mload(0x40)\n      0x00\n      mload(0x40)\n      dup1\n      dup4\n      sub\n      dup2\n      dup6\n      dup9\n      dup9\n      call\n      swap4\n      pop\n      pop\n      pop\n      pop\n      iszero\n      dup1\n      iszero\n      tag_76\n      jumpi\n      returndatasize\n      0x00\n      dup1\n      returndatacopy\n      revert(0x00, returndatasize)\n    tag_76:\n      pop\n        /* \"RESORT/Resort.sol\":1075:1087  uint Balance */\n      0x00\n        /* \"RESORT/Resort.sol\":1090:1101  balanceOf() */\n      tag_77\n        /* \"RESORT/Resort.sol\":1090:1099  balanceOf */\n      tag_20\n        /* \"RESORT/Resort.sol\":1090:1101  balanceOf() */\n      jump\t// in\n    tag_77:\n        /* \"RESORT/Resort.sol\":1075:1101  uint Balance = balanceOf() */\n      swap1\n      pop\n        /* \"RESORT/Resort.sol\":1135:1142  Balance */\n      dup1\n        /* \"RESORT/Resort.sol\":1119:1131  _tokenAmount */\n      dup5\n        /* \"RESORT/Resort.sol\":1119:1142  _tokenAmount <= Balance */\n      gt\n      iszero\n        /* \"RESORT/Resort.sol\":1111:1165  require(_tokenAmount <= Balance, \"Transaction failed\") */\n      tag_78\n      jumpi\n      mload(0x40)\n      0x08c379a000000000000000000000000000000000000000000000000000000000\n      dup2\n      mstore\n      0x04\n      add\n      tag_79\n      swap1\n      tag_80\n      jump\t// in\n    tag_79:\n      mload(0x40)\n      dup1\n      swap2\n      sub\n      swap1\n      revert\n    tag_78:\n        /* \"RESORT/Resort.sol\":1175:1180  token */\n      0x00\n      dup1\n      sload\n      swap1\n      0x0100\n      exp\n      swap1\n      div\n      0xffffffffffffffffffffffffffffffffffffffff\n      and\n        /* \"RESORT/Resort.sol\":1175:1189  token.transfer */\n      0xffffffffffffffffffffffffffffffffffffffff\n      and\n      0xa9059cbb\n        /* \"RESORT/Resort.sol\":1190:1200  msg.sender */\n      caller\n        /* \"RESORT/Resort.sol\":1201:1213  _tokenAmount */\n      dup7\n        /* \"RESORT/Resort.sol\":1175:1214  token.transfer(msg.sender,_tokenAmount) */\n      mload(0x40)\n      dup4\n      0xffffffff\n      and\n      0xe0\n      shl\n      dup2\n      mstore\n      0x04\n      add\n      tag_81\n      swap3\n      swap2\n      swap1\n      tag_82\n      jump\t// in\n    tag_81:\n      0x20\n      mload(0x40)\n      dup1\n      dup4\n      sub\n      dup2\n      0x00\n      dup8\n      gas\n      call\n      iszero\n      dup1\n      iszero\n      tag_84\n      jumpi\n      returndatasize\n      0x00\n      dup1\n      returndatacopy\n      revert(0x00, returndatasize)\n    tag_84:\n      pop\n      pop\n      pop\n      pop\n      mload(0x40)\n      returndatasize\n      not(0x1f)\n      0x1f\n      dup3\n      add\n      and\n      dup3\n      add\n      dup1\n      0x40\n      mstore\n      pop\n      dup2\n      add\n      swap1\n      tag_85\n      swap2\n      swap1\n      tag_86\n      jump\t// in\n    tag_85:\n      pop\n        /* \"RESORT/Resort.sol\":1261:1273  _tokenAmount */\n      dup4\n        /* \"RESORT/Resort.sol\":1224:1231  Clients */\n      0x02\n        /* \"RESORT/Resort.sol\":1224:1243  Clients[msg.sender] */\n      0x00\n        /* \"RESORT/Resort.sol\":1232:1242  msg.sender */\n      caller\n        /* \"RESORT/Resort.sol\":1224:1243  Clients[msg.sender] */\n      0xffffffffffffffffffffffffffffffffffffffff\n      and\n      0xffffffffffffffffffffffffffffffffffffffff\n      and\n      dup2\n      mstore\n      0x20\n      add\n      swap1\n      dup2\n      mstore\n      0x20\n      add\n      0x00\n      keccak256\n        /* \"RESORT/Resort.sol\":1224:1257  Clients[msg.sender].tokens_amount */\n      0x00\n      add\n      0x00\n        /* \"RESORT/Resort.sol\":1224:1273  Clients[msg.sender].tokens_amount += _tokenAmount */\n      dup3\n      dup3\n      sload\n      tag_87\n      swap2\n      swap1\n      tag_88\n      jump\t// in\n    tag_87:\n      swap3\n      pop\n      pop\n      dup2\n      swap1\n      sstore\n      pop\n        /* \"RESORT/Resort.sol\":838:1281  {... */\n      pop\n      pop\n      pop\n        /* \"RESORT/Resort.sol\":786:1281  function buyTokens(uint _tokenAmount) public payable{... */\n      pop\n      jump\t// out\n        /* \"RESORT/Resort.sol\":1328:1429  function balanceOf() public view returns(uint){... */\n    tag_20:\n        /* \"RESORT/Resort.sol\":1369:1373  uint */\n      0x00\n        /* \"RESORT/Resort.sol\":1391:1396  token */\n      dup1\n      0x00\n      swap1\n      sload\n      swap1\n      0x0100\n      exp\n      swap1\n      div\n      0xffffffffffffffffffffffffffffffffffffffff\n      and\n        /* \"RESORT/Resort.sol\":1391:1406  token.balanceOf */\n      0xffffffffffffffffffffffffffffffffffffffff\n      and\n      0x70a08231\n        /* \"RESORT/Resort.sol\":1415:1419  this */\n      address\n        /* \"RESORT/Resort.sol\":1391:1421  token.balanceOf(address(this)) */\n      mload(0x40)\n      dup3\n      0xffffffff\n      and\n      0xe0\n      shl\n      dup2\n      mstore\n      0x04\n      add\n      tag_90\n      swap2\n      swap1\n      tag_91\n      jump\t// in\n    tag_90:\n      0x20\n      mload(0x40)\n      dup1\n      dup4\n      sub\n      dup2\n      dup7\n      gas\n      staticcall\n      iszero\n      dup1\n      iszero\n      tag_93\n      jumpi\n      returndatasize\n      0x00\n      dup1\n      returndatacopy\n      revert(0x00, returndatasize)\n    tag_93:\n      pop\n      pop\n      pop\n      pop\n      mload(0x40)\n      returndatasize\n      not(0x1f)\n      0x1f\n      dup3\n      add\n      and\n      dup3\n      add\n      dup1\n      0x40\n      mstore\n      pop\n      dup2\n      add\n      swap1\n      tag_94\n      swap2\n      swap1\n      tag_95\n      jump\t// in\n    tag_94:\n        /* \"RESORT/Resort.sol\":1384:1421  return token.balanceOf(address(this)) */\n      swap1\n      pop\n        /* \"RESORT/Resort.sol\":1328:1429  function balanceOf() public view returns(uint){... */\n      swap1\n      jump\t// out\n        /* \"RESORT/Resort.sol\":2770:2963  function closeAttraction(string memory _attractionName) public onlyOwner(){... */\n    tag_27:\n        /* \"RESORT/Resort.sol\":1802:1807  owner */\n      0x01\n      0x00\n      swap1\n      sload\n      swap1\n      0x0100\n      exp\n      swap1\n      div\n      0xffffffffffffffffffffffffffffffffffffffff\n      and\n        /* \"RESORT/Resort.sol\":1788:1807  msg.sender == owner */\n      0xffffffffffffffffffffffffffffffffffffffff\n      and\n        /* \"RESORT/Resort.sol\":1788:1798  msg.sender */\n      caller\n        /* \"RESORT/Resort.sol\":1788:1807  msg.sender == owner */\n      0xffffffffffffffffffffffffffffffffffffffff\n      and\n      eq\n        /* \"RESORT/Resort.sol\":1780:1808  require(msg.sender == owner) */\n      tag_97\n      jumpi\n      0x00\n      dup1\n      revert\n    tag_97:\n        /* \"RESORT/Resort.sol\":2902:2907  false */\n      0x00\n        /* \"RESORT/Resort.sol\":2854:2865  Attractions */\n      0x03\n        /* \"RESORT/Resort.sol\":2866:2881  _attractionName */\n      dup3\n        /* \"RESORT/Resort.sol\":2854:2882  Attractions[_attractionName] */\n      mload(0x40)\n      tag_99\n      swap2\n      swap1\n      tag_100\n      jump\t// in\n    tag_99:\n      swap1\n      dup2\n      mstore\n      0x20\n      add\n      mload(0x40)\n      dup1\n      swap2\n      sub\n      swap1\n      keccak256\n        /* \"RESORT/Resort.sol\":2854:2899  Attractions[_attractionName].attraction_state */\n      0x02\n      add\n      0x00\n        /* \"RESORT/Resort.sol\":2854:2907  Attractions[_attractionName].attraction_state = false */\n      0x0100\n      exp\n      dup2\n      sload\n      dup2\n      0xff\n      mul\n      not\n      and\n      swap1\n      dup4\n      iszero\n      iszero\n      mul\n      or\n      swap1\n      sstore\n      pop\n        /* \"RESORT/Resort.sol\":2922:2956  closed_attraction(_attractionName) */\n      0xa9b5d005cb280c62bb7a048bb2323e402707d0f05a053a3fe3a3e1b64aa4856d\n        /* \"RESORT/Resort.sol\":2940:2955  _attractionName */\n      dup2\n        /* \"RESORT/Resort.sol\":2922:2956  closed_attraction(_attractionName) */\n      mload(0x40)\n      tag_101\n      swap2\n      swap1\n      tag_102\n      jump\t// in\n    tag_101:\n      mload(0x40)\n      dup1\n      swap2\n      sub\n      swap1\n      log1\n        /* \"RESORT/Resort.sol\":2770:2963  function closeAttraction(string memory _attractionName) public onlyOwner(){... */\n      pop\n      jump\t// out\n        /* \"RESORT/Resort.sol\":189:217  address payable public owner */\n    tag_30:\n      0x01\n      0x00\n      swap1\n      sload\n      swap1\n      0x0100\n      exp\n      swap1\n      div\n      0xffffffffffffffffffffffffffffffffffffffff\n      and\n      dup2\n      jump\t// out\n        /* \"RESORT/Resort.sol\":1606:1719  function mintTokens(uint _tokenAmount) public onlyOwner(){... */\n    tag_36:\n        /* \"RESORT/Resort.sol\":1802:1807  owner */\n      0x01\n      0x00\n      swap1\n      sload\n      swap1\n      0x0100\n      exp\n      swap1\n      div\n      0xffffffffffffffffffffffffffffffffffffffff\n      and\n        /* \"RESORT/Resort.sol\":1788:1807  msg.sender == owner */\n      0xffffffffffffffffffffffffffffffffffffffff\n      and\n        /* \"RESORT/Resort.sol\":1788:1798  msg.sender */\n      caller\n        /* \"RESORT/Resort.sol\":1788:1807  msg.sender == owner */\n      0xffffffffffffffffffffffffffffffffffffffff\n      and\n      eq\n        /* \"RESORT/Resort.sol\":1780:1808  require(msg.sender == owner) */\n      tag_104\n      jumpi\n      0x00\n      dup1\n      revert\n    tag_104:\n        /* \"RESORT/Resort.sol\":1673:1678  token */\n      0x00\n      dup1\n      sload\n      swap1\n      0x0100\n      exp\n      swap1\n      div\n      0xffffffffffffffffffffffffffffffffffffffff\n      and\n        /* \"RESORT/Resort.sol\":1673:1698  token.increaseTotalSupply */\n      0xffffffffffffffffffffffffffffffffffffffff\n      and\n      0x1d43cc98\n        /* \"RESORT/Resort.sol\":1699:1711  _tokenAmount */\n      dup3\n        /* \"RESORT/Resort.sol\":1673:1712  token.increaseTotalSupply(_tokenAmount) */\n      mload(0x40)\n      dup3\n      0xffffffff\n      and\n      0xe0\n      shl\n      dup2\n      mstore\n      0x04\n      add\n      tag_106\n      swap2\n      swap1\n      tag_22\n      jump\t// in\n    tag_106:\n      0x00\n      mload(0x40)\n      dup1\n      dup4\n      sub\n      dup2\n      0x00\n      dup8\n      dup1\n      extcodesize\n      iszero\n      dup1\n      iszero\n      tag_107\n      jumpi\n      0x00\n      dup1\n      revert\n    tag_107:\n      pop\n      gas\n      call\n      iszero\n      dup1\n      iszero\n      tag_109\n      jumpi\n      returndatasize\n      0x00\n      dup1\n      returndatacopy\n      revert(0x00, returndatasize)\n    tag_109:\n      pop\n      pop\n      pop\n      pop\n        /* \"RESORT/Resort.sol\":1606:1719  function mintTokens(uint _tokenAmount) public onlyOwner(){... */\n      pop\n      jump\t// out\n        /* \"RESORT/Resort.sol\":517:559  mapping (address => client) public Clients */\n    tag_41:\n      mstore(0x20, 0x02)\n      dup1\n      0x00\n      mstore\n      keccak256(0x00, 0x40)\n      0x00\n      swap2\n      pop\n      swap1\n      pop\n      dup1\n      0x00\n      add\n      sload\n      swap1\n      pop\n      dup2\n      jump\t// out\n        /* \"RESORT/Resort.sol\":3009:3112  function availableAttractions() public view returns(string[] memory){... */\n    tag_45:\n        /* \"RESORT/Resort.sol\":3061:3076  string[] memory */\n      0x60\n        /* \"RESORT/Resort.sol\":3094:3105  attractions */\n      0x04\n        /* \"RESORT/Resort.sol\":3087:3105  return attractions */\n      dup1\n      sload\n      dup1\n      0x20\n      mul\n      0x20\n      add\n      mload(0x40)\n      swap1\n      dup2\n      add\n      0x40\n      mstore\n      dup1\n      swap3\n      swap2\n      swap1\n      dup2\n      dup2\n      mstore\n      0x20\n      add\n      0x00\n      swap1\n    tag_111:\n      dup3\n      dup3\n      lt\n      iszero\n      tag_112\n      jumpi\n      dup4\n      dup3\n      swap1\n      0x00\n      mstore\n      keccak256(0x00, 0x20)\n      add\n      dup1\n      sload\n      tag_114\n      swap1\n      tag_115\n      jump\t// in\n    tag_114:\n      dup1\n      0x1f\n      add\n      0x20\n      dup1\n      swap2\n      div\n      mul\n      0x20\n      add\n      mload(0x40)\n      swap1\n      dup2\n      add\n      0x40\n      mstore\n      dup1\n      swap3\n      swap2\n      swap1\n      dup2\n      dup2\n      mstore\n      0x20\n      add\n      dup3\n      dup1\n      sload\n      tag_116\n      swap1\n      tag_115\n      jump\t// in\n    tag_116:\n      dup1\n      iszero\n      tag_117\n      jumpi\n      dup1\n      0x1f\n      lt\n      tag_118\n      jumpi\n      0x0100\n      dup1\n      dup4\n      sload\n      div\n      mul\n      dup4\n      mstore\n      swap2\n      0x20\n      add\n      swap2\n      jump(tag_117)\n    tag_118:\n      dup3\n      add\n      swap2\n      swap1\n      0x00\n      mstore\n      keccak256(0x00, 0x20)\n      swap1\n    tag_119:\n      dup2\n      sload\n      dup2\n      mstore\n      swap1\n      0x01\n      add\n      swap1\n      0x20\n      add\n      dup1\n      dup4\n      gt\n      tag_119\n      jumpi\n      dup3\n      swap1\n      sub\n      0x1f\n      and\n      dup3\n      add\n      swap2\n    tag_117:\n      pop\n      pop\n      pop\n      pop\n      pop\n      dup2\n      mstore\n      0x20\n      add\n      swap1\n      0x01\n      add\n      swap1\n      jump(tag_111)\n    tag_112:\n      pop\n      pop\n      pop\n      pop\n      swap1\n      pop\n        /* \"RESORT/Resort.sol\":3009:3112  function availableAttractions() public view returns(string[] memory){... */\n      swap1\n      jump\t// out\n        /* \"RESORT/Resort.sol\":1471:1572  function myTokenAmount() public view returns(uint){... */\n    tag_50:\n        /* \"RESORT/Resort.sol\":1516:1520  uint */\n      0x00\n        /* \"RESORT/Resort.sol\":1538:1543  token */\n      dup1\n      0x00\n      swap1\n      sload\n      swap1\n      0x0100\n      exp\n      swap1\n      div\n      0xffffffffffffffffffffffffffffffffffffffff\n      and\n        /* \"RESORT/Resort.sol\":1538:1553  token.balanceOf */\n      0xffffffffffffffffffffffffffffffffffffffff\n      and\n      0x70a08231\n        /* \"RESORT/Resort.sol\":1554:1564  msg.sender */\n      caller\n        /* \"RESORT/Resort.sol\":1538:1565  token.balanceOf(msg.sender) */\n      mload(0x40)\n      dup3\n      0xffffffff\n      and\n      0xe0\n      shl\n      dup2\n      mstore\n      0x04\n      add\n      tag_121\n      swap2\n      swap1\n      tag_91\n      jump\t// in\n    tag_121:\n      0x20\n      mload(0x40)\n      dup1\n      dup4\n      sub\n      dup2\n      dup7\n      gas\n      staticcall\n      iszero\n      dup1\n      iszero\n      tag_123\n      jumpi\n      returndatasize\n      0x00\n      dup1\n      returndatacopy\n      revert(0x00, returndatasize)\n    tag_123:\n      pop\n      pop\n      pop\n      pop\n      mload(0x40)\n      returndatasize\n      not(0x1f)\n      0x1f\n      dup3\n      add\n      and\n      dup3\n      add\n      dup1\n      0x40\n      mstore\n      pop\n      dup2\n      add\n      swap1\n      tag_124\n      swap2\n      swap1\n      tag_95\n      jump\t// in\n    tag_124:\n        /* \"RESORT/Resort.sol\":1531:1565  return token.balanceOf(msg.sender) */\n      swap1\n      pop\n        /* \"RESORT/Resort.sol\":1471:1572  function myTokenAmount() public view returns(uint){... */\n      swap1\n      jump\t// out\n        /* \"RESORT/Resort.sol\":2185:2233  mapping(string => attraction) public Attractions */\n    tag_55:\n      0x03\n      dup2\n      dup1\n      mload\n      0x20\n      dup2\n      add\n      dup3\n      add\n      dup1\n      mload\n      dup5\n      dup3\n      mstore\n      0x20\n      dup4\n      add\n      0x20\n      dup6\n      add\n      keccak256\n      dup2\n      dup4\n      mstore\n      dup1\n      swap6\n      pop\n      pop\n      pop\n      pop\n      pop\n      pop\n      0x00\n      swap2\n      pop\n      swap1\n      pop\n      dup1\n      0x00\n      add\n      dup1\n      sload\n      tag_125\n      swap1\n      tag_115\n      jump\t// in\n    tag_125:\n      dup1\n      0x1f\n      add\n      0x20\n      dup1\n      swap2\n      div\n      mul\n      0x20\n      add\n      mload(0x40)\n      swap1\n      dup2\n      add\n      0x40\n      mstore\n      dup1\n      swap3\n      swap2\n      swap1\n      dup2\n      dup2\n      mstore\n      0x20\n      add\n      dup3\n      dup1\n      sload\n      tag_126\n      swap1\n      tag_115\n      jump\t// in\n    tag_126:\n      dup1\n      iszero\n      tag_127\n      jumpi\n      dup1\n      0x1f\n      lt\n      tag_128\n      jumpi\n      0x0100\n      dup1\n      dup4\n      sload\n      div\n      mul\n      dup4\n      mstore\n      swap2\n      0x20\n      add\n      swap2\n      jump(tag_127)\n    tag_128:\n      dup3\n      add\n      swap2\n      swap1\n      0x00\n      mstore\n      keccak256(0x00, 0x20)\n      swap1\n    tag_129:\n      dup2\n      sload\n      dup2\n      mstore\n      swap1\n      0x01\n      add\n      swap1\n      0x20\n      add\n      dup1\n      dup4\n      gt\n      tag_129\n      jumpi\n      dup3\n      swap1\n      sub\n      0x1f\n      and\n      dup3\n      add\n      swap2\n    tag_127:\n      pop\n      pop\n      pop\n      pop\n      pop\n      swap1\n      dup1\n      0x01\n      add\n      sload\n      swap1\n      dup1\n      0x02\n      add\n      0x00\n      swap1\n      sload\n      swap1\n      0x0100\n      exp\n      swap1\n      div\n      0xff\n      and\n      swap1\n      pop\n      dup4\n      jump\t// out\n        /* \"RESORT/Resort.sol\":3146:3672  function useAttraction(string memory _attractionName) public{... */\n    tag_61:\n        /* \"RESORT/Resort.sol\":3273:3277  true */\n      0x01\n        /* \"RESORT/Resort.sol\":3224:3277  Attractions[_attractionName].attraction_state == true */\n      iszero\n      iszero\n        /* \"RESORT/Resort.sol\":3224:3235  Attractions */\n      0x03\n        /* \"RESORT/Resort.sol\":3236:3251  _attractionName */\n      dup3\n        /* \"RESORT/Resort.sol\":3224:3252  Attractions[_attractionName] */\n      mload(0x40)\n      tag_131\n      swap2\n      swap1\n      tag_100\n      jump\t// in\n    tag_131:\n      swap1\n      dup2\n      mstore\n      0x20\n      add\n      mload(0x40)\n      dup1\n      swap2\n      sub\n      swap1\n      keccak256\n        /* \"RESORT/Resort.sol\":3224:3269  Attractions[_attractionName].attraction_state */\n      0x02\n      add\n      0x00\n      swap1\n      sload\n      swap1\n      0x0100\n      exp\n      swap1\n      div\n      0xff\n      and\n        /* \"RESORT/Resort.sol\":3224:3277  Attractions[_attractionName].attraction_state == true */\n      iszero\n      iszero\n      eq\n        /* \"RESORT/Resort.sol\":3216:3297  require(Attractions[_attractionName].attraction_state == true,\"Attraction Close\") */\n      tag_132\n      jumpi\n      mload(0x40)\n      0x08c379a000000000000000000000000000000000000000000000000000000000\n      dup2\n      mstore\n      0x04\n      add\n      tag_133\n      swap1\n      tag_134\n      jump\t// in\n    tag_133:\n      mload(0x40)\n      dup1\n      swap2\n      sub\n      swap1\n      revert\n    tag_132:\n        /* \"RESORT/Resort.sol\":3307:3327  uint attractionPrice */\n      0x00\n        /* \"RESORT/Resort.sol\":3330:3341  Attractions */\n      0x03\n        /* \"RESORT/Resort.sol\":3342:3357  _attractionName */\n      dup3\n        /* \"RESORT/Resort.sol\":3330:3358  Attractions[_attractionName] */\n      mload(0x40)\n      tag_135\n      swap2\n      swap1\n      tag_100\n      jump\t// in\n    tag_135:\n      swap1\n      dup2\n      mstore\n      0x20\n      add\n      mload(0x40)\n      dup1\n      swap2\n      sub\n      swap1\n      keccak256\n        /* \"RESORT/Resort.sol\":3330:3375  Attractions[_attractionName].attraction_price */\n      0x01\n      add\n      sload\n        /* \"RESORT/Resort.sol\":3307:3375  uint attractionPrice = Attractions[_attractionName].attraction_price */\n      swap1\n      pop\n        /* \"RESORT/Resort.sol\":3412:3427  attractionPrice */\n      dup1\n        /* \"RESORT/Resort.sol\":3393:3408  myTokenAmount() */\n      tag_136\n        /* \"RESORT/Resort.sol\":3393:3406  myTokenAmount */\n      tag_50\n        /* \"RESORT/Resort.sol\":3393:3408  myTokenAmount() */\n      jump\t// in\n    tag_136:\n        /* \"RESORT/Resort.sol\":3393:3427  myTokenAmount() >= attractionPrice */\n      lt\n      iszero\n        /* \"RESORT/Resort.sol\":3385:3451  require(myTokenAmount() >= attractionPrice,\"Insufficient Balance\") */\n      tag_137\n      jumpi\n      mload(0x40)\n      0x08c379a000000000000000000000000000000000000000000000000000000000\n      dup2\n      mstore\n      0x04\n      add\n      tag_138\n      swap1\n      tag_139\n      jump\t// in\n    tag_138:\n      mload(0x40)\n      dup1\n      swap2\n      sub\n      swap1\n      revert\n    tag_137:\n        /* \"RESORT/Resort.sol\":3461:3466  token */\n      0x00\n      dup1\n      sload\n      swap1\n      0x0100\n      exp\n      swap1\n      div\n      0xffffffffffffffffffffffffffffffffffffffff\n      and\n        /* \"RESORT/Resort.sol\":3461:3485  token.transferFromClient */\n      0xffffffffffffffffffffffffffffffffffffffff\n      and\n      0xe0631f7f\n        /* \"RESORT/Resort.sol\":3486:3496  msg.sender */\n      caller\n        /* \"RESORT/Resort.sol\":3506:3510  this */\n      address\n        /* \"RESORT/Resort.sol\":3512:3527  attractionPrice */\n      dup5\n        /* \"RESORT/Resort.sol\":3461:3528  token.transferFromClient(msg.sender, address(this),attractionPrice) */\n      mload(0x40)\n      dup5\n      0xffffffff\n      and\n      0xe0\n      shl\n      dup2\n      mstore\n      0x04\n      add\n      tag_140\n      swap4\n      swap3\n      swap2\n      swap1\n      tag_141\n      jump\t// in\n    tag_140:\n      0x20\n      mload(0x40)\n      dup1\n      dup4\n      sub\n      dup2\n      0x00\n      dup8\n      gas\n      call\n      iszero\n      dup1\n      iszero\n      tag_143\n      jumpi\n      returndatasize\n      0x00\n      dup1\n      returndatacopy\n      revert(0x00, returndatasize)\n    tag_143:\n      pop\n      pop\n      pop\n      pop\n      mload(0x40)\n      returndatasize\n      not(0x1f)\n      0x1f\n      dup3\n      add\n      and\n      dup3\n      add\n      dup1\n      0x40\n      mstore\n      pop\n      dup2\n      add\n      swap1\n      tag_144\n      swap2\n      swap1\n      tag_86\n      jump\t// in\n    tag_144:\n      pop\n        /* \"RESORT/Resort.sol\":3538:3556  attractionsRecords */\n      0x05\n        /* \"RESORT/Resort.sol\":3538:3568  attractionsRecords[msg.sender] */\n      0x00\n        /* \"RESORT/Resort.sol\":3557:3567  msg.sender */\n      caller\n        /* \"RESORT/Resort.sol\":3538:3568  attractionsRecords[msg.sender] */\n      0xffffffffffffffffffffffffffffffffffffffff\n      and\n      0xffffffffffffffffffffffffffffffffffffffff\n      and\n      dup2\n      mstore\n      0x20\n      add\n      swap1\n      dup2\n      mstore\n      0x20\n      add\n      0x00\n      keccak256\n        /* \"RESORT/Resort.sol\":3574:3589  _attractionName */\n      dup3\n        /* \"RESORT/Resort.sol\":3538:3590  attractionsRecords[msg.sender].push(_attractionName) */\n      swap1\n      dup1\n      0x01\n      dup2\n      sload\n      add\n      dup1\n      dup3\n      sstore\n      dup1\n      swap2\n      pop\n      pop\n      0x01\n      swap1\n      sub\n      swap1\n      0x00\n      mstore\n      keccak256(0x00, 0x20)\n      add\n      0x00\n      swap1\n      swap2\n      swap1\n      swap2\n      swap1\n      swap2\n      pop\n      swap1\n      dup2\n      tag_146\n      swap2\n      swap1\n      tag_147\n      jump\t// in\n    tag_146:\n      pop\n        /* \"RESORT/Resort.sol\":3605:3665  enjoy_attraction(_attractionName,attractionPrice,msg.sender) */\n      0xfcec2a140106a441fbaae966bd30f8cacd5c4ae875e31e09acec6324f2a065b3\n        /* \"RESORT/Resort.sol\":3622:3637  _attractionName */\n      dup3\n        /* \"RESORT/Resort.sol\":3638:3653  attractionPrice */\n      dup3\n        /* \"RESORT/Resort.sol\":3654:3664  msg.sender */\n      caller\n        /* \"RESORT/Resort.sol\":3605:3665  enjoy_attraction(_attractionName,attractionPrice,msg.sender) */\n      mload(0x40)\n      tag_148\n      swap4\n      swap3\n      swap2\n      swap1\n      tag_149\n      jump\t// in\n    tag_148:\n      mload(0x40)\n      dup1\n      swap2\n      sub\n      swap1\n      log1\n        /* \"RESORT/Resort.sol\":3206:3672  {... */\n      pop\n        /* \"RESORT/Resort.sol\":3146:3672  function useAttraction(string memory _attractionName) public{... */\n      pop\n      jump\t// out\n        /* \"RESORT/Resort.sol\":2466:2732  function newAttraction(string memory _attractionName, uint _price) public onlyOwner{... */\n    tag_66:\n        /* \"RESORT/Resort.sol\":1802:1807  owner */\n      0x01\n      0x00\n      swap1\n      sload\n      swap1\n      0x0100\n      exp\n      swap1\n      div\n      0xffffffffffffffffffffffffffffffffffffffff\n      and\n        /* \"RESORT/Resort.sol\":1788:1807  msg.sender == owner */\n      0xffffffffffffffffffffffffffffffffffffffff\n      and\n        /* \"RESORT/Resort.sol\":1788:1798  msg.sender */\n      caller\n        /* \"RESORT/Resort.sol\":1788:1807  msg.sender == owner */\n      0xffffffffffffffffffffffffffffffffffffffff\n      and\n      eq\n        /* \"RESORT/Resort.sol\":1780:1808  require(msg.sender == owner) */\n      tag_151\n      jumpi\n      0x00\n      dup1\n      revert\n    tag_151:\n        /* \"RESORT/Resort.sol\":2590:2629  attraction(_attractionName,_price,true) */\n      mload(0x40)\n      dup1\n      0x60\n      add\n      0x40\n      mstore\n      dup1\n        /* \"RESORT/Resort.sol\":2601:2616  _attractionName */\n      dup4\n        /* \"RESORT/Resort.sol\":2590:2629  attraction(_attractionName,_price,true) */\n      dup2\n      mstore\n      0x20\n      add\n        /* \"RESORT/Resort.sol\":2617:2623  _price */\n      dup3\n        /* \"RESORT/Resort.sol\":2590:2629  attraction(_attractionName,_price,true) */\n      dup2\n      mstore\n      0x20\n      add\n        /* \"RESORT/Resort.sol\":2624:2628  true */\n      0x01\n        /* \"RESORT/Resort.sol\":2590:2629  attraction(_attractionName,_price,true) */\n      iszero\n      iszero\n      dup2\n      mstore\n      pop\n        /* \"RESORT/Resort.sol\":2559:2570  Attractions */\n      0x03\n        /* \"RESORT/Resort.sol\":2571:2586  _attractionName */\n      dup4\n        /* \"RESORT/Resort.sol\":2559:2587  Attractions[_attractionName] */\n      mload(0x40)\n      tag_153\n      swap2\n      swap1\n      tag_100\n      jump\t// in\n    tag_153:\n      swap1\n      dup2\n      mstore\n      0x20\n      add\n      mload(0x40)\n      dup1\n      swap2\n      sub\n      swap1\n      keccak256\n        /* \"RESORT/Resort.sol\":2559:2629  Attractions[_attractionName] = attraction(_attractionName,_price,true) */\n      0x00\n      dup3\n      add\n      mload\n      dup2\n      0x00\n      add\n      swap1\n      dup2\n      tag_154\n      swap2\n      swap1\n      tag_147\n      jump\t// in\n    tag_154:\n      pop\n      0x20\n      dup3\n      add\n      mload\n      dup2\n      0x01\n      add\n      sstore\n      0x40\n      dup3\n      add\n      mload\n      dup2\n      0x02\n      add\n      exp(0x0100, 0x00)\n      dup2\n      sload\n      dup2\n      0xff\n      mul\n      not\n      and\n      swap1\n      dup4\n      iszero\n      iszero\n      mul\n      or\n      swap1\n      sstore\n      pop\n      swap1\n      pop\n      pop\n        /* \"RESORT/Resort.sol\":2639:2650  attractions */\n      0x04\n        /* \"RESORT/Resort.sol\":2656:2671  _attractionName */\n      dup3\n        /* \"RESORT/Resort.sol\":2639:2672  attractions.push(_attractionName) */\n      swap1\n      dup1\n      0x01\n      dup2\n      sload\n      add\n      dup1\n      dup3\n      sstore\n      dup1\n      swap2\n      pop\n      pop\n      0x01\n      swap1\n      sub\n      swap1\n      0x00\n      mstore\n      keccak256(0x00, 0x20)\n      add\n      0x00\n      swap1\n      swap2\n      swap1\n      swap2\n      swap1\n      swap2\n      pop\n      swap1\n      dup2\n      tag_156\n      swap2\n      swap1\n      tag_147\n      jump\t// in\n    tag_156:\n      pop\n        /* \"RESORT/Resort.sol\":2687:2725  new_attraction(_attractionName,_price) */\n      0x7881aaf671f51be7f8d7a5d3e85d5c6c2e67c380908056a877bc6cfc1b8bfc5e\n        /* \"RESORT/Resort.sol\":2702:2717  _attractionName */\n      dup3\n        /* \"RESORT/Resort.sol\":2718:2724  _price */\n      dup3\n        /* \"RESORT/Resort.sol\":2687:2725  new_attraction(_attractionName,_price) */\n      mload(0x40)\n      tag_157\n      swap3\n      swap2\n      swap1\n      tag_158\n      jump\t// in\n    tag_157:\n      mload(0x40)\n      dup1\n      swap2\n      sub\n      swap1\n      log1\n        /* \"RESORT/Resort.sol\":2466:2732  function newAttraction(string memory _attractionName, uint _price) public onlyOwner{... */\n      pop\n      pop\n      jump\t// out\n        /* \"RESORT/Resort.sol\":622:763  function tokenPrice(uint _tokenAmount) internal pure returns (uint){... */\n    tag_69:\n        /* \"RESORT/Resort.sol\":684:688  uint */\n      0x00\n        /* \"RESORT/Resort.sol\":748:755  1 ether */\n      0x0de0b6b3a7640000\n        /* \"RESORT/Resort.sol\":732:744  _tokenAmount */\n      dup3\n        /* \"RESORT/Resort.sol\":732:756  _tokenAmount * (1 ether) */\n      tag_160\n      swap2\n      swap1\n      tag_161\n      jump\t// in\n    tag_160:\n        /* \"RESORT/Resort.sol\":725:756  return _tokenAmount * (1 ether) */\n      swap1\n      pop\n        /* \"RESORT/Resort.sol\":622:763  function tokenPrice(uint _tokenAmount) internal pure returns (uint){... */\n      swap2\n      swap1\n      pop\n      jump\t// out\n        /* \"#utility.yul\":7:82   */\n    tag_162:\n        /* \"#utility.yul\":40:46   */\n      0x00\n        /* \"#utility.yul\":73:75   */\n      0x40\n        /* \"#utility.yul\":67:76   */\n      mload\n        /* \"#utility.yul\":57:76   */\n      swap1\n      pop\n        /* \"#utility.yul\":7:82   */\n      swap1\n      jump\t// out\n        /* \"#utility.yul\":88:205   */\n    tag_163:\n        /* \"#utility.yul\":197:198   */\n      0x00\n        /* \"#utility.yul\":194:195   */\n      dup1\n        /* \"#utility.yul\":187:199   */\n      revert\n        /* \"#utility.yul\":211:328   */\n    tag_164:\n        /* \"#utility.yul\":320:321   */\n      0x00\n        /* \"#utility.yul\":317:318   */\n      dup1\n        /* \"#utility.yul\":310:322   */\n      revert\n        /* \"#utility.yul\":334:411   */\n    tag_165:\n        /* \"#utility.yul\":371:378   */\n      0x00\n        /* \"#utility.yul\":400:405   */\n      dup2\n        /* \"#utility.yul\":389:405   */\n      swap1\n      pop\n        /* \"#utility.yul\":334:411   */\n      swap2\n      swap1\n      pop\n      jump\t// out\n        /* \"#utility.yul\":417:539   */\n    tag_166:\n        /* \"#utility.yul\":490:514   */\n      tag_236\n        /* \"#utility.yul\":508:513   */\n      dup2\n        /* \"#utility.yul\":490:514   */\n      tag_165\n      jump\t// in\n    tag_236:\n        /* \"#utility.yul\":483:488   */\n      dup2\n        /* \"#utility.yul\":480:515   */\n      eq\n        /* \"#utility.yul\":470:533   */\n      tag_237\n      jumpi\n        /* \"#utility.yul\":529:530   */\n      0x00\n        /* \"#utility.yul\":526:527   */\n      dup1\n        /* \"#utility.yul\":519:531   */\n      revert\n        /* \"#utility.yul\":470:533   */\n    tag_237:\n        /* \"#utility.yul\":417:539   */\n      pop\n      jump\t// out\n        /* \"#utility.yul\":545:684   */\n    tag_167:\n        /* \"#utility.yul\":591:596   */\n      0x00\n        /* \"#utility.yul\":629:635   */\n      dup2\n        /* \"#utility.yul\":616:636   */\n      calldataload\n        /* \"#utility.yul\":607:636   */\n      swap1\n      pop\n        /* \"#utility.yul\":645:678   */\n      tag_239\n        /* \"#utility.yul\":672:677   */\n      dup2\n        /* \"#utility.yul\":645:678   */\n      tag_166\n      jump\t// in\n    tag_239:\n        /* \"#utility.yul\":545:684   */\n      swap3\n      swap2\n      pop\n      pop\n      jump\t// out\n        /* \"#utility.yul\":690:1019   */\n    tag_16:\n        /* \"#utility.yul\":749:755   */\n      0x00\n        /* \"#utility.yul\":798:800   */\n      0x20\n        /* \"#utility.yul\":786:795   */\n      dup3\n        /* \"#utility.yul\":777:784   */\n      dup5\n        /* \"#utility.yul\":773:796   */\n      sub\n        /* \"#utility.yul\":769:801   */\n      slt\n        /* \"#utility.yul\":766:885   */\n      iszero\n      tag_241\n      jumpi\n        /* \"#utility.yul\":804:883   */\n      tag_242\n      tag_163\n      jump\t// in\n    tag_242:\n        /* \"#utility.yul\":766:885   */\n    tag_241:\n        /* \"#utility.yul\":924:925   */\n      0x00\n        /* \"#utility.yul\":949:1002   */\n      tag_243\n        /* \"#utility.yul\":994:1001   */\n      dup5\n        /* \"#utility.yul\":985:991   */\n      dup3\n        /* \"#utility.yul\":974:983   */\n      dup6\n        /* \"#utility.yul\":970:992   */\n      add\n        /* \"#utility.yul\":949:1002   */\n      tag_167\n      jump\t// in\n    tag_243:\n        /* \"#utility.yul\":939:1002   */\n      swap2\n      pop\n        /* \"#utility.yul\":895:1012   */\n      pop\n        /* \"#utility.yul\":690:1019   */\n      swap3\n      swap2\n      pop\n      pop\n      jump\t// out\n        /* \"#utility.yul\":1025:1143   */\n    tag_168:\n        /* \"#utility.yul\":1112:1136   */\n      tag_245\n        /* \"#utility.yul\":1130:1135   */\n      dup2\n        /* \"#utility.yul\":1112:1136   */\n      tag_165\n      jump\t// in\n    tag_245:\n        /* \"#utility.yul\":1107:1110   */\n      dup3\n        /* \"#utility.yul\":1100:1137   */\n      mstore\n        /* \"#utility.yul\":1025:1143   */\n      pop\n      pop\n      jump\t// out\n        /* \"#utility.yul\":1149:1371   */\n    tag_22:\n        /* \"#utility.yul\":1242:1246   */\n      0x00\n        /* \"#utility.yul\":1280:1282   */\n      0x20\n        /* \"#utility.yul\":1269:1278   */\n      dup3\n        /* \"#utility.yul\":1265:1283   */\n      add\n        /* \"#utility.yul\":1257:1283   */\n      swap1\n      pop\n        /* \"#utility.yul\":1293:1364   */\n      tag_247\n        /* \"#utility.yul\":1361:1362   */\n      0x00\n        /* \"#utility.yul\":1350:1359   */\n      dup4\n        /* \"#utility.yul\":1346:1363   */\n      add\n        /* \"#utility.yul\":1337:1343   */\n      dup5\n        /* \"#utility.yul\":1293:1364   */\n      tag_168\n      jump\t// in\n    tag_247:\n        /* \"#utility.yul\":1149:1371   */\n      swap3\n      swap2\n      pop\n      pop\n      jump\t// out\n        /* \"#utility.yul\":1377:1494   */\n    tag_169:\n        /* \"#utility.yul\":1486:1487   */\n      0x00\n        /* \"#utility.yul\":1483:1484   */\n      dup1\n        /* \"#utility.yul\":1476:1488   */\n      revert\n        /* \"#utility.yul\":1500:1617   */\n    tag_170:\n        /* \"#utility.yul\":1609:1610   */\n      0x00\n        /* \"#utility.yul\":1606:1607   */\n      dup1\n        /* \"#utility.yul\":1599:1611   */\n      revert\n        /* \"#utility.yul\":1623:1725   */\n    tag_171:\n        /* \"#utility.yul\":1664:1670   */\n      0x00\n        /* \"#utility.yul\":1715:1717   */\n      0x1f\n        /* \"#utility.yul\":1711:1718   */\n      not\n        /* \"#utility.yul\":1706:1708   */\n      0x1f\n        /* \"#utility.yul\":1699:1704   */\n      dup4\n        /* \"#utility.yul\":1695:1709   */\n      add\n        /* \"#utility.yul\":1691:1719   */\n      and\n        /* \"#utility.yul\":1681:1719   */\n      swap1\n      pop\n        /* \"#utility.yul\":1623:1725   */\n      swap2\n      swap1\n      pop\n      jump\t// out\n        /* \"#utility.yul\":1731:1911   */\n    tag_172:\n        /* \"#utility.yul\":1779:1856   */\n      0x4e487b7100000000000000000000000000000000000000000000000000000000\n        /* \"#utility.yul\":1776:1777   */\n      0x00\n        /* \"#utility.yul\":1769:1857   */\n      mstore\n        /* \"#utility.yul\":1876:1880   */\n      0x41\n        /* \"#utility.yul\":1873:1874   */\n      0x04\n        /* \"#utility.yul\":1866:1881   */\n      mstore\n        /* \"#utility.yul\":1900:1904   */\n      0x24\n        /* \"#utility.yul\":1897:1898   */\n      0x00\n        /* \"#utility.yul\":1890:1905   */\n      revert\n        /* \"#utility.yul\":1917:2198   */\n    tag_173:\n        /* \"#utility.yul\":2000:2027   */\n      tag_253\n        /* \"#utility.yul\":2022:2026   */\n      dup3\n        /* \"#utility.yul\":2000:2027   */\n      tag_171\n      jump\t// in\n    tag_253:\n        /* \"#utility.yul\":1992:1998   */\n      dup2\n        /* \"#utility.yul\":1988:2028   */\n      add\n        /* \"#utility.yul\":2130:2136   */\n      dup2\n        /* \"#utility.yul\":2118:2128   */\n      dup2\n        /* \"#utility.yul\":2115:2137   */\n      lt\n        /* \"#utility.yul\":2094:2112   */\n      0xffffffffffffffff\n        /* \"#utility.yul\":2082:2092   */\n      dup3\n        /* \"#utility.yul\":2079:2113   */\n      gt\n        /* \"#utility.yul\":2076:2138   */\n      or\n        /* \"#utility.yul\":2073:2161   */\n      iszero\n      tag_254\n      jumpi\n        /* \"#utility.yul\":2141:2159   */\n      tag_255\n      tag_172\n      jump\t// in\n    tag_255:\n        /* \"#utility.yul\":2073:2161   */\n    tag_254:\n        /* \"#utility.yul\":2181:2191   */\n      dup1\n        /* \"#utility.yul\":2177:2179   */\n      0x40\n        /* \"#utility.yul\":2170:2192   */\n      mstore\n        /* \"#utility.yul\":1960:2198   */\n      pop\n        /* \"#utility.yul\":1917:2198   */\n      pop\n      pop\n      jump\t// out\n        /* \"#utility.yul\":2204:2333   */\n    tag_174:\n        /* \"#utility.yul\":2238:2244   */\n      0x00\n        /* \"#utility.yul\":2265:2285   */\n      tag_257\n      tag_162\n      jump\t// in\n    tag_257:\n        /* \"#utility.yul\":2255:2285   */\n      swap1\n      pop\n        /* \"#utility.yul\":2294:2327   */\n      tag_258\n        /* \"#utility.yul\":2322:2326   */\n      dup3\n        /* \"#utility.yul\":2314:2320   */\n      dup3\n        /* \"#utility.yul\":2294:2327   */\n      tag_173\n      jump\t// in\n    tag_258:\n        /* \"#utility.yul\":2204:2333   */\n      swap2\n      swap1\n      pop\n      jump\t// out\n        /* \"#utility.yul\":2339:2647   */\n    tag_175:\n        /* \"#utility.yul\":2401:2405   */\n      0x00\n        /* \"#utility.yul\":2491:2509   */\n      0xffffffffffffffff\n        /* \"#utility.yul\":2483:2489   */\n      dup3\n        /* \"#utility.yul\":2480:2510   */\n      gt\n        /* \"#utility.yul\":2477:2533   */\n      iszero\n      tag_260\n      jumpi\n        /* \"#utility.yul\":2513:2531   */\n      tag_261\n      tag_172\n      jump\t// in\n    tag_261:\n        /* \"#utility.yul\":2477:2533   */\n    tag_260:\n        /* \"#utility.yul\":2551:2580   */\n      tag_262\n        /* \"#utility.yul\":2573:2579   */\n      dup3\n        /* \"#utility.yul\":2551:2580   */\n      tag_171\n      jump\t// in\n    tag_262:\n        /* \"#utility.yul\":2543:2580   */\n      swap1\n      pop\n        /* \"#utility.yul\":2635:2639   */\n      0x20\n        /* \"#utility.yul\":2629:2633   */\n      dup2\n        /* \"#utility.yul\":2625:2640   */\n      add\n        /* \"#utility.yul\":2617:2640   */\n      swap1\n      pop\n        /* \"#utility.yul\":2339:2647   */\n      swap2\n      swap1\n      pop\n      jump\t// out\n        /* \"#utility.yul\":2653:2799   */\n    tag_176:\n        /* \"#utility.yul\":2750:2756   */\n      dup3\n        /* \"#utility.yul\":2745:2748   */\n      dup2\n        /* \"#utility.yul\":2740:2743   */\n      dup4\n        /* \"#utility.yul\":2727:2757   */\n      calldatacopy\n        /* \"#utility.yul\":2791:2792   */\n      0x00\n        /* \"#utility.yul\":2782:2788   */\n      dup4\n        /* \"#utility.yul\":2777:2780   */\n      dup4\n        /* \"#utility.yul\":2773:2789   */\n      add\n        /* \"#utility.yul\":2766:2793   */\n      mstore\n        /* \"#utility.yul\":2653:2799   */\n      pop\n      pop\n      pop\n      jump\t// out\n        /* \"#utility.yul\":2805:3230   */\n    tag_177:\n        /* \"#utility.yul\":2883:2888   */\n      0x00\n        /* \"#utility.yul\":2908:2974   */\n      tag_265\n        /* \"#utility.yul\":2924:2973   */\n      tag_266\n        /* \"#utility.yul\":2966:2972   */\n      dup5\n        /* \"#utility.yul\":2924:2973   */\n      tag_175\n      jump\t// in\n    tag_266:\n        /* \"#utility.yul\":2908:2974   */\n      tag_174\n      jump\t// in\n    tag_265:\n        /* \"#utility.yul\":2899:2974   */\n      swap1\n      pop\n        /* \"#utility.yul\":2997:3003   */\n      dup3\n        /* \"#utility.yul\":2990:2995   */\n      dup2\n        /* \"#utility.yul\":2983:3004   */\n      mstore\n        /* \"#utility.yul\":3035:3039   */\n      0x20\n        /* \"#utility.yul\":3028:3033   */\n      dup2\n        /* \"#utility.yul\":3024:3040   */\n      add\n        /* \"#utility.yul\":3073:3076   */\n      dup5\n        /* \"#utility.yul\":3064:3070   */\n      dup5\n        /* \"#utility.yul\":3059:3062   */\n      dup5\n        /* \"#utility.yul\":3055:3071   */\n      add\n        /* \"#utility.yul\":3052:3077   */\n      gt\n        /* \"#utility.yul\":3049:3161   */\n      iszero\n      tag_267\n      jumpi\n        /* \"#utility.yul\":3080:3159   */\n      tag_268\n      tag_170\n      jump\t// in\n    tag_268:\n        /* \"#utility.yul\":3049:3161   */\n    tag_267:\n        /* \"#utility.yul\":3170:3224   */\n      tag_269\n        /* \"#utility.yul\":3217:3223   */\n      dup5\n        /* \"#utility.yul\":3212:3215   */\n      dup3\n        /* \"#utility.yul\":3207:3210   */\n      dup6\n        /* \"#utility.yul\":3170:3224   */\n      tag_176\n      jump\t// in\n    tag_269:\n        /* \"#utility.yul\":2889:3230   */\n      pop\n        /* \"#utility.yul\":2805:3230   */\n      swap4\n      swap3\n      pop\n      pop\n      pop\n      jump\t// out\n        /* \"#utility.yul\":3250:3590   */\n    tag_178:\n        /* \"#utility.yul\":3306:3311   */\n      0x00\n        /* \"#utility.yul\":3355:3358   */\n      dup3\n        /* \"#utility.yul\":3348:3352   */\n      0x1f\n        /* \"#utility.yul\":3340:3346   */\n      dup4\n        /* \"#utility.yul\":3336:3353   */\n      add\n        /* \"#utility.yul\":3332:3359   */\n      slt\n        /* \"#utility.yul\":3322:3444   */\n      tag_271\n      jumpi\n        /* \"#utility.yul\":3363:3442   */\n      tag_272\n      tag_169\n      jump\t// in\n    tag_272:\n        /* \"#utility.yul\":3322:3444   */\n    tag_271:\n        /* \"#utility.yul\":3480:3486   */\n      dup2\n        /* \"#utility.yul\":3467:3487   */\n      calldataload\n        /* \"#utility.yul\":3505:3584   */\n      tag_273\n        /* \"#utility.yul\":3580:3583   */\n      dup5\n        /* \"#utility.yul\":3572:3578   */\n      dup3\n        /* \"#utility.yul\":3565:3569   */\n      0x20\n        /* \"#utility.yul\":3557:3563   */\n      dup7\n        /* \"#utility.yul\":3553:3570   */\n      add\n        /* \"#utility.yul\":3505:3584   */\n      tag_177\n      jump\t// in\n    tag_273:\n        /* \"#utility.yul\":3496:3584   */\n      swap2\n      pop\n        /* \"#utility.yul\":3312:3590   */\n      pop\n        /* \"#utility.yul\":3250:3590   */\n      swap3\n      swap2\n      pop\n      pop\n      jump\t// out\n        /* \"#utility.yul\":3596:4105   */\n    tag_26:\n        /* \"#utility.yul\":3665:3671   */\n      0x00\n        /* \"#utility.yul\":3714:3716   */\n      0x20\n        /* \"#utility.yul\":3702:3711   */\n      dup3\n        /* \"#utility.yul\":3693:3700   */\n      dup5\n        /* \"#utility.yul\":3689:3712   */\n      sub\n        /* \"#utility.yul\":3685:3717   */\n      slt\n        /* \"#utility.yul\":3682:3801   */\n      iszero\n      tag_275\n      jumpi\n        /* \"#utility.yul\":3720:3799   */\n      tag_276\n      tag_163\n      jump\t// in\n    tag_276:\n        /* \"#utility.yul\":3682:3801   */\n    tag_275:\n        /* \"#utility.yul\":3868:3869   */\n      0x00\n        /* \"#utility.yul\":3857:3866   */\n      dup3\n        /* \"#utility.yul\":3853:3870   */\n      add\n        /* \"#utility.yul\":3840:3871   */\n      calldataload\n        /* \"#utility.yul\":3898:3916   */\n      0xffffffffffffffff\n        /* \"#utility.yul\":3890:3896   */\n      dup2\n        /* \"#utility.yul\":3887:3917   */\n      gt\n        /* \"#utility.yul\":3884:4001   */\n      iszero\n      tag_277\n      jumpi\n        /* \"#utility.yul\":3920:3999   */\n      tag_278\n      tag_164\n      jump\t// in\n    tag_278:\n        /* \"#utility.yul\":3884:4001   */\n    tag_277:\n        /* \"#utility.yul\":4025:4088   */\n      tag_279\n        /* \"#utility.yul\":4080:4087   */\n      dup5\n        /* \"#utility.yul\":4071:4077   */\n      dup3\n        /* \"#utility.yul\":4060:4069   */\n      dup6\n        /* \"#utility.yul\":4056:4078   */\n      add\n        /* \"#utility.yul\":4025:4088   */\n      tag_178\n      jump\t// in\n    tag_279:\n        /* \"#utility.yul\":4015:4088   */\n      swap2\n      pop\n        /* \"#utility.yul\":3811:4098   */\n      pop\n        /* \"#utility.yul\":3596:4105   */\n      swap3\n      swap2\n      pop\n      pop\n      jump\t// out\n        /* \"#utility.yul\":4111:4237   */\n    tag_179:\n        /* \"#utility.yul\":4148:4155   */\n      0x00\n        /* \"#utility.yul\":4188:4230   */\n      0xffffffffffffffffffffffffffffffffffffffff\n        /* \"#utility.yul\":4181:4186   */\n      dup3\n        /* \"#utility.yul\":4177:4231   */\n      and\n        /* \"#utility.yul\":4166:4231   */\n      swap1\n      pop\n        /* \"#utility.yul\":4111:4237   */\n      swap2\n      swap1\n      pop\n      jump\t// out\n        /* \"#utility.yul\":4243:4347   */\n    tag_180:\n        /* \"#utility.yul\":4288:4295   */\n      0x00\n        /* \"#utility.yul\":4317:4341   */\n      tag_282\n        /* \"#utility.yul\":4335:4340   */\n      dup3\n        /* \"#utility.yul\":4317:4341   */\n      tag_179\n      jump\t// in\n    tag_282:\n        /* \"#utility.yul\":4306:4341   */\n      swap1\n      pop\n        /* \"#utility.yul\":4243:4347   */\n      swap2\n      swap1\n      pop\n      jump\t// out\n        /* \"#utility.yul\":4353:4495   */\n    tag_181:\n        /* \"#utility.yul\":4456:4488   */\n      tag_284\n        /* \"#utility.yul\":4482:4487   */\n      dup2\n        /* \"#utility.yul\":4456:4488   */\n      tag_180\n      jump\t// in\n    tag_284:\n        /* \"#utility.yul\":4451:4454   */\n      dup3\n        /* \"#utility.yul\":4444:4489   */\n      mstore\n        /* \"#utility.yul\":4353:4495   */\n      pop\n      pop\n      jump\t// out\n        /* \"#utility.yul\":4501:4755   */\n    tag_32:\n        /* \"#utility.yul\":4610:4614   */\n      0x00\n        /* \"#utility.yul\":4648:4650   */\n      0x20\n        /* \"#utility.yul\":4637:4646   */\n      dup3\n        /* \"#utility.yul\":4633:4651   */\n      add\n        /* \"#utility.yul\":4625:4651   */\n      swap1\n      pop\n        /* \"#utility.yul\":4661:4748   */\n      tag_286\n        /* \"#utility.yul\":4745:4746   */\n      0x00\n        /* \"#utility.yul\":4734:4743   */\n      dup4\n        /* \"#utility.yul\":4730:4747   */\n      add\n        /* \"#utility.yul\":4721:4727   */\n      dup5\n        /* \"#utility.yul\":4661:4748   */\n      tag_181\n      jump\t// in\n    tag_286:\n        /* \"#utility.yul\":4501:4755   */\n      swap3\n      swap2\n      pop\n      pop\n      jump\t// out\n        /* \"#utility.yul\":4761:4857   */\n    tag_182:\n        /* \"#utility.yul\":4798:4805   */\n      0x00\n        /* \"#utility.yul\":4827:4851   */\n      tag_288\n        /* \"#utility.yul\":4845:4850   */\n      dup3\n        /* \"#utility.yul\":4827:4851   */\n      tag_179\n      jump\t// in\n    tag_288:\n        /* \"#utility.yul\":4816:4851   */\n      swap1\n      pop\n        /* \"#utility.yul\":4761:4857   */\n      swap2\n      swap1\n      pop\n      jump\t// out\n        /* \"#utility.yul\":4863:4985   */\n    tag_183:\n        /* \"#utility.yul\":4936:4960   */\n      tag_290\n        /* \"#utility.yul\":4954:4959   */\n      dup2\n        /* \"#utility.yul\":4936:4960   */\n      tag_182\n      jump\t// in\n    tag_290:\n        /* \"#utility.yul\":4929:4934   */\n      dup2\n        /* \"#utility.yul\":4926:4961   */\n      eq\n        /* \"#utility.yul\":4916:4979   */\n      tag_291\n      jumpi\n        /* \"#utility.yul\":4975:4976   */\n      0x00\n        /* \"#utility.yul\":4972:4973   */\n      dup1\n        /* \"#utility.yul\":4965:4977   */\n      revert\n        /* \"#utility.yul\":4916:4979   */\n    tag_291:\n        /* \"#utility.yul\":4863:4985   */\n      pop\n      jump\t// out\n        /* \"#utility.yul\":4991:5130   */\n    tag_184:\n        /* \"#utility.yul\":5037:5042   */\n      0x00\n        /* \"#utility.yul\":5075:5081   */\n      dup2\n        /* \"#utility.yul\":5062:5082   */\n      calldataload\n        /* \"#utility.yul\":5053:5082   */\n      swap1\n      pop\n        /* \"#utility.yul\":5091:5124   */\n      tag_293\n        /* \"#utility.yul\":5118:5123   */\n      dup2\n        /* \"#utility.yul\":5091:5124   */\n      tag_183\n      jump\t// in\n    tag_293:\n        /* \"#utility.yul\":4991:5130   */\n      swap3\n      swap2\n      pop\n      pop\n      jump\t// out\n        /* \"#utility.yul\":5136:5465   */\n    tag_40:\n        /* \"#utility.yul\":5195:5201   */\n      0x00\n        /* \"#utility.yul\":5244:5246   */\n      0x20\n        /* \"#utility.yul\":5232:5241   */\n      dup3\n        /* \"#utility.yul\":5223:5230   */\n      dup5\n        /* \"#utility.yul\":5219:5242   */\n      sub\n        /* \"#utility.yul\":5215:5247   */\n      slt\n        /* \"#utility.yul\":5212:5331   */\n      iszero\n      tag_295\n      jumpi\n        /* \"#utility.yul\":5250:5329   */\n      tag_296\n      tag_163\n      jump\t// in\n    tag_296:\n        /* \"#utility.yul\":5212:5331   */\n    tag_295:\n        /* \"#utility.yul\":5370:5371   */\n      0x00\n        /* \"#utility.yul\":5395:5448   */\n      tag_297\n        /* \"#utility.yul\":5440:5447   */\n      dup5\n        /* \"#utility.yul\":5431:5437   */\n      dup3\n        /* \"#utility.yul\":5420:5429   */\n      dup6\n        /* \"#utility.yul\":5416:5438   */\n      add\n        /* \"#utility.yul\":5395:5448   */\n      tag_184\n      jump\t// in\n    tag_297:\n        /* \"#utility.yul\":5385:5448   */\n      swap2\n      pop\n        /* \"#utility.yul\":5341:5458   */\n      pop\n        /* \"#utility.yul\":5136:5465   */\n      swap3\n      swap2\n      pop\n      pop\n      jump\t// out\n        /* \"#utility.yul\":5471:5595   */\n    tag_185:\n        /* \"#utility.yul\":5548:5554   */\n      0x00\n        /* \"#utility.yul\":5582:5587   */\n      dup2\n        /* \"#utility.yul\":5576:5588   */\n      mload\n        /* \"#utility.yul\":5566:5588   */\n      swap1\n      pop\n        /* \"#utility.yul\":5471:5595   */\n      swap2\n      swap1\n      pop\n      jump\t// out\n        /* \"#utility.yul\":5601:5795   */\n    tag_186:\n        /* \"#utility.yul\":5710:5721   */\n      0x00\n        /* \"#utility.yul\":5744:5750   */\n      dup3\n        /* \"#utility.yul\":5739:5742   */\n      dup3\n        /* \"#utility.yul\":5732:5751   */\n      mstore\n        /* \"#utility.yul\":5784:5788   */\n      0x20\n        /* \"#utility.yul\":5779:5782   */\n      dup3\n        /* \"#utility.yul\":5775:5789   */\n      add\n        /* \"#utility.yul\":5760:5789   */\n      swap1\n      pop\n        /* \"#utility.yul\":5601:5795   */\n      swap3\n      swap2\n      pop\n      pop\n      jump\t// out\n        /* \"#utility.yul\":5801:5943   */\n    tag_187:\n        /* \"#utility.yul\":5878:5882   */\n      0x00\n        /* \"#utility.yul\":5901:5904   */\n      dup2\n        /* \"#utility.yul\":5893:5904   */\n      swap1\n      pop\n        /* \"#utility.yul\":5931:5935   */\n      0x20\n        /* \"#utility.yul\":5926:5929   */\n      dup3\n        /* \"#utility.yul\":5922:5936   */\n      add\n        /* \"#utility.yul\":5914:5936   */\n      swap1\n      pop\n        /* \"#utility.yul\":5801:5943   */\n      swap2\n      swap1\n      pop\n      jump\t// out\n        /* \"#utility.yul\":5949:6048   */\n    tag_188:\n        /* \"#utility.yul\":6001:6007   */\n      0x00\n        /* \"#utility.yul\":6035:6040   */\n      dup2\n        /* \"#utility.yul\":6029:6041   */\n      mload\n        /* \"#utility.yul\":6019:6041   */\n      swap1\n      pop\n        /* \"#utility.yul\":5949:6048   */\n      swap2\n      swap1\n      pop\n      jump\t// out\n        /* \"#utility.yul\":6054:6213   */\n    tag_189:\n        /* \"#utility.yul\":6128:6139   */\n      0x00\n        /* \"#utility.yul\":6162:6168   */\n      dup3\n        /* \"#utility.yul\":6157:6160   */\n      dup3\n        /* \"#utility.yul\":6150:6169   */\n      mstore\n        /* \"#utility.yul\":6202:6206   */\n      0x20\n        /* \"#utility.yul\":6197:6200   */\n      dup3\n        /* \"#utility.yul\":6193:6207   */\n      add\n        /* \"#utility.yul\":6178:6207   */\n      swap1\n      pop\n        /* \"#utility.yul\":6054:6213   */\n      swap3\n      swap2\n      pop\n      pop\n      jump\t// out\n        /* \"#utility.yul\":6219:6465   */\n    tag_190:\n        /* \"#utility.yul\":6300:6301   */\n      0x00\n        /* \"#utility.yul\":6310:6423   */\n    tag_304:\n        /* \"#utility.yul\":6324:6330   */\n      dup4\n        /* \"#utility.yul\":6321:6322   */\n      dup2\n        /* \"#utility.yul\":6318:6331   */\n      lt\n        /* \"#utility.yul\":6310:6423   */\n      iszero\n      tag_306\n      jumpi\n        /* \"#utility.yul\":6409:6410   */\n      dup1\n        /* \"#utility.yul\":6404:6407   */\n      dup3\n        /* \"#utility.yul\":6400:6411   */\n      add\n        /* \"#utility.yul\":6394:6412   */\n      mload\n        /* \"#utility.yul\":6390:6391   */\n      dup2\n        /* \"#utility.yul\":6385:6388   */\n      dup5\n        /* \"#utility.yul\":6381:6392   */\n      add\n        /* \"#utility.yul\":6374:6413   */\n      mstore\n        /* \"#utility.yul\":6346:6348   */\n      0x20\n        /* \"#utility.yul\":6343:6344   */\n      dup2\n        /* \"#utility.yul\":6339:6349   */\n      add\n        /* \"#utility.yul\":6334:6349   */\n      swap1\n      pop\n        /* \"#utility.yul\":6310:6423   */\n      jump(tag_304)\n    tag_306:\n        /* \"#utility.yul\":6457:6458   */\n      0x00\n        /* \"#utility.yul\":6448:6454   */\n      dup5\n        /* \"#utility.yul\":6443:6446   */\n      dup5\n        /* \"#utility.yul\":6439:6455   */\n      add\n        /* \"#utility.yul\":6432:6459   */\n      mstore\n        /* \"#utility.yul\":6281:6465   */\n      pop\n        /* \"#utility.yul\":6219:6465   */\n      pop\n      pop\n      pop\n      jump\t// out\n        /* \"#utility.yul\":6471:6828   */\n    tag_191:\n        /* \"#utility.yul\":6549:6552   */\n      0x00\n        /* \"#utility.yul\":6577:6616   */\n      tag_308\n        /* \"#utility.yul\":6610:6615   */\n      dup3\n        /* \"#utility.yul\":6577:6616   */\n      tag_188\n      jump\t// in\n    tag_308:\n        /* \"#utility.yul\":6632:6693   */\n      tag_309\n        /* \"#utility.yul\":6686:6692   */\n      dup2\n        /* \"#utility.yul\":6681:6684   */\n      dup6\n        /* \"#utility.yul\":6632:6693   */\n      tag_189\n      jump\t// in\n    tag_309:\n        /* \"#utility.yul\":6625:6693   */\n      swap4\n      pop\n        /* \"#utility.yul\":6702:6767   */\n      tag_310\n        /* \"#utility.yul\":6760:6766   */\n      dup2\n        /* \"#utility.yul\":6755:6758   */\n      dup6\n        /* \"#utility.yul\":6748:6752   */\n      0x20\n        /* \"#utility.yul\":6741:6746   */\n      dup7\n        /* \"#utility.yul\":6737:6753   */\n      add\n        /* \"#utility.yul\":6702:6767   */\n      tag_190\n      jump\t// in\n    tag_310:\n        /* \"#utility.yul\":6792:6821   */\n      tag_311\n        /* \"#utility.yul\":6814:6820   */\n      dup2\n        /* \"#utility.yul\":6792:6821   */\n      tag_171\n      jump\t// in\n    tag_311:\n        /* \"#utility.yul\":6787:6790   */\n      dup5\n        /* \"#utility.yul\":6783:6822   */\n      add\n        /* \"#utility.yul\":6776:6822   */\n      swap2\n      pop\n        /* \"#utility.yul\":6553:6828   */\n      pop\n        /* \"#utility.yul\":6471:6828   */\n      swap3\n      swap2\n      pop\n      pop\n      jump\t// out\n        /* \"#utility.yul\":6834:7030   */\n    tag_192:\n        /* \"#utility.yul\":6923:6933   */\n      0x00\n        /* \"#utility.yul\":6958:7024   */\n      tag_313\n        /* \"#utility.yul\":7020:7023   */\n      dup4\n        /* \"#utility.yul\":7012:7018   */\n      dup4\n        /* \"#utility.yul\":6958:7024   */\n      tag_191\n      jump\t// in\n    tag_313:\n        /* \"#utility.yul\":6944:7024   */\n      swap1\n      pop\n        /* \"#utility.yul\":6834:7030   */\n      swap3\n      swap2\n      pop\n      pop\n      jump\t// out\n        /* \"#utility.yul\":7036:7159   */\n    tag_193:\n        /* \"#utility.yul\":7116:7120   */\n      0x00\n        /* \"#utility.yul\":7148:7152   */\n      0x20\n        /* \"#utility.yul\":7143:7146   */\n      dup3\n        /* \"#utility.yul\":7139:7153   */\n      add\n        /* \"#utility.yul\":7131:7153   */\n      swap1\n      pop\n        /* \"#utility.yul\":7036:7159   */\n      swap2\n      swap1\n      pop\n      jump\t// out\n        /* \"#utility.yul\":7193:8184   */\n    tag_194:\n        /* \"#utility.yul\":7332:7335   */\n      0x00\n        /* \"#utility.yul\":7361:7425   */\n      tag_316\n        /* \"#utility.yul\":7419:7424   */\n      dup3\n        /* \"#utility.yul\":7361:7425   */\n      tag_185\n      jump\t// in\n    tag_316:\n        /* \"#utility.yul\":7441:7537   */\n      tag_317\n        /* \"#utility.yul\":7530:7536   */\n      dup2\n        /* \"#utility.yul\":7525:7528   */\n      dup6\n        /* \"#utility.yul\":7441:7537   */\n      tag_186\n      jump\t// in\n    tag_317:\n        /* \"#utility.yul\":7434:7537   */\n      swap4\n      pop\n        /* \"#utility.yul\":7563:7566   */\n      dup4\n        /* \"#utility.yul\":7608:7612   */\n      0x20\n        /* \"#utility.yul\":7600:7606   */\n      dup3\n        /* \"#utility.yul\":7596:7613   */\n      mul\n        /* \"#utility.yul\":7591:7594   */\n      dup6\n        /* \"#utility.yul\":7587:7614   */\n      add\n        /* \"#utility.yul\":7638:7704   */\n      tag_318\n        /* \"#utility.yul\":7698:7703   */\n      dup6\n        /* \"#utility.yul\":7638:7704   */\n      tag_187\n      jump\t// in\n    tag_318:\n        /* \"#utility.yul\":7727:7734   */\n      dup1\n        /* \"#utility.yul\":7758:7759   */\n      0x00\n        /* \"#utility.yul\":7743:8139   */\n    tag_319:\n        /* \"#utility.yul\":7768:7774   */\n      dup6\n        /* \"#utility.yul\":7765:7766   */\n      dup2\n        /* \"#utility.yul\":7762:7775   */\n      lt\n        /* \"#utility.yul\":7743:8139   */\n      iszero\n      tag_321\n      jumpi\n        /* \"#utility.yul\":7839:7848   */\n      dup5\n        /* \"#utility.yul\":7833:7837   */\n      dup5\n        /* \"#utility.yul\":7829:7849   */\n      sub\n        /* \"#utility.yul\":7824:7827   */\n      dup10\n        /* \"#utility.yul\":7817:7850   */\n      mstore\n        /* \"#utility.yul\":7890:7896   */\n      dup2\n        /* \"#utility.yul\":7884:7897   */\n      mload\n        /* \"#utility.yul\":7918:8002   */\n      tag_322\n        /* \"#utility.yul\":7997:8001   */\n      dup6\n        /* \"#utility.yul\":7982:7995   */\n      dup3\n        /* \"#utility.yul\":7918:8002   */\n      tag_192\n      jump\t// in\n    tag_322:\n        /* \"#utility.yul\":7910:8002   */\n      swap5\n      pop\n        /* \"#utility.yul\":8025:8095   */\n      tag_323\n        /* \"#utility.yul\":8088:8094   */\n      dup4\n        /* \"#utility.yul\":8025:8095   */\n      tag_193\n      jump\t// in\n    tag_323:\n        /* \"#utility.yul\":8015:8095   */\n      swap3\n      pop\n        /* \"#utility.yul\":8124:8128   */\n      0x20\n        /* \"#utility.yul\":8119:8122   */\n      dup11\n        /* \"#utility.yul\":8115:8129   */\n      add\n        /* \"#utility.yul\":8108:8129   */\n      swap10\n      pop\n        /* \"#utility.yul\":7803:8139   */\n      pop\n        /* \"#utility.yul\":7790:7791   */\n      0x01\n        /* \"#utility.yul\":7787:7788   */\n      dup2\n        /* \"#utility.yul\":7783:7792   */\n      add\n        /* \"#utility.yul\":7778:7792   */\n      swap1\n      pop\n        /* \"#utility.yul\":7743:8139   */\n      jump(tag_319)\n    tag_321:\n        /* \"#utility.yul\":7747:7761   */\n      pop\n        /* \"#utility.yul\":8155:8159   */\n      dup3\n        /* \"#utility.yul\":8148:8159   */\n      swap8\n      pop\n        /* \"#utility.yul\":8175:8178   */\n      dup8\n        /* \"#utility.yul\":8168:8178   */\n      swap6\n      pop\n        /* \"#utility.yul\":7337:8184   */\n      pop\n      pop\n      pop\n      pop\n      pop\n        /* \"#utility.yul\":7193:8184   */\n      swap3\n      swap2\n      pop\n      pop\n      jump\t// out\n        /* \"#utility.yul\":8190:8603   */\n    tag_47:\n        /* \"#utility.yul\":8353:8357   */\n      0x00\n        /* \"#utility.yul\":8391:8393   */\n      0x20\n        /* \"#utility.yul\":8380:8389   */\n      dup3\n        /* \"#utility.yul\":8376:8394   */\n      add\n        /* \"#utility.yul\":8368:8394   */\n      swap1\n      pop\n        /* \"#utility.yul\":8440:8449   */\n      dup2\n        /* \"#utility.yul\":8434:8438   */\n      dup2\n        /* \"#utility.yul\":8430:8450   */\n      sub\n        /* \"#utility.yul\":8426:8427   */\n      0x00\n        /* \"#utility.yul\":8415:8424   */\n      dup4\n        /* \"#utility.yul\":8411:8428   */\n      add\n        /* \"#utility.yul\":8404:8451   */\n      mstore\n        /* \"#utility.yul\":8468:8596   */\n      tag_325\n        /* \"#utility.yul\":8591:8595   */\n      dup2\n        /* \"#utility.yul\":8582:8588   */\n      dup5\n        /* \"#utility.yul\":8468:8596   */\n      tag_194\n      jump\t// in\n    tag_325:\n        /* \"#utility.yul\":8460:8596   */\n      swap1\n      pop\n        /* \"#utility.yul\":8190:8603   */\n      swap3\n      swap2\n      pop\n      pop\n      jump\t// out\n        /* \"#utility.yul\":8609:8778   */\n    tag_195:\n        /* \"#utility.yul\":8693:8704   */\n      0x00\n        /* \"#utility.yul\":8727:8733   */\n      dup3\n        /* \"#utility.yul\":8722:8725   */\n      dup3\n        /* \"#utility.yul\":8715:8734   */\n      mstore\n        /* \"#utility.yul\":8767:8771   */\n      0x20\n        /* \"#utility.yul\":8762:8765   */\n      dup3\n        /* \"#utility.yul\":8758:8772   */\n      add\n        /* \"#utility.yul\":8743:8772   */\n      swap1\n      pop\n        /* \"#utility.yul\":8609:8778   */\n      swap3\n      swap2\n      pop\n      pop\n      jump\t// out\n        /* \"#utility.yul\":8784:9161   */\n    tag_196:\n        /* \"#utility.yul\":8872:8875   */\n      0x00\n        /* \"#utility.yul\":8900:8939   */\n      tag_328\n        /* \"#utility.yul\":8933:8938   */\n      dup3\n        /* \"#utility.yul\":8900:8939   */\n      tag_188\n      jump\t// in\n    tag_328:\n        /* \"#utility.yul\":8955:9026   */\n      tag_329\n        /* \"#utility.yul\":9019:9025   */\n      dup2\n        /* \"#utility.yul\":9014:9017   */\n      dup6\n        /* \"#utility.yul\":8955:9026   */\n      tag_195\n      jump\t// in\n    tag_329:\n        /* \"#utility.yul\":8948:9026   */\n      swap4\n      pop\n        /* \"#utility.yul\":9035:9100   */\n      tag_330\n        /* \"#utility.yul\":9093:9099   */\n      dup2\n        /* \"#utility.yul\":9088:9091   */\n      dup6\n        /* \"#utility.yul\":9081:9085   */\n      0x20\n        /* \"#utility.yul\":9074:9079   */\n      dup7\n        /* \"#utility.yul\":9070:9086   */\n      add\n        /* \"#utility.yul\":9035:9100   */\n      tag_190\n      jump\t// in\n    tag_330:\n        /* \"#utility.yul\":9125:9154   */\n      tag_331\n        /* \"#utility.yul\":9147:9153   */\n      dup2\n        /* \"#utility.yul\":9125:9154   */\n      tag_171\n      jump\t// in\n    tag_331:\n        /* \"#utility.yul\":9120:9123   */\n      dup5\n        /* \"#utility.yul\":9116:9155   */\n      add\n        /* \"#utility.yul\":9109:9155   */\n      swap2\n      pop\n        /* \"#utility.yul\":8876:9161   */\n      pop\n        /* \"#utility.yul\":8784:9161   */\n      swap3\n      swap2\n      pop\n      pop\n      jump\t// out\n        /* \"#utility.yul\":9167:9257   */\n    tag_197:\n        /* \"#utility.yul\":9201:9208   */\n      0x00\n        /* \"#utility.yul\":9244:9249   */\n      dup2\n        /* \"#utility.yul\":9237:9250   */\n      iszero\n        /* \"#utility.yul\":9230:9251   */\n      iszero\n        /* \"#utility.yul\":9219:9251   */\n      swap1\n      pop\n        /* \"#utility.yul\":9167:9257   */\n      swap2\n      swap1\n      pop\n      jump\t// out\n        /* \"#utility.yul\":9263:9372   */\n    tag_198:\n        /* \"#utility.yul\":9344:9365   */\n      tag_334\n        /* \"#utility.yul\":9359:9364   */\n      dup2\n        /* \"#utility.yul\":9344:9365   */\n      tag_197\n      jump\t// in\n    tag_334:\n        /* \"#utility.yul\":9339:9342   */\n      dup3\n        /* \"#utility.yul\":9332:9366   */\n      mstore\n        /* \"#utility.yul\":9263:9372   */\n      pop\n      pop\n      jump\t// out\n        /* \"#utility.yul\":9378:9899   */\n    tag_57:\n        /* \"#utility.yul\":9541:9545   */\n      0x00\n        /* \"#utility.yul\":9579:9581   */\n      0x60\n        /* \"#utility.yul\":9568:9577   */\n      dup3\n        /* \"#utility.yul\":9564:9582   */\n      add\n        /* \"#utility.yul\":9556:9582   */\n      swap1\n      pop\n        /* \"#utility.yul\":9628:9637   */\n      dup2\n        /* \"#utility.yul\":9622:9626   */\n      dup2\n        /* \"#utility.yul\":9618:9638   */\n      sub\n        /* \"#utility.yul\":9614:9615   */\n      0x00\n        /* \"#utility.yul\":9603:9612   */\n      dup4\n        /* \"#utility.yul\":9599:9616   */\n      add\n        /* \"#utility.yul\":9592:9639   */\n      mstore\n        /* \"#utility.yul\":9656:9734   */\n      tag_336\n        /* \"#utility.yul\":9729:9733   */\n      dup2\n        /* \"#utility.yul\":9720:9726   */\n      dup7\n        /* \"#utility.yul\":9656:9734   */\n      tag_196\n      jump\t// in\n    tag_336:\n        /* \"#utility.yul\":9648:9734   */\n      swap1\n      pop\n        /* \"#utility.yul\":9744:9816   */\n      tag_337\n        /* \"#utility.yul\":9812:9814   */\n      0x20\n        /* \"#utility.yul\":9801:9810   */\n      dup4\n        /* \"#utility.yul\":9797:9815   */\n      add\n        /* \"#utility.yul\":9788:9794   */\n      dup6\n        /* \"#utility.yul\":9744:9816   */\n      tag_168\n      jump\t// in\n    tag_337:\n        /* \"#utility.yul\":9826:9892   */\n      tag_338\n        /* \"#utility.yul\":9888:9890   */\n      0x40\n        /* \"#utility.yul\":9877:9886   */\n      dup4\n        /* \"#utility.yul\":9873:9891   */\n      add\n        /* \"#utility.yul\":9864:9870   */\n      dup5\n        /* \"#utility.yul\":9826:9892   */\n      tag_198\n      jump\t// in\n    tag_338:\n        /* \"#utility.yul\":9378:9899   */\n      swap5\n      swap4\n      pop\n      pop\n      pop\n      pop\n      jump\t// out\n        /* \"#utility.yul\":9905:10559   */\n    tag_65:\n        /* \"#utility.yul\":9983:9989   */\n      0x00\n        /* \"#utility.yul\":9991:9997   */\n      dup1\n        /* \"#utility.yul\":10040:10042   */\n      0x40\n        /* \"#utility.yul\":10028:10037   */\n      dup4\n        /* \"#utility.yul\":10019:10026   */\n      dup6\n        /* \"#utility.yul\":10015:10038   */\n      sub\n        /* \"#utility.yul\":10011:10043   */\n      slt\n        /* \"#utility.yul\":10008:10127   */\n      iszero\n      tag_340\n      jumpi\n        /* \"#utility.yul\":10046:10125   */\n      tag_341\n      tag_163\n      jump\t// in\n    tag_341:\n        /* \"#utility.yul\":10008:10127   */\n    tag_340:\n        /* \"#utility.yul\":10194:10195   */\n      0x00\n        /* \"#utility.yul\":10183:10192   */\n      dup4\n        /* \"#utility.yul\":10179:10196   */\n      add\n        /* \"#utility.yul\":10166:10197   */\n      calldataload\n        /* \"#utility.yul\":10224:10242   */\n      0xffffffffffffffff\n        /* \"#utility.yul\":10216:10222   */\n      dup2\n        /* \"#utility.yul\":10213:10243   */\n      gt\n        /* \"#utility.yul\":10210:10327   */\n      iszero\n      tag_342\n      jumpi\n        /* \"#utility.yul\":10246:10325   */\n      tag_343\n      tag_164\n      jump\t// in\n    tag_343:\n        /* \"#utility.yul\":10210:10327   */\n    tag_342:\n        /* \"#utility.yul\":10351:10414   */\n      tag_344\n        /* \"#utility.yul\":10406:10413   */\n      dup6\n        /* \"#utility.yul\":10397:10403   */\n      dup3\n        /* \"#utility.yul\":10386:10395   */\n      dup7\n        /* \"#utility.yul\":10382:10404   */\n      add\n        /* \"#utility.yul\":10351:10414   */\n      tag_178\n      jump\t// in\n    tag_344:\n        /* \"#utility.yul\":10341:10414   */\n      swap3\n      pop\n        /* \"#utility.yul\":10137:10424   */\n      pop\n        /* \"#utility.yul\":10463:10465   */\n      0x20\n        /* \"#utility.yul\":10489:10542   */\n      tag_345\n        /* \"#utility.yul\":10534:10541   */\n      dup6\n        /* \"#utility.yul\":10525:10531   */\n      dup3\n        /* \"#utility.yul\":10514:10523   */\n      dup7\n        /* \"#utility.yul\":10510:10532   */\n      add\n        /* \"#utility.yul\":10489:10542   */\n      tag_167\n      jump\t// in\n    tag_345:\n        /* \"#utility.yul\":10479:10542   */\n      swap2\n      pop\n        /* \"#utility.yul\":10434:10552   */\n      pop\n        /* \"#utility.yul\":9905:10559   */\n      swap3\n      pop\n      swap3\n      swap1\n      pop\n      jump\t// out\n        /* \"#utility.yul\":10565:10734   */\n    tag_199:\n        /* \"#utility.yul\":10705:10726   */\n      0x496e73756666696369656e7420616d6f756e7400000000000000000000000000\n        /* \"#utility.yul\":10701:10702   */\n      0x00\n        /* \"#utility.yul\":10693:10699   */\n      dup3\n        /* \"#utility.yul\":10689:10703   */\n      add\n        /* \"#utility.yul\":10682:10727   */\n      mstore\n        /* \"#utility.yul\":10565:10734   */\n      pop\n      jump\t// out\n        /* \"#utility.yul\":10740:11106   */\n    tag_200:\n        /* \"#utility.yul\":10882:10885   */\n      0x00\n        /* \"#utility.yul\":10903:10970   */\n      tag_348\n        /* \"#utility.yul\":10967:10969   */\n      0x13\n        /* \"#utility.yul\":10962:10965   */\n      dup4\n        /* \"#utility.yul\":10903:10970   */\n      tag_195\n      jump\t// in\n    tag_348:\n        /* \"#utility.yul\":10896:10970   */\n      swap2\n      pop\n        /* \"#utility.yul\":10979:11072   */\n      tag_349\n        /* \"#utility.yul\":11068:11071   */\n      dup3\n        /* \"#utility.yul\":10979:11072   */\n      tag_199\n      jump\t// in\n    tag_349:\n        /* \"#utility.yul\":11097:11099   */\n      0x20\n        /* \"#utility.yul\":11092:11095   */\n      dup3\n        /* \"#utility.yul\":11088:11100   */\n      add\n        /* \"#utility.yul\":11081:11100   */\n      swap1\n      pop\n        /* \"#utility.yul\":10740:11106   */\n      swap2\n      swap1\n      pop\n      jump\t// out\n        /* \"#utility.yul\":11112:11531   */\n    tag_72:\n        /* \"#utility.yul\":11278:11282   */\n      0x00\n        /* \"#utility.yul\":11316:11318   */\n      0x20\n        /* \"#utility.yul\":11305:11314   */\n      dup3\n        /* \"#utility.yul\":11301:11319   */\n      add\n        /* \"#utility.yul\":11293:11319   */\n      swap1\n      pop\n        /* \"#utility.yul\":11365:11374   */\n      dup2\n        /* \"#utility.yul\":11359:11363   */\n      dup2\n        /* \"#utility.yul\":11355:11375   */\n      sub\n        /* \"#utility.yul\":11351:11352   */\n      0x00\n        /* \"#utility.yul\":11340:11349   */\n      dup4\n        /* \"#utility.yul\":11336:11353   */\n      add\n        /* \"#utility.yul\":11329:11376   */\n      mstore\n        /* \"#utility.yul\":11393:11524   */\n      tag_351\n        /* \"#utility.yul\":11519:11523   */\n      dup2\n        /* \"#utility.yul\":11393:11524   */\n      tag_200\n      jump\t// in\n    tag_351:\n        /* \"#utility.yul\":11385:11524   */\n      swap1\n      pop\n        /* \"#utility.yul\":11112:11531   */\n      swap2\n      swap1\n      pop\n      jump\t// out\n        /* \"#utility.yul\":11537:11717   */\n    tag_201:\n        /* \"#utility.yul\":11585:11662   */\n      0x4e487b7100000000000000000000000000000000000000000000000000000000\n        /* \"#utility.yul\":11582:11583   */\n      0x00\n        /* \"#utility.yul\":11575:11663   */\n      mstore\n        /* \"#utility.yul\":11682:11686   */\n      0x11\n        /* \"#utility.yul\":11679:11680   */\n      0x04\n        /* \"#utility.yul\":11672:11687   */\n      mstore\n        /* \"#utility.yul\":11706:11710   */\n      0x24\n        /* \"#utility.yul\":11703:11704   */\n      0x00\n        /* \"#utility.yul\":11696:11711   */\n      revert\n        /* \"#utility.yul\":11723:11917   */\n    tag_74:\n        /* \"#utility.yul\":11763:11767   */\n      0x00\n        /* \"#utility.yul\":11783:11803   */\n      tag_354\n        /* \"#utility.yul\":11801:11802   */\n      dup3\n        /* \"#utility.yul\":11783:11803   */\n      tag_165\n      jump\t// in\n    tag_354:\n        /* \"#utility.yul\":11778:11803   */\n      swap2\n      pop\n        /* \"#utility.yul\":11817:11837   */\n      tag_355\n        /* \"#utility.yul\":11835:11836   */\n      dup4\n        /* \"#utility.yul\":11817:11837   */\n      tag_165\n      jump\t// in\n    tag_355:\n        /* \"#utility.yul\":11812:11837   */\n      swap3\n      pop\n        /* \"#utility.yul\":11861:11862   */\n      dup3\n        /* \"#utility.yul\":11858:11859   */\n      dup3\n        /* \"#utility.yul\":11854:11863   */\n      sub\n        /* \"#utility.yul\":11846:11863   */\n      swap1\n      pop\n        /* \"#utility.yul\":11885:11886   */\n      dup2\n        /* \"#utility.yul\":11879:11883   */\n      dup2\n        /* \"#utility.yul\":11876:11887   */\n      gt\n        /* \"#utility.yul\":11873:11910   */\n      iszero\n      tag_356\n      jumpi\n        /* \"#utility.yul\":11890:11908   */\n      tag_357\n      tag_201\n      jump\t// in\n    tag_357:\n        /* \"#utility.yul\":11873:11910   */\n    tag_356:\n        /* \"#utility.yul\":11723:11917   */\n      swap3\n      swap2\n      pop\n      pop\n      jump\t// out\n        /* \"#utility.yul\":11923:12091   */\n    tag_202:\n        /* \"#utility.yul\":12063:12083   */\n      0x5472616e73616374696f6e206661696c65640000000000000000000000000000\n        /* \"#utility.yul\":12059:12060   */\n      0x00\n        /* \"#utility.yul\":12051:12057   */\n      dup3\n        /* \"#utility.yul\":12047:12061   */\n      add\n        /* \"#utility.yul\":12040:12084   */\n      mstore\n        /* \"#utility.yul\":11923:12091   */\n      pop\n      jump\t// out\n        /* \"#utility.yul\":12097:12463   */\n    tag_203:\n        /* \"#utility.yul\":12239:12242   */\n      0x00\n        /* \"#utility.yul\":12260:12327   */\n      tag_360\n        /* \"#utility.yul\":12324:12326   */\n      0x12\n        /* \"#utility.yul\":12319:12322   */\n      dup4\n        /* \"#utility.yul\":12260:12327   */\n      tag_195\n      jump\t// in\n    tag_360:\n        /* \"#utility.yul\":12253:12327   */\n      swap2\n      pop\n        /* \"#utility.yul\":12336:12429   */\n      tag_361\n        /* \"#utility.yul\":12425:12428   */\n      dup3\n        /* \"#utility.yul\":12336:12429   */\n      tag_202\n      jump\t// in\n    tag_361:\n        /* \"#utility.yul\":12454:12456   */\n      0x20\n        /* \"#utility.yul\":12449:12452   */\n      dup3\n        /* \"#utility.yul\":12445:12457   */\n      add\n        /* \"#utility.yul\":12438:12457   */\n      swap1\n      pop\n        /* \"#utility.yul\":12097:12463   */\n      swap2\n      swap1\n      pop\n      jump\t// out\n        /* \"#utility.yul\":12469:12888   */\n    tag_80:\n        /* \"#utility.yul\":12635:12639   */\n      0x00\n        /* \"#utility.yul\":12673:12675   */\n      0x20\n        /* \"#utility.yul\":12662:12671   */\n      dup3\n        /* \"#utility.yul\":12658:12676   */\n      add\n        /* \"#utility.yul\":12650:12676   */\n      swap1\n      pop\n        /* \"#utility.yul\":12722:12731   */\n      dup2\n        /* \"#utility.yul\":12716:12720   */\n      dup2\n        /* \"#utility.yul\":12712:12732   */\n      sub\n        /* \"#utility.yul\":12708:12709   */\n      0x00\n        /* \"#utility.yul\":12697:12706   */\n      dup4\n        /* \"#utility.yul\":12693:12710   */\n      add\n        /* \"#utility.yul\":12686:12733   */\n      mstore\n        /* \"#utility.yul\":12750:12881   */\n      tag_363\n        /* \"#utility.yul\":12876:12880   */\n      dup2\n        /* \"#utility.yul\":12750:12881   */\n      tag_203\n      jump\t// in\n    tag_363:\n        /* \"#utility.yul\":12742:12881   */\n      swap1\n      pop\n        /* \"#utility.yul\":12469:12888   */\n      swap2\n      swap1\n      pop\n      jump\t// out\n        /* \"#utility.yul\":12894:13012   */\n    tag_204:\n        /* \"#utility.yul\":12981:13005   */\n      tag_365\n        /* \"#utility.yul\":12999:13004   */\n      dup2\n        /* \"#utility.yul\":12981:13005   */\n      tag_182\n      jump\t// in\n    tag_365:\n        /* \"#utility.yul\":12976:12979   */\n      dup3\n        /* \"#utility.yul\":12969:13006   */\n      mstore\n        /* \"#utility.yul\":12894:13012   */\n      pop\n      pop\n      jump\t// out\n        /* \"#utility.yul\":13018:13350   */\n    tag_82:\n        /* \"#utility.yul\":13139:13143   */\n      0x00\n        /* \"#utility.yul\":13177:13179   */\n      0x40\n        /* \"#utility.yul\":13166:13175   */\n      dup3\n        /* \"#utility.yul\":13162:13180   */\n      add\n        /* \"#utility.yul\":13154:13180   */\n      swap1\n      pop\n        /* \"#utility.yul\":13190:13261   */\n      tag_367\n        /* \"#utility.yul\":13258:13259   */\n      0x00\n        /* \"#utility.yul\":13247:13256   */\n      dup4\n        /* \"#utility.yul\":13243:13260   */\n      add\n        /* \"#utility.yul\":13234:13240   */\n      dup6\n        /* \"#utility.yul\":13190:13261   */\n      tag_204\n      jump\t// in\n    tag_367:\n        /* \"#utility.yul\":13271:13343   */\n      tag_368\n        /* \"#utility.yul\":13339:13341   */\n      0x20\n        /* \"#utility.yul\":13328:13337   */\n      dup4\n        /* \"#utility.yul\":13324:13342   */\n      add\n        /* \"#utility.yul\":13315:13321   */\n      dup5\n        /* \"#utility.yul\":13271:13343   */\n      tag_168\n      jump\t// in\n    tag_368:\n        /* \"#utility.yul\":13018:13350   */\n      swap4\n      swap3\n      pop\n      pop\n      pop\n      jump\t// out\n        /* \"#utility.yul\":13356:13472   */\n    tag_205:\n        /* \"#utility.yul\":13426:13447   */\n      tag_370\n        /* \"#utility.yul\":13441:13446   */\n      dup2\n        /* \"#utility.yul\":13426:13447   */\n      tag_197\n      jump\t// in\n    tag_370:\n        /* \"#utility.yul\":13419:13424   */\n      dup2\n        /* \"#utility.yul\":13416:13448   */\n      eq\n        /* \"#utility.yul\":13406:13466   */\n      tag_371\n      jumpi\n        /* \"#utility.yul\":13462:13463   */\n      0x00\n        /* \"#utility.yul\":13459:13460   */\n      dup1\n        /* \"#utility.yul\":13452:13464   */\n      revert\n        /* \"#utility.yul\":13406:13466   */\n    tag_371:\n        /* \"#utility.yul\":13356:13472   */\n      pop\n      jump\t// out\n        /* \"#utility.yul\":13478:13615   */\n    tag_206:\n        /* \"#utility.yul\":13532:13537   */\n      0x00\n        /* \"#utility.yul\":13563:13569   */\n      dup2\n        /* \"#utility.yul\":13557:13570   */\n      mload\n        /* \"#utility.yul\":13548:13570   */\n      swap1\n      pop\n        /* \"#utility.yul\":13579:13609   */\n      tag_373\n        /* \"#utility.yul\":13603:13608   */\n      dup2\n        /* \"#utility.yul\":13579:13609   */\n      tag_205\n      jump\t// in\n    tag_373:\n        /* \"#utility.yul\":13478:13615   */\n      swap3\n      swap2\n      pop\n      pop\n      jump\t// out\n        /* \"#utility.yul\":13621:13966   */\n    tag_86:\n        /* \"#utility.yul\":13688:13694   */\n      0x00\n        /* \"#utility.yul\":13737:13739   */\n      0x20\n        /* \"#utility.yul\":13725:13734   */\n      dup3\n        /* \"#utility.yul\":13716:13723   */\n      dup5\n        /* \"#utility.yul\":13712:13735   */\n      sub\n        /* \"#utility.yul\":13708:13740   */\n      slt\n        /* \"#utility.yul\":13705:13824   */\n      iszero\n      tag_375\n      jumpi\n        /* \"#utility.yul\":13743:13822   */\n      tag_376\n      tag_163\n      jump\t// in\n    tag_376:\n        /* \"#utility.yul\":13705:13824   */\n    tag_375:\n        /* \"#utility.yul\":13863:13864   */\n      0x00\n        /* \"#utility.yul\":13888:13949   */\n      tag_377\n        /* \"#utility.yul\":13941:13948   */\n      dup5\n        /* \"#utility.yul\":13932:13938   */\n      dup3\n        /* \"#utility.yul\":13921:13930   */\n      dup6\n        /* \"#utility.yul\":13917:13939   */\n      add\n        /* \"#utility.yul\":13888:13949   */\n      tag_206\n      jump\t// in\n    tag_377:\n        /* \"#utility.yul\":13878:13949   */\n      swap2\n      pop\n        /* \"#utility.yul\":13834:13959   */\n      pop\n        /* \"#utility.yul\":13621:13966   */\n      swap3\n      swap2\n      pop\n      pop\n      jump\t// out\n        /* \"#utility.yul\":13972:14163   */\n    tag_88:\n        /* \"#utility.yul\":14012:14015   */\n      0x00\n        /* \"#utility.yul\":14031:14051   */\n      tag_379\n        /* \"#utility.yul\":14049:14050   */\n      dup3\n        /* \"#utility.yul\":14031:14051   */\n      tag_165\n      jump\t// in\n    tag_379:\n        /* \"#utility.yul\":14026:14051   */\n      swap2\n      pop\n        /* \"#utility.yul\":14065:14085   */\n      tag_380\n        /* \"#utility.yul\":14083:14084   */\n      dup4\n        /* \"#utility.yul\":14065:14085   */\n      tag_165\n      jump\t// in\n    tag_380:\n        /* \"#utility.yul\":14060:14085   */\n      swap3\n      pop\n        /* \"#utility.yul\":14108:14109   */\n      dup3\n        /* \"#utility.yul\":14105:14106   */\n      dup3\n        /* \"#utility.yul\":14101:14110   */\n      add\n        /* \"#utility.yul\":14094:14110   */\n      swap1\n      pop\n        /* \"#utility.yul\":14129:14132   */\n      dup1\n        /* \"#utility.yul\":14126:14127   */\n      dup3\n        /* \"#utility.yul\":14123:14133   */\n      gt\n        /* \"#utility.yul\":14120:14156   */\n      iszero\n      tag_381\n      jumpi\n        /* \"#utility.yul\":14136:14154   */\n      tag_382\n      tag_201\n      jump\t// in\n    tag_382:\n        /* \"#utility.yul\":14120:14156   */\n    tag_381:\n        /* \"#utility.yul\":13972:14163   */\n      swap3\n      swap2\n      pop\n      pop\n      jump\t// out\n        /* \"#utility.yul\":14169:14391   */\n    tag_91:\n        /* \"#utility.yul\":14262:14266   */\n      0x00\n        /* \"#utility.yul\":14300:14302   */\n      0x20\n        /* \"#utility.yul\":14289:14298   */\n      dup3\n        /* \"#utility.yul\":14285:14303   */\n      add\n        /* \"#utility.yul\":14277:14303   */\n      swap1\n      pop\n        /* \"#utility.yul\":14313:14384   */\n      tag_384\n        /* \"#utility.yul\":14381:14382   */\n      0x00\n        /* \"#utility.yul\":14370:14379   */\n      dup4\n        /* \"#utility.yul\":14366:14383   */\n      add\n        /* \"#utility.yul\":14357:14363   */\n      dup5\n        /* \"#utility.yul\":14313:14384   */\n      tag_204\n      jump\t// in\n    tag_384:\n        /* \"#utility.yul\":14169:14391   */\n      swap3\n      swap2\n      pop\n      pop\n      jump\t// out\n        /* \"#utility.yul\":14397:14540   */\n    tag_207:\n        /* \"#utility.yul\":14454:14459   */\n      0x00\n        /* \"#utility.yul\":14485:14491   */\n      dup2\n        /* \"#utility.yul\":14479:14492   */\n      mload\n        /* \"#utility.yul\":14470:14492   */\n      swap1\n      pop\n        /* \"#utility.yul\":14501:14534   */\n      tag_386\n        /* \"#utility.yul\":14528:14533   */\n      dup2\n        /* \"#utility.yul\":14501:14534   */\n      tag_166\n      jump\t// in\n    tag_386:\n        /* \"#utility.yul\":14397:14540   */\n      swap3\n      swap2\n      pop\n      pop\n      jump\t// out\n        /* \"#utility.yul\":14546:14897   */\n    tag_95:\n        /* \"#utility.yul\":14616:14622   */\n      0x00\n        /* \"#utility.yul\":14665:14667   */\n      0x20\n        /* \"#utility.yul\":14653:14662   */\n      dup3\n        /* \"#utility.yul\":14644:14651   */\n      dup5\n        /* \"#utility.yul\":14640:14663   */\n      sub\n        /* \"#utility.yul\":14636:14668   */\n      slt\n        /* \"#utility.yul\":14633:14752   */\n      iszero\n      tag_388\n      jumpi\n        /* \"#utility.yul\":14671:14750   */\n      tag_389\n      tag_163\n      jump\t// in\n    tag_389:\n        /* \"#utility.yul\":14633:14752   */\n    tag_388:\n        /* \"#utility.yul\":14791:14792   */\n      0x00\n        /* \"#utility.yul\":14816:14880   */\n      tag_390\n        /* \"#utility.yul\":14872:14879   */\n      dup5\n        /* \"#utility.yul\":14863:14869   */\n      dup3\n        /* \"#utility.yul\":14852:14861   */\n      dup6\n        /* \"#utility.yul\":14848:14870   */\n      add\n        /* \"#utility.yul\":14816:14880   */\n      tag_207\n      jump\t// in\n    tag_390:\n        /* \"#utility.yul\":14806:14880   */\n      swap2\n      pop\n        /* \"#utility.yul\":14762:14890   */\n      pop\n        /* \"#utility.yul\":14546:14897   */\n      swap3\n      swap2\n      pop\n      pop\n      jump\t// out\n        /* \"#utility.yul\":14903:15051   */\n    tag_208:\n        /* \"#utility.yul\":15005:15016   */\n      0x00\n        /* \"#utility.yul\":15042:15045   */\n      dup2\n        /* \"#utility.yul\":15027:15045   */\n      swap1\n      pop\n        /* \"#utility.yul\":14903:15051   */\n      swap3\n      swap2\n      pop\n      pop\n      jump\t// out\n        /* \"#utility.yul\":15057:15447   */\n    tag_209:\n        /* \"#utility.yul\":15163:15166   */\n      0x00\n        /* \"#utility.yul\":15191:15230   */\n      tag_393\n        /* \"#utility.yul\":15224:15229   */\n      dup3\n        /* \"#utility.yul\":15191:15230   */\n      tag_188\n      jump\t// in\n    tag_393:\n        /* \"#utility.yul\":15246:15335   */\n      tag_394\n        /* \"#utility.yul\":15328:15334   */\n      dup2\n        /* \"#utility.yul\":15323:15326   */\n      dup6\n        /* \"#utility.yul\":15246:15335   */\n      tag_208\n      jump\t// in\n    tag_394:\n        /* \"#utility.yul\":15239:15335   */\n      swap4\n      pop\n        /* \"#utility.yul\":15344:15409   */\n      tag_395\n        /* \"#utility.yul\":15402:15408   */\n      dup2\n        /* \"#utility.yul\":15397:15400   */\n      dup6\n        /* \"#utility.yul\":15390:15394   */\n      0x20\n        /* \"#utility.yul\":15383:15388   */\n      dup7\n        /* \"#utility.yul\":15379:15395   */\n      add\n        /* \"#utility.yul\":15344:15409   */\n      tag_190\n      jump\t// in\n    tag_395:\n        /* \"#utility.yul\":15434:15440   */\n      dup1\n        /* \"#utility.yul\":15429:15432   */\n      dup5\n        /* \"#utility.yul\":15425:15441   */\n      add\n        /* \"#utility.yul\":15418:15441   */\n      swap2\n      pop\n        /* \"#utility.yul\":15167:15447   */\n      pop\n        /* \"#utility.yul\":15057:15447   */\n      swap3\n      swap2\n      pop\n      pop\n      jump\t// out\n        /* \"#utility.yul\":15453:15728   */\n    tag_100:\n        /* \"#utility.yul\":15585:15588   */\n      0x00\n        /* \"#utility.yul\":15607:15702   */\n      tag_397\n        /* \"#utility.yul\":15698:15701   */\n      dup3\n        /* \"#utility.yul\":15689:15695   */\n      dup5\n        /* \"#utility.yul\":15607:15702   */\n      tag_209\n      jump\t// in\n    tag_397:\n        /* \"#utility.yul\":15600:15702   */\n      swap2\n      pop\n        /* \"#utility.yul\":15719:15722   */\n      dup2\n        /* \"#utility.yul\":15712:15722   */\n      swap1\n      pop\n        /* \"#utility.yul\":15453:15728   */\n      swap3\n      swap2\n      pop\n      pop\n      jump\t// out\n        /* \"#utility.yul\":15734:16047   */\n    tag_102:\n        /* \"#utility.yul\":15847:15851   */\n      0x00\n        /* \"#utility.yul\":15885:15887   */\n      0x20\n        /* \"#utility.yul\":15874:15883   */\n      dup3\n        /* \"#utility.yul\":15870:15888   */\n      add\n        /* \"#utility.yul\":15862:15888   */\n      swap1\n      pop\n        /* \"#utility.yul\":15934:15943   */\n      dup2\n        /* \"#utility.yul\":15928:15932   */\n      dup2\n        /* \"#utility.yul\":15924:15944   */\n      sub\n        /* \"#utility.yul\":15920:15921   */\n      0x00\n        /* \"#utility.yul\":15909:15918   */\n      dup4\n        /* \"#utility.yul\":15905:15922   */\n      add\n        /* \"#utility.yul\":15898:15945   */\n      mstore\n        /* \"#utility.yul\":15962:16040   */\n      tag_399\n        /* \"#utility.yul\":16035:16039   */\n      dup2\n        /* \"#utility.yul\":16026:16032   */\n      dup5\n        /* \"#utility.yul\":15962:16040   */\n      tag_196\n      jump\t// in\n    tag_399:\n        /* \"#utility.yul\":15954:16040   */\n      swap1\n      pop\n        /* \"#utility.yul\":15734:16047   */\n      swap3\n      swap2\n      pop\n      pop\n      jump\t// out\n        /* \"#utility.yul\":16053:16233   */\n    tag_210:\n        /* \"#utility.yul\":16101:16178   */\n      0x4e487b7100000000000000000000000000000000000000000000000000000000\n        /* \"#utility.yul\":16098:16099   */\n      0x00\n        /* \"#utility.yul\":16091:16179   */\n      mstore\n        /* \"#utility.yul\":16198:16202   */\n      0x22\n        /* \"#utility.yul\":16195:16196   */\n      0x04\n        /* \"#utility.yul\":16188:16203   */\n      mstore\n        /* \"#utility.yul\":16222:16226   */\n      0x24\n        /* \"#utility.yul\":16219:16220   */\n      0x00\n        /* \"#utility.yul\":16212:16227   */\n      revert\n        /* \"#utility.yul\":16239:16559   */\n    tag_115:\n        /* \"#utility.yul\":16283:16289   */\n      0x00\n        /* \"#utility.yul\":16320:16321   */\n      0x02\n        /* \"#utility.yul\":16314:16318   */\n      dup3\n        /* \"#utility.yul\":16310:16322   */\n      div\n        /* \"#utility.yul\":16300:16322   */\n      swap1\n      pop\n        /* \"#utility.yul\":16367:16368   */\n      0x01\n        /* \"#utility.yul\":16361:16365   */\n      dup3\n        /* \"#utility.yul\":16357:16369   */\n      and\n        /* \"#utility.yul\":16388:16406   */\n      dup1\n        /* \"#utility.yul\":16378:16459   */\n      tag_402\n      jumpi\n        /* \"#utility.yul\":16444:16448   */\n      0x7f\n        /* \"#utility.yul\":16436:16442   */\n      dup3\n        /* \"#utility.yul\":16432:16449   */\n      and\n        /* \"#utility.yul\":16422:16449   */\n      swap2\n      pop\n        /* \"#utility.yul\":16378:16459   */\n    tag_402:\n        /* \"#utility.yul\":16506:16508   */\n      0x20\n        /* \"#utility.yul\":16498:16504   */\n      dup3\n        /* \"#utility.yul\":16495:16509   */\n      lt\n        /* \"#utility.yul\":16475:16493   */\n      dup2\n        /* \"#utility.yul\":16472:16510   */\n      sub\n        /* \"#utility.yul\":16469:16553   */\n      tag_403\n      jumpi\n        /* \"#utility.yul\":16525:16543   */\n      tag_404\n      tag_210\n      jump\t// in\n    tag_404:\n        /* \"#utility.yul\":16469:16553   */\n    tag_403:\n        /* \"#utility.yul\":16290:16559   */\n      pop\n        /* \"#utility.yul\":16239:16559   */\n      swap2\n      swap1\n      pop\n      jump\t// out\n        /* \"#utility.yul\":16565:16731   */\n    tag_211:\n        /* \"#utility.yul\":16705:16723   */\n      0x41747472616374696f6e20436c6f736500000000000000000000000000000000\n        /* \"#utility.yul\":16701:16702   */\n      0x00\n        /* \"#utility.yul\":16693:16699   */\n      dup3\n        /* \"#utility.yul\":16689:16703   */\n      add\n        /* \"#utility.yul\":16682:16724   */\n      mstore\n        /* \"#utility.yul\":16565:16731   */\n      pop\n      jump\t// out\n        /* \"#utility.yul\":16737:17103   */\n    tag_212:\n        /* \"#utility.yul\":16879:16882   */\n      0x00\n        /* \"#utility.yul\":16900:16967   */\n      tag_407\n        /* \"#utility.yul\":16964:16966   */\n      0x10\n        /* \"#utility.yul\":16959:16962   */\n      dup4\n        /* \"#utility.yul\":16900:16967   */\n      tag_195\n      jump\t// in\n    tag_407:\n        /* \"#utility.yul\":16893:16967   */\n      swap2\n      pop\n        /* \"#utility.yul\":16976:17069   */\n      tag_408\n        /* \"#utility.yul\":17065:17068   */\n      dup3\n        /* \"#utility.yul\":16976:17069   */\n      tag_211\n      jump\t// in\n    tag_408:\n        /* \"#utility.yul\":17094:17096   */\n      0x20\n        /* \"#utility.yul\":17089:17092   */\n      dup3\n        /* \"#utility.yul\":17085:17097   */\n      add\n        /* \"#utility.yul\":17078:17097   */\n      swap1\n      pop\n        /* \"#utility.yul\":16737:17103   */\n      swap2\n      swap1\n      pop\n      jump\t// out\n        /* \"#utility.yul\":17109:17528   */\n    tag_134:\n        /* \"#utility.yul\":17275:17279   */\n      0x00\n        /* \"#utility.yul\":17313:17315   */\n      0x20\n        /* \"#utility.yul\":17302:17311   */\n      dup3\n        /* \"#utility.yul\":17298:17316   */\n      add\n        /* \"#utility.yul\":17290:17316   */\n      swap1\n      pop\n        /* \"#utility.yul\":17362:17371   */\n      dup2\n        /* \"#utility.yul\":17356:17360   */\n      dup2\n        /* \"#utility.yul\":17352:17372   */\n      sub\n        /* \"#utility.yul\":17348:17349   */\n      0x00\n        /* \"#utility.yul\":17337:17346   */\n      dup4\n        /* \"#utility.yul\":17333:17350   */\n      add\n        /* \"#utility.yul\":17326:17373   */\n      mstore\n        /* \"#utility.yul\":17390:17521   */\n      tag_410\n        /* \"#utility.yul\":17516:17520   */\n      dup2\n        /* \"#utility.yul\":17390:17521   */\n      tag_212\n      jump\t// in\n    tag_410:\n        /* \"#utility.yul\":17382:17521   */\n      swap1\n      pop\n        /* \"#utility.yul\":17109:17528   */\n      swap2\n      swap1\n      pop\n      jump\t// out\n        /* \"#utility.yul\":17534:17704   */\n    tag_213:\n        /* \"#utility.yul\":17674:17696   */\n      0x496e73756666696369656e742042616c616e6365000000000000000000000000\n        /* \"#utility.yul\":17670:17671   */\n      0x00\n        /* \"#utility.yul\":17662:17668   */\n      dup3\n        /* \"#utility.yul\":17658:17672   */\n      add\n        /* \"#utility.yul\":17651:17697   */\n      mstore\n        /* \"#utility.yul\":17534:17704   */\n      pop\n      jump\t// out\n        /* \"#utility.yul\":17710:18076   */\n    tag_214:\n        /* \"#utility.yul\":17852:17855   */\n      0x00\n        /* \"#utility.yul\":17873:17940   */\n      tag_413\n        /* \"#utility.yul\":17937:17939   */\n      0x14\n        /* \"#utility.yul\":17932:17935   */\n      dup4\n        /* \"#utility.yul\":17873:17940   */\n      tag_195\n      jump\t// in\n    tag_413:\n        /* \"#utility.yul\":17866:17940   */\n      swap2\n      pop\n        /* \"#utility.yul\":17949:18042   */\n      tag_414\n        /* \"#utility.yul\":18038:18041   */\n      dup3\n        /* \"#utility.yul\":17949:18042   */\n      tag_213\n      jump\t// in\n    tag_414:\n        /* \"#utility.yul\":18067:18069   */\n      0x20\n        /* \"#utility.yul\":18062:18065   */\n      dup3\n        /* \"#utility.yul\":18058:18070   */\n      add\n        /* \"#utility.yul\":18051:18070   */\n      swap1\n      pop\n        /* \"#utility.yul\":17710:18076   */\n      swap2\n      swap1\n      pop\n      jump\t// out\n        /* \"#utility.yul\":18082:18501   */\n    tag_139:\n        /* \"#utility.yul\":18248:18252   */\n      0x00\n        /* \"#utility.yul\":18286:18288   */\n      0x20\n        /* \"#utility.yul\":18275:18284   */\n      dup3\n        /* \"#utility.yul\":18271:18289   */\n      add\n        /* \"#utility.yul\":18263:18289   */\n      swap1\n      pop\n        /* \"#utility.yul\":18335:18344   */\n      dup2\n        /* \"#utility.yul\":18329:18333   */\n      dup2\n        /* \"#utility.yul\":18325:18345   */\n      sub\n        /* \"#utility.yul\":18321:18322   */\n      0x00\n        /* \"#utility.yul\":18310:18319   */\n      dup4\n        /* \"#utility.yul\":18306:18323   */\n      add\n        /* \"#utility.yul\":18299:18346   */\n      mstore\n        /* \"#utility.yul\":18363:18494   */\n      tag_416\n        /* \"#utility.yul\":18489:18493   */\n      dup2\n        /* \"#utility.yul\":18363:18494   */\n      tag_214\n      jump\t// in\n    tag_416:\n        /* \"#utility.yul\":18355:18494   */\n      swap1\n      pop\n        /* \"#utility.yul\":18082:18501   */\n      swap2\n      swap1\n      pop\n      jump\t// out\n        /* \"#utility.yul\":18507:18949   */\n    tag_141:\n        /* \"#utility.yul\":18656:18660   */\n      0x00\n        /* \"#utility.yul\":18694:18696   */\n      0x60\n        /* \"#utility.yul\":18683:18692   */\n      dup3\n        /* \"#utility.yul\":18679:18697   */\n      add\n        /* \"#utility.yul\":18671:18697   */\n      swap1\n      pop\n        /* \"#utility.yul\":18707:18778   */\n      tag_418\n        /* \"#utility.yul\":18775:18776   */\n      0x00\n        /* \"#utility.yul\":18764:18773   */\n      dup4\n        /* \"#utility.yul\":18760:18777   */\n      add\n        /* \"#utility.yul\":18751:18757   */\n      dup7\n        /* \"#utility.yul\":18707:18778   */\n      tag_204\n      jump\t// in\n    tag_418:\n        /* \"#utility.yul\":18788:18860   */\n      tag_419\n        /* \"#utility.yul\":18856:18858   */\n      0x20\n        /* \"#utility.yul\":18845:18854   */\n      dup4\n        /* \"#utility.yul\":18841:18859   */\n      add\n        /* \"#utility.yul\":18832:18838   */\n      dup6\n        /* \"#utility.yul\":18788:18860   */\n      tag_204\n      jump\t// in\n    tag_419:\n        /* \"#utility.yul\":18870:18942   */\n      tag_420\n        /* \"#utility.yul\":18938:18940   */\n      0x40\n        /* \"#utility.yul\":18927:18936   */\n      dup4\n        /* \"#utility.yul\":18923:18941   */\n      add\n        /* \"#utility.yul\":18914:18920   */\n      dup5\n        /* \"#utility.yul\":18870:18942   */\n      tag_168\n      jump\t// in\n    tag_420:\n        /* \"#utility.yul\":18507:18949   */\n      swap5\n      swap4\n      pop\n      pop\n      pop\n      pop\n      jump\t// out\n        /* \"#utility.yul\":18955:19096   */\n    tag_215:\n        /* \"#utility.yul\":19004:19008   */\n      0x00\n        /* \"#utility.yul\":19027:19030   */\n      dup2\n        /* \"#utility.yul\":19019:19030   */\n      swap1\n      pop\n        /* \"#utility.yul\":19050:19053   */\n      dup2\n        /* \"#utility.yul\":19047:19048   */\n      0x00\n        /* \"#utility.yul\":19040:19054   */\n      mstore\n        /* \"#utility.yul\":19084:19088   */\n      0x20\n        /* \"#utility.yul\":19081:19082   */\n      0x00\n        /* \"#utility.yul\":19071:19089   */\n      keccak256\n        /* \"#utility.yul\":19063:19089   */\n      swap1\n      pop\n        /* \"#utility.yul\":18955:19096   */\n      swap2\n      swap1\n      pop\n      jump\t// out\n        /* \"#utility.yul\":19102:19195   */\n    tag_216:\n        /* \"#utility.yul\":19139:19145   */\n      0x00\n        /* \"#utility.yul\":19186:19188   */\n      0x20\n        /* \"#utility.yul\":19181:19183   */\n      0x1f\n        /* \"#utility.yul\":19174:19179   */\n      dup4\n        /* \"#utility.yul\":19170:19184   */\n      add\n        /* \"#utility.yul\":19166:19189   */\n      div\n        /* \"#utility.yul\":19156:19189   */\n      swap1\n      pop\n        /* \"#utility.yul\":19102:19195   */\n      swap2\n      swap1\n      pop\n      jump\t// out\n        /* \"#utility.yul\":19201:19308   */\n    tag_217:\n        /* \"#utility.yul\":19245:19253   */\n      0x00\n        /* \"#utility.yul\":19295:19300   */\n      dup3\n        /* \"#utility.yul\":19289:19293   */\n      dup3\n        /* \"#utility.yul\":19285:19301   */\n      shl\n        /* \"#utility.yul\":19264:19301   */\n      swap1\n      pop\n        /* \"#utility.yul\":19201:19308   */\n      swap3\n      swap2\n      pop\n      pop\n      jump\t// out\n        /* \"#utility.yul\":19314:19707   */\n    tag_218:\n        /* \"#utility.yul\":19383:19389   */\n      0x00\n        /* \"#utility.yul\":19433:19434   */\n      0x08\n        /* \"#utility.yul\":19421:19431   */\n      dup4\n        /* \"#utility.yul\":19417:19435   */\n      mul\n        /* \"#utility.yul\":19456:19553   */\n      tag_425\n        /* \"#utility.yul\":19486:19552   */\n      0xffffffffffffffffffffffffffffffffffffffffffffffffffffffffffffffff\n        /* \"#utility.yul\":19475:19484   */\n      dup3\n        /* \"#utility.yul\":19456:19553   */\n      tag_217\n      jump\t// in\n    tag_425:\n        /* \"#utility.yul\":19574:19613   */\n      tag_426\n        /* \"#utility.yul\":19604:19612   */\n      dup7\n        /* \"#utility.yul\":19593:19602   */\n      dup4\n        /* \"#utility.yul\":19574:19613   */\n      tag_217\n      jump\t// in\n    tag_426:\n        /* \"#utility.yul\":19562:19613   */\n      swap6\n      pop\n        /* \"#utility.yul\":19646:19650   */\n      dup1\n        /* \"#utility.yul\":19642:19651   */\n      not\n        /* \"#utility.yul\":19635:19640   */\n      dup5\n        /* \"#utility.yul\":19631:19652   */\n      and\n        /* \"#utility.yul\":19622:19652   */\n      swap4\n      pop\n        /* \"#utility.yul\":19695:19699   */\n      dup1\n        /* \"#utility.yul\":19685:19693   */\n      dup7\n        /* \"#utility.yul\":19681:19700   */\n      and\n        /* \"#utility.yul\":19674:19679   */\n      dup5\n        /* \"#utility.yul\":19671:19701   */\n      or\n        /* \"#utility.yul\":19661:19701   */\n      swap3\n      pop\n        /* \"#utility.yul\":19390:19707   */\n      pop\n      pop\n        /* \"#utility.yul\":19314:19707   */\n      swap4\n      swap3\n      pop\n      pop\n      pop\n      jump\t// out\n        /* \"#utility.yul\":19713:19773   */\n    tag_219:\n        /* \"#utility.yul\":19741:19744   */\n      0x00\n        /* \"#utility.yul\":19762:19767   */\n      dup2\n        /* \"#utility.yul\":19755:19767   */\n      swap1\n      pop\n        /* \"#utility.yul\":19713:19773   */\n      swap2\n      swap1\n      pop\n      jump\t// out\n        /* \"#utility.yul\":19779:19921   */\n    tag_220:\n        /* \"#utility.yul\":19829:19838   */\n      0x00\n        /* \"#utility.yul\":19862:19915   */\n      tag_429\n        /* \"#utility.yul\":19880:19914   */\n      tag_430\n        /* \"#utility.yul\":19889:19913   */\n      tag_431\n        /* \"#utility.yul\":19907:19912   */\n      dup5\n        /* \"#utility.yul\":19889:19913   */\n      tag_165\n      jump\t// in\n    tag_431:\n        /* \"#utility.yul\":19880:19914   */\n      tag_219\n      jump\t// in\n    tag_430:\n        /* \"#utility.yul\":19862:19915   */\n      tag_165\n      jump\t// in\n    tag_429:\n        /* \"#utility.yul\":19849:19915   */\n      swap1\n      pop\n        /* \"#utility.yul\":19779:19921   */\n      swap2\n      swap1\n      pop\n      jump\t// out\n        /* \"#utility.yul\":19927:20002   */\n    tag_221:\n        /* \"#utility.yul\":19970:19973   */\n      0x00\n        /* \"#utility.yul\":19991:19996   */\n      dup2\n        /* \"#utility.yul\":19984:19996   */\n      swap1\n      pop\n        /* \"#utility.yul\":19927:20002   */\n      swap2\n      swap1\n      pop\n      jump\t// out\n        /* \"#utility.yul\":20008:20277   */\n    tag_222:\n        /* \"#utility.yul\":20118:20157   */\n      tag_434\n        /* \"#utility.yul\":20149:20156   */\n      dup4\n        /* \"#utility.yul\":20118:20157   */\n      tag_220\n      jump\t// in\n    tag_434:\n        /* \"#utility.yul\":20179:20270   */\n      tag_435\n        /* \"#utility.yul\":20228:20269   */\n      tag_436\n        /* \"#utility.yul\":20252:20268   */\n      dup3\n        /* \"#utility.yul\":20228:20269   */\n      tag_221\n      jump\t// in\n    tag_436:\n        /* \"#utility.yul\":20220:20226   */\n      dup5\n        /* \"#utility.yul\":20213:20217   */\n      dup5\n        /* \"#utility.yul\":20207:20218   */\n      sload\n        /* \"#utility.yul\":20179:20270   */\n      tag_218\n      jump\t// in\n    tag_435:\n        /* \"#utility.yul\":20173:20177   */\n      dup3\n        /* \"#utility.yul\":20166:20271   */\n      sstore\n        /* \"#utility.yul\":20084:20277   */\n      pop\n        /* \"#utility.yul\":20008:20277   */\n      pop\n      pop\n      pop\n      jump\t// out\n        /* \"#utility.yul\":20283:20356   */\n    tag_223:\n        /* \"#utility.yul\":20328:20331   */\n      0x00\n        /* \"#utility.yul\":20283:20356   */\n      swap1\n      jump\t// out\n        /* \"#utility.yul\":20362:20551   */\n    tag_224:\n        /* \"#utility.yul\":20439:20471   */\n      tag_439\n      tag_223\n      jump\t// in\n    tag_439:\n        /* \"#utility.yul\":20480:20545   */\n      tag_440\n        /* \"#utility.yul\":20538:20544   */\n      dup2\n        /* \"#utility.yul\":20530:20536   */\n      dup5\n        /* \"#utility.yul\":20524:20528   */\n      dup5\n        /* \"#utility.yul\":20480:20545   */\n      tag_222\n      jump\t// in\n    tag_440:\n        /* \"#utility.yul\":20415:20551   */\n      pop\n        /* \"#utility.yul\":20362:20551   */\n      pop\n      pop\n      jump\t// out\n        /* \"#utility.yul\":20557:20743   */\n    tag_225:\n        /* \"#utility.yul\":20617:20737   */\n    tag_442:\n        /* \"#utility.yul\":20634:20637   */\n      dup2\n        /* \"#utility.yul\":20627:20632   */\n      dup2\n        /* \"#utility.yul\":20624:20638   */\n      lt\n        /* \"#utility.yul\":20617:20737   */\n      iszero\n      tag_444\n      jumpi\n        /* \"#utility.yul\":20688:20727   */\n      tag_445\n        /* \"#utility.yul\":20725:20726   */\n      0x00\n        /* \"#utility.yul\":20718:20723   */\n      dup3\n        /* \"#utility.yul\":20688:20727   */\n      tag_224\n      jump\t// in\n    tag_445:\n        /* \"#utility.yul\":20661:20662   */\n      0x01\n        /* \"#utility.yul\":20654:20659   */\n      dup2\n        /* \"#utility.yul\":20650:20663   */\n      add\n        /* \"#utility.yul\":20641:20663   */\n      swap1\n      pop\n        /* \"#utility.yul\":20617:20737   */\n      jump(tag_442)\n    tag_444:\n        /* \"#utility.yul\":20557:20743   */\n      pop\n      pop\n      jump\t// out\n        /* \"#utility.yul\":20749:21292   */\n    tag_226:\n        /* \"#utility.yul\":20850:20852   */\n      0x1f\n        /* \"#utility.yul\":20845:20848   */\n      dup3\n        /* \"#utility.yul\":20842:20853   */\n      gt\n        /* \"#utility.yul\":20839:21285   */\n      iszero\n      tag_447\n      jumpi\n        /* \"#utility.yul\":20884:20922   */\n      tag_448\n        /* \"#utility.yul\":20916:20921   */\n      dup2\n        /* \"#utility.yul\":20884:20922   */\n      tag_215\n      jump\t// in\n    tag_448:\n        /* \"#utility.yul\":20968:20997   */\n      tag_449\n        /* \"#utility.yul\":20986:20996   */\n      dup5\n        /* \"#utility.yul\":20968:20997   */\n      tag_216\n      jump\t// in\n    tag_449:\n        /* \"#utility.yul\":20958:20966   */\n      dup2\n        /* \"#utility.yul\":20954:20998   */\n      add\n        /* \"#utility.yul\":21151:21153   */\n      0x20\n        /* \"#utility.yul\":21139:21149   */\n      dup6\n        /* \"#utility.yul\":21136:21154   */\n      lt\n        /* \"#utility.yul\":21133:21182   */\n      iszero\n      tag_450\n      jumpi\n        /* \"#utility.yul\":21172:21180   */\n      dup2\n        /* \"#utility.yul\":21157:21180   */\n      swap1\n      pop\n        /* \"#utility.yul\":21133:21182   */\n    tag_450:\n        /* \"#utility.yul\":21195:21275   */\n      tag_451\n        /* \"#utility.yul\":21251:21273   */\n      tag_452\n        /* \"#utility.yul\":21269:21272   */\n      dup6\n        /* \"#utility.yul\":21251:21273   */\n      tag_216\n      jump\t// in\n    tag_452:\n        /* \"#utility.yul\":21241:21249   */\n      dup4\n        /* \"#utility.yul\":21237:21274   */\n      add\n        /* \"#utility.yul\":21224:21235   */\n      dup3\n        /* \"#utility.yul\":21195:21275   */\n      tag_225\n      jump\t// in\n    tag_451:\n        /* \"#utility.yul\":20854:21285   */\n      pop\n      pop\n        /* \"#utility.yul\":20839:21285   */\n    tag_447:\n        /* \"#utility.yul\":20749:21292   */\n      pop\n      pop\n      pop\n      jump\t// out\n        /* \"#utility.yul\":21298:21415   */\n    tag_227:\n        /* \"#utility.yul\":21352:21360   */\n      0x00\n        /* \"#utility.yul\":21402:21407   */\n      dup3\n        /* \"#utility.yul\":21396:21400   */\n      dup3\n        /* \"#utility.yul\":21392:21408   */\n      shr\n        /* \"#utility.yul\":21371:21408   */\n      swap1\n      pop\n        /* \"#utility.yul\":21298:21415   */\n      swap3\n      swap2\n      pop\n      pop\n      jump\t// out\n        /* \"#utility.yul\":21421:21590   */\n    tag_228:\n        /* \"#utility.yul\":21465:21471   */\n      0x00\n        /* \"#utility.yul\":21498:21549   */\n      tag_455\n        /* \"#utility.yul\":21546:21547   */\n      0x00\n        /* \"#utility.yul\":21542:21548   */\n      not\n        /* \"#utility.yul\":21534:21539   */\n      dup5\n        /* \"#utility.yul\":21531:21532   */\n      0x08\n        /* \"#utility.yul\":21527:21540   */\n      mul\n        /* \"#utility.yul\":21498:21549   */\n      tag_227\n      jump\t// in\n    tag_455:\n        /* \"#utility.yul\":21494:21550   */\n      not\n        /* \"#utility.yul\":21579:21583   */\n      dup1\n        /* \"#utility.yul\":21573:21577   */\n      dup4\n        /* \"#utility.yul\":21569:21584   */\n      and\n        /* \"#utility.yul\":21559:21584   */\n      swap2\n      pop\n        /* \"#utility.yul\":21472:21590   */\n      pop\n        /* \"#utility.yul\":21421:21590   */\n      swap3\n      swap2\n      pop\n      pop\n      jump\t// out\n        /* \"#utility.yul\":21595:21890   */\n    tag_229:\n        /* \"#utility.yul\":21671:21675   */\n      0x00\n        /* \"#utility.yul\":21817:21846   */\n      tag_457\n        /* \"#utility.yul\":21842:21845   */\n      dup4\n        /* \"#utility.yul\":21836:21840   */\n      dup4\n        /* \"#utility.yul\":21817:21846   */\n      tag_228\n      jump\t// in\n    tag_457:\n        /* \"#utility.yul\":21809:21846   */\n      swap2\n      pop\n        /* \"#utility.yul\":21879:21882   */\n      dup3\n        /* \"#utility.yul\":21876:21877   */\n      0x02\n        /* \"#utility.yul\":21872:21883   */\n      mul\n        /* \"#utility.yul\":21866:21870   */\n      dup3\n        /* \"#utility.yul\":21863:21884   */\n      or\n        /* \"#utility.yul\":21855:21884   */\n      swap1\n      pop\n        /* \"#utility.yul\":21595:21890   */\n      swap3\n      swap2\n      pop\n      pop\n      jump\t// out\n        /* \"#utility.yul\":21895:23290   */\n    tag_147:\n        /* \"#utility.yul\":22012:22049   */\n      tag_459\n        /* \"#utility.yul\":22045:22048   */\n      dup3\n        /* \"#utility.yul\":22012:22049   */\n      tag_188\n      jump\t// in\n    tag_459:\n        /* \"#utility.yul\":22114:22132   */\n      0xffffffffffffffff\n        /* \"#utility.yul\":22106:22112   */\n      dup2\n        /* \"#utility.yul\":22103:22133   */\n      gt\n        /* \"#utility.yul\":22100:22156   */\n      iszero\n      tag_460\n      jumpi\n        /* \"#utility.yul\":22136:22154   */\n      tag_461\n      tag_172\n      jump\t// in\n    tag_461:\n        /* \"#utility.yul\":22100:22156   */\n    tag_460:\n        /* \"#utility.yul\":22180:22218   */\n      tag_462\n        /* \"#utility.yul\":22212:22216   */\n      dup3\n        /* \"#utility.yul\":22206:22217   */\n      sload\n        /* \"#utility.yul\":22180:22218   */\n      tag_115\n      jump\t// in\n    tag_462:\n        /* \"#utility.yul\":22265:22332   */\n      tag_463\n        /* \"#utility.yul\":22325:22331   */\n      dup3\n        /* \"#utility.yul\":22317:22323   */\n      dup3\n        /* \"#utility.yul\":22311:22315   */\n      dup6\n        /* \"#utility.yul\":22265:22332   */\n      tag_226\n      jump\t// in\n    tag_463:\n        /* \"#utility.yul\":22359:22360   */\n      0x00\n        /* \"#utility.yul\":22383:22387   */\n      0x20\n        /* \"#utility.yul\":22370:22387   */\n      swap1\n      pop\n        /* \"#utility.yul\":22415:22417   */\n      0x1f\n        /* \"#utility.yul\":22407:22413   */\n      dup4\n        /* \"#utility.yul\":22404:22418   */\n      gt\n        /* \"#utility.yul\":22432:22433   */\n      0x01\n        /* \"#utility.yul\":22427:23045   */\n      dup2\n      eq\n      tag_465\n      jumpi\n        /* \"#utility.yul\":23089:23090   */\n      0x00\n        /* \"#utility.yul\":23106:23112   */\n      dup5\n        /* \"#utility.yul\":23103:23180   */\n      iszero\n      tag_466\n      jumpi\n        /* \"#utility.yul\":23155:23164   */\n      dup3\n        /* \"#utility.yul\":23150:23153   */\n      dup8\n        /* \"#utility.yul\":23146:23165   */\n      add\n        /* \"#utility.yul\":23140:23166   */\n      mload\n        /* \"#utility.yul\":23131:23166   */\n      swap1\n      pop\n        /* \"#utility.yul\":23103:23180   */\n    tag_466:\n        /* \"#utility.yul\":23206:23273   */\n      tag_467\n        /* \"#utility.yul\":23266:23272   */\n      dup6\n        /* \"#utility.yul\":23259:23264   */\n      dup3\n        /* \"#utility.yul\":23206:23273   */\n      tag_229\n      jump\t// in\n    tag_467:\n        /* \"#utility.yul\":23200:23204   */\n      dup7\n        /* \"#utility.yul\":23193:23274   */\n      sstore\n        /* \"#utility.yul\":23062:23284   */\n      pop\n        /* \"#utility.yul\":22397:23284   */\n      jump(tag_464)\n        /* \"#utility.yul\":22427:23045   */\n    tag_465:\n        /* \"#utility.yul\":22479:22483   */\n      0x1f\n        /* \"#utility.yul\":22475:22484   */\n      not\n        /* \"#utility.yul\":22467:22473   */\n      dup5\n        /* \"#utility.yul\":22463:22485   */\n      and\n        /* \"#utility.yul\":22513:22550   */\n      tag_468\n        /* \"#utility.yul\":22545:22549   */\n      dup7\n        /* \"#utility.yul\":22513:22550   */\n      tag_215\n      jump\t// in\n    tag_468:\n        /* \"#utility.yul\":22572:22573   */\n      0x00\n        /* \"#utility.yul\":22586:22794   */\n    tag_469:\n        /* \"#utility.yul\":22600:22607   */\n      dup3\n        /* \"#utility.yul\":22597:22598   */\n      dup2\n        /* \"#utility.yul\":22594:22608   */\n      lt\n        /* \"#utility.yul\":22586:22794   */\n      iszero\n      tag_471\n      jumpi\n        /* \"#utility.yul\":22679:22688   */\n      dup5\n        /* \"#utility.yul\":22674:22677   */\n      dup10\n        /* \"#utility.yul\":22670:22689   */\n      add\n        /* \"#utility.yul\":22664:22690   */\n      mload\n        /* \"#utility.yul\":22656:22662   */\n      dup3\n        /* \"#utility.yul\":22649:22691   */\n      sstore\n        /* \"#utility.yul\":22730:22731   */\n      0x01\n        /* \"#utility.yul\":22722:22728   */\n      dup3\n        /* \"#utility.yul\":22718:22732   */\n      add\n        /* \"#utility.yul\":22708:22732   */\n      swap2\n      pop\n        /* \"#utility.yul\":22777:22779   */\n      0x20\n        /* \"#utility.yul\":22766:22775   */\n      dup6\n        /* \"#utility.yul\":22762:22780   */\n      add\n        /* \"#utility.yul\":22749:22780   */\n      swap5\n      pop\n        /* \"#utility.yul\":22623:22627   */\n      0x20\n        /* \"#utility.yul\":22620:22621   */\n      dup2\n        /* \"#utility.yul\":22616:22628   */\n      add\n        /* \"#utility.yul\":22611:22628   */\n      swap1\n      pop\n        /* \"#utility.yul\":22586:22794   */\n      jump(tag_469)\n    tag_471:\n        /* \"#utility.yul\":22822:22828   */\n      dup7\n        /* \"#utility.yul\":22813:22820   */\n      dup4\n        /* \"#utility.yul\":22810:22829   */\n      lt\n        /* \"#utility.yul\":22807:22986   */\n      iszero\n      tag_472\n      jumpi\n        /* \"#utility.yul\":22880:22889   */\n      dup5\n        /* \"#utility.yul\":22875:22878   */\n      dup10\n        /* \"#utility.yul\":22871:22890   */\n      add\n        /* \"#utility.yul\":22865:22891   */\n      mload\n        /* \"#utility.yul\":22923:22971   */\n      tag_473\n        /* \"#utility.yul\":22965:22969   */\n      0x1f\n        /* \"#utility.yul\":22957:22963   */\n      dup10\n        /* \"#utility.yul\":22953:22970   */\n      and\n        /* \"#utility.yul\":22942:22951   */\n      dup3\n        /* \"#utility.yul\":22923:22971   */\n      tag_228\n      jump\t// in\n    tag_473:\n        /* \"#utility.yul\":22915:22921   */\n      dup4\n        /* \"#utility.yul\":22908:22972   */\n      sstore\n        /* \"#utility.yul\":22830:22986   */\n      pop\n        /* \"#utility.yul\":22807:22986   */\n    tag_472:\n        /* \"#utility.yul\":23032:23033   */\n      0x01\n        /* \"#utility.yul\":23028:23029   */\n      0x02\n        /* \"#utility.yul\":23020:23026   */\n      dup9\n        /* \"#utility.yul\":23016:23030   */\n      mul\n        /* \"#utility.yul\":23012:23034   */\n      add\n        /* \"#utility.yul\":23006:23010   */\n      dup9\n        /* \"#utility.yul\":22999:23035   */\n      sstore\n        /* \"#utility.yul\":22434:23045   */\n      pop\n      pop\n      pop\n        /* \"#utility.yul\":22397:23284   */\n    tag_464:\n      pop\n        /* \"#utility.yul\":21987:23290   */\n      pop\n      pop\n      pop\n        /* \"#utility.yul\":21895:23290   */\n      pop\n      pop\n      jump\t// out\n        /* \"#utility.yul\":23296:23829   */\n    tag_149:\n        /* \"#utility.yul\":23465:23469   */\n      0x00\n        /* \"#utility.yul\":23503:23505   */\n      0x60\n        /* \"#utility.yul\":23492:23501   */\n      dup3\n        /* \"#utility.yul\":23488:23506   */\n      add\n        /* \"#utility.yul\":23480:23506   */\n      swap1\n      pop\n        /* \"#utility.yul\":23552:23561   */\n      dup2\n        /* \"#utility.yul\":23546:23550   */\n      dup2\n        /* \"#utility.yul\":23542:23562   */\n      sub\n        /* \"#utility.yul\":23538:23539   */\n      0x00\n        /* \"#utility.yul\":23527:23536   */\n      dup4\n        /* \"#utility.yul\":23523:23540   */\n      add\n        /* \"#utility.yul\":23516:23563   */\n      mstore\n        /* \"#utility.yul\":23580:23658   */\n      tag_475\n        /* \"#utility.yul\":23653:23657   */\n      dup2\n        /* \"#utility.yul\":23644:23650   */\n      dup7\n        /* \"#utility.yul\":23580:23658   */\n      tag_196\n      jump\t// in\n    tag_475:\n        /* \"#utility.yul\":23572:23658   */\n      swap1\n      pop\n        /* \"#utility.yul\":23668:23740   */\n      tag_476\n        /* \"#utility.yul\":23736:23738   */\n      0x20\n        /* \"#utility.yul\":23725:23734   */\n      dup4\n        /* \"#utility.yul\":23721:23739   */\n      add\n        /* \"#utility.yul\":23712:23718   */\n      dup6\n        /* \"#utility.yul\":23668:23740   */\n      tag_168\n      jump\t// in\n    tag_476:\n        /* \"#utility.yul\":23750:23822   */\n      tag_477\n        /* \"#utility.yul\":23818:23820   */\n      0x40\n        /* \"#utility.yul\":23807:23816   */\n      dup4\n        /* \"#utility.yul\":23803:23821   */\n      add\n        /* \"#utility.yul\":23794:23800   */\n      dup5\n        /* \"#utility.yul\":23750:23822   */\n      tag_204\n      jump\t// in\n    tag_477:\n        /* \"#utility.yul\":23296:23829   */\n      swap5\n      swap4\n      pop\n      pop\n      pop\n      pop\n      jump\t// out\n        /* \"#utility.yul\":23835:24258   */\n    tag_158:\n        /* \"#utility.yul\":23976:23980   */\n      0x00\n        /* \"#utility.yul\":24014:24016   */\n      0x40\n        /* \"#utility.yul\":24003:24012   */\n      dup3\n        /* \"#utility.yul\":23999:24017   */\n      add\n        /* \"#utility.yul\":23991:24017   */\n      swap1\n      pop\n        /* \"#utility.yul\":24063:24072   */\n      dup2\n        /* \"#utility.yul\":24057:24061   */\n      dup2\n        /* \"#utility.yul\":24053:24073   */\n      sub\n        /* \"#utility.yul\":24049:24050   */\n      0x00\n        /* \"#utility.yul\":24038:24047   */\n      dup4\n        /* \"#utility.yul\":24034:24051   */\n      add\n        /* \"#utility.yul\":24027:24074   */\n      mstore\n        /* \"#utility.yul\":24091:24169   */\n      tag_479\n        /* \"#utility.yul\":24164:24168   */\n      dup2\n        /* \"#utility.yul\":24155:24161   */\n      dup6\n        /* \"#utility.yul\":24091:24169   */\n      tag_196\n      jump\t// in\n    tag_479:\n        /* \"#utility.yul\":24083:24169   */\n      swap1\n      pop\n        /* \"#utility.yul\":24179:24251   */\n      tag_480\n        /* \"#utility.yul\":24247:24249   */\n      0x20\n        /* \"#utility.yul\":24236:24245   */\n      dup4\n        /* \"#utility.yul\":24232:24250   */\n      add\n        /* \"#utility.yul\":24223:24229   */\n      dup5\n        /* \"#utility.yul\":24179:24251   */\n      tag_168\n      jump\t// in\n    tag_480:\n        /* \"#utility.yul\":23835:24258   */\n      swap4\n      swap3\n      pop\n      pop\n      pop\n      jump\t// out\n        /* \"#utility.yul\":24264:24674   */\n    tag_161:\n        /* \"#utility.yul\":24304:24311   */\n      0x00\n        /* \"#utility.yul\":24327:24347   */\n      tag_482\n        /* \"#utility.yul\":24345:24346   */\n      dup3\n        /* \"#utility.yul\":24327:24347   */\n      tag_165\n      jump\t// in\n    tag_482:\n        /* \"#utility.yul\":24322:24347   */\n      swap2\n      pop\n        /* \"#utility.yul\":24361:24381   */\n      tag_483\n        /* \"#utility.yul\":24379:24380   */\n      dup4\n        /* \"#utility.yul\":24361:24381   */\n      tag_165\n      jump\t// in\n    tag_483:\n        /* \"#utility.yul\":24356:24381   */\n      swap3\n      pop\n        /* \"#utility.yul\":24416:24417   */\n      dup3\n        /* \"#utility.yul\":24413:24414   */\n      dup3\n        /* \"#utility.yul\":24409:24418   */\n      mul\n        /* \"#utility.yul\":24438:24468   */\n      tag_484\n        /* \"#utility.yul\":24456:24467   */\n      dup2\n        /* \"#utility.yul\":24438:24468   */\n      tag_165\n      jump\t// in\n    tag_484:\n        /* \"#utility.yul\":24427:24468   */\n      swap2\n      pop\n        /* \"#utility.yul\":24617:24618   */\n      dup3\n        /* \"#utility.yul\":24608:24615   */\n      dup3\n        /* \"#utility.yul\":24604:24619   */\n      div\n        /* \"#utility.yul\":24601:24602   */\n      dup5\n        /* \"#utility.yul\":24598:24620   */\n      eq\n        /* \"#utility.yul\":24578:24579   */\n      dup4\n        /* \"#utility.yul\":24571:24580   */\n      iszero\n        /* \"#utility.yul\":24551:24634   */\n      or\n        /* \"#utility.yul\":24528:24667   */\n      tag_485\n      jumpi\n        /* \"#utility.yul\":24647:24665   */\n      tag_486\n      tag_201\n      jump\t// in\n    tag_486:\n        /* \"#utility.yul\":24528:24667   */\n    tag_485:\n        /* \"#utility.yul\":24312:24674   */\n      pop\n        /* \"#utility.yul\":24264:24674   */\n      swap3\n      swap2\n      pop\n      pop\n      jump\t// out\n\n    auxdata: 0xa26469706673582212203493080d22ff60962f76aeed00c1176662c062c6f8f934cd55d8b19443e51b3464736f6c63430008120033\n}\n\nsub_1: assembly {\n        /* \"RESORT/ERC20.sol\":861:3731  contract ERC20Basic is IERC20{... */\n      mstore(0x40, 0x80)\n        /* \"RESORT/ERC20.sol\":1303:1456  constructor (uint256 initialSupply){... */\n      callvalue\n      dup1\n      iszero\n      tag_1\n      jumpi\n      0x00\n      dup1\n      revert\n    tag_1:\n      pop\n      mload(0x40)\n      sub(codesize, bytecodeSize)\n      dup1\n      bytecodeSize\n      dup4\n      codecopy\n      dup2\n      dup2\n      add\n      0x40\n      mstore\n      dup2\n      add\n      swap1\n      tag_2\n      swap2\n      swap1\n      tag_3\n      jump\t// in\n    tag_2:\n        /* \"RESORT/ERC20.sol\":1356:1366  msg.sender */\n      caller\n        /* \"RESORT/ERC20.sol\":1348:1353  owner */\n      0x00\n      dup1\n        /* \"RESORT/ERC20.sol\":1348:1366  owner = msg.sender */\n      0x0100\n      exp\n      dup2\n      sload\n      dup2\n      0xffffffffffffffffffffffffffffffffffffffff\n      mul\n      not\n      and\n      swap1\n      dup4\n      0xffffffffffffffffffffffffffffffffffffffff\n      and\n      mul\n      or\n      swap1\n      sstore\n      pop\n        /* \"RESORT/ERC20.sol\":1391:1404  initialSupply */\n      dup1\n        /* \"RESORT/ERC20.sol\":1376:1388  totalSupply_ */\n      0x03\n        /* \"RESORT/ERC20.sol\":1376:1404  totalSupply_ = initialSupply */\n      dup2\n      swap1\n      sstore\n      pop\n        /* \"RESORT/ERC20.sol\":1437:1449  totalSupply_ */\n      sload(0x03)\n        /* \"RESORT/ERC20.sol\":1414:1422  balances */\n      0x01\n        /* \"RESORT/ERC20.sol\":1414:1434  balances[msg.sender] */\n      0x00\n        /* \"RESORT/ERC20.sol\":1423:1433  msg.sender */\n      caller\n        /* \"RESORT/ERC20.sol\":1414:1434  balances[msg.sender] */\n      0xffffffffffffffffffffffffffffffffffffffff\n      and\n      0xffffffffffffffffffffffffffffffffffffffff\n      and\n      dup2\n      mstore\n      0x20\n      add\n      swap1\n      dup2\n      mstore\n      0x20\n      add\n      0x00\n      keccak256\n        /* \"RESORT/ERC20.sol\":1414:1449  balances[msg.sender] = totalSupply_ */\n      dup2\n      swap1\n      sstore\n      pop\n        /* \"RESORT/ERC20.sol\":1303:1456  constructor (uint256 initialSupply){... */\n      pop\n        /* \"RESORT/ERC20.sol\":861:3731  contract ERC20Basic is IERC20{... */\n      jump(tag_6)\n        /* \"#utility.yul\":88:205   */\n    tag_8:\n        /* \"#utility.yul\":197:198   */\n      0x00\n        /* \"#utility.yul\":194:195   */\n      dup1\n        /* \"#utility.yul\":187:199   */\n      revert\n        /* \"#utility.yul\":334:411   */\n    tag_10:\n        /* \"#utility.yul\":371:378   */\n      0x00\n        /* \"#utility.yul\":400:405   */\n      dup2\n        /* \"#utility.yul\":389:405   */\n      swap1\n      pop\n        /* \"#utility.yul\":334:411   */\n      swap2\n      swap1\n      pop\n      jump\t// out\n        /* \"#utility.yul\":417:539   */\n    tag_11:\n        /* \"#utility.yul\":490:514   */\n      tag_19\n        /* \"#utility.yul\":508:513   */\n      dup2\n        /* \"#utility.yul\":490:514   */\n      tag_10\n      jump\t// in\n    tag_19:\n        /* \"#utility.yul\":483:488   */\n      dup2\n        /* \"#utility.yul\":480:515   */\n      eq\n        /* \"#utility.yul\":470:533   */\n      tag_20\n      jumpi\n        /* \"#utility.yul\":529:530   */\n      0x00\n        /* \"#utility.yul\":526:527   */\n      dup1\n        /* \"#utility.yul\":519:531   */\n      revert\n        /* \"#utility.yul\":470:533   */\n    tag_20:\n        /* \"#utility.yul\":417:539   */\n      pop\n      jump\t// out\n        /* \"#utility.yul\":545:688   */\n    tag_12:\n        /* \"#utility.yul\":602:607   */\n      0x00\n        /* \"#utility.yul\":633:639   */\n      dup2\n        /* \"#utility.yul\":627:640   */\n      mload\n        /* \"#utility.yul\":618:640   */\n      swap1\n      pop\n        /* \"#utility.yul\":649:682   */\n      tag_22\n        /* \"#utility.yul\":676:681   */\n      dup2\n        /* \"#utility.yul\":649:682   */\n      tag_11\n      jump\t// in\n    tag_22:\n        /* \"#utility.yul\":545:688   */\n      swap3\n      swap2\n      pop\n      pop\n      jump\t// out\n        /* \"#utility.yul\":694:1045   */\n    tag_3:\n        /* \"#utility.yul\":764:770   */\n      0x00\n        /* \"#utility.yul\":813:815   */\n      0x20\n        /* \"#utility.yul\":801:810   */\n      dup3\n        /* \"#utility.yul\":792:799   */\n      dup5\n        /* \"#utility.yul\":788:811   */\n      sub\n        /* \"#utility.yul\":784:816   */\n      slt\n        /* \"#utility.yul\":781:900   */\n      iszero\n      tag_24\n      jumpi\n        /* \"#utility.yul\":819:898   */\n      tag_25\n      tag_8\n      jump\t// in\n    tag_25:\n        /* \"#utility.yul\":781:900   */\n    tag_24:\n        /* \"#utility.yul\":939:940   */\n      0x00\n        /* \"#utility.yul\":964:1028   */\n      tag_26\n        /* \"#utility.yul\":1020:1027   */\n      dup5\n        /* \"#utility.yul\":1011:1017   */\n      dup3\n        /* \"#utility.yul\":1000:1009   */\n      dup6\n        /* \"#utility.yul\":996:1018   */\n      add\n        /* \"#utility.yul\":964:1028   */\n      tag_12\n      jump\t// in\n    tag_26:\n        /* \"#utility.yul\":954:1028   */\n      swap2\n      pop\n        /* \"#utility.yul\":910:1038   */\n      pop\n        /* \"#utility.yul\":694:1045   */\n      swap3\n      swap2\n      pop\n      pop\n      jump\t// out\n        /* \"RESORT/ERC20.sol\":861:3731  contract ERC20Basic is IERC20{... */\n    tag_6:\n      dataSize(sub_0)\n      dup1\n      dataOffset(sub_0)\n      0x00\n      codecopy\n      0x00\n      return\n    stop\n\n    sub_0: assembly {\n            /* \"RESORT/ERC20.sol\":861:3731  contract ERC20Basic is IERC20{... */\n          mstore(0x40, 0x80)\n          callvalue\n          dup1\n          iszero\n          tag_1\n          jumpi\n          0x00\n          dup1\n          revert\n        tag_1:\n          pop\n          jumpi(tag_2, lt(calldatasize, 0x04))\n          shr(0xe0, calldataload(0x00))\n          dup1\n          0x70a08231\n          gt\n          tag_15\n          jumpi\n          dup1\n          0x70a08231\n          eq\n          tag_9\n          jumpi\n          dup1\n          0x715018a6\n          eq\n          tag_10\n          jumpi\n          dup1\n          0x95d89b41\n          eq\n          tag_11\n          jumpi\n          dup1\n          0xa9059cbb\n          eq\n          tag_12\n          jumpi\n          dup1\n          0xdd62ed3e\n          eq\n          tag_13\n          jumpi\n          dup1\n          0xe0631f7f\n          eq\n          tag_14\n          jumpi\n          jump(tag_2)\n        tag_15:\n          dup1\n          0x06fdde03\n          eq\n          tag_3\n          jumpi\n          dup1\n          0x095ea7b3\n          eq\n          tag_4\n          jumpi\n          dup1\n          0x18160ddd\n          eq\n          tag_5\n          jumpi\n          dup1\n          0x1d43cc98\n          eq\n          tag_6\n          jumpi\n          dup1\n          0x23b872dd\n          eq\n          tag_7\n          jumpi\n          dup1\n          0x313ce567\n          eq\n          tag_8\n          jumpi\n        tag_2:\n          0x00\n          dup1\n          revert\n            /* \"RESORT/ERC20.sol\":897:935  string public constant name = \"Resort\" */\n        tag_3:\n          tag_16\n          tag_17\n          jump\t// in\n        tag_16:\n          mload(0x40)\n          tag_18\n          swap2\n          swap1\n          tag_19\n          jump\t// in\n        tag_18:\n          mload(0x40)\n          dup1\n          swap2\n          sub\n          swap1\n          return\n            /* \"RESORT/ERC20.sol\":2659:2937  function approve(address _delegate, uint256 _numTokens) public override returns (bool){... */\n        tag_4:\n          tag_20\n          0x04\n          dup1\n          calldatasize\n          sub\n          dup2\n          add\n          swap1\n          tag_21\n          swap2\n          swap1\n          tag_22\n          jump\t// in\n        tag_21:\n          tag_23\n          jump\t// in\n        tag_20:\n          mload(0x40)\n          tag_24\n          swap2\n          swap1\n          tag_25\n          jump\t// in\n        tag_24:\n          mload(0x40)\n          dup1\n          swap2\n          sub\n          swap1\n          return\n            /* \"RESORT/ERC20.sol\":1462:1559  function totalSupply() public override view returns (uint256){... */\n        tag_5:\n          tag_26\n          tag_27\n          jump\t// in\n        tag_26:\n          mload(0x40)\n          tag_28\n          swap2\n          swap1\n          tag_29\n          jump\t// in\n        tag_28:\n          mload(0x40)\n          dup1\n          swap2\n          sub\n          swap1\n          return\n            /* \"RESORT/ERC20.sol\":3559:3727  function increaseTotalSupply(uint _newTokensAmount) public onlyOwner{... */\n        tag_6:\n          tag_30\n          0x04\n          dup1\n          calldatasize\n          sub\n          dup2\n          add\n          swap1\n          tag_31\n          swap2\n          swap1\n          tag_32\n          jump\t// in\n        tag_31:\n          tag_33\n          jump\t// in\n        tag_30:\n          stop\n            /* \"RESORT/ERC20.sol\":2943:3439  function transferFrom(address _owner, address _buyer, uint256 _numTokens) public override returns (bool){... */\n        tag_7:\n          tag_34\n          0x04\n          dup1\n          calldatasize\n          sub\n          dup2\n          add\n          swap1\n          tag_35\n          swap2\n          swap1\n          tag_36\n          jump\t// in\n        tag_35:\n          tag_37\n          jump\t// in\n        tag_34:\n          mload(0x40)\n          tag_38\n          swap2\n          swap1\n          tag_25\n          jump\t// in\n        tag_38:\n          mload(0x40)\n          dup1\n          swap2\n          sub\n          swap1\n          return\n            /* \"RESORT/ERC20.sol\":984:1019  uint8 public constant decimals = 18 */\n        tag_8:\n          tag_39\n          tag_40\n          jump\t// in\n        tag_39:\n          mload(0x40)\n          tag_41\n          swap2\n          swap1\n          tag_42\n          jump\t// in\n        tag_41:\n          mload(0x40)\n          dup1\n          swap2\n          sub\n          swap1\n          return\n            /* \"RESORT/ERC20.sol\":1565:1687  function balanceOf(address _tokenOwner) public override view returns(uint256){... */\n        tag_9:\n          tag_43\n          0x04\n          dup1\n          calldatasize\n          sub\n          dup2\n          add\n          swap1\n          tag_44\n          swap2\n          swap1\n          tag_45\n          jump\t// in\n        tag_44:\n          tag_46\n          jump\t// in\n        tag_43:\n          mload(0x40)\n          tag_47\n          swap2\n          swap1\n          tag_29\n          jump\t// in\n        tag_47:\n          mload(0x40)\n          dup1\n          swap2\n          sub\n          swap1\n          return\n            /* \"RESORT/ERC20.sol\":3472:3552  function renounceOwnership() public onlyOwner{... */\n        tag_10:\n          tag_48\n          tag_49\n          jump\t// in\n        tag_48:\n          stop\n            /* \"RESORT/ERC20.sol\":941:978  string public constant symbol = \"RST\" */\n        tag_11:\n          tag_50\n          tag_51\n          jump\t// in\n        tag_50:\n          mload(0x40)\n          tag_52\n          swap2\n          swap1\n          tag_19\n          jump\t// in\n        tag_52:\n          mload(0x40)\n          dup1\n          swap2\n          sub\n          swap1\n          return\n            /* \"RESORT/ERC20.sol\":1870:2234  function transfer(address _recipient, uint256 _numTokens) public override returns (bool){... */\n        tag_12:\n          tag_53\n          0x04\n          dup1\n          calldatasize\n          sub\n          dup2\n          add\n          swap1\n          tag_54\n          swap2\n          swap1\n          tag_22\n          jump\t// in\n        tag_54:\n          tag_55\n          jump\t// in\n        tag_53:\n          mload(0x40)\n          tag_56\n          swap2\n          swap1\n          tag_25\n          jump\t// in\n        tag_56:\n          mload(0x40)\n          dup1\n          swap2\n          sub\n          swap1\n          return\n            /* \"RESORT/ERC20.sol\":1693:1834  function allowance(address _owner, address _delegate) public override view returns(uint256){... */\n        tag_13:\n          tag_57\n          0x04\n          dup1\n          calldatasize\n          sub\n          dup2\n          add\n          swap1\n          tag_58\n          swap2\n          swap1\n          tag_59\n          jump\t// in\n        tag_58:\n          tag_60\n          jump\t// in\n        tag_57:\n          mload(0x40)\n          tag_61\n          swap2\n          swap1\n          tag_29\n          jump\t// in\n        tag_61:\n          mload(0x40)\n          dup1\n          swap2\n          sub\n          swap1\n          return\n            /* \"RESORT/ERC20.sol\":2268:2653  function transferFromClient(address _client, address _recipient, uint256 _numTokens) public override returns (bool){... */\n        tag_14:\n          tag_62\n          0x04\n          dup1\n          calldatasize\n          sub\n          dup2\n          add\n          swap1\n          tag_63\n          swap2\n          swap1\n          tag_36\n          jump\t// in\n        tag_63:\n          tag_64\n          jump\t// in\n        tag_62:\n          mload(0x40)\n          tag_65\n          swap2\n          swap1\n          tag_25\n          jump\t// in\n        tag_65:\n          mload(0x40)\n          dup1\n          swap2\n          sub\n          swap1\n          return\n            /* \"RESORT/ERC20.sol\":897:935  string public constant name = \"Resort\" */\n        tag_17:\n          mload(0x40)\n          dup1\n          0x40\n          add\n          0x40\n          mstore\n          dup1\n          0x06\n          dup2\n          mstore\n          0x20\n          add\n          0x5265736f72740000000000000000000000000000000000000000000000000000\n          dup2\n          mstore\n          pop\n          dup2\n          jump\t// out\n            /* \"RESORT/ERC20.sol\":2659:2937  function approve(address _delegate, uint256 _numTokens) public override returns (bool){... */\n        tag_23:\n            /* \"RESORT/ERC20.sol\":2740:2744  bool */\n          0x00\n            /* \"RESORT/ERC20.sol\":2777:2785  balances */\n          0x01\n            /* \"RESORT/ERC20.sol\":2777:2797  balances[msg.sender] */\n          0x00\n            /* \"RESORT/ERC20.sol\":2786:2796  msg.sender */\n          caller\n            /* \"RESORT/ERC20.sol\":2777:2797  balances[msg.sender] */\n          0xffffffffffffffffffffffffffffffffffffffff\n          and\n          0xffffffffffffffffffffffffffffffffffffffff\n          and\n          dup2\n          mstore\n          0x20\n          add\n          swap1\n          dup2\n          mstore\n          0x20\n          add\n          0x00\n          keccak256\n          sload\n            /* \"RESORT/ERC20.sol\":2763:2773  _numTokens */\n          dup3\n            /* \"RESORT/ERC20.sol\":2763:2797  _numTokens <= balances[msg.sender] */\n          gt\n          iszero\n            /* \"RESORT/ERC20.sol\":2755:2798  require(_numTokens <= balances[msg.sender]) */\n          tag_67\n          jumpi\n          0x00\n          dup1\n          revert\n        tag_67:\n            /* \"RESORT/ERC20.sol\":2841:2851  _numTokens */\n          dup2\n            /* \"RESORT/ERC20.sol\":2808:2815  allowed */\n          0x02\n            /* \"RESORT/ERC20.sol\":2808:2827  allowed[msg.sender] */\n          0x00\n            /* \"RESORT/ERC20.sol\":2816:2826  msg.sender */\n          caller\n            /* \"RESORT/ERC20.sol\":2808:2827  allowed[msg.sender] */\n          0xffffffffffffffffffffffffffffffffffffffff\n          and\n          0xffffffffffffffffffffffffffffffffffffffff\n          and\n          dup2\n          mstore\n          0x20\n          add\n          swap1\n          dup2\n          mstore\n          0x20\n          add\n          0x00\n          keccak256\n            /* \"RESORT/ERC20.sol\":2808:2838  allowed[msg.sender][_delegate] */\n          0x00\n            /* \"RESORT/ERC20.sol\":2828:2837  _delegate */\n          dup6\n            /* \"RESORT/ERC20.sol\":2808:2838  allowed[msg.sender][_delegate] */\n          0xffffffffffffffffffffffffffffffffffffffff\n          and\n          0xffffffffffffffffffffffffffffffffffffffff\n          and\n          dup2\n          mstore\n          0x20\n          add\n          swap1\n          dup2\n          mstore\n          0x20\n          add\n          0x00\n          keccak256\n            /* \"RESORT/ERC20.sol\":2808:2851  allowed[msg.sender][_delegate] = _numTokens */\n          dup2\n          swap1\n          sstore\n          pop\n            /* \"RESORT/ERC20.sol\":2887:2896  _delegate */\n          dup3\n            /* \"RESORT/ERC20.sol\":2866:2909  Approval(msg.sender, _delegate, _numTokens) */\n          0xffffffffffffffffffffffffffffffffffffffff\n          and\n            /* \"RESORT/ERC20.sol\":2875:2885  msg.sender */\n          caller\n            /* \"RESORT/ERC20.sol\":2866:2909  Approval(msg.sender, _delegate, _numTokens) */\n          0xffffffffffffffffffffffffffffffffffffffff\n          and\n          0x8c5be1e5ebec7d5bd14f71427d1e84f3dd0314c0f7b2291e5b200ac8c7c3b925\n            /* \"RESORT/ERC20.sol\":2898:2908  _numTokens */\n          dup5\n            /* \"RESORT/ERC20.sol\":2866:2909  Approval(msg.sender, _delegate, _numTokens) */\n          mload(0x40)\n          tag_68\n          swap2\n          swap1\n          tag_29\n          jump\t// in\n        tag_68:\n          mload(0x40)\n          dup1\n          swap2\n          sub\n          swap1\n          log3\n            /* \"RESORT/ERC20.sol\":2926:2930  true */\n          0x01\n            /* \"RESORT/ERC20.sol\":2919:2930  return true */\n          swap1\n          pop\n            /* \"RESORT/ERC20.sol\":2659:2937  function approve(address _delegate, uint256 _numTokens) public override returns (bool){... */\n          swap3\n          swap2\n          pop\n          pop\n          jump\t// out\n            /* \"RESORT/ERC20.sol\":1462:1559  function totalSupply() public override view returns (uint256){... */\n        tag_27:\n            /* \"RESORT/ERC20.sol\":1515:1522  uint256 */\n          0x00\n            /* \"RESORT/ERC20.sol\":1540:1552  totalSupply_ */\n          sload(0x03)\n            /* \"RESORT/ERC20.sol\":1533:1552  return totalSupply_ */\n          swap1\n          pop\n            /* \"RESORT/ERC20.sol\":1462:1559  function totalSupply() public override view returns (uint256){... */\n          swap1\n          jump\t// out\n            /* \"RESORT/ERC20.sol\":3559:3727  function increaseTotalSupply(uint _newTokensAmount) public onlyOwner{... */\n        tag_33:\n            /* \"RESORT/ERC20.sol\":1252:1262  msg.sender */\n          caller\n            /* \"RESORT/ERC20.sol\":1243:1262  owner == msg.sender */\n          0xffffffffffffffffffffffffffffffffffffffff\n          and\n            /* \"RESORT/ERC20.sol\":1243:1248  owner */\n          0x00\n          dup1\n          sload\n          swap1\n          0x0100\n          exp\n          swap1\n          div\n          0xffffffffffffffffffffffffffffffffffffffff\n          and\n            /* \"RESORT/ERC20.sol\":1243:1262  owner == msg.sender */\n          0xffffffffffffffffffffffffffffffffffffffff\n          and\n          eq\n            /* \"RESORT/ERC20.sol\":1235:1279  require(owner == msg.sender,\"Must be Owner\") */\n          tag_71\n          jumpi\n          mload(0x40)\n          0x08c379a000000000000000000000000000000000000000000000000000000000\n          dup2\n          mstore\n          0x04\n          add\n          tag_72\n          swap1\n          tag_73\n          jump\t// in\n        tag_72:\n          mload(0x40)\n          dup1\n          swap2\n          sub\n          swap1\n          revert\n        tag_71:\n            /* \"RESORT/ERC20.sol\":3654:3670  _newTokensAmount */\n          dup1\n            /* \"RESORT/ERC20.sol\":3637:3649  totalSupply_ */\n          0x03\n          0x00\n            /* \"RESORT/ERC20.sol\":3637:3670  totalSupply_ +=  _newTokensAmount */\n          dup3\n          dup3\n          sload\n          tag_75\n          swap2\n          swap1\n          tag_76\n          jump\t// in\n        tag_75:\n          swap3\n          pop\n          pop\n          dup2\n          swap1\n          sstore\n          pop\n            /* \"RESORT/ERC20.sol\":3704:3720  _newTokensAmount */\n          dup1\n            /* \"RESORT/ERC20.sol\":3680:3688  balances */\n          0x01\n            /* \"RESORT/ERC20.sol\":3680:3700  balances[msg.sender] */\n          0x00\n            /* \"RESORT/ERC20.sol\":3689:3699  msg.sender */\n          caller\n            /* \"RESORT/ERC20.sol\":3680:3700  balances[msg.sender] */\n          0xffffffffffffffffffffffffffffffffffffffff\n          and\n          0xffffffffffffffffffffffffffffffffffffffff\n          and\n          dup2\n          mstore\n          0x20\n          add\n          swap1\n          dup2\n          mstore\n          0x20\n          add\n          0x00\n          keccak256\n          0x00\n            /* \"RESORT/ERC20.sol\":3680:3720  balances[msg.sender] += _newTokensAmount */\n          dup3\n          dup3\n          sload\n          tag_77\n          swap2\n          swap1\n          tag_76\n          jump\t// in\n        tag_77:\n          swap3\n          pop\n          pop\n          dup2\n          swap1\n          sstore\n          pop\n            /* \"RESORT/ERC20.sol\":3559:3727  function increaseTotalSupply(uint _newTokensAmount) public onlyOwner{... */\n          pop\n          jump\t// out\n            /* \"RESORT/ERC20.sol\":2943:3439  function transferFrom(address _owner, address _buyer, uint256 _numTokens) public override returns (bool){... */\n        tag_37:\n            /* \"RESORT/ERC20.sol\":3042:3046  bool */\n          0x00\n            /* \"RESORT/ERC20.sol\":3079:3087  balances */\n          0x01\n            /* \"RESORT/ERC20.sol\":3079:3095  balances[_owner] */\n          0x00\n            /* \"RESORT/ERC20.sol\":3088:3094  _owner */\n          dup6\n            /* \"RESORT/ERC20.sol\":3079:3095  balances[_owner] */\n          0xffffffffffffffffffffffffffffffffffffffff\n          and\n          0xffffffffffffffffffffffffffffffffffffffff\n          and\n          dup2\n          mstore\n          0x20\n          add\n          swap1\n          dup2\n          mstore\n          0x20\n          add\n          0x00\n          keccak256\n          sload\n            /* \"RESORT/ERC20.sol\":3065:3075  _numTokens */\n          dup3\n            /* \"RESORT/ERC20.sol\":3065:3095  _numTokens <= balances[_owner] */\n          gt\n          iszero\n            /* \"RESORT/ERC20.sol\":3057:3096  require(_numTokens <= balances[_owner]) */\n          tag_79\n          jumpi\n          0x00\n          dup1\n          revert\n        tag_79:\n            /* \"RESORT/ERC20.sol\":3128:3135  allowed */\n          0x02\n            /* \"RESORT/ERC20.sol\":3128:3143  allowed[_owner] */\n          0x00\n            /* \"RESORT/ERC20.sol\":3136:3142  _owner */\n          dup6\n            /* \"RESORT/ERC20.sol\":3128:3143  allowed[_owner] */\n          0xffffffffffffffffffffffffffffffffffffffff\n          and\n          0xffffffffffffffffffffffffffffffffffffffff\n          and\n          dup2\n          mstore\n          0x20\n          add\n          swap1\n          dup2\n          mstore\n          0x20\n          add\n          0x00\n          keccak256\n            /* \"RESORT/ERC20.sol\":3128:3155  allowed[_owner][msg.sender] */\n          0x00\n            /* \"RESORT/ERC20.sol\":3144:3154  msg.sender */\n          caller\n            /* \"RESORT/ERC20.sol\":3128:3155  allowed[_owner][msg.sender] */\n          0xffffffffffffffffffffffffffffffffffffffff\n          and\n          0xffffffffffffffffffffffffffffffffffffffff\n          and\n          dup2\n          mstore\n          0x20\n          add\n          swap1\n          dup2\n          mstore\n          0x20\n          add\n          0x00\n          keccak256\n          sload\n            /* \"RESORT/ERC20.sol\":3114:3124  _numTokens */\n          dup3\n            /* \"RESORT/ERC20.sol\":3114:3155  _numTokens <= allowed[_owner][msg.sender] */\n          gt\n          iszero\n            /* \"RESORT/ERC20.sol\":3106:3156  require(_numTokens <= allowed[_owner][msg.sender]) */\n          tag_80\n          jumpi\n          0x00\n          dup1\n          revert\n        tag_80:\n            /* \"RESORT/ERC20.sol\":3185:3217  balances[_owner].sub(_numTokens) */\n          tag_81\n            /* \"RESORT/ERC20.sol\":3206:3216  _numTokens */\n          dup3\n            /* \"RESORT/ERC20.sol\":3185:3193  balances */\n          0x01\n            /* \"RESORT/ERC20.sol\":3185:3201  balances[_owner] */\n          0x00\n            /* \"RESORT/ERC20.sol\":3194:3200  _owner */\n          dup8\n            /* \"RESORT/ERC20.sol\":3185:3201  balances[_owner] */\n          0xffffffffffffffffffffffffffffffffffffffff\n          and\n          0xffffffffffffffffffffffffffffffffffffffff\n          and\n          dup2\n          mstore\n          0x20\n          add\n          swap1\n          dup2\n          mstore\n          0x20\n          add\n          0x00\n          keccak256\n          sload\n            /* \"RESORT/ERC20.sol\":3185:3205  balances[_owner].sub */\n          tag_82\n          swap1\n            /* \"RESORT/ERC20.sol\":3185:3217  balances[_owner].sub(_numTokens) */\n          swap2\n          swap1\n          0xffffffff\n          and\n          jump\t// in\n        tag_81:\n            /* \"RESORT/ERC20.sol\":3166:3174  balances */\n          0x01\n            /* \"RESORT/ERC20.sol\":3166:3182  balances[_owner] */\n          0x00\n            /* \"RESORT/ERC20.sol\":3175:3181  _owner */\n          dup7\n            /* \"RESORT/ERC20.sol\":3166:3182  balances[_owner] */\n          0xffffffffffffffffffffffffffffffffffffffff\n          and\n          0xffffffffffffffffffffffffffffffffffffffff\n          and\n          dup2\n          mstore\n          0x20\n          add\n          swap1\n          dup2\n          mstore\n          0x20\n          add\n          0x00\n          keccak256\n            /* \"RESORT/ERC20.sol\":3166:3217  balances[_owner] = balances[_owner].sub(_numTokens) */\n          dup2\n          swap1\n          sstore\n          pop\n            /* \"RESORT/ERC20.sol\":3257:3300  allowed[_owner][msg.sender].sub(_numTokens) */\n          tag_83\n            /* \"RESORT/ERC20.sol\":3289:3299  _numTokens */\n          dup3\n            /* \"RESORT/ERC20.sol\":3257:3264  allowed */\n          0x02\n            /* \"RESORT/ERC20.sol\":3257:3272  allowed[_owner] */\n          0x00\n            /* \"RESORT/ERC20.sol\":3265:3271  _owner */\n          dup8\n            /* \"RESORT/ERC20.sol\":3257:3272  allowed[_owner] */\n          0xffffffffffffffffffffffffffffffffffffffff\n          and\n          0xffffffffffffffffffffffffffffffffffffffff\n          and\n          dup2\n          mstore\n          0x20\n          add\n          swap1\n          dup2\n          mstore\n          0x20\n          add\n          0x00\n          keccak256\n            /* \"RESORT/ERC20.sol\":3257:3284  allowed[_owner][msg.sender] */\n          0x00\n            /* \"RESORT/ERC20.sol\":3273:3283  msg.sender */\n          caller\n            /* \"RESORT/ERC20.sol\":3257:3284  allowed[_owner][msg.sender] */\n          0xffffffffffffffffffffffffffffffffffffffff\n          and\n          0xffffffffffffffffffffffffffffffffffffffff\n          and\n          dup2\n          mstore\n          0x20\n          add\n          swap1\n          dup2\n          mstore\n          0x20\n          add\n          0x00\n          keccak256\n          sload\n            /* \"RESORT/ERC20.sol\":3257:3288  allowed[_owner][msg.sender].sub */\n          tag_82\n          swap1\n            /* \"RESORT/ERC20.sol\":3257:3300  allowed[_owner][msg.sender].sub(_numTokens) */\n          swap2\n          swap1\n          0xffffffff\n          and\n          jump\t// in\n        tag_83:\n            /* \"RESORT/ERC20.sol\":3227:3234  allowed */\n          0x02\n            /* \"RESORT/ERC20.sol\":3227:3242  allowed[_owner] */\n          0x00\n            /* \"RESORT/ERC20.sol\":3235:3241  _owner */\n          dup7\n            /* \"RESORT/ERC20.sol\":3227:3242  allowed[_owner] */\n          0xffffffffffffffffffffffffffffffffffffffff\n          and\n          0xffffffffffffffffffffffffffffffffffffffff\n          and\n          dup2\n          mstore\n          0x20\n          add\n          swap1\n          dup2\n          mstore\n          0x20\n          add\n          0x00\n          keccak256\n            /* \"RESORT/ERC20.sol\":3227:3254  allowed[_owner][msg.sender] */\n          0x00\n            /* \"RESORT/ERC20.sol\":3243:3253  msg.sender */\n          caller\n            /* \"RESORT/ERC20.sol\":3227:3254  allowed[_owner][msg.sender] */\n          0xffffffffffffffffffffffffffffffffffffffff\n          and\n          0xffffffffffffffffffffffffffffffffffffffff\n          and\n          dup2\n          mstore\n          0x20\n          add\n          swap1\n          dup2\n          mstore\n          0x20\n          add\n          0x00\n          keccak256\n            /* \"RESORT/ERC20.sol\":3227:3300  allowed[_owner][msg.sender] = allowed[_owner][msg.sender].sub(_numTokens) */\n          dup2\n          swap1\n          sstore\n          pop\n            /* \"RESORT/ERC20.sol\":3329:3361  balances[_buyer].add(_numTokens) */\n          tag_84\n            /* \"RESORT/ERC20.sol\":3350:3360  _numTokens */\n          dup3\n            /* \"RESORT/ERC20.sol\":3329:3337  balances */\n          0x01\n            /* \"RESORT/ERC20.sol\":3329:3345  balances[_buyer] */\n          0x00\n            /* \"RESORT/ERC20.sol\":3338:3344  _buyer */\n          dup7\n            /* \"RESORT/ERC20.sol\":3329:3345  balances[_buyer] */\n          0xffffffffffffffffffffffffffffffffffffffff\n          and\n          0xffffffffffffffffffffffffffffffffffffffff\n          and\n          dup2\n          mstore\n          0x20\n          add\n          swap1\n          dup2\n          mstore\n          0x20\n          add\n          0x00\n          keccak256\n          sload\n            /* \"RESORT/ERC20.sol\":3329:3349  balances[_buyer].add */\n          tag_85\n          swap1\n            /* \"RESORT/ERC20.sol\":3329:3361  balances[_buyer].add(_numTokens) */\n          swap2\n          swap1\n          0xffffffff\n          and\n          jump\t// in\n        tag_84:\n            /* \"RESORT/ERC20.sol\":3310:3318  balances */\n          0x01\n            /* \"RESORT/ERC20.sol\":3310:3326  balances[_buyer] */\n          0x00\n            /* \"RESORT/ERC20.sol\":3319:3325  _buyer */\n          dup6\n            /* \"RESORT/ERC20.sol\":3310:3326  balances[_buyer] */\n          0xffffffffffffffffffffffffffffffffffffffff\n          and\n          0xffffffffffffffffffffffffffffffffffffffff\n          and\n          dup2\n          mstore\n          0x20\n          add\n          swap1\n          dup2\n          mstore\n          0x20\n          add\n          0x00\n          keccak256\n            /* \"RESORT/ERC20.sol\":3310:3361  balances[_buyer] = balances[_buyer].add(_numTokens) */\n          dup2\n          swap1\n          sstore\n          pop\n            /* \"RESORT/ERC20.sol\":3392:3398  _buyer */\n          dup3\n            /* \"RESORT/ERC20.sol\":3376:3410  Transfer(_owner,_buyer,_numTokens) */\n          0xffffffffffffffffffffffffffffffffffffffff\n          and\n            /* \"RESORT/ERC20.sol\":3385:3391  _owner */\n          dup5\n            /* \"RESORT/ERC20.sol\":3376:3410  Transfer(_owner,_buyer,_numTokens) */\n          0xffffffffffffffffffffffffffffffffffffffff\n          and\n          0xddf252ad1be2c89b69c2b068fc378daa952ba7f163c4a11628f55a4df523b3ef\n            /* \"RESORT/ERC20.sol\":3399:3409  _numTokens */\n          dup5\n            /* \"RESORT/ERC20.sol\":3376:3410  Transfer(_owner,_buyer,_numTokens) */\n          mload(0x40)\n          tag_86\n          swap2\n          swap1\n          tag_29\n          jump\t// in\n        tag_86:\n          mload(0x40)\n          dup1\n          swap2\n          sub\n          swap1\n          log3\n            /* \"RESORT/ERC20.sol\":3427:3432  false */\n          0x00\n            /* \"RESORT/ERC20.sol\":3420:3432  return false */\n          swap1\n          pop\n            /* \"RESORT/ERC20.sol\":2943:3439  function transferFrom(address _owner, address _buyer, uint256 _numTokens) public override returns (bool){... */\n          swap4\n          swap3\n          pop\n          pop\n          pop\n          jump\t// out\n            /* \"RESORT/ERC20.sol\":984:1019  uint8 public constant decimals = 18 */\n        tag_40:\n            /* \"RESORT/ERC20.sol\":1017:1019  18 */\n          0x12\n            /* \"RESORT/ERC20.sol\":984:1019  uint8 public constant decimals = 18 */\n          dup2\n          jump\t// out\n            /* \"RESORT/ERC20.sol\":1565:1687  function balanceOf(address _tokenOwner) public override view returns(uint256){... */\n        tag_46:\n            /* \"RESORT/ERC20.sol\":1634:1641  uint256 */\n          0x00\n            /* \"RESORT/ERC20.sol\":1659:1667  balances */\n          0x01\n            /* \"RESORT/ERC20.sol\":1659:1680  balances[_tokenOwner] */\n          0x00\n            /* \"RESORT/ERC20.sol\":1668:1679  _tokenOwner */\n          dup4\n            /* \"RESORT/ERC20.sol\":1659:1680  balances[_tokenOwner] */\n          0xffffffffffffffffffffffffffffffffffffffff\n          and\n          0xffffffffffffffffffffffffffffffffffffffff\n          and\n          dup2\n          mstore\n          0x20\n          add\n          swap1\n          dup2\n          mstore\n          0x20\n          add\n          0x00\n          keccak256\n          sload\n            /* \"RESORT/ERC20.sol\":1652:1680  return balances[_tokenOwner] */\n          swap1\n          pop\n            /* \"RESORT/ERC20.sol\":1565:1687  function balanceOf(address _tokenOwner) public override view returns(uint256){... */\n          swap2\n          swap1\n          pop\n          jump\t// out\n            /* \"RESORT/ERC20.sol\":3472:3552  function renounceOwnership() public onlyOwner{... */\n        tag_49:\n            /* \"RESORT/ERC20.sol\":1252:1262  msg.sender */\n          caller\n            /* \"RESORT/ERC20.sol\":1243:1262  owner == msg.sender */\n          0xffffffffffffffffffffffffffffffffffffffff\n          and\n            /* \"RESORT/ERC20.sol\":1243:1248  owner */\n          0x00\n          dup1\n          sload\n          swap1\n          0x0100\n          exp\n          swap1\n          div\n          0xffffffffffffffffffffffffffffffffffffffff\n          and\n            /* \"RESORT/ERC20.sol\":1243:1262  owner == msg.sender */\n          0xffffffffffffffffffffffffffffffffffffffff\n          and\n          eq\n            /* \"RESORT/ERC20.sol\":1235:1279  require(owner == msg.sender,\"Must be Owner\") */\n          tag_89\n          jumpi\n          mload(0x40)\n          0x08c379a000000000000000000000000000000000000000000000000000000000\n          dup2\n          mstore\n          0x04\n          add\n          tag_90\n          swap1\n          tag_73\n          jump\t// in\n        tag_90:\n          mload(0x40)\n          dup1\n          swap2\n          sub\n          swap1\n          revert\n        tag_89:\n            /* \"RESORT/ERC20.sol\":3543:3544  0 */\n          0x00\n            /* \"RESORT/ERC20.sol\":3527:3532  owner */\n          dup1\n          0x00\n            /* \"RESORT/ERC20.sol\":3527:3545  owner = address(0) */\n          0x0100\n          exp\n          dup2\n          sload\n          dup2\n          0xffffffffffffffffffffffffffffffffffffffff\n          mul\n          not\n          and\n          swap1\n          dup4\n          0xffffffffffffffffffffffffffffffffffffffff\n          and\n          mul\n          or\n          swap1\n          sstore\n          pop\n            /* \"RESORT/ERC20.sol\":3472:3552  function renounceOwnership() public onlyOwner{... */\n          jump\t// out\n            /* \"RESORT/ERC20.sol\":941:978  string public constant symbol = \"RST\" */\n        tag_51:\n          mload(0x40)\n          dup1\n          0x40\n          add\n          0x40\n          mstore\n          dup1\n          0x03\n          dup2\n          mstore\n          0x20\n          add\n          0x5253540000000000000000000000000000000000000000000000000000000000\n          dup2\n          mstore\n          pop\n          dup2\n          jump\t// out\n            /* \"RESORT/ERC20.sol\":1870:2234  function transfer(address _recipient, uint256 _numTokens) public override returns (bool){... */\n        tag_55:\n            /* \"RESORT/ERC20.sol\":1953:1957  bool */\n          0x00\n            /* \"RESORT/ERC20.sol\":1990:1998  balances */\n          0x01\n            /* \"RESORT/ERC20.sol\":1990:2010  balances[msg.sender] */\n          0x00\n            /* \"RESORT/ERC20.sol\":1999:2009  msg.sender */\n          caller\n            /* \"RESORT/ERC20.sol\":1990:2010  balances[msg.sender] */\n          0xffffffffffffffffffffffffffffffffffffffff\n          and\n          0xffffffffffffffffffffffffffffffffffffffff\n          and\n          dup2\n          mstore\n          0x20\n          add\n          swap1\n          dup2\n          mstore\n          0x20\n          add\n          0x00\n          keccak256\n          sload\n            /* \"RESORT/ERC20.sol\":1976:1986  _numTokens */\n          dup3\n            /* \"RESORT/ERC20.sol\":1976:2010  _numTokens <= balances[msg.sender] */\n          gt\n          iszero\n            /* \"RESORT/ERC20.sol\":1968:2011  require(_numTokens <= balances[msg.sender]) */\n          tag_93\n          jumpi\n          0x00\n          dup1\n          revert\n        tag_93:\n            /* \"RESORT/ERC20.sol\":2044:2080  balances[msg.sender].sub(_numTokens) */\n          tag_94\n            /* \"RESORT/ERC20.sol\":2069:2079  _numTokens */\n          dup3\n            /* \"RESORT/ERC20.sol\":2044:2052  balances */\n          0x01\n            /* \"RESORT/ERC20.sol\":2044:2064  balances[msg.sender] */\n          0x00\n            /* \"RESORT/ERC20.sol\":2053:2063  msg.sender */\n          caller\n            /* \"RESORT/ERC20.sol\":2044:2064  balances[msg.sender] */\n          0xffffffffffffffffffffffffffffffffffffffff\n          and\n          0xffffffffffffffffffffffffffffffffffffffff\n          and\n          dup2\n          mstore\n          0x20\n          add\n          swap1\n          dup2\n          mstore\n          0x20\n          add\n          0x00\n          keccak256\n          sload\n            /* \"RESORT/ERC20.sol\":2044:2068  balances[msg.sender].sub */\n          tag_82\n          swap1\n            /* \"RESORT/ERC20.sol\":2044:2080  balances[msg.sender].sub(_numTokens) */\n          swap2\n          swap1\n          0xffffffff\n          and\n          jump\t// in\n        tag_94:\n            /* \"RESORT/ERC20.sol\":2021:2029  balances */\n          0x01\n            /* \"RESORT/ERC20.sol\":2021:2041  balances[msg.sender] */\n          0x00\n            /* \"RESORT/ERC20.sol\":2030:2040  msg.sender */\n          caller\n            /* \"RESORT/ERC20.sol\":2021:2041  balances[msg.sender] */\n          0xffffffffffffffffffffffffffffffffffffffff\n          and\n          0xffffffffffffffffffffffffffffffffffffffff\n          and\n          dup2\n          mstore\n          0x20\n          add\n          swap1\n          dup2\n          mstore\n          0x20\n          add\n          0x00\n          keccak256\n            /* \"RESORT/ERC20.sol\":2021:2080  balances[msg.sender] = balances[msg.sender].sub(_numTokens) */\n          dup2\n          swap1\n          sstore\n          pop\n            /* \"RESORT/ERC20.sol\":2113:2149  balances[_recipient].add(_numTokens) */\n          tag_95\n            /* \"RESORT/ERC20.sol\":2138:2148  _numTokens */\n          dup3\n            /* \"RESORT/ERC20.sol\":2113:2121  balances */\n          0x01\n            /* \"RESORT/ERC20.sol\":2113:2133  balances[_recipient] */\n          0x00\n            /* \"RESORT/ERC20.sol\":2122:2132  _recipient */\n          dup7\n            /* \"RESORT/ERC20.sol\":2113:2133  balances[_recipient] */\n          0xffffffffffffffffffffffffffffffffffffffff\n          and\n          0xffffffffffffffffffffffffffffffffffffffff\n          and\n          dup2\n          mstore\n          0x20\n          add\n          swap1\n          dup2\n          mstore\n          0x20\n          add\n          0x00\n          keccak256\n          sload\n            /* \"RESORT/ERC20.sol\":2113:2137  balances[_recipient].add */\n          tag_85\n          swap1\n            /* \"RESORT/ERC20.sol\":2113:2149  balances[_recipient].add(_numTokens) */\n          swap2\n          swap1\n          0xffffffff\n          and\n          jump\t// in\n        tag_95:\n            /* \"RESORT/ERC20.sol\":2090:2098  balances */\n          0x01\n            /* \"RESORT/ERC20.sol\":2090:2110  balances[_recipient] */\n          0x00\n            /* \"RESORT/ERC20.sol\":2099:2109  _recipient */\n          dup6\n            /* \"RESORT/ERC20.sol\":2090:2110  balances[_recipient] */\n          0xffffffffffffffffffffffffffffffffffffffff\n          and\n          0xffffffffffffffffffffffffffffffffffffffff\n          and\n          dup2\n          mstore\n          0x20\n          add\n          swap1\n          dup2\n          mstore\n          0x20\n          add\n          0x00\n          keccak256\n            /* \"RESORT/ERC20.sol\":2090:2149  balances[_recipient] = balances[_recipient].add(_numTokens) */\n          dup2\n          swap1\n          sstore\n          pop\n            /* \"RESORT/ERC20.sol\":2184:2194  _recipient */\n          dup3\n            /* \"RESORT/ERC20.sol\":2164:2206  Transfer(msg.sender,_recipient,_numTokens) */\n          0xffffffffffffffffffffffffffffffffffffffff\n          and\n            /* \"RESORT/ERC20.sol\":2173:2183  msg.sender */\n          caller\n            /* \"RESORT/ERC20.sol\":2164:2206  Transfer(msg.sender,_recipient,_numTokens) */\n          0xffffffffffffffffffffffffffffffffffffffff\n          and\n          0xddf252ad1be2c89b69c2b068fc378daa952ba7f163c4a11628f55a4df523b3ef\n            /* \"RESORT/ERC20.sol\":2195:2205  _numTokens */\n          dup5\n            /* \"RESORT/ERC20.sol\":2164:2206  Transfer(msg.sender,_recipient,_numTokens) */\n          mload(0x40)\n          tag_96\n          swap2\n          swap1\n          tag_29\n          jump\t// in\n        tag_96:\n          mload(0x40)\n          dup1\n          swap2\n          sub\n          swap1\n          log3\n            /* \"RESORT/ERC20.sol\":2223:2227  true */\n          0x01\n            /* \"RESORT/ERC20.sol\":2216:2227  return true */\n          swap1\n          pop\n            /* \"RESORT/ERC20.sol\":1870:2234  function transfer(address _recipient, uint256 _numTokens) public override returns (bool){... */\n          swap3\n          swap2\n          pop\n          pop\n          jump\t// out\n            /* \"RESORT/ERC20.sol\":1693:1834  function allowance(address _owner, address _delegate) public override view returns(uint256){... */\n        tag_60:\n            /* \"RESORT/ERC20.sol\":1776:1783  uint256 */\n          0x00\n            /* \"RESORT/ERC20.sol\":1801:1808  allowed */\n          0x02\n            /* \"RESORT/ERC20.sol\":1801:1816  allowed[_owner] */\n          0x00\n            /* \"RESORT/ERC20.sol\":1809:1815  _owner */\n          dup5\n            /* \"RESORT/ERC20.sol\":1801:1816  allowed[_owner] */\n          0xffffffffffffffffffffffffffffffffffffffff\n          and\n          0xffffffffffffffffffffffffffffffffffffffff\n          and\n          dup2\n          mstore\n          0x20\n          add\n          swap1\n          dup2\n          mstore\n          0x20\n          add\n          0x00\n          keccak256\n            /* \"RESORT/ERC20.sol\":1801:1827  allowed[_owner][_delegate] */\n          0x00\n            /* \"RESORT/ERC20.sol\":1817:1826  _delegate */\n          dup4\n            /* \"RESORT/ERC20.sol\":1801:1827  allowed[_owner][_delegate] */\n          0xffffffffffffffffffffffffffffffffffffffff\n          and\n          0xffffffffffffffffffffffffffffffffffffffff\n          and\n          dup2\n          mstore\n          0x20\n          add\n          swap1\n          dup2\n          mstore\n          0x20\n          add\n          0x00\n          keccak256\n          sload\n            /* \"RESORT/ERC20.sol\":1794:1827  return allowed[_owner][_delegate] */\n          swap1\n          pop\n            /* \"RESORT/ERC20.sol\":1693:1834  function allowance(address _owner, address _delegate) public override view returns(uint256){... */\n          swap3\n          swap2\n          pop\n          pop\n          jump\t// out\n            /* \"RESORT/ERC20.sol\":2268:2653  function transferFromClient(address _client, address _recipient, uint256 _numTokens) public override returns (bool){... */\n        tag_64:\n            /* \"RESORT/ERC20.sol\":2378:2382  bool */\n          0x00\n            /* \"RESORT/ERC20.sol\":2415:2423  balances */\n          0x01\n            /* \"RESORT/ERC20.sol\":2415:2432  balances[_client] */\n          0x00\n            /* \"RESORT/ERC20.sol\":2424:2431  _client */\n          dup6\n            /* \"RESORT/ERC20.sol\":2415:2432  balances[_client] */\n          0xffffffffffffffffffffffffffffffffffffffff\n          and\n          0xffffffffffffffffffffffffffffffffffffffff\n          and\n          dup2\n          mstore\n          0x20\n          add\n          swap1\n          dup2\n          mstore\n          0x20\n          add\n          0x00\n          keccak256\n          sload\n            /* \"RESORT/ERC20.sol\":2401:2411  _numTokens */\n          dup3\n            /* \"RESORT/ERC20.sol\":2401:2432  _numTokens <= balances[_client] */\n          gt\n          iszero\n            /* \"RESORT/ERC20.sol\":2393:2433  require(_numTokens <= balances[_client]) */\n          tag_99\n          jumpi\n          0x00\n          dup1\n          revert\n        tag_99:\n            /* \"RESORT/ERC20.sol\":2463:2499  balances[msg.sender].sub(_numTokens) */\n          tag_100\n            /* \"RESORT/ERC20.sol\":2488:2498  _numTokens */\n          dup3\n            /* \"RESORT/ERC20.sol\":2463:2471  balances */\n          0x01\n            /* \"RESORT/ERC20.sol\":2463:2483  balances[msg.sender] */\n          0x00\n            /* \"RESORT/ERC20.sol\":2472:2482  msg.sender */\n          caller\n            /* \"RESORT/ERC20.sol\":2463:2483  balances[msg.sender] */\n          0xffffffffffffffffffffffffffffffffffffffff\n          and\n          0xffffffffffffffffffffffffffffffffffffffff\n          and\n          dup2\n          mstore\n          0x20\n          add\n          swap1\n          dup2\n          mstore\n          0x20\n          add\n          0x00\n          keccak256\n          sload\n            /* \"RESORT/ERC20.sol\":2463:2487  balances[msg.sender].sub */\n          tag_82\n          swap1\n            /* \"RESORT/ERC20.sol\":2463:2499  balances[msg.sender].sub(_numTokens) */\n          swap2\n          swap1\n          0xffffffff\n          and\n          jump\t// in\n        tag_100:\n            /* \"RESORT/ERC20.sol\":2443:2451  balances */\n          0x01\n            /* \"RESORT/ERC20.sol\":2443:2460  balances[_client] */\n          0x00\n            /* \"RESORT/ERC20.sol\":2452:2459  _client */\n          dup7\n            /* \"RESORT/ERC20.sol\":2443:2460  balances[_client] */\n          0xffffffffffffffffffffffffffffffffffffffff\n          and\n          0xffffffffffffffffffffffffffffffffffffffff\n          and\n          dup2\n          mstore\n          0x20\n          add\n          swap1\n          dup2\n          mstore\n          0x20\n          add\n          0x00\n          keccak256\n            /* \"RESORT/ERC20.sol\":2443:2499  balances[_client] = balances[msg.sender].sub(_numTokens) */\n          dup2\n          swap1\n          sstore\n          pop\n            /* \"RESORT/ERC20.sol\":2532:2568  balances[_recipient].add(_numTokens) */\n          tag_101\n            /* \"RESORT/ERC20.sol\":2557:2567  _numTokens */\n          dup3\n            /* \"RESORT/ERC20.sol\":2532:2540  balances */\n          0x01\n            /* \"RESORT/ERC20.sol\":2532:2552  balances[_recipient] */\n          0x00\n            /* \"RESORT/ERC20.sol\":2541:2551  _recipient */\n          dup7\n            /* \"RESORT/ERC20.sol\":2532:2552  balances[_recipient] */\n          0xffffffffffffffffffffffffffffffffffffffff\n          and\n          0xffffffffffffffffffffffffffffffffffffffff\n          and\n          dup2\n          mstore\n          0x20\n          add\n          swap1\n          dup2\n          mstore\n          0x20\n          add\n          0x00\n          keccak256\n          sload\n            /* \"RESORT/ERC20.sol\":2532:2556  balances[_recipient].add */\n          tag_85\n          swap1\n            /* \"RESORT/ERC20.sol\":2532:2568  balances[_recipient].add(_numTokens) */\n          swap2\n          swap1\n          0xffffffff\n          and\n          jump\t// in\n        tag_101:\n            /* \"RESORT/ERC20.sol\":2509:2517  balances */\n          0x01\n            /* \"RESORT/ERC20.sol\":2509:2529  balances[_recipient] */\n          0x00\n            /* \"RESORT/ERC20.sol\":2518:2528  _recipient */\n          dup6\n            /* \"RESORT/ERC20.sol\":2509:2529  balances[_recipient] */\n          0xffffffffffffffffffffffffffffffffffffffff\n          and\n          0xffffffffffffffffffffffffffffffffffffffff\n          and\n          dup2\n          mstore\n          0x20\n          add\n          swap1\n          dup2\n          mstore\n          0x20\n          add\n          0x00\n          keccak256\n            /* \"RESORT/ERC20.sol\":2509:2568  balances[_recipient] = balances[_recipient].add(_numTokens) */\n          dup2\n          swap1\n          sstore\n          pop\n            /* \"RESORT/ERC20.sol\":2603:2613  _recipient */\n          dup3\n            /* \"RESORT/ERC20.sol\":2583:2625  Transfer(msg.sender,_recipient,_numTokens) */\n          0xffffffffffffffffffffffffffffffffffffffff\n          and\n            /* \"RESORT/ERC20.sol\":2592:2602  msg.sender */\n          caller\n            /* \"RESORT/ERC20.sol\":2583:2625  Transfer(msg.sender,_recipient,_numTokens) */\n          0xffffffffffffffffffffffffffffffffffffffff\n          and\n          0xddf252ad1be2c89b69c2b068fc378daa952ba7f163c4a11628f55a4df523b3ef\n            /* \"RESORT/ERC20.sol\":2614:2624  _numTokens */\n          dup5\n            /* \"RESORT/ERC20.sol\":2583:2625  Transfer(msg.sender,_recipient,_numTokens) */\n          mload(0x40)\n          tag_102\n          swap2\n          swap1\n          tag_29\n          jump\t// in\n        tag_102:\n          mload(0x40)\n          dup1\n          swap2\n          sub\n          swap1\n          log3\n            /* \"RESORT/ERC20.sol\":2642:2646  true */\n          0x01\n            /* \"RESORT/ERC20.sol\":2635:2646  return true */\n          swap1\n          pop\n            /* \"RESORT/ERC20.sol\":2268:2653  function transferFromClient(address _client, address _recipient, uint256 _numTokens) public override returns (bool){... */\n          swap4\n          swap3\n          pop\n          pop\n          pop\n          jump\t// out\n            /* \"RESORT/SafeMath.sol\":867:977  function sub(uint256 a, uint256 b) internal pure returns (uint256) {... */\n        tag_82:\n            /* \"RESORT/SafeMath.sol\":925:932  uint256 */\n          0x00\n            /* \"RESORT/SafeMath.sol\":952:953  a */\n          dup3\n            /* \"RESORT/SafeMath.sol\":947:948  b */\n          dup3\n            /* \"RESORT/SafeMath.sol\":947:953  b <= a */\n          gt\n          iszero\n            /* \"RESORT/SafeMath.sol\":940:954  assert(b <= a) */\n          tag_104\n          jumpi\n          tag_105\n          tag_106\n          jump\t// in\n        tag_105:\n        tag_104:\n            /* \"RESORT/SafeMath.sol\":971:972  b */\n          dup2\n            /* \"RESORT/SafeMath.sol\":967:968  a */\n          dup4\n            /* \"RESORT/SafeMath.sol\":967:972  a - b */\n          tag_107\n          swap2\n          swap1\n          tag_108\n          jump\t// in\n        tag_107:\n            /* \"RESORT/SafeMath.sol\":960:972  return a - b */\n          swap1\n          pop\n            /* \"RESORT/SafeMath.sol\":867:977  function sub(uint256 a, uint256 b) internal pure returns (uint256) {... */\n          swap3\n          swap2\n          pop\n          pop\n          jump\t// out\n            /* \"RESORT/SafeMath.sol\":1039:1162  function add(uint256 a, uint256 b) internal pure returns (uint256 c) {... */\n        tag_85:\n            /* \"RESORT/SafeMath.sol\":1097:1106  uint256 c */\n          0x00\n            /* \"RESORT/SafeMath.sol\":1122:1123  b */\n          dup2\n            /* \"RESORT/SafeMath.sol\":1118:1119  a */\n          dup4\n            /* \"RESORT/SafeMath.sol\":1118:1123  a + b */\n          tag_110\n          swap2\n          swap1\n          tag_76\n          jump\t// in\n        tag_110:\n            /* \"RESORT/SafeMath.sol\":1114:1123  c = a + b */\n          swap1\n          pop\n            /* \"RESORT/SafeMath.sol\":1141:1142  a */\n          dup3\n            /* \"RESORT/SafeMath.sol\":1136:1137  c */\n          dup2\n            /* \"RESORT/SafeMath.sol\":1136:1142  c >= a */\n          lt\n          iszero\n            /* \"RESORT/SafeMath.sol\":1129:1143  assert(c >= a) */\n          tag_111\n          jumpi\n          tag_112\n          tag_106\n          jump\t// in\n        tag_112:\n        tag_111:\n            /* \"RESORT/SafeMath.sol\":1039:1162  function add(uint256 a, uint256 b) internal pure returns (uint256 c) {... */\n          swap3\n          swap2\n          pop\n          pop\n          jump\t// out\n            /* \"#utility.yul\":7:106   */\n        tag_113:\n            /* \"#utility.yul\":59:65   */\n          0x00\n            /* \"#utility.yul\":93:98   */\n          dup2\n            /* \"#utility.yul\":87:99   */\n          mload\n            /* \"#utility.yul\":77:99   */\n          swap1\n          pop\n            /* \"#utility.yul\":7:106   */\n          swap2\n          swap1\n          pop\n          jump\t// out\n            /* \"#utility.yul\":112:281   */\n        tag_114:\n            /* \"#utility.yul\":196:207   */\n          0x00\n            /* \"#utility.yul\":230:236   */\n          dup3\n            /* \"#utility.yul\":225:228   */\n          dup3\n            /* \"#utility.yul\":218:237   */\n          mstore\n            /* \"#utility.yul\":270:274   */\n          0x20\n            /* \"#utility.yul\":265:268   */\n          dup3\n            /* \"#utility.yul\":261:275   */\n          add\n            /* \"#utility.yul\":246:275   */\n          swap1\n          pop\n            /* \"#utility.yul\":112:281   */\n          swap3\n          swap2\n          pop\n          pop\n          jump\t// out\n            /* \"#utility.yul\":287:533   */\n        tag_115:\n            /* \"#utility.yul\":368:369   */\n          0x00\n            /* \"#utility.yul\":378:491   */\n        tag_140:\n            /* \"#utility.yul\":392:398   */\n          dup4\n            /* \"#utility.yul\":389:390   */\n          dup2\n            /* \"#utility.yul\":386:399   */\n          lt\n            /* \"#utility.yul\":378:491   */\n          iszero\n          tag_142\n          jumpi\n            /* \"#utility.yul\":477:478   */\n          dup1\n            /* \"#utility.yul\":472:475   */\n          dup3\n            /* \"#utility.yul\":468:479   */\n          add\n            /* \"#utility.yul\":462:480   */\n          mload\n            /* \"#utility.yul\":458:459   */\n          dup2\n            /* \"#utility.yul\":453:456   */\n          dup5\n            /* \"#utility.yul\":449:460   */\n          add\n            /* \"#utility.yul\":442:481   */\n          mstore\n            /* \"#utility.yul\":414:416   */\n          0x20\n            /* \"#utility.yul\":411:412   */\n          dup2\n            /* \"#utility.yul\":407:417   */\n          add\n            /* \"#utility.yul\":402:417   */\n          swap1\n          pop\n            /* \"#utility.yul\":378:491   */\n          jump(tag_140)\n        tag_142:\n            /* \"#utility.yul\":525:526   */\n          0x00\n            /* \"#utility.yul\":516:522   */\n          dup5\n            /* \"#utility.yul\":511:514   */\n          dup5\n            /* \"#utility.yul\":507:523   */\n          add\n            /* \"#utility.yul\":500:527   */\n          mstore\n            /* \"#utility.yul\":349:533   */\n          pop\n            /* \"#utility.yul\":287:533   */\n          pop\n          pop\n          pop\n          jump\t// out\n            /* \"#utility.yul\":539:641   */\n        tag_116:\n            /* \"#utility.yul\":580:586   */\n          0x00\n            /* \"#utility.yul\":631:633   */\n          0x1f\n            /* \"#utility.yul\":627:634   */\n          not\n            /* \"#utility.yul\":622:624   */\n          0x1f\n            /* \"#utility.yul\":615:620   */\n          dup4\n            /* \"#utility.yul\":611:625   */\n          add\n            /* \"#utility.yul\":607:635   */\n          and\n            /* \"#utility.yul\":597:635   */\n          swap1\n          pop\n            /* \"#utility.yul\":539:641   */\n          swap2\n          swap1\n          pop\n          jump\t// out\n            /* \"#utility.yul\":647:1024   */\n        tag_117:\n            /* \"#utility.yul\":735:738   */\n          0x00\n            /* \"#utility.yul\":763:802   */\n          tag_145\n            /* \"#utility.yul\":796:801   */\n          dup3\n            /* \"#utility.yul\":763:802   */\n          tag_113\n          jump\t// in\n        tag_145:\n            /* \"#utility.yul\":818:889   */\n          tag_146\n            /* \"#utility.yul\":882:888   */\n          dup2\n            /* \"#utility.yul\":877:880   */\n          dup6\n            /* \"#utility.yul\":818:889   */\n          tag_114\n          jump\t// in\n        tag_146:\n            /* \"#utility.yul\":811:889   */\n          swap4\n          pop\n            /* \"#utility.yul\":898:963   */\n          tag_147\n            /* \"#utility.yul\":956:962   */\n          dup2\n            /* \"#utility.yul\":951:954   */\n          dup6\n            /* \"#utility.yul\":944:948   */\n          0x20\n            /* \"#utility.yul\":937:942   */\n          dup7\n            /* \"#utility.yul\":933:949   */\n          add\n            /* \"#utility.yul\":898:963   */\n          tag_115\n          jump\t// in\n        tag_147:\n            /* \"#utility.yul\":988:1017   */\n          tag_148\n            /* \"#utility.yul\":1010:1016   */\n          dup2\n            /* \"#utility.yul\":988:1017   */\n          tag_116\n          jump\t// in\n        tag_148:\n            /* \"#utility.yul\":983:986   */\n          dup5\n            /* \"#utility.yul\":979:1018   */\n          add\n            /* \"#utility.yul\":972:1018   */\n          swap2\n          pop\n            /* \"#utility.yul\":739:1024   */\n          pop\n            /* \"#utility.yul\":647:1024   */\n          swap3\n          swap2\n          pop\n          pop\n          jump\t// out\n            /* \"#utility.yul\":1030:1343   */\n        tag_19:\n            /* \"#utility.yul\":1143:1147   */\n          0x00\n            /* \"#utility.yul\":1181:1183   */\n          0x20\n            /* \"#utility.yul\":1170:1179   */\n          dup3\n            /* \"#utility.yul\":1166:1184   */\n          add\n            /* \"#utility.yul\":1158:1184   */\n          swap1\n          pop\n            /* \"#utility.yul\":1230:1239   */\n          dup2\n            /* \"#utility.yul\":1224:1228   */\n          dup2\n            /* \"#utility.yul\":1220:1240   */\n          sub\n            /* \"#utility.yul\":1216:1217   */\n          0x00\n            /* \"#utility.yul\":1205:1214   */\n          dup4\n            /* \"#utility.yul\":1201:1218   */\n          add\n            /* \"#utility.yul\":1194:1241   */\n          mstore\n            /* \"#utility.yul\":1258:1336   */\n          tag_150\n            /* \"#utility.yul\":1331:1335   */\n          dup2\n            /* \"#utility.yul\":1322:1328   */\n          dup5\n            /* \"#utility.yul\":1258:1336   */\n          tag_117\n          jump\t// in\n        tag_150:\n            /* \"#utility.yul\":1250:1336   */\n          swap1\n          pop\n            /* \"#utility.yul\":1030:1343   */\n          swap3\n          swap2\n          pop\n          pop\n          jump\t// out\n            /* \"#utility.yul\":1430:1547   */\n        tag_119:\n            /* \"#utility.yul\":1539:1540   */\n          0x00\n            /* \"#utility.yul\":1536:1537   */\n          dup1\n            /* \"#utility.yul\":1529:1541   */\n          revert\n            /* \"#utility.yul\":1676:1802   */\n        tag_121:\n            /* \"#utility.yul\":1713:1720   */\n          0x00\n            /* \"#utility.yul\":1753:1795   */\n          0xffffffffffffffffffffffffffffffffffffffff\n            /* \"#utility.yul\":1746:1751   */\n          dup3\n            /* \"#utility.yul\":1742:1796   */\n          and\n            /* \"#utility.yul\":1731:1796   */\n          swap1\n          pop\n            /* \"#utility.yul\":1676:1802   */\n          swap2\n          swap1\n          pop\n          jump\t// out\n            /* \"#utility.yul\":1808:1904   */\n        tag_122:\n            /* \"#utility.yul\":1845:1852   */\n          0x00\n            /* \"#utility.yul\":1874:1898   */\n          tag_156\n            /* \"#utility.yul\":1892:1897   */\n          dup3\n            /* \"#utility.yul\":1874:1898   */\n          tag_121\n          jump\t// in\n        tag_156:\n            /* \"#utility.yul\":1863:1898   */\n          swap1\n          pop\n            /* \"#utility.yul\":1808:1904   */\n          swap2\n          swap1\n          pop\n          jump\t// out\n            /* \"#utility.yul\":1910:2032   */\n        tag_123:\n            /* \"#utility.yul\":1983:2007   */\n          tag_158\n            /* \"#utility.yul\":2001:2006   */\n          dup2\n            /* \"#utility.yul\":1983:2007   */\n          tag_122\n          jump\t// in\n        tag_158:\n            /* \"#utility.yul\":1976:1981   */\n          dup2\n            /* \"#utility.yul\":1973:2008   */\n          eq\n            /* \"#utility.yul\":1963:2026   */\n          tag_159\n          jumpi\n            /* \"#utility.yul\":2022:2023   */\n          0x00\n            /* \"#utility.yul\":2019:2020   */\n          dup1\n            /* \"#utility.yul\":2012:2024   */\n          revert\n            /* \"#utility.yul\":1963:2026   */\n        tag_159:\n            /* \"#utility.yul\":1910:2032   */\n          pop\n          jump\t// out\n            /* \"#utility.yul\":2038:2177   */\n        tag_124:\n            /* \"#utility.yul\":2084:2089   */\n          0x00\n            /* \"#utility.yul\":2122:2128   */\n          dup2\n            /* \"#utility.yul\":2109:2129   */\n          calldataload\n            /* \"#utility.yul\":2100:2129   */\n          swap1\n          pop\n            /* \"#utility.yul\":2138:2171   */\n          tag_161\n            /* \"#utility.yul\":2165:2170   */\n          dup2\n            /* \"#utility.yul\":2138:2171   */\n          tag_123\n          jump\t// in\n        tag_161:\n            /* \"#utility.yul\":2038:2177   */\n          swap3\n          swap2\n          pop\n          pop\n          jump\t// out\n            /* \"#utility.yul\":2183:2260   */\n        tag_125:\n            /* \"#utility.yul\":2220:2227   */\n          0x00\n            /* \"#utility.yul\":2249:2254   */\n          dup2\n            /* \"#utility.yul\":2238:2254   */\n          swap1\n          pop\n            /* \"#utility.yul\":2183:2260   */\n          swap2\n          swap1\n          pop\n          jump\t// out\n            /* \"#utility.yul\":2266:2388   */\n        tag_126:\n            /* \"#utility.yul\":2339:2363   */\n          tag_164\n            /* \"#utility.yul\":2357:2362   */\n          dup2\n            /* \"#utility.yul\":2339:2363   */\n          tag_125\n          jump\t// in\n        tag_164:\n            /* \"#utility.yul\":2332:2337   */\n          dup2\n            /* \"#utility.yul\":2329:2364   */\n          eq\n            /* \"#utility.yul\":2319:2382   */\n          tag_165\n          jumpi\n            /* \"#utility.yul\":2378:2379   */\n          0x00\n            /* \"#utility.yul\":2375:2376   */\n          dup1\n            /* \"#utility.yul\":2368:2380   */\n          revert\n            /* \"#utility.yul\":2319:2382   */\n        tag_165:\n            /* \"#utility.yul\":2266:2388   */\n          pop\n          jump\t// out\n            /* \"#utility.yul\":2394:2533   */\n        tag_127:\n            /* \"#utility.yul\":2440:2445   */\n          0x00\n            /* \"#utility.yul\":2478:2484   */\n          dup2\n            /* \"#utility.yul\":2465:2485   */\n          calldataload\n            /* \"#utility.yul\":2456:2485   */\n          swap1\n          pop\n            /* \"#utility.yul\":2494:2527   */\n          tag_167\n            /* \"#utility.yul\":2521:2526   */\n          dup2\n            /* \"#utility.yul\":2494:2527   */\n          tag_126\n          jump\t// in\n        tag_167:\n            /* \"#utility.yul\":2394:2533   */\n          swap3\n          swap2\n          pop\n          pop\n          jump\t// out\n            /* \"#utility.yul\":2539:3013   */\n        tag_22:\n            /* \"#utility.yul\":2607:2613   */\n          0x00\n            /* \"#utility.yul\":2615:2621   */\n          dup1\n            /* \"#utility.yul\":2664:2666   */\n          0x40\n            /* \"#utility.yul\":2652:2661   */\n          dup4\n            /* \"#utility.yul\":2643:2650   */\n          dup6\n            /* \"#utility.yul\":2639:2662   */\n          sub\n            /* \"#utility.yul\":2635:2667   */\n          slt\n            /* \"#utility.yul\":2632:2751   */\n          iszero\n          tag_169\n          jumpi\n            /* \"#utility.yul\":2670:2749   */\n          tag_170\n          tag_119\n          jump\t// in\n        tag_170:\n            /* \"#utility.yul\":2632:2751   */\n        tag_169:\n            /* \"#utility.yul\":2790:2791   */\n          0x00\n            /* \"#utility.yul\":2815:2868   */\n          tag_171\n            /* \"#utility.yul\":2860:2867   */\n          dup6\n            /* \"#utility.yul\":2851:2857   */\n          dup3\n            /* \"#utility.yul\":2840:2849   */\n          dup7\n            /* \"#utility.yul\":2836:2858   */\n          add\n            /* \"#utility.yul\":2815:2868   */\n          tag_124\n          jump\t// in\n        tag_171:\n            /* \"#utility.yul\":2805:2868   */\n          swap3\n          pop\n            /* \"#utility.yul\":2761:2878   */\n          pop\n            /* \"#utility.yul\":2917:2919   */\n          0x20\n            /* \"#utility.yul\":2943:2996   */\n          tag_172\n            /* \"#utility.yul\":2988:2995   */\n          dup6\n            /* \"#utility.yul\":2979:2985   */\n          dup3\n            /* \"#utility.yul\":2968:2977   */\n          dup7\n            /* \"#utility.yul\":2964:2986   */\n          add\n            /* \"#utility.yul\":2943:2996   */\n          tag_127\n          jump\t// in\n        tag_172:\n            /* \"#utility.yul\":2933:2996   */\n          swap2\n          pop\n            /* \"#utility.yul\":2888:3006   */\n          pop\n            /* \"#utility.yul\":2539:3013   */\n          swap3\n          pop\n          swap3\n          swap1\n          pop\n          jump\t// out\n            /* \"#utility.yul\":3019:3109   */\n        tag_128:\n            /* \"#utility.yul\":3053:3060   */\n          0x00\n            /* \"#utility.yul\":3096:3101   */\n          dup2\n            /* \"#utility.yul\":3089:3102   */\n          iszero\n            /* \"#utility.yul\":3082:3103   */\n          iszero\n            /* \"#utility.yul\":3071:3103   */\n          swap1\n          pop\n            /* \"#utility.yul\":3019:3109   */\n          swap2\n          swap1\n          pop\n          jump\t// out\n            /* \"#utility.yul\":3115:3224   */\n        tag_129:\n            /* \"#utility.yul\":3196:3217   */\n          tag_175\n            /* \"#utility.yul\":3211:3216   */\n          dup2\n            /* \"#utility.yul\":3196:3217   */\n          tag_128\n          jump\t// in\n        tag_175:\n            /* \"#utility.yul\":3191:3194   */\n          dup3\n            /* \"#utility.yul\":3184:3218   */\n          mstore\n            /* \"#utility.yul\":3115:3224   */\n          pop\n          pop\n          jump\t// out\n            /* \"#utility.yul\":3230:3440   */\n        tag_25:\n            /* \"#utility.yul\":3317:3321   */\n          0x00\n            /* \"#utility.yul\":3355:3357   */\n          0x20\n            /* \"#utility.yul\":3344:3353   */\n          dup3\n            /* \"#utility.yul\":3340:3358   */\n          add\n            /* \"#utility.yul\":3332:3358   */\n          swap1\n          pop\n            /* \"#utility.yul\":3368:3433   */\n          tag_177\n            /* \"#utility.yul\":3430:3431   */\n          0x00\n            /* \"#utility.yul\":3419:3428   */\n          dup4\n            /* \"#utility.yul\":3415:3432   */\n          add\n            /* \"#utility.yul\":3406:3412   */\n          dup5\n            /* \"#utility.yul\":3368:3433   */\n          tag_129\n          jump\t// in\n        tag_177:\n            /* \"#utility.yul\":3230:3440   */\n          swap3\n          swap2\n          pop\n          pop\n          jump\t// out\n            /* \"#utility.yul\":3446:3564   */\n        tag_130:\n            /* \"#utility.yul\":3533:3557   */\n          tag_179\n            /* \"#utility.yul\":3551:3556   */\n          dup2\n            /* \"#utility.yul\":3533:3557   */\n          tag_125\n          jump\t// in\n        tag_179:\n            /* \"#utility.yul\":3528:3531   */\n          dup3\n            /* \"#utility.yul\":3521:3558   */\n          mstore\n            /* \"#utility.yul\":3446:3564   */\n          pop\n          pop\n          jump\t// out\n            /* \"#utility.yul\":3570:3792   */\n        tag_29:\n            /* \"#utility.yul\":3663:3667   */\n          0x00\n            /* \"#utility.yul\":3701:3703   */\n          0x20\n            /* \"#utility.yul\":3690:3699   */\n          dup3\n            /* \"#utility.yul\":3686:3704   */\n          add\n            /* \"#utility.yul\":3678:3704   */\n          swap1\n          pop\n            /* \"#utility.yul\":3714:3785   */\n          tag_181\n            /* \"#utility.yul\":3782:3783   */\n          0x00\n            /* \"#utility.yul\":3771:3780   */\n          dup4\n            /* \"#utility.yul\":3767:3784   */\n          add\n            /* \"#utility.yul\":3758:3764   */\n          dup5\n            /* \"#utility.yul\":3714:3785   */\n          tag_130\n          jump\t// in\n        tag_181:\n            /* \"#utility.yul\":3570:3792   */\n          swap3\n          swap2\n          pop\n          pop\n          jump\t// out\n            /* \"#utility.yul\":3798:4127   */\n        tag_32:\n            /* \"#utility.yul\":3857:3863   */\n          0x00\n            /* \"#utility.yul\":3906:3908   */\n          0x20\n            /* \"#utility.yul\":3894:3903   */\n          dup3\n            /* \"#utility.yul\":3885:3892   */\n          dup5\n            /* \"#utility.yul\":3881:3904   */\n          sub\n            /* \"#utility.yul\":3877:3909   */\n          slt\n            /* \"#utility.yul\":3874:3993   */\n          iszero\n          tag_183\n          jumpi\n            /* \"#utility.yul\":3912:3991   */\n          tag_184\n          tag_119\n          jump\t// in\n        tag_184:\n            /* \"#utility.yul\":3874:3993   */\n        tag_183:\n            /* \"#utility.yul\":4032:4033   */\n          0x00\n            /* \"#utility.yul\":4057:4110   */\n          tag_185\n            /* \"#utility.yul\":4102:4109   */\n          dup5\n            /* \"#utility.yul\":4093:4099   */\n          dup3\n            /* \"#utility.yul\":4082:4091   */\n          dup6\n            /* \"#utility.yul\":4078:4100   */\n          add\n            /* \"#utility.yul\":4057:4110   */\n          tag_127\n          jump\t// in\n        tag_185:\n            /* \"#utility.yul\":4047:4110   */\n          swap2\n          pop\n            /* \"#utility.yul\":4003:4120   */\n          pop\n            /* \"#utility.yul\":3798:4127   */\n          swap3\n          swap2\n          pop\n          pop\n          jump\t// out\n            /* \"#utility.yul\":4133:4752   */\n        tag_36:\n            /* \"#utility.yul\":4210:4216   */\n          0x00\n            /* \"#utility.yul\":4218:4224   */\n          dup1\n            /* \"#utility.yul\":4226:4232   */\n          0x00\n            /* \"#utility.yul\":4275:4277   */\n          0x60\n            /* \"#utility.yul\":4263:4272   */\n          dup5\n            /* \"#utility.yul\":4254:4261   */\n          dup7\n            /* \"#utility.yul\":4250:4273   */\n          sub\n            /* \"#utility.yul\":4246:4278   */\n          slt\n            /* \"#utility.yul\":4243:4362   */\n          iszero\n          tag_187\n          jumpi\n            /* \"#utility.yul\":4281:4360   */\n          tag_188\n          tag_119\n          jump\t// in\n        tag_188:\n            /* \"#utility.yul\":4243:4362   */\n        tag_187:\n            /* \"#utility.yul\":4401:4402   */\n          0x00\n            /* \"#utility.yul\":4426:4479   */\n          tag_189\n            /* \"#utility.yul\":4471:4478   */\n          dup7\n            /* \"#utility.yul\":4462:4468   */\n          dup3\n            /* \"#utility.yul\":4451:4460   */\n          dup8\n            /* \"#utility.yul\":4447:4469   */\n          add\n            /* \"#utility.yul\":4426:4479   */\n          tag_124\n          jump\t// in\n        tag_189:\n            /* \"#utility.yul\":4416:4479   */\n          swap4\n          pop\n            /* \"#utility.yul\":4372:4489   */\n          pop\n            /* \"#utility.yul\":4528:4530   */\n          0x20\n            /* \"#utility.yul\":4554:4607   */\n          tag_190\n            /* \"#utility.yul\":4599:4606   */\n          dup7\n            /* \"#utility.yul\":4590:4596   */\n          dup3\n            /* \"#utility.yul\":4579:4588   */\n          dup8\n            /* \"#utility.yul\":4575:4597   */\n          add\n            /* \"#utility.yul\":4554:4607   */\n          tag_124\n          jump\t// in\n        tag_190:\n            /* \"#utility.yul\":4544:4607   */\n          swap3\n          pop\n            /* \"#utility.yul\":4499:4617   */\n          pop\n            /* \"#utility.yul\":4656:4658   */\n          0x40\n            /* \"#utility.yul\":4682:4735   */\n          tag_191\n            /* \"#utility.yul\":4727:4734   */\n          dup7\n            /* \"#utility.yul\":4718:4724   */\n          dup3\n            /* \"#utility.yul\":4707:4716   */\n          dup8\n            /* \"#utility.yul\":4703:4725   */\n          add\n            /* \"#utility.yul\":4682:4735   */\n          tag_127\n          jump\t// in\n        tag_191:\n            /* \"#utility.yul\":4672:4735   */\n          swap2\n          pop\n            /* \"#utility.yul\":4627:4745   */\n          pop\n            /* \"#utility.yul\":4133:4752   */\n          swap3\n          pop\n          swap3\n          pop\n          swap3\n          jump\t// out\n            /* \"#utility.yul\":4758:4844   */\n        tag_131:\n            /* \"#utility.yul\":4793:4800   */\n          0x00\n            /* \"#utility.yul\":4833:4837   */\n          0xff\n            /* \"#utility.yul\":4826:4831   */\n          dup3\n            /* \"#utility.yul\":4822:4838   */\n          and\n            /* \"#utility.yul\":4811:4838   */\n          swap1\n          pop\n            /* \"#utility.yul\":4758:4844   */\n          swap2\n          swap1\n          pop\n          jump\t// out\n            /* \"#utility.yul\":4850:4962   */\n        tag_132:\n            /* \"#utility.yul\":4933:4955   */\n          tag_194\n            /* \"#utility.yul\":4949:4954   */\n          dup2\n            /* \"#utility.yul\":4933:4955   */\n          tag_131\n          jump\t// in\n        tag_194:\n            /* \"#utility.yul\":4928:4931   */\n          dup3\n            /* \"#utility.yul\":4921:4956   */\n          mstore\n            /* \"#utility.yul\":4850:4962   */\n          pop\n          pop\n          jump\t// out\n            /* \"#utility.yul\":4968:5182   */\n        tag_42:\n            /* \"#utility.yul\":5057:5061   */\n          0x00\n            /* \"#utility.yul\":5095:5097   */\n          0x20\n            /* \"#utility.yul\":5084:5093   */\n          dup3\n            /* \"#utility.yul\":5080:5098   */\n          add\n            /* \"#utility.yul\":5072:5098   */\n          swap1\n          pop\n            /* \"#utility.yul\":5108:5175   */\n          tag_196\n            /* \"#utility.yul\":5172:5173   */\n          0x00\n            /* \"#utility.yul\":5161:5170   */\n          dup4\n            /* \"#utility.yul\":5157:5174   */\n          add\n            /* \"#utility.yul\":5148:5154   */\n          dup5\n            /* \"#utility.yul\":5108:5175   */\n          tag_132\n          jump\t// in\n        tag_196:\n            /* \"#utility.yul\":4968:5182   */\n          swap3\n          swap2\n          pop\n          pop\n          jump\t// out\n            /* \"#utility.yul\":5188:5517   */\n        tag_45:\n            /* \"#utility.yul\":5247:5253   */\n          0x00\n            /* \"#utility.yul\":5296:5298   */\n          0x20\n            /* \"#utility.yul\":5284:5293   */\n          dup3\n            /* \"#utility.yul\":5275:5282   */\n          dup5\n            /* \"#utility.yul\":5271:5294   */\n          sub\n            /* \"#utility.yul\":5267:5299   */\n          slt\n            /* \"#utility.yul\":5264:5383   */\n          iszero\n          tag_198\n          jumpi\n            /* \"#utility.yul\":5302:5381   */\n          tag_199\n          tag_119\n          jump\t// in\n        tag_199:\n            /* \"#utility.yul\":5264:5383   */\n        tag_198:\n            /* \"#utility.yul\":5422:5423   */\n          0x00\n            /* \"#utility.yul\":5447:5500   */\n          tag_200\n            /* \"#utility.yul\":5492:5499   */\n          dup5\n            /* \"#utility.yul\":5483:5489   */\n          dup3\n            /* \"#utility.yul\":5472:5481   */\n          dup6\n            /* \"#utility.yul\":5468:5490   */\n          add\n            /* \"#utility.yul\":5447:5500   */\n          tag_124\n          jump\t// in\n        tag_200:\n            /* \"#utility.yul\":5437:5500   */\n          swap2\n          pop\n            /* \"#utility.yul\":5393:5510   */\n          pop\n            /* \"#utility.yul\":5188:5517   */\n          swap3\n          swap2\n          pop\n          pop\n          jump\t// out\n            /* \"#utility.yul\":5523:5997   */\n        tag_59:\n            /* \"#utility.yul\":5591:5597   */\n          0x00\n            /* \"#utility.yul\":5599:5605   */\n          dup1\n            /* \"#utility.yul\":5648:5650   */\n          0x40\n            /* \"#utility.yul\":5636:5645   */\n          dup4\n            /* \"#utility.yul\":5627:5634   */\n          dup6\n            /* \"#utility.yul\":5623:5646   */\n          sub\n            /* \"#utility.yul\":5619:5651   */\n          slt\n            /* \"#utility.yul\":5616:5735   */\n          iszero\n          tag_202\n          jumpi\n            /* \"#utility.yul\":5654:5733   */\n          tag_203\n          tag_119\n          jump\t// in\n        tag_203:\n            /* \"#utility.yul\":5616:5735   */\n        tag_202:\n            /* \"#utility.yul\":5774:5775   */\n          0x00\n            /* \"#utility.yul\":5799:5852   */\n          tag_204\n            /* \"#utility.yul\":5844:5851   */\n          dup6\n            /* \"#utility.yul\":5835:5841   */\n          dup3\n            /* \"#utility.yul\":5824:5833   */\n          dup7\n            /* \"#utility.yul\":5820:5842   */\n          add\n            /* \"#utility.yul\":5799:5852   */\n          tag_124\n          jump\t// in\n        tag_204:\n            /* \"#utility.yul\":5789:5852   */\n          swap3\n          pop\n            /* \"#utility.yul\":5745:5862   */\n          pop\n            /* \"#utility.yul\":5901:5903   */\n          0x20\n            /* \"#utility.yul\":5927:5980   */\n          tag_205\n            /* \"#utility.yul\":5972:5979   */\n          dup6\n            /* \"#utility.yul\":5963:5969   */\n          dup3\n            /* \"#utility.yul\":5952:5961   */\n          dup7\n            /* \"#utility.yul\":5948:5970   */\n          add\n            /* \"#utility.yul\":5927:5980   */\n          tag_124\n          jump\t// in\n        tag_205:\n            /* \"#utility.yul\":5917:5980   */\n          swap2\n          pop\n            /* \"#utility.yul\":5872:5990   */\n          pop\n            /* \"#utility.yul\":5523:5997   */\n          swap3\n          pop\n          swap3\n          swap1\n          pop\n          jump\t// out\n            /* \"#utility.yul\":6003:6166   */\n        tag_133:\n            /* \"#utility.yul\":6143:6158   */\n          0x4d757374206265204f776e657200000000000000000000000000000000000000\n            /* \"#utility.yul\":6139:6140   */\n          0x00\n            /* \"#utility.yul\":6131:6137   */\n          dup3\n            /* \"#utility.yul\":6127:6141   */\n          add\n            /* \"#utility.yul\":6120:6159   */\n          mstore\n            /* \"#utility.yul\":6003:6166   */\n          pop\n          jump\t// out\n            /* \"#utility.yul\":6172:6538   */\n        tag_134:\n            /* \"#utility.yul\":6314:6317   */\n          0x00\n            /* \"#utility.yul\":6335:6402   */\n          tag_208\n            /* \"#utility.yul\":6399:6401   */\n          0x0d\n            /* \"#utility.yul\":6394:6397   */\n          dup4\n            /* \"#utility.yul\":6335:6402   */\n          tag_114\n          jump\t// in\n        tag_208:\n            /* \"#utility.yul\":6328:6402   */\n          swap2\n          pop\n            /* \"#utility.yul\":6411:6504   */\n          tag_209\n            /* \"#utility.yul\":6500:6503   */\n          dup3\n            /* \"#utility.yul\":6411:6504   */\n          tag_133\n          jump\t// in\n        tag_209:\n            /* \"#utility.yul\":6529:6531   */\n          0x20\n            /* \"#utility.yul\":6524:6527   */\n          dup3\n            /* \"#utility.yul\":6520:6532   */\n          add\n            /* \"#utility.yul\":6513:6532   */\n          swap1\n          pop\n            /* \"#utility.yul\":6172:6538   */\n          swap2\n          swap1\n          pop\n          jump\t// out\n            /* \"#utility.yul\":6544:6963   */\n        tag_73:\n            /* \"#utility.yul\":6710:6714   */\n          0x00\n            /* \"#utility.yul\":6748:6750   */\n          0x20\n            /* \"#utility.yul\":6737:6746   */\n          dup3\n            /* \"#utility.yul\":6733:6751   */\n          add\n            /* \"#utility.yul\":6725:6751   */\n          swap1\n          pop\n            /* \"#utility.yul\":6797:6806   */\n          dup2\n            /* \"#utility.yul\":6791:6795   */\n          dup2\n            /* \"#utility.yul\":6787:6807   */\n          sub\n            /* \"#utility.yul\":6783:6784   */\n          0x00\n            /* \"#utility.yul\":6772:6781   */\n          dup4\n            /* \"#utility.yul\":6768:6785   */\n          add\n            /* \"#utility.yul\":6761:6808   */\n          mstore\n            /* \"#utility.yul\":6825:6956   */\n          tag_211\n            /* \"#utility.yul\":6951:6955   */\n          dup2\n            /* \"#utility.yul\":6825:6956   */\n          tag_134\n          jump\t// in\n        tag_211:\n            /* \"#utility.yul\":6817:6956   */\n          swap1\n          pop\n            /* \"#utility.yul\":6544:6963   */\n          swap2\n          swap1\n          pop\n          jump\t// out\n            /* \"#utility.yul\":6969:7149   */\n        tag_135:\n            /* \"#utility.yul\":7017:7094   */\n          0x4e487b7100000000000000000000000000000000000000000000000000000000\n            /* \"#utility.yul\":7014:7015   */\n          0x00\n            /* \"#utility.yul\":7007:7095   */\n          mstore\n            /* \"#utility.yul\":7114:7118   */\n          0x11\n            /* \"#utility.yul\":7111:7112   */\n          0x04\n            /* \"#utility.yul\":7104:7119   */\n          mstore\n            /* \"#utility.yul\":7138:7142   */\n          0x24\n            /* \"#utility.yul\":7135:7136   */\n          0x00\n            /* \"#utility.yul\":7128:7143   */\n          revert\n            /* \"#utility.yul\":7155:7346   */\n        tag_76:\n            /* \"#utility.yul\":7195:7198   */\n          0x00\n            /* \"#utility.yul\":7214:7234   */\n          tag_214\n            /* \"#utility.yul\":7232:7233   */\n          dup3\n            /* \"#utility.yul\":7214:7234   */\n          tag_125\n          jump\t// in\n        tag_214:\n            /* \"#utility.yul\":7209:7234   */\n          swap2\n          pop\n            /* \"#utility.yul\":7248:7268   */\n          tag_215\n            /* \"#utility.yul\":7266:7267   */\n          dup4\n            /* \"#utility.yul\":7248:7268   */\n          tag_125\n          jump\t// in\n        tag_215:\n            /* \"#utility.yul\":7243:7268   */\n          swap3\n          pop\n            /* \"#utility.yul\":7291:7292   */\n          dup3\n            /* \"#utility.yul\":7288:7289   */\n          dup3\n            /* \"#utility.yul\":7284:7293   */\n          add\n            /* \"#utility.yul\":7277:7293   */\n          swap1\n          pop\n            /* \"#utility.yul\":7312:7315   */\n          dup1\n            /* \"#utility.yul\":7309:7310   */\n          dup3\n            /* \"#utility.yul\":7306:7316   */\n          gt\n            /* \"#utility.yul\":7303:7339   */\n          iszero\n          tag_216\n          jumpi\n            /* \"#utility.yul\":7319:7337   */\n          tag_217\n          tag_135\n          jump\t// in\n        tag_217:\n            /* \"#utility.yul\":7303:7339   */\n        tag_216:\n            /* \"#utility.yul\":7155:7346   */\n          swap3\n          swap2\n          pop\n          pop\n          jump\t// out\n            /* \"#utility.yul\":7352:7532   */\n        tag_106:\n            /* \"#utility.yul\":7400:7477   */\n          0x4e487b7100000000000000000000000000000000000000000000000000000000\n            /* \"#utility.yul\":7397:7398   */\n          0x00\n            /* \"#utility.yul\":7390:7478   */\n          mstore\n            /* \"#utility.yul\":7497:7501   */\n          0x01\n            /* \"#utility.yul\":7494:7495   */\n          0x04\n            /* \"#utility.yul\":7487:7502   */\n          mstore\n            /* \"#utility.yul\":7521:7525   */\n          0x24\n            /* \"#utility.yul\":7518:7519   */\n          0x00\n            /* \"#utility.yul\":7511:7526   */\n          revert\n            /* \"#utility.yul\":7538:7732   */\n        tag_108:\n            /* \"#utility.yul\":7578:7582   */\n          0x00\n            /* \"#utility.yul\":7598:7618   */\n          tag_220\n            /* \"#utility.yul\":7616:7617   */\n          dup3\n            /* \"#utility.yul\":7598:7618   */\n          tag_125\n          jump\t// in\n        tag_220:\n            /* \"#utility.yul\":7593:7618   */\n          swap2\n          pop\n            /* \"#utility.yul\":7632:7652   */\n          tag_221\n            /* \"#utility.yul\":7650:7651   */\n          dup4\n            /* \"#utility.yul\":7632:7652   */\n          tag_125\n          jump\t// in\n        tag_221:\n            /* \"#utility.yul\":7627:7652   */\n          swap3\n          pop\n            /* \"#utility.yul\":7676:7677   */\n          dup3\n            /* \"#utility.yul\":7673:7674   */\n          dup3\n            /* \"#utility.yul\":7669:7678   */\n          sub\n            /* \"#utility.yul\":7661:7678   */\n          swap1\n          pop\n            /* \"#utility.yul\":7700:7701   */\n          dup2\n            /* \"#utility.yul\":7694:7698   */\n          dup2\n            /* \"#utility.yul\":7691:7702   */\n          gt\n            /* \"#utility.yul\":7688:7725   */\n          iszero\n          tag_222\n          jumpi\n            /* \"#utility.yul\":7705:7723   */\n          tag_223\n          tag_135\n          jump\t// in\n        tag_223:\n            /* \"#utility.yul\":7688:7725   */\n        tag_222:\n            /* \"#utility.yul\":7538:7732   */\n          swap3\n          swap2\n          pop\n          pop\n          jump\t// out\n\n        auxdata: 0xa26469706673582212200e71384d145c809f9d0b7a417f0244eba0ef75ff7a694a4398b27a46dfe26fbc64736f6c63430008120033\n    }\n}\n",
				"bytecode": {
					"linkReferences": {},
					"object": "60806040523480156200001157600080fd5b506127106040516200002390620000d3565b6200002f919062000138565b604051809103906000f0801580156200004c573d6000803e3d6000fd5b506000806101000a81548173ffffffffffffffffffffffffffffffffffffffff021916908373ffffffffffffffffffffffffffffffffffffffff16021790555033600160006101000a81548173ffffffffffffffffffffffffffffffffffffffff021916908373ffffffffffffffffffffffffffffffffffffffff16021790555062000155565b6114388062001b6b83390190565b6000819050919050565b6000819050919050565b6000819050919050565b6000620001206200011a6200011484620000e1565b620000f5565b620000eb565b9050919050565b6200013281620000ff565b82525050565b60006020820190506200014f600083018462000127565b92915050565b611a0680620001656000396000f3fe60806040526004361061009c5760003560e01c8063a595673811610064578063a595673814610165578063b96f2cd4146101a2578063c4834899146101cd578063c4e5dff2146101f8578063cb0a4a3314610237578063fbd98b20146102605761009c565b80633610724e146100a1578063722713f7146100bd57806379ac996a146100e85780638da5cb5b1461011157806397304ced1461013c575b600080fd5b6100bb60048036038101906100b69190610d52565b610289565b005b3480156100c957600080fd5b506100d261047d565b6040516100df9190610d8e565b60405180910390f35b3480156100f457600080fd5b5061010f600480360381019061010a9190610eef565b61051f565b005b34801561011d57600080fd5b506101266105ed565b6040516101339190610f79565b60405180910390f35b34801561014857600080fd5b50610163600480360381019061015e9190610d52565b610613565b005b34801561017157600080fd5b5061018c60048036038101906101879190610fd2565b6106fb565b6040516101999190610d8e565b60405180910390f35b3480156101ae57600080fd5b506101b7610719565b6040516101c49190611140565b60405180910390f35b3480156101d957600080fd5b506101e26107f2565b6040516101ef9190610d8e565b60405180910390f35b34801561020457600080fd5b5061021f600480360381019061021a9190610eef565b610894565b60405161022e939291906111c7565b60405180910390f35b34801561024357600080fd5b5061025e60048036038101906102599190610eef565b610969565b005b34801561026c57600080fd5b5061028760048036038101906102829190611205565b610ba0565b005b600061029482610ceb565b9050803410156102d9576040517f08c379a00000000000000000000000000000000000000000000000000000000081526004016102d0906112ad565b60405180910390fd5b600081346102e791906112fc565b90503373ffffffffffffffffffffffffffffffffffffffff166108fc829081150290604051600060405180830381858888f1935050505015801561032f573d6000803e3d6000fd5b50600061033a61047d565b90508084111561037f576040517f08c379a00000000000000000000000000000000000000000000000000000000081526004016103769061137c565b60405180910390fd5b60008054906101000a900473ffffffffffffffffffffffffffffffffffffffff1673ffffffffffffffffffffffffffffffffffffffff1663a9059cbb33866040518363ffffffff1660e01b81526004016103da9291906113ab565b6020604051808303816000875af11580156103f9573d6000803e3d6000fd5b505050506040513d601f19601f8201168201806040525081019061041d9190611400565b5083600260003373ffffffffffffffffffffffffffffffffffffffff1673ffffffffffffffffffffffffffffffffffffffff1681526020019081526020016000206000016000828254610470919061142d565b9250508190555050505050565b60008060009054906101000a900473ffffffffffffffffffffffffffffffffffffffff1673ffffffffffffffffffffffffffffffffffffffff166370a08231306040518263ffffffff1660e01b81526004016104d99190611461565b602060405180830381865afa1580156104f6573d6000803e3d6000fd5b505050506040513d601f19601f8201168201806040525081019061051a9190611491565b905090565b600160009054906101000a900473ffffffffffffffffffffffffffffffffffffffff1673ffffffffffffffffffffffffffffffffffffffff163373ffffffffffffffffffffffffffffffffffffffff161461057957600080fd5b600060038260405161058b91906114fa565b908152602001604051809103902060020160006101000a81548160ff0219169083151502179055507fa9b5d005cb280c62bb7a048bb2323e402707d0f05a053a3fe3a3e1b64aa4856d816040516105e29190611511565b60405180910390a150565b600160009054906101000a900473ffffffffffffffffffffffffffffffffffffffff1681565b600160009054906101000a900473ffffffffffffffffffffffffffffffffffffffff1673ffffffffffffffffffffffffffffffffffffffff163373ffffffffffffffffffffffffffffffffffffffff161461066d57600080fd5b60008054906101000a900473ffffffffffffffffffffffffffffffffffffffff1673ffffffffffffffffffffffffffffffffffffffff16631d43cc98826040518263ffffffff1660e01b81526004016106c69190610d8e565b600060405180830381600087803b1580156106e057600080fd5b505af11580156106f4573d6000803e3d6000fd5b5050505050565b60026020528060005260406000206000915090508060000154905081565b60606004805480602002602001604051908101604052809291908181526020016000905b828210156107e957838290600052602060002001805461075c90611562565b80601f016020809104026020016040519081016040528092919081815260200182805461078890611562565b80156107d55780601f106107aa576101008083540402835291602001916107d5565b820191906000526020600020905b8154815290600101906020018083116107b857829003601f168201915b50505050508152602001906001019061073d565b50505050905090565b60008060009054906101000a900473ffffffffffffffffffffffffffffffffffffffff1673ffffffffffffffffffffffffffffffffffffffff166370a08231336040518263ffffffff1660e01b815260040161084e9190611461565b602060405180830381865afa15801561086b573d6000803e3d6000fd5b505050506040513d601f19601f8201168201806040525081019061088f9190611491565b905090565b6003818051602081018201805184825260208301602085012081835280955050505050506000915090508060000180546108cd90611562565b80601f01602080910402602001604051908101604052809291908181526020018280546108f990611562565b80156109465780601f1061091b57610100808354040283529160200191610946565b820191906000526020600020905b81548152906001019060200180831161092957829003601f168201915b5050505050908060010154908060020160009054906101000a900460ff16905083565b6001151560038260405161097d91906114fa565b908152602001604051809103902060020160009054906101000a900460ff161515146109de576040517f08c379a00000000000000000000000000000000000000000000000000000000081526004016109d5906115df565b60405180910390fd5b60006003826040516109f091906114fa565b908152602001604051809103902060010154905080610a0d6107f2565b1015610a4e576040517f08c379a0000000000000000000000000000000000000000000000000000000008152600401610a459061164b565b60405180910390fd5b60008054906101000a900473ffffffffffffffffffffffffffffffffffffffff1673ffffffffffffffffffffffffffffffffffffffff1663e0631f7f3330846040518463ffffffff1660e01b8152600401610aab9392919061166b565b6020604051808303816000875af1158015610aca573d6000803e3d6000fd5b505050506040513d601f19601f82011682018060405250810190610aee9190611400565b50600560003373ffffffffffffffffffffffffffffffffffffffff1673ffffffffffffffffffffffffffffffffffffffff16815260200190815260200160002082908060018154018082558091505060019003906000526020600020016000909190919091509081610b60919061184e565b507ffcec2a140106a441fbaae966bd30f8cacd5c4ae875e31e09acec6324f2a065b3828233604051610b9493929190611920565b60405180910390a15050565b600160009054906101000a900473ffffffffffffffffffffffffffffffffffffffff1673ffffffffffffffffffffffffffffffffffffffff163373ffffffffffffffffffffffffffffffffffffffff1614610bfa57600080fd5b604051806060016040528083815260200182815260200160011515815250600383604051610c2891906114fa565b90815260200160405180910390206000820151816000019081610c4b919061184e565b506020820151816001015560408201518160020160006101000a81548160ff021916908315150217905550905050600482908060018154018082558091505060019003906000526020600020016000909190919091509081610cad919061184e565b507f7881aaf671f51be7f8d7a5d3e85d5c6c2e67c380908056a877bc6cfc1b8bfc5e8282604051610cdf92919061195e565b60405180910390a15050565b6000670de0b6b3a764000082610d01919061198e565b9050919050565b6000604051905090565b600080fd5b600080fd5b6000819050919050565b610d2f81610d1c565b8114610d3a57600080fd5b50565b600081359050610d4c81610d26565b92915050565b600060208284031215610d6857610d67610d12565b5b6000610d7684828501610d3d565b91505092915050565b610d8881610d1c565b82525050565b6000602082019050610da36000830184610d7f565b92915050565b600080fd5b600080fd5b6000601f19601f8301169050919050565b7f4e487b7100000000000000000000000000000000000000000000000000000000600052604160045260246000fd5b610dfc82610db3565b810181811067ffffffffffffffff82111715610e1b57610e1a610dc4565b5b80604052505050565b6000610e2e610d08565b9050610e3a8282610df3565b919050565b600067ffffffffffffffff821115610e5a57610e59610dc4565b5b610e6382610db3565b9050602081019050919050565b82818337600083830152505050565b6000610e92610e8d84610e3f565b610e24565b905082815260208101848484011115610eae57610ead610dae565b5b610eb9848285610e70565b509392505050565b600082601f830112610ed657610ed5610da9565b5b8135610ee6848260208601610e7f565b91505092915050565b600060208284031215610f0557610f04610d12565b5b600082013567ffffffffffffffff811115610f2357610f22610d17565b5b610f2f84828501610ec1565b91505092915050565b600073ffffffffffffffffffffffffffffffffffffffff82169050919050565b6000610f6382610f38565b9050919050565b610f7381610f58565b82525050565b6000602082019050610f8e6000830184610f6a565b92915050565b6000610f9f82610f38565b9050919050565b610faf81610f94565b8114610fba57600080fd5b50565b600081359050610fcc81610fa6565b92915050565b600060208284031215610fe857610fe7610d12565b5b6000610ff684828501610fbd565b91505092915050565b600081519050919050565b600082825260208201905092915050565b6000819050602082019050919050565b600081519050919050565b600082825260208201905092915050565b60005b8381101561106557808201518184015260208101905061104a565b60008484015250505050565b600061107c8261102b565b6110868185611036565b9350611096818560208601611047565b61109f81610db3565b840191505092915050565b60006110b68383611071565b905092915050565b6000602082019050919050565b60006110d682610fff565b6110e0818561100a565b9350836020820285016110f28561101b565b8060005b8581101561112e578484038952815161110f85826110aa565b945061111a836110be565b925060208a019950506001810190506110f6565b50829750879550505050505092915050565b6000602082019050818103600083015261115a81846110cb565b905092915050565b600082825260208201905092915050565b600061117e8261102b565b6111888185611162565b9350611198818560208601611047565b6111a181610db3565b840191505092915050565b60008115159050919050565b6111c1816111ac565b82525050565b600060608201905081810360008301526111e18186611173565b90506111f06020830185610d7f565b6111fd60408301846111b8565b949350505050565b6000806040838503121561121c5761121b610d12565b5b600083013567ffffffffffffffff81111561123a57611239610d17565b5b61124685828601610ec1565b925050602061125785828601610d3d565b9150509250929050565b7f496e73756666696369656e7420616d6f756e7400000000000000000000000000600082015250565b6000611297601383611162565b91506112a282611261565b602082019050919050565b600060208201905081810360008301526112c68161128a565b9050919050565b7f4e487b7100000000000000000000000000000000000000000000000000000000600052601160045260246000fd5b600061130782610d1c565b915061131283610d1c565b925082820390508181111561132a576113296112cd565b5b92915050565b7f5472616e73616374696f6e206661696c65640000000000000000000000000000600082015250565b6000611366601283611162565b915061137182611330565b602082019050919050565b6000602082019050818103600083015261139581611359565b9050919050565b6113a581610f94565b82525050565b60006040820190506113c0600083018561139c565b6113cd6020830184610d7f565b9392505050565b6113dd816111ac565b81146113e857600080fd5b50565b6000815190506113fa816113d4565b92915050565b60006020828403121561141657611415610d12565b5b6000611424848285016113eb565b91505092915050565b600061143882610d1c565b915061144383610d1c565b925082820190508082111561145b5761145a6112cd565b5b92915050565b6000602082019050611476600083018461139c565b92915050565b60008151905061148b81610d26565b92915050565b6000602082840312156114a7576114a6610d12565b5b60006114b58482850161147c565b91505092915050565b600081905092915050565b60006114d48261102b565b6114de81856114be565b93506114ee818560208601611047565b80840191505092915050565b600061150682846114c9565b915081905092915050565b6000602082019050818103600083015261152b8184611173565b905092915050565b7f4e487b7100000000000000000000000000000000000000000000000000000000600052602260045260246000fd5b6000600282049050600182168061157a57607f821691505b60208210810361158d5761158c611533565b5b50919050565b7f41747472616374696f6e20436c6f736500000000000000000000000000000000600082015250565b60006115c9601083611162565b91506115d482611593565b602082019050919050565b600060208201905081810360008301526115f8816115bc565b9050919050565b7f496e73756666696369656e742042616c616e6365000000000000000000000000600082015250565b6000611635601483611162565b9150611640826115ff565b602082019050919050565b6000602082019050818103600083015261166481611628565b9050919050565b6000606082019050611680600083018661139c565b61168d602083018561139c565b61169a6040830184610d7f565b949350505050565b60008190508160005260206000209050919050565b60006020601f8301049050919050565b600082821b905092915050565b6000600883026117047fffffffffffffffffffffffffffffffffffffffffffffffffffffffffffffffff826116c7565b61170e86836116c7565b95508019841693508086168417925050509392505050565b6000819050919050565b600061174b61174661174184610d1c565b611726565b610d1c565b9050919050565b6000819050919050565b61176583611730565b61177961177182611752565b8484546116d4565b825550505050565b600090565b61178e611781565b61179981848461175c565b505050565b5b818110156117bd576117b2600082611786565b60018101905061179f565b5050565b601f821115611802576117d3816116a2565b6117dc846116b7565b810160208510156117eb578190505b6117ff6117f7856116b7565b83018261179e565b50505b505050565b600082821c905092915050565b600061182560001984600802611807565b1980831691505092915050565b600061183e8383611814565b9150826002028217905092915050565b6118578261102b565b67ffffffffffffffff8111156118705761186f610dc4565b5b61187a8254611562565b6118858282856117c1565b600060209050601f8311600181146118b857600084156118a6578287015190505b6118b08582611832565b865550611918565b601f1984166118c6866116a2565b60005b828110156118ee578489015182556001820191506020850194506020810190506118c9565b8683101561190b5784890151611907601f891682611814565b8355505b6001600288020188555050505b505050505050565b6000606082019050818103600083015261193a8186611173565b90506119496020830185610d7f565b611956604083018461139c565b949350505050565b600060408201905081810360008301526119788185611173565b90506119876020830184610d7f565b9392505050565b600061199982610d1c565b91506119a483610d1c565b92508282026119b281610d1c565b915082820484148315176119c9576119c86112cd565b5b509291505056fea26469706673582212203493080d22ff60962f76aeed00c1176662c062c6f8f934cd55d8b19443e51b3464736f6c6343000812003360806040523480156200001157600080fd5b50604051620014383803806200143883398181016040528101906200003791906200010b565b336000806101000a81548173ffffffffffffffffffffffffffffffffffffffff021916908373ffffffffffffffffffffffffffffffffffffffff16021790555080600381905550600354600160003373ffffffffffffffffffffffffffffffffffffffff1673ffffffffffffffffffffffffffffffffffffffff16815260200190815260200160002081905550506200013d565b600080fd5b6000819050919050565b620000e581620000d0565b8114620000f157600080fd5b50565b6000815190506200010581620000da565b92915050565b600060208284031215620001245762000123620000cb565b5b60006200013484828501620000f4565b91505092915050565b6112eb806200014d6000396000f3fe608060405234801561001057600080fd5b50600436106100b45760003560e01c806370a082311161007157806370a082311461018f578063715018a6146101bf57806395d89b41146101c9578063a9059cbb146101e7578063dd62ed3e14610217578063e0631f7f14610247576100b4565b806306fdde03146100b9578063095ea7b3146100d757806318160ddd146101075780631d43cc981461012557806323b872dd14610141578063313ce56714610171575b600080fd5b6100c1610277565b6040516100ce9190610f04565b60405180910390f35b6100f160048036038101906100ec9190610fbf565b6102b0565b6040516100fe919061101a565b60405180910390f35b61010f6103ee565b60405161011c9190611044565b60405180910390f35b61013f600480360381019061013a919061105f565b6103f8565b005b61015b6004803603810190610156919061108c565b6104f8565b604051610168919061101a565b60405180910390f35b610179610878565b60405161018691906110fb565b60405180910390f35b6101a960048036038101906101a49190611116565b61087d565b6040516101b69190611044565b60405180910390f35b6101c76108c6565b005b6101d1610997565b6040516101de9190610f04565b60405180910390f35b61020160048036038101906101fc9190610fbf565b6109d0565b60405161020e919061101a565b60405180910390f35b610231600480360381019061022c9190611143565b610bb7565b60405161023e9190611044565b60405180910390f35b610261600480360381019061025c919061108c565b610c3e565b60405161026e919061101a565b60405180910390f35b6040518060400160405280600681526020017f5265736f7274000000000000000000000000000000000000000000000000000081525081565b6000600160003373ffffffffffffffffffffffffffffffffffffffff1673ffffffffffffffffffffffffffffffffffffffff168152602001908152602001600020548211156102fe57600080fd5b81600260003373ffffffffffffffffffffffffffffffffffffffff1673ffffffffffffffffffffffffffffffffffffffff16815260200190815260200160002060008573ffffffffffffffffffffffffffffffffffffffff1673ffffffffffffffffffffffffffffffffffffffff168152602001908152602001600020819055508273ffffffffffffffffffffffffffffffffffffffff163373ffffffffffffffffffffffffffffffffffffffff167f8c5be1e5ebec7d5bd14f71427d1e84f3dd0314c0f7b2291e5b200ac8c7c3b925846040516103dc9190611044565b60405180910390a36001905092915050565b6000600354905090565b3373ffffffffffffffffffffffffffffffffffffffff1660008054906101000a900473ffffffffffffffffffffffffffffffffffffffff1673ffffffffffffffffffffffffffffffffffffffff1614610486576040517f08c379a000000000000000000000000000000000000000000000000000000000815260040161047d906111cf565b60405180910390fd5b8060036000828254610498919061121e565b9250508190555080600160003373ffffffffffffffffffffffffffffffffffffffff1673ffffffffffffffffffffffffffffffffffffffff16815260200190815260200160002060008282546104ee919061121e565b9250508190555050565b6000600160008573ffffffffffffffffffffffffffffffffffffffff1673ffffffffffffffffffffffffffffffffffffffff1681526020019081526020016000205482111561054657600080fd5b600260008573ffffffffffffffffffffffffffffffffffffffff1673ffffffffffffffffffffffffffffffffffffffff16815260200190815260200160002060003373ffffffffffffffffffffffffffffffffffffffff1673ffffffffffffffffffffffffffffffffffffffff168152602001908152602001600020548211156105cf57600080fd5b61062182600160008773ffffffffffffffffffffffffffffffffffffffff1673ffffffffffffffffffffffffffffffffffffffff16815260200190815260200160002054610e2690919063ffffffff16565b600160008673ffffffffffffffffffffffffffffffffffffffff1673ffffffffffffffffffffffffffffffffffffffff168152602001908152602001600020819055506106f382600260008773ffffffffffffffffffffffffffffffffffffffff1673ffffffffffffffffffffffffffffffffffffffff16815260200190815260200160002060003373ffffffffffffffffffffffffffffffffffffffff1673ffffffffffffffffffffffffffffffffffffffff16815260200190815260200160002054610e2690919063ffffffff16565b600260008673ffffffffffffffffffffffffffffffffffffffff1673ffffffffffffffffffffffffffffffffffffffff16815260200190815260200160002060003373ffffffffffffffffffffffffffffffffffffffff1673ffffffffffffffffffffffffffffffffffffffff168152602001908152602001600020819055506107c582600160008673ffffffffffffffffffffffffffffffffffffffff1673ffffffffffffffffffffffffffffffffffffffff16815260200190815260200160002054610e4d90919063ffffffff16565b600160008573ffffffffffffffffffffffffffffffffffffffff1673ffffffffffffffffffffffffffffffffffffffff168152602001908152602001600020819055508273ffffffffffffffffffffffffffffffffffffffff168473ffffffffffffffffffffffffffffffffffffffff167fddf252ad1be2c89b69c2b068fc378daa952ba7f163c4a11628f55a4df523b3ef846040516108659190611044565b60405180910390a3600090509392505050565b601281565b6000600160008373ffffffffffffffffffffffffffffffffffffffff1673ffffffffffffffffffffffffffffffffffffffff168152602001908152602001600020549050919050565b3373ffffffffffffffffffffffffffffffffffffffff1660008054906101000a900473ffffffffffffffffffffffffffffffffffffffff1673ffffffffffffffffffffffffffffffffffffffff1614610954576040517f08c379a000000000000000000000000000000000000000000000000000000000815260040161094b906111cf565b60405180910390fd5b60008060006101000a81548173ffffffffffffffffffffffffffffffffffffffff021916908373ffffffffffffffffffffffffffffffffffffffff160217905550565b6040518060400160405280600381526020017f525354000000000000000000000000000000000000000000000000000000000081525081565b6000600160003373ffffffffffffffffffffffffffffffffffffffff1673ffffffffffffffffffffffffffffffffffffffff16815260200190815260200160002054821115610a1e57600080fd5b610a7082600160003373ffffffffffffffffffffffffffffffffffffffff1673ffffffffffffffffffffffffffffffffffffffff16815260200190815260200160002054610e2690919063ffffffff16565b600160003373ffffffffffffffffffffffffffffffffffffffff1673ffffffffffffffffffffffffffffffffffffffff16815260200190815260200160002081905550610b0582600160008673ffffffffffffffffffffffffffffffffffffffff1673ffffffffffffffffffffffffffffffffffffffff16815260200190815260200160002054610e4d90919063ffffffff16565b600160008573ffffffffffffffffffffffffffffffffffffffff1673ffffffffffffffffffffffffffffffffffffffff168152602001908152602001600020819055508273ffffffffffffffffffffffffffffffffffffffff163373ffffffffffffffffffffffffffffffffffffffff167fddf252ad1be2c89b69c2b068fc378daa952ba7f163c4a11628f55a4df523b3ef84604051610ba59190611044565b60405180910390a36001905092915050565b6000600260008473ffffffffffffffffffffffffffffffffffffffff1673ffffffffffffffffffffffffffffffffffffffff16815260200190815260200160002060008373ffffffffffffffffffffffffffffffffffffffff1673ffffffffffffffffffffffffffffffffffffffff16815260200190815260200160002054905092915050565b6000600160008573ffffffffffffffffffffffffffffffffffffffff1673ffffffffffffffffffffffffffffffffffffffff16815260200190815260200160002054821115610c8c57600080fd5b610cde82600160003373ffffffffffffffffffffffffffffffffffffffff1673ffffffffffffffffffffffffffffffffffffffff16815260200190815260200160002054610e2690919063ffffffff16565b600160008673ffffffffffffffffffffffffffffffffffffffff1673ffffffffffffffffffffffffffffffffffffffff16815260200190815260200160002081905550610d7382600160008673ffffffffffffffffffffffffffffffffffffffff1673ffffffffffffffffffffffffffffffffffffffff16815260200190815260200160002054610e4d90919063ffffffff16565b600160008573ffffffffffffffffffffffffffffffffffffffff1673ffffffffffffffffffffffffffffffffffffffff168152602001908152602001600020819055508273ffffffffffffffffffffffffffffffffffffffff163373ffffffffffffffffffffffffffffffffffffffff167fddf252ad1be2c89b69c2b068fc378daa952ba7f163c4a11628f55a4df523b3ef84604051610e139190611044565b60405180910390a3600190509392505050565b600082821115610e3957610e38611252565b5b8183610e459190611281565b905092915050565b60008183610e5b919061121e565b905082811015610e6e57610e6d611252565b5b92915050565b600081519050919050565b600082825260208201905092915050565b60005b83811015610eae578082015181840152602081019050610e93565b60008484015250505050565b6000601f19601f8301169050919050565b6000610ed682610e74565b610ee08185610e7f565b9350610ef0818560208601610e90565b610ef981610eba565b840191505092915050565b60006020820190508181036000830152610f1e8184610ecb565b905092915050565b600080fd5b600073ffffffffffffffffffffffffffffffffffffffff82169050919050565b6000610f5682610f2b565b9050919050565b610f6681610f4b565b8114610f7157600080fd5b50565b600081359050610f8381610f5d565b92915050565b6000819050919050565b610f9c81610f89565b8114610fa757600080fd5b50565b600081359050610fb981610f93565b92915050565b60008060408385031215610fd657610fd5610f26565b5b6000610fe485828601610f74565b9250506020610ff585828601610faa565b9150509250929050565b60008115159050919050565b61101481610fff565b82525050565b600060208201905061102f600083018461100b565b92915050565b61103e81610f89565b82525050565b60006020820190506110596000830184611035565b92915050565b60006020828403121561107557611074610f26565b5b600061108384828501610faa565b91505092915050565b6000806000606084860312156110a5576110a4610f26565b5b60006110b386828701610f74565b93505060206110c486828701610f74565b92505060406110d586828701610faa565b9150509250925092565b600060ff82169050919050565b6110f5816110df565b82525050565b600060208201905061111060008301846110ec565b92915050565b60006020828403121561112c5761112b610f26565b5b600061113a84828501610f74565b91505092915050565b6000806040838503121561115a57611159610f26565b5b600061116885828601610f74565b925050602061117985828601610f74565b9150509250929050565b7f4d757374206265204f776e657200000000000000000000000000000000000000600082015250565b60006111b9600d83610e7f565b91506111c482611183565b602082019050919050565b600060208201905081810360008301526111e8816111ac565b9050919050565b7f4e487b7100000000000000000000000000000000000000000000000000000000600052601160045260246000fd5b600061122982610f89565b915061123483610f89565b925082820190508082111561124c5761124b6111ef565b5b92915050565b7f4e487b7100000000000000000000000000000000000000000000000000000000600052600160045260246000fd5b600061128c82610f89565b915061129783610f89565b92508282039050818111156112af576112ae6111ef565b5b9291505056fea26469706673582212200e71384d145c809f9d0b7a417f0244eba0ef75ff7a694a4398b27a46dfe26fbc64736f6c63430008120033",
					"opcodes": "PUSH1 0x80 PUSH1 0x40 MSTORE CALLVALUE DUP1 ISZERO PUSH3 0x11 JUMPI PUSH1 0x0 DUP1 REVERT JUMPDEST POP PUSH2 0x2710 PUSH1 0x40 MLOAD PUSH3 0x23 SWAP1 PUSH3 0xD3 JUMP JUMPDEST PUSH3 0x2F SWAP2 SWAP1 PUSH3 0x138 JUMP JUMPDEST PUSH1 0x40 MLOAD DUP1 SWAP2 SUB SWAP1 PUSH1 0x0 CREATE DUP1 ISZERO DUP1 ISZERO PUSH3 0x4C JUMPI RETURNDATASIZE PUSH1 0x0 DUP1 RETURNDATACOPY RETURNDATASIZE PUSH1 0x0 REVERT JUMPDEST POP PUSH1 0x0 DUP1 PUSH2 0x100 EXP DUP2 SLOAD DUP2 PUSH20 0xFFFFFFFFFFFFFFFFFFFFFFFFFFFFFFFFFFFFFFFF MUL NOT AND SWAP1 DUP4 PUSH20 0xFFFFFFFFFFFFFFFFFFFFFFFFFFFFFFFFFFFFFFFF AND MUL OR SWAP1 SSTORE POP CALLER PUSH1 0x1 PUSH1 0x0 PUSH2 0x100 EXP DUP2 SLOAD DUP2 PUSH20 0xFFFFFFFFFFFFFFFFFFFFFFFFFFFFFFFFFFFFFFFF MUL NOT AND SWAP1 DUP4 PUSH20 0xFFFFFFFFFFFFFFFFFFFFFFFFFFFFFFFFFFFFFFFF AND MUL OR SWAP1 SSTORE POP PUSH3 0x155 JUMP JUMPDEST PUSH2 0x1438 DUP1 PUSH3 0x1B6B DUP4 CODECOPY ADD SWAP1 JUMP JUMPDEST PUSH1 0x0 DUP2 SWAP1 POP SWAP2 SWAP1 POP JUMP JUMPDEST PUSH1 0x0 DUP2 SWAP1 POP SWAP2 SWAP1 POP JUMP JUMPDEST PUSH1 0x0 DUP2 SWAP1 POP SWAP2 SWAP1 POP JUMP JUMPDEST PUSH1 0x0 PUSH3 0x120 PUSH3 0x11A PUSH3 0x114 DUP5 PUSH3 0xE1 JUMP JUMPDEST PUSH3 0xF5 JUMP JUMPDEST PUSH3 0xEB JUMP JUMPDEST SWAP1 POP SWAP2 SWAP1 POP JUMP JUMPDEST PUSH3 0x132 DUP2 PUSH3 0xFF JUMP JUMPDEST DUP3 MSTORE POP POP JUMP JUMPDEST PUSH1 0x0 PUSH1 0x20 DUP3 ADD SWAP1 POP PUSH3 0x14F PUSH1 0x0 DUP4 ADD DUP5 PUSH3 0x127 JUMP JUMPDEST SWAP3 SWAP2 POP POP JUMP JUMPDEST PUSH2 0x1A06 DUP1 PUSH3 0x165 PUSH1 0x0 CODECOPY PUSH1 0x0 RETURN INVALID PUSH1 0x80 PUSH1 0x40 MSTORE PUSH1 0x4 CALLDATASIZE LT PUSH2 0x9C JUMPI PUSH1 0x0 CALLDATALOAD PUSH1 0xE0 SHR DUP1 PUSH4 0xA5956738 GT PUSH2 0x64 JUMPI DUP1 PUSH4 0xA5956738 EQ PUSH2 0x165 JUMPI DUP1 PUSH4 0xB96F2CD4 EQ PUSH2 0x1A2 JUMPI DUP1 PUSH4 0xC4834899 EQ PUSH2 0x1CD JUMPI DUP1 PUSH4 0xC4E5DFF2 EQ PUSH2 0x1F8 JUMPI DUP1 PUSH4 0xCB0A4A33 EQ PUSH2 0x237 JUMPI DUP1 PUSH4 0xFBD98B20 EQ PUSH2 0x260 JUMPI PUSH2 0x9C JUMP JUMPDEST DUP1 PUSH4 0x3610724E EQ PUSH2 0xA1 JUMPI DUP1 PUSH4 0x722713F7 EQ PUSH2 0xBD JUMPI DUP1 PUSH4 0x79AC996A EQ PUSH2 0xE8 JUMPI DUP1 PUSH4 0x8DA5CB5B EQ PUSH2 0x111 JUMPI DUP1 PUSH4 0x97304CED EQ PUSH2 0x13C JUMPI JUMPDEST PUSH1 0x0 DUP1 REVERT JUMPDEST PUSH2 0xBB PUSH1 0x4 DUP1 CALLDATASIZE SUB DUP2 ADD SWAP1 PUSH2 0xB6 SWAP2 SWAP1 PUSH2 0xD52 JUMP JUMPDEST PUSH2 0x289 JUMP JUMPDEST STOP JUMPDEST CALLVALUE DUP1 ISZERO PUSH2 0xC9 JUMPI PUSH1 0x0 DUP1 REVERT JUMPDEST POP PUSH2 0xD2 PUSH2 0x47D JUMP JUMPDEST PUSH1 0x40 MLOAD PUSH2 0xDF SWAP2 SWAP1 PUSH2 0xD8E JUMP JUMPDEST PUSH1 0x40 MLOAD DUP1 SWAP2 SUB SWAP1 RETURN JUMPDEST CALLVALUE DUP1 ISZERO PUSH2 0xF4 JUMPI PUSH1 0x0 DUP1 REVERT JUMPDEST POP PUSH2 0x10F PUSH1 0x4 DUP1 CALLDATASIZE SUB DUP2 ADD SWAP1 PUSH2 0x10A SWAP2 SWAP1 PUSH2 0xEEF JUMP JUMPDEST PUSH2 0x51F JUMP JUMPDEST STOP JUMPDEST CALLVALUE DUP1 ISZERO PUSH2 0x11D JUMPI PUSH1 0x0 DUP1 REVERT JUMPDEST POP PUSH2 0x126 PUSH2 0x5ED JUMP JUMPDEST PUSH1 0x40 MLOAD PUSH2 0x133 SWAP2 SWAP1 PUSH2 0xF79 JUMP JUMPDEST PUSH1 0x40 MLOAD DUP1 SWAP2 SUB SWAP1 RETURN JUMPDEST CALLVALUE DUP1 ISZERO PUSH2 0x148 JUMPI PUSH1 0x0 DUP1 REVERT JUMPDEST POP PUSH2 0x163 PUSH1 0x4 DUP1 CALLDATASIZE SUB DUP2 ADD SWAP1 PUSH2 0x15E SWAP2 SWAP1 PUSH2 0xD52 JUMP JUMPDEST PUSH2 0x613 JUMP JUMPDEST STOP JUMPDEST CALLVALUE DUP1 ISZERO PUSH2 0x171 JUMPI PUSH1 0x0 DUP1 REVERT JUMPDEST POP PUSH2 0x18C PUSH1 0x4 DUP1 CALLDATASIZE SUB DUP2 ADD SWAP1 PUSH2 0x187 SWAP2 SWAP1 PUSH2 0xFD2 JUMP JUMPDEST PUSH2 0x6FB JUMP JUMPDEST PUSH1 0x40 MLOAD PUSH2 0x199 SWAP2 SWAP1 PUSH2 0xD8E JUMP JUMPDEST PUSH1 0x40 MLOAD DUP1 SWAP2 SUB SWAP1 RETURN JUMPDEST CALLVALUE DUP1 ISZERO PUSH2 0x1AE JUMPI PUSH1 0x0 DUP1 REVERT JUMPDEST POP PUSH2 0x1B7 PUSH2 0x719 JUMP JUMPDEST PUSH1 0x40 MLOAD PUSH2 0x1C4 SWAP2 SWAP1 PUSH2 0x1140 JUMP JUMPDEST PUSH1 0x40 MLOAD DUP1 SWAP2 SUB SWAP1 RETURN JUMPDEST CALLVALUE DUP1 ISZERO PUSH2 0x1D9 JUMPI PUSH1 0x0 DUP1 REVERT JUMPDEST POP PUSH2 0x1E2 PUSH2 0x7F2 JUMP JUMPDEST PUSH1 0x40 MLOAD PUSH2 0x1EF SWAP2 SWAP1 PUSH2 0xD8E JUMP JUMPDEST PUSH1 0x40 MLOAD DUP1 SWAP2 SUB SWAP1 RETURN JUMPDEST CALLVALUE DUP1 ISZERO PUSH2 0x204 JUMPI PUSH1 0x0 DUP1 REVERT JUMPDEST POP PUSH2 0x21F PUSH1 0x4 DUP1 CALLDATASIZE SUB DUP2 ADD SWAP1 PUSH2 0x21A SWAP2 SWAP1 PUSH2 0xEEF JUMP JUMPDEST PUSH2 0x894 JUMP JUMPDEST PUSH1 0x40 MLOAD PUSH2 0x22E SWAP4 SWAP3 SWAP2 SWAP1 PUSH2 0x11C7 JUMP JUMPDEST PUSH1 0x40 MLOAD DUP1 SWAP2 SUB SWAP1 RETURN JUMPDEST CALLVALUE DUP1 ISZERO PUSH2 0x243 JUMPI PUSH1 0x0 DUP1 REVERT JUMPDEST POP PUSH2 0x25E PUSH1 0x4 DUP1 CALLDATASIZE SUB DUP2 ADD SWAP1 PUSH2 0x259 SWAP2 SWAP1 PUSH2 0xEEF JUMP JUMPDEST PUSH2 0x969 JUMP JUMPDEST STOP JUMPDEST CALLVALUE DUP1 ISZERO PUSH2 0x26C JUMPI PUSH1 0x0 DUP1 REVERT JUMPDEST POP PUSH2 0x287 PUSH1 0x4 DUP1 CALLDATASIZE SUB DUP2 ADD SWAP1 PUSH2 0x282 SWAP2 SWAP1 PUSH2 0x1205 JUMP JUMPDEST PUSH2 0xBA0 JUMP JUMPDEST STOP JUMPDEST PUSH1 0x0 PUSH2 0x294 DUP3 PUSH2 0xCEB JUMP JUMPDEST SWAP1 POP DUP1 CALLVALUE LT ISZERO PUSH2 0x2D9 JUMPI PUSH1 0x40 MLOAD PUSH32 0x8C379A000000000000000000000000000000000000000000000000000000000 DUP2 MSTORE PUSH1 0x4 ADD PUSH2 0x2D0 SWAP1 PUSH2 0x12AD JUMP JUMPDEST PUSH1 0x40 MLOAD DUP1 SWAP2 SUB SWAP1 REVERT JUMPDEST PUSH1 0x0 DUP2 CALLVALUE PUSH2 0x2E7 SWAP2 SWAP1 PUSH2 0x12FC JUMP JUMPDEST SWAP1 POP CALLER PUSH20 0xFFFFFFFFFFFFFFFFFFFFFFFFFFFFFFFFFFFFFFFF AND PUSH2 0x8FC DUP3 SWAP1 DUP2 ISZERO MUL SWAP1 PUSH1 0x40 MLOAD PUSH1 0x0 PUSH1 0x40 MLOAD DUP1 DUP4 SUB DUP2 DUP6 DUP9 DUP9 CALL SWAP4 POP POP POP POP ISZERO DUP1 ISZERO PUSH2 0x32F JUMPI RETURNDATASIZE PUSH1 0x0 DUP1 RETURNDATACOPY RETURNDATASIZE PUSH1 0x0 REVERT JUMPDEST POP PUSH1 0x0 PUSH2 0x33A PUSH2 0x47D JUMP JUMPDEST SWAP1 POP DUP1 DUP5 GT ISZERO PUSH2 0x37F JUMPI PUSH1 0x40 MLOAD PUSH32 0x8C379A000000000000000000000000000000000000000000000000000000000 DUP2 MSTORE PUSH1 0x4 ADD PUSH2 0x376 SWAP1 PUSH2 0x137C JUMP JUMPDEST PUSH1 0x40 MLOAD DUP1 SWAP2 SUB SWAP1 REVERT JUMPDEST PUSH1 0x0 DUP1 SLOAD SWAP1 PUSH2 0x100 EXP SWAP1 DIV PUSH20 0xFFFFFFFFFFFFFFFFFFFFFFFFFFFFFFFFFFFFFFFF AND PUSH20 0xFFFFFFFFFFFFFFFFFFFFFFFFFFFFFFFFFFFFFFFF AND PUSH4 0xA9059CBB CALLER DUP7 PUSH1 0x40 MLOAD DUP4 PUSH4 0xFFFFFFFF AND PUSH1 0xE0 SHL DUP2 MSTORE PUSH1 0x4 ADD PUSH2 0x3DA SWAP3 SWAP2 SWAP1 PUSH2 0x13AB JUMP JUMPDEST PUSH1 0x20 PUSH1 0x40 MLOAD DUP1 DUP4 SUB DUP2 PUSH1 0x0 DUP8 GAS CALL ISZERO DUP1 ISZERO PUSH2 0x3F9 JUMPI RETURNDATASIZE PUSH1 0x0 DUP1 RETURNDATACOPY RETURNDATASIZE PUSH1 0x0 REVERT JUMPDEST POP POP POP POP PUSH1 0x40 MLOAD RETURNDATASIZE PUSH1 0x1F NOT PUSH1 0x1F DUP3 ADD AND DUP3 ADD DUP1 PUSH1 0x40 MSTORE POP DUP2 ADD SWAP1 PUSH2 0x41D SWAP2 SWAP1 PUSH2 0x1400 JUMP JUMPDEST POP DUP4 PUSH1 0x2 PUSH1 0x0 CALLER PUSH20 0xFFFFFFFFFFFFFFFFFFFFFFFFFFFFFFFFFFFFFFFF AND PUSH20 0xFFFFFFFFFFFFFFFFFFFFFFFFFFFFFFFFFFFFFFFF AND DUP2 MSTORE PUSH1 0x20 ADD SWAP1 DUP2 MSTORE PUSH1 0x20 ADD PUSH1 0x0 KECCAK256 PUSH1 0x0 ADD PUSH1 0x0 DUP3 DUP3 SLOAD PUSH2 0x470 SWAP2 SWAP1 PUSH2 0x142D JUMP JUMPDEST SWAP3 POP POP DUP2 SWAP1 SSTORE POP POP POP POP POP JUMP JUMPDEST PUSH1 0x0 DUP1 PUSH1 0x0 SWAP1 SLOAD SWAP1 PUSH2 0x100 EXP SWAP1 DIV PUSH20 0xFFFFFFFFFFFFFFFFFFFFFFFFFFFFFFFFFFFFFFFF AND PUSH20 0xFFFFFFFFFFFFFFFFFFFFFFFFFFFFFFFFFFFFFFFF AND PUSH4 0x70A08231 ADDRESS PUSH1 0x40 MLOAD DUP3 PUSH4 0xFFFFFFFF AND PUSH1 0xE0 SHL DUP2 MSTORE PUSH1 0x4 ADD PUSH2 0x4D9 SWAP2 SWAP1 PUSH2 0x1461 JUMP JUMPDEST PUSH1 0x20 PUSH1 0x40 MLOAD DUP1 DUP4 SUB DUP2 DUP7 GAS STATICCALL ISZERO DUP1 ISZERO PUSH2 0x4F6 JUMPI RETURNDATASIZE PUSH1 0x0 DUP1 RETURNDATACOPY RETURNDATASIZE PUSH1 0x0 REVERT JUMPDEST POP POP POP POP PUSH1 0x40 MLOAD RETURNDATASIZE PUSH1 0x1F NOT PUSH1 0x1F DUP3 ADD AND DUP3 ADD DUP1 PUSH1 0x40 MSTORE POP DUP2 ADD SWAP1 PUSH2 0x51A SWAP2 SWAP1 PUSH2 0x1491 JUMP JUMPDEST SWAP1 POP SWAP1 JUMP JUMPDEST PUSH1 0x1 PUSH1 0x0 SWAP1 SLOAD SWAP1 PUSH2 0x100 EXP SWAP1 DIV PUSH20 0xFFFFFFFFFFFFFFFFFFFFFFFFFFFFFFFFFFFFFFFF AND PUSH20 0xFFFFFFFFFFFFFFFFFFFFFFFFFFFFFFFFFFFFFFFF AND CALLER PUSH20 0xFFFFFFFFFFFFFFFFFFFFFFFFFFFFFFFFFFFFFFFF AND EQ PUSH2 0x579 JUMPI PUSH1 0x0 DUP1 REVERT JUMPDEST PUSH1 0x0 PUSH1 0x3 DUP3 PUSH1 0x40 MLOAD PUSH2 0x58B SWAP2 SWAP1 PUSH2 0x14FA JUMP JUMPDEST SWAP1 DUP2 MSTORE PUSH1 0x20 ADD PUSH1 0x40 MLOAD DUP1 SWAP2 SUB SWAP1 KECCAK256 PUSH1 0x2 ADD PUSH1 0x0 PUSH2 0x100 EXP DUP2 SLOAD DUP2 PUSH1 0xFF MUL NOT AND SWAP1 DUP4 ISZERO ISZERO MUL OR SWAP1 SSTORE POP PUSH32 0xA9B5D005CB280C62BB7A048BB2323E402707D0F05A053A3FE3A3E1B64AA4856D DUP2 PUSH1 0x40 MLOAD PUSH2 0x5E2 SWAP2 SWAP1 PUSH2 0x1511 JUMP JUMPDEST PUSH1 0x40 MLOAD DUP1 SWAP2 SUB SWAP1 LOG1 POP JUMP JUMPDEST PUSH1 0x1 PUSH1 0x0 SWAP1 SLOAD SWAP1 PUSH2 0x100 EXP SWAP1 DIV PUSH20 0xFFFFFFFFFFFFFFFFFFFFFFFFFFFFFFFFFFFFFFFF AND DUP2 JUMP JUMPDEST PUSH1 0x1 PUSH1 0x0 SWAP1 SLOAD SWAP1 PUSH2 0x100 EXP SWAP1 DIV PUSH20 0xFFFFFFFFFFFFFFFFFFFFFFFFFFFFFFFFFFFFFFFF AND PUSH20 0xFFFFFFFFFFFFFFFFFFFFFFFFFFFFFFFFFFFFFFFF AND CALLER PUSH20 0xFFFFFFFFFFFFFFFFFFFFFFFFFFFFFFFFFFFFFFFF AND EQ PUSH2 0x66D JUMPI PUSH1 0x0 DUP1 REVERT JUMPDEST PUSH1 0x0 DUP1 SLOAD SWAP1 PUSH2 0x100 EXP SWAP1 DIV PUSH20 0xFFFFFFFFFFFFFFFFFFFFFFFFFFFFFFFFFFFFFFFF AND PUSH20 0xFFFFFFFFFFFFFFFFFFFFFFFFFFFFFFFFFFFFFFFF AND PUSH4 0x1D43CC98 DUP3 PUSH1 0x40 MLOAD DUP3 PUSH4 0xFFFFFFFF AND PUSH1 0xE0 SHL DUP2 MSTORE PUSH1 0x4 ADD PUSH2 0x6C6 SWAP2 SWAP1 PUSH2 0xD8E JUMP JUMPDEST PUSH1 0x0 PUSH1 0x40 MLOAD DUP1 DUP4 SUB DUP2 PUSH1 0x0 DUP8 DUP1 EXTCODESIZE ISZERO DUP1 ISZERO PUSH2 0x6E0 JUMPI PUSH1 0x0 DUP1 REVERT JUMPDEST POP GAS CALL ISZERO DUP1 ISZERO PUSH2 0x6F4 JUMPI RETURNDATASIZE PUSH1 0x0 DUP1 RETURNDATACOPY RETURNDATASIZE PUSH1 0x0 REVERT JUMPDEST POP POP POP POP POP JUMP JUMPDEST PUSH1 0x2 PUSH1 0x20 MSTORE DUP1 PUSH1 0x0 MSTORE PUSH1 0x40 PUSH1 0x0 KECCAK256 PUSH1 0x0 SWAP2 POP SWAP1 POP DUP1 PUSH1 0x0 ADD SLOAD SWAP1 POP DUP2 JUMP JUMPDEST PUSH1 0x60 PUSH1 0x4 DUP1 SLOAD DUP1 PUSH1 0x20 MUL PUSH1 0x20 ADD PUSH1 0x40 MLOAD SWAP1 DUP2 ADD PUSH1 0x40 MSTORE DUP1 SWAP3 SWAP2 SWAP1 DUP2 DUP2 MSTORE PUSH1 0x20 ADD PUSH1 0x0 SWAP1 JUMPDEST DUP3 DUP3 LT ISZERO PUSH2 0x7E9 JUMPI DUP4 DUP3 SWAP1 PUSH1 0x0 MSTORE PUSH1 0x20 PUSH1 0x0 KECCAK256 ADD DUP1 SLOAD PUSH2 0x75C SWAP1 PUSH2 0x1562 JUMP JUMPDEST DUP1 PUSH1 0x1F ADD PUSH1 0x20 DUP1 SWAP2 DIV MUL PUSH1 0x20 ADD PUSH1 0x40 MLOAD SWAP1 DUP2 ADD PUSH1 0x40 MSTORE DUP1 SWAP3 SWAP2 SWAP1 DUP2 DUP2 MSTORE PUSH1 0x20 ADD DUP3 DUP1 SLOAD PUSH2 0x788 SWAP1 PUSH2 0x1562 JUMP JUMPDEST DUP1 ISZERO PUSH2 0x7D5 JUMPI DUP1 PUSH1 0x1F LT PUSH2 0x7AA JUMPI PUSH2 0x100 DUP1 DUP4 SLOAD DIV MUL DUP4 MSTORE SWAP2 PUSH1 0x20 ADD SWAP2 PUSH2 0x7D5 JUMP JUMPDEST DUP3 ADD SWAP2 SWAP1 PUSH1 0x0 MSTORE PUSH1 0x20 PUSH1 0x0 KECCAK256 SWAP1 JUMPDEST DUP2 SLOAD DUP2 MSTORE SWAP1 PUSH1 0x1 ADD SWAP1 PUSH1 0x20 ADD DUP1 DUP4 GT PUSH2 0x7B8 JUMPI DUP3 SWAP1 SUB PUSH1 0x1F AND DUP3 ADD SWAP2 JUMPDEST POP POP POP POP POP DUP2 MSTORE PUSH1 0x20 ADD SWAP1 PUSH1 0x1 ADD SWAP1 PUSH2 0x73D JUMP JUMPDEST POP POP POP POP SWAP1 POP SWAP1 JUMP JUMPDEST PUSH1 0x0 DUP1 PUSH1 0x0 SWAP1 SLOAD SWAP1 PUSH2 0x100 EXP SWAP1 DIV PUSH20 0xFFFFFFFFFFFFFFFFFFFFFFFFFFFFFFFFFFFFFFFF AND PUSH20 0xFFFFFFFFFFFFFFFFFFFFFFFFFFFFFFFFFFFFFFFF AND PUSH4 0x70A08231 CALLER PUSH1 0x40 MLOAD DUP3 PUSH4 0xFFFFFFFF AND PUSH1 0xE0 SHL DUP2 MSTORE PUSH1 0x4 ADD PUSH2 0x84E SWAP2 SWAP1 PUSH2 0x1461 JUMP JUMPDEST PUSH1 0x20 PUSH1 0x40 MLOAD DUP1 DUP4 SUB DUP2 DUP7 GAS STATICCALL ISZERO DUP1 ISZERO PUSH2 0x86B JUMPI RETURNDATASIZE PUSH1 0x0 DUP1 RETURNDATACOPY RETURNDATASIZE PUSH1 0x0 REVERT JUMPDEST POP POP POP POP PUSH1 0x40 MLOAD RETURNDATASIZE PUSH1 0x1F NOT PUSH1 0x1F DUP3 ADD AND DUP3 ADD DUP1 PUSH1 0x40 MSTORE POP DUP2 ADD SWAP1 PUSH2 0x88F SWAP2 SWAP1 PUSH2 0x1491 JUMP JUMPDEST SWAP1 POP SWAP1 JUMP JUMPDEST PUSH1 0x3 DUP2 DUP1 MLOAD PUSH1 0x20 DUP2 ADD DUP3 ADD DUP1 MLOAD DUP5 DUP3 MSTORE PUSH1 0x20 DUP4 ADD PUSH1 0x20 DUP6 ADD KECCAK256 DUP2 DUP4 MSTORE DUP1 SWAP6 POP POP POP POP POP POP PUSH1 0x0 SWAP2 POP SWAP1 POP DUP1 PUSH1 0x0 ADD DUP1 SLOAD PUSH2 0x8CD SWAP1 PUSH2 0x1562 JUMP JUMPDEST DUP1 PUSH1 0x1F ADD PUSH1 0x20 DUP1 SWAP2 DIV MUL PUSH1 0x20 ADD PUSH1 0x40 MLOAD SWAP1 DUP2 ADD PUSH1 0x40 MSTORE DUP1 SWAP3 SWAP2 SWAP1 DUP2 DUP2 MSTORE PUSH1 0x20 ADD DUP3 DUP1 SLOAD PUSH2 0x8F9 SWAP1 PUSH2 0x1562 JUMP JUMPDEST DUP1 ISZERO PUSH2 0x946 JUMPI DUP1 PUSH1 0x1F LT PUSH2 0x91B JUMPI PUSH2 0x100 DUP1 DUP4 SLOAD DIV MUL DUP4 MSTORE SWAP2 PUSH1 0x20 ADD SWAP2 PUSH2 0x946 JUMP JUMPDEST DUP3 ADD SWAP2 SWAP1 PUSH1 0x0 MSTORE PUSH1 0x20 PUSH1 0x0 KECCAK256 SWAP1 JUMPDEST DUP2 SLOAD DUP2 MSTORE SWAP1 PUSH1 0x1 ADD SWAP1 PUSH1 0x20 ADD DUP1 DUP4 GT PUSH2 0x929 JUMPI DUP3 SWAP1 SUB PUSH1 0x1F AND DUP3 ADD SWAP2 JUMPDEST POP POP POP POP POP SWAP1 DUP1 PUSH1 0x1 ADD SLOAD SWAP1 DUP1 PUSH1 0x2 ADD PUSH1 0x0 SWAP1 SLOAD SWAP1 PUSH2 0x100 EXP SWAP1 DIV PUSH1 0xFF AND SWAP1 POP DUP4 JUMP JUMPDEST PUSH1 0x1 ISZERO ISZERO PUSH1 0x3 DUP3 PUSH1 0x40 MLOAD PUSH2 0x97D SWAP2 SWAP1 PUSH2 0x14FA JUMP JUMPDEST SWAP1 DUP2 MSTORE PUSH1 0x20 ADD PUSH1 0x40 MLOAD DUP1 SWAP2 SUB SWAP1 KECCAK256 PUSH1 0x2 ADD PUSH1 0x0 SWAP1 SLOAD SWAP1 PUSH2 0x100 EXP SWAP1 DIV PUSH1 0xFF AND ISZERO ISZERO EQ PUSH2 0x9DE JUMPI PUSH1 0x40 MLOAD PUSH32 0x8C379A000000000000000000000000000000000000000000000000000000000 DUP2 MSTORE PUSH1 0x4 ADD PUSH2 0x9D5 SWAP1 PUSH2 0x15DF JUMP JUMPDEST PUSH1 0x40 MLOAD DUP1 SWAP2 SUB SWAP1 REVERT JUMPDEST PUSH1 0x0 PUSH1 0x3 DUP3 PUSH1 0x40 MLOAD PUSH2 0x9F0 SWAP2 SWAP1 PUSH2 0x14FA JUMP JUMPDEST SWAP1 DUP2 MSTORE PUSH1 0x20 ADD PUSH1 0x40 MLOAD DUP1 SWAP2 SUB SWAP1 KECCAK256 PUSH1 0x1 ADD SLOAD SWAP1 POP DUP1 PUSH2 0xA0D PUSH2 0x7F2 JUMP JUMPDEST LT ISZERO PUSH2 0xA4E JUMPI PUSH1 0x40 MLOAD PUSH32 0x8C379A000000000000000000000000000000000000000000000000000000000 DUP2 MSTORE PUSH1 0x4 ADD PUSH2 0xA45 SWAP1 PUSH2 0x164B JUMP JUMPDEST PUSH1 0x40 MLOAD DUP1 SWAP2 SUB SWAP1 REVERT JUMPDEST PUSH1 0x0 DUP1 SLOAD SWAP1 PUSH2 0x100 EXP SWAP1 DIV PUSH20 0xFFFFFFFFFFFFFFFFFFFFFFFFFFFFFFFFFFFFFFFF AND PUSH20 0xFFFFFFFFFFFFFFFFFFFFFFFFFFFFFFFFFFFFFFFF AND PUSH4 0xE0631F7F CALLER ADDRESS DUP5 PUSH1 0x40 MLOAD DUP5 PUSH4 0xFFFFFFFF AND PUSH1 0xE0 SHL DUP2 MSTORE PUSH1 0x4 ADD PUSH2 0xAAB SWAP4 SWAP3 SWAP2 SWAP1 PUSH2 0x166B JUMP JUMPDEST PUSH1 0x20 PUSH1 0x40 MLOAD DUP1 DUP4 SUB DUP2 PUSH1 0x0 DUP8 GAS CALL ISZERO DUP1 ISZERO PUSH2 0xACA JUMPI RETURNDATASIZE PUSH1 0x0 DUP1 RETURNDATACOPY RETURNDATASIZE PUSH1 0x0 REVERT JUMPDEST POP POP POP POP PUSH1 0x40 MLOAD RETURNDATASIZE PUSH1 0x1F NOT PUSH1 0x1F DUP3 ADD AND DUP3 ADD DUP1 PUSH1 0x40 MSTORE POP DUP2 ADD SWAP1 PUSH2 0xAEE SWAP2 SWAP1 PUSH2 0x1400 JUMP JUMPDEST POP PUSH1 0x5 PUSH1 0x0 CALLER PUSH20 0xFFFFFFFFFFFFFFFFFFFFFFFFFFFFFFFFFFFFFFFF AND PUSH20 0xFFFFFFFFFFFFFFFFFFFFFFFFFFFFFFFFFFFFFFFF AND DUP2 MSTORE PUSH1 0x20 ADD SWAP1 DUP2 MSTORE PUSH1 0x20 ADD PUSH1 0x0 KECCAK256 DUP3 SWAP1 DUP1 PUSH1 0x1 DUP2 SLOAD ADD DUP1 DUP3 SSTORE DUP1 SWAP2 POP POP PUSH1 0x1 SWAP1 SUB SWAP1 PUSH1 0x0 MSTORE PUSH1 0x20 PUSH1 0x0 KECCAK256 ADD PUSH1 0x0 SWAP1 SWAP2 SWAP1 SWAP2 SWAP1 SWAP2 POP SWAP1 DUP2 PUSH2 0xB60 SWAP2 SWAP1 PUSH2 0x184E JUMP JUMPDEST POP PUSH32 0xFCEC2A140106A441FBAAE966BD30F8CACD5C4AE875E31E09ACEC6324F2A065B3 DUP3 DUP3 CALLER PUSH1 0x40 MLOAD PUSH2 0xB94 SWAP4 SWAP3 SWAP2 SWAP1 PUSH2 0x1920 JUMP JUMPDEST PUSH1 0x40 MLOAD DUP1 SWAP2 SUB SWAP1 LOG1 POP POP JUMP JUMPDEST PUSH1 0x1 PUSH1 0x0 SWAP1 SLOAD SWAP1 PUSH2 0x100 EXP SWAP1 DIV PUSH20 0xFFFFFFFFFFFFFFFFFFFFFFFFFFFFFFFFFFFFFFFF AND PUSH20 0xFFFFFFFFFFFFFFFFFFFFFFFFFFFFFFFFFFFFFFFF AND CALLER PUSH20 0xFFFFFFFFFFFFFFFFFFFFFFFFFFFFFFFFFFFFFFFF AND EQ PUSH2 0xBFA JUMPI PUSH1 0x0 DUP1 REVERT JUMPDEST PUSH1 0x40 MLOAD DUP1 PUSH1 0x60 ADD PUSH1 0x40 MSTORE DUP1 DUP4 DUP2 MSTORE PUSH1 0x20 ADD DUP3 DUP2 MSTORE PUSH1 0x20 ADD PUSH1 0x1 ISZERO ISZERO DUP2 MSTORE POP PUSH1 0x3 DUP4 PUSH1 0x40 MLOAD PUSH2 0xC28 SWAP2 SWAP1 PUSH2 0x14FA JUMP JUMPDEST SWAP1 DUP2 MSTORE PUSH1 0x20 ADD PUSH1 0x40 MLOAD DUP1 SWAP2 SUB SWAP1 KECCAK256 PUSH1 0x0 DUP3 ADD MLOAD DUP2 PUSH1 0x0 ADD SWAP1 DUP2 PUSH2 0xC4B SWAP2 SWAP1 PUSH2 0x184E JUMP JUMPDEST POP PUSH1 0x20 DUP3 ADD MLOAD DUP2 PUSH1 0x1 ADD SSTORE PUSH1 0x40 DUP3 ADD MLOAD DUP2 PUSH1 0x2 ADD PUSH1 0x0 PUSH2 0x100 EXP DUP2 SLOAD DUP2 PUSH1 0xFF MUL NOT AND SWAP1 DUP4 ISZERO ISZERO MUL OR SWAP1 SSTORE POP SWAP1 POP POP PUSH1 0x4 DUP3 SWAP1 DUP1 PUSH1 0x1 DUP2 SLOAD ADD DUP1 DUP3 SSTORE DUP1 SWAP2 POP POP PUSH1 0x1 SWAP1 SUB SWAP1 PUSH1 0x0 MSTORE PUSH1 0x20 PUSH1 0x0 KECCAK256 ADD PUSH1 0x0 SWAP1 SWAP2 SWAP1 SWAP2 SWAP1 SWAP2 POP SWAP1 DUP2 PUSH2 0xCAD SWAP2 SWAP1 PUSH2 0x184E JUMP JUMPDEST POP PUSH32 0x7881AAF671F51BE7F8D7A5D3E85D5C6C2E67C380908056A877BC6CFC1B8BFC5E DUP3 DUP3 PUSH1 0x40 MLOAD PUSH2 0xCDF SWAP3 SWAP2 SWAP1 PUSH2 0x195E JUMP JUMPDEST PUSH1 0x40 MLOAD DUP1 SWAP2 SUB SWAP1 LOG1 POP POP JUMP JUMPDEST PUSH1 0x0 PUSH8 0xDE0B6B3A7640000 DUP3 PUSH2 0xD01 SWAP2 SWAP1 PUSH2 0x198E JUMP JUMPDEST SWAP1 POP SWAP2 SWAP1 POP JUMP JUMPDEST PUSH1 0x0 PUSH1 0x40 MLOAD SWAP1 POP SWAP1 JUMP JUMPDEST PUSH1 0x0 DUP1 REVERT JUMPDEST PUSH1 0x0 DUP1 REVERT JUMPDEST PUSH1 0x0 DUP2 SWAP1 POP SWAP2 SWAP1 POP JUMP JUMPDEST PUSH2 0xD2F DUP2 PUSH2 0xD1C JUMP JUMPDEST DUP2 EQ PUSH2 0xD3A JUMPI PUSH1 0x0 DUP1 REVERT JUMPDEST POP JUMP JUMPDEST PUSH1 0x0 DUP2 CALLDATALOAD SWAP1 POP PUSH2 0xD4C DUP2 PUSH2 0xD26 JUMP JUMPDEST SWAP3 SWAP2 POP POP JUMP JUMPDEST PUSH1 0x0 PUSH1 0x20 DUP3 DUP5 SUB SLT ISZERO PUSH2 0xD68 JUMPI PUSH2 0xD67 PUSH2 0xD12 JUMP JUMPDEST JUMPDEST PUSH1 0x0 PUSH2 0xD76 DUP5 DUP3 DUP6 ADD PUSH2 0xD3D JUMP JUMPDEST SWAP2 POP POP SWAP3 SWAP2 POP POP JUMP JUMPDEST PUSH2 0xD88 DUP2 PUSH2 0xD1C JUMP JUMPDEST DUP3 MSTORE POP POP JUMP JUMPDEST PUSH1 0x0 PUSH1 0x20 DUP3 ADD SWAP1 POP PUSH2 0xDA3 PUSH1 0x0 DUP4 ADD DUP5 PUSH2 0xD7F JUMP JUMPDEST SWAP3 SWAP2 POP POP JUMP JUMPDEST PUSH1 0x0 DUP1 REVERT JUMPDEST PUSH1 0x0 DUP1 REVERT JUMPDEST PUSH1 0x0 PUSH1 0x1F NOT PUSH1 0x1F DUP4 ADD AND SWAP1 POP SWAP2 SWAP1 POP JUMP JUMPDEST PUSH32 0x4E487B7100000000000000000000000000000000000000000000000000000000 PUSH1 0x0 MSTORE PUSH1 0x41 PUSH1 0x4 MSTORE PUSH1 0x24 PUSH1 0x0 REVERT JUMPDEST PUSH2 0xDFC DUP3 PUSH2 0xDB3 JUMP JUMPDEST DUP2 ADD DUP2 DUP2 LT PUSH8 0xFFFFFFFFFFFFFFFF DUP3 GT OR ISZERO PUSH2 0xE1B JUMPI PUSH2 0xE1A PUSH2 0xDC4 JUMP JUMPDEST JUMPDEST DUP1 PUSH1 0x40 MSTORE POP POP POP JUMP JUMPDEST PUSH1 0x0 PUSH2 0xE2E PUSH2 0xD08 JUMP JUMPDEST SWAP1 POP PUSH2 0xE3A DUP3 DUP3 PUSH2 0xDF3 JUMP JUMPDEST SWAP2 SWAP1 POP JUMP JUMPDEST PUSH1 0x0 PUSH8 0xFFFFFFFFFFFFFFFF DUP3 GT ISZERO PUSH2 0xE5A JUMPI PUSH2 0xE59 PUSH2 0xDC4 JUMP JUMPDEST JUMPDEST PUSH2 0xE63 DUP3 PUSH2 0xDB3 JUMP JUMPDEST SWAP1 POP PUSH1 0x20 DUP2 ADD SWAP1 POP SWAP2 SWAP1 POP JUMP JUMPDEST DUP3 DUP2 DUP4 CALLDATACOPY PUSH1 0x0 DUP4 DUP4 ADD MSTORE POP POP POP JUMP JUMPDEST PUSH1 0x0 PUSH2 0xE92 PUSH2 0xE8D DUP5 PUSH2 0xE3F JUMP JUMPDEST PUSH2 0xE24 JUMP JUMPDEST SWAP1 POP DUP3 DUP2 MSTORE PUSH1 0x20 DUP2 ADD DUP5 DUP5 DUP5 ADD GT ISZERO PUSH2 0xEAE JUMPI PUSH2 0xEAD PUSH2 0xDAE JUMP JUMPDEST JUMPDEST PUSH2 0xEB9 DUP5 DUP3 DUP6 PUSH2 0xE70 JUMP JUMPDEST POP SWAP4 SWAP3 POP POP POP JUMP JUMPDEST PUSH1 0x0 DUP3 PUSH1 0x1F DUP4 ADD SLT PUSH2 0xED6 JUMPI PUSH2 0xED5 PUSH2 0xDA9 JUMP JUMPDEST JUMPDEST DUP2 CALLDATALOAD PUSH2 0xEE6 DUP5 DUP3 PUSH1 0x20 DUP7 ADD PUSH2 0xE7F JUMP JUMPDEST SWAP2 POP POP SWAP3 SWAP2 POP POP JUMP JUMPDEST PUSH1 0x0 PUSH1 0x20 DUP3 DUP5 SUB SLT ISZERO PUSH2 0xF05 JUMPI PUSH2 0xF04 PUSH2 0xD12 JUMP JUMPDEST JUMPDEST PUSH1 0x0 DUP3 ADD CALLDATALOAD PUSH8 0xFFFFFFFFFFFFFFFF DUP2 GT ISZERO PUSH2 0xF23 JUMPI PUSH2 0xF22 PUSH2 0xD17 JUMP JUMPDEST JUMPDEST PUSH2 0xF2F DUP5 DUP3 DUP6 ADD PUSH2 0xEC1 JUMP JUMPDEST SWAP2 POP POP SWAP3 SWAP2 POP POP JUMP JUMPDEST PUSH1 0x0 PUSH20 0xFFFFFFFFFFFFFFFFFFFFFFFFFFFFFFFFFFFFFFFF DUP3 AND SWAP1 POP SWAP2 SWAP1 POP JUMP JUMPDEST PUSH1 0x0 PUSH2 0xF63 DUP3 PUSH2 0xF38 JUMP JUMPDEST SWAP1 POP SWAP2 SWAP1 POP JUMP JUMPDEST PUSH2 0xF73 DUP2 PUSH2 0xF58 JUMP JUMPDEST DUP3 MSTORE POP POP JUMP JUMPDEST PUSH1 0x0 PUSH1 0x20 DUP3 ADD SWAP1 POP PUSH2 0xF8E PUSH1 0x0 DUP4 ADD DUP5 PUSH2 0xF6A JUMP JUMPDEST SWAP3 SWAP2 POP POP JUMP JUMPDEST PUSH1 0x0 PUSH2 0xF9F DUP3 PUSH2 0xF38 JUMP JUMPDEST SWAP1 POP SWAP2 SWAP1 POP JUMP JUMPDEST PUSH2 0xFAF DUP2 PUSH2 0xF94 JUMP JUMPDEST DUP2 EQ PUSH2 0xFBA JUMPI PUSH1 0x0 DUP1 REVERT JUMPDEST POP JUMP JUMPDEST PUSH1 0x0 DUP2 CALLDATALOAD SWAP1 POP PUSH2 0xFCC DUP2 PUSH2 0xFA6 JUMP JUMPDEST SWAP3 SWAP2 POP POP JUMP JUMPDEST PUSH1 0x0 PUSH1 0x20 DUP3 DUP5 SUB SLT ISZERO PUSH2 0xFE8 JUMPI PUSH2 0xFE7 PUSH2 0xD12 JUMP JUMPDEST JUMPDEST PUSH1 0x0 PUSH2 0xFF6 DUP5 DUP3 DUP6 ADD PUSH2 0xFBD JUMP JUMPDEST SWAP2 POP POP SWAP3 SWAP2 POP POP JUMP JUMPDEST PUSH1 0x0 DUP2 MLOAD SWAP1 POP SWAP2 SWAP1 POP JUMP JUMPDEST PUSH1 0x0 DUP3 DUP3 MSTORE PUSH1 0x20 DUP3 ADD SWAP1 POP SWAP3 SWAP2 POP POP JUMP JUMPDEST PUSH1 0x0 DUP2 SWAP1 POP PUSH1 0x20 DUP3 ADD SWAP1 POP SWAP2 SWAP1 POP JUMP JUMPDEST PUSH1 0x0 DUP2 MLOAD SWAP1 POP SWAP2 SWAP1 POP JUMP JUMPDEST PUSH1 0x0 DUP3 DUP3 MSTORE PUSH1 0x20 DUP3 ADD SWAP1 POP SWAP3 SWAP2 POP POP JUMP JUMPDEST PUSH1 0x0 JUMPDEST DUP4 DUP2 LT ISZERO PUSH2 0x1065 JUMPI DUP1 DUP3 ADD MLOAD DUP2 DUP5 ADD MSTORE PUSH1 0x20 DUP2 ADD SWAP1 POP PUSH2 0x104A JUMP JUMPDEST PUSH1 0x0 DUP5 DUP5 ADD MSTORE POP POP POP POP JUMP JUMPDEST PUSH1 0x0 PUSH2 0x107C DUP3 PUSH2 0x102B JUMP JUMPDEST PUSH2 0x1086 DUP2 DUP6 PUSH2 0x1036 JUMP JUMPDEST SWAP4 POP PUSH2 0x1096 DUP2 DUP6 PUSH1 0x20 DUP7 ADD PUSH2 0x1047 JUMP JUMPDEST PUSH2 0x109F DUP2 PUSH2 0xDB3 JUMP JUMPDEST DUP5 ADD SWAP2 POP POP SWAP3 SWAP2 POP POP JUMP JUMPDEST PUSH1 0x0 PUSH2 0x10B6 DUP4 DUP4 PUSH2 0x1071 JUMP JUMPDEST SWAP1 POP SWAP3 SWAP2 POP POP JUMP JUMPDEST PUSH1 0x0 PUSH1 0x20 DUP3 ADD SWAP1 POP SWAP2 SWAP1 POP JUMP JUMPDEST PUSH1 0x0 PUSH2 0x10D6 DUP3 PUSH2 0xFFF JUMP JUMPDEST PUSH2 0x10E0 DUP2 DUP6 PUSH2 0x100A JUMP JUMPDEST SWAP4 POP DUP4 PUSH1 0x20 DUP3 MUL DUP6 ADD PUSH2 0x10F2 DUP6 PUSH2 0x101B JUMP JUMPDEST DUP1 PUSH1 0x0 JUMPDEST DUP6 DUP2 LT ISZERO PUSH2 0x112E JUMPI DUP5 DUP5 SUB DUP10 MSTORE DUP2 MLOAD PUSH2 0x110F DUP6 DUP3 PUSH2 0x10AA JUMP JUMPDEST SWAP5 POP PUSH2 0x111A DUP4 PUSH2 0x10BE JUMP JUMPDEST SWAP3 POP PUSH1 0x20 DUP11 ADD SWAP10 POP POP PUSH1 0x1 DUP2 ADD SWAP1 POP PUSH2 0x10F6 JUMP JUMPDEST POP DUP3 SWAP8 POP DUP8 SWAP6 POP POP POP POP POP POP SWAP3 SWAP2 POP POP JUMP JUMPDEST PUSH1 0x0 PUSH1 0x20 DUP3 ADD SWAP1 POP DUP2 DUP2 SUB PUSH1 0x0 DUP4 ADD MSTORE PUSH2 0x115A DUP2 DUP5 PUSH2 0x10CB JUMP JUMPDEST SWAP1 POP SWAP3 SWAP2 POP POP JUMP JUMPDEST PUSH1 0x0 DUP3 DUP3 MSTORE PUSH1 0x20 DUP3 ADD SWAP1 POP SWAP3 SWAP2 POP POP JUMP JUMPDEST PUSH1 0x0 PUSH2 0x117E DUP3 PUSH2 0x102B JUMP JUMPDEST PUSH2 0x1188 DUP2 DUP6 PUSH2 0x1162 JUMP JUMPDEST SWAP4 POP PUSH2 0x1198 DUP2 DUP6 PUSH1 0x20 DUP7 ADD PUSH2 0x1047 JUMP JUMPDEST PUSH2 0x11A1 DUP2 PUSH2 0xDB3 JUMP JUMPDEST DUP5 ADD SWAP2 POP POP SWAP3 SWAP2 POP POP JUMP JUMPDEST PUSH1 0x0 DUP2 ISZERO ISZERO SWAP1 POP SWAP2 SWAP1 POP JUMP JUMPDEST PUSH2 0x11C1 DUP2 PUSH2 0x11AC JUMP JUMPDEST DUP3 MSTORE POP POP JUMP JUMPDEST PUSH1 0x0 PUSH1 0x60 DUP3 ADD SWAP1 POP DUP2 DUP2 SUB PUSH1 0x0 DUP4 ADD MSTORE PUSH2 0x11E1 DUP2 DUP7 PUSH2 0x1173 JUMP JUMPDEST SWAP1 POP PUSH2 0x11F0 PUSH1 0x20 DUP4 ADD DUP6 PUSH2 0xD7F JUMP JUMPDEST PUSH2 0x11FD PUSH1 0x40 DUP4 ADD DUP5 PUSH2 0x11B8 JUMP JUMPDEST SWAP5 SWAP4 POP POP POP POP JUMP JUMPDEST PUSH1 0x0 DUP1 PUSH1 0x40 DUP4 DUP6 SUB SLT ISZERO PUSH2 0x121C JUMPI PUSH2 0x121B PUSH2 0xD12 JUMP JUMPDEST JUMPDEST PUSH1 0x0 DUP4 ADD CALLDATALOAD PUSH8 0xFFFFFFFFFFFFFFFF DUP2 GT ISZERO PUSH2 0x123A JUMPI PUSH2 0x1239 PUSH2 0xD17 JUMP JUMPDEST JUMPDEST PUSH2 0x1246 DUP6 DUP3 DUP7 ADD PUSH2 0xEC1 JUMP JUMPDEST SWAP3 POP POP PUSH1 0x20 PUSH2 0x1257 DUP6 DUP3 DUP7 ADD PUSH2 0xD3D JUMP JUMPDEST SWAP2 POP POP SWAP3 POP SWAP3 SWAP1 POP JUMP JUMPDEST PUSH32 0x496E73756666696369656E7420616D6F756E7400000000000000000000000000 PUSH1 0x0 DUP3 ADD MSTORE POP JUMP JUMPDEST PUSH1 0x0 PUSH2 0x1297 PUSH1 0x13 DUP4 PUSH2 0x1162 JUMP JUMPDEST SWAP2 POP PUSH2 0x12A2 DUP3 PUSH2 0x1261 JUMP JUMPDEST PUSH1 0x20 DUP3 ADD SWAP1 POP SWAP2 SWAP1 POP JUMP JUMPDEST PUSH1 0x0 PUSH1 0x20 DUP3 ADD SWAP1 POP DUP2 DUP2 SUB PUSH1 0x0 DUP4 ADD MSTORE PUSH2 0x12C6 DUP2 PUSH2 0x128A JUMP JUMPDEST SWAP1 POP SWAP2 SWAP1 POP JUMP JUMPDEST PUSH32 0x4E487B7100000000000000000000000000000000000000000000000000000000 PUSH1 0x0 MSTORE PUSH1 0x11 PUSH1 0x4 MSTORE PUSH1 0x24 PUSH1 0x0 REVERT JUMPDEST PUSH1 0x0 PUSH2 0x1307 DUP3 PUSH2 0xD1C JUMP JUMPDEST SWAP2 POP PUSH2 0x1312 DUP4 PUSH2 0xD1C JUMP JUMPDEST SWAP3 POP DUP3 DUP3 SUB SWAP1 POP DUP2 DUP2 GT ISZERO PUSH2 0x132A JUMPI PUSH2 0x1329 PUSH2 0x12CD JUMP JUMPDEST JUMPDEST SWAP3 SWAP2 POP POP JUMP JUMPDEST PUSH32 0x5472616E73616374696F6E206661696C65640000000000000000000000000000 PUSH1 0x0 DUP3 ADD MSTORE POP JUMP JUMPDEST PUSH1 0x0 PUSH2 0x1366 PUSH1 0x12 DUP4 PUSH2 0x1162 JUMP JUMPDEST SWAP2 POP PUSH2 0x1371 DUP3 PUSH2 0x1330 JUMP JUMPDEST PUSH1 0x20 DUP3 ADD SWAP1 POP SWAP2 SWAP1 POP JUMP JUMPDEST PUSH1 0x0 PUSH1 0x20 DUP3 ADD SWAP1 POP DUP2 DUP2 SUB PUSH1 0x0 DUP4 ADD MSTORE PUSH2 0x1395 DUP2 PUSH2 0x1359 JUMP JUMPDEST SWAP1 POP SWAP2 SWAP1 POP JUMP JUMPDEST PUSH2 0x13A5 DUP2 PUSH2 0xF94 JUMP JUMPDEST DUP3 MSTORE POP POP JUMP JUMPDEST PUSH1 0x0 PUSH1 0x40 DUP3 ADD SWAP1 POP PUSH2 0x13C0 PUSH1 0x0 DUP4 ADD DUP6 PUSH2 0x139C JUMP JUMPDEST PUSH2 0x13CD PUSH1 0x20 DUP4 ADD DUP5 PUSH2 0xD7F JUMP JUMPDEST SWAP4 SWAP3 POP POP POP JUMP JUMPDEST PUSH2 0x13DD DUP2 PUSH2 0x11AC JUMP JUMPDEST DUP2 EQ PUSH2 0x13E8 JUMPI PUSH1 0x0 DUP1 REVERT JUMPDEST POP JUMP JUMPDEST PUSH1 0x0 DUP2 MLOAD SWAP1 POP PUSH2 0x13FA DUP2 PUSH2 0x13D4 JUMP JUMPDEST SWAP3 SWAP2 POP POP JUMP JUMPDEST PUSH1 0x0 PUSH1 0x20 DUP3 DUP5 SUB SLT ISZERO PUSH2 0x1416 JUMPI PUSH2 0x1415 PUSH2 0xD12 JUMP JUMPDEST JUMPDEST PUSH1 0x0 PUSH2 0x1424 DUP5 DUP3 DUP6 ADD PUSH2 0x13EB JUMP JUMPDEST SWAP2 POP POP SWAP3 SWAP2 POP POP JUMP JUMPDEST PUSH1 0x0 PUSH2 0x1438 DUP3 PUSH2 0xD1C JUMP JUMPDEST SWAP2 POP PUSH2 0x1443 DUP4 PUSH2 0xD1C JUMP JUMPDEST SWAP3 POP DUP3 DUP3 ADD SWAP1 POP DUP1 DUP3 GT ISZERO PUSH2 0x145B JUMPI PUSH2 0x145A PUSH2 0x12CD JUMP JUMPDEST JUMPDEST SWAP3 SWAP2 POP POP JUMP JUMPDEST PUSH1 0x0 PUSH1 0x20 DUP3 ADD SWAP1 POP PUSH2 0x1476 PUSH1 0x0 DUP4 ADD DUP5 PUSH2 0x139C JUMP JUMPDEST SWAP3 SWAP2 POP POP JUMP JUMPDEST PUSH1 0x0 DUP2 MLOAD SWAP1 POP PUSH2 0x148B DUP2 PUSH2 0xD26 JUMP JUMPDEST SWAP3 SWAP2 POP POP JUMP JUMPDEST PUSH1 0x0 PUSH1 0x20 DUP3 DUP5 SUB SLT ISZERO PUSH2 0x14A7 JUMPI PUSH2 0x14A6 PUSH2 0xD12 JUMP JUMPDEST JUMPDEST PUSH1 0x0 PUSH2 0x14B5 DUP5 DUP3 DUP6 ADD PUSH2 0x147C JUMP JUMPDEST SWAP2 POP POP SWAP3 SWAP2 POP POP JUMP JUMPDEST PUSH1 0x0 DUP2 SWAP1 POP SWAP3 SWAP2 POP POP JUMP JUMPDEST PUSH1 0x0 PUSH2 0x14D4 DUP3 PUSH2 0x102B JUMP JUMPDEST PUSH2 0x14DE DUP2 DUP6 PUSH2 0x14BE JUMP JUMPDEST SWAP4 POP PUSH2 0x14EE DUP2 DUP6 PUSH1 0x20 DUP7 ADD PUSH2 0x1047 JUMP JUMPDEST DUP1 DUP5 ADD SWAP2 POP POP SWAP3 SWAP2 POP POP JUMP JUMPDEST PUSH1 0x0 PUSH2 0x1506 DUP3 DUP5 PUSH2 0x14C9 JUMP JUMPDEST SWAP2 POP DUP2 SWAP1 POP SWAP3 SWAP2 POP POP JUMP JUMPDEST PUSH1 0x0 PUSH1 0x20 DUP3 ADD SWAP1 POP DUP2 DUP2 SUB PUSH1 0x0 DUP4 ADD MSTORE PUSH2 0x152B DUP2 DUP5 PUSH2 0x1173 JUMP JUMPDEST SWAP1 POP SWAP3 SWAP2 POP POP JUMP JUMPDEST PUSH32 0x4E487B7100000000000000000000000000000000000000000000000000000000 PUSH1 0x0 MSTORE PUSH1 0x22 PUSH1 0x4 MSTORE PUSH1 0x24 PUSH1 0x0 REVERT JUMPDEST PUSH1 0x0 PUSH1 0x2 DUP3 DIV SWAP1 POP PUSH1 0x1 DUP3 AND DUP1 PUSH2 0x157A JUMPI PUSH1 0x7F DUP3 AND SWAP2 POP JUMPDEST PUSH1 0x20 DUP3 LT DUP2 SUB PUSH2 0x158D JUMPI PUSH2 0x158C PUSH2 0x1533 JUMP JUMPDEST JUMPDEST POP SWAP2 SWAP1 POP JUMP JUMPDEST PUSH32 0x41747472616374696F6E20436C6F736500000000000000000000000000000000 PUSH1 0x0 DUP3 ADD MSTORE POP JUMP JUMPDEST PUSH1 0x0 PUSH2 0x15C9 PUSH1 0x10 DUP4 PUSH2 0x1162 JUMP JUMPDEST SWAP2 POP PUSH2 0x15D4 DUP3 PUSH2 0x1593 JUMP JUMPDEST PUSH1 0x20 DUP3 ADD SWAP1 POP SWAP2 SWAP1 POP JUMP JUMPDEST PUSH1 0x0 PUSH1 0x20 DUP3 ADD SWAP1 POP DUP2 DUP2 SUB PUSH1 0x0 DUP4 ADD MSTORE PUSH2 0x15F8 DUP2 PUSH2 0x15BC JUMP JUMPDEST SWAP1 POP SWAP2 SWAP1 POP JUMP JUMPDEST PUSH32 0x496E73756666696369656E742042616C616E6365000000000000000000000000 PUSH1 0x0 DUP3 ADD MSTORE POP JUMP JUMPDEST PUSH1 0x0 PUSH2 0x1635 PUSH1 0x14 DUP4 PUSH2 0x1162 JUMP JUMPDEST SWAP2 POP PUSH2 0x1640 DUP3 PUSH2 0x15FF JUMP JUMPDEST PUSH1 0x20 DUP3 ADD SWAP1 POP SWAP2 SWAP1 POP JUMP JUMPDEST PUSH1 0x0 PUSH1 0x20 DUP3 ADD SWAP1 POP DUP2 DUP2 SUB PUSH1 0x0 DUP4 ADD MSTORE PUSH2 0x1664 DUP2 PUSH2 0x1628 JUMP JUMPDEST SWAP1 POP SWAP2 SWAP1 POP JUMP JUMPDEST PUSH1 0x0 PUSH1 0x60 DUP3 ADD SWAP1 POP PUSH2 0x1680 PUSH1 0x0 DUP4 ADD DUP7 PUSH2 0x139C JUMP JUMPDEST PUSH2 0x168D PUSH1 0x20 DUP4 ADD DUP6 PUSH2 0x139C JUMP JUMPDEST PUSH2 0x169A PUSH1 0x40 DUP4 ADD DUP5 PUSH2 0xD7F JUMP JUMPDEST SWAP5 SWAP4 POP POP POP POP JUMP JUMPDEST PUSH1 0x0 DUP2 SWAP1 POP DUP2 PUSH1 0x0 MSTORE PUSH1 0x20 PUSH1 0x0 KECCAK256 SWAP1 POP SWAP2 SWAP1 POP JUMP JUMPDEST PUSH1 0x0 PUSH1 0x20 PUSH1 0x1F DUP4 ADD DIV SWAP1 POP SWAP2 SWAP1 POP JUMP JUMPDEST PUSH1 0x0 DUP3 DUP3 SHL SWAP1 POP SWAP3 SWAP2 POP POP JUMP JUMPDEST PUSH1 0x0 PUSH1 0x8 DUP4 MUL PUSH2 0x1704 PUSH32 0xFFFFFFFFFFFFFFFFFFFFFFFFFFFFFFFFFFFFFFFFFFFFFFFFFFFFFFFFFFFFFFFF DUP3 PUSH2 0x16C7 JUMP JUMPDEST PUSH2 0x170E DUP7 DUP4 PUSH2 0x16C7 JUMP JUMPDEST SWAP6 POP DUP1 NOT DUP5 AND SWAP4 POP DUP1 DUP7 AND DUP5 OR SWAP3 POP POP POP SWAP4 SWAP3 POP POP POP JUMP JUMPDEST PUSH1 0x0 DUP2 SWAP1 POP SWAP2 SWAP1 POP JUMP JUMPDEST PUSH1 0x0 PUSH2 0x174B PUSH2 0x1746 PUSH2 0x1741 DUP5 PUSH2 0xD1C JUMP JUMPDEST PUSH2 0x1726 JUMP JUMPDEST PUSH2 0xD1C JUMP JUMPDEST SWAP1 POP SWAP2 SWAP1 POP JUMP JUMPDEST PUSH1 0x0 DUP2 SWAP1 POP SWAP2 SWAP1 POP JUMP JUMPDEST PUSH2 0x1765 DUP4 PUSH2 0x1730 JUMP JUMPDEST PUSH2 0x1779 PUSH2 0x1771 DUP3 PUSH2 0x1752 JUMP JUMPDEST DUP5 DUP5 SLOAD PUSH2 0x16D4 JUMP JUMPDEST DUP3 SSTORE POP POP POP POP JUMP JUMPDEST PUSH1 0x0 SWAP1 JUMP JUMPDEST PUSH2 0x178E PUSH2 0x1781 JUMP JUMPDEST PUSH2 0x1799 DUP2 DUP5 DUP5 PUSH2 0x175C JUMP JUMPDEST POP POP POP JUMP JUMPDEST JUMPDEST DUP2 DUP2 LT ISZERO PUSH2 0x17BD JUMPI PUSH2 0x17B2 PUSH1 0x0 DUP3 PUSH2 0x1786 JUMP JUMPDEST PUSH1 0x1 DUP2 ADD SWAP1 POP PUSH2 0x179F JUMP JUMPDEST POP POP JUMP JUMPDEST PUSH1 0x1F DUP3 GT ISZERO PUSH2 0x1802 JUMPI PUSH2 0x17D3 DUP2 PUSH2 0x16A2 JUMP JUMPDEST PUSH2 0x17DC DUP5 PUSH2 0x16B7 JUMP JUMPDEST DUP2 ADD PUSH1 0x20 DUP6 LT ISZERO PUSH2 0x17EB JUMPI DUP2 SWAP1 POP JUMPDEST PUSH2 0x17FF PUSH2 0x17F7 DUP6 PUSH2 0x16B7 JUMP JUMPDEST DUP4 ADD DUP3 PUSH2 0x179E JUMP JUMPDEST POP POP JUMPDEST POP POP POP JUMP JUMPDEST PUSH1 0x0 DUP3 DUP3 SHR SWAP1 POP SWAP3 SWAP2 POP POP JUMP JUMPDEST PUSH1 0x0 PUSH2 0x1825 PUSH1 0x0 NOT DUP5 PUSH1 0x8 MUL PUSH2 0x1807 JUMP JUMPDEST NOT DUP1 DUP4 AND SWAP2 POP POP SWAP3 SWAP2 POP POP JUMP JUMPDEST PUSH1 0x0 PUSH2 0x183E DUP4 DUP4 PUSH2 0x1814 JUMP JUMPDEST SWAP2 POP DUP3 PUSH1 0x2 MUL DUP3 OR SWAP1 POP SWAP3 SWAP2 POP POP JUMP JUMPDEST PUSH2 0x1857 DUP3 PUSH2 0x102B JUMP JUMPDEST PUSH8 0xFFFFFFFFFFFFFFFF DUP2 GT ISZERO PUSH2 0x1870 JUMPI PUSH2 0x186F PUSH2 0xDC4 JUMP JUMPDEST JUMPDEST PUSH2 0x187A DUP3 SLOAD PUSH2 0x1562 JUMP JUMPDEST PUSH2 0x1885 DUP3 DUP3 DUP6 PUSH2 0x17C1 JUMP JUMPDEST PUSH1 0x0 PUSH1 0x20 SWAP1 POP PUSH1 0x1F DUP4 GT PUSH1 0x1 DUP2 EQ PUSH2 0x18B8 JUMPI PUSH1 0x0 DUP5 ISZERO PUSH2 0x18A6 JUMPI DUP3 DUP8 ADD MLOAD SWAP1 POP JUMPDEST PUSH2 0x18B0 DUP6 DUP3 PUSH2 0x1832 JUMP JUMPDEST DUP7 SSTORE POP PUSH2 0x1918 JUMP JUMPDEST PUSH1 0x1F NOT DUP5 AND PUSH2 0x18C6 DUP7 PUSH2 0x16A2 JUMP JUMPDEST PUSH1 0x0 JUMPDEST DUP3 DUP2 LT ISZERO PUSH2 0x18EE JUMPI DUP5 DUP10 ADD MLOAD DUP3 SSTORE PUSH1 0x1 DUP3 ADD SWAP2 POP PUSH1 0x20 DUP6 ADD SWAP5 POP PUSH1 0x20 DUP2 ADD SWAP1 POP PUSH2 0x18C9 JUMP JUMPDEST DUP7 DUP4 LT ISZERO PUSH2 0x190B JUMPI DUP5 DUP10 ADD MLOAD PUSH2 0x1907 PUSH1 0x1F DUP10 AND DUP3 PUSH2 0x1814 JUMP JUMPDEST DUP4 SSTORE POP JUMPDEST PUSH1 0x1 PUSH1 0x2 DUP9 MUL ADD DUP9 SSTORE POP POP POP JUMPDEST POP POP POP POP POP POP JUMP JUMPDEST PUSH1 0x0 PUSH1 0x60 DUP3 ADD SWAP1 POP DUP2 DUP2 SUB PUSH1 0x0 DUP4 ADD MSTORE PUSH2 0x193A DUP2 DUP7 PUSH2 0x1173 JUMP JUMPDEST SWAP1 POP PUSH2 0x1949 PUSH1 0x20 DUP4 ADD DUP6 PUSH2 0xD7F JUMP JUMPDEST PUSH2 0x1956 PUSH1 0x40 DUP4 ADD DUP5 PUSH2 0x139C JUMP JUMPDEST SWAP5 SWAP4 POP POP POP POP JUMP JUMPDEST PUSH1 0x0 PUSH1 0x40 DUP3 ADD SWAP1 POP DUP2 DUP2 SUB PUSH1 0x0 DUP4 ADD MSTORE PUSH2 0x1978 DUP2 DUP6 PUSH2 0x1173 JUMP JUMPDEST SWAP1 POP PUSH2 0x1987 PUSH1 0x20 DUP4 ADD DUP5 PUSH2 0xD7F JUMP JUMPDEST SWAP4 SWAP3 POP POP POP JUMP JUMPDEST PUSH1 0x0 PUSH2 0x1999 DUP3 PUSH2 0xD1C JUMP JUMPDEST SWAP2 POP PUSH2 0x19A4 DUP4 PUSH2 0xD1C JUMP JUMPDEST SWAP3 POP DUP3 DUP3 MUL PUSH2 0x19B2 DUP2 PUSH2 0xD1C JUMP JUMPDEST SWAP2 POP DUP3 DUP3 DIV DUP5 EQ DUP4 ISZERO OR PUSH2 0x19C9 JUMPI PUSH2 0x19C8 PUSH2 0x12CD JUMP JUMPDEST JUMPDEST POP SWAP3 SWAP2 POP POP JUMP INVALID LOG2 PUSH5 0x6970667358 0x22 SLT KECCAK256 CALLVALUE SWAP4 ADDMOD 0xD 0x22 SELFDESTRUCT PUSH1 0x96 0x2F PUSH23 0xAEED00C1176662C062C6F8F934CD55D8B19443E51B3464 PUSH20 0x6F6C634300081200336080604052348015620000 GT JUMPI PUSH1 0x0 DUP1 REVERT JUMPDEST POP PUSH1 0x40 MLOAD PUSH3 0x1438 CODESIZE SUB DUP1 PUSH3 0x1438 DUP4 CODECOPY DUP2 DUP2 ADD PUSH1 0x40 MSTORE DUP2 ADD SWAP1 PUSH3 0x37 SWAP2 SWAP1 PUSH3 0x10B JUMP JUMPDEST CALLER PUSH1 0x0 DUP1 PUSH2 0x100 EXP DUP2 SLOAD DUP2 PUSH20 0xFFFFFFFFFFFFFFFFFFFFFFFFFFFFFFFFFFFFFFFF MUL NOT AND SWAP1 DUP4 PUSH20 0xFFFFFFFFFFFFFFFFFFFFFFFFFFFFFFFFFFFFFFFF AND MUL OR SWAP1 SSTORE POP DUP1 PUSH1 0x3 DUP2 SWAP1 SSTORE POP PUSH1 0x3 SLOAD PUSH1 0x1 PUSH1 0x0 CALLER PUSH20 0xFFFFFFFFFFFFFFFFFFFFFFFFFFFFFFFFFFFFFFFF AND PUSH20 0xFFFFFFFFFFFFFFFFFFFFFFFFFFFFFFFFFFFFFFFF AND DUP2 MSTORE PUSH1 0x20 ADD SWAP1 DUP2 MSTORE PUSH1 0x20 ADD PUSH1 0x0 KECCAK256 DUP2 SWAP1 SSTORE POP POP PUSH3 0x13D JUMP JUMPDEST PUSH1 0x0 DUP1 REVERT JUMPDEST PUSH1 0x0 DUP2 SWAP1 POP SWAP2 SWAP1 POP JUMP JUMPDEST PUSH3 0xE5 DUP2 PUSH3 0xD0 JUMP JUMPDEST DUP2 EQ PUSH3 0xF1 JUMPI PUSH1 0x0 DUP1 REVERT JUMPDEST POP JUMP JUMPDEST PUSH1 0x0 DUP2 MLOAD SWAP1 POP PUSH3 0x105 DUP2 PUSH3 0xDA JUMP JUMPDEST SWAP3 SWAP2 POP POP JUMP JUMPDEST PUSH1 0x0 PUSH1 0x20 DUP3 DUP5 SUB SLT ISZERO PUSH3 0x124 JUMPI PUSH3 0x123 PUSH3 0xCB JUMP JUMPDEST JUMPDEST PUSH1 0x0 PUSH3 0x134 DUP5 DUP3 DUP6 ADD PUSH3 0xF4 JUMP JUMPDEST SWAP2 POP POP SWAP3 SWAP2 POP POP JUMP JUMPDEST PUSH2 0x12EB DUP1 PUSH3 0x14D PUSH1 0x0 CODECOPY PUSH1 0x0 RETURN INVALID PUSH1 0x80 PUSH1 0x40 MSTORE CALLVALUE DUP1 ISZERO PUSH2 0x10 JUMPI PUSH1 0x0 DUP1 REVERT JUMPDEST POP PUSH1 0x4 CALLDATASIZE LT PUSH2 0xB4 JUMPI PUSH1 0x0 CALLDATALOAD PUSH1 0xE0 SHR DUP1 PUSH4 0x70A08231 GT PUSH2 0x71 JUMPI DUP1 PUSH4 0x70A08231 EQ PUSH2 0x18F JUMPI DUP1 PUSH4 0x715018A6 EQ PUSH2 0x1BF JUMPI DUP1 PUSH4 0x95D89B41 EQ PUSH2 0x1C9 JUMPI DUP1 PUSH4 0xA9059CBB EQ PUSH2 0x1E7 JUMPI DUP1 PUSH4 0xDD62ED3E EQ PUSH2 0x217 JUMPI DUP1 PUSH4 0xE0631F7F EQ PUSH2 0x247 JUMPI PUSH2 0xB4 JUMP JUMPDEST DUP1 PUSH4 0x6FDDE03 EQ PUSH2 0xB9 JUMPI DUP1 PUSH4 0x95EA7B3 EQ PUSH2 0xD7 JUMPI DUP1 PUSH4 0x18160DDD EQ PUSH2 0x107 JUMPI DUP1 PUSH4 0x1D43CC98 EQ PUSH2 0x125 JUMPI DUP1 PUSH4 0x23B872DD EQ PUSH2 0x141 JUMPI DUP1 PUSH4 0x313CE567 EQ PUSH2 0x171 JUMPI JUMPDEST PUSH1 0x0 DUP1 REVERT JUMPDEST PUSH2 0xC1 PUSH2 0x277 JUMP JUMPDEST PUSH1 0x40 MLOAD PUSH2 0xCE SWAP2 SWAP1 PUSH2 0xF04 JUMP JUMPDEST PUSH1 0x40 MLOAD DUP1 SWAP2 SUB SWAP1 RETURN JUMPDEST PUSH2 0xF1 PUSH1 0x4 DUP1 CALLDATASIZE SUB DUP2 ADD SWAP1 PUSH2 0xEC SWAP2 SWAP1 PUSH2 0xFBF JUMP JUMPDEST PUSH2 0x2B0 JUMP JUMPDEST PUSH1 0x40 MLOAD PUSH2 0xFE SWAP2 SWAP1 PUSH2 0x101A JUMP JUMPDEST PUSH1 0x40 MLOAD DUP1 SWAP2 SUB SWAP1 RETURN JUMPDEST PUSH2 0x10F PUSH2 0x3EE JUMP JUMPDEST PUSH1 0x40 MLOAD PUSH2 0x11C SWAP2 SWAP1 PUSH2 0x1044 JUMP JUMPDEST PUSH1 0x40 MLOAD DUP1 SWAP2 SUB SWAP1 RETURN JUMPDEST PUSH2 0x13F PUSH1 0x4 DUP1 CALLDATASIZE SUB DUP2 ADD SWAP1 PUSH2 0x13A SWAP2 SWAP1 PUSH2 0x105F JUMP JUMPDEST PUSH2 0x3F8 JUMP JUMPDEST STOP JUMPDEST PUSH2 0x15B PUSH1 0x4 DUP1 CALLDATASIZE SUB DUP2 ADD SWAP1 PUSH2 0x156 SWAP2 SWAP1 PUSH2 0x108C JUMP JUMPDEST PUSH2 0x4F8 JUMP JUMPDEST PUSH1 0x40 MLOAD PUSH2 0x168 SWAP2 SWAP1 PUSH2 0x101A JUMP JUMPDEST PUSH1 0x40 MLOAD DUP1 SWAP2 SUB SWAP1 RETURN JUMPDEST PUSH2 0x179 PUSH2 0x878 JUMP JUMPDEST PUSH1 0x40 MLOAD PUSH2 0x186 SWAP2 SWAP1 PUSH2 0x10FB JUMP JUMPDEST PUSH1 0x40 MLOAD DUP1 SWAP2 SUB SWAP1 RETURN JUMPDEST PUSH2 0x1A9 PUSH1 0x4 DUP1 CALLDATASIZE SUB DUP2 ADD SWAP1 PUSH2 0x1A4 SWAP2 SWAP1 PUSH2 0x1116 JUMP JUMPDEST PUSH2 0x87D JUMP JUMPDEST PUSH1 0x40 MLOAD PUSH2 0x1B6 SWAP2 SWAP1 PUSH2 0x1044 JUMP JUMPDEST PUSH1 0x40 MLOAD DUP1 SWAP2 SUB SWAP1 RETURN JUMPDEST PUSH2 0x1C7 PUSH2 0x8C6 JUMP JUMPDEST STOP JUMPDEST PUSH2 0x1D1 PUSH2 0x997 JUMP JUMPDEST PUSH1 0x40 MLOAD PUSH2 0x1DE SWAP2 SWAP1 PUSH2 0xF04 JUMP JUMPDEST PUSH1 0x40 MLOAD DUP1 SWAP2 SUB SWAP1 RETURN JUMPDEST PUSH2 0x201 PUSH1 0x4 DUP1 CALLDATASIZE SUB DUP2 ADD SWAP1 PUSH2 0x1FC SWAP2 SWAP1 PUSH2 0xFBF JUMP JUMPDEST PUSH2 0x9D0 JUMP JUMPDEST PUSH1 0x40 MLOAD PUSH2 0x20E SWAP2 SWAP1 PUSH2 0x101A JUMP JUMPDEST PUSH1 0x40 MLOAD DUP1 SWAP2 SUB SWAP1 RETURN JUMPDEST PUSH2 0x231 PUSH1 0x4 DUP1 CALLDATASIZE SUB DUP2 ADD SWAP1 PUSH2 0x22C SWAP2 SWAP1 PUSH2 0x1143 JUMP JUMPDEST PUSH2 0xBB7 JUMP JUMPDEST PUSH1 0x40 MLOAD PUSH2 0x23E SWAP2 SWAP1 PUSH2 0x1044 JUMP JUMPDEST PUSH1 0x40 MLOAD DUP1 SWAP2 SUB SWAP1 RETURN JUMPDEST PUSH2 0x261 PUSH1 0x4 DUP1 CALLDATASIZE SUB DUP2 ADD SWAP1 PUSH2 0x25C SWAP2 SWAP1 PUSH2 0x108C JUMP JUMPDEST PUSH2 0xC3E JUMP JUMPDEST PUSH1 0x40 MLOAD PUSH2 0x26E SWAP2 SWAP1 PUSH2 0x101A JUMP JUMPDEST PUSH1 0x40 MLOAD DUP1 SWAP2 SUB SWAP1 RETURN JUMPDEST PUSH1 0x40 MLOAD DUP1 PUSH1 0x40 ADD PUSH1 0x40 MSTORE DUP1 PUSH1 0x6 DUP2 MSTORE PUSH1 0x20 ADD PUSH32 0x5265736F72740000000000000000000000000000000000000000000000000000 DUP2 MSTORE POP DUP2 JUMP JUMPDEST PUSH1 0x0 PUSH1 0x1 PUSH1 0x0 CALLER PUSH20 0xFFFFFFFFFFFFFFFFFFFFFFFFFFFFFFFFFFFFFFFF AND PUSH20 0xFFFFFFFFFFFFFFFFFFFFFFFFFFFFFFFFFFFFFFFF AND DUP2 MSTORE PUSH1 0x20 ADD SWAP1 DUP2 MSTORE PUSH1 0x20 ADD PUSH1 0x0 KECCAK256 SLOAD DUP3 GT ISZERO PUSH2 0x2FE JUMPI PUSH1 0x0 DUP1 REVERT JUMPDEST DUP2 PUSH1 0x2 PUSH1 0x0 CALLER PUSH20 0xFFFFFFFFFFFFFFFFFFFFFFFFFFFFFFFFFFFFFFFF AND PUSH20 0xFFFFFFFFFFFFFFFFFFFFFFFFFFFFFFFFFFFFFFFF AND DUP2 MSTORE PUSH1 0x20 ADD SWAP1 DUP2 MSTORE PUSH1 0x20 ADD PUSH1 0x0 KECCAK256 PUSH1 0x0 DUP6 PUSH20 0xFFFFFFFFFFFFFFFFFFFFFFFFFFFFFFFFFFFFFFFF AND PUSH20 0xFFFFFFFFFFFFFFFFFFFFFFFFFFFFFFFFFFFFFFFF AND DUP2 MSTORE PUSH1 0x20 ADD SWAP1 DUP2 MSTORE PUSH1 0x20 ADD PUSH1 0x0 KECCAK256 DUP2 SWAP1 SSTORE POP DUP3 PUSH20 0xFFFFFFFFFFFFFFFFFFFFFFFFFFFFFFFFFFFFFFFF AND CALLER PUSH20 0xFFFFFFFFFFFFFFFFFFFFFFFFFFFFFFFFFFFFFFFF AND PUSH32 0x8C5BE1E5EBEC7D5BD14F71427D1E84F3DD0314C0F7B2291E5B200AC8C7C3B925 DUP5 PUSH1 0x40 MLOAD PUSH2 0x3DC SWAP2 SWAP1 PUSH2 0x1044 JUMP JUMPDEST PUSH1 0x40 MLOAD DUP1 SWAP2 SUB SWAP1 LOG3 PUSH1 0x1 SWAP1 POP SWAP3 SWAP2 POP POP JUMP JUMPDEST PUSH1 0x0 PUSH1 0x3 SLOAD SWAP1 POP SWAP1 JUMP JUMPDEST CALLER PUSH20 0xFFFFFFFFFFFFFFFFFFFFFFFFFFFFFFFFFFFFFFFF AND PUSH1 0x0 DUP1 SLOAD SWAP1 PUSH2 0x100 EXP SWAP1 DIV PUSH20 0xFFFFFFFFFFFFFFFFFFFFFFFFFFFFFFFFFFFFFFFF AND PUSH20 0xFFFFFFFFFFFFFFFFFFFFFFFFFFFFFFFFFFFFFFFF AND EQ PUSH2 0x486 JUMPI PUSH1 0x40 MLOAD PUSH32 0x8C379A000000000000000000000000000000000000000000000000000000000 DUP2 MSTORE PUSH1 0x4 ADD PUSH2 0x47D SWAP1 PUSH2 0x11CF JUMP JUMPDEST PUSH1 0x40 MLOAD DUP1 SWAP2 SUB SWAP1 REVERT JUMPDEST DUP1 PUSH1 0x3 PUSH1 0x0 DUP3 DUP3 SLOAD PUSH2 0x498 SWAP2 SWAP1 PUSH2 0x121E JUMP JUMPDEST SWAP3 POP POP DUP2 SWAP1 SSTORE POP DUP1 PUSH1 0x1 PUSH1 0x0 CALLER PUSH20 0xFFFFFFFFFFFFFFFFFFFFFFFFFFFFFFFFFFFFFFFF AND PUSH20 0xFFFFFFFFFFFFFFFFFFFFFFFFFFFFFFFFFFFFFFFF AND DUP2 MSTORE PUSH1 0x20 ADD SWAP1 DUP2 MSTORE PUSH1 0x20 ADD PUSH1 0x0 KECCAK256 PUSH1 0x0 DUP3 DUP3 SLOAD PUSH2 0x4EE SWAP2 SWAP1 PUSH2 0x121E JUMP JUMPDEST SWAP3 POP POP DUP2 SWAP1 SSTORE POP POP JUMP JUMPDEST PUSH1 0x0 PUSH1 0x1 PUSH1 0x0 DUP6 PUSH20 0xFFFFFFFFFFFFFFFFFFFFFFFFFFFFFFFFFFFFFFFF AND PUSH20 0xFFFFFFFFFFFFFFFFFFFFFFFFFFFFFFFFFFFFFFFF AND DUP2 MSTORE PUSH1 0x20 ADD SWAP1 DUP2 MSTORE PUSH1 0x20 ADD PUSH1 0x0 KECCAK256 SLOAD DUP3 GT ISZERO PUSH2 0x546 JUMPI PUSH1 0x0 DUP1 REVERT JUMPDEST PUSH1 0x2 PUSH1 0x0 DUP6 PUSH20 0xFFFFFFFFFFFFFFFFFFFFFFFFFFFFFFFFFFFFFFFF AND PUSH20 0xFFFFFFFFFFFFFFFFFFFFFFFFFFFFFFFFFFFFFFFF AND DUP2 MSTORE PUSH1 0x20 ADD SWAP1 DUP2 MSTORE PUSH1 0x20 ADD PUSH1 0x0 KECCAK256 PUSH1 0x0 CALLER PUSH20 0xFFFFFFFFFFFFFFFFFFFFFFFFFFFFFFFFFFFFFFFF AND PUSH20 0xFFFFFFFFFFFFFFFFFFFFFFFFFFFFFFFFFFFFFFFF AND DUP2 MSTORE PUSH1 0x20 ADD SWAP1 DUP2 MSTORE PUSH1 0x20 ADD PUSH1 0x0 KECCAK256 SLOAD DUP3 GT ISZERO PUSH2 0x5CF JUMPI PUSH1 0x0 DUP1 REVERT JUMPDEST PUSH2 0x621 DUP3 PUSH1 0x1 PUSH1 0x0 DUP8 PUSH20 0xFFFFFFFFFFFFFFFFFFFFFFFFFFFFFFFFFFFFFFFF AND PUSH20 0xFFFFFFFFFFFFFFFFFFFFFFFFFFFFFFFFFFFFFFFF AND DUP2 MSTORE PUSH1 0x20 ADD SWAP1 DUP2 MSTORE PUSH1 0x20 ADD PUSH1 0x0 KECCAK256 SLOAD PUSH2 0xE26 SWAP1 SWAP2 SWAP1 PUSH4 0xFFFFFFFF AND JUMP JUMPDEST PUSH1 0x1 PUSH1 0x0 DUP7 PUSH20 0xFFFFFFFFFFFFFFFFFFFFFFFFFFFFFFFFFFFFFFFF AND PUSH20 0xFFFFFFFFFFFFFFFFFFFFFFFFFFFFFFFFFFFFFFFF AND DUP2 MSTORE PUSH1 0x20 ADD SWAP1 DUP2 MSTORE PUSH1 0x20 ADD PUSH1 0x0 KECCAK256 DUP2 SWAP1 SSTORE POP PUSH2 0x6F3 DUP3 PUSH1 0x2 PUSH1 0x0 DUP8 PUSH20 0xFFFFFFFFFFFFFFFFFFFFFFFFFFFFFFFFFFFFFFFF AND PUSH20 0xFFFFFFFFFFFFFFFFFFFFFFFFFFFFFFFFFFFFFFFF AND DUP2 MSTORE PUSH1 0x20 ADD SWAP1 DUP2 MSTORE PUSH1 0x20 ADD PUSH1 0x0 KECCAK256 PUSH1 0x0 CALLER PUSH20 0xFFFFFFFFFFFFFFFFFFFFFFFFFFFFFFFFFFFFFFFF AND PUSH20 0xFFFFFFFFFFFFFFFFFFFFFFFFFFFFFFFFFFFFFFFF AND DUP2 MSTORE PUSH1 0x20 ADD SWAP1 DUP2 MSTORE PUSH1 0x20 ADD PUSH1 0x0 KECCAK256 SLOAD PUSH2 0xE26 SWAP1 SWAP2 SWAP1 PUSH4 0xFFFFFFFF AND JUMP JUMPDEST PUSH1 0x2 PUSH1 0x0 DUP7 PUSH20 0xFFFFFFFFFFFFFFFFFFFFFFFFFFFFFFFFFFFFFFFF AND PUSH20 0xFFFFFFFFFFFFFFFFFFFFFFFFFFFFFFFFFFFFFFFF AND DUP2 MSTORE PUSH1 0x20 ADD SWAP1 DUP2 MSTORE PUSH1 0x20 ADD PUSH1 0x0 KECCAK256 PUSH1 0x0 CALLER PUSH20 0xFFFFFFFFFFFFFFFFFFFFFFFFFFFFFFFFFFFFFFFF AND PUSH20 0xFFFFFFFFFFFFFFFFFFFFFFFFFFFFFFFFFFFFFFFF AND DUP2 MSTORE PUSH1 0x20 ADD SWAP1 DUP2 MSTORE PUSH1 0x20 ADD PUSH1 0x0 KECCAK256 DUP2 SWAP1 SSTORE POP PUSH2 0x7C5 DUP3 PUSH1 0x1 PUSH1 0x0 DUP7 PUSH20 0xFFFFFFFFFFFFFFFFFFFFFFFFFFFFFFFFFFFFFFFF AND PUSH20 0xFFFFFFFFFFFFFFFFFFFFFFFFFFFFFFFFFFFFFFFF AND DUP2 MSTORE PUSH1 0x20 ADD SWAP1 DUP2 MSTORE PUSH1 0x20 ADD PUSH1 0x0 KECCAK256 SLOAD PUSH2 0xE4D SWAP1 SWAP2 SWAP1 PUSH4 0xFFFFFFFF AND JUMP JUMPDEST PUSH1 0x1 PUSH1 0x0 DUP6 PUSH20 0xFFFFFFFFFFFFFFFFFFFFFFFFFFFFFFFFFFFFFFFF AND PUSH20 0xFFFFFFFFFFFFFFFFFFFFFFFFFFFFFFFFFFFFFFFF AND DUP2 MSTORE PUSH1 0x20 ADD SWAP1 DUP2 MSTORE PUSH1 0x20 ADD PUSH1 0x0 KECCAK256 DUP2 SWAP1 SSTORE POP DUP3 PUSH20 0xFFFFFFFFFFFFFFFFFFFFFFFFFFFFFFFFFFFFFFFF AND DUP5 PUSH20 0xFFFFFFFFFFFFFFFFFFFFFFFFFFFFFFFFFFFFFFFF AND PUSH32 0xDDF252AD1BE2C89B69C2B068FC378DAA952BA7F163C4A11628F55A4DF523B3EF DUP5 PUSH1 0x40 MLOAD PUSH2 0x865 SWAP2 SWAP1 PUSH2 0x1044 JUMP JUMPDEST PUSH1 0x40 MLOAD DUP1 SWAP2 SUB SWAP1 LOG3 PUSH1 0x0 SWAP1 POP SWAP4 SWAP3 POP POP POP JUMP JUMPDEST PUSH1 0x12 DUP2 JUMP JUMPDEST PUSH1 0x0 PUSH1 0x1 PUSH1 0x0 DUP4 PUSH20 0xFFFFFFFFFFFFFFFFFFFFFFFFFFFFFFFFFFFFFFFF AND PUSH20 0xFFFFFFFFFFFFFFFFFFFFFFFFFFFFFFFFFFFFFFFF AND DUP2 MSTORE PUSH1 0x20 ADD SWAP1 DUP2 MSTORE PUSH1 0x20 ADD PUSH1 0x0 KECCAK256 SLOAD SWAP1 POP SWAP2 SWAP1 POP JUMP JUMPDEST CALLER PUSH20 0xFFFFFFFFFFFFFFFFFFFFFFFFFFFFFFFFFFFFFFFF AND PUSH1 0x0 DUP1 SLOAD SWAP1 PUSH2 0x100 EXP SWAP1 DIV PUSH20 0xFFFFFFFFFFFFFFFFFFFFFFFFFFFFFFFFFFFFFFFF AND PUSH20 0xFFFFFFFFFFFFFFFFFFFFFFFFFFFFFFFFFFFFFFFF AND EQ PUSH2 0x954 JUMPI PUSH1 0x40 MLOAD PUSH32 0x8C379A000000000000000000000000000000000000000000000000000000000 DUP2 MSTORE PUSH1 0x4 ADD PUSH2 0x94B SWAP1 PUSH2 0x11CF JUMP JUMPDEST PUSH1 0x40 MLOAD DUP1 SWAP2 SUB SWAP1 REVERT JUMPDEST PUSH1 0x0 DUP1 PUSH1 0x0 PUSH2 0x100 EXP DUP2 SLOAD DUP2 PUSH20 0xFFFFFFFFFFFFFFFFFFFFFFFFFFFFFFFFFFFFFFFF MUL NOT AND SWAP1 DUP4 PUSH20 0xFFFFFFFFFFFFFFFFFFFFFFFFFFFFFFFFFFFFFFFF AND MUL OR SWAP1 SSTORE POP JUMP JUMPDEST PUSH1 0x40 MLOAD DUP1 PUSH1 0x40 ADD PUSH1 0x40 MSTORE DUP1 PUSH1 0x3 DUP2 MSTORE PUSH1 0x20 ADD PUSH32 0x5253540000000000000000000000000000000000000000000000000000000000 DUP2 MSTORE POP DUP2 JUMP JUMPDEST PUSH1 0x0 PUSH1 0x1 PUSH1 0x0 CALLER PUSH20 0xFFFFFFFFFFFFFFFFFFFFFFFFFFFFFFFFFFFFFFFF AND PUSH20 0xFFFFFFFFFFFFFFFFFFFFFFFFFFFFFFFFFFFFFFFF AND DUP2 MSTORE PUSH1 0x20 ADD SWAP1 DUP2 MSTORE PUSH1 0x20 ADD PUSH1 0x0 KECCAK256 SLOAD DUP3 GT ISZERO PUSH2 0xA1E JUMPI PUSH1 0x0 DUP1 REVERT JUMPDEST PUSH2 0xA70 DUP3 PUSH1 0x1 PUSH1 0x0 CALLER PUSH20 0xFFFFFFFFFFFFFFFFFFFFFFFFFFFFFFFFFFFFFFFF AND PUSH20 0xFFFFFFFFFFFFFFFFFFFFFFFFFFFFFFFFFFFFFFFF AND DUP2 MSTORE PUSH1 0x20 ADD SWAP1 DUP2 MSTORE PUSH1 0x20 ADD PUSH1 0x0 KECCAK256 SLOAD PUSH2 0xE26 SWAP1 SWAP2 SWAP1 PUSH4 0xFFFFFFFF AND JUMP JUMPDEST PUSH1 0x1 PUSH1 0x0 CALLER PUSH20 0xFFFFFFFFFFFFFFFFFFFFFFFFFFFFFFFFFFFFFFFF AND PUSH20 0xFFFFFFFFFFFFFFFFFFFFFFFFFFFFFFFFFFFFFFFF AND DUP2 MSTORE PUSH1 0x20 ADD SWAP1 DUP2 MSTORE PUSH1 0x20 ADD PUSH1 0x0 KECCAK256 DUP2 SWAP1 SSTORE POP PUSH2 0xB05 DUP3 PUSH1 0x1 PUSH1 0x0 DUP7 PUSH20 0xFFFFFFFFFFFFFFFFFFFFFFFFFFFFFFFFFFFFFFFF AND PUSH20 0xFFFFFFFFFFFFFFFFFFFFFFFFFFFFFFFFFFFFFFFF AND DUP2 MSTORE PUSH1 0x20 ADD SWAP1 DUP2 MSTORE PUSH1 0x20 ADD PUSH1 0x0 KECCAK256 SLOAD PUSH2 0xE4D SWAP1 SWAP2 SWAP1 PUSH4 0xFFFFFFFF AND JUMP JUMPDEST PUSH1 0x1 PUSH1 0x0 DUP6 PUSH20 0xFFFFFFFFFFFFFFFFFFFFFFFFFFFFFFFFFFFFFFFF AND PUSH20 0xFFFFFFFFFFFFFFFFFFFFFFFFFFFFFFFFFFFFFFFF AND DUP2 MSTORE PUSH1 0x20 ADD SWAP1 DUP2 MSTORE PUSH1 0x20 ADD PUSH1 0x0 KECCAK256 DUP2 SWAP1 SSTORE POP DUP3 PUSH20 0xFFFFFFFFFFFFFFFFFFFFFFFFFFFFFFFFFFFFFFFF AND CALLER PUSH20 0xFFFFFFFFFFFFFFFFFFFFFFFFFFFFFFFFFFFFFFFF AND PUSH32 0xDDF252AD1BE2C89B69C2B068FC378DAA952BA7F163C4A11628F55A4DF523B3EF DUP5 PUSH1 0x40 MLOAD PUSH2 0xBA5 SWAP2 SWAP1 PUSH2 0x1044 JUMP JUMPDEST PUSH1 0x40 MLOAD DUP1 SWAP2 SUB SWAP1 LOG3 PUSH1 0x1 SWAP1 POP SWAP3 SWAP2 POP POP JUMP JUMPDEST PUSH1 0x0 PUSH1 0x2 PUSH1 0x0 DUP5 PUSH20 0xFFFFFFFFFFFFFFFFFFFFFFFFFFFFFFFFFFFFFFFF AND PUSH20 0xFFFFFFFFFFFFFFFFFFFFFFFFFFFFFFFFFFFFFFFF AND DUP2 MSTORE PUSH1 0x20 ADD SWAP1 DUP2 MSTORE PUSH1 0x20 ADD PUSH1 0x0 KECCAK256 PUSH1 0x0 DUP4 PUSH20 0xFFFFFFFFFFFFFFFFFFFFFFFFFFFFFFFFFFFFFFFF AND PUSH20 0xFFFFFFFFFFFFFFFFFFFFFFFFFFFFFFFFFFFFFFFF AND DUP2 MSTORE PUSH1 0x20 ADD SWAP1 DUP2 MSTORE PUSH1 0x20 ADD PUSH1 0x0 KECCAK256 SLOAD SWAP1 POP SWAP3 SWAP2 POP POP JUMP JUMPDEST PUSH1 0x0 PUSH1 0x1 PUSH1 0x0 DUP6 PUSH20 0xFFFFFFFFFFFFFFFFFFFFFFFFFFFFFFFFFFFFFFFF AND PUSH20 0xFFFFFFFFFFFFFFFFFFFFFFFFFFFFFFFFFFFFFFFF AND DUP2 MSTORE PUSH1 0x20 ADD SWAP1 DUP2 MSTORE PUSH1 0x20 ADD PUSH1 0x0 KECCAK256 SLOAD DUP3 GT ISZERO PUSH2 0xC8C JUMPI PUSH1 0x0 DUP1 REVERT JUMPDEST PUSH2 0xCDE DUP3 PUSH1 0x1 PUSH1 0x0 CALLER PUSH20 0xFFFFFFFFFFFFFFFFFFFFFFFFFFFFFFFFFFFFFFFF AND PUSH20 0xFFFFFFFFFFFFFFFFFFFFFFFFFFFFFFFFFFFFFFFF AND DUP2 MSTORE PUSH1 0x20 ADD SWAP1 DUP2 MSTORE PUSH1 0x20 ADD PUSH1 0x0 KECCAK256 SLOAD PUSH2 0xE26 SWAP1 SWAP2 SWAP1 PUSH4 0xFFFFFFFF AND JUMP JUMPDEST PUSH1 0x1 PUSH1 0x0 DUP7 PUSH20 0xFFFFFFFFFFFFFFFFFFFFFFFFFFFFFFFFFFFFFFFF AND PUSH20 0xFFFFFFFFFFFFFFFFFFFFFFFFFFFFFFFFFFFFFFFF AND DUP2 MSTORE PUSH1 0x20 ADD SWAP1 DUP2 MSTORE PUSH1 0x20 ADD PUSH1 0x0 KECCAK256 DUP2 SWAP1 SSTORE POP PUSH2 0xD73 DUP3 PUSH1 0x1 PUSH1 0x0 DUP7 PUSH20 0xFFFFFFFFFFFFFFFFFFFFFFFFFFFFFFFFFFFFFFFF AND PUSH20 0xFFFFFFFFFFFFFFFFFFFFFFFFFFFFFFFFFFFFFFFF AND DUP2 MSTORE PUSH1 0x20 ADD SWAP1 DUP2 MSTORE PUSH1 0x20 ADD PUSH1 0x0 KECCAK256 SLOAD PUSH2 0xE4D SWAP1 SWAP2 SWAP1 PUSH4 0xFFFFFFFF AND JUMP JUMPDEST PUSH1 0x1 PUSH1 0x0 DUP6 PUSH20 0xFFFFFFFFFFFFFFFFFFFFFFFFFFFFFFFFFFFFFFFF AND PUSH20 0xFFFFFFFFFFFFFFFFFFFFFFFFFFFFFFFFFFFFFFFF AND DUP2 MSTORE PUSH1 0x20 ADD SWAP1 DUP2 MSTORE PUSH1 0x20 ADD PUSH1 0x0 KECCAK256 DUP2 SWAP1 SSTORE POP DUP3 PUSH20 0xFFFFFFFFFFFFFFFFFFFFFFFFFFFFFFFFFFFFFFFF AND CALLER PUSH20 0xFFFFFFFFFFFFFFFFFFFFFFFFFFFFFFFFFFFFFFFF AND PUSH32 0xDDF252AD1BE2C89B69C2B068FC378DAA952BA7F163C4A11628F55A4DF523B3EF DUP5 PUSH1 0x40 MLOAD PUSH2 0xE13 SWAP2 SWAP1 PUSH2 0x1044 JUMP JUMPDEST PUSH1 0x40 MLOAD DUP1 SWAP2 SUB SWAP1 LOG3 PUSH1 0x1 SWAP1 POP SWAP4 SWAP3 POP POP POP JUMP JUMPDEST PUSH1 0x0 DUP3 DUP3 GT ISZERO PUSH2 0xE39 JUMPI PUSH2 0xE38 PUSH2 0x1252 JUMP JUMPDEST JUMPDEST DUP2 DUP4 PUSH2 0xE45 SWAP2 SWAP1 PUSH2 0x1281 JUMP JUMPDEST SWAP1 POP SWAP3 SWAP2 POP POP JUMP JUMPDEST PUSH1 0x0 DUP2 DUP4 PUSH2 0xE5B SWAP2 SWAP1 PUSH2 0x121E JUMP JUMPDEST SWAP1 POP DUP3 DUP2 LT ISZERO PUSH2 0xE6E JUMPI PUSH2 0xE6D PUSH2 0x1252 JUMP JUMPDEST JUMPDEST SWAP3 SWAP2 POP POP JUMP JUMPDEST PUSH1 0x0 DUP2 MLOAD SWAP1 POP SWAP2 SWAP1 POP JUMP JUMPDEST PUSH1 0x0 DUP3 DUP3 MSTORE PUSH1 0x20 DUP3 ADD SWAP1 POP SWAP3 SWAP2 POP POP JUMP JUMPDEST PUSH1 0x0 JUMPDEST DUP4 DUP2 LT ISZERO PUSH2 0xEAE JUMPI DUP1 DUP3 ADD MLOAD DUP2 DUP5 ADD MSTORE PUSH1 0x20 DUP2 ADD SWAP1 POP PUSH2 0xE93 JUMP JUMPDEST PUSH1 0x0 DUP5 DUP5 ADD MSTORE POP POP POP POP JUMP JUMPDEST PUSH1 0x0 PUSH1 0x1F NOT PUSH1 0x1F DUP4 ADD AND SWAP1 POP SWAP2 SWAP1 POP JUMP JUMPDEST PUSH1 0x0 PUSH2 0xED6 DUP3 PUSH2 0xE74 JUMP JUMPDEST PUSH2 0xEE0 DUP2 DUP6 PUSH2 0xE7F JUMP JUMPDEST SWAP4 POP PUSH2 0xEF0 DUP2 DUP6 PUSH1 0x20 DUP7 ADD PUSH2 0xE90 JUMP JUMPDEST PUSH2 0xEF9 DUP2 PUSH2 0xEBA JUMP JUMPDEST DUP5 ADD SWAP2 POP POP SWAP3 SWAP2 POP POP JUMP JUMPDEST PUSH1 0x0 PUSH1 0x20 DUP3 ADD SWAP1 POP DUP2 DUP2 SUB PUSH1 0x0 DUP4 ADD MSTORE PUSH2 0xF1E DUP2 DUP5 PUSH2 0xECB JUMP JUMPDEST SWAP1 POP SWAP3 SWAP2 POP POP JUMP JUMPDEST PUSH1 0x0 DUP1 REVERT JUMPDEST PUSH1 0x0 PUSH20 0xFFFFFFFFFFFFFFFFFFFFFFFFFFFFFFFFFFFFFFFF DUP3 AND SWAP1 POP SWAP2 SWAP1 POP JUMP JUMPDEST PUSH1 0x0 PUSH2 0xF56 DUP3 PUSH2 0xF2B JUMP JUMPDEST SWAP1 POP SWAP2 SWAP1 POP JUMP JUMPDEST PUSH2 0xF66 DUP2 PUSH2 0xF4B JUMP JUMPDEST DUP2 EQ PUSH2 0xF71 JUMPI PUSH1 0x0 DUP1 REVERT JUMPDEST POP JUMP JUMPDEST PUSH1 0x0 DUP2 CALLDATALOAD SWAP1 POP PUSH2 0xF83 DUP2 PUSH2 0xF5D JUMP JUMPDEST SWAP3 SWAP2 POP POP JUMP JUMPDEST PUSH1 0x0 DUP2 SWAP1 POP SWAP2 SWAP1 POP JUMP JUMPDEST PUSH2 0xF9C DUP2 PUSH2 0xF89 JUMP JUMPDEST DUP2 EQ PUSH2 0xFA7 JUMPI PUSH1 0x0 DUP1 REVERT JUMPDEST POP JUMP JUMPDEST PUSH1 0x0 DUP2 CALLDATALOAD SWAP1 POP PUSH2 0xFB9 DUP2 PUSH2 0xF93 JUMP JUMPDEST SWAP3 SWAP2 POP POP JUMP JUMPDEST PUSH1 0x0 DUP1 PUSH1 0x40 DUP4 DUP6 SUB SLT ISZERO PUSH2 0xFD6 JUMPI PUSH2 0xFD5 PUSH2 0xF26 JUMP JUMPDEST JUMPDEST PUSH1 0x0 PUSH2 0xFE4 DUP6 DUP3 DUP7 ADD PUSH2 0xF74 JUMP JUMPDEST SWAP3 POP POP PUSH1 0x20 PUSH2 0xFF5 DUP6 DUP3 DUP7 ADD PUSH2 0xFAA JUMP JUMPDEST SWAP2 POP POP SWAP3 POP SWAP3 SWAP1 POP JUMP JUMPDEST PUSH1 0x0 DUP2 ISZERO ISZERO SWAP1 POP SWAP2 SWAP1 POP JUMP JUMPDEST PUSH2 0x1014 DUP2 PUSH2 0xFFF JUMP JUMPDEST DUP3 MSTORE POP POP JUMP JUMPDEST PUSH1 0x0 PUSH1 0x20 DUP3 ADD SWAP1 POP PUSH2 0x102F PUSH1 0x0 DUP4 ADD DUP5 PUSH2 0x100B JUMP JUMPDEST SWAP3 SWAP2 POP POP JUMP JUMPDEST PUSH2 0x103E DUP2 PUSH2 0xF89 JUMP JUMPDEST DUP3 MSTORE POP POP JUMP JUMPDEST PUSH1 0x0 PUSH1 0x20 DUP3 ADD SWAP1 POP PUSH2 0x1059 PUSH1 0x0 DUP4 ADD DUP5 PUSH2 0x1035 JUMP JUMPDEST SWAP3 SWAP2 POP POP JUMP JUMPDEST PUSH1 0x0 PUSH1 0x20 DUP3 DUP5 SUB SLT ISZERO PUSH2 0x1075 JUMPI PUSH2 0x1074 PUSH2 0xF26 JUMP JUMPDEST JUMPDEST PUSH1 0x0 PUSH2 0x1083 DUP5 DUP3 DUP6 ADD PUSH2 0xFAA JUMP JUMPDEST SWAP2 POP POP SWAP3 SWAP2 POP POP JUMP JUMPDEST PUSH1 0x0 DUP1 PUSH1 0x0 PUSH1 0x60 DUP5 DUP7 SUB SLT ISZERO PUSH2 0x10A5 JUMPI PUSH2 0x10A4 PUSH2 0xF26 JUMP JUMPDEST JUMPDEST PUSH1 0x0 PUSH2 0x10B3 DUP7 DUP3 DUP8 ADD PUSH2 0xF74 JUMP JUMPDEST SWAP4 POP POP PUSH1 0x20 PUSH2 0x10C4 DUP7 DUP3 DUP8 ADD PUSH2 0xF74 JUMP JUMPDEST SWAP3 POP POP PUSH1 0x40 PUSH2 0x10D5 DUP7 DUP3 DUP8 ADD PUSH2 0xFAA JUMP JUMPDEST SWAP2 POP POP SWAP3 POP SWAP3 POP SWAP3 JUMP JUMPDEST PUSH1 0x0 PUSH1 0xFF DUP3 AND SWAP1 POP SWAP2 SWAP1 POP JUMP JUMPDEST PUSH2 0x10F5 DUP2 PUSH2 0x10DF JUMP JUMPDEST DUP3 MSTORE POP POP JUMP JUMPDEST PUSH1 0x0 PUSH1 0x20 DUP3 ADD SWAP1 POP PUSH2 0x1110 PUSH1 0x0 DUP4 ADD DUP5 PUSH2 0x10EC JUMP JUMPDEST SWAP3 SWAP2 POP POP JUMP JUMPDEST PUSH1 0x0 PUSH1 0x20 DUP3 DUP5 SUB SLT ISZERO PUSH2 0x112C JUMPI PUSH2 0x112B PUSH2 0xF26 JUMP JUMPDEST JUMPDEST PUSH1 0x0 PUSH2 0x113A DUP5 DUP3 DUP6 ADD PUSH2 0xF74 JUMP JUMPDEST SWAP2 POP POP SWAP3 SWAP2 POP POP JUMP JUMPDEST PUSH1 0x0 DUP1 PUSH1 0x40 DUP4 DUP6 SUB SLT ISZERO PUSH2 0x115A JUMPI PUSH2 0x1159 PUSH2 0xF26 JUMP JUMPDEST JUMPDEST PUSH1 0x0 PUSH2 0x1168 DUP6 DUP3 DUP7 ADD PUSH2 0xF74 JUMP JUMPDEST SWAP3 POP POP PUSH1 0x20 PUSH2 0x1179 DUP6 DUP3 DUP7 ADD PUSH2 0xF74 JUMP JUMPDEST SWAP2 POP POP SWAP3 POP SWAP3 SWAP1 POP JUMP JUMPDEST PUSH32 0x4D757374206265204F776E657200000000000000000000000000000000000000 PUSH1 0x0 DUP3 ADD MSTORE POP JUMP JUMPDEST PUSH1 0x0 PUSH2 0x11B9 PUSH1 0xD DUP4 PUSH2 0xE7F JUMP JUMPDEST SWAP2 POP PUSH2 0x11C4 DUP3 PUSH2 0x1183 JUMP JUMPDEST PUSH1 0x20 DUP3 ADD SWAP1 POP SWAP2 SWAP1 POP JUMP JUMPDEST PUSH1 0x0 PUSH1 0x20 DUP3 ADD SWAP1 POP DUP2 DUP2 SUB PUSH1 0x0 DUP4 ADD MSTORE PUSH2 0x11E8 DUP2 PUSH2 0x11AC JUMP JUMPDEST SWAP1 POP SWAP2 SWAP1 POP JUMP JUMPDEST PUSH32 0x4E487B7100000000000000000000000000000000000000000000000000000000 PUSH1 0x0 MSTORE PUSH1 0x11 PUSH1 0x4 MSTORE PUSH1 0x24 PUSH1 0x0 REVERT JUMPDEST PUSH1 0x0 PUSH2 0x1229 DUP3 PUSH2 0xF89 JUMP JUMPDEST SWAP2 POP PUSH2 0x1234 DUP4 PUSH2 0xF89 JUMP JUMPDEST SWAP3 POP DUP3 DUP3 ADD SWAP1 POP DUP1 DUP3 GT ISZERO PUSH2 0x124C JUMPI PUSH2 0x124B PUSH2 0x11EF JUMP JUMPDEST JUMPDEST SWAP3 SWAP2 POP POP JUMP JUMPDEST PUSH32 0x4E487B7100000000000000000000000000000000000000000000000000000000 PUSH1 0x0 MSTORE PUSH1 0x1 PUSH1 0x4 MSTORE PUSH1 0x24 PUSH1 0x0 REVERT JUMPDEST PUSH1 0x0 PUSH2 0x128C DUP3 PUSH2 0xF89 JUMP JUMPDEST SWAP2 POP PUSH2 0x1297 DUP4 PUSH2 0xF89 JUMP JUMPDEST SWAP3 POP DUP3 DUP3 SUB SWAP1 POP DUP2 DUP2 GT ISZERO PUSH2 0x12AF JUMPI PUSH2 0x12AE PUSH2 0x11EF JUMP JUMPDEST JUMPDEST SWAP3 SWAP2 POP POP JUMP INVALID LOG2 PUSH5 0x6970667358 0x22 SLT KECCAK256 0xE PUSH18 0x384D145C809F9D0B7A417F0244EBA0EF75FF PUSH27 0x694A4398B27A46DFE26FBC64736F6C634300081200330000000000 "
				},
				"gasEstimates": {
					"creation": {
						"codeDepositCost": "1332400",
						"executionCost": "infinite",
						"totalCost": "infinite"
					},
					"external": {
						"Attractions(string)": "infinite",
						"Clients(address)": "2828",
						"availableAttractions()": "infinite",
						"balanceOf()": "infinite",
						"buyTokens(uint256)": "infinite",
						"closeAttraction(string)": "infinite",
						"mintTokens(uint256)": "infinite",
						"myTokenAmount()": "infinite",
						"newAttraction(string,uint256)": "infinite",
						"owner()": "2581",
						"useAttraction(string)": "infinite"
					},
					"internal": {
						"tokenPrice(uint256)": "infinite"
					}
				},
				"methodIdentifiers": {
					"Attractions(string)": "c4e5dff2",
					"Clients(address)": "a5956738",
					"availableAttractions()": "b96f2cd4",
					"balanceOf()": "722713f7",
					"buyTokens(uint256)": "3610724e",
					"closeAttraction(string)": "79ac996a",
					"mintTokens(uint256)": "97304ced",
					"myTokenAmount()": "c4834899",
					"newAttraction(string,uint256)": "fbd98b20",
					"owner()": "8da5cb5b",
					"useAttraction(string)": "cb0a4a33"
				}
			},
			"storageLayout": {
				"storage": [
					{
						"astId": 443,
						"contract": "RESORT/Resort.sol:Resort",
						"label": "token",
						"offset": 0,
						"slot": "0",
						"type": "t_contract(ERC20Basic)437"
					},
					{
						"astId": 445,
						"contract": "RESORT/Resort.sol:Resort",
						"label": "owner",
						"offset": 0,
						"slot": "1",
						"type": "t_address_payable"
					},
					{
						"astId": 476,
						"contract": "RESORT/Resort.sol:Resort",
						"label": "Clients",
						"offset": 0,
						"slot": "2",
						"type": "t_mapping(t_address,t_struct(client)471_storage)"
					},
					{
						"astId": 634,
						"contract": "RESORT/Resort.sol:Resort",
						"label": "Attractions",
						"offset": 0,
						"slot": "3",
						"type": "t_mapping(t_string_memory_ptr,t_struct(attraction)629_storage)"
					},
					{
						"astId": 637,
						"contract": "RESORT/Resort.sol:Resort",
						"label": "attractions",
						"offset": 0,
						"slot": "4",
						"type": "t_array(t_string_storage)dyn_storage"
					},
					{
						"astId": 642,
						"contract": "RESORT/Resort.sol:Resort",
						"label": "attractionsRecords",
						"offset": 0,
						"slot": "5",
						"type": "t_mapping(t_address,t_array(t_string_storage)dyn_storage)"
					}
				],
				"types": {
					"t_address": {
						"encoding": "inplace",
						"label": "address",
						"numberOfBytes": "20"
					},
					"t_address_payable": {
						"encoding": "inplace",
						"label": "address payable",
						"numberOfBytes": "20"
					},
					"t_array(t_string_storage)dyn_storage": {
						"base": "t_string_storage",
						"encoding": "dynamic_array",
						"label": "string[]",
						"numberOfBytes": "32"
					},
					"t_bool": {
						"encoding": "inplace",
						"label": "bool",
						"numberOfBytes": "1"
					},
					"t_contract(ERC20Basic)437": {
						"encoding": "inplace",
						"label": "contract ERC20Basic",
						"numberOfBytes": "20"
					},
					"t_mapping(t_address,t_array(t_string_storage)dyn_storage)": {
						"encoding": "mapping",
						"key": "t_address",
						"label": "mapping(address => string[])",
						"numberOfBytes": "32",
						"value": "t_array(t_string_storage)dyn_storage"
					},
					"t_mapping(t_address,t_struct(client)471_storage)": {
						"encoding": "mapping",
						"key": "t_address",
						"label": "mapping(address => struct Resort.client)",
						"numberOfBytes": "32",
						"value": "t_struct(client)471_storage"
					},
					"t_mapping(t_string_memory_ptr,t_struct(attraction)629_storage)": {
						"encoding": "mapping",
						"key": "t_string_memory_ptr",
						"label": "mapping(string => struct Resort.attraction)",
						"numberOfBytes": "32",
						"value": "t_struct(attraction)629_storage"
					},
					"t_string_memory_ptr": {
						"encoding": "bytes",
						"label": "string",
						"numberOfBytes": "32"
					},
					"t_string_storage": {
						"encoding": "bytes",
						"label": "string",
						"numberOfBytes": "32"
					},
					"t_struct(attraction)629_storage": {
						"encoding": "inplace",
						"label": "struct Resort.attraction",
						"members": [
							{
								"astId": 624,
								"contract": "RESORT/Resort.sol:Resort",
								"label": "attraction_name",
								"offset": 0,
								"slot": "0",
								"type": "t_string_storage"
							},
							{
								"astId": 626,
								"contract": "RESORT/Resort.sol:Resort",
								"label": "attraction_price",
								"offset": 0,
								"slot": "1",
								"type": "t_uint256"
							},
							{
								"astId": 628,
								"contract": "RESORT/Resort.sol:Resort",
								"label": "attraction_state",
								"offset": 0,
								"slot": "2",
								"type": "t_bool"
							}
						],
						"numberOfBytes": "96"
					},
					"t_struct(client)471_storage": {
						"encoding": "inplace",
						"label": "struct Resort.client",
						"members": [
							{
								"astId": 467,
								"contract": "RESORT/Resort.sol:Resort",
								"label": "tokens_amount",
								"offset": 0,
								"slot": "0",
								"type": "t_uint256"
							},
							{
								"astId": 470,
								"contract": "RESORT/Resort.sol:Resort",
								"label": "favorite_attractions",
								"offset": 0,
								"slot": "1",
								"type": "t_array(t_string_storage)dyn_storage"
							}
						],
						"numberOfBytes": "64"
					},
					"t_uint256": {
						"encoding": "inplace",
						"label": "uint256",
						"numberOfBytes": "32"
					}
				}
			},
			"userdoc": {
				"kind": "user",
				"methods": {},
				"version": 1
			}
		}
	}
}