{
	"RESORT/Resort.sol": {
		"Resort": {
			"abi": [
				{
					"inputs": [],
					"stateMutability": "nonpayable",
					"type": "constructor"
				},
				{
					"anonymous": false,
					"inputs": [
						{
							"indexed": false,
							"internalType": "string",
							"name": "",
							"type": "string"
						}
					],
					"name": "closed_attraction",
					"type": "event"
				},
				{
					"anonymous": false,
					"inputs": [
						{
							"indexed": false,
							"internalType": "string",
							"name": "",
							"type": "string"
						},
						{
							"indexed": false,
							"internalType": "uint256",
							"name": "",
							"type": "uint256"
						},
						{
							"indexed": false,
							"internalType": "address",
							"name": "",
							"type": "address"
						}
					],
					"name": "enjoy_attraction",
					"type": "event"
				},
				{
					"anonymous": false,
					"inputs": [
						{
							"indexed": false,
							"internalType": "string",
							"name": "",
							"type": "string"
						},
						{
							"indexed": false,
							"internalType": "uint256",
							"name": "",
							"type": "uint256"
						}
					],
					"name": "new_attraction",
					"type": "event"
				},
				{
					"inputs": [
						{
							"internalType": "string",
							"name": "",
							"type": "string"
						}
					],
					"name": "Attractions",
					"outputs": [
						{
							"internalType": "string",
							"name": "attraction_name",
							"type": "string"
						},
						{
							"internalType": "uint256",
							"name": "attraction_price",
							"type": "uint256"
						},
						{
							"internalType": "bool",
							"name": "attraction_state",
							"type": "bool"
						}
					],
					"stateMutability": "view",
					"type": "function"
				},
				{
					"inputs": [
						{
							"internalType": "address",
							"name": "",
							"type": "address"
						}
					],
					"name": "Clients",
					"outputs": [
						{
							"internalType": "uint256",
							"name": "total_buyed_tokens",
							"type": "uint256"
						}
					],
					"stateMutability": "view",
					"type": "function"
				},
				{
					"inputs": [],
					"name": "Record",
					"outputs": [
						{
							"internalType": "string[]",
							"name": "",
							"type": "string[]"
						}
					],
					"stateMutability": "view",
					"type": "function"
				},
				{
					"inputs": [],
					"name": "availableAttractions",
					"outputs": [
						{
							"internalType": "string[]",
							"name": "",
							"type": "string[]"
						}
					],
					"stateMutability": "view",
					"type": "function"
				},
				{
					"inputs": [],
					"name": "balanceOf",
					"outputs": [
						{
							"internalType": "uint256",
							"name": "",
							"type": "uint256"
						}
					],
					"stateMutability": "view",
					"type": "function"
				},
				{
					"inputs": [
						{
							"internalType": "uint256",
							"name": "_tokenAmount",
							"type": "uint256"
						}
					],
					"name": "buyTokens",
					"outputs": [],
					"stateMutability": "payable",
					"type": "function"
				},
				{
					"inputs": [
						{
							"internalType": "string",
							"name": "_attractionName",
							"type": "string"
						}
					],
					"name": "closeAttraction",
					"outputs": [],
					"stateMutability": "nonpayable",
					"type": "function"
				},
				{
					"inputs": [
						{
							"internalType": "uint256",
							"name": "_tokenAmount",
							"type": "uint256"
						}
					],
					"name": "mintTokens",
					"outputs": [],
					"stateMutability": "nonpayable",
					"type": "function"
				},
				{
					"inputs": [],
					"name": "myTokenAmount",
					"outputs": [
						{
							"internalType": "uint256",
							"name": "",
							"type": "uint256"
						}
					],
					"stateMutability": "view",
					"type": "function"
				},
				{
					"inputs": [
						{
							"internalType": "string",
							"name": "_attractionName",
							"type": "string"
						},
						{
							"internalType": "uint256",
							"name": "_price",
							"type": "uint256"
						}
					],
					"name": "newAttraction",
					"outputs": [],
					"stateMutability": "nonpayable",
					"type": "function"
				},
				{
					"inputs": [],
					"name": "owner",
					"outputs": [
						{
							"internalType": "address payable",
							"name": "",
							"type": "address"
						}
					],
					"stateMutability": "view",
					"type": "function"
				},
				{
					"inputs": [
						{
							"internalType": "uint256",
							"name": "_tokenAmount",
							"type": "uint256"
						}
					],
					"name": "returnTokens",
					"outputs": [],
					"stateMutability": "payable",
					"type": "function"
				},
				{
					"inputs": [
						{
							"internalType": "string",
							"name": "_attractionName",
							"type": "string"
						}
					],
					"name": "useAttraction",
					"outputs": [],
					"stateMutability": "nonpayable",
					"type": "function"
				}
			],
			"devdoc": {
				"kind": "dev",
				"methods": {},
				"version": 1
			},
			"evm": {
				"assembly": "    /* \"RESORT/Resort.sol\":81:4218  contract Resort{... */\n  mstore(0x40, 0x80)\n    /* \"RESORT/Resort.sol\":242:338  constructor(){... */\n  callvalue\n  dup1\n  iszero\n  tag_1\n  jumpi\n  0x00\n  dup1\n  revert\ntag_1:\n  pop\n    /* \"RESORT/Resort.sol\":288:293  10000 */\n  0x2710\n    /* \"RESORT/Resort.sol\":273:294  new ERC20Basic(10000) */\n  mload(0x40)\n  tag_4\n  swap1\n  tag_5\n  jump\t// in\ntag_4:\n  tag_6\n  swap2\n  swap1\n  tag_7\n  jump\t// in\ntag_6:\n  mload(0x40)\n  dup1\n  swap2\n  sub\n  swap1\n  0x00\n  create\n  dup1\n  iszero\n  dup1\n  iszero\n  tag_8\n  jumpi\n  returndatasize\n  0x00\n  dup1\n  returndatacopy\n  revert(0x00, returndatasize)\ntag_8:\n  pop\n    /* \"RESORT/Resort.sol\":265:270  token */\n  0x00\n  dup1\n    /* \"RESORT/Resort.sol\":265:294  token = new ERC20Basic(10000) */\n  0x0100\n  exp\n  dup2\n  sload\n  dup2\n  0xffffffffffffffffffffffffffffffffffffffff\n  mul\n  not\n  and\n  swap1\n  dup4\n  0xffffffffffffffffffffffffffffffffffffffff\n  and\n  mul\n  or\n  swap1\n  sstore\n  pop\n    /* \"RESORT/Resort.sol\":320:330  msg.sender */\n  caller\n    /* \"RESORT/Resort.sol\":304:309  owner */\n  0x01\n  0x00\n    /* \"RESORT/Resort.sol\":304:331  owner = payable(msg.sender) */\n  0x0100\n  exp\n  dup2\n  sload\n  dup2\n  0xffffffffffffffffffffffffffffffffffffffff\n  mul\n  not\n  and\n  swap1\n  dup4\n  0xffffffffffffffffffffffffffffffffffffffff\n  and\n  mul\n  or\n  swap1\n  sstore\n  pop\n    /* \"RESORT/Resort.sol\":81:4218  contract Resort{... */\n  jump(tag_9)\ntag_5:\n  dataSize(sub_1)\n  dup1\n  dataOffset(sub_1)\n  dup4\n  codecopy\n  add\n  swap1\n  jump\t// out\n    /* \"#utility.yul\":7:96   */\ntag_10:\n    /* \"#utility.yul\":56:63   */\n  0x00\n    /* \"#utility.yul\":85:90   */\n  dup2\n    /* \"#utility.yul\":74:90   */\n  swap1\n  pop\n    /* \"#utility.yul\":7:96   */\n  swap2\n  swap1\n  pop\n  jump\t// out\n    /* \"#utility.yul\":102:179   */\ntag_11:\n    /* \"#utility.yul\":139:146   */\n  0x00\n    /* \"#utility.yul\":168:173   */\n  dup2\n    /* \"#utility.yul\":157:173   */\n  swap1\n  pop\n    /* \"#utility.yul\":102:179   */\n  swap2\n  swap1\n  pop\n  jump\t// out\n    /* \"#utility.yul\":185:245   */\ntag_12:\n    /* \"#utility.yul\":213:216   */\n  0x00\n    /* \"#utility.yul\":234:239   */\n  dup2\n    /* \"#utility.yul\":227:239   */\n  swap1\n  pop\n    /* \"#utility.yul\":185:245   */\n  swap2\n  swap1\n  pop\n  jump\t// out\n    /* \"#utility.yul\":251:417   */\ntag_13:\n    /* \"#utility.yul\":313:322   */\n  0x00\n    /* \"#utility.yul\":346:411   */\n  tag_20\n    /* \"#utility.yul\":364:410   */\n  tag_21\n    /* \"#utility.yul\":373:409   */\n  tag_22\n    /* \"#utility.yul\":403:408   */\n  dup5\n    /* \"#utility.yul\":373:409   */\n  tag_10\n  jump\t// in\ntag_22:\n    /* \"#utility.yul\":364:410   */\n  tag_12\n  jump\t// in\ntag_21:\n    /* \"#utility.yul\":346:411   */\n  tag_11\n  jump\t// in\ntag_20:\n    /* \"#utility.yul\":333:411   */\n  swap1\n  pop\n    /* \"#utility.yul\":251:417   */\n  swap2\n  swap1\n  pop\n  jump\t// out\n    /* \"#utility.yul\":423:578   */\ntag_14:\n    /* \"#utility.yul\":522:571   */\n  tag_24\n    /* \"#utility.yul\":565:570   */\n  dup2\n    /* \"#utility.yul\":522:571   */\n  tag_13\n  jump\t// in\ntag_24:\n    /* \"#utility.yul\":517:520   */\n  dup3\n    /* \"#utility.yul\":510:572   */\n  mstore\n    /* \"#utility.yul\":423:578   */\n  pop\n  pop\n  jump\t// out\n    /* \"#utility.yul\":584:830   */\ntag_7:\n    /* \"#utility.yul\":689:693   */\n  0x00\n    /* \"#utility.yul\":727:729   */\n  0x20\n    /* \"#utility.yul\":716:725   */\n  dup3\n    /* \"#utility.yul\":712:730   */\n  add\n    /* \"#utility.yul\":704:730   */\n  swap1\n  pop\n    /* \"#utility.yul\":740:823   */\n  tag_26\n    /* \"#utility.yul\":820:821   */\n  0x00\n    /* \"#utility.yul\":809:818   */\n  dup4\n    /* \"#utility.yul\":805:822   */\n  add\n    /* \"#utility.yul\":796:802   */\n  dup5\n    /* \"#utility.yul\":740:823   */\n  tag_14\n  jump\t// in\ntag_26:\n    /* \"#utility.yul\":584:830   */\n  swap3\n  swap2\n  pop\n  pop\n  jump\t// out\n    /* \"RESORT/Resort.sol\":81:4218  contract Resort{... */\ntag_9:\n  dataSize(sub_0)\n  dup1\n  dataOffset(sub_0)\n  0x00\n  codecopy\n  0x00\n  return\nstop\n\nsub_0: assembly {\n        /* \"RESORT/Resort.sol\":81:4218  contract Resort{... */\n      mstore(0x40, 0x80)\n      jumpi(tag_1, lt(calldatasize, 0x04))\n      shr(0xe0, calldataload(0x00))\n      dup1\n      0xa5956738\n      gt\n      tag_15\n      jumpi\n      dup1\n      0xc4834899\n      gt\n      tag_16\n      jumpi\n      dup1\n      0xc4834899\n      eq\n      tag_11\n      jumpi\n      dup1\n      0xc4e5dff2\n      eq\n      tag_12\n      jumpi\n      dup1\n      0xcb0a4a33\n      eq\n      tag_13\n      jumpi\n      dup1\n      0xfbd98b20\n      eq\n      tag_14\n      jumpi\n      jump(tag_1)\n    tag_16:\n      dup1\n      0xa5956738\n      eq\n      tag_8\n      jumpi\n      dup1\n      0xb96f2cd4\n      eq\n      tag_9\n      jumpi\n      dup1\n      0xc2be10dd\n      eq\n      tag_10\n      jumpi\n      jump(tag_1)\n    tag_15:\n      dup1\n      0x3610724e\n      eq\n      tag_2\n      jumpi\n      dup1\n      0x3ae1786f\n      eq\n      tag_3\n      jumpi\n      dup1\n      0x722713f7\n      eq\n      tag_4\n      jumpi\n      dup1\n      0x79ac996a\n      eq\n      tag_5\n      jumpi\n      dup1\n      0x8da5cb5b\n      eq\n      tag_6\n      jumpi\n      dup1\n      0x97304ced\n      eq\n      tag_7\n      jumpi\n    tag_1:\n      0x00\n      dup1\n      revert\n        /* \"RESORT/Resort.sol\":791:1291  function buyTokens(uint _tokenAmount) public payable{... */\n    tag_2:\n      tag_17\n      0x04\n      dup1\n      calldatasize\n      sub\n      dup2\n      add\n      swap1\n      tag_18\n      swap2\n      swap1\n      tag_19\n      jump\t// in\n    tag_18:\n      tag_20\n      jump\t// in\n    tag_17:\n      stop\n        /* \"RESORT/Resort.sol\":3884:4209  function returnTokens(uint _tokenAmount) public payable{... */\n    tag_3:\n      tag_21\n      0x04\n      dup1\n      calldatasize\n      sub\n      dup2\n      add\n      swap1\n      tag_22\n      swap2\n      swap1\n      tag_19\n      jump\t// in\n    tag_22:\n      tag_23\n      jump\t// in\n    tag_21:\n      stop\n        /* \"RESORT/Resort.sol\":1338:1439  function balanceOf() public view returns(uint){... */\n    tag_4:\n      callvalue\n      dup1\n      iszero\n      tag_24\n      jumpi\n      0x00\n      dup1\n      revert\n    tag_24:\n      pop\n      tag_25\n      tag_26\n      jump\t// in\n    tag_25:\n      mload(0x40)\n      tag_27\n      swap2\n      swap1\n      tag_28\n      jump\t// in\n    tag_27:\n      mload(0x40)\n      dup1\n      swap2\n      sub\n      swap1\n      return\n        /* \"RESORT/Resort.sol\":2780:2973  function closeAttraction(string memory _attractionName) public onlyOwner(){... */\n    tag_5:\n      callvalue\n      dup1\n      iszero\n      tag_29\n      jumpi\n      0x00\n      dup1\n      revert\n    tag_29:\n      pop\n      tag_30\n      0x04\n      dup1\n      calldatasize\n      sub\n      dup2\n      add\n      swap1\n      tag_31\n      swap2\n      swap1\n      tag_32\n      jump\t// in\n    tag_31:\n      tag_33\n      jump\t// in\n    tag_30:\n      stop\n        /* \"RESORT/Resort.sol\":189:217  address payable public owner */\n    tag_6:\n      callvalue\n      dup1\n      iszero\n      tag_34\n      jumpi\n      0x00\n      dup1\n      revert\n    tag_34:\n      pop\n      tag_35\n      tag_36\n      jump\t// in\n    tag_35:\n      mload(0x40)\n      tag_37\n      swap2\n      swap1\n      tag_38\n      jump\t// in\n    tag_37:\n      mload(0x40)\n      dup1\n      swap2\n      sub\n      swap1\n      return\n        /* \"RESORT/Resort.sol\":1616:1729  function mintTokens(uint _tokenAmount) public onlyOwner(){... */\n    tag_7:\n      callvalue\n      dup1\n      iszero\n      tag_39\n      jumpi\n      0x00\n      dup1\n      revert\n    tag_39:\n      pop\n      tag_40\n      0x04\n      dup1\n      calldatasize\n      sub\n      dup2\n      add\n      swap1\n      tag_41\n      swap2\n      swap1\n      tag_19\n      jump\t// in\n    tag_41:\n      tag_42\n      jump\t// in\n    tag_40:\n      stop\n        /* \"RESORT/Resort.sol\":522:564  mapping (address => client) public Clients */\n    tag_8:\n      callvalue\n      dup1\n      iszero\n      tag_43\n      jumpi\n      0x00\n      dup1\n      revert\n    tag_43:\n      pop\n      tag_44\n      0x04\n      dup1\n      calldatasize\n      sub\n      dup2\n      add\n      swap1\n      tag_45\n      swap2\n      swap1\n      tag_46\n      jump\t// in\n    tag_45:\n      tag_47\n      jump\t// in\n    tag_44:\n      mload(0x40)\n      tag_48\n      swap2\n      swap1\n      tag_28\n      jump\t// in\n    tag_48:\n      mload(0x40)\n      dup1\n      swap2\n      sub\n      swap1\n      return\n        /* \"RESORT/Resort.sol\":3022:3125  function availableAttractions() public view returns(string[] memory){... */\n    tag_9:\n      callvalue\n      dup1\n      iszero\n      tag_49\n      jumpi\n      0x00\n      dup1\n      revert\n    tag_49:\n      pop\n      tag_50\n      tag_51\n      jump\t// in\n    tag_50:\n      mload(0x40)\n      tag_52\n      swap2\n      swap1\n      tag_53\n      jump\t// in\n    tag_52:\n      mload(0x40)\n      dup1\n      swap2\n      sub\n      swap1\n      return\n        /* \"RESORT/Resort.sol\":3731:3840  function Record() public view returns (string[] memory){... */\n    tag_10:\n      callvalue\n      dup1\n      iszero\n      tag_54\n      jumpi\n      0x00\n      dup1\n      revert\n    tag_54:\n      pop\n      tag_55\n      tag_56\n      jump\t// in\n    tag_55:\n      mload(0x40)\n      tag_57\n      swap2\n      swap1\n      tag_53\n      jump\t// in\n    tag_57:\n      mload(0x40)\n      dup1\n      swap2\n      sub\n      swap1\n      return\n        /* \"RESORT/Resort.sol\":1481:1582  function myTokenAmount() public view returns(uint){... */\n    tag_11:\n      callvalue\n      dup1\n      iszero\n      tag_58\n      jumpi\n      0x00\n      dup1\n      revert\n    tag_58:\n      pop\n      tag_59\n      tag_60\n      jump\t// in\n    tag_59:\n      mload(0x40)\n      tag_61\n      swap2\n      swap1\n      tag_28\n      jump\t// in\n    tag_61:\n      mload(0x40)\n      dup1\n      swap2\n      sub\n      swap1\n      return\n        /* \"RESORT/Resort.sol\":2195:2243  mapping(string => attraction) public Attractions */\n    tag_12:\n      callvalue\n      dup1\n      iszero\n      tag_62\n      jumpi\n      0x00\n      dup1\n      revert\n    tag_62:\n      pop\n      tag_63\n      0x04\n      dup1\n      calldatasize\n      sub\n      dup2\n      add\n      swap1\n      tag_64\n      swap2\n      swap1\n      tag_32\n      jump\t// in\n    tag_64:\n      tag_65\n      jump\t// in\n    tag_63:\n      mload(0x40)\n      tag_66\n      swap4\n      swap3\n      swap2\n      swap1\n      tag_67\n      jump\t// in\n    tag_66:\n      mload(0x40)\n      dup1\n      swap2\n      sub\n      swap1\n      return\n        /* \"RESORT/Resort.sol\":3159:3685  function useAttraction(string memory _attractionName) public{... */\n    tag_13:\n      callvalue\n      dup1\n      iszero\n      tag_68\n      jumpi\n      0x00\n      dup1\n      revert\n    tag_68:\n      pop\n      tag_69\n      0x04\n      dup1\n      calldatasize\n      sub\n      dup2\n      add\n      swap1\n      tag_70\n      swap2\n      swap1\n      tag_32\n      jump\t// in\n    tag_70:\n      tag_71\n      jump\t// in\n    tag_69:\n      stop\n        /* \"RESORT/Resort.sol\":2476:2742  function newAttraction(string memory _attractionName, uint _price) public onlyOwner{... */\n    tag_14:\n      callvalue\n      dup1\n      iszero\n      tag_72\n      jumpi\n      0x00\n      dup1\n      revert\n    tag_72:\n      pop\n      tag_73\n      0x04\n      dup1\n      calldatasize\n      sub\n      dup2\n      add\n      swap1\n      tag_74\n      swap2\n      swap1\n      tag_75\n      jump\t// in\n    tag_74:\n      tag_76\n      jump\t// in\n    tag_73:\n      stop\n        /* \"RESORT/Resort.sol\":791:1291  function buyTokens(uint _tokenAmount) public payable{... */\n    tag_20:\n        /* \"RESORT/Resort.sol\":880:889  uint cost */\n      0x00\n        /* \"RESORT/Resort.sol\":892:916  tokenPrice(_tokenAmount) */\n      tag_78\n        /* \"RESORT/Resort.sol\":903:915  _tokenAmount */\n      dup3\n        /* \"RESORT/Resort.sol\":892:902  tokenPrice */\n      tag_79\n        /* \"RESORT/Resort.sol\":892:916  tokenPrice(_tokenAmount) */\n      jump\t// in\n    tag_78:\n        /* \"RESORT/Resort.sol\":880:916  uint cost = tokenPrice(_tokenAmount) */\n      swap1\n      pop\n        /* \"RESORT/Resort.sol\":947:951  cost */\n      dup1\n        /* \"RESORT/Resort.sol\":934:943  msg.value */\n      callvalue\n        /* \"RESORT/Resort.sol\":934:951  msg.value >= cost */\n      lt\n      iszero\n        /* \"RESORT/Resort.sol\":926:974  require(msg.value >= cost,\"Insufficient amount\") */\n      tag_80\n      jumpi\n      mload(0x40)\n      0x08c379a000000000000000000000000000000000000000000000000000000000\n      dup2\n      mstore\n      0x04\n      add\n      tag_81\n      swap1\n      tag_82\n      jump\t// in\n    tag_81:\n      mload(0x40)\n      dup1\n      swap2\n      sub\n      swap1\n      revert\n    tag_80:\n        /* \"RESORT/Resort.sol\":984:1000  uint returnValue */\n      0x00\n        /* \"RESORT/Resort.sol\":1015:1019  cost */\n      dup2\n        /* \"RESORT/Resort.sol\":1003:1012  msg.value */\n      callvalue\n        /* \"RESORT/Resort.sol\":1003:1019  msg.value - cost */\n      tag_83\n      swap2\n      swap1\n      tag_84\n      jump\t// in\n    tag_83:\n        /* \"RESORT/Resort.sol\":984:1019  uint returnValue = msg.value - cost */\n      swap1\n      pop\n        /* \"RESORT/Resort.sol\":1037:1047  msg.sender */\n      caller\n        /* \"RESORT/Resort.sol\":1029:1057  payable(msg.sender).transfer */\n      0xffffffffffffffffffffffffffffffffffffffff\n      and\n        /* \"RESORT/Resort.sol\":1029:1070  payable(msg.sender).transfer(returnValue) */\n      0x08fc\n        /* \"RESORT/Resort.sol\":1058:1069  returnValue */\n      dup3\n        /* \"RESORT/Resort.sol\":1029:1070  payable(msg.sender).transfer(returnValue) */\n      swap1\n      dup2\n      iszero\n      mul\n      swap1\n      mload(0x40)\n      0x00\n      mload(0x40)\n      dup1\n      dup4\n      sub\n      dup2\n      dup6\n      dup9\n      dup9\n      call\n      swap4\n      pop\n      pop\n      pop\n      pop\n      iszero\n      dup1\n      iszero\n      tag_86\n      jumpi\n      returndatasize\n      0x00\n      dup1\n      returndatacopy\n      revert(0x00, returndatasize)\n    tag_86:\n      pop\n        /* \"RESORT/Resort.sol\":1080:1092  uint Balance */\n      0x00\n        /* \"RESORT/Resort.sol\":1095:1106  balanceOf() */\n      tag_87\n        /* \"RESORT/Resort.sol\":1095:1104  balanceOf */\n      tag_26\n        /* \"RESORT/Resort.sol\":1095:1106  balanceOf() */\n      jump\t// in\n    tag_87:\n        /* \"RESORT/Resort.sol\":1080:1106  uint Balance = balanceOf() */\n      swap1\n      pop\n        /* \"RESORT/Resort.sol\":1140:1147  Balance */\n      dup1\n        /* \"RESORT/Resort.sol\":1124:1136  _tokenAmount */\n      dup5\n        /* \"RESORT/Resort.sol\":1124:1147  _tokenAmount <= Balance */\n      gt\n      iszero\n        /* \"RESORT/Resort.sol\":1116:1170  require(_tokenAmount <= Balance, \"Transaction failed\") */\n      tag_88\n      jumpi\n      mload(0x40)\n      0x08c379a000000000000000000000000000000000000000000000000000000000\n      dup2\n      mstore\n      0x04\n      add\n      tag_89\n      swap1\n      tag_90\n      jump\t// in\n    tag_89:\n      mload(0x40)\n      dup1\n      swap2\n      sub\n      swap1\n      revert\n    tag_88:\n        /* \"RESORT/Resort.sol\":1180:1185  token */\n      0x00\n      dup1\n      sload\n      swap1\n      0x0100\n      exp\n      swap1\n      div\n      0xffffffffffffffffffffffffffffffffffffffff\n      and\n        /* \"RESORT/Resort.sol\":1180:1194  token.transfer */\n      0xffffffffffffffffffffffffffffffffffffffff\n      and\n      0xa9059cbb\n        /* \"RESORT/Resort.sol\":1195:1205  msg.sender */\n      caller\n        /* \"RESORT/Resort.sol\":1206:1218  _tokenAmount */\n      dup7\n        /* \"RESORT/Resort.sol\":1180:1219  token.transfer(msg.sender,_tokenAmount) */\n      mload(0x40)\n      dup4\n      0xffffffff\n      and\n      0xe0\n      shl\n      dup2\n      mstore\n      0x04\n      add\n      tag_91\n      swap3\n      swap2\n      swap1\n      tag_92\n      jump\t// in\n    tag_91:\n      0x20\n      mload(0x40)\n      dup1\n      dup4\n      sub\n      dup2\n      0x00\n      dup8\n      gas\n      call\n      iszero\n      dup1\n      iszero\n      tag_94\n      jumpi\n      returndatasize\n      0x00\n      dup1\n      returndatacopy\n      revert(0x00, returndatasize)\n    tag_94:\n      pop\n      pop\n      pop\n      pop\n      mload(0x40)\n      returndatasize\n      not(0x1f)\n      0x1f\n      dup3\n      add\n      and\n      dup3\n      add\n      dup1\n      0x40\n      mstore\n      pop\n      dup2\n      add\n      swap1\n      tag_95\n      swap2\n      swap1\n      tag_96\n      jump\t// in\n    tag_95:\n      pop\n        /* \"RESORT/Resort.sol\":1271:1283  _tokenAmount */\n      dup4\n        /* \"RESORT/Resort.sol\":1229:1236  Clients */\n      0x02\n        /* \"RESORT/Resort.sol\":1229:1248  Clients[msg.sender] */\n      0x00\n        /* \"RESORT/Resort.sol\":1237:1247  msg.sender */\n      caller\n        /* \"RESORT/Resort.sol\":1229:1248  Clients[msg.sender] */\n      0xffffffffffffffffffffffffffffffffffffffff\n      and\n      0xffffffffffffffffffffffffffffffffffffffff\n      and\n      dup2\n      mstore\n      0x20\n      add\n      swap1\n      dup2\n      mstore\n      0x20\n      add\n      0x00\n      keccak256\n        /* \"RESORT/Resort.sol\":1229:1267  Clients[msg.sender].total_buyed_tokens */\n      0x00\n      add\n      0x00\n        /* \"RESORT/Resort.sol\":1229:1283  Clients[msg.sender].total_buyed_tokens += _tokenAmount */\n      dup3\n      dup3\n      sload\n      tag_97\n      swap2\n      swap1\n      tag_98\n      jump\t// in\n    tag_97:\n      swap3\n      pop\n      pop\n      dup2\n      swap1\n      sstore\n      pop\n        /* \"RESORT/Resort.sol\":843:1291  {... */\n      pop\n      pop\n      pop\n        /* \"RESORT/Resort.sol\":791:1291  function buyTokens(uint _tokenAmount) public payable{... */\n      pop\n      jump\t// out\n        /* \"RESORT/Resort.sol\":3884:4209  function returnTokens(uint _tokenAmount) public payable{... */\n    tag_23:\n        /* \"RESORT/Resort.sol\":3971:3972  0 */\n      0x00\n        /* \"RESORT/Resort.sol\":3957:3969  _tokenAmount */\n      dup2\n        /* \"RESORT/Resort.sol\":3957:3972  _tokenAmount>=0 */\n      lt\n      iszero\n        /* \"RESORT/Resort.sol\":3949:3994  require(_tokenAmount>=0,\"Can't be negative!\") */\n      tag_100\n      jumpi\n      mload(0x40)\n      0x08c379a000000000000000000000000000000000000000000000000000000000\n      dup2\n      mstore\n      0x04\n      add\n      tag_101\n      swap1\n      tag_102\n      jump\t// in\n    tag_101:\n      mload(0x40)\n      dup1\n      swap2\n      sub\n      swap1\n      revert\n    tag_100:\n        /* \"RESORT/Resort.sol\":4026:4041  myTokenAmount() */\n      tag_103\n        /* \"RESORT/Resort.sol\":4026:4039  myTokenAmount */\n      tag_60\n        /* \"RESORT/Resort.sol\":4026:4041  myTokenAmount() */\n      jump\t// in\n    tag_103:\n        /* \"RESORT/Resort.sol\":4012:4024  _tokenAmount */\n      dup2\n        /* \"RESORT/Resort.sol\":4012:4041  _tokenAmount<=myTokenAmount() */\n      gt\n      iszero\n        /* \"RESORT/Resort.sol\":4004:4065  require(_tokenAmount<=myTokenAmount(),\"Insufficient Balance\") */\n      tag_104\n      jumpi\n      mload(0x40)\n      0x08c379a000000000000000000000000000000000000000000000000000000000\n      dup2\n      mstore\n      0x04\n      add\n      tag_105\n      swap1\n      tag_106\n      jump\t// in\n    tag_105:\n      mload(0x40)\n      dup1\n      swap2\n      sub\n      swap1\n      revert\n    tag_104:\n        /* \"RESORT/Resort.sol\":4075:4080  token */\n      0x00\n      dup1\n      sload\n      swap1\n      0x0100\n      exp\n      swap1\n      div\n      0xffffffffffffffffffffffffffffffffffffffff\n      and\n        /* \"RESORT/Resort.sol\":4075:4099  token.transferFromClient */\n      0xffffffffffffffffffffffffffffffffffffffff\n      and\n      0xe0631f7f\n        /* \"RESORT/Resort.sol\":4100:4110  msg.sender */\n      caller\n        /* \"RESORT/Resort.sol\":4119:4123  this */\n      address\n        /* \"RESORT/Resort.sol\":4125:4137  _tokenAmount */\n      dup5\n        /* \"RESORT/Resort.sol\":4075:4138  token.transferFromClient(msg.sender,address(this),_tokenAmount) */\n      mload(0x40)\n      dup5\n      0xffffffff\n      and\n      0xe0\n      shl\n      dup2\n      mstore\n      0x04\n      add\n      tag_107\n      swap4\n      swap3\n      swap2\n      swap1\n      tag_108\n      jump\t// in\n    tag_107:\n      0x20\n      mload(0x40)\n      dup1\n      dup4\n      sub\n      dup2\n      0x00\n      dup8\n      gas\n      call\n      iszero\n      dup1\n      iszero\n      tag_110\n      jumpi\n      returndatasize\n      0x00\n      dup1\n      returndatacopy\n      revert(0x00, returndatasize)\n    tag_110:\n      pop\n      pop\n      pop\n      pop\n      mload(0x40)\n      returndatasize\n      not(0x1f)\n      0x1f\n      dup3\n      add\n      and\n      dup3\n      add\n      dup1\n      0x40\n      mstore\n      pop\n      dup2\n      add\n      swap1\n      tag_111\n      swap2\n      swap1\n      tag_96\n      jump\t// in\n    tag_111:\n      pop\n        /* \"RESORT/Resort.sol\":4156:4166  msg.sender */\n      caller\n        /* \"RESORT/Resort.sol\":4148:4176  payable(msg.sender).transfer */\n      0xffffffffffffffffffffffffffffffffffffffff\n      and\n        /* \"RESORT/Resort.sol\":4148:4202  payable(msg.sender).transfer(tokenPrice(_tokenAmount)) */\n      0x08fc\n        /* \"RESORT/Resort.sol\":4177:4201  tokenPrice(_tokenAmount) */\n      tag_112\n        /* \"RESORT/Resort.sol\":4188:4200  _tokenAmount */\n      dup4\n        /* \"RESORT/Resort.sol\":4177:4187  tokenPrice */\n      tag_79\n        /* \"RESORT/Resort.sol\":4177:4201  tokenPrice(_tokenAmount) */\n      jump\t// in\n    tag_112:\n        /* \"RESORT/Resort.sol\":4148:4202  payable(msg.sender).transfer(tokenPrice(_tokenAmount)) */\n      swap1\n      dup2\n      iszero\n      mul\n      swap1\n      mload(0x40)\n      0x00\n      mload(0x40)\n      dup1\n      dup4\n      sub\n      dup2\n      dup6\n      dup9\n      dup9\n      call\n      swap4\n      pop\n      pop\n      pop\n      pop\n      iszero\n      dup1\n      iszero\n      tag_114\n      jumpi\n      returndatasize\n      0x00\n      dup1\n      returndatacopy\n      revert(0x00, returndatasize)\n    tag_114:\n      pop\n        /* \"RESORT/Resort.sol\":3884:4209  function returnTokens(uint _tokenAmount) public payable{... */\n      pop\n      jump\t// out\n        /* \"RESORT/Resort.sol\":1338:1439  function balanceOf() public view returns(uint){... */\n    tag_26:\n        /* \"RESORT/Resort.sol\":1379:1383  uint */\n      0x00\n        /* \"RESORT/Resort.sol\":1401:1406  token */\n      dup1\n      0x00\n      swap1\n      sload\n      swap1\n      0x0100\n      exp\n      swap1\n      div\n      0xffffffffffffffffffffffffffffffffffffffff\n      and\n        /* \"RESORT/Resort.sol\":1401:1416  token.balanceOf */\n      0xffffffffffffffffffffffffffffffffffffffff\n      and\n      0x70a08231\n        /* \"RESORT/Resort.sol\":1425:1429  this */\n      address\n        /* \"RESORT/Resort.sol\":1401:1431  token.balanceOf(address(this)) */\n      mload(0x40)\n      dup3\n      0xffffffff\n      and\n      0xe0\n      shl\n      dup2\n      mstore\n      0x04\n      add\n      tag_116\n      swap2\n      swap1\n      tag_117\n      jump\t// in\n    tag_116:\n      0x20\n      mload(0x40)\n      dup1\n      dup4\n      sub\n      dup2\n      dup7\n      gas\n      staticcall\n      iszero\n      dup1\n      iszero\n      tag_119\n      jumpi\n      returndatasize\n      0x00\n      dup1\n      returndatacopy\n      revert(0x00, returndatasize)\n    tag_119:\n      pop\n      pop\n      pop\n      pop\n      mload(0x40)\n      returndatasize\n      not(0x1f)\n      0x1f\n      dup3\n      add\n      and\n      dup3\n      add\n      dup1\n      0x40\n      mstore\n      pop\n      dup2\n      add\n      swap1\n      tag_120\n      swap2\n      swap1\n      tag_121\n      jump\t// in\n    tag_120:\n        /* \"RESORT/Resort.sol\":1394:1431  return token.balanceOf(address(this)) */\n      swap1\n      pop\n        /* \"RESORT/Resort.sol\":1338:1439  function balanceOf() public view returns(uint){... */\n      swap1\n      jump\t// out\n        /* \"RESORT/Resort.sol\":2780:2973  function closeAttraction(string memory _attractionName) public onlyOwner(){... */\n    tag_33:\n        /* \"RESORT/Resort.sol\":1812:1817  owner */\n      0x01\n      0x00\n      swap1\n      sload\n      swap1\n      0x0100\n      exp\n      swap1\n      div\n      0xffffffffffffffffffffffffffffffffffffffff\n      and\n        /* \"RESORT/Resort.sol\":1798:1817  msg.sender == owner */\n      0xffffffffffffffffffffffffffffffffffffffff\n      and\n        /* \"RESORT/Resort.sol\":1798:1808  msg.sender */\n      caller\n        /* \"RESORT/Resort.sol\":1798:1817  msg.sender == owner */\n      0xffffffffffffffffffffffffffffffffffffffff\n      and\n      eq\n        /* \"RESORT/Resort.sol\":1790:1818  require(msg.sender == owner) */\n      tag_123\n      jumpi\n      0x00\n      dup1\n      revert\n    tag_123:\n        /* \"RESORT/Resort.sol\":2912:2917  false */\n      0x00\n        /* \"RESORT/Resort.sol\":2864:2875  Attractions */\n      0x03\n        /* \"RESORT/Resort.sol\":2876:2891  _attractionName */\n      dup3\n        /* \"RESORT/Resort.sol\":2864:2892  Attractions[_attractionName] */\n      mload(0x40)\n      tag_125\n      swap2\n      swap1\n      tag_126\n      jump\t// in\n    tag_125:\n      swap1\n      dup2\n      mstore\n      0x20\n      add\n      mload(0x40)\n      dup1\n      swap2\n      sub\n      swap1\n      keccak256\n        /* \"RESORT/Resort.sol\":2864:2909  Attractions[_attractionName].attraction_state */\n      0x02\n      add\n      0x00\n        /* \"RESORT/Resort.sol\":2864:2917  Attractions[_attractionName].attraction_state = false */\n      0x0100\n      exp\n      dup2\n      sload\n      dup2\n      0xff\n      mul\n      not\n      and\n      swap1\n      dup4\n      iszero\n      iszero\n      mul\n      or\n      swap1\n      sstore\n      pop\n        /* \"RESORT/Resort.sol\":2932:2966  closed_attraction(_attractionName) */\n      0xa9b5d005cb280c62bb7a048bb2323e402707d0f05a053a3fe3a3e1b64aa4856d\n        /* \"RESORT/Resort.sol\":2950:2965  _attractionName */\n      dup2\n        /* \"RESORT/Resort.sol\":2932:2966  closed_attraction(_attractionName) */\n      mload(0x40)\n      tag_127\n      swap2\n      swap1\n      tag_128\n      jump\t// in\n    tag_127:\n      mload(0x40)\n      dup1\n      swap2\n      sub\n      swap1\n      log1\n        /* \"RESORT/Resort.sol\":2780:2973  function closeAttraction(string memory _attractionName) public onlyOwner(){... */\n      pop\n      jump\t// out\n        /* \"RESORT/Resort.sol\":189:217  address payable public owner */\n    tag_36:\n      0x01\n      0x00\n      swap1\n      sload\n      swap1\n      0x0100\n      exp\n      swap1\n      div\n      0xffffffffffffffffffffffffffffffffffffffff\n      and\n      dup2\n      jump\t// out\n        /* \"RESORT/Resort.sol\":1616:1729  function mintTokens(uint _tokenAmount) public onlyOwner(){... */\n    tag_42:\n        /* \"RESORT/Resort.sol\":1812:1817  owner */\n      0x01\n      0x00\n      swap1\n      sload\n      swap1\n      0x0100\n      exp\n      swap1\n      div\n      0xffffffffffffffffffffffffffffffffffffffff\n      and\n        /* \"RESORT/Resort.sol\":1798:1817  msg.sender == owner */\n      0xffffffffffffffffffffffffffffffffffffffff\n      and\n        /* \"RESORT/Resort.sol\":1798:1808  msg.sender */\n      caller\n        /* \"RESORT/Resort.sol\":1798:1817  msg.sender == owner */\n      0xffffffffffffffffffffffffffffffffffffffff\n      and\n      eq\n        /* \"RESORT/Resort.sol\":1790:1818  require(msg.sender == owner) */\n      tag_130\n      jumpi\n      0x00\n      dup1\n      revert\n    tag_130:\n        /* \"RESORT/Resort.sol\":1683:1688  token */\n      0x00\n      dup1\n      sload\n      swap1\n      0x0100\n      exp\n      swap1\n      div\n      0xffffffffffffffffffffffffffffffffffffffff\n      and\n        /* \"RESORT/Resort.sol\":1683:1708  token.increaseTotalSupply */\n      0xffffffffffffffffffffffffffffffffffffffff\n      and\n      0x1d43cc98\n        /* \"RESORT/Resort.sol\":1709:1721  _tokenAmount */\n      dup3\n        /* \"RESORT/Resort.sol\":1683:1722  token.increaseTotalSupply(_tokenAmount) */\n      mload(0x40)\n      dup3\n      0xffffffff\n      and\n      0xe0\n      shl\n      dup2\n      mstore\n      0x04\n      add\n      tag_132\n      swap2\n      swap1\n      tag_28\n      jump\t// in\n    tag_132:\n      0x00\n      mload(0x40)\n      dup1\n      dup4\n      sub\n      dup2\n      0x00\n      dup8\n      dup1\n      extcodesize\n      iszero\n      dup1\n      iszero\n      tag_133\n      jumpi\n      0x00\n      dup1\n      revert\n    tag_133:\n      pop\n      gas\n      call\n      iszero\n      dup1\n      iszero\n      tag_135\n      jumpi\n      returndatasize\n      0x00\n      dup1\n      returndatacopy\n      revert(0x00, returndatasize)\n    tag_135:\n      pop\n      pop\n      pop\n      pop\n        /* \"RESORT/Resort.sol\":1616:1729  function mintTokens(uint _tokenAmount) public onlyOwner(){... */\n      pop\n      jump\t// out\n        /* \"RESORT/Resort.sol\":522:564  mapping (address => client) public Clients */\n    tag_47:\n      mstore(0x20, 0x02)\n      dup1\n      0x00\n      mstore\n      keccak256(0x00, 0x40)\n      0x00\n      swap2\n      pop\n      swap1\n      pop\n      dup1\n      0x00\n      add\n      sload\n      swap1\n      pop\n      dup2\n      jump\t// out\n        /* \"RESORT/Resort.sol\":3022:3125  function availableAttractions() public view returns(string[] memory){... */\n    tag_51:\n        /* \"RESORT/Resort.sol\":3074:3089  string[] memory */\n      0x60\n        /* \"RESORT/Resort.sol\":3107:3118  attractions */\n      0x04\n        /* \"RESORT/Resort.sol\":3100:3118  return attractions */\n      dup1\n      sload\n      dup1\n      0x20\n      mul\n      0x20\n      add\n      mload(0x40)\n      swap1\n      dup2\n      add\n      0x40\n      mstore\n      dup1\n      swap3\n      swap2\n      swap1\n      dup2\n      dup2\n      mstore\n      0x20\n      add\n      0x00\n      swap1\n    tag_137:\n      dup3\n      dup3\n      lt\n      iszero\n      tag_138\n      jumpi\n      dup4\n      dup3\n      swap1\n      0x00\n      mstore\n      keccak256(0x00, 0x20)\n      add\n      dup1\n      sload\n      tag_140\n      swap1\n      tag_141\n      jump\t// in\n    tag_140:\n      dup1\n      0x1f\n      add\n      0x20\n      dup1\n      swap2\n      div\n      mul\n      0x20\n      add\n      mload(0x40)\n      swap1\n      dup2\n      add\n      0x40\n      mstore\n      dup1\n      swap3\n      swap2\n      swap1\n      dup2\n      dup2\n      mstore\n      0x20\n      add\n      dup3\n      dup1\n      sload\n      tag_142\n      swap1\n      tag_141\n      jump\t// in\n    tag_142:\n      dup1\n      iszero\n      tag_143\n      jumpi\n      dup1\n      0x1f\n      lt\n      tag_144\n      jumpi\n      0x0100\n      dup1\n      dup4\n      sload\n      div\n      mul\n      dup4\n      mstore\n      swap2\n      0x20\n      add\n      swap2\n      jump(tag_143)\n    tag_144:\n      dup3\n      add\n      swap2\n      swap1\n      0x00\n      mstore\n      keccak256(0x00, 0x20)\n      swap1\n    tag_145:\n      dup2\n      sload\n      dup2\n      mstore\n      swap1\n      0x01\n      add\n      swap1\n      0x20\n      add\n      dup1\n      dup4\n      gt\n      tag_145\n      jumpi\n      dup3\n      swap1\n      sub\n      0x1f\n      and\n      dup3\n      add\n      swap2\n    tag_143:\n      pop\n      pop\n      pop\n      pop\n      pop\n      dup2\n      mstore\n      0x20\n      add\n      swap1\n      0x01\n      add\n      swap1\n      jump(tag_137)\n    tag_138:\n      pop\n      pop\n      pop\n      pop\n      swap1\n      pop\n        /* \"RESORT/Resort.sol\":3022:3125  function availableAttractions() public view returns(string[] memory){... */\n      swap1\n      jump\t// out\n        /* \"RESORT/Resort.sol\":3731:3840  function Record() public view returns (string[] memory){... */\n    tag_56:\n        /* \"RESORT/Resort.sol\":3770:3785  string[] memory */\n      0x60\n        /* \"RESORT/Resort.sol\":3803:3821  attractionsRecords */\n      0x05\n        /* \"RESORT/Resort.sol\":3803:3833  attractionsRecords[msg.sender] */\n      0x00\n        /* \"RESORT/Resort.sol\":3822:3832  msg.sender */\n      caller\n        /* \"RESORT/Resort.sol\":3803:3833  attractionsRecords[msg.sender] */\n      0xffffffffffffffffffffffffffffffffffffffff\n      and\n      0xffffffffffffffffffffffffffffffffffffffff\n      and\n      dup2\n      mstore\n      0x20\n      add\n      swap1\n      dup2\n      mstore\n      0x20\n      add\n      0x00\n      keccak256\n        /* \"RESORT/Resort.sol\":3796:3833  return attractionsRecords[msg.sender] */\n      dup1\n      sload\n      dup1\n      0x20\n      mul\n      0x20\n      add\n      mload(0x40)\n      swap1\n      dup2\n      add\n      0x40\n      mstore\n      dup1\n      swap3\n      swap2\n      swap1\n      dup2\n      dup2\n      mstore\n      0x20\n      add\n      0x00\n      swap1\n    tag_147:\n      dup3\n      dup3\n      lt\n      iszero\n      tag_148\n      jumpi\n      dup4\n      dup3\n      swap1\n      0x00\n      mstore\n      keccak256(0x00, 0x20)\n      add\n      dup1\n      sload\n      tag_150\n      swap1\n      tag_141\n      jump\t// in\n    tag_150:\n      dup1\n      0x1f\n      add\n      0x20\n      dup1\n      swap2\n      div\n      mul\n      0x20\n      add\n      mload(0x40)\n      swap1\n      dup2\n      add\n      0x40\n      mstore\n      dup1\n      swap3\n      swap2\n      swap1\n      dup2\n      dup2\n      mstore\n      0x20\n      add\n      dup3\n      dup1\n      sload\n      tag_151\n      swap1\n      tag_141\n      jump\t// in\n    tag_151:\n      dup1\n      iszero\n      tag_152\n      jumpi\n      dup1\n      0x1f\n      lt\n      tag_153\n      jumpi\n      0x0100\n      dup1\n      dup4\n      sload\n      div\n      mul\n      dup4\n      mstore\n      swap2\n      0x20\n      add\n      swap2\n      jump(tag_152)\n    tag_153:\n      dup3\n      add\n      swap2\n      swap1\n      0x00\n      mstore\n      keccak256(0x00, 0x20)\n      swap1\n    tag_154:\n      dup2\n      sload\n      dup2\n      mstore\n      swap1\n      0x01\n      add\n      swap1\n      0x20\n      add\n      dup1\n      dup4\n      gt\n      tag_154\n      jumpi\n      dup3\n      swap1\n      sub\n      0x1f\n      and\n      dup3\n      add\n      swap2\n    tag_152:\n      pop\n      pop\n      pop\n      pop\n      pop\n      dup2\n      mstore\n      0x20\n      add\n      swap1\n      0x01\n      add\n      swap1\n      jump(tag_147)\n    tag_148:\n      pop\n      pop\n      pop\n      pop\n      swap1\n      pop\n        /* \"RESORT/Resort.sol\":3731:3840  function Record() public view returns (string[] memory){... */\n      swap1\n      jump\t// out\n        /* \"RESORT/Resort.sol\":1481:1582  function myTokenAmount() public view returns(uint){... */\n    tag_60:\n        /* \"RESORT/Resort.sol\":1526:1530  uint */\n      0x00\n        /* \"RESORT/Resort.sol\":1548:1553  token */\n      dup1\n      0x00\n      swap1\n      sload\n      swap1\n      0x0100\n      exp\n      swap1\n      div\n      0xffffffffffffffffffffffffffffffffffffffff\n      and\n        /* \"RESORT/Resort.sol\":1548:1563  token.balanceOf */\n      0xffffffffffffffffffffffffffffffffffffffff\n      and\n      0x70a08231\n        /* \"RESORT/Resort.sol\":1564:1574  msg.sender */\n      caller\n        /* \"RESORT/Resort.sol\":1548:1575  token.balanceOf(msg.sender) */\n      mload(0x40)\n      dup3\n      0xffffffff\n      and\n      0xe0\n      shl\n      dup2\n      mstore\n      0x04\n      add\n      tag_156\n      swap2\n      swap1\n      tag_117\n      jump\t// in\n    tag_156:\n      0x20\n      mload(0x40)\n      dup1\n      dup4\n      sub\n      dup2\n      dup7\n      gas\n      staticcall\n      iszero\n      dup1\n      iszero\n      tag_158\n      jumpi\n      returndatasize\n      0x00\n      dup1\n      returndatacopy\n      revert(0x00, returndatasize)\n    tag_158:\n      pop\n      pop\n      pop\n      pop\n      mload(0x40)\n      returndatasize\n      not(0x1f)\n      0x1f\n      dup3\n      add\n      and\n      dup3\n      add\n      dup1\n      0x40\n      mstore\n      pop\n      dup2\n      add\n      swap1\n      tag_159\n      swap2\n      swap1\n      tag_121\n      jump\t// in\n    tag_159:\n        /* \"RESORT/Resort.sol\":1541:1575  return token.balanceOf(msg.sender) */\n      swap1\n      pop\n        /* \"RESORT/Resort.sol\":1481:1582  function myTokenAmount() public view returns(uint){... */\n      swap1\n      jump\t// out\n        /* \"RESORT/Resort.sol\":2195:2243  mapping(string => attraction) public Attractions */\n    tag_65:\n      0x03\n      dup2\n      dup1\n      mload\n      0x20\n      dup2\n      add\n      dup3\n      add\n      dup1\n      mload\n      dup5\n      dup3\n      mstore\n      0x20\n      dup4\n      add\n      0x20\n      dup6\n      add\n      keccak256\n      dup2\n      dup4\n      mstore\n      dup1\n      swap6\n      pop\n      pop\n      pop\n      pop\n      pop\n      pop\n      0x00\n      swap2\n      pop\n      swap1\n      pop\n      dup1\n      0x00\n      add\n      dup1\n      sload\n      tag_160\n      swap1\n      tag_141\n      jump\t// in\n    tag_160:\n      dup1\n      0x1f\n      add\n      0x20\n      dup1\n      swap2\n      div\n      mul\n      0x20\n      add\n      mload(0x40)\n      swap1\n      dup2\n      add\n      0x40\n      mstore\n      dup1\n      swap3\n      swap2\n      swap1\n      dup2\n      dup2\n      mstore\n      0x20\n      add\n      dup3\n      dup1\n      sload\n      tag_161\n      swap1\n      tag_141\n      jump\t// in\n    tag_161:\n      dup1\n      iszero\n      tag_162\n      jumpi\n      dup1\n      0x1f\n      lt\n      tag_163\n      jumpi\n      0x0100\n      dup1\n      dup4\n      sload\n      div\n      mul\n      dup4\n      mstore\n      swap2\n      0x20\n      add\n      swap2\n      jump(tag_162)\n    tag_163:\n      dup3\n      add\n      swap2\n      swap1\n      0x00\n      mstore\n      keccak256(0x00, 0x20)\n      swap1\n    tag_164:\n      dup2\n      sload\n      dup2\n      mstore\n      swap1\n      0x01\n      add\n      swap1\n      0x20\n      add\n      dup1\n      dup4\n      gt\n      tag_164\n      jumpi\n      dup3\n      swap1\n      sub\n      0x1f\n      and\n      dup3\n      add\n      swap2\n    tag_162:\n      pop\n      pop\n      pop\n      pop\n      pop\n      swap1\n      dup1\n      0x01\n      add\n      sload\n      swap1\n      dup1\n      0x02\n      add\n      0x00\n      swap1\n      sload\n      swap1\n      0x0100\n      exp\n      swap1\n      div\n      0xff\n      and\n      swap1\n      pop\n      dup4\n      jump\t// out\n        /* \"RESORT/Resort.sol\":3159:3685  function useAttraction(string memory _attractionName) public{... */\n    tag_71:\n        /* \"RESORT/Resort.sol\":3286:3290  true */\n      0x01\n        /* \"RESORT/Resort.sol\":3237:3290  Attractions[_attractionName].attraction_state == true */\n      iszero\n      iszero\n        /* \"RESORT/Resort.sol\":3237:3248  Attractions */\n      0x03\n        /* \"RESORT/Resort.sol\":3249:3264  _attractionName */\n      dup3\n        /* \"RESORT/Resort.sol\":3237:3265  Attractions[_attractionName] */\n      mload(0x40)\n      tag_166\n      swap2\n      swap1\n      tag_126\n      jump\t// in\n    tag_166:\n      swap1\n      dup2\n      mstore\n      0x20\n      add\n      mload(0x40)\n      dup1\n      swap2\n      sub\n      swap1\n      keccak256\n        /* \"RESORT/Resort.sol\":3237:3282  Attractions[_attractionName].attraction_state */\n      0x02\n      add\n      0x00\n      swap1\n      sload\n      swap1\n      0x0100\n      exp\n      swap1\n      div\n      0xff\n      and\n        /* \"RESORT/Resort.sol\":3237:3290  Attractions[_attractionName].attraction_state == true */\n      iszero\n      iszero\n      eq\n        /* \"RESORT/Resort.sol\":3229:3310  require(Attractions[_attractionName].attraction_state == true,\"Attraction Close\") */\n      tag_167\n      jumpi\n      mload(0x40)\n      0x08c379a000000000000000000000000000000000000000000000000000000000\n      dup2\n      mstore\n      0x04\n      add\n      tag_168\n      swap1\n      tag_169\n      jump\t// in\n    tag_168:\n      mload(0x40)\n      dup1\n      swap2\n      sub\n      swap1\n      revert\n    tag_167:\n        /* \"RESORT/Resort.sol\":3320:3340  uint attractionPrice */\n      0x00\n        /* \"RESORT/Resort.sol\":3343:3354  Attractions */\n      0x03\n        /* \"RESORT/Resort.sol\":3355:3370  _attractionName */\n      dup3\n        /* \"RESORT/Resort.sol\":3343:3371  Attractions[_attractionName] */\n      mload(0x40)\n      tag_170\n      swap2\n      swap1\n      tag_126\n      jump\t// in\n    tag_170:\n      swap1\n      dup2\n      mstore\n      0x20\n      add\n      mload(0x40)\n      dup1\n      swap2\n      sub\n      swap1\n      keccak256\n        /* \"RESORT/Resort.sol\":3343:3388  Attractions[_attractionName].attraction_price */\n      0x01\n      add\n      sload\n        /* \"RESORT/Resort.sol\":3320:3388  uint attractionPrice = Attractions[_attractionName].attraction_price */\n      swap1\n      pop\n        /* \"RESORT/Resort.sol\":3425:3440  attractionPrice */\n      dup1\n        /* \"RESORT/Resort.sol\":3406:3421  myTokenAmount() */\n      tag_171\n        /* \"RESORT/Resort.sol\":3406:3419  myTokenAmount */\n      tag_60\n        /* \"RESORT/Resort.sol\":3406:3421  myTokenAmount() */\n      jump\t// in\n    tag_171:\n        /* \"RESORT/Resort.sol\":3406:3440  myTokenAmount() >= attractionPrice */\n      lt\n      iszero\n        /* \"RESORT/Resort.sol\":3398:3464  require(myTokenAmount() >= attractionPrice,\"Insufficient Balance\") */\n      tag_172\n      jumpi\n      mload(0x40)\n      0x08c379a000000000000000000000000000000000000000000000000000000000\n      dup2\n      mstore\n      0x04\n      add\n      tag_173\n      swap1\n      tag_106\n      jump\t// in\n    tag_173:\n      mload(0x40)\n      dup1\n      swap2\n      sub\n      swap1\n      revert\n    tag_172:\n        /* \"RESORT/Resort.sol\":3474:3479  token */\n      0x00\n      dup1\n      sload\n      swap1\n      0x0100\n      exp\n      swap1\n      div\n      0xffffffffffffffffffffffffffffffffffffffff\n      and\n        /* \"RESORT/Resort.sol\":3474:3498  token.transferFromClient */\n      0xffffffffffffffffffffffffffffffffffffffff\n      and\n      0xe0631f7f\n        /* \"RESORT/Resort.sol\":3499:3509  msg.sender */\n      caller\n        /* \"RESORT/Resort.sol\":3519:3523  this */\n      address\n        /* \"RESORT/Resort.sol\":3525:3540  attractionPrice */\n      dup5\n        /* \"RESORT/Resort.sol\":3474:3541  token.transferFromClient(msg.sender, address(this),attractionPrice) */\n      mload(0x40)\n      dup5\n      0xffffffff\n      and\n      0xe0\n      shl\n      dup2\n      mstore\n      0x04\n      add\n      tag_174\n      swap4\n      swap3\n      swap2\n      swap1\n      tag_108\n      jump\t// in\n    tag_174:\n      0x20\n      mload(0x40)\n      dup1\n      dup4\n      sub\n      dup2\n      0x00\n      dup8\n      gas\n      call\n      iszero\n      dup1\n      iszero\n      tag_176\n      jumpi\n      returndatasize\n      0x00\n      dup1\n      returndatacopy\n      revert(0x00, returndatasize)\n    tag_176:\n      pop\n      pop\n      pop\n      pop\n      mload(0x40)\n      returndatasize\n      not(0x1f)\n      0x1f\n      dup3\n      add\n      and\n      dup3\n      add\n      dup1\n      0x40\n      mstore\n      pop\n      dup2\n      add\n      swap1\n      tag_177\n      swap2\n      swap1\n      tag_96\n      jump\t// in\n    tag_177:\n      pop\n        /* \"RESORT/Resort.sol\":3551:3569  attractionsRecords */\n      0x05\n        /* \"RESORT/Resort.sol\":3551:3581  attractionsRecords[msg.sender] */\n      0x00\n        /* \"RESORT/Resort.sol\":3570:3580  msg.sender */\n      caller\n        /* \"RESORT/Resort.sol\":3551:3581  attractionsRecords[msg.sender] */\n      0xffffffffffffffffffffffffffffffffffffffff\n      and\n      0xffffffffffffffffffffffffffffffffffffffff\n      and\n      dup2\n      mstore\n      0x20\n      add\n      swap1\n      dup2\n      mstore\n      0x20\n      add\n      0x00\n      keccak256\n        /* \"RESORT/Resort.sol\":3587:3602  _attractionName */\n      dup3\n        /* \"RESORT/Resort.sol\":3551:3603  attractionsRecords[msg.sender].push(_attractionName) */\n      swap1\n      dup1\n      0x01\n      dup2\n      sload\n      add\n      dup1\n      dup3\n      sstore\n      dup1\n      swap2\n      pop\n      pop\n      0x01\n      swap1\n      sub\n      swap1\n      0x00\n      mstore\n      keccak256(0x00, 0x20)\n      add\n      0x00\n      swap1\n      swap2\n      swap1\n      swap2\n      swap1\n      swap2\n      pop\n      swap1\n      dup2\n      tag_179\n      swap2\n      swap1\n      tag_180\n      jump\t// in\n    tag_179:\n      pop\n        /* \"RESORT/Resort.sol\":3618:3678  enjoy_attraction(_attractionName,attractionPrice,msg.sender) */\n      0xfcec2a140106a441fbaae966bd30f8cacd5c4ae875e31e09acec6324f2a065b3\n        /* \"RESORT/Resort.sol\":3635:3650  _attractionName */\n      dup3\n        /* \"RESORT/Resort.sol\":3651:3666  attractionPrice */\n      dup3\n        /* \"RESORT/Resort.sol\":3667:3677  msg.sender */\n      caller\n        /* \"RESORT/Resort.sol\":3618:3678  enjoy_attraction(_attractionName,attractionPrice,msg.sender) */\n      mload(0x40)\n      tag_181\n      swap4\n      swap3\n      swap2\n      swap1\n      tag_182\n      jump\t// in\n    tag_181:\n      mload(0x40)\n      dup1\n      swap2\n      sub\n      swap1\n      log1\n        /* \"RESORT/Resort.sol\":3219:3685  {... */\n      pop\n        /* \"RESORT/Resort.sol\":3159:3685  function useAttraction(string memory _attractionName) public{... */\n      pop\n      jump\t// out\n        /* \"RESORT/Resort.sol\":2476:2742  function newAttraction(string memory _attractionName, uint _price) public onlyOwner{... */\n    tag_76:\n        /* \"RESORT/Resort.sol\":1812:1817  owner */\n      0x01\n      0x00\n      swap1\n      sload\n      swap1\n      0x0100\n      exp\n      swap1\n      div\n      0xffffffffffffffffffffffffffffffffffffffff\n      and\n        /* \"RESORT/Resort.sol\":1798:1817  msg.sender == owner */\n      0xffffffffffffffffffffffffffffffffffffffff\n      and\n        /* \"RESORT/Resort.sol\":1798:1808  msg.sender */\n      caller\n        /* \"RESORT/Resort.sol\":1798:1817  msg.sender == owner */\n      0xffffffffffffffffffffffffffffffffffffffff\n      and\n      eq\n        /* \"RESORT/Resort.sol\":1790:1818  require(msg.sender == owner) */\n      tag_184\n      jumpi\n      0x00\n      dup1\n      revert\n    tag_184:\n        /* \"RESORT/Resort.sol\":2600:2639  attraction(_attractionName,_price,true) */\n      mload(0x40)\n      dup1\n      0x60\n      add\n      0x40\n      mstore\n      dup1\n        /* \"RESORT/Resort.sol\":2611:2626  _attractionName */\n      dup4\n        /* \"RESORT/Resort.sol\":2600:2639  attraction(_attractionName,_price,true) */\n      dup2\n      mstore\n      0x20\n      add\n        /* \"RESORT/Resort.sol\":2627:2633  _price */\n      dup3\n        /* \"RESORT/Resort.sol\":2600:2639  attraction(_attractionName,_price,true) */\n      dup2\n      mstore\n      0x20\n      add\n        /* \"RESORT/Resort.sol\":2634:2638  true */\n      0x01\n        /* \"RESORT/Resort.sol\":2600:2639  attraction(_attractionName,_price,true) */\n      iszero\n      iszero\n      dup2\n      mstore\n      pop\n        /* \"RESORT/Resort.sol\":2569:2580  Attractions */\n      0x03\n        /* \"RESORT/Resort.sol\":2581:2596  _attractionName */\n      dup4\n        /* \"RESORT/Resort.sol\":2569:2597  Attractions[_attractionName] */\n      mload(0x40)\n      tag_186\n      swap2\n      swap1\n      tag_126\n      jump\t// in\n    tag_186:\n      swap1\n      dup2\n      mstore\n      0x20\n      add\n      mload(0x40)\n      dup1\n      swap2\n      sub\n      swap1\n      keccak256\n        /* \"RESORT/Resort.sol\":2569:2639  Attractions[_attractionName] = attraction(_attractionName,_price,true) */\n      0x00\n      dup3\n      add\n      mload\n      dup2\n      0x00\n      add\n      swap1\n      dup2\n      tag_187\n      swap2\n      swap1\n      tag_180\n      jump\t// in\n    tag_187:\n      pop\n      0x20\n      dup3\n      add\n      mload\n      dup2\n      0x01\n      add\n      sstore\n      0x40\n      dup3\n      add\n      mload\n      dup2\n      0x02\n      add\n      exp(0x0100, 0x00)\n      dup2\n      sload\n      dup2\n      0xff\n      mul\n      not\n      and\n      swap1\n      dup4\n      iszero\n      iszero\n      mul\n      or\n      swap1\n      sstore\n      pop\n      swap1\n      pop\n      pop\n        /* \"RESORT/Resort.sol\":2649:2660  attractions */\n      0x04\n        /* \"RESORT/Resort.sol\":2666:2681  _attractionName */\n      dup3\n        /* \"RESORT/Resort.sol\":2649:2682  attractions.push(_attractionName) */\n      swap1\n      dup1\n      0x01\n      dup2\n      sload\n      add\n      dup1\n      dup3\n      sstore\n      dup1\n      swap2\n      pop\n      pop\n      0x01\n      swap1\n      sub\n      swap1\n      0x00\n      mstore\n      keccak256(0x00, 0x20)\n      add\n      0x00\n      swap1\n      swap2\n      swap1\n      swap2\n      swap1\n      swap2\n      pop\n      swap1\n      dup2\n      tag_189\n      swap2\n      swap1\n      tag_180\n      jump\t// in\n    tag_189:\n      pop\n        /* \"RESORT/Resort.sol\":2697:2735  new_attraction(_attractionName,_price) */\n      0x7881aaf671f51be7f8d7a5d3e85d5c6c2e67c380908056a877bc6cfc1b8bfc5e\n        /* \"RESORT/Resort.sol\":2712:2727  _attractionName */\n      dup3\n        /* \"RESORT/Resort.sol\":2728:2734  _price */\n      dup3\n        /* \"RESORT/Resort.sol\":2697:2735  new_attraction(_attractionName,_price) */\n      mload(0x40)\n      tag_190\n      swap3\n      swap2\n      swap1\n      tag_191\n      jump\t// in\n    tag_190:\n      mload(0x40)\n      dup1\n      swap2\n      sub\n      swap1\n      log1\n        /* \"RESORT/Resort.sol\":2476:2742  function newAttraction(string memory _attractionName, uint _price) public onlyOwner{... */\n      pop\n      pop\n      jump\t// out\n        /* \"RESORT/Resort.sol\":627:768  function tokenPrice(uint _tokenAmount) internal pure returns (uint){... */\n    tag_79:\n        /* \"RESORT/Resort.sol\":689:693  uint */\n      0x00\n        /* \"RESORT/Resort.sol\":753:760  1 ether */\n      0x0de0b6b3a7640000\n        /* \"RESORT/Resort.sol\":737:749  _tokenAmount */\n      dup3\n        /* \"RESORT/Resort.sol\":737:761  _tokenAmount * (1 ether) */\n      tag_193\n      swap2\n      swap1\n      tag_194\n      jump\t// in\n    tag_193:\n        /* \"RESORT/Resort.sol\":730:761  return _tokenAmount * (1 ether) */\n      swap1\n      pop\n        /* \"RESORT/Resort.sol\":627:768  function tokenPrice(uint _tokenAmount) internal pure returns (uint){... */\n      swap2\n      swap1\n      pop\n      jump\t// out\n        /* \"#utility.yul\":7:82   */\n    tag_195:\n        /* \"#utility.yul\":40:46   */\n      0x00\n        /* \"#utility.yul\":73:75   */\n      0x40\n        /* \"#utility.yul\":67:76   */\n      mload\n        /* \"#utility.yul\":57:76   */\n      swap1\n      pop\n        /* \"#utility.yul\":7:82   */\n      swap1\n      jump\t// out\n        /* \"#utility.yul\":88:205   */\n    tag_196:\n        /* \"#utility.yul\":197:198   */\n      0x00\n        /* \"#utility.yul\":194:195   */\n      dup1\n        /* \"#utility.yul\":187:199   */\n      revert\n        /* \"#utility.yul\":211:328   */\n    tag_197:\n        /* \"#utility.yul\":320:321   */\n      0x00\n        /* \"#utility.yul\":317:318   */\n      dup1\n        /* \"#utility.yul\":310:322   */\n      revert\n        /* \"#utility.yul\":334:411   */\n    tag_198:\n        /* \"#utility.yul\":371:378   */\n      0x00\n        /* \"#utility.yul\":400:405   */\n      dup2\n        /* \"#utility.yul\":389:405   */\n      swap1\n      pop\n        /* \"#utility.yul\":334:411   */\n      swap2\n      swap1\n      pop\n      jump\t// out\n        /* \"#utility.yul\":417:539   */\n    tag_199:\n        /* \"#utility.yul\":490:514   */\n      tag_271\n        /* \"#utility.yul\":508:513   */\n      dup2\n        /* \"#utility.yul\":490:514   */\n      tag_198\n      jump\t// in\n    tag_271:\n        /* \"#utility.yul\":483:488   */\n      dup2\n        /* \"#utility.yul\":480:515   */\n      eq\n        /* \"#utility.yul\":470:533   */\n      tag_272\n      jumpi\n        /* \"#utility.yul\":529:530   */\n      0x00\n        /* \"#utility.yul\":526:527   */\n      dup1\n        /* \"#utility.yul\":519:531   */\n      revert\n        /* \"#utility.yul\":470:533   */\n    tag_272:\n        /* \"#utility.yul\":417:539   */\n      pop\n      jump\t// out\n        /* \"#utility.yul\":545:684   */\n    tag_200:\n        /* \"#utility.yul\":591:596   */\n      0x00\n        /* \"#utility.yul\":629:635   */\n      dup2\n        /* \"#utility.yul\":616:636   */\n      calldataload\n        /* \"#utility.yul\":607:636   */\n      swap1\n      pop\n        /* \"#utility.yul\":645:678   */\n      tag_274\n        /* \"#utility.yul\":672:677   */\n      dup2\n        /* \"#utility.yul\":645:678   */\n      tag_199\n      jump\t// in\n    tag_274:\n        /* \"#utility.yul\":545:684   */\n      swap3\n      swap2\n      pop\n      pop\n      jump\t// out\n        /* \"#utility.yul\":690:1019   */\n    tag_19:\n        /* \"#utility.yul\":749:755   */\n      0x00\n        /* \"#utility.yul\":798:800   */\n      0x20\n        /* \"#utility.yul\":786:795   */\n      dup3\n        /* \"#utility.yul\":777:784   */\n      dup5\n        /* \"#utility.yul\":773:796   */\n      sub\n        /* \"#utility.yul\":769:801   */\n      slt\n        /* \"#utility.yul\":766:885   */\n      iszero\n      tag_276\n      jumpi\n        /* \"#utility.yul\":804:883   */\n      tag_277\n      tag_196\n      jump\t// in\n    tag_277:\n        /* \"#utility.yul\":766:885   */\n    tag_276:\n        /* \"#utility.yul\":924:925   */\n      0x00\n        /* \"#utility.yul\":949:1002   */\n      tag_278\n        /* \"#utility.yul\":994:1001   */\n      dup5\n        /* \"#utility.yul\":985:991   */\n      dup3\n        /* \"#utility.yul\":974:983   */\n      dup6\n        /* \"#utility.yul\":970:992   */\n      add\n        /* \"#utility.yul\":949:1002   */\n      tag_200\n      jump\t// in\n    tag_278:\n        /* \"#utility.yul\":939:1002   */\n      swap2\n      pop\n        /* \"#utility.yul\":895:1012   */\n      pop\n        /* \"#utility.yul\":690:1019   */\n      swap3\n      swap2\n      pop\n      pop\n      jump\t// out\n        /* \"#utility.yul\":1025:1143   */\n    tag_201:\n        /* \"#utility.yul\":1112:1136   */\n      tag_280\n        /* \"#utility.yul\":1130:1135   */\n      dup2\n        /* \"#utility.yul\":1112:1136   */\n      tag_198\n      jump\t// in\n    tag_280:\n        /* \"#utility.yul\":1107:1110   */\n      dup3\n        /* \"#utility.yul\":1100:1137   */\n      mstore\n        /* \"#utility.yul\":1025:1143   */\n      pop\n      pop\n      jump\t// out\n        /* \"#utility.yul\":1149:1371   */\n    tag_28:\n        /* \"#utility.yul\":1242:1246   */\n      0x00\n        /* \"#utility.yul\":1280:1282   */\n      0x20\n        /* \"#utility.yul\":1269:1278   */\n      dup3\n        /* \"#utility.yul\":1265:1283   */\n      add\n        /* \"#utility.yul\":1257:1283   */\n      swap1\n      pop\n        /* \"#utility.yul\":1293:1364   */\n      tag_282\n        /* \"#utility.yul\":1361:1362   */\n      0x00\n        /* \"#utility.yul\":1350:1359   */\n      dup4\n        /* \"#utility.yul\":1346:1363   */\n      add\n        /* \"#utility.yul\":1337:1343   */\n      dup5\n        /* \"#utility.yul\":1293:1364   */\n      tag_201\n      jump\t// in\n    tag_282:\n        /* \"#utility.yul\":1149:1371   */\n      swap3\n      swap2\n      pop\n      pop\n      jump\t// out\n        /* \"#utility.yul\":1377:1494   */\n    tag_202:\n        /* \"#utility.yul\":1486:1487   */\n      0x00\n        /* \"#utility.yul\":1483:1484   */\n      dup1\n        /* \"#utility.yul\":1476:1488   */\n      revert\n        /* \"#utility.yul\":1500:1617   */\n    tag_203:\n        /* \"#utility.yul\":1609:1610   */\n      0x00\n        /* \"#utility.yul\":1606:1607   */\n      dup1\n        /* \"#utility.yul\":1599:1611   */\n      revert\n        /* \"#utility.yul\":1623:1725   */\n    tag_204:\n        /* \"#utility.yul\":1664:1670   */\n      0x00\n        /* \"#utility.yul\":1715:1717   */\n      0x1f\n        /* \"#utility.yul\":1711:1718   */\n      not\n        /* \"#utility.yul\":1706:1708   */\n      0x1f\n        /* \"#utility.yul\":1699:1704   */\n      dup4\n        /* \"#utility.yul\":1695:1709   */\n      add\n        /* \"#utility.yul\":1691:1719   */\n      and\n        /* \"#utility.yul\":1681:1719   */\n      swap1\n      pop\n        /* \"#utility.yul\":1623:1725   */\n      swap2\n      swap1\n      pop\n      jump\t// out\n        /* \"#utility.yul\":1731:1911   */\n    tag_205:\n        /* \"#utility.yul\":1779:1856   */\n      0x4e487b7100000000000000000000000000000000000000000000000000000000\n        /* \"#utility.yul\":1776:1777   */\n      0x00\n        /* \"#utility.yul\":1769:1857   */\n      mstore\n        /* \"#utility.yul\":1876:1880   */\n      0x41\n        /* \"#utility.yul\":1873:1874   */\n      0x04\n        /* \"#utility.yul\":1866:1881   */\n      mstore\n        /* \"#utility.yul\":1900:1904   */\n      0x24\n        /* \"#utility.yul\":1897:1898   */\n      0x00\n        /* \"#utility.yul\":1890:1905   */\n      revert\n        /* \"#utility.yul\":1917:2198   */\n    tag_206:\n        /* \"#utility.yul\":2000:2027   */\n      tag_288\n        /* \"#utility.yul\":2022:2026   */\n      dup3\n        /* \"#utility.yul\":2000:2027   */\n      tag_204\n      jump\t// in\n    tag_288:\n        /* \"#utility.yul\":1992:1998   */\n      dup2\n        /* \"#utility.yul\":1988:2028   */\n      add\n        /* \"#utility.yul\":2130:2136   */\n      dup2\n        /* \"#utility.yul\":2118:2128   */\n      dup2\n        /* \"#utility.yul\":2115:2137   */\n      lt\n        /* \"#utility.yul\":2094:2112   */\n      0xffffffffffffffff\n        /* \"#utility.yul\":2082:2092   */\n      dup3\n        /* \"#utility.yul\":2079:2113   */\n      gt\n        /* \"#utility.yul\":2076:2138   */\n      or\n        /* \"#utility.yul\":2073:2161   */\n      iszero\n      tag_289\n      jumpi\n        /* \"#utility.yul\":2141:2159   */\n      tag_290\n      tag_205\n      jump\t// in\n    tag_290:\n        /* \"#utility.yul\":2073:2161   */\n    tag_289:\n        /* \"#utility.yul\":2181:2191   */\n      dup1\n        /* \"#utility.yul\":2177:2179   */\n      0x40\n        /* \"#utility.yul\":2170:2192   */\n      mstore\n        /* \"#utility.yul\":1960:2198   */\n      pop\n        /* \"#utility.yul\":1917:2198   */\n      pop\n      pop\n      jump\t// out\n        /* \"#utility.yul\":2204:2333   */\n    tag_207:\n        /* \"#utility.yul\":2238:2244   */\n      0x00\n        /* \"#utility.yul\":2265:2285   */\n      tag_292\n      tag_195\n      jump\t// in\n    tag_292:\n        /* \"#utility.yul\":2255:2285   */\n      swap1\n      pop\n        /* \"#utility.yul\":2294:2327   */\n      tag_293\n        /* \"#utility.yul\":2322:2326   */\n      dup3\n        /* \"#utility.yul\":2314:2320   */\n      dup3\n        /* \"#utility.yul\":2294:2327   */\n      tag_206\n      jump\t// in\n    tag_293:\n        /* \"#utility.yul\":2204:2333   */\n      swap2\n      swap1\n      pop\n      jump\t// out\n        /* \"#utility.yul\":2339:2647   */\n    tag_208:\n        /* \"#utility.yul\":2401:2405   */\n      0x00\n        /* \"#utility.yul\":2491:2509   */\n      0xffffffffffffffff\n        /* \"#utility.yul\":2483:2489   */\n      dup3\n        /* \"#utility.yul\":2480:2510   */\n      gt\n        /* \"#utility.yul\":2477:2533   */\n      iszero\n      tag_295\n      jumpi\n        /* \"#utility.yul\":2513:2531   */\n      tag_296\n      tag_205\n      jump\t// in\n    tag_296:\n        /* \"#utility.yul\":2477:2533   */\n    tag_295:\n        /* \"#utility.yul\":2551:2580   */\n      tag_297\n        /* \"#utility.yul\":2573:2579   */\n      dup3\n        /* \"#utility.yul\":2551:2580   */\n      tag_204\n      jump\t// in\n    tag_297:\n        /* \"#utility.yul\":2543:2580   */\n      swap1\n      pop\n        /* \"#utility.yul\":2635:2639   */\n      0x20\n        /* \"#utility.yul\":2629:2633   */\n      dup2\n        /* \"#utility.yul\":2625:2640   */\n      add\n        /* \"#utility.yul\":2617:2640   */\n      swap1\n      pop\n        /* \"#utility.yul\":2339:2647   */\n      swap2\n      swap1\n      pop\n      jump\t// out\n        /* \"#utility.yul\":2653:2799   */\n    tag_209:\n        /* \"#utility.yul\":2750:2756   */\n      dup3\n        /* \"#utility.yul\":2745:2748   */\n      dup2\n        /* \"#utility.yul\":2740:2743   */\n      dup4\n        /* \"#utility.yul\":2727:2757   */\n      calldatacopy\n        /* \"#utility.yul\":2791:2792   */\n      0x00\n        /* \"#utility.yul\":2782:2788   */\n      dup4\n        /* \"#utility.yul\":2777:2780   */\n      dup4\n        /* \"#utility.yul\":2773:2789   */\n      add\n        /* \"#utility.yul\":2766:2793   */\n      mstore\n        /* \"#utility.yul\":2653:2799   */\n      pop\n      pop\n      pop\n      jump\t// out\n        /* \"#utility.yul\":2805:3230   */\n    tag_210:\n        /* \"#utility.yul\":2883:2888   */\n      0x00\n        /* \"#utility.yul\":2908:2974   */\n      tag_300\n        /* \"#utility.yul\":2924:2973   */\n      tag_301\n        /* \"#utility.yul\":2966:2972   */\n      dup5\n        /* \"#utility.yul\":2924:2973   */\n      tag_208\n      jump\t// in\n    tag_301:\n        /* \"#utility.yul\":2908:2974   */\n      tag_207\n      jump\t// in\n    tag_300:\n        /* \"#utility.yul\":2899:2974   */\n      swap1\n      pop\n        /* \"#utility.yul\":2997:3003   */\n      dup3\n        /* \"#utility.yul\":2990:2995   */\n      dup2\n        /* \"#utility.yul\":2983:3004   */\n      mstore\n        /* \"#utility.yul\":3035:3039   */\n      0x20\n        /* \"#utility.yul\":3028:3033   */\n      dup2\n        /* \"#utility.yul\":3024:3040   */\n      add\n        /* \"#utility.yul\":3073:3076   */\n      dup5\n        /* \"#utility.yul\":3064:3070   */\n      dup5\n        /* \"#utility.yul\":3059:3062   */\n      dup5\n        /* \"#utility.yul\":3055:3071   */\n      add\n        /* \"#utility.yul\":3052:3077   */\n      gt\n        /* \"#utility.yul\":3049:3161   */\n      iszero\n      tag_302\n      jumpi\n        /* \"#utility.yul\":3080:3159   */\n      tag_303\n      tag_203\n      jump\t// in\n    tag_303:\n        /* \"#utility.yul\":3049:3161   */\n    tag_302:\n        /* \"#utility.yul\":3170:3224   */\n      tag_304\n        /* \"#utility.yul\":3217:3223   */\n      dup5\n        /* \"#utility.yul\":3212:3215   */\n      dup3\n        /* \"#utility.yul\":3207:3210   */\n      dup6\n        /* \"#utility.yul\":3170:3224   */\n      tag_209\n      jump\t// in\n    tag_304:\n        /* \"#utility.yul\":2889:3230   */\n      pop\n        /* \"#utility.yul\":2805:3230   */\n      swap4\n      swap3\n      pop\n      pop\n      pop\n      jump\t// out\n        /* \"#utility.yul\":3250:3590   */\n    tag_211:\n        /* \"#utility.yul\":3306:3311   */\n      0x00\n        /* \"#utility.yul\":3355:3358   */\n      dup3\n        /* \"#utility.yul\":3348:3352   */\n      0x1f\n        /* \"#utility.yul\":3340:3346   */\n      dup4\n        /* \"#utility.yul\":3336:3353   */\n      add\n        /* \"#utility.yul\":3332:3359   */\n      slt\n        /* \"#utility.yul\":3322:3444   */\n      tag_306\n      jumpi\n        /* \"#utility.yul\":3363:3442   */\n      tag_307\n      tag_202\n      jump\t// in\n    tag_307:\n        /* \"#utility.yul\":3322:3444   */\n    tag_306:\n        /* \"#utility.yul\":3480:3486   */\n      dup2\n        /* \"#utility.yul\":3467:3487   */\n      calldataload\n        /* \"#utility.yul\":3505:3584   */\n      tag_308\n        /* \"#utility.yul\":3580:3583   */\n      dup5\n        /* \"#utility.yul\":3572:3578   */\n      dup3\n        /* \"#utility.yul\":3565:3569   */\n      0x20\n        /* \"#utility.yul\":3557:3563   */\n      dup7\n        /* \"#utility.yul\":3553:3570   */\n      add\n        /* \"#utility.yul\":3505:3584   */\n      tag_210\n      jump\t// in\n    tag_308:\n        /* \"#utility.yul\":3496:3584   */\n      swap2\n      pop\n        /* \"#utility.yul\":3312:3590   */\n      pop\n        /* \"#utility.yul\":3250:3590   */\n      swap3\n      swap2\n      pop\n      pop\n      jump\t// out\n        /* \"#utility.yul\":3596:4105   */\n    tag_32:\n        /* \"#utility.yul\":3665:3671   */\n      0x00\n        /* \"#utility.yul\":3714:3716   */\n      0x20\n        /* \"#utility.yul\":3702:3711   */\n      dup3\n        /* \"#utility.yul\":3693:3700   */\n      dup5\n        /* \"#utility.yul\":3689:3712   */\n      sub\n        /* \"#utility.yul\":3685:3717   */\n      slt\n        /* \"#utility.yul\":3682:3801   */\n      iszero\n      tag_310\n      jumpi\n        /* \"#utility.yul\":3720:3799   */\n      tag_311\n      tag_196\n      jump\t// in\n    tag_311:\n        /* \"#utility.yul\":3682:3801   */\n    tag_310:\n        /* \"#utility.yul\":3868:3869   */\n      0x00\n        /* \"#utility.yul\":3857:3866   */\n      dup3\n        /* \"#utility.yul\":3853:3870   */\n      add\n        /* \"#utility.yul\":3840:3871   */\n      calldataload\n        /* \"#utility.yul\":3898:3916   */\n      0xffffffffffffffff\n        /* \"#utility.yul\":3890:3896   */\n      dup2\n        /* \"#utility.yul\":3887:3917   */\n      gt\n        /* \"#utility.yul\":3884:4001   */\n      iszero\n      tag_312\n      jumpi\n        /* \"#utility.yul\":3920:3999   */\n      tag_313\n      tag_197\n      jump\t// in\n    tag_313:\n        /* \"#utility.yul\":3884:4001   */\n    tag_312:\n        /* \"#utility.yul\":4025:4088   */\n      tag_314\n        /* \"#utility.yul\":4080:4087   */\n      dup5\n        /* \"#utility.yul\":4071:4077   */\n      dup3\n        /* \"#utility.yul\":4060:4069   */\n      dup6\n        /* \"#utility.yul\":4056:4078   */\n      add\n        /* \"#utility.yul\":4025:4088   */\n      tag_211\n      jump\t// in\n    tag_314:\n        /* \"#utility.yul\":4015:4088   */\n      swap2\n      pop\n        /* \"#utility.yul\":3811:4098   */\n      pop\n        /* \"#utility.yul\":3596:4105   */\n      swap3\n      swap2\n      pop\n      pop\n      jump\t// out\n        /* \"#utility.yul\":4111:4237   */\n    tag_212:\n        /* \"#utility.yul\":4148:4155   */\n      0x00\n        /* \"#utility.yul\":4188:4230   */\n      0xffffffffffffffffffffffffffffffffffffffff\n        /* \"#utility.yul\":4181:4186   */\n      dup3\n        /* \"#utility.yul\":4177:4231   */\n      and\n        /* \"#utility.yul\":4166:4231   */\n      swap1\n      pop\n        /* \"#utility.yul\":4111:4237   */\n      swap2\n      swap1\n      pop\n      jump\t// out\n        /* \"#utility.yul\":4243:4347   */\n    tag_213:\n        /* \"#utility.yul\":4288:4295   */\n      0x00\n        /* \"#utility.yul\":4317:4341   */\n      tag_317\n        /* \"#utility.yul\":4335:4340   */\n      dup3\n        /* \"#utility.yul\":4317:4341   */\n      tag_212\n      jump\t// in\n    tag_317:\n        /* \"#utility.yul\":4306:4341   */\n      swap1\n      pop\n        /* \"#utility.yul\":4243:4347   */\n      swap2\n      swap1\n      pop\n      jump\t// out\n        /* \"#utility.yul\":4353:4495   */\n    tag_214:\n        /* \"#utility.yul\":4456:4488   */\n      tag_319\n        /* \"#utility.yul\":4482:4487   */\n      dup2\n        /* \"#utility.yul\":4456:4488   */\n      tag_213\n      jump\t// in\n    tag_319:\n        /* \"#utility.yul\":4451:4454   */\n      dup3\n        /* \"#utility.yul\":4444:4489   */\n      mstore\n        /* \"#utility.yul\":4353:4495   */\n      pop\n      pop\n      jump\t// out\n        /* \"#utility.yul\":4501:4755   */\n    tag_38:\n        /* \"#utility.yul\":4610:4614   */\n      0x00\n        /* \"#utility.yul\":4648:4650   */\n      0x20\n        /* \"#utility.yul\":4637:4646   */\n      dup3\n        /* \"#utility.yul\":4633:4651   */\n      add\n        /* \"#utility.yul\":4625:4651   */\n      swap1\n      pop\n        /* \"#utility.yul\":4661:4748   */\n      tag_321\n        /* \"#utility.yul\":4745:4746   */\n      0x00\n        /* \"#utility.yul\":4734:4743   */\n      dup4\n        /* \"#utility.yul\":4730:4747   */\n      add\n        /* \"#utility.yul\":4721:4727   */\n      dup5\n        /* \"#utility.yul\":4661:4748   */\n      tag_214\n      jump\t// in\n    tag_321:\n        /* \"#utility.yul\":4501:4755   */\n      swap3\n      swap2\n      pop\n      pop\n      jump\t// out\n        /* \"#utility.yul\":4761:4857   */\n    tag_215:\n        /* \"#utility.yul\":4798:4805   */\n      0x00\n        /* \"#utility.yul\":4827:4851   */\n      tag_323\n        /* \"#utility.yul\":4845:4850   */\n      dup3\n        /* \"#utility.yul\":4827:4851   */\n      tag_212\n      jump\t// in\n    tag_323:\n        /* \"#utility.yul\":4816:4851   */\n      swap1\n      pop\n        /* \"#utility.yul\":4761:4857   */\n      swap2\n      swap1\n      pop\n      jump\t// out\n        /* \"#utility.yul\":4863:4985   */\n    tag_216:\n        /* \"#utility.yul\":4936:4960   */\n      tag_325\n        /* \"#utility.yul\":4954:4959   */\n      dup2\n        /* \"#utility.yul\":4936:4960   */\n      tag_215\n      jump\t// in\n    tag_325:\n        /* \"#utility.yul\":4929:4934   */\n      dup2\n        /* \"#utility.yul\":4926:4961   */\n      eq\n        /* \"#utility.yul\":4916:4979   */\n      tag_326\n      jumpi\n        /* \"#utility.yul\":4975:4976   */\n      0x00\n        /* \"#utility.yul\":4972:4973   */\n      dup1\n        /* \"#utility.yul\":4965:4977   */\n      revert\n        /* \"#utility.yul\":4916:4979   */\n    tag_326:\n        /* \"#utility.yul\":4863:4985   */\n      pop\n      jump\t// out\n        /* \"#utility.yul\":4991:5130   */\n    tag_217:\n        /* \"#utility.yul\":5037:5042   */\n      0x00\n        /* \"#utility.yul\":5075:5081   */\n      dup2\n        /* \"#utility.yul\":5062:5082   */\n      calldataload\n        /* \"#utility.yul\":5053:5082   */\n      swap1\n      pop\n        /* \"#utility.yul\":5091:5124   */\n      tag_328\n        /* \"#utility.yul\":5118:5123   */\n      dup2\n        /* \"#utility.yul\":5091:5124   */\n      tag_216\n      jump\t// in\n    tag_328:\n        /* \"#utility.yul\":4991:5130   */\n      swap3\n      swap2\n      pop\n      pop\n      jump\t// out\n        /* \"#utility.yul\":5136:5465   */\n    tag_46:\n        /* \"#utility.yul\":5195:5201   */\n      0x00\n        /* \"#utility.yul\":5244:5246   */\n      0x20\n        /* \"#utility.yul\":5232:5241   */\n      dup3\n        /* \"#utility.yul\":5223:5230   */\n      dup5\n        /* \"#utility.yul\":5219:5242   */\n      sub\n        /* \"#utility.yul\":5215:5247   */\n      slt\n        /* \"#utility.yul\":5212:5331   */\n      iszero\n      tag_330\n      jumpi\n        /* \"#utility.yul\":5250:5329   */\n      tag_331\n      tag_196\n      jump\t// in\n    tag_331:\n        /* \"#utility.yul\":5212:5331   */\n    tag_330:\n        /* \"#utility.yul\":5370:5371   */\n      0x00\n        /* \"#utility.yul\":5395:5448   */\n      tag_332\n        /* \"#utility.yul\":5440:5447   */\n      dup5\n        /* \"#utility.yul\":5431:5437   */\n      dup3\n        /* \"#utility.yul\":5420:5429   */\n      dup6\n        /* \"#utility.yul\":5416:5438   */\n      add\n        /* \"#utility.yul\":5395:5448   */\n      tag_217\n      jump\t// in\n    tag_332:\n        /* \"#utility.yul\":5385:5448   */\n      swap2\n      pop\n        /* \"#utility.yul\":5341:5458   */\n      pop\n        /* \"#utility.yul\":5136:5465   */\n      swap3\n      swap2\n      pop\n      pop\n      jump\t// out\n        /* \"#utility.yul\":5471:5595   */\n    tag_218:\n        /* \"#utility.yul\":5548:5554   */\n      0x00\n        /* \"#utility.yul\":5582:5587   */\n      dup2\n        /* \"#utility.yul\":5576:5588   */\n      mload\n        /* \"#utility.yul\":5566:5588   */\n      swap1\n      pop\n        /* \"#utility.yul\":5471:5595   */\n      swap2\n      swap1\n      pop\n      jump\t// out\n        /* \"#utility.yul\":5601:5795   */\n    tag_219:\n        /* \"#utility.yul\":5710:5721   */\n      0x00\n        /* \"#utility.yul\":5744:5750   */\n      dup3\n        /* \"#utility.yul\":5739:5742   */\n      dup3\n        /* \"#utility.yul\":5732:5751   */\n      mstore\n        /* \"#utility.yul\":5784:5788   */\n      0x20\n        /* \"#utility.yul\":5779:5782   */\n      dup3\n        /* \"#utility.yul\":5775:5789   */\n      add\n        /* \"#utility.yul\":5760:5789   */\n      swap1\n      pop\n        /* \"#utility.yul\":5601:5795   */\n      swap3\n      swap2\n      pop\n      pop\n      jump\t// out\n        /* \"#utility.yul\":5801:5943   */\n    tag_220:\n        /* \"#utility.yul\":5878:5882   */\n      0x00\n        /* \"#utility.yul\":5901:5904   */\n      dup2\n        /* \"#utility.yul\":5893:5904   */\n      swap1\n      pop\n        /* \"#utility.yul\":5931:5935   */\n      0x20\n        /* \"#utility.yul\":5926:5929   */\n      dup3\n        /* \"#utility.yul\":5922:5936   */\n      add\n        /* \"#utility.yul\":5914:5936   */\n      swap1\n      pop\n        /* \"#utility.yul\":5801:5943   */\n      swap2\n      swap1\n      pop\n      jump\t// out\n        /* \"#utility.yul\":5949:6048   */\n    tag_221:\n        /* \"#utility.yul\":6001:6007   */\n      0x00\n        /* \"#utility.yul\":6035:6040   */\n      dup2\n        /* \"#utility.yul\":6029:6041   */\n      mload\n        /* \"#utility.yul\":6019:6041   */\n      swap1\n      pop\n        /* \"#utility.yul\":5949:6048   */\n      swap2\n      swap1\n      pop\n      jump\t// out\n        /* \"#utility.yul\":6054:6213   */\n    tag_222:\n        /* \"#utility.yul\":6128:6139   */\n      0x00\n        /* \"#utility.yul\":6162:6168   */\n      dup3\n        /* \"#utility.yul\":6157:6160   */\n      dup3\n        /* \"#utility.yul\":6150:6169   */\n      mstore\n        /* \"#utility.yul\":6202:6206   */\n      0x20\n        /* \"#utility.yul\":6197:6200   */\n      dup3\n        /* \"#utility.yul\":6193:6207   */\n      add\n        /* \"#utility.yul\":6178:6207   */\n      swap1\n      pop\n        /* \"#utility.yul\":6054:6213   */\n      swap3\n      swap2\n      pop\n      pop\n      jump\t// out\n        /* \"#utility.yul\":6219:6465   */\n    tag_223:\n        /* \"#utility.yul\":6300:6301   */\n      0x00\n        /* \"#utility.yul\":6310:6423   */\n    tag_339:\n        /* \"#utility.yul\":6324:6330   */\n      dup4\n        /* \"#utility.yul\":6321:6322   */\n      dup2\n        /* \"#utility.yul\":6318:6331   */\n      lt\n        /* \"#utility.yul\":6310:6423   */\n      iszero\n      tag_341\n      jumpi\n        /* \"#utility.yul\":6409:6410   */\n      dup1\n        /* \"#utility.yul\":6404:6407   */\n      dup3\n        /* \"#utility.yul\":6400:6411   */\n      add\n        /* \"#utility.yul\":6394:6412   */\n      mload\n        /* \"#utility.yul\":6390:6391   */\n      dup2\n        /* \"#utility.yul\":6385:6388   */\n      dup5\n        /* \"#utility.yul\":6381:6392   */\n      add\n        /* \"#utility.yul\":6374:6413   */\n      mstore\n        /* \"#utility.yul\":6346:6348   */\n      0x20\n        /* \"#utility.yul\":6343:6344   */\n      dup2\n        /* \"#utility.yul\":6339:6349   */\n      add\n        /* \"#utility.yul\":6334:6349   */\n      swap1\n      pop\n        /* \"#utility.yul\":6310:6423   */\n      jump(tag_339)\n    tag_341:\n        /* \"#utility.yul\":6457:6458   */\n      0x00\n        /* \"#utility.yul\":6448:6454   */\n      dup5\n        /* \"#utility.yul\":6443:6446   */\n      dup5\n        /* \"#utility.yul\":6439:6455   */\n      add\n        /* \"#utility.yul\":6432:6459   */\n      mstore\n        /* \"#utility.yul\":6281:6465   */\n      pop\n        /* \"#utility.yul\":6219:6465   */\n      pop\n      pop\n      pop\n      jump\t// out\n        /* \"#utility.yul\":6471:6828   */\n    tag_224:\n        /* \"#utility.yul\":6549:6552   */\n      0x00\n        /* \"#utility.yul\":6577:6616   */\n      tag_343\n        /* \"#utility.yul\":6610:6615   */\n      dup3\n        /* \"#utility.yul\":6577:6616   */\n      tag_221\n      jump\t// in\n    tag_343:\n        /* \"#utility.yul\":6632:6693   */\n      tag_344\n        /* \"#utility.yul\":6686:6692   */\n      dup2\n        /* \"#utility.yul\":6681:6684   */\n      dup6\n        /* \"#utility.yul\":6632:6693   */\n      tag_222\n      jump\t// in\n    tag_344:\n        /* \"#utility.yul\":6625:6693   */\n      swap4\n      pop\n        /* \"#utility.yul\":6702:6767   */\n      tag_345\n        /* \"#utility.yul\":6760:6766   */\n      dup2\n        /* \"#utility.yul\":6755:6758   */\n      dup6\n        /* \"#utility.yul\":6748:6752   */\n      0x20\n        /* \"#utility.yul\":6741:6746   */\n      dup7\n        /* \"#utility.yul\":6737:6753   */\n      add\n        /* \"#utility.yul\":6702:6767   */\n      tag_223\n      jump\t// in\n    tag_345:\n        /* \"#utility.yul\":6792:6821   */\n      tag_346\n        /* \"#utility.yul\":6814:6820   */\n      dup2\n        /* \"#utility.yul\":6792:6821   */\n      tag_204\n      jump\t// in\n    tag_346:\n        /* \"#utility.yul\":6787:6790   */\n      dup5\n        /* \"#utility.yul\":6783:6822   */\n      add\n        /* \"#utility.yul\":6776:6822   */\n      swap2\n      pop\n        /* \"#utility.yul\":6553:6828   */\n      pop\n        /* \"#utility.yul\":6471:6828   */\n      swap3\n      swap2\n      pop\n      pop\n      jump\t// out\n        /* \"#utility.yul\":6834:7030   */\n    tag_225:\n        /* \"#utility.yul\":6923:6933   */\n      0x00\n        /* \"#utility.yul\":6958:7024   */\n      tag_348\n        /* \"#utility.yul\":7020:7023   */\n      dup4\n        /* \"#utility.yul\":7012:7018   */\n      dup4\n        /* \"#utility.yul\":6958:7024   */\n      tag_224\n      jump\t// in\n    tag_348:\n        /* \"#utility.yul\":6944:7024   */\n      swap1\n      pop\n        /* \"#utility.yul\":6834:7030   */\n      swap3\n      swap2\n      pop\n      pop\n      jump\t// out\n        /* \"#utility.yul\":7036:7159   */\n    tag_226:\n        /* \"#utility.yul\":7116:7120   */\n      0x00\n        /* \"#utility.yul\":7148:7152   */\n      0x20\n        /* \"#utility.yul\":7143:7146   */\n      dup3\n        /* \"#utility.yul\":7139:7153   */\n      add\n        /* \"#utility.yul\":7131:7153   */\n      swap1\n      pop\n        /* \"#utility.yul\":7036:7159   */\n      swap2\n      swap1\n      pop\n      jump\t// out\n        /* \"#utility.yul\":7193:8184   */\n    tag_227:\n        /* \"#utility.yul\":7332:7335   */\n      0x00\n        /* \"#utility.yul\":7361:7425   */\n      tag_351\n        /* \"#utility.yul\":7419:7424   */\n      dup3\n        /* \"#utility.yul\":7361:7425   */\n      tag_218\n      jump\t// in\n    tag_351:\n        /* \"#utility.yul\":7441:7537   */\n      tag_352\n        /* \"#utility.yul\":7530:7536   */\n      dup2\n        /* \"#utility.yul\":7525:7528   */\n      dup6\n        /* \"#utility.yul\":7441:7537   */\n      tag_219\n      jump\t// in\n    tag_352:\n        /* \"#utility.yul\":7434:7537   */\n      swap4\n      pop\n        /* \"#utility.yul\":7563:7566   */\n      dup4\n        /* \"#utility.yul\":7608:7612   */\n      0x20\n        /* \"#utility.yul\":7600:7606   */\n      dup3\n        /* \"#utility.yul\":7596:7613   */\n      mul\n        /* \"#utility.yul\":7591:7594   */\n      dup6\n        /* \"#utility.yul\":7587:7614   */\n      add\n        /* \"#utility.yul\":7638:7704   */\n      tag_353\n        /* \"#utility.yul\":7698:7703   */\n      dup6\n        /* \"#utility.yul\":7638:7704   */\n      tag_220\n      jump\t// in\n    tag_353:\n        /* \"#utility.yul\":7727:7734   */\n      dup1\n        /* \"#utility.yul\":7758:7759   */\n      0x00\n        /* \"#utility.yul\":7743:8139   */\n    tag_354:\n        /* \"#utility.yul\":7768:7774   */\n      dup6\n        /* \"#utility.yul\":7765:7766   */\n      dup2\n        /* \"#utility.yul\":7762:7775   */\n      lt\n        /* \"#utility.yul\":7743:8139   */\n      iszero\n      tag_356\n      jumpi\n        /* \"#utility.yul\":7839:7848   */\n      dup5\n        /* \"#utility.yul\":7833:7837   */\n      dup5\n        /* \"#utility.yul\":7829:7849   */\n      sub\n        /* \"#utility.yul\":7824:7827   */\n      dup10\n        /* \"#utility.yul\":7817:7850   */\n      mstore\n        /* \"#utility.yul\":7890:7896   */\n      dup2\n        /* \"#utility.yul\":7884:7897   */\n      mload\n        /* \"#utility.yul\":7918:8002   */\n      tag_357\n        /* \"#utility.yul\":7997:8001   */\n      dup6\n        /* \"#utility.yul\":7982:7995   */\n      dup3\n        /* \"#utility.yul\":7918:8002   */\n      tag_225\n      jump\t// in\n    tag_357:\n        /* \"#utility.yul\":7910:8002   */\n      swap5\n      pop\n        /* \"#utility.yul\":8025:8095   */\n      tag_358\n        /* \"#utility.yul\":8088:8094   */\n      dup4\n        /* \"#utility.yul\":8025:8095   */\n      tag_226\n      jump\t// in\n    tag_358:\n        /* \"#utility.yul\":8015:8095   */\n      swap3\n      pop\n        /* \"#utility.yul\":8124:8128   */\n      0x20\n        /* \"#utility.yul\":8119:8122   */\n      dup11\n        /* \"#utility.yul\":8115:8129   */\n      add\n        /* \"#utility.yul\":8108:8129   */\n      swap10\n      pop\n        /* \"#utility.yul\":7803:8139   */\n      pop\n        /* \"#utility.yul\":7790:7791   */\n      0x01\n        /* \"#utility.yul\":7787:7788   */\n      dup2\n        /* \"#utility.yul\":7783:7792   */\n      add\n        /* \"#utility.yul\":7778:7792   */\n      swap1\n      pop\n        /* \"#utility.yul\":7743:8139   */\n      jump(tag_354)\n    tag_356:\n        /* \"#utility.yul\":7747:7761   */\n      pop\n        /* \"#utility.yul\":8155:8159   */\n      dup3\n        /* \"#utility.yul\":8148:8159   */\n      swap8\n      pop\n        /* \"#utility.yul\":8175:8178   */\n      dup8\n        /* \"#utility.yul\":8168:8178   */\n      swap6\n      pop\n        /* \"#utility.yul\":7337:8184   */\n      pop\n      pop\n      pop\n      pop\n      pop\n        /* \"#utility.yul\":7193:8184   */\n      swap3\n      swap2\n      pop\n      pop\n      jump\t// out\n        /* \"#utility.yul\":8190:8603   */\n    tag_53:\n        /* \"#utility.yul\":8353:8357   */\n      0x00\n        /* \"#utility.yul\":8391:8393   */\n      0x20\n        /* \"#utility.yul\":8380:8389   */\n      dup3\n        /* \"#utility.yul\":8376:8394   */\n      add\n        /* \"#utility.yul\":8368:8394   */\n      swap1\n      pop\n        /* \"#utility.yul\":8440:8449   */\n      dup2\n        /* \"#utility.yul\":8434:8438   */\n      dup2\n        /* \"#utility.yul\":8430:8450   */\n      sub\n        /* \"#utility.yul\":8426:8427   */\n      0x00\n        /* \"#utility.yul\":8415:8424   */\n      dup4\n        /* \"#utility.yul\":8411:8428   */\n      add\n        /* \"#utility.yul\":8404:8451   */\n      mstore\n        /* \"#utility.yul\":8468:8596   */\n      tag_360\n        /* \"#utility.yul\":8591:8595   */\n      dup2\n        /* \"#utility.yul\":8582:8588   */\n      dup5\n        /* \"#utility.yul\":8468:8596   */\n      tag_227\n      jump\t// in\n    tag_360:\n        /* \"#utility.yul\":8460:8596   */\n      swap1\n      pop\n        /* \"#utility.yul\":8190:8603   */\n      swap3\n      swap2\n      pop\n      pop\n      jump\t// out\n        /* \"#utility.yul\":8609:8778   */\n    tag_228:\n        /* \"#utility.yul\":8693:8704   */\n      0x00\n        /* \"#utility.yul\":8727:8733   */\n      dup3\n        /* \"#utility.yul\":8722:8725   */\n      dup3\n        /* \"#utility.yul\":8715:8734   */\n      mstore\n        /* \"#utility.yul\":8767:8771   */\n      0x20\n        /* \"#utility.yul\":8762:8765   */\n      dup3\n        /* \"#utility.yul\":8758:8772   */\n      add\n        /* \"#utility.yul\":8743:8772   */\n      swap1\n      pop\n        /* \"#utility.yul\":8609:8778   */\n      swap3\n      swap2\n      pop\n      pop\n      jump\t// out\n        /* \"#utility.yul\":8784:9161   */\n    tag_229:\n        /* \"#utility.yul\":8872:8875   */\n      0x00\n        /* \"#utility.yul\":8900:8939   */\n      tag_363\n        /* \"#utility.yul\":8933:8938   */\n      dup3\n        /* \"#utility.yul\":8900:8939   */\n      tag_221\n      jump\t// in\n    tag_363:\n        /* \"#utility.yul\":8955:9026   */\n      tag_364\n        /* \"#utility.yul\":9019:9025   */\n      dup2\n        /* \"#utility.yul\":9014:9017   */\n      dup6\n        /* \"#utility.yul\":8955:9026   */\n      tag_228\n      jump\t// in\n    tag_364:\n        /* \"#utility.yul\":8948:9026   */\n      swap4\n      pop\n        /* \"#utility.yul\":9035:9100   */\n      tag_365\n        /* \"#utility.yul\":9093:9099   */\n      dup2\n        /* \"#utility.yul\":9088:9091   */\n      dup6\n        /* \"#utility.yul\":9081:9085   */\n      0x20\n        /* \"#utility.yul\":9074:9079   */\n      dup7\n        /* \"#utility.yul\":9070:9086   */\n      add\n        /* \"#utility.yul\":9035:9100   */\n      tag_223\n      jump\t// in\n    tag_365:\n        /* \"#utility.yul\":9125:9154   */\n      tag_366\n        /* \"#utility.yul\":9147:9153   */\n      dup2\n        /* \"#utility.yul\":9125:9154   */\n      tag_204\n      jump\t// in\n    tag_366:\n        /* \"#utility.yul\":9120:9123   */\n      dup5\n        /* \"#utility.yul\":9116:9155   */\n      add\n        /* \"#utility.yul\":9109:9155   */\n      swap2\n      pop\n        /* \"#utility.yul\":8876:9161   */\n      pop\n        /* \"#utility.yul\":8784:9161   */\n      swap3\n      swap2\n      pop\n      pop\n      jump\t// out\n        /* \"#utility.yul\":9167:9257   */\n    tag_230:\n        /* \"#utility.yul\":9201:9208   */\n      0x00\n        /* \"#utility.yul\":9244:9249   */\n      dup2\n        /* \"#utility.yul\":9237:9250   */\n      iszero\n        /* \"#utility.yul\":9230:9251   */\n      iszero\n        /* \"#utility.yul\":9219:9251   */\n      swap1\n      pop\n        /* \"#utility.yul\":9167:9257   */\n      swap2\n      swap1\n      pop\n      jump\t// out\n        /* \"#utility.yul\":9263:9372   */\n    tag_231:\n        /* \"#utility.yul\":9344:9365   */\n      tag_369\n        /* \"#utility.yul\":9359:9364   */\n      dup2\n        /* \"#utility.yul\":9344:9365   */\n      tag_230\n      jump\t// in\n    tag_369:\n        /* \"#utility.yul\":9339:9342   */\n      dup3\n        /* \"#utility.yul\":9332:9366   */\n      mstore\n        /* \"#utility.yul\":9263:9372   */\n      pop\n      pop\n      jump\t// out\n        /* \"#utility.yul\":9378:9899   */\n    tag_67:\n        /* \"#utility.yul\":9541:9545   */\n      0x00\n        /* \"#utility.yul\":9579:9581   */\n      0x60\n        /* \"#utility.yul\":9568:9577   */\n      dup3\n        /* \"#utility.yul\":9564:9582   */\n      add\n        /* \"#utility.yul\":9556:9582   */\n      swap1\n      pop\n        /* \"#utility.yul\":9628:9637   */\n      dup2\n        /* \"#utility.yul\":9622:9626   */\n      dup2\n        /* \"#utility.yul\":9618:9638   */\n      sub\n        /* \"#utility.yul\":9614:9615   */\n      0x00\n        /* \"#utility.yul\":9603:9612   */\n      dup4\n        /* \"#utility.yul\":9599:9616   */\n      add\n        /* \"#utility.yul\":9592:9639   */\n      mstore\n        /* \"#utility.yul\":9656:9734   */\n      tag_371\n        /* \"#utility.yul\":9729:9733   */\n      dup2\n        /* \"#utility.yul\":9720:9726   */\n      dup7\n        /* \"#utility.yul\":9656:9734   */\n      tag_229\n      jump\t// in\n    tag_371:\n        /* \"#utility.yul\":9648:9734   */\n      swap1\n      pop\n        /* \"#utility.yul\":9744:9816   */\n      tag_372\n        /* \"#utility.yul\":9812:9814   */\n      0x20\n        /* \"#utility.yul\":9801:9810   */\n      dup4\n        /* \"#utility.yul\":9797:9815   */\n      add\n        /* \"#utility.yul\":9788:9794   */\n      dup6\n        /* \"#utility.yul\":9744:9816   */\n      tag_201\n      jump\t// in\n    tag_372:\n        /* \"#utility.yul\":9826:9892   */\n      tag_373\n        /* \"#utility.yul\":9888:9890   */\n      0x40\n        /* \"#utility.yul\":9877:9886   */\n      dup4\n        /* \"#utility.yul\":9873:9891   */\n      add\n        /* \"#utility.yul\":9864:9870   */\n      dup5\n        /* \"#utility.yul\":9826:9892   */\n      tag_231\n      jump\t// in\n    tag_373:\n        /* \"#utility.yul\":9378:9899   */\n      swap5\n      swap4\n      pop\n      pop\n      pop\n      pop\n      jump\t// out\n        /* \"#utility.yul\":9905:10559   */\n    tag_75:\n        /* \"#utility.yul\":9983:9989   */\n      0x00\n        /* \"#utility.yul\":9991:9997   */\n      dup1\n        /* \"#utility.yul\":10040:10042   */\n      0x40\n        /* \"#utility.yul\":10028:10037   */\n      dup4\n        /* \"#utility.yul\":10019:10026   */\n      dup6\n        /* \"#utility.yul\":10015:10038   */\n      sub\n        /* \"#utility.yul\":10011:10043   */\n      slt\n        /* \"#utility.yul\":10008:10127   */\n      iszero\n      tag_375\n      jumpi\n        /* \"#utility.yul\":10046:10125   */\n      tag_376\n      tag_196\n      jump\t// in\n    tag_376:\n        /* \"#utility.yul\":10008:10127   */\n    tag_375:\n        /* \"#utility.yul\":10194:10195   */\n      0x00\n        /* \"#utility.yul\":10183:10192   */\n      dup4\n        /* \"#utility.yul\":10179:10196   */\n      add\n        /* \"#utility.yul\":10166:10197   */\n      calldataload\n        /* \"#utility.yul\":10224:10242   */\n      0xffffffffffffffff\n        /* \"#utility.yul\":10216:10222   */\n      dup2\n        /* \"#utility.yul\":10213:10243   */\n      gt\n        /* \"#utility.yul\":10210:10327   */\n      iszero\n      tag_377\n      jumpi\n        /* \"#utility.yul\":10246:10325   */\n      tag_378\n      tag_197\n      jump\t// in\n    tag_378:\n        /* \"#utility.yul\":10210:10327   */\n    tag_377:\n        /* \"#utility.yul\":10351:10414   */\n      tag_379\n        /* \"#utility.yul\":10406:10413   */\n      dup6\n        /* \"#utility.yul\":10397:10403   */\n      dup3\n        /* \"#utility.yul\":10386:10395   */\n      dup7\n        /* \"#utility.yul\":10382:10404   */\n      add\n        /* \"#utility.yul\":10351:10414   */\n      tag_211\n      jump\t// in\n    tag_379:\n        /* \"#utility.yul\":10341:10414   */\n      swap3\n      pop\n        /* \"#utility.yul\":10137:10424   */\n      pop\n        /* \"#utility.yul\":10463:10465   */\n      0x20\n        /* \"#utility.yul\":10489:10542   */\n      tag_380\n        /* \"#utility.yul\":10534:10541   */\n      dup6\n        /* \"#utility.yul\":10525:10531   */\n      dup3\n        /* \"#utility.yul\":10514:10523   */\n      dup7\n        /* \"#utility.yul\":10510:10532   */\n      add\n        /* \"#utility.yul\":10489:10542   */\n      tag_200\n      jump\t// in\n    tag_380:\n        /* \"#utility.yul\":10479:10542   */\n      swap2\n      pop\n        /* \"#utility.yul\":10434:10552   */\n      pop\n        /* \"#utility.yul\":9905:10559   */\n      swap3\n      pop\n      swap3\n      swap1\n      pop\n      jump\t// out\n        /* \"#utility.yul\":10565:10734   */\n    tag_232:\n        /* \"#utility.yul\":10705:10726   */\n      0x496e73756666696369656e7420616d6f756e7400000000000000000000000000\n        /* \"#utility.yul\":10701:10702   */\n      0x00\n        /* \"#utility.yul\":10693:10699   */\n      dup3\n        /* \"#utility.yul\":10689:10703   */\n      add\n        /* \"#utility.yul\":10682:10727   */\n      mstore\n        /* \"#utility.yul\":10565:10734   */\n      pop\n      jump\t// out\n        /* \"#utility.yul\":10740:11106   */\n    tag_233:\n        /* \"#utility.yul\":10882:10885   */\n      0x00\n        /* \"#utility.yul\":10903:10970   */\n      tag_383\n        /* \"#utility.yul\":10967:10969   */\n      0x13\n        /* \"#utility.yul\":10962:10965   */\n      dup4\n        /* \"#utility.yul\":10903:10970   */\n      tag_228\n      jump\t// in\n    tag_383:\n        /* \"#utility.yul\":10896:10970   */\n      swap2\n      pop\n        /* \"#utility.yul\":10979:11072   */\n      tag_384\n        /* \"#utility.yul\":11068:11071   */\n      dup3\n        /* \"#utility.yul\":10979:11072   */\n      tag_232\n      jump\t// in\n    tag_384:\n        /* \"#utility.yul\":11097:11099   */\n      0x20\n        /* \"#utility.yul\":11092:11095   */\n      dup3\n        /* \"#utility.yul\":11088:11100   */\n      add\n        /* \"#utility.yul\":11081:11100   */\n      swap1\n      pop\n        /* \"#utility.yul\":10740:11106   */\n      swap2\n      swap1\n      pop\n      jump\t// out\n        /* \"#utility.yul\":11112:11531   */\n    tag_82:\n        /* \"#utility.yul\":11278:11282   */\n      0x00\n        /* \"#utility.yul\":11316:11318   */\n      0x20\n        /* \"#utility.yul\":11305:11314   */\n      dup3\n        /* \"#utility.yul\":11301:11319   */\n      add\n        /* \"#utility.yul\":11293:11319   */\n      swap1\n      pop\n        /* \"#utility.yul\":11365:11374   */\n      dup2\n        /* \"#utility.yul\":11359:11363   */\n      dup2\n        /* \"#utility.yul\":11355:11375   */\n      sub\n        /* \"#utility.yul\":11351:11352   */\n      0x00\n        /* \"#utility.yul\":11340:11349   */\n      dup4\n        /* \"#utility.yul\":11336:11353   */\n      add\n        /* \"#utility.yul\":11329:11376   */\n      mstore\n        /* \"#utility.yul\":11393:11524   */\n      tag_386\n        /* \"#utility.yul\":11519:11523   */\n      dup2\n        /* \"#utility.yul\":11393:11524   */\n      tag_233\n      jump\t// in\n    tag_386:\n        /* \"#utility.yul\":11385:11524   */\n      swap1\n      pop\n        /* \"#utility.yul\":11112:11531   */\n      swap2\n      swap1\n      pop\n      jump\t// out\n        /* \"#utility.yul\":11537:11717   */\n    tag_234:\n        /* \"#utility.yul\":11585:11662   */\n      0x4e487b7100000000000000000000000000000000000000000000000000000000\n        /* \"#utility.yul\":11582:11583   */\n      0x00\n        /* \"#utility.yul\":11575:11663   */\n      mstore\n        /* \"#utility.yul\":11682:11686   */\n      0x11\n        /* \"#utility.yul\":11679:11680   */\n      0x04\n        /* \"#utility.yul\":11672:11687   */\n      mstore\n        /* \"#utility.yul\":11706:11710   */\n      0x24\n        /* \"#utility.yul\":11703:11704   */\n      0x00\n        /* \"#utility.yul\":11696:11711   */\n      revert\n        /* \"#utility.yul\":11723:11917   */\n    tag_84:\n        /* \"#utility.yul\":11763:11767   */\n      0x00\n        /* \"#utility.yul\":11783:11803   */\n      tag_389\n        /* \"#utility.yul\":11801:11802   */\n      dup3\n        /* \"#utility.yul\":11783:11803   */\n      tag_198\n      jump\t// in\n    tag_389:\n        /* \"#utility.yul\":11778:11803   */\n      swap2\n      pop\n        /* \"#utility.yul\":11817:11837   */\n      tag_390\n        /* \"#utility.yul\":11835:11836   */\n      dup4\n        /* \"#utility.yul\":11817:11837   */\n      tag_198\n      jump\t// in\n    tag_390:\n        /* \"#utility.yul\":11812:11837   */\n      swap3\n      pop\n        /* \"#utility.yul\":11861:11862   */\n      dup3\n        /* \"#utility.yul\":11858:11859   */\n      dup3\n        /* \"#utility.yul\":11854:11863   */\n      sub\n        /* \"#utility.yul\":11846:11863   */\n      swap1\n      pop\n        /* \"#utility.yul\":11885:11886   */\n      dup2\n        /* \"#utility.yul\":11879:11883   */\n      dup2\n        /* \"#utility.yul\":11876:11887   */\n      gt\n        /* \"#utility.yul\":11873:11910   */\n      iszero\n      tag_391\n      jumpi\n        /* \"#utility.yul\":11890:11908   */\n      tag_392\n      tag_234\n      jump\t// in\n    tag_392:\n        /* \"#utility.yul\":11873:11910   */\n    tag_391:\n        /* \"#utility.yul\":11723:11917   */\n      swap3\n      swap2\n      pop\n      pop\n      jump\t// out\n        /* \"#utility.yul\":11923:12091   */\n    tag_235:\n        /* \"#utility.yul\":12063:12083   */\n      0x5472616e73616374696f6e206661696c65640000000000000000000000000000\n        /* \"#utility.yul\":12059:12060   */\n      0x00\n        /* \"#utility.yul\":12051:12057   */\n      dup3\n        /* \"#utility.yul\":12047:12061   */\n      add\n        /* \"#utility.yul\":12040:12084   */\n      mstore\n        /* \"#utility.yul\":11923:12091   */\n      pop\n      jump\t// out\n        /* \"#utility.yul\":12097:12463   */\n    tag_236:\n        /* \"#utility.yul\":12239:12242   */\n      0x00\n        /* \"#utility.yul\":12260:12327   */\n      tag_395\n        /* \"#utility.yul\":12324:12326   */\n      0x12\n        /* \"#utility.yul\":12319:12322   */\n      dup4\n        /* \"#utility.yul\":12260:12327   */\n      tag_228\n      jump\t// in\n    tag_395:\n        /* \"#utility.yul\":12253:12327   */\n      swap2\n      pop\n        /* \"#utility.yul\":12336:12429   */\n      tag_396\n        /* \"#utility.yul\":12425:12428   */\n      dup3\n        /* \"#utility.yul\":12336:12429   */\n      tag_235\n      jump\t// in\n    tag_396:\n        /* \"#utility.yul\":12454:12456   */\n      0x20\n        /* \"#utility.yul\":12449:12452   */\n      dup3\n        /* \"#utility.yul\":12445:12457   */\n      add\n        /* \"#utility.yul\":12438:12457   */\n      swap1\n      pop\n        /* \"#utility.yul\":12097:12463   */\n      swap2\n      swap1\n      pop\n      jump\t// out\n        /* \"#utility.yul\":12469:12888   */\n    tag_90:\n        /* \"#utility.yul\":12635:12639   */\n      0x00\n        /* \"#utility.yul\":12673:12675   */\n      0x20\n        /* \"#utility.yul\":12662:12671   */\n      dup3\n        /* \"#utility.yul\":12658:12676   */\n      add\n        /* \"#utility.yul\":12650:12676   */\n      swap1\n      pop\n        /* \"#utility.yul\":12722:12731   */\n      dup2\n        /* \"#utility.yul\":12716:12720   */\n      dup2\n        /* \"#utility.yul\":12712:12732   */\n      sub\n        /* \"#utility.yul\":12708:12709   */\n      0x00\n        /* \"#utility.yul\":12697:12706   */\n      dup4\n        /* \"#utility.yul\":12693:12710   */\n      add\n        /* \"#utility.yul\":12686:12733   */\n      mstore\n        /* \"#utility.yul\":12750:12881   */\n      tag_398\n        /* \"#utility.yul\":12876:12880   */\n      dup2\n        /* \"#utility.yul\":12750:12881   */\n      tag_236\n      jump\t// in\n    tag_398:\n        /* \"#utility.yul\":12742:12881   */\n      swap1\n      pop\n        /* \"#utility.yul\":12469:12888   */\n      swap2\n      swap1\n      pop\n      jump\t// out\n        /* \"#utility.yul\":12894:13012   */\n    tag_237:\n        /* \"#utility.yul\":12981:13005   */\n      tag_400\n        /* \"#utility.yul\":12999:13004   */\n      dup2\n        /* \"#utility.yul\":12981:13005   */\n      tag_215\n      jump\t// in\n    tag_400:\n        /* \"#utility.yul\":12976:12979   */\n      dup3\n        /* \"#utility.yul\":12969:13006   */\n      mstore\n        /* \"#utility.yul\":12894:13012   */\n      pop\n      pop\n      jump\t// out\n        /* \"#utility.yul\":13018:13350   */\n    tag_92:\n        /* \"#utility.yul\":13139:13143   */\n      0x00\n        /* \"#utility.yul\":13177:13179   */\n      0x40\n        /* \"#utility.yul\":13166:13175   */\n      dup3\n        /* \"#utility.yul\":13162:13180   */\n      add\n        /* \"#utility.yul\":13154:13180   */\n      swap1\n      pop\n        /* \"#utility.yul\":13190:13261   */\n      tag_402\n        /* \"#utility.yul\":13258:13259   */\n      0x00\n        /* \"#utility.yul\":13247:13256   */\n      dup4\n        /* \"#utility.yul\":13243:13260   */\n      add\n        /* \"#utility.yul\":13234:13240   */\n      dup6\n        /* \"#utility.yul\":13190:13261   */\n      tag_237\n      jump\t// in\n    tag_402:\n        /* \"#utility.yul\":13271:13343   */\n      tag_403\n        /* \"#utility.yul\":13339:13341   */\n      0x20\n        /* \"#utility.yul\":13328:13337   */\n      dup4\n        /* \"#utility.yul\":13324:13342   */\n      add\n        /* \"#utility.yul\":13315:13321   */\n      dup5\n        /* \"#utility.yul\":13271:13343   */\n      tag_201\n      jump\t// in\n    tag_403:\n        /* \"#utility.yul\":13018:13350   */\n      swap4\n      swap3\n      pop\n      pop\n      pop\n      jump\t// out\n        /* \"#utility.yul\":13356:13472   */\n    tag_238:\n        /* \"#utility.yul\":13426:13447   */\n      tag_405\n        /* \"#utility.yul\":13441:13446   */\n      dup2\n        /* \"#utility.yul\":13426:13447   */\n      tag_230\n      jump\t// in\n    tag_405:\n        /* \"#utility.yul\":13419:13424   */\n      dup2\n        /* \"#utility.yul\":13416:13448   */\n      eq\n        /* \"#utility.yul\":13406:13466   */\n      tag_406\n      jumpi\n        /* \"#utility.yul\":13462:13463   */\n      0x00\n        /* \"#utility.yul\":13459:13460   */\n      dup1\n        /* \"#utility.yul\":13452:13464   */\n      revert\n        /* \"#utility.yul\":13406:13466   */\n    tag_406:\n        /* \"#utility.yul\":13356:13472   */\n      pop\n      jump\t// out\n        /* \"#utility.yul\":13478:13615   */\n    tag_239:\n        /* \"#utility.yul\":13532:13537   */\n      0x00\n        /* \"#utility.yul\":13563:13569   */\n      dup2\n        /* \"#utility.yul\":13557:13570   */\n      mload\n        /* \"#utility.yul\":13548:13570   */\n      swap1\n      pop\n        /* \"#utility.yul\":13579:13609   */\n      tag_408\n        /* \"#utility.yul\":13603:13608   */\n      dup2\n        /* \"#utility.yul\":13579:13609   */\n      tag_238\n      jump\t// in\n    tag_408:\n        /* \"#utility.yul\":13478:13615   */\n      swap3\n      swap2\n      pop\n      pop\n      jump\t// out\n        /* \"#utility.yul\":13621:13966   */\n    tag_96:\n        /* \"#utility.yul\":13688:13694   */\n      0x00\n        /* \"#utility.yul\":13737:13739   */\n      0x20\n        /* \"#utility.yul\":13725:13734   */\n      dup3\n        /* \"#utility.yul\":13716:13723   */\n      dup5\n        /* \"#utility.yul\":13712:13735   */\n      sub\n        /* \"#utility.yul\":13708:13740   */\n      slt\n        /* \"#utility.yul\":13705:13824   */\n      iszero\n      tag_410\n      jumpi\n        /* \"#utility.yul\":13743:13822   */\n      tag_411\n      tag_196\n      jump\t// in\n    tag_411:\n        /* \"#utility.yul\":13705:13824   */\n    tag_410:\n        /* \"#utility.yul\":13863:13864   */\n      0x00\n        /* \"#utility.yul\":13888:13949   */\n      tag_412\n        /* \"#utility.yul\":13941:13948   */\n      dup5\n        /* \"#utility.yul\":13932:13938   */\n      dup3\n        /* \"#utility.yul\":13921:13930   */\n      dup6\n        /* \"#utility.yul\":13917:13939   */\n      add\n        /* \"#utility.yul\":13888:13949   */\n      tag_239\n      jump\t// in\n    tag_412:\n        /* \"#utility.yul\":13878:13949   */\n      swap2\n      pop\n        /* \"#utility.yul\":13834:13959   */\n      pop\n        /* \"#utility.yul\":13621:13966   */\n      swap3\n      swap2\n      pop\n      pop\n      jump\t// out\n        /* \"#utility.yul\":13972:14163   */\n    tag_98:\n        /* \"#utility.yul\":14012:14015   */\n      0x00\n        /* \"#utility.yul\":14031:14051   */\n      tag_414\n        /* \"#utility.yul\":14049:14050   */\n      dup3\n        /* \"#utility.yul\":14031:14051   */\n      tag_198\n      jump\t// in\n    tag_414:\n        /* \"#utility.yul\":14026:14051   */\n      swap2\n      pop\n        /* \"#utility.yul\":14065:14085   */\n      tag_415\n        /* \"#utility.yul\":14083:14084   */\n      dup4\n        /* \"#utility.yul\":14065:14085   */\n      tag_198\n      jump\t// in\n    tag_415:\n        /* \"#utility.yul\":14060:14085   */\n      swap3\n      pop\n        /* \"#utility.yul\":14108:14109   */\n      dup3\n        /* \"#utility.yul\":14105:14106   */\n      dup3\n        /* \"#utility.yul\":14101:14110   */\n      add\n        /* \"#utility.yul\":14094:14110   */\n      swap1\n      pop\n        /* \"#utility.yul\":14129:14132   */\n      dup1\n        /* \"#utility.yul\":14126:14127   */\n      dup3\n        /* \"#utility.yul\":14123:14133   */\n      gt\n        /* \"#utility.yul\":14120:14156   */\n      iszero\n      tag_416\n      jumpi\n        /* \"#utility.yul\":14136:14154   */\n      tag_417\n      tag_234\n      jump\t// in\n    tag_417:\n        /* \"#utility.yul\":14120:14156   */\n    tag_416:\n        /* \"#utility.yul\":13972:14163   */\n      swap3\n      swap2\n      pop\n      pop\n      jump\t// out\n        /* \"#utility.yul\":14169:14337   */\n    tag_240:\n        /* \"#utility.yul\":14309:14329   */\n      0x43616e2774206265206e65676174697665210000000000000000000000000000\n        /* \"#utility.yul\":14305:14306   */\n      0x00\n        /* \"#utility.yul\":14297:14303   */\n      dup3\n        /* \"#utility.yul\":14293:14307   */\n      add\n        /* \"#utility.yul\":14286:14330   */\n      mstore\n        /* \"#utility.yul\":14169:14337   */\n      pop\n      jump\t// out\n        /* \"#utility.yul\":14343:14709   */\n    tag_241:\n        /* \"#utility.yul\":14485:14488   */\n      0x00\n        /* \"#utility.yul\":14506:14573   */\n      tag_420\n        /* \"#utility.yul\":14570:14572   */\n      0x12\n        /* \"#utility.yul\":14565:14568   */\n      dup4\n        /* \"#utility.yul\":14506:14573   */\n      tag_228\n      jump\t// in\n    tag_420:\n        /* \"#utility.yul\":14499:14573   */\n      swap2\n      pop\n        /* \"#utility.yul\":14582:14675   */\n      tag_421\n        /* \"#utility.yul\":14671:14674   */\n      dup3\n        /* \"#utility.yul\":14582:14675   */\n      tag_240\n      jump\t// in\n    tag_421:\n        /* \"#utility.yul\":14700:14702   */\n      0x20\n        /* \"#utility.yul\":14695:14698   */\n      dup3\n        /* \"#utility.yul\":14691:14703   */\n      add\n        /* \"#utility.yul\":14684:14703   */\n      swap1\n      pop\n        /* \"#utility.yul\":14343:14709   */\n      swap2\n      swap1\n      pop\n      jump\t// out\n        /* \"#utility.yul\":14715:15134   */\n    tag_102:\n        /* \"#utility.yul\":14881:14885   */\n      0x00\n        /* \"#utility.yul\":14919:14921   */\n      0x20\n        /* \"#utility.yul\":14908:14917   */\n      dup3\n        /* \"#utility.yul\":14904:14922   */\n      add\n        /* \"#utility.yul\":14896:14922   */\n      swap1\n      pop\n        /* \"#utility.yul\":14968:14977   */\n      dup2\n        /* \"#utility.yul\":14962:14966   */\n      dup2\n        /* \"#utility.yul\":14958:14978   */\n      sub\n        /* \"#utility.yul\":14954:14955   */\n      0x00\n        /* \"#utility.yul\":14943:14952   */\n      dup4\n        /* \"#utility.yul\":14939:14956   */\n      add\n        /* \"#utility.yul\":14932:14979   */\n      mstore\n        /* \"#utility.yul\":14996:15127   */\n      tag_423\n        /* \"#utility.yul\":15122:15126   */\n      dup2\n        /* \"#utility.yul\":14996:15127   */\n      tag_241\n      jump\t// in\n    tag_423:\n        /* \"#utility.yul\":14988:15127   */\n      swap1\n      pop\n        /* \"#utility.yul\":14715:15134   */\n      swap2\n      swap1\n      pop\n      jump\t// out\n        /* \"#utility.yul\":15140:15310   */\n    tag_242:\n        /* \"#utility.yul\":15280:15302   */\n      0x496e73756666696369656e742042616c616e6365000000000000000000000000\n        /* \"#utility.yul\":15276:15277   */\n      0x00\n        /* \"#utility.yul\":15268:15274   */\n      dup3\n        /* \"#utility.yul\":15264:15278   */\n      add\n        /* \"#utility.yul\":15257:15303   */\n      mstore\n        /* \"#utility.yul\":15140:15310   */\n      pop\n      jump\t// out\n        /* \"#utility.yul\":15316:15682   */\n    tag_243:\n        /* \"#utility.yul\":15458:15461   */\n      0x00\n        /* \"#utility.yul\":15479:15546   */\n      tag_426\n        /* \"#utility.yul\":15543:15545   */\n      0x14\n        /* \"#utility.yul\":15538:15541   */\n      dup4\n        /* \"#utility.yul\":15479:15546   */\n      tag_228\n      jump\t// in\n    tag_426:\n        /* \"#utility.yul\":15472:15546   */\n      swap2\n      pop\n        /* \"#utility.yul\":15555:15648   */\n      tag_427\n        /* \"#utility.yul\":15644:15647   */\n      dup3\n        /* \"#utility.yul\":15555:15648   */\n      tag_242\n      jump\t// in\n    tag_427:\n        /* \"#utility.yul\":15673:15675   */\n      0x20\n        /* \"#utility.yul\":15668:15671   */\n      dup3\n        /* \"#utility.yul\":15664:15676   */\n      add\n        /* \"#utility.yul\":15657:15676   */\n      swap1\n      pop\n        /* \"#utility.yul\":15316:15682   */\n      swap2\n      swap1\n      pop\n      jump\t// out\n        /* \"#utility.yul\":15688:16107   */\n    tag_106:\n        /* \"#utility.yul\":15854:15858   */\n      0x00\n        /* \"#utility.yul\":15892:15894   */\n      0x20\n        /* \"#utility.yul\":15881:15890   */\n      dup3\n        /* \"#utility.yul\":15877:15895   */\n      add\n        /* \"#utility.yul\":15869:15895   */\n      swap1\n      pop\n        /* \"#utility.yul\":15941:15950   */\n      dup2\n        /* \"#utility.yul\":15935:15939   */\n      dup2\n        /* \"#utility.yul\":15931:15951   */\n      sub\n        /* \"#utility.yul\":15927:15928   */\n      0x00\n        /* \"#utility.yul\":15916:15925   */\n      dup4\n        /* \"#utility.yul\":15912:15929   */\n      add\n        /* \"#utility.yul\":15905:15952   */\n      mstore\n        /* \"#utility.yul\":15969:16100   */\n      tag_429\n        /* \"#utility.yul\":16095:16099   */\n      dup2\n        /* \"#utility.yul\":15969:16100   */\n      tag_243\n      jump\t// in\n    tag_429:\n        /* \"#utility.yul\":15961:16100   */\n      swap1\n      pop\n        /* \"#utility.yul\":15688:16107   */\n      swap2\n      swap1\n      pop\n      jump\t// out\n        /* \"#utility.yul\":16113:16555   */\n    tag_108:\n        /* \"#utility.yul\":16262:16266   */\n      0x00\n        /* \"#utility.yul\":16300:16302   */\n      0x60\n        /* \"#utility.yul\":16289:16298   */\n      dup3\n        /* \"#utility.yul\":16285:16303   */\n      add\n        /* \"#utility.yul\":16277:16303   */\n      swap1\n      pop\n        /* \"#utility.yul\":16313:16384   */\n      tag_431\n        /* \"#utility.yul\":16381:16382   */\n      0x00\n        /* \"#utility.yul\":16370:16379   */\n      dup4\n        /* \"#utility.yul\":16366:16383   */\n      add\n        /* \"#utility.yul\":16357:16363   */\n      dup7\n        /* \"#utility.yul\":16313:16384   */\n      tag_237\n      jump\t// in\n    tag_431:\n        /* \"#utility.yul\":16394:16466   */\n      tag_432\n        /* \"#utility.yul\":16462:16464   */\n      0x20\n        /* \"#utility.yul\":16451:16460   */\n      dup4\n        /* \"#utility.yul\":16447:16465   */\n      add\n        /* \"#utility.yul\":16438:16444   */\n      dup6\n        /* \"#utility.yul\":16394:16466   */\n      tag_237\n      jump\t// in\n    tag_432:\n        /* \"#utility.yul\":16476:16548   */\n      tag_433\n        /* \"#utility.yul\":16544:16546   */\n      0x40\n        /* \"#utility.yul\":16533:16542   */\n      dup4\n        /* \"#utility.yul\":16529:16547   */\n      add\n        /* \"#utility.yul\":16520:16526   */\n      dup5\n        /* \"#utility.yul\":16476:16548   */\n      tag_201\n      jump\t// in\n    tag_433:\n        /* \"#utility.yul\":16113:16555   */\n      swap5\n      swap4\n      pop\n      pop\n      pop\n      pop\n      jump\t// out\n        /* \"#utility.yul\":16561:16783   */\n    tag_117:\n        /* \"#utility.yul\":16654:16658   */\n      0x00\n        /* \"#utility.yul\":16692:16694   */\n      0x20\n        /* \"#utility.yul\":16681:16690   */\n      dup3\n        /* \"#utility.yul\":16677:16695   */\n      add\n        /* \"#utility.yul\":16669:16695   */\n      swap1\n      pop\n        /* \"#utility.yul\":16705:16776   */\n      tag_435\n        /* \"#utility.yul\":16773:16774   */\n      0x00\n        /* \"#utility.yul\":16762:16771   */\n      dup4\n        /* \"#utility.yul\":16758:16775   */\n      add\n        /* \"#utility.yul\":16749:16755   */\n      dup5\n        /* \"#utility.yul\":16705:16776   */\n      tag_237\n      jump\t// in\n    tag_435:\n        /* \"#utility.yul\":16561:16783   */\n      swap3\n      swap2\n      pop\n      pop\n      jump\t// out\n        /* \"#utility.yul\":16789:16932   */\n    tag_244:\n        /* \"#utility.yul\":16846:16851   */\n      0x00\n        /* \"#utility.yul\":16877:16883   */\n      dup2\n        /* \"#utility.yul\":16871:16884   */\n      mload\n        /* \"#utility.yul\":16862:16884   */\n      swap1\n      pop\n        /* \"#utility.yul\":16893:16926   */\n      tag_437\n        /* \"#utility.yul\":16920:16925   */\n      dup2\n        /* \"#utility.yul\":16893:16926   */\n      tag_199\n      jump\t// in\n    tag_437:\n        /* \"#utility.yul\":16789:16932   */\n      swap3\n      swap2\n      pop\n      pop\n      jump\t// out\n        /* \"#utility.yul\":16938:17289   */\n    tag_121:\n        /* \"#utility.yul\":17008:17014   */\n      0x00\n        /* \"#utility.yul\":17057:17059   */\n      0x20\n        /* \"#utility.yul\":17045:17054   */\n      dup3\n        /* \"#utility.yul\":17036:17043   */\n      dup5\n        /* \"#utility.yul\":17032:17055   */\n      sub\n        /* \"#utility.yul\":17028:17060   */\n      slt\n        /* \"#utility.yul\":17025:17144   */\n      iszero\n      tag_439\n      jumpi\n        /* \"#utility.yul\":17063:17142   */\n      tag_440\n      tag_196\n      jump\t// in\n    tag_440:\n        /* \"#utility.yul\":17025:17144   */\n    tag_439:\n        /* \"#utility.yul\":17183:17184   */\n      0x00\n        /* \"#utility.yul\":17208:17272   */\n      tag_441\n        /* \"#utility.yul\":17264:17271   */\n      dup5\n        /* \"#utility.yul\":17255:17261   */\n      dup3\n        /* \"#utility.yul\":17244:17253   */\n      dup6\n        /* \"#utility.yul\":17240:17262   */\n      add\n        /* \"#utility.yul\":17208:17272   */\n      tag_244\n      jump\t// in\n    tag_441:\n        /* \"#utility.yul\":17198:17272   */\n      swap2\n      pop\n        /* \"#utility.yul\":17154:17282   */\n      pop\n        /* \"#utility.yul\":16938:17289   */\n      swap3\n      swap2\n      pop\n      pop\n      jump\t// out\n        /* \"#utility.yul\":17295:17443   */\n    tag_245:\n        /* \"#utility.yul\":17397:17408   */\n      0x00\n        /* \"#utility.yul\":17434:17437   */\n      dup2\n        /* \"#utility.yul\":17419:17437   */\n      swap1\n      pop\n        /* \"#utility.yul\":17295:17443   */\n      swap3\n      swap2\n      pop\n      pop\n      jump\t// out\n        /* \"#utility.yul\":17449:17839   */\n    tag_246:\n        /* \"#utility.yul\":17555:17558   */\n      0x00\n        /* \"#utility.yul\":17583:17622   */\n      tag_444\n        /* \"#utility.yul\":17616:17621   */\n      dup3\n        /* \"#utility.yul\":17583:17622   */\n      tag_221\n      jump\t// in\n    tag_444:\n        /* \"#utility.yul\":17638:17727   */\n      tag_445\n        /* \"#utility.yul\":17720:17726   */\n      dup2\n        /* \"#utility.yul\":17715:17718   */\n      dup6\n        /* \"#utility.yul\":17638:17727   */\n      tag_245\n      jump\t// in\n    tag_445:\n        /* \"#utility.yul\":17631:17727   */\n      swap4\n      pop\n        /* \"#utility.yul\":17736:17801   */\n      tag_446\n        /* \"#utility.yul\":17794:17800   */\n      dup2\n        /* \"#utility.yul\":17789:17792   */\n      dup6\n        /* \"#utility.yul\":17782:17786   */\n      0x20\n        /* \"#utility.yul\":17775:17780   */\n      dup7\n        /* \"#utility.yul\":17771:17787   */\n      add\n        /* \"#utility.yul\":17736:17801   */\n      tag_223\n      jump\t// in\n    tag_446:\n        /* \"#utility.yul\":17826:17832   */\n      dup1\n        /* \"#utility.yul\":17821:17824   */\n      dup5\n        /* \"#utility.yul\":17817:17833   */\n      add\n        /* \"#utility.yul\":17810:17833   */\n      swap2\n      pop\n        /* \"#utility.yul\":17559:17839   */\n      pop\n        /* \"#utility.yul\":17449:17839   */\n      swap3\n      swap2\n      pop\n      pop\n      jump\t// out\n        /* \"#utility.yul\":17845:18120   */\n    tag_126:\n        /* \"#utility.yul\":17977:17980   */\n      0x00\n        /* \"#utility.yul\":17999:18094   */\n      tag_448\n        /* \"#utility.yul\":18090:18093   */\n      dup3\n        /* \"#utility.yul\":18081:18087   */\n      dup5\n        /* \"#utility.yul\":17999:18094   */\n      tag_246\n      jump\t// in\n    tag_448:\n        /* \"#utility.yul\":17992:18094   */\n      swap2\n      pop\n        /* \"#utility.yul\":18111:18114   */\n      dup2\n        /* \"#utility.yul\":18104:18114   */\n      swap1\n      pop\n        /* \"#utility.yul\":17845:18120   */\n      swap3\n      swap2\n      pop\n      pop\n      jump\t// out\n        /* \"#utility.yul\":18126:18439   */\n    tag_128:\n        /* \"#utility.yul\":18239:18243   */\n      0x00\n        /* \"#utility.yul\":18277:18279   */\n      0x20\n        /* \"#utility.yul\":18266:18275   */\n      dup3\n        /* \"#utility.yul\":18262:18280   */\n      add\n        /* \"#utility.yul\":18254:18280   */\n      swap1\n      pop\n        /* \"#utility.yul\":18326:18335   */\n      dup2\n        /* \"#utility.yul\":18320:18324   */\n      dup2\n        /* \"#utility.yul\":18316:18336   */\n      sub\n        /* \"#utility.yul\":18312:18313   */\n      0x00\n        /* \"#utility.yul\":18301:18310   */\n      dup4\n        /* \"#utility.yul\":18297:18314   */\n      add\n        /* \"#utility.yul\":18290:18337   */\n      mstore\n        /* \"#utility.yul\":18354:18432   */\n      tag_450\n        /* \"#utility.yul\":18427:18431   */\n      dup2\n        /* \"#utility.yul\":18418:18424   */\n      dup5\n        /* \"#utility.yul\":18354:18432   */\n      tag_229\n      jump\t// in\n    tag_450:\n        /* \"#utility.yul\":18346:18432   */\n      swap1\n      pop\n        /* \"#utility.yul\":18126:18439   */\n      swap3\n      swap2\n      pop\n      pop\n      jump\t// out\n        /* \"#utility.yul\":18445:18625   */\n    tag_247:\n        /* \"#utility.yul\":18493:18570   */\n      0x4e487b7100000000000000000000000000000000000000000000000000000000\n        /* \"#utility.yul\":18490:18491   */\n      0x00\n        /* \"#utility.yul\":18483:18571   */\n      mstore\n        /* \"#utility.yul\":18590:18594   */\n      0x22\n        /* \"#utility.yul\":18587:18588   */\n      0x04\n        /* \"#utility.yul\":18580:18595   */\n      mstore\n        /* \"#utility.yul\":18614:18618   */\n      0x24\n        /* \"#utility.yul\":18611:18612   */\n      0x00\n        /* \"#utility.yul\":18604:18619   */\n      revert\n        /* \"#utility.yul\":18631:18951   */\n    tag_141:\n        /* \"#utility.yul\":18675:18681   */\n      0x00\n        /* \"#utility.yul\":18712:18713   */\n      0x02\n        /* \"#utility.yul\":18706:18710   */\n      dup3\n        /* \"#utility.yul\":18702:18714   */\n      div\n        /* \"#utility.yul\":18692:18714   */\n      swap1\n      pop\n        /* \"#utility.yul\":18759:18760   */\n      0x01\n        /* \"#utility.yul\":18753:18757   */\n      dup3\n        /* \"#utility.yul\":18749:18761   */\n      and\n        /* \"#utility.yul\":18780:18798   */\n      dup1\n        /* \"#utility.yul\":18770:18851   */\n      tag_453\n      jumpi\n        /* \"#utility.yul\":18836:18840   */\n      0x7f\n        /* \"#utility.yul\":18828:18834   */\n      dup3\n        /* \"#utility.yul\":18824:18841   */\n      and\n        /* \"#utility.yul\":18814:18841   */\n      swap2\n      pop\n        /* \"#utility.yul\":18770:18851   */\n    tag_453:\n        /* \"#utility.yul\":18898:18900   */\n      0x20\n        /* \"#utility.yul\":18890:18896   */\n      dup3\n        /* \"#utility.yul\":18887:18901   */\n      lt\n        /* \"#utility.yul\":18867:18885   */\n      dup2\n        /* \"#utility.yul\":18864:18902   */\n      sub\n        /* \"#utility.yul\":18861:18945   */\n      tag_454\n      jumpi\n        /* \"#utility.yul\":18917:18935   */\n      tag_455\n      tag_247\n      jump\t// in\n    tag_455:\n        /* \"#utility.yul\":18861:18945   */\n    tag_454:\n        /* \"#utility.yul\":18682:18951   */\n      pop\n        /* \"#utility.yul\":18631:18951   */\n      swap2\n      swap1\n      pop\n      jump\t// out\n        /* \"#utility.yul\":18957:19123   */\n    tag_248:\n        /* \"#utility.yul\":19097:19115   */\n      0x41747472616374696f6e20436c6f736500000000000000000000000000000000\n        /* \"#utility.yul\":19093:19094   */\n      0x00\n        /* \"#utility.yul\":19085:19091   */\n      dup3\n        /* \"#utility.yul\":19081:19095   */\n      add\n        /* \"#utility.yul\":19074:19116   */\n      mstore\n        /* \"#utility.yul\":18957:19123   */\n      pop\n      jump\t// out\n        /* \"#utility.yul\":19129:19495   */\n    tag_249:\n        /* \"#utility.yul\":19271:19274   */\n      0x00\n        /* \"#utility.yul\":19292:19359   */\n      tag_458\n        /* \"#utility.yul\":19356:19358   */\n      0x10\n        /* \"#utility.yul\":19351:19354   */\n      dup4\n        /* \"#utility.yul\":19292:19359   */\n      tag_228\n      jump\t// in\n    tag_458:\n        /* \"#utility.yul\":19285:19359   */\n      swap2\n      pop\n        /* \"#utility.yul\":19368:19461   */\n      tag_459\n        /* \"#utility.yul\":19457:19460   */\n      dup3\n        /* \"#utility.yul\":19368:19461   */\n      tag_248\n      jump\t// in\n    tag_459:\n        /* \"#utility.yul\":19486:19488   */\n      0x20\n        /* \"#utility.yul\":19481:19484   */\n      dup3\n        /* \"#utility.yul\":19477:19489   */\n      add\n        /* \"#utility.yul\":19470:19489   */\n      swap1\n      pop\n        /* \"#utility.yul\":19129:19495   */\n      swap2\n      swap1\n      pop\n      jump\t// out\n        /* \"#utility.yul\":19501:19920   */\n    tag_169:\n        /* \"#utility.yul\":19667:19671   */\n      0x00\n        /* \"#utility.yul\":19705:19707   */\n      0x20\n        /* \"#utility.yul\":19694:19703   */\n      dup3\n        /* \"#utility.yul\":19690:19708   */\n      add\n        /* \"#utility.yul\":19682:19708   */\n      swap1\n      pop\n        /* \"#utility.yul\":19754:19763   */\n      dup2\n        /* \"#utility.yul\":19748:19752   */\n      dup2\n        /* \"#utility.yul\":19744:19764   */\n      sub\n        /* \"#utility.yul\":19740:19741   */\n      0x00\n        /* \"#utility.yul\":19729:19738   */\n      dup4\n        /* \"#utility.yul\":19725:19742   */\n      add\n        /* \"#utility.yul\":19718:19765   */\n      mstore\n        /* \"#utility.yul\":19782:19913   */\n      tag_461\n        /* \"#utility.yul\":19908:19912   */\n      dup2\n        /* \"#utility.yul\":19782:19913   */\n      tag_249\n      jump\t// in\n    tag_461:\n        /* \"#utility.yul\":19774:19913   */\n      swap1\n      pop\n        /* \"#utility.yul\":19501:19920   */\n      swap2\n      swap1\n      pop\n      jump\t// out\n        /* \"#utility.yul\":19926:20067   */\n    tag_250:\n        /* \"#utility.yul\":19975:19979   */\n      0x00\n        /* \"#utility.yul\":19998:20001   */\n      dup2\n        /* \"#utility.yul\":19990:20001   */\n      swap1\n      pop\n        /* \"#utility.yul\":20021:20024   */\n      dup2\n        /* \"#utility.yul\":20018:20019   */\n      0x00\n        /* \"#utility.yul\":20011:20025   */\n      mstore\n        /* \"#utility.yul\":20055:20059   */\n      0x20\n        /* \"#utility.yul\":20052:20053   */\n      0x00\n        /* \"#utility.yul\":20042:20060   */\n      keccak256\n        /* \"#utility.yul\":20034:20060   */\n      swap1\n      pop\n        /* \"#utility.yul\":19926:20067   */\n      swap2\n      swap1\n      pop\n      jump\t// out\n        /* \"#utility.yul\":20073:20166   */\n    tag_251:\n        /* \"#utility.yul\":20110:20116   */\n      0x00\n        /* \"#utility.yul\":20157:20159   */\n      0x20\n        /* \"#utility.yul\":20152:20154   */\n      0x1f\n        /* \"#utility.yul\":20145:20150   */\n      dup4\n        /* \"#utility.yul\":20141:20155   */\n      add\n        /* \"#utility.yul\":20137:20160   */\n      div\n        /* \"#utility.yul\":20127:20160   */\n      swap1\n      pop\n        /* \"#utility.yul\":20073:20166   */\n      swap2\n      swap1\n      pop\n      jump\t// out\n        /* \"#utility.yul\":20172:20279   */\n    tag_252:\n        /* \"#utility.yul\":20216:20224   */\n      0x00\n        /* \"#utility.yul\":20266:20271   */\n      dup3\n        /* \"#utility.yul\":20260:20264   */\n      dup3\n        /* \"#utility.yul\":20256:20272   */\n      shl\n        /* \"#utility.yul\":20235:20272   */\n      swap1\n      pop\n        /* \"#utility.yul\":20172:20279   */\n      swap3\n      swap2\n      pop\n      pop\n      jump\t// out\n        /* \"#utility.yul\":20285:20678   */\n    tag_253:\n        /* \"#utility.yul\":20354:20360   */\n      0x00\n        /* \"#utility.yul\":20404:20405   */\n      0x08\n        /* \"#utility.yul\":20392:20402   */\n      dup4\n        /* \"#utility.yul\":20388:20406   */\n      mul\n        /* \"#utility.yul\":20427:20524   */\n      tag_466\n        /* \"#utility.yul\":20457:20523   */\n      0xffffffffffffffffffffffffffffffffffffffffffffffffffffffffffffffff\n        /* \"#utility.yul\":20446:20455   */\n      dup3\n        /* \"#utility.yul\":20427:20524   */\n      tag_252\n      jump\t// in\n    tag_466:\n        /* \"#utility.yul\":20545:20584   */\n      tag_467\n        /* \"#utility.yul\":20575:20583   */\n      dup7\n        /* \"#utility.yul\":20564:20573   */\n      dup4\n        /* \"#utility.yul\":20545:20584   */\n      tag_252\n      jump\t// in\n    tag_467:\n        /* \"#utility.yul\":20533:20584   */\n      swap6\n      pop\n        /* \"#utility.yul\":20617:20621   */\n      dup1\n        /* \"#utility.yul\":20613:20622   */\n      not\n        /* \"#utility.yul\":20606:20611   */\n      dup5\n        /* \"#utility.yul\":20602:20623   */\n      and\n        /* \"#utility.yul\":20593:20623   */\n      swap4\n      pop\n        /* \"#utility.yul\":20666:20670   */\n      dup1\n        /* \"#utility.yul\":20656:20664   */\n      dup7\n        /* \"#utility.yul\":20652:20671   */\n      and\n        /* \"#utility.yul\":20645:20650   */\n      dup5\n        /* \"#utility.yul\":20642:20672   */\n      or\n        /* \"#utility.yul\":20632:20672   */\n      swap3\n      pop\n        /* \"#utility.yul\":20361:20678   */\n      pop\n      pop\n        /* \"#utility.yul\":20285:20678   */\n      swap4\n      swap3\n      pop\n      pop\n      pop\n      jump\t// out\n        /* \"#utility.yul\":20684:20744   */\n    tag_254:\n        /* \"#utility.yul\":20712:20715   */\n      0x00\n        /* \"#utility.yul\":20733:20738   */\n      dup2\n        /* \"#utility.yul\":20726:20738   */\n      swap1\n      pop\n        /* \"#utility.yul\":20684:20744   */\n      swap2\n      swap1\n      pop\n      jump\t// out\n        /* \"#utility.yul\":20750:20892   */\n    tag_255:\n        /* \"#utility.yul\":20800:20809   */\n      0x00\n        /* \"#utility.yul\":20833:20886   */\n      tag_470\n        /* \"#utility.yul\":20851:20885   */\n      tag_471\n        /* \"#utility.yul\":20860:20884   */\n      tag_472\n        /* \"#utility.yul\":20878:20883   */\n      dup5\n        /* \"#utility.yul\":20860:20884   */\n      tag_198\n      jump\t// in\n    tag_472:\n        /* \"#utility.yul\":20851:20885   */\n      tag_254\n      jump\t// in\n    tag_471:\n        /* \"#utility.yul\":20833:20886   */\n      tag_198\n      jump\t// in\n    tag_470:\n        /* \"#utility.yul\":20820:20886   */\n      swap1\n      pop\n        /* \"#utility.yul\":20750:20892   */\n      swap2\n      swap1\n      pop\n      jump\t// out\n        /* \"#utility.yul\":20898:20973   */\n    tag_256:\n        /* \"#utility.yul\":20941:20944   */\n      0x00\n        /* \"#utility.yul\":20962:20967   */\n      dup2\n        /* \"#utility.yul\":20955:20967   */\n      swap1\n      pop\n        /* \"#utility.yul\":20898:20973   */\n      swap2\n      swap1\n      pop\n      jump\t// out\n        /* \"#utility.yul\":20979:21248   */\n    tag_257:\n        /* \"#utility.yul\":21089:21128   */\n      tag_475\n        /* \"#utility.yul\":21120:21127   */\n      dup4\n        /* \"#utility.yul\":21089:21128   */\n      tag_255\n      jump\t// in\n    tag_475:\n        /* \"#utility.yul\":21150:21241   */\n      tag_476\n        /* \"#utility.yul\":21199:21240   */\n      tag_477\n        /* \"#utility.yul\":21223:21239   */\n      dup3\n        /* \"#utility.yul\":21199:21240   */\n      tag_256\n      jump\t// in\n    tag_477:\n        /* \"#utility.yul\":21191:21197   */\n      dup5\n        /* \"#utility.yul\":21184:21188   */\n      dup5\n        /* \"#utility.yul\":21178:21189   */\n      sload\n        /* \"#utility.yul\":21150:21241   */\n      tag_253\n      jump\t// in\n    tag_476:\n        /* \"#utility.yul\":21144:21148   */\n      dup3\n        /* \"#utility.yul\":21137:21242   */\n      sstore\n        /* \"#utility.yul\":21055:21248   */\n      pop\n        /* \"#utility.yul\":20979:21248   */\n      pop\n      pop\n      pop\n      jump\t// out\n        /* \"#utility.yul\":21254:21327   */\n    tag_258:\n        /* \"#utility.yul\":21299:21302   */\n      0x00\n        /* \"#utility.yul\":21254:21327   */\n      swap1\n      jump\t// out\n        /* \"#utility.yul\":21333:21522   */\n    tag_259:\n        /* \"#utility.yul\":21410:21442   */\n      tag_480\n      tag_258\n      jump\t// in\n    tag_480:\n        /* \"#utility.yul\":21451:21516   */\n      tag_481\n        /* \"#utility.yul\":21509:21515   */\n      dup2\n        /* \"#utility.yul\":21501:21507   */\n      dup5\n        /* \"#utility.yul\":21495:21499   */\n      dup5\n        /* \"#utility.yul\":21451:21516   */\n      tag_257\n      jump\t// in\n    tag_481:\n        /* \"#utility.yul\":21386:21522   */\n      pop\n        /* \"#utility.yul\":21333:21522   */\n      pop\n      pop\n      jump\t// out\n        /* \"#utility.yul\":21528:21714   */\n    tag_260:\n        /* \"#utility.yul\":21588:21708   */\n    tag_483:\n        /* \"#utility.yul\":21605:21608   */\n      dup2\n        /* \"#utility.yul\":21598:21603   */\n      dup2\n        /* \"#utility.yul\":21595:21609   */\n      lt\n        /* \"#utility.yul\":21588:21708   */\n      iszero\n      tag_485\n      jumpi\n        /* \"#utility.yul\":21659:21698   */\n      tag_486\n        /* \"#utility.yul\":21696:21697   */\n      0x00\n        /* \"#utility.yul\":21689:21694   */\n      dup3\n        /* \"#utility.yul\":21659:21698   */\n      tag_259\n      jump\t// in\n    tag_486:\n        /* \"#utility.yul\":21632:21633   */\n      0x01\n        /* \"#utility.yul\":21625:21630   */\n      dup2\n        /* \"#utility.yul\":21621:21634   */\n      add\n        /* \"#utility.yul\":21612:21634   */\n      swap1\n      pop\n        /* \"#utility.yul\":21588:21708   */\n      jump(tag_483)\n    tag_485:\n        /* \"#utility.yul\":21528:21714   */\n      pop\n      pop\n      jump\t// out\n        /* \"#utility.yul\":21720:22263   */\n    tag_261:\n        /* \"#utility.yul\":21821:21823   */\n      0x1f\n        /* \"#utility.yul\":21816:21819   */\n      dup3\n        /* \"#utility.yul\":21813:21824   */\n      gt\n        /* \"#utility.yul\":21810:22256   */\n      iszero\n      tag_488\n      jumpi\n        /* \"#utility.yul\":21855:21893   */\n      tag_489\n        /* \"#utility.yul\":21887:21892   */\n      dup2\n        /* \"#utility.yul\":21855:21893   */\n      tag_250\n      jump\t// in\n    tag_489:\n        /* \"#utility.yul\":21939:21968   */\n      tag_490\n        /* \"#utility.yul\":21957:21967   */\n      dup5\n        /* \"#utility.yul\":21939:21968   */\n      tag_251\n      jump\t// in\n    tag_490:\n        /* \"#utility.yul\":21929:21937   */\n      dup2\n        /* \"#utility.yul\":21925:21969   */\n      add\n        /* \"#utility.yul\":22122:22124   */\n      0x20\n        /* \"#utility.yul\":22110:22120   */\n      dup6\n        /* \"#utility.yul\":22107:22125   */\n      lt\n        /* \"#utility.yul\":22104:22153   */\n      iszero\n      tag_491\n      jumpi\n        /* \"#utility.yul\":22143:22151   */\n      dup2\n        /* \"#utility.yul\":22128:22151   */\n      swap1\n      pop\n        /* \"#utility.yul\":22104:22153   */\n    tag_491:\n        /* \"#utility.yul\":22166:22246   */\n      tag_492\n        /* \"#utility.yul\":22222:22244   */\n      tag_493\n        /* \"#utility.yul\":22240:22243   */\n      dup6\n        /* \"#utility.yul\":22222:22244   */\n      tag_251\n      jump\t// in\n    tag_493:\n        /* \"#utility.yul\":22212:22220   */\n      dup4\n        /* \"#utility.yul\":22208:22245   */\n      add\n        /* \"#utility.yul\":22195:22206   */\n      dup3\n        /* \"#utility.yul\":22166:22246   */\n      tag_260\n      jump\t// in\n    tag_492:\n        /* \"#utility.yul\":21825:22256   */\n      pop\n      pop\n        /* \"#utility.yul\":21810:22256   */\n    tag_488:\n        /* \"#utility.yul\":21720:22263   */\n      pop\n      pop\n      pop\n      jump\t// out\n        /* \"#utility.yul\":22269:22386   */\n    tag_262:\n        /* \"#utility.yul\":22323:22331   */\n      0x00\n        /* \"#utility.yul\":22373:22378   */\n      dup3\n        /* \"#utility.yul\":22367:22371   */\n      dup3\n        /* \"#utility.yul\":22363:22379   */\n      shr\n        /* \"#utility.yul\":22342:22379   */\n      swap1\n      pop\n        /* \"#utility.yul\":22269:22386   */\n      swap3\n      swap2\n      pop\n      pop\n      jump\t// out\n        /* \"#utility.yul\":22392:22561   */\n    tag_263:\n        /* \"#utility.yul\":22436:22442   */\n      0x00\n        /* \"#utility.yul\":22469:22520   */\n      tag_496\n        /* \"#utility.yul\":22517:22518   */\n      0x00\n        /* \"#utility.yul\":22513:22519   */\n      not\n        /* \"#utility.yul\":22505:22510   */\n      dup5\n        /* \"#utility.yul\":22502:22503   */\n      0x08\n        /* \"#utility.yul\":22498:22511   */\n      mul\n        /* \"#utility.yul\":22469:22520   */\n      tag_262\n      jump\t// in\n    tag_496:\n        /* \"#utility.yul\":22465:22521   */\n      not\n        /* \"#utility.yul\":22550:22554   */\n      dup1\n        /* \"#utility.yul\":22544:22548   */\n      dup4\n        /* \"#utility.yul\":22540:22555   */\n      and\n        /* \"#utility.yul\":22530:22555   */\n      swap2\n      pop\n        /* \"#utility.yul\":22443:22561   */\n      pop\n        /* \"#utility.yul\":22392:22561   */\n      swap3\n      swap2\n      pop\n      pop\n      jump\t// out\n        /* \"#utility.yul\":22566:22861   */\n    tag_264:\n        /* \"#utility.yul\":22642:22646   */\n      0x00\n        /* \"#utility.yul\":22788:22817   */\n      tag_498\n        /* \"#utility.yul\":22813:22816   */\n      dup4\n        /* \"#utility.yul\":22807:22811   */\n      dup4\n        /* \"#utility.yul\":22788:22817   */\n      tag_263\n      jump\t// in\n    tag_498:\n        /* \"#utility.yul\":22780:22817   */\n      swap2\n      pop\n        /* \"#utility.yul\":22850:22853   */\n      dup3\n        /* \"#utility.yul\":22847:22848   */\n      0x02\n        /* \"#utility.yul\":22843:22854   */\n      mul\n        /* \"#utility.yul\":22837:22841   */\n      dup3\n        /* \"#utility.yul\":22834:22855   */\n      or\n        /* \"#utility.yul\":22826:22855   */\n      swap1\n      pop\n        /* \"#utility.yul\":22566:22861   */\n      swap3\n      swap2\n      pop\n      pop\n      jump\t// out\n        /* \"#utility.yul\":22866:24261   */\n    tag_180:\n        /* \"#utility.yul\":22983:23020   */\n      tag_500\n        /* \"#utility.yul\":23016:23019   */\n      dup3\n        /* \"#utility.yul\":22983:23020   */\n      tag_221\n      jump\t// in\n    tag_500:\n        /* \"#utility.yul\":23085:23103   */\n      0xffffffffffffffff\n        /* \"#utility.yul\":23077:23083   */\n      dup2\n        /* \"#utility.yul\":23074:23104   */\n      gt\n        /* \"#utility.yul\":23071:23127   */\n      iszero\n      tag_501\n      jumpi\n        /* \"#utility.yul\":23107:23125   */\n      tag_502\n      tag_205\n      jump\t// in\n    tag_502:\n        /* \"#utility.yul\":23071:23127   */\n    tag_501:\n        /* \"#utility.yul\":23151:23189   */\n      tag_503\n        /* \"#utility.yul\":23183:23187   */\n      dup3\n        /* \"#utility.yul\":23177:23188   */\n      sload\n        /* \"#utility.yul\":23151:23189   */\n      tag_141\n      jump\t// in\n    tag_503:\n        /* \"#utility.yul\":23236:23303   */\n      tag_504\n        /* \"#utility.yul\":23296:23302   */\n      dup3\n        /* \"#utility.yul\":23288:23294   */\n      dup3\n        /* \"#utility.yul\":23282:23286   */\n      dup6\n        /* \"#utility.yul\":23236:23303   */\n      tag_261\n      jump\t// in\n    tag_504:\n        /* \"#utility.yul\":23330:23331   */\n      0x00\n        /* \"#utility.yul\":23354:23358   */\n      0x20\n        /* \"#utility.yul\":23341:23358   */\n      swap1\n      pop\n        /* \"#utility.yul\":23386:23388   */\n      0x1f\n        /* \"#utility.yul\":23378:23384   */\n      dup4\n        /* \"#utility.yul\":23375:23389   */\n      gt\n        /* \"#utility.yul\":23403:23404   */\n      0x01\n        /* \"#utility.yul\":23398:24016   */\n      dup2\n      eq\n      tag_506\n      jumpi\n        /* \"#utility.yul\":24060:24061   */\n      0x00\n        /* \"#utility.yul\":24077:24083   */\n      dup5\n        /* \"#utility.yul\":24074:24151   */\n      iszero\n      tag_507\n      jumpi\n        /* \"#utility.yul\":24126:24135   */\n      dup3\n        /* \"#utility.yul\":24121:24124   */\n      dup8\n        /* \"#utility.yul\":24117:24136   */\n      add\n        /* \"#utility.yul\":24111:24137   */\n      mload\n        /* \"#utility.yul\":24102:24137   */\n      swap1\n      pop\n        /* \"#utility.yul\":24074:24151   */\n    tag_507:\n        /* \"#utility.yul\":24177:24244   */\n      tag_508\n        /* \"#utility.yul\":24237:24243   */\n      dup6\n        /* \"#utility.yul\":24230:24235   */\n      dup3\n        /* \"#utility.yul\":24177:24244   */\n      tag_264\n      jump\t// in\n    tag_508:\n        /* \"#utility.yul\":24171:24175   */\n      dup7\n        /* \"#utility.yul\":24164:24245   */\n      sstore\n        /* \"#utility.yul\":24033:24255   */\n      pop\n        /* \"#utility.yul\":23368:24255   */\n      jump(tag_505)\n        /* \"#utility.yul\":23398:24016   */\n    tag_506:\n        /* \"#utility.yul\":23450:23454   */\n      0x1f\n        /* \"#utility.yul\":23446:23455   */\n      not\n        /* \"#utility.yul\":23438:23444   */\n      dup5\n        /* \"#utility.yul\":23434:23456   */\n      and\n        /* \"#utility.yul\":23484:23521   */\n      tag_509\n        /* \"#utility.yul\":23516:23520   */\n      dup7\n        /* \"#utility.yul\":23484:23521   */\n      tag_250\n      jump\t// in\n    tag_509:\n        /* \"#utility.yul\":23543:23544   */\n      0x00\n        /* \"#utility.yul\":23557:23765   */\n    tag_510:\n        /* \"#utility.yul\":23571:23578   */\n      dup3\n        /* \"#utility.yul\":23568:23569   */\n      dup2\n        /* \"#utility.yul\":23565:23579   */\n      lt\n        /* \"#utility.yul\":23557:23765   */\n      iszero\n      tag_512\n      jumpi\n        /* \"#utility.yul\":23650:23659   */\n      dup5\n        /* \"#utility.yul\":23645:23648   */\n      dup10\n        /* \"#utility.yul\":23641:23660   */\n      add\n        /* \"#utility.yul\":23635:23661   */\n      mload\n        /* \"#utility.yul\":23627:23633   */\n      dup3\n        /* \"#utility.yul\":23620:23662   */\n      sstore\n        /* \"#utility.yul\":23701:23702   */\n      0x01\n        /* \"#utility.yul\":23693:23699   */\n      dup3\n        /* \"#utility.yul\":23689:23703   */\n      add\n        /* \"#utility.yul\":23679:23703   */\n      swap2\n      pop\n        /* \"#utility.yul\":23748:23750   */\n      0x20\n        /* \"#utility.yul\":23737:23746   */\n      dup6\n        /* \"#utility.yul\":23733:23751   */\n      add\n        /* \"#utility.yul\":23720:23751   */\n      swap5\n      pop\n        /* \"#utility.yul\":23594:23598   */\n      0x20\n        /* \"#utility.yul\":23591:23592   */\n      dup2\n        /* \"#utility.yul\":23587:23599   */\n      add\n        /* \"#utility.yul\":23582:23599   */\n      swap1\n      pop\n        /* \"#utility.yul\":23557:23765   */\n      jump(tag_510)\n    tag_512:\n        /* \"#utility.yul\":23793:23799   */\n      dup7\n        /* \"#utility.yul\":23784:23791   */\n      dup4\n        /* \"#utility.yul\":23781:23800   */\n      lt\n        /* \"#utility.yul\":23778:23957   */\n      iszero\n      tag_513\n      jumpi\n        /* \"#utility.yul\":23851:23860   */\n      dup5\n        /* \"#utility.yul\":23846:23849   */\n      dup10\n        /* \"#utility.yul\":23842:23861   */\n      add\n        /* \"#utility.yul\":23836:23862   */\n      mload\n        /* \"#utility.yul\":23894:23942   */\n      tag_514\n        /* \"#utility.yul\":23936:23940   */\n      0x1f\n        /* \"#utility.yul\":23928:23934   */\n      dup10\n        /* \"#utility.yul\":23924:23941   */\n      and\n        /* \"#utility.yul\":23913:23922   */\n      dup3\n        /* \"#utility.yul\":23894:23942   */\n      tag_263\n      jump\t// in\n    tag_514:\n        /* \"#utility.yul\":23886:23892   */\n      dup4\n        /* \"#utility.yul\":23879:23943   */\n      sstore\n        /* \"#utility.yul\":23801:23957   */\n      pop\n        /* \"#utility.yul\":23778:23957   */\n    tag_513:\n        /* \"#utility.yul\":24003:24004   */\n      0x01\n        /* \"#utility.yul\":23999:24000   */\n      0x02\n        /* \"#utility.yul\":23991:23997   */\n      dup9\n        /* \"#utility.yul\":23987:24001   */\n      mul\n        /* \"#utility.yul\":23983:24005   */\n      add\n        /* \"#utility.yul\":23977:23981   */\n      dup9\n        /* \"#utility.yul\":23970:24006   */\n      sstore\n        /* \"#utility.yul\":23405:24016   */\n      pop\n      pop\n      pop\n        /* \"#utility.yul\":23368:24255   */\n    tag_505:\n      pop\n        /* \"#utility.yul\":22958:24261   */\n      pop\n      pop\n      pop\n        /* \"#utility.yul\":22866:24261   */\n      pop\n      pop\n      jump\t// out\n        /* \"#utility.yul\":24267:24800   */\n    tag_182:\n        /* \"#utility.yul\":24436:24440   */\n      0x00\n        /* \"#utility.yul\":24474:24476   */\n      0x60\n        /* \"#utility.yul\":24463:24472   */\n      dup3\n        /* \"#utility.yul\":24459:24477   */\n      add\n        /* \"#utility.yul\":24451:24477   */\n      swap1\n      pop\n        /* \"#utility.yul\":24523:24532   */\n      dup2\n        /* \"#utility.yul\":24517:24521   */\n      dup2\n        /* \"#utility.yul\":24513:24533   */\n      sub\n        /* \"#utility.yul\":24509:24510   */\n      0x00\n        /* \"#utility.yul\":24498:24507   */\n      dup4\n        /* \"#utility.yul\":24494:24511   */\n      add\n        /* \"#utility.yul\":24487:24534   */\n      mstore\n        /* \"#utility.yul\":24551:24629   */\n      tag_516\n        /* \"#utility.yul\":24624:24628   */\n      dup2\n        /* \"#utility.yul\":24615:24621   */\n      dup7\n        /* \"#utility.yul\":24551:24629   */\n      tag_229\n      jump\t// in\n    tag_516:\n        /* \"#utility.yul\":24543:24629   */\n      swap1\n      pop\n        /* \"#utility.yul\":24639:24711   */\n      tag_517\n        /* \"#utility.yul\":24707:24709   */\n      0x20\n        /* \"#utility.yul\":24696:24705   */\n      dup4\n        /* \"#utility.yul\":24692:24710   */\n      add\n        /* \"#utility.yul\":24683:24689   */\n      dup6\n        /* \"#utility.yul\":24639:24711   */\n      tag_201\n      jump\t// in\n    tag_517:\n        /* \"#utility.yul\":24721:24793   */\n      tag_518\n        /* \"#utility.yul\":24789:24791   */\n      0x40\n        /* \"#utility.yul\":24778:24787   */\n      dup4\n        /* \"#utility.yul\":24774:24792   */\n      add\n        /* \"#utility.yul\":24765:24771   */\n      dup5\n        /* \"#utility.yul\":24721:24793   */\n      tag_237\n      jump\t// in\n    tag_518:\n        /* \"#utility.yul\":24267:24800   */\n      swap5\n      swap4\n      pop\n      pop\n      pop\n      pop\n      jump\t// out\n        /* \"#utility.yul\":24806:25229   */\n    tag_191:\n        /* \"#utility.yul\":24947:24951   */\n      0x00\n        /* \"#utility.yul\":24985:24987   */\n      0x40\n        /* \"#utility.yul\":24974:24983   */\n      dup3\n        /* \"#utility.yul\":24970:24988   */\n      add\n        /* \"#utility.yul\":24962:24988   */\n      swap1\n      pop\n        /* \"#utility.yul\":25034:25043   */\n      dup2\n        /* \"#utility.yul\":25028:25032   */\n      dup2\n        /* \"#utility.yul\":25024:25044   */\n      sub\n        /* \"#utility.yul\":25020:25021   */\n      0x00\n        /* \"#utility.yul\":25009:25018   */\n      dup4\n        /* \"#utility.yul\":25005:25022   */\n      add\n        /* \"#utility.yul\":24998:25045   */\n      mstore\n        /* \"#utility.yul\":25062:25140   */\n      tag_520\n        /* \"#utility.yul\":25135:25139   */\n      dup2\n        /* \"#utility.yul\":25126:25132   */\n      dup6\n        /* \"#utility.yul\":25062:25140   */\n      tag_229\n      jump\t// in\n    tag_520:\n        /* \"#utility.yul\":25054:25140   */\n      swap1\n      pop\n        /* \"#utility.yul\":25150:25222   */\n      tag_521\n        /* \"#utility.yul\":25218:25220   */\n      0x20\n        /* \"#utility.yul\":25207:25216   */\n      dup4\n        /* \"#utility.yul\":25203:25221   */\n      add\n        /* \"#utility.yul\":25194:25200   */\n      dup5\n        /* \"#utility.yul\":25150:25222   */\n      tag_201\n      jump\t// in\n    tag_521:\n        /* \"#utility.yul\":24806:25229   */\n      swap4\n      swap3\n      pop\n      pop\n      pop\n      jump\t// out\n        /* \"#utility.yul\":25235:25645   */\n    tag_194:\n        /* \"#utility.yul\":25275:25282   */\n      0x00\n        /* \"#utility.yul\":25298:25318   */\n      tag_523\n        /* \"#utility.yul\":25316:25317   */\n      dup3\n        /* \"#utility.yul\":25298:25318   */\n      tag_198\n      jump\t// in\n    tag_523:\n        /* \"#utility.yul\":25293:25318   */\n      swap2\n      pop\n        /* \"#utility.yul\":25332:25352   */\n      tag_524\n        /* \"#utility.yul\":25350:25351   */\n      dup4\n        /* \"#utility.yul\":25332:25352   */\n      tag_198\n      jump\t// in\n    tag_524:\n        /* \"#utility.yul\":25327:25352   */\n      swap3\n      pop\n        /* \"#utility.yul\":25387:25388   */\n      dup3\n        /* \"#utility.yul\":25384:25385   */\n      dup3\n        /* \"#utility.yul\":25380:25389   */\n      mul\n        /* \"#utility.yul\":25409:25439   */\n      tag_525\n        /* \"#utility.yul\":25427:25438   */\n      dup2\n        /* \"#utility.yul\":25409:25439   */\n      tag_198\n      jump\t// in\n    tag_525:\n        /* \"#utility.yul\":25398:25439   */\n      swap2\n      pop\n        /* \"#utility.yul\":25588:25589   */\n      dup3\n        /* \"#utility.yul\":25579:25586   */\n      dup3\n        /* \"#utility.yul\":25575:25590   */\n      div\n        /* \"#utility.yul\":25572:25573   */\n      dup5\n        /* \"#utility.yul\":25569:25591   */\n      eq\n        /* \"#utility.yul\":25549:25550   */\n      dup4\n        /* \"#utility.yul\":25542:25551   */\n      iszero\n        /* \"#utility.yul\":25522:25605   */\n      or\n        /* \"#utility.yul\":25499:25638   */\n      tag_526\n      jumpi\n        /* \"#utility.yul\":25618:25636   */\n      tag_527\n      tag_234\n      jump\t// in\n    tag_527:\n        /* \"#utility.yul\":25499:25638   */\n    tag_526:\n        /* \"#utility.yul\":25283:25645   */\n      pop\n        /* \"#utility.yul\":25235:25645   */\n      swap3\n      swap2\n      pop\n      pop\n      jump\t// out\n\n    auxdata: 0xa264697066735822122061e9323de979a03fc7e21eee1db6b98e5bb10856468dd432ce3ebf0e994d866f64736f6c63430008120033\n}\n\nsub_1: assembly {\n        /* \"RESORT/ERC20.sol\":861:3728  contract ERC20Basic is IERC20{... */\n      mstore(0x40, 0x80)\n        /* \"RESORT/ERC20.sol\":1303:1456  constructor (uint256 initialSupply){... */\n      callvalue\n      dup1\n      iszero\n      tag_1\n      jumpi\n      0x00\n      dup1\n      revert\n    tag_1:\n      pop\n      mload(0x40)\n      sub(codesize, bytecodeSize)\n      dup1\n      bytecodeSize\n      dup4\n      codecopy\n      dup2\n      dup2\n      add\n      0x40\n      mstore\n      dup2\n      add\n      swap1\n      tag_2\n      swap2\n      swap1\n      tag_3\n      jump\t// in\n    tag_2:\n        /* \"RESORT/ERC20.sol\":1356:1366  msg.sender */\n      caller\n        /* \"RESORT/ERC20.sol\":1348:1353  owner */\n      0x00\n      dup1\n        /* \"RESORT/ERC20.sol\":1348:1366  owner = msg.sender */\n      0x0100\n      exp\n      dup2\n      sload\n      dup2\n      0xffffffffffffffffffffffffffffffffffffffff\n      mul\n      not\n      and\n      swap1\n      dup4\n      0xffffffffffffffffffffffffffffffffffffffff\n      and\n      mul\n      or\n      swap1\n      sstore\n      pop\n        /* \"RESORT/ERC20.sol\":1391:1404  initialSupply */\n      dup1\n        /* \"RESORT/ERC20.sol\":1376:1388  totalSupply_ */\n      0x03\n        /* \"RESORT/ERC20.sol\":1376:1404  totalSupply_ = initialSupply */\n      dup2\n      swap1\n      sstore\n      pop\n        /* \"RESORT/ERC20.sol\":1437:1449  totalSupply_ */\n      sload(0x03)\n        /* \"RESORT/ERC20.sol\":1414:1422  balances */\n      0x01\n        /* \"RESORT/ERC20.sol\":1414:1434  balances[msg.sender] */\n      0x00\n        /* \"RESORT/ERC20.sol\":1423:1433  msg.sender */\n      caller\n        /* \"RESORT/ERC20.sol\":1414:1434  balances[msg.sender] */\n      0xffffffffffffffffffffffffffffffffffffffff\n      and\n      0xffffffffffffffffffffffffffffffffffffffff\n      and\n      dup2\n      mstore\n      0x20\n      add\n      swap1\n      dup2\n      mstore\n      0x20\n      add\n      0x00\n      keccak256\n        /* \"RESORT/ERC20.sol\":1414:1449  balances[msg.sender] = totalSupply_ */\n      dup2\n      swap1\n      sstore\n      pop\n        /* \"RESORT/ERC20.sol\":1303:1456  constructor (uint256 initialSupply){... */\n      pop\n        /* \"RESORT/ERC20.sol\":861:3728  contract ERC20Basic is IERC20{... */\n      jump(tag_6)\n        /* \"#utility.yul\":88:205   */\n    tag_8:\n        /* \"#utility.yul\":197:198   */\n      0x00\n        /* \"#utility.yul\":194:195   */\n      dup1\n        /* \"#utility.yul\":187:199   */\n      revert\n        /* \"#utility.yul\":334:411   */\n    tag_10:\n        /* \"#utility.yul\":371:378   */\n      0x00\n        /* \"#utility.yul\":400:405   */\n      dup2\n        /* \"#utility.yul\":389:405   */\n      swap1\n      pop\n        /* \"#utility.yul\":334:411   */\n      swap2\n      swap1\n      pop\n      jump\t// out\n        /* \"#utility.yul\":417:539   */\n    tag_11:\n        /* \"#utility.yul\":490:514   */\n      tag_19\n        /* \"#utility.yul\":508:513   */\n      dup2\n        /* \"#utility.yul\":490:514   */\n      tag_10\n      jump\t// in\n    tag_19:\n        /* \"#utility.yul\":483:488   */\n      dup2\n        /* \"#utility.yul\":480:515   */\n      eq\n        /* \"#utility.yul\":470:533   */\n      tag_20\n      jumpi\n        /* \"#utility.yul\":529:530   */\n      0x00\n        /* \"#utility.yul\":526:527   */\n      dup1\n        /* \"#utility.yul\":519:531   */\n      revert\n        /* \"#utility.yul\":470:533   */\n    tag_20:\n        /* \"#utility.yul\":417:539   */\n      pop\n      jump\t// out\n        /* \"#utility.yul\":545:688   */\n    tag_12:\n        /* \"#utility.yul\":602:607   */\n      0x00\n        /* \"#utility.yul\":633:639   */\n      dup2\n        /* \"#utility.yul\":627:640   */\n      mload\n        /* \"#utility.yul\":618:640   */\n      swap1\n      pop\n        /* \"#utility.yul\":649:682   */\n      tag_22\n        /* \"#utility.yul\":676:681   */\n      dup2\n        /* \"#utility.yul\":649:682   */\n      tag_11\n      jump\t// in\n    tag_22:\n        /* \"#utility.yul\":545:688   */\n      swap3\n      swap2\n      pop\n      pop\n      jump\t// out\n        /* \"#utility.yul\":694:1045   */\n    tag_3:\n        /* \"#utility.yul\":764:770   */\n      0x00\n        /* \"#utility.yul\":813:815   */\n      0x20\n        /* \"#utility.yul\":801:810   */\n      dup3\n        /* \"#utility.yul\":792:799   */\n      dup5\n        /* \"#utility.yul\":788:811   */\n      sub\n        /* \"#utility.yul\":784:816   */\n      slt\n        /* \"#utility.yul\":781:900   */\n      iszero\n      tag_24\n      jumpi\n        /* \"#utility.yul\":819:898   */\n      tag_25\n      tag_8\n      jump\t// in\n    tag_25:\n        /* \"#utility.yul\":781:900   */\n    tag_24:\n        /* \"#utility.yul\":939:940   */\n      0x00\n        /* \"#utility.yul\":964:1028   */\n      tag_26\n        /* \"#utility.yul\":1020:1027   */\n      dup5\n        /* \"#utility.yul\":1011:1017   */\n      dup3\n        /* \"#utility.yul\":1000:1009   */\n      dup6\n        /* \"#utility.yul\":996:1018   */\n      add\n        /* \"#utility.yul\":964:1028   */\n      tag_12\n      jump\t// in\n    tag_26:\n        /* \"#utility.yul\":954:1028   */\n      swap2\n      pop\n        /* \"#utility.yul\":910:1038   */\n      pop\n        /* \"#utility.yul\":694:1045   */\n      swap3\n      swap2\n      pop\n      pop\n      jump\t// out\n        /* \"RESORT/ERC20.sol\":861:3728  contract ERC20Basic is IERC20{... */\n    tag_6:\n      dataSize(sub_0)\n      dup1\n      dataOffset(sub_0)\n      0x00\n      codecopy\n      0x00\n      return\n    stop\n\n    sub_0: assembly {\n            /* \"RESORT/ERC20.sol\":861:3728  contract ERC20Basic is IERC20{... */\n          mstore(0x40, 0x80)\n          callvalue\n          dup1\n          iszero\n          tag_1\n          jumpi\n          0x00\n          dup1\n          revert\n        tag_1:\n          pop\n          jumpi(tag_2, lt(calldatasize, 0x04))\n          shr(0xe0, calldataload(0x00))\n          dup1\n          0x70a08231\n          gt\n          tag_15\n          jumpi\n          dup1\n          0x70a08231\n          eq\n          tag_9\n          jumpi\n          dup1\n          0x715018a6\n          eq\n          tag_10\n          jumpi\n          dup1\n          0x95d89b41\n          eq\n          tag_11\n          jumpi\n          dup1\n          0xa9059cbb\n          eq\n          tag_12\n          jumpi\n          dup1\n          0xdd62ed3e\n          eq\n          tag_13\n          jumpi\n          dup1\n          0xe0631f7f\n          eq\n          tag_14\n          jumpi\n          jump(tag_2)\n        tag_15:\n          dup1\n          0x06fdde03\n          eq\n          tag_3\n          jumpi\n          dup1\n          0x095ea7b3\n          eq\n          tag_4\n          jumpi\n          dup1\n          0x18160ddd\n          eq\n          tag_5\n          jumpi\n          dup1\n          0x1d43cc98\n          eq\n          tag_6\n          jumpi\n          dup1\n          0x23b872dd\n          eq\n          tag_7\n          jumpi\n          dup1\n          0x313ce567\n          eq\n          tag_8\n          jumpi\n        tag_2:\n          0x00\n          dup1\n          revert\n            /* \"RESORT/ERC20.sol\":897:935  string public constant name = \"Resort\" */\n        tag_3:\n          tag_16\n          tag_17\n          jump\t// in\n        tag_16:\n          mload(0x40)\n          tag_18\n          swap2\n          swap1\n          tag_19\n          jump\t// in\n        tag_18:\n          mload(0x40)\n          dup1\n          swap2\n          sub\n          swap1\n          return\n            /* \"RESORT/ERC20.sol\":2656:2934  function approve(address _delegate, uint256 _numTokens) public override returns (bool){... */\n        tag_4:\n          tag_20\n          0x04\n          dup1\n          calldatasize\n          sub\n          dup2\n          add\n          swap1\n          tag_21\n          swap2\n          swap1\n          tag_22\n          jump\t// in\n        tag_21:\n          tag_23\n          jump\t// in\n        tag_20:\n          mload(0x40)\n          tag_24\n          swap2\n          swap1\n          tag_25\n          jump\t// in\n        tag_24:\n          mload(0x40)\n          dup1\n          swap2\n          sub\n          swap1\n          return\n            /* \"RESORT/ERC20.sol\":1462:1559  function totalSupply() public override view returns (uint256){... */\n        tag_5:\n          tag_26\n          tag_27\n          jump\t// in\n        tag_26:\n          mload(0x40)\n          tag_28\n          swap2\n          swap1\n          tag_29\n          jump\t// in\n        tag_28:\n          mload(0x40)\n          dup1\n          swap2\n          sub\n          swap1\n          return\n            /* \"RESORT/ERC20.sol\":3556:3724  function increaseTotalSupply(uint _newTokensAmount) public onlyOwner{... */\n        tag_6:\n          tag_30\n          0x04\n          dup1\n          calldatasize\n          sub\n          dup2\n          add\n          swap1\n          tag_31\n          swap2\n          swap1\n          tag_32\n          jump\t// in\n        tag_31:\n          tag_33\n          jump\t// in\n        tag_30:\n          stop\n            /* \"RESORT/ERC20.sol\":2940:3436  function transferFrom(address _owner, address _buyer, uint256 _numTokens) public override returns (bool){... */\n        tag_7:\n          tag_34\n          0x04\n          dup1\n          calldatasize\n          sub\n          dup2\n          add\n          swap1\n          tag_35\n          swap2\n          swap1\n          tag_36\n          jump\t// in\n        tag_35:\n          tag_37\n          jump\t// in\n        tag_34:\n          mload(0x40)\n          tag_38\n          swap2\n          swap1\n          tag_25\n          jump\t// in\n        tag_38:\n          mload(0x40)\n          dup1\n          swap2\n          sub\n          swap1\n          return\n            /* \"RESORT/ERC20.sol\":984:1019  uint8 public constant decimals = 18 */\n        tag_8:\n          tag_39\n          tag_40\n          jump\t// in\n        tag_39:\n          mload(0x40)\n          tag_41\n          swap2\n          swap1\n          tag_42\n          jump\t// in\n        tag_41:\n          mload(0x40)\n          dup1\n          swap2\n          sub\n          swap1\n          return\n            /* \"RESORT/ERC20.sol\":1565:1687  function balanceOf(address _tokenOwner) public override view returns(uint256){... */\n        tag_9:\n          tag_43\n          0x04\n          dup1\n          calldatasize\n          sub\n          dup2\n          add\n          swap1\n          tag_44\n          swap2\n          swap1\n          tag_45\n          jump\t// in\n        tag_44:\n          tag_46\n          jump\t// in\n        tag_43:\n          mload(0x40)\n          tag_47\n          swap2\n          swap1\n          tag_29\n          jump\t// in\n        tag_47:\n          mload(0x40)\n          dup1\n          swap2\n          sub\n          swap1\n          return\n            /* \"RESORT/ERC20.sol\":3469:3549  function renounceOwnership() public onlyOwner{... */\n        tag_10:\n          tag_48\n          tag_49\n          jump\t// in\n        tag_48:\n          stop\n            /* \"RESORT/ERC20.sol\":941:978  string public constant symbol = \"RST\" */\n        tag_11:\n          tag_50\n          tag_51\n          jump\t// in\n        tag_50:\n          mload(0x40)\n          tag_52\n          swap2\n          swap1\n          tag_19\n          jump\t// in\n        tag_52:\n          mload(0x40)\n          dup1\n          swap2\n          sub\n          swap1\n          return\n            /* \"RESORT/ERC20.sol\":1870:2234  function transfer(address _recipient, uint256 _numTokens) public override returns (bool){... */\n        tag_12:\n          tag_53\n          0x04\n          dup1\n          calldatasize\n          sub\n          dup2\n          add\n          swap1\n          tag_54\n          swap2\n          swap1\n          tag_22\n          jump\t// in\n        tag_54:\n          tag_55\n          jump\t// in\n        tag_53:\n          mload(0x40)\n          tag_56\n          swap2\n          swap1\n          tag_25\n          jump\t// in\n        tag_56:\n          mload(0x40)\n          dup1\n          swap2\n          sub\n          swap1\n          return\n            /* \"RESORT/ERC20.sol\":1693:1834  function allowance(address _owner, address _delegate) public override view returns(uint256){... */\n        tag_13:\n          tag_57\n          0x04\n          dup1\n          calldatasize\n          sub\n          dup2\n          add\n          swap1\n          tag_58\n          swap2\n          swap1\n          tag_59\n          jump\t// in\n        tag_58:\n          tag_60\n          jump\t// in\n        tag_57:\n          mload(0x40)\n          tag_61\n          swap2\n          swap1\n          tag_29\n          jump\t// in\n        tag_61:\n          mload(0x40)\n          dup1\n          swap2\n          sub\n          swap1\n          return\n            /* \"RESORT/ERC20.sol\":2268:2650  function transferFromClient(address _client, address _recipient, uint256 _numTokens) public override returns (bool){... */\n        tag_14:\n          tag_62\n          0x04\n          dup1\n          calldatasize\n          sub\n          dup2\n          add\n          swap1\n          tag_63\n          swap2\n          swap1\n          tag_36\n          jump\t// in\n        tag_63:\n          tag_64\n          jump\t// in\n        tag_62:\n          mload(0x40)\n          tag_65\n          swap2\n          swap1\n          tag_25\n          jump\t// in\n        tag_65:\n          mload(0x40)\n          dup1\n          swap2\n          sub\n          swap1\n          return\n            /* \"RESORT/ERC20.sol\":897:935  string public constant name = \"Resort\" */\n        tag_17:\n          mload(0x40)\n          dup1\n          0x40\n          add\n          0x40\n          mstore\n          dup1\n          0x06\n          dup2\n          mstore\n          0x20\n          add\n          0x5265736f72740000000000000000000000000000000000000000000000000000\n          dup2\n          mstore\n          pop\n          dup2\n          jump\t// out\n            /* \"RESORT/ERC20.sol\":2656:2934  function approve(address _delegate, uint256 _numTokens) public override returns (bool){... */\n        tag_23:\n            /* \"RESORT/ERC20.sol\":2737:2741  bool */\n          0x00\n            /* \"RESORT/ERC20.sol\":2774:2782  balances */\n          0x01\n            /* \"RESORT/ERC20.sol\":2774:2794  balances[msg.sender] */\n          0x00\n            /* \"RESORT/ERC20.sol\":2783:2793  msg.sender */\n          caller\n            /* \"RESORT/ERC20.sol\":2774:2794  balances[msg.sender] */\n          0xffffffffffffffffffffffffffffffffffffffff\n          and\n          0xffffffffffffffffffffffffffffffffffffffff\n          and\n          dup2\n          mstore\n          0x20\n          add\n          swap1\n          dup2\n          mstore\n          0x20\n          add\n          0x00\n          keccak256\n          sload\n            /* \"RESORT/ERC20.sol\":2760:2770  _numTokens */\n          dup3\n            /* \"RESORT/ERC20.sol\":2760:2794  _numTokens <= balances[msg.sender] */\n          gt\n          iszero\n            /* \"RESORT/ERC20.sol\":2752:2795  require(_numTokens <= balances[msg.sender]) */\n          tag_67\n          jumpi\n          0x00\n          dup1\n          revert\n        tag_67:\n            /* \"RESORT/ERC20.sol\":2838:2848  _numTokens */\n          dup2\n            /* \"RESORT/ERC20.sol\":2805:2812  allowed */\n          0x02\n            /* \"RESORT/ERC20.sol\":2805:2824  allowed[msg.sender] */\n          0x00\n            /* \"RESORT/ERC20.sol\":2813:2823  msg.sender */\n          caller\n            /* \"RESORT/ERC20.sol\":2805:2824  allowed[msg.sender] */\n          0xffffffffffffffffffffffffffffffffffffffff\n          and\n          0xffffffffffffffffffffffffffffffffffffffff\n          and\n          dup2\n          mstore\n          0x20\n          add\n          swap1\n          dup2\n          mstore\n          0x20\n          add\n          0x00\n          keccak256\n            /* \"RESORT/ERC20.sol\":2805:2835  allowed[msg.sender][_delegate] */\n          0x00\n            /* \"RESORT/ERC20.sol\":2825:2834  _delegate */\n          dup6\n            /* \"RESORT/ERC20.sol\":2805:2835  allowed[msg.sender][_delegate] */\n          0xffffffffffffffffffffffffffffffffffffffff\n          and\n          0xffffffffffffffffffffffffffffffffffffffff\n          and\n          dup2\n          mstore\n          0x20\n          add\n          swap1\n          dup2\n          mstore\n          0x20\n          add\n          0x00\n          keccak256\n            /* \"RESORT/ERC20.sol\":2805:2848  allowed[msg.sender][_delegate] = _numTokens */\n          dup2\n          swap1\n          sstore\n          pop\n            /* \"RESORT/ERC20.sol\":2884:2893  _delegate */\n          dup3\n            /* \"RESORT/ERC20.sol\":2863:2906  Approval(msg.sender, _delegate, _numTokens) */\n          0xffffffffffffffffffffffffffffffffffffffff\n          and\n            /* \"RESORT/ERC20.sol\":2872:2882  msg.sender */\n          caller\n            /* \"RESORT/ERC20.sol\":2863:2906  Approval(msg.sender, _delegate, _numTokens) */\n          0xffffffffffffffffffffffffffffffffffffffff\n          and\n          0x8c5be1e5ebec7d5bd14f71427d1e84f3dd0314c0f7b2291e5b200ac8c7c3b925\n            /* \"RESORT/ERC20.sol\":2895:2905  _numTokens */\n          dup5\n            /* \"RESORT/ERC20.sol\":2863:2906  Approval(msg.sender, _delegate, _numTokens) */\n          mload(0x40)\n          tag_68\n          swap2\n          swap1\n          tag_29\n          jump\t// in\n        tag_68:\n          mload(0x40)\n          dup1\n          swap2\n          sub\n          swap1\n          log3\n            /* \"RESORT/ERC20.sol\":2923:2927  true */\n          0x01\n            /* \"RESORT/ERC20.sol\":2916:2927  return true */\n          swap1\n          pop\n            /* \"RESORT/ERC20.sol\":2656:2934  function approve(address _delegate, uint256 _numTokens) public override returns (bool){... */\n          swap3\n          swap2\n          pop\n          pop\n          jump\t// out\n            /* \"RESORT/ERC20.sol\":1462:1559  function totalSupply() public override view returns (uint256){... */\n        tag_27:\n            /* \"RESORT/ERC20.sol\":1515:1522  uint256 */\n          0x00\n            /* \"RESORT/ERC20.sol\":1540:1552  totalSupply_ */\n          sload(0x03)\n            /* \"RESORT/ERC20.sol\":1533:1552  return totalSupply_ */\n          swap1\n          pop\n            /* \"RESORT/ERC20.sol\":1462:1559  function totalSupply() public override view returns (uint256){... */\n          swap1\n          jump\t// out\n            /* \"RESORT/ERC20.sol\":3556:3724  function increaseTotalSupply(uint _newTokensAmount) public onlyOwner{... */\n        tag_33:\n            /* \"RESORT/ERC20.sol\":1252:1262  msg.sender */\n          caller\n            /* \"RESORT/ERC20.sol\":1243:1262  owner == msg.sender */\n          0xffffffffffffffffffffffffffffffffffffffff\n          and\n            /* \"RESORT/ERC20.sol\":1243:1248  owner */\n          0x00\n          dup1\n          sload\n          swap1\n          0x0100\n          exp\n          swap1\n          div\n          0xffffffffffffffffffffffffffffffffffffffff\n          and\n            /* \"RESORT/ERC20.sol\":1243:1262  owner == msg.sender */\n          0xffffffffffffffffffffffffffffffffffffffff\n          and\n          eq\n            /* \"RESORT/ERC20.sol\":1235:1279  require(owner == msg.sender,\"Must be Owner\") */\n          tag_71\n          jumpi\n          mload(0x40)\n          0x08c379a000000000000000000000000000000000000000000000000000000000\n          dup2\n          mstore\n          0x04\n          add\n          tag_72\n          swap1\n          tag_73\n          jump\t// in\n        tag_72:\n          mload(0x40)\n          dup1\n          swap2\n          sub\n          swap1\n          revert\n        tag_71:\n            /* \"RESORT/ERC20.sol\":3651:3667  _newTokensAmount */\n          dup1\n            /* \"RESORT/ERC20.sol\":3634:3646  totalSupply_ */\n          0x03\n          0x00\n            /* \"RESORT/ERC20.sol\":3634:3667  totalSupply_ +=  _newTokensAmount */\n          dup3\n          dup3\n          sload\n          tag_75\n          swap2\n          swap1\n          tag_76\n          jump\t// in\n        tag_75:\n          swap3\n          pop\n          pop\n          dup2\n          swap1\n          sstore\n          pop\n            /* \"RESORT/ERC20.sol\":3701:3717  _newTokensAmount */\n          dup1\n            /* \"RESORT/ERC20.sol\":3677:3685  balances */\n          0x01\n            /* \"RESORT/ERC20.sol\":3677:3697  balances[msg.sender] */\n          0x00\n            /* \"RESORT/ERC20.sol\":3686:3696  msg.sender */\n          caller\n            /* \"RESORT/ERC20.sol\":3677:3697  balances[msg.sender] */\n          0xffffffffffffffffffffffffffffffffffffffff\n          and\n          0xffffffffffffffffffffffffffffffffffffffff\n          and\n          dup2\n          mstore\n          0x20\n          add\n          swap1\n          dup2\n          mstore\n          0x20\n          add\n          0x00\n          keccak256\n          0x00\n            /* \"RESORT/ERC20.sol\":3677:3717  balances[msg.sender] += _newTokensAmount */\n          dup3\n          dup3\n          sload\n          tag_77\n          swap2\n          swap1\n          tag_76\n          jump\t// in\n        tag_77:\n          swap3\n          pop\n          pop\n          dup2\n          swap1\n          sstore\n          pop\n            /* \"RESORT/ERC20.sol\":3556:3724  function increaseTotalSupply(uint _newTokensAmount) public onlyOwner{... */\n          pop\n          jump\t// out\n            /* \"RESORT/ERC20.sol\":2940:3436  function transferFrom(address _owner, address _buyer, uint256 _numTokens) public override returns (bool){... */\n        tag_37:\n            /* \"RESORT/ERC20.sol\":3039:3043  bool */\n          0x00\n            /* \"RESORT/ERC20.sol\":3076:3084  balances */\n          0x01\n            /* \"RESORT/ERC20.sol\":3076:3092  balances[_owner] */\n          0x00\n            /* \"RESORT/ERC20.sol\":3085:3091  _owner */\n          dup6\n            /* \"RESORT/ERC20.sol\":3076:3092  balances[_owner] */\n          0xffffffffffffffffffffffffffffffffffffffff\n          and\n          0xffffffffffffffffffffffffffffffffffffffff\n          and\n          dup2\n          mstore\n          0x20\n          add\n          swap1\n          dup2\n          mstore\n          0x20\n          add\n          0x00\n          keccak256\n          sload\n            /* \"RESORT/ERC20.sol\":3062:3072  _numTokens */\n          dup3\n            /* \"RESORT/ERC20.sol\":3062:3092  _numTokens <= balances[_owner] */\n          gt\n          iszero\n            /* \"RESORT/ERC20.sol\":3054:3093  require(_numTokens <= balances[_owner]) */\n          tag_79\n          jumpi\n          0x00\n          dup1\n          revert\n        tag_79:\n            /* \"RESORT/ERC20.sol\":3125:3132  allowed */\n          0x02\n            /* \"RESORT/ERC20.sol\":3125:3140  allowed[_owner] */\n          0x00\n            /* \"RESORT/ERC20.sol\":3133:3139  _owner */\n          dup6\n            /* \"RESORT/ERC20.sol\":3125:3140  allowed[_owner] */\n          0xffffffffffffffffffffffffffffffffffffffff\n          and\n          0xffffffffffffffffffffffffffffffffffffffff\n          and\n          dup2\n          mstore\n          0x20\n          add\n          swap1\n          dup2\n          mstore\n          0x20\n          add\n          0x00\n          keccak256\n            /* \"RESORT/ERC20.sol\":3125:3152  allowed[_owner][msg.sender] */\n          0x00\n            /* \"RESORT/ERC20.sol\":3141:3151  msg.sender */\n          caller\n            /* \"RESORT/ERC20.sol\":3125:3152  allowed[_owner][msg.sender] */\n          0xffffffffffffffffffffffffffffffffffffffff\n          and\n          0xffffffffffffffffffffffffffffffffffffffff\n          and\n          dup2\n          mstore\n          0x20\n          add\n          swap1\n          dup2\n          mstore\n          0x20\n          add\n          0x00\n          keccak256\n          sload\n            /* \"RESORT/ERC20.sol\":3111:3121  _numTokens */\n          dup3\n            /* \"RESORT/ERC20.sol\":3111:3152  _numTokens <= allowed[_owner][msg.sender] */\n          gt\n          iszero\n            /* \"RESORT/ERC20.sol\":3103:3153  require(_numTokens <= allowed[_owner][msg.sender]) */\n          tag_80\n          jumpi\n          0x00\n          dup1\n          revert\n        tag_80:\n            /* \"RESORT/ERC20.sol\":3182:3214  balances[_owner].sub(_numTokens) */\n          tag_81\n            /* \"RESORT/ERC20.sol\":3203:3213  _numTokens */\n          dup3\n            /* \"RESORT/ERC20.sol\":3182:3190  balances */\n          0x01\n            /* \"RESORT/ERC20.sol\":3182:3198  balances[_owner] */\n          0x00\n            /* \"RESORT/ERC20.sol\":3191:3197  _owner */\n          dup8\n            /* \"RESORT/ERC20.sol\":3182:3198  balances[_owner] */\n          0xffffffffffffffffffffffffffffffffffffffff\n          and\n          0xffffffffffffffffffffffffffffffffffffffff\n          and\n          dup2\n          mstore\n          0x20\n          add\n          swap1\n          dup2\n          mstore\n          0x20\n          add\n          0x00\n          keccak256\n          sload\n            /* \"RESORT/ERC20.sol\":3182:3202  balances[_owner].sub */\n          tag_82\n          swap1\n            /* \"RESORT/ERC20.sol\":3182:3214  balances[_owner].sub(_numTokens) */\n          swap2\n          swap1\n          0xffffffff\n          and\n          jump\t// in\n        tag_81:\n            /* \"RESORT/ERC20.sol\":3163:3171  balances */\n          0x01\n            /* \"RESORT/ERC20.sol\":3163:3179  balances[_owner] */\n          0x00\n            /* \"RESORT/ERC20.sol\":3172:3178  _owner */\n          dup7\n            /* \"RESORT/ERC20.sol\":3163:3179  balances[_owner] */\n          0xffffffffffffffffffffffffffffffffffffffff\n          and\n          0xffffffffffffffffffffffffffffffffffffffff\n          and\n          dup2\n          mstore\n          0x20\n          add\n          swap1\n          dup2\n          mstore\n          0x20\n          add\n          0x00\n          keccak256\n            /* \"RESORT/ERC20.sol\":3163:3214  balances[_owner] = balances[_owner].sub(_numTokens) */\n          dup2\n          swap1\n          sstore\n          pop\n            /* \"RESORT/ERC20.sol\":3254:3297  allowed[_owner][msg.sender].sub(_numTokens) */\n          tag_83\n            /* \"RESORT/ERC20.sol\":3286:3296  _numTokens */\n          dup3\n            /* \"RESORT/ERC20.sol\":3254:3261  allowed */\n          0x02\n            /* \"RESORT/ERC20.sol\":3254:3269  allowed[_owner] */\n          0x00\n            /* \"RESORT/ERC20.sol\":3262:3268  _owner */\n          dup8\n            /* \"RESORT/ERC20.sol\":3254:3269  allowed[_owner] */\n          0xffffffffffffffffffffffffffffffffffffffff\n          and\n          0xffffffffffffffffffffffffffffffffffffffff\n          and\n          dup2\n          mstore\n          0x20\n          add\n          swap1\n          dup2\n          mstore\n          0x20\n          add\n          0x00\n          keccak256\n            /* \"RESORT/ERC20.sol\":3254:3281  allowed[_owner][msg.sender] */\n          0x00\n            /* \"RESORT/ERC20.sol\":3270:3280  msg.sender */\n          caller\n            /* \"RESORT/ERC20.sol\":3254:3281  allowed[_owner][msg.sender] */\n          0xffffffffffffffffffffffffffffffffffffffff\n          and\n          0xffffffffffffffffffffffffffffffffffffffff\n          and\n          dup2\n          mstore\n          0x20\n          add\n          swap1\n          dup2\n          mstore\n          0x20\n          add\n          0x00\n          keccak256\n          sload\n            /* \"RESORT/ERC20.sol\":3254:3285  allowed[_owner][msg.sender].sub */\n          tag_82\n          swap1\n            /* \"RESORT/ERC20.sol\":3254:3297  allowed[_owner][msg.sender].sub(_numTokens) */\n          swap2\n          swap1\n          0xffffffff\n          and\n          jump\t// in\n        tag_83:\n            /* \"RESORT/ERC20.sol\":3224:3231  allowed */\n          0x02\n            /* \"RESORT/ERC20.sol\":3224:3239  allowed[_owner] */\n          0x00\n            /* \"RESORT/ERC20.sol\":3232:3238  _owner */\n          dup7\n            /* \"RESORT/ERC20.sol\":3224:3239  allowed[_owner] */\n          0xffffffffffffffffffffffffffffffffffffffff\n          and\n          0xffffffffffffffffffffffffffffffffffffffff\n          and\n          dup2\n          mstore\n          0x20\n          add\n          swap1\n          dup2\n          mstore\n          0x20\n          add\n          0x00\n          keccak256\n            /* \"RESORT/ERC20.sol\":3224:3251  allowed[_owner][msg.sender] */\n          0x00\n            /* \"RESORT/ERC20.sol\":3240:3250  msg.sender */\n          caller\n            /* \"RESORT/ERC20.sol\":3224:3251  allowed[_owner][msg.sender] */\n          0xffffffffffffffffffffffffffffffffffffffff\n          and\n          0xffffffffffffffffffffffffffffffffffffffff\n          and\n          dup2\n          mstore\n          0x20\n          add\n          swap1\n          dup2\n          mstore\n          0x20\n          add\n          0x00\n          keccak256\n            /* \"RESORT/ERC20.sol\":3224:3297  allowed[_owner][msg.sender] = allowed[_owner][msg.sender].sub(_numTokens) */\n          dup2\n          swap1\n          sstore\n          pop\n            /* \"RESORT/ERC20.sol\":3326:3358  balances[_buyer].add(_numTokens) */\n          tag_84\n            /* \"RESORT/ERC20.sol\":3347:3357  _numTokens */\n          dup3\n            /* \"RESORT/ERC20.sol\":3326:3334  balances */\n          0x01\n            /* \"RESORT/ERC20.sol\":3326:3342  balances[_buyer] */\n          0x00\n            /* \"RESORT/ERC20.sol\":3335:3341  _buyer */\n          dup7\n            /* \"RESORT/ERC20.sol\":3326:3342  balances[_buyer] */\n          0xffffffffffffffffffffffffffffffffffffffff\n          and\n          0xffffffffffffffffffffffffffffffffffffffff\n          and\n          dup2\n          mstore\n          0x20\n          add\n          swap1\n          dup2\n          mstore\n          0x20\n          add\n          0x00\n          keccak256\n          sload\n            /* \"RESORT/ERC20.sol\":3326:3346  balances[_buyer].add */\n          tag_85\n          swap1\n            /* \"RESORT/ERC20.sol\":3326:3358  balances[_buyer].add(_numTokens) */\n          swap2\n          swap1\n          0xffffffff\n          and\n          jump\t// in\n        tag_84:\n            /* \"RESORT/ERC20.sol\":3307:3315  balances */\n          0x01\n            /* \"RESORT/ERC20.sol\":3307:3323  balances[_buyer] */\n          0x00\n            /* \"RESORT/ERC20.sol\":3316:3322  _buyer */\n          dup6\n            /* \"RESORT/ERC20.sol\":3307:3323  balances[_buyer] */\n          0xffffffffffffffffffffffffffffffffffffffff\n          and\n          0xffffffffffffffffffffffffffffffffffffffff\n          and\n          dup2\n          mstore\n          0x20\n          add\n          swap1\n          dup2\n          mstore\n          0x20\n          add\n          0x00\n          keccak256\n            /* \"RESORT/ERC20.sol\":3307:3358  balances[_buyer] = balances[_buyer].add(_numTokens) */\n          dup2\n          swap1\n          sstore\n          pop\n            /* \"RESORT/ERC20.sol\":3389:3395  _buyer */\n          dup3\n            /* \"RESORT/ERC20.sol\":3373:3407  Transfer(_owner,_buyer,_numTokens) */\n          0xffffffffffffffffffffffffffffffffffffffff\n          and\n            /* \"RESORT/ERC20.sol\":3382:3388  _owner */\n          dup5\n            /* \"RESORT/ERC20.sol\":3373:3407  Transfer(_owner,_buyer,_numTokens) */\n          0xffffffffffffffffffffffffffffffffffffffff\n          and\n          0xddf252ad1be2c89b69c2b068fc378daa952ba7f163c4a11628f55a4df523b3ef\n            /* \"RESORT/ERC20.sol\":3396:3406  _numTokens */\n          dup5\n            /* \"RESORT/ERC20.sol\":3373:3407  Transfer(_owner,_buyer,_numTokens) */\n          mload(0x40)\n          tag_86\n          swap2\n          swap1\n          tag_29\n          jump\t// in\n        tag_86:\n          mload(0x40)\n          dup1\n          swap2\n          sub\n          swap1\n          log3\n            /* \"RESORT/ERC20.sol\":3424:3429  false */\n          0x00\n            /* \"RESORT/ERC20.sol\":3417:3429  return false */\n          swap1\n          pop\n            /* \"RESORT/ERC20.sol\":2940:3436  function transferFrom(address _owner, address _buyer, uint256 _numTokens) public override returns (bool){... */\n          swap4\n          swap3\n          pop\n          pop\n          pop\n          jump\t// out\n            /* \"RESORT/ERC20.sol\":984:1019  uint8 public constant decimals = 18 */\n        tag_40:\n            /* \"RESORT/ERC20.sol\":1017:1019  18 */\n          0x12\n            /* \"RESORT/ERC20.sol\":984:1019  uint8 public constant decimals = 18 */\n          dup2\n          jump\t// out\n            /* \"RESORT/ERC20.sol\":1565:1687  function balanceOf(address _tokenOwner) public override view returns(uint256){... */\n        tag_46:\n            /* \"RESORT/ERC20.sol\":1634:1641  uint256 */\n          0x00\n            /* \"RESORT/ERC20.sol\":1659:1667  balances */\n          0x01\n            /* \"RESORT/ERC20.sol\":1659:1680  balances[_tokenOwner] */\n          0x00\n            /* \"RESORT/ERC20.sol\":1668:1679  _tokenOwner */\n          dup4\n            /* \"RESORT/ERC20.sol\":1659:1680  balances[_tokenOwner] */\n          0xffffffffffffffffffffffffffffffffffffffff\n          and\n          0xffffffffffffffffffffffffffffffffffffffff\n          and\n          dup2\n          mstore\n          0x20\n          add\n          swap1\n          dup2\n          mstore\n          0x20\n          add\n          0x00\n          keccak256\n          sload\n            /* \"RESORT/ERC20.sol\":1652:1680  return balances[_tokenOwner] */\n          swap1\n          pop\n            /* \"RESORT/ERC20.sol\":1565:1687  function balanceOf(address _tokenOwner) public override view returns(uint256){... */\n          swap2\n          swap1\n          pop\n          jump\t// out\n            /* \"RESORT/ERC20.sol\":3469:3549  function renounceOwnership() public onlyOwner{... */\n        tag_49:\n            /* \"RESORT/ERC20.sol\":1252:1262  msg.sender */\n          caller\n            /* \"RESORT/ERC20.sol\":1243:1262  owner == msg.sender */\n          0xffffffffffffffffffffffffffffffffffffffff\n          and\n            /* \"RESORT/ERC20.sol\":1243:1248  owner */\n          0x00\n          dup1\n          sload\n          swap1\n          0x0100\n          exp\n          swap1\n          div\n          0xffffffffffffffffffffffffffffffffffffffff\n          and\n            /* \"RESORT/ERC20.sol\":1243:1262  owner == msg.sender */\n          0xffffffffffffffffffffffffffffffffffffffff\n          and\n          eq\n            /* \"RESORT/ERC20.sol\":1235:1279  require(owner == msg.sender,\"Must be Owner\") */\n          tag_89\n          jumpi\n          mload(0x40)\n          0x08c379a000000000000000000000000000000000000000000000000000000000\n          dup2\n          mstore\n          0x04\n          add\n          tag_90\n          swap1\n          tag_73\n          jump\t// in\n        tag_90:\n          mload(0x40)\n          dup1\n          swap2\n          sub\n          swap1\n          revert\n        tag_89:\n            /* \"RESORT/ERC20.sol\":3540:3541  0 */\n          0x00\n            /* \"RESORT/ERC20.sol\":3524:3529  owner */\n          dup1\n          0x00\n            /* \"RESORT/ERC20.sol\":3524:3542  owner = address(0) */\n          0x0100\n          exp\n          dup2\n          sload\n          dup2\n          0xffffffffffffffffffffffffffffffffffffffff\n          mul\n          not\n          and\n          swap1\n          dup4\n          0xffffffffffffffffffffffffffffffffffffffff\n          and\n          mul\n          or\n          swap1\n          sstore\n          pop\n            /* \"RESORT/ERC20.sol\":3469:3549  function renounceOwnership() public onlyOwner{... */\n          jump\t// out\n            /* \"RESORT/ERC20.sol\":941:978  string public constant symbol = \"RST\" */\n        tag_51:\n          mload(0x40)\n          dup1\n          0x40\n          add\n          0x40\n          mstore\n          dup1\n          0x03\n          dup2\n          mstore\n          0x20\n          add\n          0x5253540000000000000000000000000000000000000000000000000000000000\n          dup2\n          mstore\n          pop\n          dup2\n          jump\t// out\n            /* \"RESORT/ERC20.sol\":1870:2234  function transfer(address _recipient, uint256 _numTokens) public override returns (bool){... */\n        tag_55:\n            /* \"RESORT/ERC20.sol\":1953:1957  bool */\n          0x00\n            /* \"RESORT/ERC20.sol\":1990:1998  balances */\n          0x01\n            /* \"RESORT/ERC20.sol\":1990:2010  balances[msg.sender] */\n          0x00\n            /* \"RESORT/ERC20.sol\":1999:2009  msg.sender */\n          caller\n            /* \"RESORT/ERC20.sol\":1990:2010  balances[msg.sender] */\n          0xffffffffffffffffffffffffffffffffffffffff\n          and\n          0xffffffffffffffffffffffffffffffffffffffff\n          and\n          dup2\n          mstore\n          0x20\n          add\n          swap1\n          dup2\n          mstore\n          0x20\n          add\n          0x00\n          keccak256\n          sload\n            /* \"RESORT/ERC20.sol\":1976:1986  _numTokens */\n          dup3\n            /* \"RESORT/ERC20.sol\":1976:2010  _numTokens <= balances[msg.sender] */\n          gt\n          iszero\n            /* \"RESORT/ERC20.sol\":1968:2011  require(_numTokens <= balances[msg.sender]) */\n          tag_93\n          jumpi\n          0x00\n          dup1\n          revert\n        tag_93:\n            /* \"RESORT/ERC20.sol\":2044:2080  balances[msg.sender].sub(_numTokens) */\n          tag_94\n            /* \"RESORT/ERC20.sol\":2069:2079  _numTokens */\n          dup3\n            /* \"RESORT/ERC20.sol\":2044:2052  balances */\n          0x01\n            /* \"RESORT/ERC20.sol\":2044:2064  balances[msg.sender] */\n          0x00\n            /* \"RESORT/ERC20.sol\":2053:2063  msg.sender */\n          caller\n            /* \"RESORT/ERC20.sol\":2044:2064  balances[msg.sender] */\n          0xffffffffffffffffffffffffffffffffffffffff\n          and\n          0xffffffffffffffffffffffffffffffffffffffff\n          and\n          dup2\n          mstore\n          0x20\n          add\n          swap1\n          dup2\n          mstore\n          0x20\n          add\n          0x00\n          keccak256\n          sload\n            /* \"RESORT/ERC20.sol\":2044:2068  balances[msg.sender].sub */\n          tag_82\n          swap1\n            /* \"RESORT/ERC20.sol\":2044:2080  balances[msg.sender].sub(_numTokens) */\n          swap2\n          swap1\n          0xffffffff\n          and\n          jump\t// in\n        tag_94:\n            /* \"RESORT/ERC20.sol\":2021:2029  balances */\n          0x01\n            /* \"RESORT/ERC20.sol\":2021:2041  balances[msg.sender] */\n          0x00\n            /* \"RESORT/ERC20.sol\":2030:2040  msg.sender */\n          caller\n            /* \"RESORT/ERC20.sol\":2021:2041  balances[msg.sender] */\n          0xffffffffffffffffffffffffffffffffffffffff\n          and\n          0xffffffffffffffffffffffffffffffffffffffff\n          and\n          dup2\n          mstore\n          0x20\n          add\n          swap1\n          dup2\n          mstore\n          0x20\n          add\n          0x00\n          keccak256\n            /* \"RESORT/ERC20.sol\":2021:2080  balances[msg.sender] = balances[msg.sender].sub(_numTokens) */\n          dup2\n          swap1\n          sstore\n          pop\n            /* \"RESORT/ERC20.sol\":2113:2149  balances[_recipient].add(_numTokens) */\n          tag_95\n            /* \"RESORT/ERC20.sol\":2138:2148  _numTokens */\n          dup3\n            /* \"RESORT/ERC20.sol\":2113:2121  balances */\n          0x01\n            /* \"RESORT/ERC20.sol\":2113:2133  balances[_recipient] */\n          0x00\n            /* \"RESORT/ERC20.sol\":2122:2132  _recipient */\n          dup7\n            /* \"RESORT/ERC20.sol\":2113:2133  balances[_recipient] */\n          0xffffffffffffffffffffffffffffffffffffffff\n          and\n          0xffffffffffffffffffffffffffffffffffffffff\n          and\n          dup2\n          mstore\n          0x20\n          add\n          swap1\n          dup2\n          mstore\n          0x20\n          add\n          0x00\n          keccak256\n          sload\n            /* \"RESORT/ERC20.sol\":2113:2137  balances[_recipient].add */\n          tag_85\n          swap1\n            /* \"RESORT/ERC20.sol\":2113:2149  balances[_recipient].add(_numTokens) */\n          swap2\n          swap1\n          0xffffffff\n          and\n          jump\t// in\n        tag_95:\n            /* \"RESORT/ERC20.sol\":2090:2098  balances */\n          0x01\n            /* \"RESORT/ERC20.sol\":2090:2110  balances[_recipient] */\n          0x00\n            /* \"RESORT/ERC20.sol\":2099:2109  _recipient */\n          dup6\n            /* \"RESORT/ERC20.sol\":2090:2110  balances[_recipient] */\n          0xffffffffffffffffffffffffffffffffffffffff\n          and\n          0xffffffffffffffffffffffffffffffffffffffff\n          and\n          dup2\n          mstore\n          0x20\n          add\n          swap1\n          dup2\n          mstore\n          0x20\n          add\n          0x00\n          keccak256\n            /* \"RESORT/ERC20.sol\":2090:2149  balances[_recipient] = balances[_recipient].add(_numTokens) */\n          dup2\n          swap1\n          sstore\n          pop\n            /* \"RESORT/ERC20.sol\":2184:2194  _recipient */\n          dup3\n            /* \"RESORT/ERC20.sol\":2164:2206  Transfer(msg.sender,_recipient,_numTokens) */\n          0xffffffffffffffffffffffffffffffffffffffff\n          and\n            /* \"RESORT/ERC20.sol\":2173:2183  msg.sender */\n          caller\n            /* \"RESORT/ERC20.sol\":2164:2206  Transfer(msg.sender,_recipient,_numTokens) */\n          0xffffffffffffffffffffffffffffffffffffffff\n          and\n          0xddf252ad1be2c89b69c2b068fc378daa952ba7f163c4a11628f55a4df523b3ef\n            /* \"RESORT/ERC20.sol\":2195:2205  _numTokens */\n          dup5\n            /* \"RESORT/ERC20.sol\":2164:2206  Transfer(msg.sender,_recipient,_numTokens) */\n          mload(0x40)\n          tag_96\n          swap2\n          swap1\n          tag_29\n          jump\t// in\n        tag_96:\n          mload(0x40)\n          dup1\n          swap2\n          sub\n          swap1\n          log3\n            /* \"RESORT/ERC20.sol\":2223:2227  true */\n          0x01\n            /* \"RESORT/ERC20.sol\":2216:2227  return true */\n          swap1\n          pop\n            /* \"RESORT/ERC20.sol\":1870:2234  function transfer(address _recipient, uint256 _numTokens) public override returns (bool){... */\n          swap3\n          swap2\n          pop\n          pop\n          jump\t// out\n            /* \"RESORT/ERC20.sol\":1693:1834  function allowance(address _owner, address _delegate) public override view returns(uint256){... */\n        tag_60:\n            /* \"RESORT/ERC20.sol\":1776:1783  uint256 */\n          0x00\n            /* \"RESORT/ERC20.sol\":1801:1808  allowed */\n          0x02\n            /* \"RESORT/ERC20.sol\":1801:1816  allowed[_owner] */\n          0x00\n            /* \"RESORT/ERC20.sol\":1809:1815  _owner */\n          dup5\n            /* \"RESORT/ERC20.sol\":1801:1816  allowed[_owner] */\n          0xffffffffffffffffffffffffffffffffffffffff\n          and\n          0xffffffffffffffffffffffffffffffffffffffff\n          and\n          dup2\n          mstore\n          0x20\n          add\n          swap1\n          dup2\n          mstore\n          0x20\n          add\n          0x00\n          keccak256\n            /* \"RESORT/ERC20.sol\":1801:1827  allowed[_owner][_delegate] */\n          0x00\n            /* \"RESORT/ERC20.sol\":1817:1826  _delegate */\n          dup4\n            /* \"RESORT/ERC20.sol\":1801:1827  allowed[_owner][_delegate] */\n          0xffffffffffffffffffffffffffffffffffffffff\n          and\n          0xffffffffffffffffffffffffffffffffffffffff\n          and\n          dup2\n          mstore\n          0x20\n          add\n          swap1\n          dup2\n          mstore\n          0x20\n          add\n          0x00\n          keccak256\n          sload\n            /* \"RESORT/ERC20.sol\":1794:1827  return allowed[_owner][_delegate] */\n          swap1\n          pop\n            /* \"RESORT/ERC20.sol\":1693:1834  function allowance(address _owner, address _delegate) public override view returns(uint256){... */\n          swap3\n          swap2\n          pop\n          pop\n          jump\t// out\n            /* \"RESORT/ERC20.sol\":2268:2650  function transferFromClient(address _client, address _recipient, uint256 _numTokens) public override returns (bool){... */\n        tag_64:\n            /* \"RESORT/ERC20.sol\":2378:2382  bool */\n          0x00\n            /* \"RESORT/ERC20.sol\":2415:2423  balances */\n          0x01\n            /* \"RESORT/ERC20.sol\":2415:2432  balances[_client] */\n          0x00\n            /* \"RESORT/ERC20.sol\":2424:2431  _client */\n          dup6\n            /* \"RESORT/ERC20.sol\":2415:2432  balances[_client] */\n          0xffffffffffffffffffffffffffffffffffffffff\n          and\n          0xffffffffffffffffffffffffffffffffffffffff\n          and\n          dup2\n          mstore\n          0x20\n          add\n          swap1\n          dup2\n          mstore\n          0x20\n          add\n          0x00\n          keccak256\n          sload\n            /* \"RESORT/ERC20.sol\":2401:2411  _numTokens */\n          dup3\n            /* \"RESORT/ERC20.sol\":2401:2432  _numTokens <= balances[_client] */\n          gt\n          iszero\n            /* \"RESORT/ERC20.sol\":2393:2433  require(_numTokens <= balances[_client]) */\n          tag_99\n          jumpi\n          0x00\n          dup1\n          revert\n        tag_99:\n            /* \"RESORT/ERC20.sol\":2463:2496  balances[_client].sub(_numTokens) */\n          tag_100\n            /* \"RESORT/ERC20.sol\":2485:2495  _numTokens */\n          dup3\n            /* \"RESORT/ERC20.sol\":2463:2471  balances */\n          0x01\n            /* \"RESORT/ERC20.sol\":2463:2480  balances[_client] */\n          0x00\n            /* \"RESORT/ERC20.sol\":2472:2479  _client */\n          dup8\n            /* \"RESORT/ERC20.sol\":2463:2480  balances[_client] */\n          0xffffffffffffffffffffffffffffffffffffffff\n          and\n          0xffffffffffffffffffffffffffffffffffffffff\n          and\n          dup2\n          mstore\n          0x20\n          add\n          swap1\n          dup2\n          mstore\n          0x20\n          add\n          0x00\n          keccak256\n          sload\n            /* \"RESORT/ERC20.sol\":2463:2484  balances[_client].sub */\n          tag_82\n          swap1\n            /* \"RESORT/ERC20.sol\":2463:2496  balances[_client].sub(_numTokens) */\n          swap2\n          swap1\n          0xffffffff\n          and\n          jump\t// in\n        tag_100:\n            /* \"RESORT/ERC20.sol\":2443:2451  balances */\n          0x01\n            /* \"RESORT/ERC20.sol\":2443:2460  balances[_client] */\n          0x00\n            /* \"RESORT/ERC20.sol\":2452:2459  _client */\n          dup7\n            /* \"RESORT/ERC20.sol\":2443:2460  balances[_client] */\n          0xffffffffffffffffffffffffffffffffffffffff\n          and\n          0xffffffffffffffffffffffffffffffffffffffff\n          and\n          dup2\n          mstore\n          0x20\n          add\n          swap1\n          dup2\n          mstore\n          0x20\n          add\n          0x00\n          keccak256\n            /* \"RESORT/ERC20.sol\":2443:2496  balances[_client] = balances[_client].sub(_numTokens) */\n          dup2\n          swap1\n          sstore\n          pop\n            /* \"RESORT/ERC20.sol\":2529:2565  balances[_recipient].add(_numTokens) */\n          tag_101\n            /* \"RESORT/ERC20.sol\":2554:2564  _numTokens */\n          dup3\n            /* \"RESORT/ERC20.sol\":2529:2537  balances */\n          0x01\n            /* \"RESORT/ERC20.sol\":2529:2549  balances[_recipient] */\n          0x00\n            /* \"RESORT/ERC20.sol\":2538:2548  _recipient */\n          dup7\n            /* \"RESORT/ERC20.sol\":2529:2549  balances[_recipient] */\n          0xffffffffffffffffffffffffffffffffffffffff\n          and\n          0xffffffffffffffffffffffffffffffffffffffff\n          and\n          dup2\n          mstore\n          0x20\n          add\n          swap1\n          dup2\n          mstore\n          0x20\n          add\n          0x00\n          keccak256\n          sload\n            /* \"RESORT/ERC20.sol\":2529:2553  balances[_recipient].add */\n          tag_85\n          swap1\n            /* \"RESORT/ERC20.sol\":2529:2565  balances[_recipient].add(_numTokens) */\n          swap2\n          swap1\n          0xffffffff\n          and\n          jump\t// in\n        tag_101:\n            /* \"RESORT/ERC20.sol\":2506:2514  balances */\n          0x01\n            /* \"RESORT/ERC20.sol\":2506:2526  balances[_recipient] */\n          0x00\n            /* \"RESORT/ERC20.sol\":2515:2525  _recipient */\n          dup6\n            /* \"RESORT/ERC20.sol\":2506:2526  balances[_recipient] */\n          0xffffffffffffffffffffffffffffffffffffffff\n          and\n          0xffffffffffffffffffffffffffffffffffffffff\n          and\n          dup2\n          mstore\n          0x20\n          add\n          swap1\n          dup2\n          mstore\n          0x20\n          add\n          0x00\n          keccak256\n            /* \"RESORT/ERC20.sol\":2506:2565  balances[_recipient] = balances[_recipient].add(_numTokens) */\n          dup2\n          swap1\n          sstore\n          pop\n            /* \"RESORT/ERC20.sol\":2600:2610  _recipient */\n          dup3\n            /* \"RESORT/ERC20.sol\":2580:2622  Transfer(msg.sender,_recipient,_numTokens) */\n          0xffffffffffffffffffffffffffffffffffffffff\n          and\n            /* \"RESORT/ERC20.sol\":2589:2599  msg.sender */\n          caller\n            /* \"RESORT/ERC20.sol\":2580:2622  Transfer(msg.sender,_recipient,_numTokens) */\n          0xffffffffffffffffffffffffffffffffffffffff\n          and\n          0xddf252ad1be2c89b69c2b068fc378daa952ba7f163c4a11628f55a4df523b3ef\n            /* \"RESORT/ERC20.sol\":2611:2621  _numTokens */\n          dup5\n            /* \"RESORT/ERC20.sol\":2580:2622  Transfer(msg.sender,_recipient,_numTokens) */\n          mload(0x40)\n          tag_102\n          swap2\n          swap1\n          tag_29\n          jump\t// in\n        tag_102:\n          mload(0x40)\n          dup1\n          swap2\n          sub\n          swap1\n          log3\n            /* \"RESORT/ERC20.sol\":2639:2643  true */\n          0x01\n            /* \"RESORT/ERC20.sol\":2632:2643  return true */\n          swap1\n          pop\n            /* \"RESORT/ERC20.sol\":2268:2650  function transferFromClient(address _client, address _recipient, uint256 _numTokens) public override returns (bool){... */\n          swap4\n          swap3\n          pop\n          pop\n          pop\n          jump\t// out\n            /* \"RESORT/SafeMath.sol\":867:977  function sub(uint256 a, uint256 b) internal pure returns (uint256) {... */\n        tag_82:\n            /* \"RESORT/SafeMath.sol\":925:932  uint256 */\n          0x00\n            /* \"RESORT/SafeMath.sol\":952:953  a */\n          dup3\n            /* \"RESORT/SafeMath.sol\":947:948  b */\n          dup3\n            /* \"RESORT/SafeMath.sol\":947:953  b <= a */\n          gt\n          iszero\n            /* \"RESORT/SafeMath.sol\":940:954  assert(b <= a) */\n          tag_104\n          jumpi\n          tag_105\n          tag_106\n          jump\t// in\n        tag_105:\n        tag_104:\n            /* \"RESORT/SafeMath.sol\":971:972  b */\n          dup2\n            /* \"RESORT/SafeMath.sol\":967:968  a */\n          dup4\n            /* \"RESORT/SafeMath.sol\":967:972  a - b */\n          tag_107\n          swap2\n          swap1\n          tag_108\n          jump\t// in\n        tag_107:\n            /* \"RESORT/SafeMath.sol\":960:972  return a - b */\n          swap1\n          pop\n            /* \"RESORT/SafeMath.sol\":867:977  function sub(uint256 a, uint256 b) internal pure returns (uint256) {... */\n          swap3\n          swap2\n          pop\n          pop\n          jump\t// out\n            /* \"RESORT/SafeMath.sol\":1039:1162  function add(uint256 a, uint256 b) internal pure returns (uint256 c) {... */\n        tag_85:\n            /* \"RESORT/SafeMath.sol\":1097:1106  uint256 c */\n          0x00\n            /* \"RESORT/SafeMath.sol\":1122:1123  b */\n          dup2\n            /* \"RESORT/SafeMath.sol\":1118:1119  a */\n          dup4\n            /* \"RESORT/SafeMath.sol\":1118:1123  a + b */\n          tag_110\n          swap2\n          swap1\n          tag_76\n          jump\t// in\n        tag_110:\n            /* \"RESORT/SafeMath.sol\":1114:1123  c = a + b */\n          swap1\n          pop\n            /* \"RESORT/SafeMath.sol\":1141:1142  a */\n          dup3\n            /* \"RESORT/SafeMath.sol\":1136:1137  c */\n          dup2\n            /* \"RESORT/SafeMath.sol\":1136:1142  c >= a */\n          lt\n          iszero\n            /* \"RESORT/SafeMath.sol\":1129:1143  assert(c >= a) */\n          tag_111\n          jumpi\n          tag_112\n          tag_106\n          jump\t// in\n        tag_112:\n        tag_111:\n            /* \"RESORT/SafeMath.sol\":1039:1162  function add(uint256 a, uint256 b) internal pure returns (uint256 c) {... */\n          swap3\n          swap2\n          pop\n          pop\n          jump\t// out\n            /* \"#utility.yul\":7:106   */\n        tag_113:\n            /* \"#utility.yul\":59:65   */\n          0x00\n            /* \"#utility.yul\":93:98   */\n          dup2\n            /* \"#utility.yul\":87:99   */\n          mload\n            /* \"#utility.yul\":77:99   */\n          swap1\n          pop\n            /* \"#utility.yul\":7:106   */\n          swap2\n          swap1\n          pop\n          jump\t// out\n            /* \"#utility.yul\":112:281   */\n        tag_114:\n            /* \"#utility.yul\":196:207   */\n          0x00\n            /* \"#utility.yul\":230:236   */\n          dup3\n            /* \"#utility.yul\":225:228   */\n          dup3\n            /* \"#utility.yul\":218:237   */\n          mstore\n            /* \"#utility.yul\":270:274   */\n          0x20\n            /* \"#utility.yul\":265:268   */\n          dup3\n            /* \"#utility.yul\":261:275   */\n          add\n            /* \"#utility.yul\":246:275   */\n          swap1\n          pop\n            /* \"#utility.yul\":112:281   */\n          swap3\n          swap2\n          pop\n          pop\n          jump\t// out\n            /* \"#utility.yul\":287:533   */\n        tag_115:\n            /* \"#utility.yul\":368:369   */\n          0x00\n            /* \"#utility.yul\":378:491   */\n        tag_140:\n            /* \"#utility.yul\":392:398   */\n          dup4\n            /* \"#utility.yul\":389:390   */\n          dup2\n            /* \"#utility.yul\":386:399   */\n          lt\n            /* \"#utility.yul\":378:491   */\n          iszero\n          tag_142\n          jumpi\n            /* \"#utility.yul\":477:478   */\n          dup1\n            /* \"#utility.yul\":472:475   */\n          dup3\n            /* \"#utility.yul\":468:479   */\n          add\n            /* \"#utility.yul\":462:480   */\n          mload\n            /* \"#utility.yul\":458:459   */\n          dup2\n            /* \"#utility.yul\":453:456   */\n          dup5\n            /* \"#utility.yul\":449:460   */\n          add\n            /* \"#utility.yul\":442:481   */\n          mstore\n            /* \"#utility.yul\":414:416   */\n          0x20\n            /* \"#utility.yul\":411:412   */\n          dup2\n            /* \"#utility.yul\":407:417   */\n          add\n            /* \"#utility.yul\":402:417   */\n          swap1\n          pop\n            /* \"#utility.yul\":378:491   */\n          jump(tag_140)\n        tag_142:\n            /* \"#utility.yul\":525:526   */\n          0x00\n            /* \"#utility.yul\":516:522   */\n          dup5\n            /* \"#utility.yul\":511:514   */\n          dup5\n            /* \"#utility.yul\":507:523   */\n          add\n            /* \"#utility.yul\":500:527   */\n          mstore\n            /* \"#utility.yul\":349:533   */\n          pop\n            /* \"#utility.yul\":287:533   */\n          pop\n          pop\n          pop\n          jump\t// out\n            /* \"#utility.yul\":539:641   */\n        tag_116:\n            /* \"#utility.yul\":580:586   */\n          0x00\n            /* \"#utility.yul\":631:633   */\n          0x1f\n            /* \"#utility.yul\":627:634   */\n          not\n            /* \"#utility.yul\":622:624   */\n          0x1f\n            /* \"#utility.yul\":615:620   */\n          dup4\n            /* \"#utility.yul\":611:625   */\n          add\n            /* \"#utility.yul\":607:635   */\n          and\n            /* \"#utility.yul\":597:635   */\n          swap1\n          pop\n            /* \"#utility.yul\":539:641   */\n          swap2\n          swap1\n          pop\n          jump\t// out\n            /* \"#utility.yul\":647:1024   */\n        tag_117:\n            /* \"#utility.yul\":735:738   */\n          0x00\n            /* \"#utility.yul\":763:802   */\n          tag_145\n            /* \"#utility.yul\":796:801   */\n          dup3\n            /* \"#utility.yul\":763:802   */\n          tag_113\n          jump\t// in\n        tag_145:\n            /* \"#utility.yul\":818:889   */\n          tag_146\n            /* \"#utility.yul\":882:888   */\n          dup2\n            /* \"#utility.yul\":877:880   */\n          dup6\n            /* \"#utility.yul\":818:889   */\n          tag_114\n          jump\t// in\n        tag_146:\n            /* \"#utility.yul\":811:889   */\n          swap4\n          pop\n            /* \"#utility.yul\":898:963   */\n          tag_147\n            /* \"#utility.yul\":956:962   */\n          dup2\n            /* \"#utility.yul\":951:954   */\n          dup6\n            /* \"#utility.yul\":944:948   */\n          0x20\n            /* \"#utility.yul\":937:942   */\n          dup7\n            /* \"#utility.yul\":933:949   */\n          add\n            /* \"#utility.yul\":898:963   */\n          tag_115\n          jump\t// in\n        tag_147:\n            /* \"#utility.yul\":988:1017   */\n          tag_148\n            /* \"#utility.yul\":1010:1016   */\n          dup2\n            /* \"#utility.yul\":988:1017   */\n          tag_116\n          jump\t// in\n        tag_148:\n            /* \"#utility.yul\":983:986   */\n          dup5\n            /* \"#utility.yul\":979:1018   */\n          add\n            /* \"#utility.yul\":972:1018   */\n          swap2\n          pop\n            /* \"#utility.yul\":739:1024   */\n          pop\n            /* \"#utility.yul\":647:1024   */\n          swap3\n          swap2\n          pop\n          pop\n          jump\t// out\n            /* \"#utility.yul\":1030:1343   */\n        tag_19:\n            /* \"#utility.yul\":1143:1147   */\n          0x00\n            /* \"#utility.yul\":1181:1183   */\n          0x20\n            /* \"#utility.yul\":1170:1179   */\n          dup3\n            /* \"#utility.yul\":1166:1184   */\n          add\n            /* \"#utility.yul\":1158:1184   */\n          swap1\n          pop\n            /* \"#utility.yul\":1230:1239   */\n          dup2\n            /* \"#utility.yul\":1224:1228   */\n          dup2\n            /* \"#utility.yul\":1220:1240   */\n          sub\n            /* \"#utility.yul\":1216:1217   */\n          0x00\n            /* \"#utility.yul\":1205:1214   */\n          dup4\n            /* \"#utility.yul\":1201:1218   */\n          add\n            /* \"#utility.yul\":1194:1241   */\n          mstore\n            /* \"#utility.yul\":1258:1336   */\n          tag_150\n            /* \"#utility.yul\":1331:1335   */\n          dup2\n            /* \"#utility.yul\":1322:1328   */\n          dup5\n            /* \"#utility.yul\":1258:1336   */\n          tag_117\n          jump\t// in\n        tag_150:\n            /* \"#utility.yul\":1250:1336   */\n          swap1\n          pop\n            /* \"#utility.yul\":1030:1343   */\n          swap3\n          swap2\n          pop\n          pop\n          jump\t// out\n            /* \"#utility.yul\":1430:1547   */\n        tag_119:\n            /* \"#utility.yul\":1539:1540   */\n          0x00\n            /* \"#utility.yul\":1536:1537   */\n          dup1\n            /* \"#utility.yul\":1529:1541   */\n          revert\n            /* \"#utility.yul\":1676:1802   */\n        tag_121:\n            /* \"#utility.yul\":1713:1720   */\n          0x00\n            /* \"#utility.yul\":1753:1795   */\n          0xffffffffffffffffffffffffffffffffffffffff\n            /* \"#utility.yul\":1746:1751   */\n          dup3\n            /* \"#utility.yul\":1742:1796   */\n          and\n            /* \"#utility.yul\":1731:1796   */\n          swap1\n          pop\n            /* \"#utility.yul\":1676:1802   */\n          swap2\n          swap1\n          pop\n          jump\t// out\n            /* \"#utility.yul\":1808:1904   */\n        tag_122:\n            /* \"#utility.yul\":1845:1852   */\n          0x00\n            /* \"#utility.yul\":1874:1898   */\n          tag_156\n            /* \"#utility.yul\":1892:1897   */\n          dup3\n            /* \"#utility.yul\":1874:1898   */\n          tag_121\n          jump\t// in\n        tag_156:\n            /* \"#utility.yul\":1863:1898   */\n          swap1\n          pop\n            /* \"#utility.yul\":1808:1904   */\n          swap2\n          swap1\n          pop\n          jump\t// out\n            /* \"#utility.yul\":1910:2032   */\n        tag_123:\n            /* \"#utility.yul\":1983:2007   */\n          tag_158\n            /* \"#utility.yul\":2001:2006   */\n          dup2\n            /* \"#utility.yul\":1983:2007   */\n          tag_122\n          jump\t// in\n        tag_158:\n            /* \"#utility.yul\":1976:1981   */\n          dup2\n            /* \"#utility.yul\":1973:2008   */\n          eq\n            /* \"#utility.yul\":1963:2026   */\n          tag_159\n          jumpi\n            /* \"#utility.yul\":2022:2023   */\n          0x00\n            /* \"#utility.yul\":2019:2020   */\n          dup1\n            /* \"#utility.yul\":2012:2024   */\n          revert\n            /* \"#utility.yul\":1963:2026   */\n        tag_159:\n            /* \"#utility.yul\":1910:2032   */\n          pop\n          jump\t// out\n            /* \"#utility.yul\":2038:2177   */\n        tag_124:\n            /* \"#utility.yul\":2084:2089   */\n          0x00\n            /* \"#utility.yul\":2122:2128   */\n          dup2\n            /* \"#utility.yul\":2109:2129   */\n          calldataload\n            /* \"#utility.yul\":2100:2129   */\n          swap1\n          pop\n            /* \"#utility.yul\":2138:2171   */\n          tag_161\n            /* \"#utility.yul\":2165:2170   */\n          dup2\n            /* \"#utility.yul\":2138:2171   */\n          tag_123\n          jump\t// in\n        tag_161:\n            /* \"#utility.yul\":2038:2177   */\n          swap3\n          swap2\n          pop\n          pop\n          jump\t// out\n            /* \"#utility.yul\":2183:2260   */\n        tag_125:\n            /* \"#utility.yul\":2220:2227   */\n          0x00\n            /* \"#utility.yul\":2249:2254   */\n          dup2\n            /* \"#utility.yul\":2238:2254   */\n          swap1\n          pop\n            /* \"#utility.yul\":2183:2260   */\n          swap2\n          swap1\n          pop\n          jump\t// out\n            /* \"#utility.yul\":2266:2388   */\n        tag_126:\n            /* \"#utility.yul\":2339:2363   */\n          tag_164\n            /* \"#utility.yul\":2357:2362   */\n          dup2\n            /* \"#utility.yul\":2339:2363   */\n          tag_125\n          jump\t// in\n        tag_164:\n            /* \"#utility.yul\":2332:2337   */\n          dup2\n            /* \"#utility.yul\":2329:2364   */\n          eq\n            /* \"#utility.yul\":2319:2382   */\n          tag_165\n          jumpi\n            /* \"#utility.yul\":2378:2379   */\n          0x00\n            /* \"#utility.yul\":2375:2376   */\n          dup1\n            /* \"#utility.yul\":2368:2380   */\n          revert\n            /* \"#utility.yul\":2319:2382   */\n        tag_165:\n            /* \"#utility.yul\":2266:2388   */\n          pop\n          jump\t// out\n            /* \"#utility.yul\":2394:2533   */\n        tag_127:\n            /* \"#utility.yul\":2440:2445   */\n          0x00\n            /* \"#utility.yul\":2478:2484   */\n          dup2\n            /* \"#utility.yul\":2465:2485   */\n          calldataload\n            /* \"#utility.yul\":2456:2485   */\n          swap1\n          pop\n            /* \"#utility.yul\":2494:2527   */\n          tag_167\n            /* \"#utility.yul\":2521:2526   */\n          dup2\n            /* \"#utility.yul\":2494:2527   */\n          tag_126\n          jump\t// in\n        tag_167:\n            /* \"#utility.yul\":2394:2533   */\n          swap3\n          swap2\n          pop\n          pop\n          jump\t// out\n            /* \"#utility.yul\":2539:3013   */\n        tag_22:\n            /* \"#utility.yul\":2607:2613   */\n          0x00\n            /* \"#utility.yul\":2615:2621   */\n          dup1\n            /* \"#utility.yul\":2664:2666   */\n          0x40\n            /* \"#utility.yul\":2652:2661   */\n          dup4\n            /* \"#utility.yul\":2643:2650   */\n          dup6\n            /* \"#utility.yul\":2639:2662   */\n          sub\n            /* \"#utility.yul\":2635:2667   */\n          slt\n            /* \"#utility.yul\":2632:2751   */\n          iszero\n          tag_169\n          jumpi\n            /* \"#utility.yul\":2670:2749   */\n          tag_170\n          tag_119\n          jump\t// in\n        tag_170:\n            /* \"#utility.yul\":2632:2751   */\n        tag_169:\n            /* \"#utility.yul\":2790:2791   */\n          0x00\n            /* \"#utility.yul\":2815:2868   */\n          tag_171\n            /* \"#utility.yul\":2860:2867   */\n          dup6\n            /* \"#utility.yul\":2851:2857   */\n          dup3\n            /* \"#utility.yul\":2840:2849   */\n          dup7\n            /* \"#utility.yul\":2836:2858   */\n          add\n            /* \"#utility.yul\":2815:2868   */\n          tag_124\n          jump\t// in\n        tag_171:\n            /* \"#utility.yul\":2805:2868   */\n          swap3\n          pop\n            /* \"#utility.yul\":2761:2878   */\n          pop\n            /* \"#utility.yul\":2917:2919   */\n          0x20\n            /* \"#utility.yul\":2943:2996   */\n          tag_172\n            /* \"#utility.yul\":2988:2995   */\n          dup6\n            /* \"#utility.yul\":2979:2985   */\n          dup3\n            /* \"#utility.yul\":2968:2977   */\n          dup7\n            /* \"#utility.yul\":2964:2986   */\n          add\n            /* \"#utility.yul\":2943:2996   */\n          tag_127\n          jump\t// in\n        tag_172:\n            /* \"#utility.yul\":2933:2996   */\n          swap2\n          pop\n            /* \"#utility.yul\":2888:3006   */\n          pop\n            /* \"#utility.yul\":2539:3013   */\n          swap3\n          pop\n          swap3\n          swap1\n          pop\n          jump\t// out\n            /* \"#utility.yul\":3019:3109   */\n        tag_128:\n            /* \"#utility.yul\":3053:3060   */\n          0x00\n            /* \"#utility.yul\":3096:3101   */\n          dup2\n            /* \"#utility.yul\":3089:3102   */\n          iszero\n            /* \"#utility.yul\":3082:3103   */\n          iszero\n            /* \"#utility.yul\":3071:3103   */\n          swap1\n          pop\n            /* \"#utility.yul\":3019:3109   */\n          swap2\n          swap1\n          pop\n          jump\t// out\n            /* \"#utility.yul\":3115:3224   */\n        tag_129:\n            /* \"#utility.yul\":3196:3217   */\n          tag_175\n            /* \"#utility.yul\":3211:3216   */\n          dup2\n            /* \"#utility.yul\":3196:3217   */\n          tag_128\n          jump\t// in\n        tag_175:\n            /* \"#utility.yul\":3191:3194   */\n          dup3\n            /* \"#utility.yul\":3184:3218   */\n          mstore\n            /* \"#utility.yul\":3115:3224   */\n          pop\n          pop\n          jump\t// out\n            /* \"#utility.yul\":3230:3440   */\n        tag_25:\n            /* \"#utility.yul\":3317:3321   */\n          0x00\n            /* \"#utility.yul\":3355:3357   */\n          0x20\n            /* \"#utility.yul\":3344:3353   */\n          dup3\n            /* \"#utility.yul\":3340:3358   */\n          add\n            /* \"#utility.yul\":3332:3358   */\n          swap1\n          pop\n            /* \"#utility.yul\":3368:3433   */\n          tag_177\n            /* \"#utility.yul\":3430:3431   */\n          0x00\n            /* \"#utility.yul\":3419:3428   */\n          dup4\n            /* \"#utility.yul\":3415:3432   */\n          add\n            /* \"#utility.yul\":3406:3412   */\n          dup5\n            /* \"#utility.yul\":3368:3433   */\n          tag_129\n          jump\t// in\n        tag_177:\n            /* \"#utility.yul\":3230:3440   */\n          swap3\n          swap2\n          pop\n          pop\n          jump\t// out\n            /* \"#utility.yul\":3446:3564   */\n        tag_130:\n            /* \"#utility.yul\":3533:3557   */\n          tag_179\n            /* \"#utility.yul\":3551:3556   */\n          dup2\n            /* \"#utility.yul\":3533:3557   */\n          tag_125\n          jump\t// in\n        tag_179:\n            /* \"#utility.yul\":3528:3531   */\n          dup3\n            /* \"#utility.yul\":3521:3558   */\n          mstore\n            /* \"#utility.yul\":3446:3564   */\n          pop\n          pop\n          jump\t// out\n            /* \"#utility.yul\":3570:3792   */\n        tag_29:\n            /* \"#utility.yul\":3663:3667   */\n          0x00\n            /* \"#utility.yul\":3701:3703   */\n          0x20\n            /* \"#utility.yul\":3690:3699   */\n          dup3\n            /* \"#utility.yul\":3686:3704   */\n          add\n            /* \"#utility.yul\":3678:3704   */\n          swap1\n          pop\n            /* \"#utility.yul\":3714:3785   */\n          tag_181\n            /* \"#utility.yul\":3782:3783   */\n          0x00\n            /* \"#utility.yul\":3771:3780   */\n          dup4\n            /* \"#utility.yul\":3767:3784   */\n          add\n            /* \"#utility.yul\":3758:3764   */\n          dup5\n            /* \"#utility.yul\":3714:3785   */\n          tag_130\n          jump\t// in\n        tag_181:\n            /* \"#utility.yul\":3570:3792   */\n          swap3\n          swap2\n          pop\n          pop\n          jump\t// out\n            /* \"#utility.yul\":3798:4127   */\n        tag_32:\n            /* \"#utility.yul\":3857:3863   */\n          0x00\n            /* \"#utility.yul\":3906:3908   */\n          0x20\n            /* \"#utility.yul\":3894:3903   */\n          dup3\n            /* \"#utility.yul\":3885:3892   */\n          dup5\n            /* \"#utility.yul\":3881:3904   */\n          sub\n            /* \"#utility.yul\":3877:3909   */\n          slt\n            /* \"#utility.yul\":3874:3993   */\n          iszero\n          tag_183\n          jumpi\n            /* \"#utility.yul\":3912:3991   */\n          tag_184\n          tag_119\n          jump\t// in\n        tag_184:\n            /* \"#utility.yul\":3874:3993   */\n        tag_183:\n            /* \"#utility.yul\":4032:4033   */\n          0x00\n            /* \"#utility.yul\":4057:4110   */\n          tag_185\n            /* \"#utility.yul\":4102:4109   */\n          dup5\n            /* \"#utility.yul\":4093:4099   */\n          dup3\n            /* \"#utility.yul\":4082:4091   */\n          dup6\n            /* \"#utility.yul\":4078:4100   */\n          add\n            /* \"#utility.yul\":4057:4110   */\n          tag_127\n          jump\t// in\n        tag_185:\n            /* \"#utility.yul\":4047:4110   */\n          swap2\n          pop\n            /* \"#utility.yul\":4003:4120   */\n          pop\n            /* \"#utility.yul\":3798:4127   */\n          swap3\n          swap2\n          pop\n          pop\n          jump\t// out\n            /* \"#utility.yul\":4133:4752   */\n        tag_36:\n            /* \"#utility.yul\":4210:4216   */\n          0x00\n            /* \"#utility.yul\":4218:4224   */\n          dup1\n            /* \"#utility.yul\":4226:4232   */\n          0x00\n            /* \"#utility.yul\":4275:4277   */\n          0x60\n            /* \"#utility.yul\":4263:4272   */\n          dup5\n            /* \"#utility.yul\":4254:4261   */\n          dup7\n            /* \"#utility.yul\":4250:4273   */\n          sub\n            /* \"#utility.yul\":4246:4278   */\n          slt\n            /* \"#utility.yul\":4243:4362   */\n          iszero\n          tag_187\n          jumpi\n            /* \"#utility.yul\":4281:4360   */\n          tag_188\n          tag_119\n          jump\t// in\n        tag_188:\n            /* \"#utility.yul\":4243:4362   */\n        tag_187:\n            /* \"#utility.yul\":4401:4402   */\n          0x00\n            /* \"#utility.yul\":4426:4479   */\n          tag_189\n            /* \"#utility.yul\":4471:4478   */\n          dup7\n            /* \"#utility.yul\":4462:4468   */\n          dup3\n            /* \"#utility.yul\":4451:4460   */\n          dup8\n            /* \"#utility.yul\":4447:4469   */\n          add\n            /* \"#utility.yul\":4426:4479   */\n          tag_124\n          jump\t// in\n        tag_189:\n            /* \"#utility.yul\":4416:4479   */\n          swap4\n          pop\n            /* \"#utility.yul\":4372:4489   */\n          pop\n            /* \"#utility.yul\":4528:4530   */\n          0x20\n            /* \"#utility.yul\":4554:4607   */\n          tag_190\n            /* \"#utility.yul\":4599:4606   */\n          dup7\n            /* \"#utility.yul\":4590:4596   */\n          dup3\n            /* \"#utility.yul\":4579:4588   */\n          dup8\n            /* \"#utility.yul\":4575:4597   */\n          add\n            /* \"#utility.yul\":4554:4607   */\n          tag_124\n          jump\t// in\n        tag_190:\n            /* \"#utility.yul\":4544:4607   */\n          swap3\n          pop\n            /* \"#utility.yul\":4499:4617   */\n          pop\n            /* \"#utility.yul\":4656:4658   */\n          0x40\n            /* \"#utility.yul\":4682:4735   */\n          tag_191\n            /* \"#utility.yul\":4727:4734   */\n          dup7\n            /* \"#utility.yul\":4718:4724   */\n          dup3\n            /* \"#utility.yul\":4707:4716   */\n          dup8\n            /* \"#utility.yul\":4703:4725   */\n          add\n            /* \"#utility.yul\":4682:4735   */\n          tag_127\n          jump\t// in\n        tag_191:\n            /* \"#utility.yul\":4672:4735   */\n          swap2\n          pop\n            /* \"#utility.yul\":4627:4745   */\n          pop\n            /* \"#utility.yul\":4133:4752   */\n          swap3\n          pop\n          swap3\n          pop\n          swap3\n          jump\t// out\n            /* \"#utility.yul\":4758:4844   */\n        tag_131:\n            /* \"#utility.yul\":4793:4800   */\n          0x00\n            /* \"#utility.yul\":4833:4837   */\n          0xff\n            /* \"#utility.yul\":4826:4831   */\n          dup3\n            /* \"#utility.yul\":4822:4838   */\n          and\n            /* \"#utility.yul\":4811:4838   */\n          swap1\n          pop\n            /* \"#utility.yul\":4758:4844   */\n          swap2\n          swap1\n          pop\n          jump\t// out\n            /* \"#utility.yul\":4850:4962   */\n        tag_132:\n            /* \"#utility.yul\":4933:4955   */\n          tag_194\n            /* \"#utility.yul\":4949:4954   */\n          dup2\n            /* \"#utility.yul\":4933:4955   */\n          tag_131\n          jump\t// in\n        tag_194:\n            /* \"#utility.yul\":4928:4931   */\n          dup3\n            /* \"#utility.yul\":4921:4956   */\n          mstore\n            /* \"#utility.yul\":4850:4962   */\n          pop\n          pop\n          jump\t// out\n            /* \"#utility.yul\":4968:5182   */\n        tag_42:\n            /* \"#utility.yul\":5057:5061   */\n          0x00\n            /* \"#utility.yul\":5095:5097   */\n          0x20\n            /* \"#utility.yul\":5084:5093   */\n          dup3\n            /* \"#utility.yul\":5080:5098   */\n          add\n            /* \"#utility.yul\":5072:5098   */\n          swap1\n          pop\n            /* \"#utility.yul\":5108:5175   */\n          tag_196\n            /* \"#utility.yul\":5172:5173   */\n          0x00\n            /* \"#utility.yul\":5161:5170   */\n          dup4\n            /* \"#utility.yul\":5157:5174   */\n          add\n            /* \"#utility.yul\":5148:5154   */\n          dup5\n            /* \"#utility.yul\":5108:5175   */\n          tag_132\n          jump\t// in\n        tag_196:\n            /* \"#utility.yul\":4968:5182   */\n          swap3\n          swap2\n          pop\n          pop\n          jump\t// out\n            /* \"#utility.yul\":5188:5517   */\n        tag_45:\n            /* \"#utility.yul\":5247:5253   */\n          0x00\n            /* \"#utility.yul\":5296:5298   */\n          0x20\n            /* \"#utility.yul\":5284:5293   */\n          dup3\n            /* \"#utility.yul\":5275:5282   */\n          dup5\n            /* \"#utility.yul\":5271:5294   */\n          sub\n            /* \"#utility.yul\":5267:5299   */\n          slt\n            /* \"#utility.yul\":5264:5383   */\n          iszero\n          tag_198\n          jumpi\n            /* \"#utility.yul\":5302:5381   */\n          tag_199\n          tag_119\n          jump\t// in\n        tag_199:\n            /* \"#utility.yul\":5264:5383   */\n        tag_198:\n            /* \"#utility.yul\":5422:5423   */\n          0x00\n            /* \"#utility.yul\":5447:5500   */\n          tag_200\n            /* \"#utility.yul\":5492:5499   */\n          dup5\n            /* \"#utility.yul\":5483:5489   */\n          dup3\n            /* \"#utility.yul\":5472:5481   */\n          dup6\n            /* \"#utility.yul\":5468:5490   */\n          add\n            /* \"#utility.yul\":5447:5500   */\n          tag_124\n          jump\t// in\n        tag_200:\n            /* \"#utility.yul\":5437:5500   */\n          swap2\n          pop\n            /* \"#utility.yul\":5393:5510   */\n          pop\n            /* \"#utility.yul\":5188:5517   */\n          swap3\n          swap2\n          pop\n          pop\n          jump\t// out\n            /* \"#utility.yul\":5523:5997   */\n        tag_59:\n            /* \"#utility.yul\":5591:5597   */\n          0x00\n            /* \"#utility.yul\":5599:5605   */\n          dup1\n            /* \"#utility.yul\":5648:5650   */\n          0x40\n            /* \"#utility.yul\":5636:5645   */\n          dup4\n            /* \"#utility.yul\":5627:5634   */\n          dup6\n            /* \"#utility.yul\":5623:5646   */\n          sub\n            /* \"#utility.yul\":5619:5651   */\n          slt\n            /* \"#utility.yul\":5616:5735   */\n          iszero\n          tag_202\n          jumpi\n            /* \"#utility.yul\":5654:5733   */\n          tag_203\n          tag_119\n          jump\t// in\n        tag_203:\n            /* \"#utility.yul\":5616:5735   */\n        tag_202:\n            /* \"#utility.yul\":5774:5775   */\n          0x00\n            /* \"#utility.yul\":5799:5852   */\n          tag_204\n            /* \"#utility.yul\":5844:5851   */\n          dup6\n            /* \"#utility.yul\":5835:5841   */\n          dup3\n            /* \"#utility.yul\":5824:5833   */\n          dup7\n            /* \"#utility.yul\":5820:5842   */\n          add\n            /* \"#utility.yul\":5799:5852   */\n          tag_124\n          jump\t// in\n        tag_204:\n            /* \"#utility.yul\":5789:5852   */\n          swap3\n          pop\n            /* \"#utility.yul\":5745:5862   */\n          pop\n            /* \"#utility.yul\":5901:5903   */\n          0x20\n            /* \"#utility.yul\":5927:5980   */\n          tag_205\n            /* \"#utility.yul\":5972:5979   */\n          dup6\n            /* \"#utility.yul\":5963:5969   */\n          dup3\n            /* \"#utility.yul\":5952:5961   */\n          dup7\n            /* \"#utility.yul\":5948:5970   */\n          add\n            /* \"#utility.yul\":5927:5980   */\n          tag_124\n          jump\t// in\n        tag_205:\n            /* \"#utility.yul\":5917:5980   */\n          swap2\n          pop\n            /* \"#utility.yul\":5872:5990   */\n          pop\n            /* \"#utility.yul\":5523:5997   */\n          swap3\n          pop\n          swap3\n          swap1\n          pop\n          jump\t// out\n            /* \"#utility.yul\":6003:6166   */\n        tag_133:\n            /* \"#utility.yul\":6143:6158   */\n          0x4d757374206265204f776e657200000000000000000000000000000000000000\n            /* \"#utility.yul\":6139:6140   */\n          0x00\n            /* \"#utility.yul\":6131:6137   */\n          dup3\n            /* \"#utility.yul\":6127:6141   */\n          add\n            /* \"#utility.yul\":6120:6159   */\n          mstore\n            /* \"#utility.yul\":6003:6166   */\n          pop\n          jump\t// out\n            /* \"#utility.yul\":6172:6538   */\n        tag_134:\n            /* \"#utility.yul\":6314:6317   */\n          0x00\n            /* \"#utility.yul\":6335:6402   */\n          tag_208\n            /* \"#utility.yul\":6399:6401   */\n          0x0d\n            /* \"#utility.yul\":6394:6397   */\n          dup4\n            /* \"#utility.yul\":6335:6402   */\n          tag_114\n          jump\t// in\n        tag_208:\n            /* \"#utility.yul\":6328:6402   */\n          swap2\n          pop\n            /* \"#utility.yul\":6411:6504   */\n          tag_209\n            /* \"#utility.yul\":6500:6503   */\n          dup3\n            /* \"#utility.yul\":6411:6504   */\n          tag_133\n          jump\t// in\n        tag_209:\n            /* \"#utility.yul\":6529:6531   */\n          0x20\n            /* \"#utility.yul\":6524:6527   */\n          dup3\n            /* \"#utility.yul\":6520:6532   */\n          add\n            /* \"#utility.yul\":6513:6532   */\n          swap1\n          pop\n            /* \"#utility.yul\":6172:6538   */\n          swap2\n          swap1\n          pop\n          jump\t// out\n            /* \"#utility.yul\":6544:6963   */\n        tag_73:\n            /* \"#utility.yul\":6710:6714   */\n          0x00\n            /* \"#utility.yul\":6748:6750   */\n          0x20\n            /* \"#utility.yul\":6737:6746   */\n          dup3\n            /* \"#utility.yul\":6733:6751   */\n          add\n            /* \"#utility.yul\":6725:6751   */\n          swap1\n          pop\n            /* \"#utility.yul\":6797:6806   */\n          dup2\n            /* \"#utility.yul\":6791:6795   */\n          dup2\n            /* \"#utility.yul\":6787:6807   */\n          sub\n            /* \"#utility.yul\":6783:6784   */\n          0x00\n            /* \"#utility.yul\":6772:6781   */\n          dup4\n            /* \"#utility.yul\":6768:6785   */\n          add\n            /* \"#utility.yul\":6761:6808   */\n          mstore\n            /* \"#utility.yul\":6825:6956   */\n          tag_211\n            /* \"#utility.yul\":6951:6955   */\n          dup2\n            /* \"#utility.yul\":6825:6956   */\n          tag_134\n          jump\t// in\n        tag_211:\n            /* \"#utility.yul\":6817:6956   */\n          swap1\n          pop\n            /* \"#utility.yul\":6544:6963   */\n          swap2\n          swap1\n          pop\n          jump\t// out\n            /* \"#utility.yul\":6969:7149   */\n        tag_135:\n            /* \"#utility.yul\":7017:7094   */\n          0x4e487b7100000000000000000000000000000000000000000000000000000000\n            /* \"#utility.yul\":7014:7015   */\n          0x00\n            /* \"#utility.yul\":7007:7095   */\n          mstore\n            /* \"#utility.yul\":7114:7118   */\n          0x11\n            /* \"#utility.yul\":7111:7112   */\n          0x04\n            /* \"#utility.yul\":7104:7119   */\n          mstore\n            /* \"#utility.yul\":7138:7142   */\n          0x24\n            /* \"#utility.yul\":7135:7136   */\n          0x00\n            /* \"#utility.yul\":7128:7143   */\n          revert\n            /* \"#utility.yul\":7155:7346   */\n        tag_76:\n            /* \"#utility.yul\":7195:7198   */\n          0x00\n            /* \"#utility.yul\":7214:7234   */\n          tag_214\n            /* \"#utility.yul\":7232:7233   */\n          dup3\n            /* \"#utility.yul\":7214:7234   */\n          tag_125\n          jump\t// in\n        tag_214:\n            /* \"#utility.yul\":7209:7234   */\n          swap2\n          pop\n            /* \"#utility.yul\":7248:7268   */\n          tag_215\n            /* \"#utility.yul\":7266:7267   */\n          dup4\n            /* \"#utility.yul\":7248:7268   */\n          tag_125\n          jump\t// in\n        tag_215:\n            /* \"#utility.yul\":7243:7268   */\n          swap3\n          pop\n            /* \"#utility.yul\":7291:7292   */\n          dup3\n            /* \"#utility.yul\":7288:7289   */\n          dup3\n            /* \"#utility.yul\":7284:7293   */\n          add\n            /* \"#utility.yul\":7277:7293   */\n          swap1\n          pop\n            /* \"#utility.yul\":7312:7315   */\n          dup1\n            /* \"#utility.yul\":7309:7310   */\n          dup3\n            /* \"#utility.yul\":7306:7316   */\n          gt\n            /* \"#utility.yul\":7303:7339   */\n          iszero\n          tag_216\n          jumpi\n            /* \"#utility.yul\":7319:7337   */\n          tag_217\n          tag_135\n          jump\t// in\n        tag_217:\n            /* \"#utility.yul\":7303:7339   */\n        tag_216:\n            /* \"#utility.yul\":7155:7346   */\n          swap3\n          swap2\n          pop\n          pop\n          jump\t// out\n            /* \"#utility.yul\":7352:7532   */\n        tag_106:\n            /* \"#utility.yul\":7400:7477   */\n          0x4e487b7100000000000000000000000000000000000000000000000000000000\n            /* \"#utility.yul\":7397:7398   */\n          0x00\n            /* \"#utility.yul\":7390:7478   */\n          mstore\n            /* \"#utility.yul\":7497:7501   */\n          0x01\n            /* \"#utility.yul\":7494:7495   */\n          0x04\n            /* \"#utility.yul\":7487:7502   */\n          mstore\n            /* \"#utility.yul\":7521:7525   */\n          0x24\n            /* \"#utility.yul\":7518:7519   */\n          0x00\n            /* \"#utility.yul\":7511:7526   */\n          revert\n            /* \"#utility.yul\":7538:7732   */\n        tag_108:\n            /* \"#utility.yul\":7578:7582   */\n          0x00\n            /* \"#utility.yul\":7598:7618   */\n          tag_220\n            /* \"#utility.yul\":7616:7617   */\n          dup3\n            /* \"#utility.yul\":7598:7618   */\n          tag_125\n          jump\t// in\n        tag_220:\n            /* \"#utility.yul\":7593:7618   */\n          swap2\n          pop\n            /* \"#utility.yul\":7632:7652   */\n          tag_221\n            /* \"#utility.yul\":7650:7651   */\n          dup4\n            /* \"#utility.yul\":7632:7652   */\n          tag_125\n          jump\t// in\n        tag_221:\n            /* \"#utility.yul\":7627:7652   */\n          swap3\n          pop\n            /* \"#utility.yul\":7676:7677   */\n          dup3\n            /* \"#utility.yul\":7673:7674   */\n          dup3\n            /* \"#utility.yul\":7669:7678   */\n          sub\n            /* \"#utility.yul\":7661:7678   */\n          swap1\n          pop\n            /* \"#utility.yul\":7700:7701   */\n          dup2\n            /* \"#utility.yul\":7694:7698   */\n          dup2\n            /* \"#utility.yul\":7691:7702   */\n          gt\n            /* \"#utility.yul\":7688:7725   */\n          iszero\n          tag_222\n          jumpi\n            /* \"#utility.yul\":7705:7723   */\n          tag_223\n          tag_135\n          jump\t// in\n        tag_223:\n            /* \"#utility.yul\":7688:7725   */\n        tag_222:\n            /* \"#utility.yul\":7538:7732   */\n          swap3\n          swap2\n          pop\n          pop\n          jump\t// out\n\n        auxdata: 0xa264697066735822122087d9dcd9ca8729075fc0e907121a87b3ecf799cbcf97a93cecbaab1a1cd64bea64736f6c63430008120033\n    }\n}\n",
				"bytecode": {
					"linkReferences": {},
					"object": "60806040523480156200001157600080fd5b506127106040516200002390620000d3565b6200002f919062000138565b604051809103906000f0801580156200004c573d6000803e3d6000fd5b506000806101000a81548173ffffffffffffffffffffffffffffffffffffffff021916908373ffffffffffffffffffffffffffffffffffffffff16021790555033600160006101000a81548173ffffffffffffffffffffffffffffffffffffffff021916908373ffffffffffffffffffffffffffffffffffffffff16021790555062000155565b6114388062001edb83390190565b6000819050919050565b6000819050919050565b6000819050919050565b6000620001206200011a6200011484620000e1565b620000f5565b620000eb565b9050919050565b6200013281620000ff565b82525050565b60006020820190506200014f600083018462000127565b92915050565b611d7680620001656000396000f3fe6080604052600436106100c25760003560e01c8063a59567381161007f578063c483489911610059578063c48348991461023a578063c4e5dff214610265578063cb0a4a33146102a4578063fbd98b20146102cd576100c2565b8063a5956738146101a7578063b96f2cd4146101e4578063c2be10dd1461020f576100c2565b80633610724e146100c75780633ae1786f146100e3578063722713f7146100ff57806379ac996a1461012a5780638da5cb5b1461015357806397304ced1461017e575b600080fd5b6100e160048036038101906100dc9190611056565b6102f6565b005b6100fd60048036038101906100f89190611056565b6104ea565b005b34801561010b57600080fd5b5061011461066b565b6040516101219190611092565b60405180910390f35b34801561013657600080fd5b50610151600480360381019061014c91906111f3565b61070d565b005b34801561015f57600080fd5b506101686107db565b604051610175919061127d565b60405180910390f35b34801561018a57600080fd5b506101a560048036038101906101a09190611056565b610801565b005b3480156101b357600080fd5b506101ce60048036038101906101c991906112d6565b6108e9565b6040516101db9190611092565b60405180910390f35b3480156101f057600080fd5b506101f9610907565b6040516102069190611444565b60405180910390f35b34801561021b57600080fd5b506102246109e0565b6040516102319190611444565b60405180910390f35b34801561024657600080fd5b5061024f610af6565b60405161025c9190611092565b60405180910390f35b34801561027157600080fd5b5061028c600480360381019061028791906111f3565b610b98565b60405161029b939291906114cb565b60405180910390f35b3480156102b057600080fd5b506102cb60048036038101906102c691906111f3565b610c6d565b005b3480156102d957600080fd5b506102f460048036038101906102ef9190611509565b610ea4565b005b600061030182610fef565b905080341015610346576040517f08c379a000000000000000000000000000000000000000000000000000000000815260040161033d906115b1565b60405180910390fd5b600081346103549190611600565b90503373ffffffffffffffffffffffffffffffffffffffff166108fc829081150290604051600060405180830381858888f1935050505015801561039c573d6000803e3d6000fd5b5060006103a761066b565b9050808411156103ec576040517f08c379a00000000000000000000000000000000000000000000000000000000081526004016103e390611680565b60405180910390fd5b60008054906101000a900473ffffffffffffffffffffffffffffffffffffffff1673ffffffffffffffffffffffffffffffffffffffff1663a9059cbb33866040518363ffffffff1660e01b81526004016104479291906116af565b6020604051808303816000875af1158015610466573d6000803e3d6000fd5b505050506040513d601f19601f8201168201806040525081019061048a9190611704565b5083600260003373ffffffffffffffffffffffffffffffffffffffff1673ffffffffffffffffffffffffffffffffffffffff16815260200190815260200160002060000160008282546104dd9190611731565b9250508190555050505050565b600081101561052e576040517f08c379a0000000000000000000000000000000000000000000000000000000008152600401610525906117b1565b60405180910390fd5b610536610af6565b811115610578576040517f08c379a000000000000000000000000000000000000000000000000000000000815260040161056f9061181d565b60405180910390fd5b60008054906101000a900473ffffffffffffffffffffffffffffffffffffffff1673ffffffffffffffffffffffffffffffffffffffff1663e0631f7f3330846040518463ffffffff1660e01b81526004016105d59392919061183d565b6020604051808303816000875af11580156105f4573d6000803e3d6000fd5b505050506040513d601f19601f820116820180604052508101906106189190611704565b503373ffffffffffffffffffffffffffffffffffffffff166108fc61063c83610fef565b9081150290604051600060405180830381858888f19350505050158015610667573d6000803e3d6000fd5b5050565b60008060009054906101000a900473ffffffffffffffffffffffffffffffffffffffff1673ffffffffffffffffffffffffffffffffffffffff166370a08231306040518263ffffffff1660e01b81526004016106c79190611874565b602060405180830381865afa1580156106e4573d6000803e3d6000fd5b505050506040513d601f19601f8201168201806040525081019061070891906118a4565b905090565b600160009054906101000a900473ffffffffffffffffffffffffffffffffffffffff1673ffffffffffffffffffffffffffffffffffffffff163373ffffffffffffffffffffffffffffffffffffffff161461076757600080fd5b6000600382604051610779919061190d565b908152602001604051809103902060020160006101000a81548160ff0219169083151502179055507fa9b5d005cb280c62bb7a048bb2323e402707d0f05a053a3fe3a3e1b64aa4856d816040516107d09190611924565b60405180910390a150565b600160009054906101000a900473ffffffffffffffffffffffffffffffffffffffff1681565b600160009054906101000a900473ffffffffffffffffffffffffffffffffffffffff1673ffffffffffffffffffffffffffffffffffffffff163373ffffffffffffffffffffffffffffffffffffffff161461085b57600080fd5b60008054906101000a900473ffffffffffffffffffffffffffffffffffffffff1673ffffffffffffffffffffffffffffffffffffffff16631d43cc98826040518263ffffffff1660e01b81526004016108b49190611092565b600060405180830381600087803b1580156108ce57600080fd5b505af11580156108e2573d6000803e3d6000fd5b5050505050565b60026020528060005260406000206000915090508060000154905081565b60606004805480602002602001604051908101604052809291908181526020016000905b828210156109d757838290600052602060002001805461094a90611975565b80601f016020809104026020016040519081016040528092919081815260200182805461097690611975565b80156109c35780601f10610998576101008083540402835291602001916109c3565b820191906000526020600020905b8154815290600101906020018083116109a657829003601f168201915b50505050508152602001906001019061092b565b50505050905090565b6060600560003373ffffffffffffffffffffffffffffffffffffffff1673ffffffffffffffffffffffffffffffffffffffff168152602001908152602001600020805480602002602001604051908101604052809291908181526020016000905b82821015610aed578382906000526020600020018054610a6090611975565b80601f0160208091040260200160405190810160405280929190818152602001828054610a8c90611975565b8015610ad95780601f10610aae57610100808354040283529160200191610ad9565b820191906000526020600020905b815481529060010190602001808311610abc57829003601f168201915b505050505081526020019060010190610a41565b50505050905090565b60008060009054906101000a900473ffffffffffffffffffffffffffffffffffffffff1673ffffffffffffffffffffffffffffffffffffffff166370a08231336040518263ffffffff1660e01b8152600401610b529190611874565b602060405180830381865afa158015610b6f573d6000803e3d6000fd5b505050506040513d601f19601f82011682018060405250810190610b9391906118a4565b905090565b600381805160208101820180518482526020830160208501208183528095505050505050600091509050806000018054610bd190611975565b80601f0160208091040260200160405190810160405280929190818152602001828054610bfd90611975565b8015610c4a5780601f10610c1f57610100808354040283529160200191610c4a565b820191906000526020600020905b815481529060010190602001808311610c2d57829003601f168201915b5050505050908060010154908060020160009054906101000a900460ff16905083565b60011515600382604051610c81919061190d565b908152602001604051809103902060020160009054906101000a900460ff16151514610ce2576040517f08c379a0000000000000000000000000000000000000000000000000000000008152600401610cd9906119f2565b60405180910390fd5b6000600382604051610cf4919061190d565b908152602001604051809103902060010154905080610d11610af6565b1015610d52576040517f08c379a0000000000000000000000000000000000000000000000000000000008152600401610d499061181d565b60405180910390fd5b60008054906101000a900473ffffffffffffffffffffffffffffffffffffffff1673ffffffffffffffffffffffffffffffffffffffff1663e0631f7f3330846040518463ffffffff1660e01b8152600401610daf9392919061183d565b6020604051808303816000875af1158015610dce573d6000803e3d6000fd5b505050506040513d601f19601f82011682018060405250810190610df29190611704565b50600560003373ffffffffffffffffffffffffffffffffffffffff1673ffffffffffffffffffffffffffffffffffffffff16815260200190815260200160002082908060018154018082558091505060019003906000526020600020016000909190919091509081610e649190611bbe565b507ffcec2a140106a441fbaae966bd30f8cacd5c4ae875e31e09acec6324f2a065b3828233604051610e9893929190611c90565b60405180910390a15050565b600160009054906101000a900473ffffffffffffffffffffffffffffffffffffffff1673ffffffffffffffffffffffffffffffffffffffff163373ffffffffffffffffffffffffffffffffffffffff1614610efe57600080fd5b604051806060016040528083815260200182815260200160011515815250600383604051610f2c919061190d565b90815260200160405180910390206000820151816000019081610f4f9190611bbe565b506020820151816001015560408201518160020160006101000a81548160ff021916908315150217905550905050600482908060018154018082558091505060019003906000526020600020016000909190919091509081610fb19190611bbe565b507f7881aaf671f51be7f8d7a5d3e85d5c6c2e67c380908056a877bc6cfc1b8bfc5e8282604051610fe3929190611cce565b60405180910390a15050565b6000670de0b6b3a7640000826110059190611cfe565b9050919050565b6000604051905090565b600080fd5b600080fd5b6000819050919050565b61103381611020565b811461103e57600080fd5b50565b6000813590506110508161102a565b92915050565b60006020828403121561106c5761106b611016565b5b600061107a84828501611041565b91505092915050565b61108c81611020565b82525050565b60006020820190506110a76000830184611083565b92915050565b600080fd5b600080fd5b6000601f19601f8301169050919050565b7f4e487b7100000000000000000000000000000000000000000000000000000000600052604160045260246000fd5b611100826110b7565b810181811067ffffffffffffffff8211171561111f5761111e6110c8565b5b80604052505050565b600061113261100c565b905061113e82826110f7565b919050565b600067ffffffffffffffff82111561115e5761115d6110c8565b5b611167826110b7565b9050602081019050919050565b82818337600083830152505050565b600061119661119184611143565b611128565b9050828152602081018484840111156111b2576111b16110b2565b5b6111bd848285611174565b509392505050565b600082601f8301126111da576111d96110ad565b5b81356111ea848260208601611183565b91505092915050565b60006020828403121561120957611208611016565b5b600082013567ffffffffffffffff8111156112275761122661101b565b5b611233848285016111c5565b91505092915050565b600073ffffffffffffffffffffffffffffffffffffffff82169050919050565b60006112678261123c565b9050919050565b6112778161125c565b82525050565b6000602082019050611292600083018461126e565b92915050565b60006112a38261123c565b9050919050565b6112b381611298565b81146112be57600080fd5b50565b6000813590506112d0816112aa565b92915050565b6000602082840312156112ec576112eb611016565b5b60006112fa848285016112c1565b91505092915050565b600081519050919050565b600082825260208201905092915050565b6000819050602082019050919050565b600081519050919050565b600082825260208201905092915050565b60005b8381101561136957808201518184015260208101905061134e565b60008484015250505050565b60006113808261132f565b61138a818561133a565b935061139a81856020860161134b565b6113a3816110b7565b840191505092915050565b60006113ba8383611375565b905092915050565b6000602082019050919050565b60006113da82611303565b6113e4818561130e565b9350836020820285016113f68561131f565b8060005b85811015611432578484038952815161141385826113ae565b945061141e836113c2565b925060208a019950506001810190506113fa565b50829750879550505050505092915050565b6000602082019050818103600083015261145e81846113cf565b905092915050565b600082825260208201905092915050565b60006114828261132f565b61148c8185611466565b935061149c81856020860161134b565b6114a5816110b7565b840191505092915050565b60008115159050919050565b6114c5816114b0565b82525050565b600060608201905081810360008301526114e58186611477565b90506114f46020830185611083565b61150160408301846114bc565b949350505050565b600080604083850312156115205761151f611016565b5b600083013567ffffffffffffffff81111561153e5761153d61101b565b5b61154a858286016111c5565b925050602061155b85828601611041565b9150509250929050565b7f496e73756666696369656e7420616d6f756e7400000000000000000000000000600082015250565b600061159b601383611466565b91506115a682611565565b602082019050919050565b600060208201905081810360008301526115ca8161158e565b9050919050565b7f4e487b7100000000000000000000000000000000000000000000000000000000600052601160045260246000fd5b600061160b82611020565b915061161683611020565b925082820390508181111561162e5761162d6115d1565b5b92915050565b7f5472616e73616374696f6e206661696c65640000000000000000000000000000600082015250565b600061166a601283611466565b915061167582611634565b602082019050919050565b600060208201905081810360008301526116998161165d565b9050919050565b6116a981611298565b82525050565b60006040820190506116c460008301856116a0565b6116d16020830184611083565b9392505050565b6116e1816114b0565b81146116ec57600080fd5b50565b6000815190506116fe816116d8565b92915050565b60006020828403121561171a57611719611016565b5b6000611728848285016116ef565b91505092915050565b600061173c82611020565b915061174783611020565b925082820190508082111561175f5761175e6115d1565b5b92915050565b7f43616e2774206265206e65676174697665210000000000000000000000000000600082015250565b600061179b601283611466565b91506117a682611765565b602082019050919050565b600060208201905081810360008301526117ca8161178e565b9050919050565b7f496e73756666696369656e742042616c616e6365000000000000000000000000600082015250565b6000611807601483611466565b9150611812826117d1565b602082019050919050565b60006020820190508181036000830152611836816117fa565b9050919050565b600060608201905061185260008301866116a0565b61185f60208301856116a0565b61186c6040830184611083565b949350505050565b600060208201905061188960008301846116a0565b92915050565b60008151905061189e8161102a565b92915050565b6000602082840312156118ba576118b9611016565b5b60006118c88482850161188f565b91505092915050565b600081905092915050565b60006118e78261132f565b6118f181856118d1565b935061190181856020860161134b565b80840191505092915050565b600061191982846118dc565b915081905092915050565b6000602082019050818103600083015261193e8184611477565b905092915050565b7f4e487b7100000000000000000000000000000000000000000000000000000000600052602260045260246000fd5b6000600282049050600182168061198d57607f821691505b6020821081036119a05761199f611946565b5b50919050565b7f41747472616374696f6e20436c6f736500000000000000000000000000000000600082015250565b60006119dc601083611466565b91506119e7826119a6565b602082019050919050565b60006020820190508181036000830152611a0b816119cf565b9050919050565b60008190508160005260206000209050919050565b60006020601f8301049050919050565b600082821b905092915050565b600060088302611a747fffffffffffffffffffffffffffffffffffffffffffffffffffffffffffffffff82611a37565b611a7e8683611a37565b95508019841693508086168417925050509392505050565b6000819050919050565b6000611abb611ab6611ab184611020565b611a96565b611020565b9050919050565b6000819050919050565b611ad583611aa0565b611ae9611ae182611ac2565b848454611a44565b825550505050565b600090565b611afe611af1565b611b09818484611acc565b505050565b5b81811015611b2d57611b22600082611af6565b600181019050611b0f565b5050565b601f821115611b7257611b4381611a12565b611b4c84611a27565b81016020851015611b5b578190505b611b6f611b6785611a27565b830182611b0e565b50505b505050565b600082821c905092915050565b6000611b9560001984600802611b77565b1980831691505092915050565b6000611bae8383611b84565b9150826002028217905092915050565b611bc78261132f565b67ffffffffffffffff811115611be057611bdf6110c8565b5b611bea8254611975565b611bf5828285611b31565b600060209050601f831160018114611c285760008415611c16578287015190505b611c208582611ba2565b865550611c88565b601f198416611c3686611a12565b60005b82811015611c5e57848901518255600182019150602085019450602081019050611c39565b86831015611c7b5784890151611c77601f891682611b84565b8355505b6001600288020188555050505b505050505050565b60006060820190508181036000830152611caa8186611477565b9050611cb96020830185611083565b611cc660408301846116a0565b949350505050565b60006040820190508181036000830152611ce88185611477565b9050611cf76020830184611083565b9392505050565b6000611d0982611020565b9150611d1483611020565b9250828202611d2281611020565b91508282048414831517611d3957611d386115d1565b5b509291505056fea264697066735822122061e9323de979a03fc7e21eee1db6b98e5bb10856468dd432ce3ebf0e994d866f64736f6c6343000812003360806040523480156200001157600080fd5b50604051620014383803806200143883398181016040528101906200003791906200010b565b336000806101000a81548173ffffffffffffffffffffffffffffffffffffffff021916908373ffffffffffffffffffffffffffffffffffffffff16021790555080600381905550600354600160003373ffffffffffffffffffffffffffffffffffffffff1673ffffffffffffffffffffffffffffffffffffffff16815260200190815260200160002081905550506200013d565b600080fd5b6000819050919050565b620000e581620000d0565b8114620000f157600080fd5b50565b6000815190506200010581620000da565b92915050565b600060208284031215620001245762000123620000cb565b5b60006200013484828501620000f4565b91505092915050565b6112eb806200014d6000396000f3fe608060405234801561001057600080fd5b50600436106100b45760003560e01c806370a082311161007157806370a082311461018f578063715018a6146101bf57806395d89b41146101c9578063a9059cbb146101e7578063dd62ed3e14610217578063e0631f7f14610247576100b4565b806306fdde03146100b9578063095ea7b3146100d757806318160ddd146101075780631d43cc981461012557806323b872dd14610141578063313ce56714610171575b600080fd5b6100c1610277565b6040516100ce9190610f04565b60405180910390f35b6100f160048036038101906100ec9190610fbf565b6102b0565b6040516100fe919061101a565b60405180910390f35b61010f6103ee565b60405161011c9190611044565b60405180910390f35b61013f600480360381019061013a919061105f565b6103f8565b005b61015b6004803603810190610156919061108c565b6104f8565b604051610168919061101a565b60405180910390f35b610179610878565b60405161018691906110fb565b60405180910390f35b6101a960048036038101906101a49190611116565b61087d565b6040516101b69190611044565b60405180910390f35b6101c76108c6565b005b6101d1610997565b6040516101de9190610f04565b60405180910390f35b61020160048036038101906101fc9190610fbf565b6109d0565b60405161020e919061101a565b60405180910390f35b610231600480360381019061022c9190611143565b610bb7565b60405161023e9190611044565b60405180910390f35b610261600480360381019061025c919061108c565b610c3e565b60405161026e919061101a565b60405180910390f35b6040518060400160405280600681526020017f5265736f7274000000000000000000000000000000000000000000000000000081525081565b6000600160003373ffffffffffffffffffffffffffffffffffffffff1673ffffffffffffffffffffffffffffffffffffffff168152602001908152602001600020548211156102fe57600080fd5b81600260003373ffffffffffffffffffffffffffffffffffffffff1673ffffffffffffffffffffffffffffffffffffffff16815260200190815260200160002060008573ffffffffffffffffffffffffffffffffffffffff1673ffffffffffffffffffffffffffffffffffffffff168152602001908152602001600020819055508273ffffffffffffffffffffffffffffffffffffffff163373ffffffffffffffffffffffffffffffffffffffff167f8c5be1e5ebec7d5bd14f71427d1e84f3dd0314c0f7b2291e5b200ac8c7c3b925846040516103dc9190611044565b60405180910390a36001905092915050565b6000600354905090565b3373ffffffffffffffffffffffffffffffffffffffff1660008054906101000a900473ffffffffffffffffffffffffffffffffffffffff1673ffffffffffffffffffffffffffffffffffffffff1614610486576040517f08c379a000000000000000000000000000000000000000000000000000000000815260040161047d906111cf565b60405180910390fd5b8060036000828254610498919061121e565b9250508190555080600160003373ffffffffffffffffffffffffffffffffffffffff1673ffffffffffffffffffffffffffffffffffffffff16815260200190815260200160002060008282546104ee919061121e565b9250508190555050565b6000600160008573ffffffffffffffffffffffffffffffffffffffff1673ffffffffffffffffffffffffffffffffffffffff1681526020019081526020016000205482111561054657600080fd5b600260008573ffffffffffffffffffffffffffffffffffffffff1673ffffffffffffffffffffffffffffffffffffffff16815260200190815260200160002060003373ffffffffffffffffffffffffffffffffffffffff1673ffffffffffffffffffffffffffffffffffffffff168152602001908152602001600020548211156105cf57600080fd5b61062182600160008773ffffffffffffffffffffffffffffffffffffffff1673ffffffffffffffffffffffffffffffffffffffff16815260200190815260200160002054610e2690919063ffffffff16565b600160008673ffffffffffffffffffffffffffffffffffffffff1673ffffffffffffffffffffffffffffffffffffffff168152602001908152602001600020819055506106f382600260008773ffffffffffffffffffffffffffffffffffffffff1673ffffffffffffffffffffffffffffffffffffffff16815260200190815260200160002060003373ffffffffffffffffffffffffffffffffffffffff1673ffffffffffffffffffffffffffffffffffffffff16815260200190815260200160002054610e2690919063ffffffff16565b600260008673ffffffffffffffffffffffffffffffffffffffff1673ffffffffffffffffffffffffffffffffffffffff16815260200190815260200160002060003373ffffffffffffffffffffffffffffffffffffffff1673ffffffffffffffffffffffffffffffffffffffff168152602001908152602001600020819055506107c582600160008673ffffffffffffffffffffffffffffffffffffffff1673ffffffffffffffffffffffffffffffffffffffff16815260200190815260200160002054610e4d90919063ffffffff16565b600160008573ffffffffffffffffffffffffffffffffffffffff1673ffffffffffffffffffffffffffffffffffffffff168152602001908152602001600020819055508273ffffffffffffffffffffffffffffffffffffffff168473ffffffffffffffffffffffffffffffffffffffff167fddf252ad1be2c89b69c2b068fc378daa952ba7f163c4a11628f55a4df523b3ef846040516108659190611044565b60405180910390a3600090509392505050565b601281565b6000600160008373ffffffffffffffffffffffffffffffffffffffff1673ffffffffffffffffffffffffffffffffffffffff168152602001908152602001600020549050919050565b3373ffffffffffffffffffffffffffffffffffffffff1660008054906101000a900473ffffffffffffffffffffffffffffffffffffffff1673ffffffffffffffffffffffffffffffffffffffff1614610954576040517f08c379a000000000000000000000000000000000000000000000000000000000815260040161094b906111cf565b60405180910390fd5b60008060006101000a81548173ffffffffffffffffffffffffffffffffffffffff021916908373ffffffffffffffffffffffffffffffffffffffff160217905550565b6040518060400160405280600381526020017f525354000000000000000000000000000000000000000000000000000000000081525081565b6000600160003373ffffffffffffffffffffffffffffffffffffffff1673ffffffffffffffffffffffffffffffffffffffff16815260200190815260200160002054821115610a1e57600080fd5b610a7082600160003373ffffffffffffffffffffffffffffffffffffffff1673ffffffffffffffffffffffffffffffffffffffff16815260200190815260200160002054610e2690919063ffffffff16565b600160003373ffffffffffffffffffffffffffffffffffffffff1673ffffffffffffffffffffffffffffffffffffffff16815260200190815260200160002081905550610b0582600160008673ffffffffffffffffffffffffffffffffffffffff1673ffffffffffffffffffffffffffffffffffffffff16815260200190815260200160002054610e4d90919063ffffffff16565b600160008573ffffffffffffffffffffffffffffffffffffffff1673ffffffffffffffffffffffffffffffffffffffff168152602001908152602001600020819055508273ffffffffffffffffffffffffffffffffffffffff163373ffffffffffffffffffffffffffffffffffffffff167fddf252ad1be2c89b69c2b068fc378daa952ba7f163c4a11628f55a4df523b3ef84604051610ba59190611044565b60405180910390a36001905092915050565b6000600260008473ffffffffffffffffffffffffffffffffffffffff1673ffffffffffffffffffffffffffffffffffffffff16815260200190815260200160002060008373ffffffffffffffffffffffffffffffffffffffff1673ffffffffffffffffffffffffffffffffffffffff16815260200190815260200160002054905092915050565b6000600160008573ffffffffffffffffffffffffffffffffffffffff1673ffffffffffffffffffffffffffffffffffffffff16815260200190815260200160002054821115610c8c57600080fd5b610cde82600160008773ffffffffffffffffffffffffffffffffffffffff1673ffffffffffffffffffffffffffffffffffffffff16815260200190815260200160002054610e2690919063ffffffff16565b600160008673ffffffffffffffffffffffffffffffffffffffff1673ffffffffffffffffffffffffffffffffffffffff16815260200190815260200160002081905550610d7382600160008673ffffffffffffffffffffffffffffffffffffffff1673ffffffffffffffffffffffffffffffffffffffff16815260200190815260200160002054610e4d90919063ffffffff16565b600160008573ffffffffffffffffffffffffffffffffffffffff1673ffffffffffffffffffffffffffffffffffffffff168152602001908152602001600020819055508273ffffffffffffffffffffffffffffffffffffffff163373ffffffffffffffffffffffffffffffffffffffff167fddf252ad1be2c89b69c2b068fc378daa952ba7f163c4a11628f55a4df523b3ef84604051610e139190611044565b60405180910390a3600190509392505050565b600082821115610e3957610e38611252565b5b8183610e459190611281565b905092915050565b60008183610e5b919061121e565b905082811015610e6e57610e6d611252565b5b92915050565b600081519050919050565b600082825260208201905092915050565b60005b83811015610eae578082015181840152602081019050610e93565b60008484015250505050565b6000601f19601f8301169050919050565b6000610ed682610e74565b610ee08185610e7f565b9350610ef0818560208601610e90565b610ef981610eba565b840191505092915050565b60006020820190508181036000830152610f1e8184610ecb565b905092915050565b600080fd5b600073ffffffffffffffffffffffffffffffffffffffff82169050919050565b6000610f5682610f2b565b9050919050565b610f6681610f4b565b8114610f7157600080fd5b50565b600081359050610f8381610f5d565b92915050565b6000819050919050565b610f9c81610f89565b8114610fa757600080fd5b50565b600081359050610fb981610f93565b92915050565b60008060408385031215610fd657610fd5610f26565b5b6000610fe485828601610f74565b9250506020610ff585828601610faa565b9150509250929050565b60008115159050919050565b61101481610fff565b82525050565b600060208201905061102f600083018461100b565b92915050565b61103e81610f89565b82525050565b60006020820190506110596000830184611035565b92915050565b60006020828403121561107557611074610f26565b5b600061108384828501610faa565b91505092915050565b6000806000606084860312156110a5576110a4610f26565b5b60006110b386828701610f74565b93505060206110c486828701610f74565b92505060406110d586828701610faa565b9150509250925092565b600060ff82169050919050565b6110f5816110df565b82525050565b600060208201905061111060008301846110ec565b92915050565b60006020828403121561112c5761112b610f26565b5b600061113a84828501610f74565b91505092915050565b6000806040838503121561115a57611159610f26565b5b600061116885828601610f74565b925050602061117985828601610f74565b9150509250929050565b7f4d757374206265204f776e657200000000000000000000000000000000000000600082015250565b60006111b9600d83610e7f565b91506111c482611183565b602082019050919050565b600060208201905081810360008301526111e8816111ac565b9050919050565b7f4e487b7100000000000000000000000000000000000000000000000000000000600052601160045260246000fd5b600061122982610f89565b915061123483610f89565b925082820190508082111561124c5761124b6111ef565b5b92915050565b7f4e487b7100000000000000000000000000000000000000000000000000000000600052600160045260246000fd5b600061128c82610f89565b915061129783610f89565b92508282039050818111156112af576112ae6111ef565b5b9291505056fea264697066735822122087d9dcd9ca8729075fc0e907121a87b3ecf799cbcf97a93cecbaab1a1cd64bea64736f6c63430008120033",
					"opcodes": "PUSH1 0x80 PUSH1 0x40 MSTORE CALLVALUE DUP1 ISZERO PUSH3 0x11 JUMPI PUSH1 0x0 DUP1 REVERT JUMPDEST POP PUSH2 0x2710 PUSH1 0x40 MLOAD PUSH3 0x23 SWAP1 PUSH3 0xD3 JUMP JUMPDEST PUSH3 0x2F SWAP2 SWAP1 PUSH3 0x138 JUMP JUMPDEST PUSH1 0x40 MLOAD DUP1 SWAP2 SUB SWAP1 PUSH1 0x0 CREATE DUP1 ISZERO DUP1 ISZERO PUSH3 0x4C JUMPI RETURNDATASIZE PUSH1 0x0 DUP1 RETURNDATACOPY RETURNDATASIZE PUSH1 0x0 REVERT JUMPDEST POP PUSH1 0x0 DUP1 PUSH2 0x100 EXP DUP2 SLOAD DUP2 PUSH20 0xFFFFFFFFFFFFFFFFFFFFFFFFFFFFFFFFFFFFFFFF MUL NOT AND SWAP1 DUP4 PUSH20 0xFFFFFFFFFFFFFFFFFFFFFFFFFFFFFFFFFFFFFFFF AND MUL OR SWAP1 SSTORE POP CALLER PUSH1 0x1 PUSH1 0x0 PUSH2 0x100 EXP DUP2 SLOAD DUP2 PUSH20 0xFFFFFFFFFFFFFFFFFFFFFFFFFFFFFFFFFFFFFFFF MUL NOT AND SWAP1 DUP4 PUSH20 0xFFFFFFFFFFFFFFFFFFFFFFFFFFFFFFFFFFFFFFFF AND MUL OR SWAP1 SSTORE POP PUSH3 0x155 JUMP JUMPDEST PUSH2 0x1438 DUP1 PUSH3 0x1EDB DUP4 CODECOPY ADD SWAP1 JUMP JUMPDEST PUSH1 0x0 DUP2 SWAP1 POP SWAP2 SWAP1 POP JUMP JUMPDEST PUSH1 0x0 DUP2 SWAP1 POP SWAP2 SWAP1 POP JUMP JUMPDEST PUSH1 0x0 DUP2 SWAP1 POP SWAP2 SWAP1 POP JUMP JUMPDEST PUSH1 0x0 PUSH3 0x120 PUSH3 0x11A PUSH3 0x114 DUP5 PUSH3 0xE1 JUMP JUMPDEST PUSH3 0xF5 JUMP JUMPDEST PUSH3 0xEB JUMP JUMPDEST SWAP1 POP SWAP2 SWAP1 POP JUMP JUMPDEST PUSH3 0x132 DUP2 PUSH3 0xFF JUMP JUMPDEST DUP3 MSTORE POP POP JUMP JUMPDEST PUSH1 0x0 PUSH1 0x20 DUP3 ADD SWAP1 POP PUSH3 0x14F PUSH1 0x0 DUP4 ADD DUP5 PUSH3 0x127 JUMP JUMPDEST SWAP3 SWAP2 POP POP JUMP JUMPDEST PUSH2 0x1D76 DUP1 PUSH3 0x165 PUSH1 0x0 CODECOPY PUSH1 0x0 RETURN INVALID PUSH1 0x80 PUSH1 0x40 MSTORE PUSH1 0x4 CALLDATASIZE LT PUSH2 0xC2 JUMPI PUSH1 0x0 CALLDATALOAD PUSH1 0xE0 SHR DUP1 PUSH4 0xA5956738 GT PUSH2 0x7F JUMPI DUP1 PUSH4 0xC4834899 GT PUSH2 0x59 JUMPI DUP1 PUSH4 0xC4834899 EQ PUSH2 0x23A JUMPI DUP1 PUSH4 0xC4E5DFF2 EQ PUSH2 0x265 JUMPI DUP1 PUSH4 0xCB0A4A33 EQ PUSH2 0x2A4 JUMPI DUP1 PUSH4 0xFBD98B20 EQ PUSH2 0x2CD JUMPI PUSH2 0xC2 JUMP JUMPDEST DUP1 PUSH4 0xA5956738 EQ PUSH2 0x1A7 JUMPI DUP1 PUSH4 0xB96F2CD4 EQ PUSH2 0x1E4 JUMPI DUP1 PUSH4 0xC2BE10DD EQ PUSH2 0x20F JUMPI PUSH2 0xC2 JUMP JUMPDEST DUP1 PUSH4 0x3610724E EQ PUSH2 0xC7 JUMPI DUP1 PUSH4 0x3AE1786F EQ PUSH2 0xE3 JUMPI DUP1 PUSH4 0x722713F7 EQ PUSH2 0xFF JUMPI DUP1 PUSH4 0x79AC996A EQ PUSH2 0x12A JUMPI DUP1 PUSH4 0x8DA5CB5B EQ PUSH2 0x153 JUMPI DUP1 PUSH4 0x97304CED EQ PUSH2 0x17E JUMPI JUMPDEST PUSH1 0x0 DUP1 REVERT JUMPDEST PUSH2 0xE1 PUSH1 0x4 DUP1 CALLDATASIZE SUB DUP2 ADD SWAP1 PUSH2 0xDC SWAP2 SWAP1 PUSH2 0x1056 JUMP JUMPDEST PUSH2 0x2F6 JUMP JUMPDEST STOP JUMPDEST PUSH2 0xFD PUSH1 0x4 DUP1 CALLDATASIZE SUB DUP2 ADD SWAP1 PUSH2 0xF8 SWAP2 SWAP1 PUSH2 0x1056 JUMP JUMPDEST PUSH2 0x4EA JUMP JUMPDEST STOP JUMPDEST CALLVALUE DUP1 ISZERO PUSH2 0x10B JUMPI PUSH1 0x0 DUP1 REVERT JUMPDEST POP PUSH2 0x114 PUSH2 0x66B JUMP JUMPDEST PUSH1 0x40 MLOAD PUSH2 0x121 SWAP2 SWAP1 PUSH2 0x1092 JUMP JUMPDEST PUSH1 0x40 MLOAD DUP1 SWAP2 SUB SWAP1 RETURN JUMPDEST CALLVALUE DUP1 ISZERO PUSH2 0x136 JUMPI PUSH1 0x0 DUP1 REVERT JUMPDEST POP PUSH2 0x151 PUSH1 0x4 DUP1 CALLDATASIZE SUB DUP2 ADD SWAP1 PUSH2 0x14C SWAP2 SWAP1 PUSH2 0x11F3 JUMP JUMPDEST PUSH2 0x70D JUMP JUMPDEST STOP JUMPDEST CALLVALUE DUP1 ISZERO PUSH2 0x15F JUMPI PUSH1 0x0 DUP1 REVERT JUMPDEST POP PUSH2 0x168 PUSH2 0x7DB JUMP JUMPDEST PUSH1 0x40 MLOAD PUSH2 0x175 SWAP2 SWAP1 PUSH2 0x127D JUMP JUMPDEST PUSH1 0x40 MLOAD DUP1 SWAP2 SUB SWAP1 RETURN JUMPDEST CALLVALUE DUP1 ISZERO PUSH2 0x18A JUMPI PUSH1 0x0 DUP1 REVERT JUMPDEST POP PUSH2 0x1A5 PUSH1 0x4 DUP1 CALLDATASIZE SUB DUP2 ADD SWAP1 PUSH2 0x1A0 SWAP2 SWAP1 PUSH2 0x1056 JUMP JUMPDEST PUSH2 0x801 JUMP JUMPDEST STOP JUMPDEST CALLVALUE DUP1 ISZERO PUSH2 0x1B3 JUMPI PUSH1 0x0 DUP1 REVERT JUMPDEST POP PUSH2 0x1CE PUSH1 0x4 DUP1 CALLDATASIZE SUB DUP2 ADD SWAP1 PUSH2 0x1C9 SWAP2 SWAP1 PUSH2 0x12D6 JUMP JUMPDEST PUSH2 0x8E9 JUMP JUMPDEST PUSH1 0x40 MLOAD PUSH2 0x1DB SWAP2 SWAP1 PUSH2 0x1092 JUMP JUMPDEST PUSH1 0x40 MLOAD DUP1 SWAP2 SUB SWAP1 RETURN JUMPDEST CALLVALUE DUP1 ISZERO PUSH2 0x1F0 JUMPI PUSH1 0x0 DUP1 REVERT JUMPDEST POP PUSH2 0x1F9 PUSH2 0x907 JUMP JUMPDEST PUSH1 0x40 MLOAD PUSH2 0x206 SWAP2 SWAP1 PUSH2 0x1444 JUMP JUMPDEST PUSH1 0x40 MLOAD DUP1 SWAP2 SUB SWAP1 RETURN JUMPDEST CALLVALUE DUP1 ISZERO PUSH2 0x21B JUMPI PUSH1 0x0 DUP1 REVERT JUMPDEST POP PUSH2 0x224 PUSH2 0x9E0 JUMP JUMPDEST PUSH1 0x40 MLOAD PUSH2 0x231 SWAP2 SWAP1 PUSH2 0x1444 JUMP JUMPDEST PUSH1 0x40 MLOAD DUP1 SWAP2 SUB SWAP1 RETURN JUMPDEST CALLVALUE DUP1 ISZERO PUSH2 0x246 JUMPI PUSH1 0x0 DUP1 REVERT JUMPDEST POP PUSH2 0x24F PUSH2 0xAF6 JUMP JUMPDEST PUSH1 0x40 MLOAD PUSH2 0x25C SWAP2 SWAP1 PUSH2 0x1092 JUMP JUMPDEST PUSH1 0x40 MLOAD DUP1 SWAP2 SUB SWAP1 RETURN JUMPDEST CALLVALUE DUP1 ISZERO PUSH2 0x271 JUMPI PUSH1 0x0 DUP1 REVERT JUMPDEST POP PUSH2 0x28C PUSH1 0x4 DUP1 CALLDATASIZE SUB DUP2 ADD SWAP1 PUSH2 0x287 SWAP2 SWAP1 PUSH2 0x11F3 JUMP JUMPDEST PUSH2 0xB98 JUMP JUMPDEST PUSH1 0x40 MLOAD PUSH2 0x29B SWAP4 SWAP3 SWAP2 SWAP1 PUSH2 0x14CB JUMP JUMPDEST PUSH1 0x40 MLOAD DUP1 SWAP2 SUB SWAP1 RETURN JUMPDEST CALLVALUE DUP1 ISZERO PUSH2 0x2B0 JUMPI PUSH1 0x0 DUP1 REVERT JUMPDEST POP PUSH2 0x2CB PUSH1 0x4 DUP1 CALLDATASIZE SUB DUP2 ADD SWAP1 PUSH2 0x2C6 SWAP2 SWAP1 PUSH2 0x11F3 JUMP JUMPDEST PUSH2 0xC6D JUMP JUMPDEST STOP JUMPDEST CALLVALUE DUP1 ISZERO PUSH2 0x2D9 JUMPI PUSH1 0x0 DUP1 REVERT JUMPDEST POP PUSH2 0x2F4 PUSH1 0x4 DUP1 CALLDATASIZE SUB DUP2 ADD SWAP1 PUSH2 0x2EF SWAP2 SWAP1 PUSH2 0x1509 JUMP JUMPDEST PUSH2 0xEA4 JUMP JUMPDEST STOP JUMPDEST PUSH1 0x0 PUSH2 0x301 DUP3 PUSH2 0xFEF JUMP JUMPDEST SWAP1 POP DUP1 CALLVALUE LT ISZERO PUSH2 0x346 JUMPI PUSH1 0x40 MLOAD PUSH32 0x8C379A000000000000000000000000000000000000000000000000000000000 DUP2 MSTORE PUSH1 0x4 ADD PUSH2 0x33D SWAP1 PUSH2 0x15B1 JUMP JUMPDEST PUSH1 0x40 MLOAD DUP1 SWAP2 SUB SWAP1 REVERT JUMPDEST PUSH1 0x0 DUP2 CALLVALUE PUSH2 0x354 SWAP2 SWAP1 PUSH2 0x1600 JUMP JUMPDEST SWAP1 POP CALLER PUSH20 0xFFFFFFFFFFFFFFFFFFFFFFFFFFFFFFFFFFFFFFFF AND PUSH2 0x8FC DUP3 SWAP1 DUP2 ISZERO MUL SWAP1 PUSH1 0x40 MLOAD PUSH1 0x0 PUSH1 0x40 MLOAD DUP1 DUP4 SUB DUP2 DUP6 DUP9 DUP9 CALL SWAP4 POP POP POP POP ISZERO DUP1 ISZERO PUSH2 0x39C JUMPI RETURNDATASIZE PUSH1 0x0 DUP1 RETURNDATACOPY RETURNDATASIZE PUSH1 0x0 REVERT JUMPDEST POP PUSH1 0x0 PUSH2 0x3A7 PUSH2 0x66B JUMP JUMPDEST SWAP1 POP DUP1 DUP5 GT ISZERO PUSH2 0x3EC JUMPI PUSH1 0x40 MLOAD PUSH32 0x8C379A000000000000000000000000000000000000000000000000000000000 DUP2 MSTORE PUSH1 0x4 ADD PUSH2 0x3E3 SWAP1 PUSH2 0x1680 JUMP JUMPDEST PUSH1 0x40 MLOAD DUP1 SWAP2 SUB SWAP1 REVERT JUMPDEST PUSH1 0x0 DUP1 SLOAD SWAP1 PUSH2 0x100 EXP SWAP1 DIV PUSH20 0xFFFFFFFFFFFFFFFFFFFFFFFFFFFFFFFFFFFFFFFF AND PUSH20 0xFFFFFFFFFFFFFFFFFFFFFFFFFFFFFFFFFFFFFFFF AND PUSH4 0xA9059CBB CALLER DUP7 PUSH1 0x40 MLOAD DUP4 PUSH4 0xFFFFFFFF AND PUSH1 0xE0 SHL DUP2 MSTORE PUSH1 0x4 ADD PUSH2 0x447 SWAP3 SWAP2 SWAP1 PUSH2 0x16AF JUMP JUMPDEST PUSH1 0x20 PUSH1 0x40 MLOAD DUP1 DUP4 SUB DUP2 PUSH1 0x0 DUP8 GAS CALL ISZERO DUP1 ISZERO PUSH2 0x466 JUMPI RETURNDATASIZE PUSH1 0x0 DUP1 RETURNDATACOPY RETURNDATASIZE PUSH1 0x0 REVERT JUMPDEST POP POP POP POP PUSH1 0x40 MLOAD RETURNDATASIZE PUSH1 0x1F NOT PUSH1 0x1F DUP3 ADD AND DUP3 ADD DUP1 PUSH1 0x40 MSTORE POP DUP2 ADD SWAP1 PUSH2 0x48A SWAP2 SWAP1 PUSH2 0x1704 JUMP JUMPDEST POP DUP4 PUSH1 0x2 PUSH1 0x0 CALLER PUSH20 0xFFFFFFFFFFFFFFFFFFFFFFFFFFFFFFFFFFFFFFFF AND PUSH20 0xFFFFFFFFFFFFFFFFFFFFFFFFFFFFFFFFFFFFFFFF AND DUP2 MSTORE PUSH1 0x20 ADD SWAP1 DUP2 MSTORE PUSH1 0x20 ADD PUSH1 0x0 KECCAK256 PUSH1 0x0 ADD PUSH1 0x0 DUP3 DUP3 SLOAD PUSH2 0x4DD SWAP2 SWAP1 PUSH2 0x1731 JUMP JUMPDEST SWAP3 POP POP DUP2 SWAP1 SSTORE POP POP POP POP POP JUMP JUMPDEST PUSH1 0x0 DUP2 LT ISZERO PUSH2 0x52E JUMPI PUSH1 0x40 MLOAD PUSH32 0x8C379A000000000000000000000000000000000000000000000000000000000 DUP2 MSTORE PUSH1 0x4 ADD PUSH2 0x525 SWAP1 PUSH2 0x17B1 JUMP JUMPDEST PUSH1 0x40 MLOAD DUP1 SWAP2 SUB SWAP1 REVERT JUMPDEST PUSH2 0x536 PUSH2 0xAF6 JUMP JUMPDEST DUP2 GT ISZERO PUSH2 0x578 JUMPI PUSH1 0x40 MLOAD PUSH32 0x8C379A000000000000000000000000000000000000000000000000000000000 DUP2 MSTORE PUSH1 0x4 ADD PUSH2 0x56F SWAP1 PUSH2 0x181D JUMP JUMPDEST PUSH1 0x40 MLOAD DUP1 SWAP2 SUB SWAP1 REVERT JUMPDEST PUSH1 0x0 DUP1 SLOAD SWAP1 PUSH2 0x100 EXP SWAP1 DIV PUSH20 0xFFFFFFFFFFFFFFFFFFFFFFFFFFFFFFFFFFFFFFFF AND PUSH20 0xFFFFFFFFFFFFFFFFFFFFFFFFFFFFFFFFFFFFFFFF AND PUSH4 0xE0631F7F CALLER ADDRESS DUP5 PUSH1 0x40 MLOAD DUP5 PUSH4 0xFFFFFFFF AND PUSH1 0xE0 SHL DUP2 MSTORE PUSH1 0x4 ADD PUSH2 0x5D5 SWAP4 SWAP3 SWAP2 SWAP1 PUSH2 0x183D JUMP JUMPDEST PUSH1 0x20 PUSH1 0x40 MLOAD DUP1 DUP4 SUB DUP2 PUSH1 0x0 DUP8 GAS CALL ISZERO DUP1 ISZERO PUSH2 0x5F4 JUMPI RETURNDATASIZE PUSH1 0x0 DUP1 RETURNDATACOPY RETURNDATASIZE PUSH1 0x0 REVERT JUMPDEST POP POP POP POP PUSH1 0x40 MLOAD RETURNDATASIZE PUSH1 0x1F NOT PUSH1 0x1F DUP3 ADD AND DUP3 ADD DUP1 PUSH1 0x40 MSTORE POP DUP2 ADD SWAP1 PUSH2 0x618 SWAP2 SWAP1 PUSH2 0x1704 JUMP JUMPDEST POP CALLER PUSH20 0xFFFFFFFFFFFFFFFFFFFFFFFFFFFFFFFFFFFFFFFF AND PUSH2 0x8FC PUSH2 0x63C DUP4 PUSH2 0xFEF JUMP JUMPDEST SWAP1 DUP2 ISZERO MUL SWAP1 PUSH1 0x40 MLOAD PUSH1 0x0 PUSH1 0x40 MLOAD DUP1 DUP4 SUB DUP2 DUP6 DUP9 DUP9 CALL SWAP4 POP POP POP POP ISZERO DUP1 ISZERO PUSH2 0x667 JUMPI RETURNDATASIZE PUSH1 0x0 DUP1 RETURNDATACOPY RETURNDATASIZE PUSH1 0x0 REVERT JUMPDEST POP POP JUMP JUMPDEST PUSH1 0x0 DUP1 PUSH1 0x0 SWAP1 SLOAD SWAP1 PUSH2 0x100 EXP SWAP1 DIV PUSH20 0xFFFFFFFFFFFFFFFFFFFFFFFFFFFFFFFFFFFFFFFF AND PUSH20 0xFFFFFFFFFFFFFFFFFFFFFFFFFFFFFFFFFFFFFFFF AND PUSH4 0x70A08231 ADDRESS PUSH1 0x40 MLOAD DUP3 PUSH4 0xFFFFFFFF AND PUSH1 0xE0 SHL DUP2 MSTORE PUSH1 0x4 ADD PUSH2 0x6C7 SWAP2 SWAP1 PUSH2 0x1874 JUMP JUMPDEST PUSH1 0x20 PUSH1 0x40 MLOAD DUP1 DUP4 SUB DUP2 DUP7 GAS STATICCALL ISZERO DUP1 ISZERO PUSH2 0x6E4 JUMPI RETURNDATASIZE PUSH1 0x0 DUP1 RETURNDATACOPY RETURNDATASIZE PUSH1 0x0 REVERT JUMPDEST POP POP POP POP PUSH1 0x40 MLOAD RETURNDATASIZE PUSH1 0x1F NOT PUSH1 0x1F DUP3 ADD AND DUP3 ADD DUP1 PUSH1 0x40 MSTORE POP DUP2 ADD SWAP1 PUSH2 0x708 SWAP2 SWAP1 PUSH2 0x18A4 JUMP JUMPDEST SWAP1 POP SWAP1 JUMP JUMPDEST PUSH1 0x1 PUSH1 0x0 SWAP1 SLOAD SWAP1 PUSH2 0x100 EXP SWAP1 DIV PUSH20 0xFFFFFFFFFFFFFFFFFFFFFFFFFFFFFFFFFFFFFFFF AND PUSH20 0xFFFFFFFFFFFFFFFFFFFFFFFFFFFFFFFFFFFFFFFF AND CALLER PUSH20 0xFFFFFFFFFFFFFFFFFFFFFFFFFFFFFFFFFFFFFFFF AND EQ PUSH2 0x767 JUMPI PUSH1 0x0 DUP1 REVERT JUMPDEST PUSH1 0x0 PUSH1 0x3 DUP3 PUSH1 0x40 MLOAD PUSH2 0x779 SWAP2 SWAP1 PUSH2 0x190D JUMP JUMPDEST SWAP1 DUP2 MSTORE PUSH1 0x20 ADD PUSH1 0x40 MLOAD DUP1 SWAP2 SUB SWAP1 KECCAK256 PUSH1 0x2 ADD PUSH1 0x0 PUSH2 0x100 EXP DUP2 SLOAD DUP2 PUSH1 0xFF MUL NOT AND SWAP1 DUP4 ISZERO ISZERO MUL OR SWAP1 SSTORE POP PUSH32 0xA9B5D005CB280C62BB7A048BB2323E402707D0F05A053A3FE3A3E1B64AA4856D DUP2 PUSH1 0x40 MLOAD PUSH2 0x7D0 SWAP2 SWAP1 PUSH2 0x1924 JUMP JUMPDEST PUSH1 0x40 MLOAD DUP1 SWAP2 SUB SWAP1 LOG1 POP JUMP JUMPDEST PUSH1 0x1 PUSH1 0x0 SWAP1 SLOAD SWAP1 PUSH2 0x100 EXP SWAP1 DIV PUSH20 0xFFFFFFFFFFFFFFFFFFFFFFFFFFFFFFFFFFFFFFFF AND DUP2 JUMP JUMPDEST PUSH1 0x1 PUSH1 0x0 SWAP1 SLOAD SWAP1 PUSH2 0x100 EXP SWAP1 DIV PUSH20 0xFFFFFFFFFFFFFFFFFFFFFFFFFFFFFFFFFFFFFFFF AND PUSH20 0xFFFFFFFFFFFFFFFFFFFFFFFFFFFFFFFFFFFFFFFF AND CALLER PUSH20 0xFFFFFFFFFFFFFFFFFFFFFFFFFFFFFFFFFFFFFFFF AND EQ PUSH2 0x85B JUMPI PUSH1 0x0 DUP1 REVERT JUMPDEST PUSH1 0x0 DUP1 SLOAD SWAP1 PUSH2 0x100 EXP SWAP1 DIV PUSH20 0xFFFFFFFFFFFFFFFFFFFFFFFFFFFFFFFFFFFFFFFF AND PUSH20 0xFFFFFFFFFFFFFFFFFFFFFFFFFFFFFFFFFFFFFFFF AND PUSH4 0x1D43CC98 DUP3 PUSH1 0x40 MLOAD DUP3 PUSH4 0xFFFFFFFF AND PUSH1 0xE0 SHL DUP2 MSTORE PUSH1 0x4 ADD PUSH2 0x8B4 SWAP2 SWAP1 PUSH2 0x1092 JUMP JUMPDEST PUSH1 0x0 PUSH1 0x40 MLOAD DUP1 DUP4 SUB DUP2 PUSH1 0x0 DUP8 DUP1 EXTCODESIZE ISZERO DUP1 ISZERO PUSH2 0x8CE JUMPI PUSH1 0x0 DUP1 REVERT JUMPDEST POP GAS CALL ISZERO DUP1 ISZERO PUSH2 0x8E2 JUMPI RETURNDATASIZE PUSH1 0x0 DUP1 RETURNDATACOPY RETURNDATASIZE PUSH1 0x0 REVERT JUMPDEST POP POP POP POP POP JUMP JUMPDEST PUSH1 0x2 PUSH1 0x20 MSTORE DUP1 PUSH1 0x0 MSTORE PUSH1 0x40 PUSH1 0x0 KECCAK256 PUSH1 0x0 SWAP2 POP SWAP1 POP DUP1 PUSH1 0x0 ADD SLOAD SWAP1 POP DUP2 JUMP JUMPDEST PUSH1 0x60 PUSH1 0x4 DUP1 SLOAD DUP1 PUSH1 0x20 MUL PUSH1 0x20 ADD PUSH1 0x40 MLOAD SWAP1 DUP2 ADD PUSH1 0x40 MSTORE DUP1 SWAP3 SWAP2 SWAP1 DUP2 DUP2 MSTORE PUSH1 0x20 ADD PUSH1 0x0 SWAP1 JUMPDEST DUP3 DUP3 LT ISZERO PUSH2 0x9D7 JUMPI DUP4 DUP3 SWAP1 PUSH1 0x0 MSTORE PUSH1 0x20 PUSH1 0x0 KECCAK256 ADD DUP1 SLOAD PUSH2 0x94A SWAP1 PUSH2 0x1975 JUMP JUMPDEST DUP1 PUSH1 0x1F ADD PUSH1 0x20 DUP1 SWAP2 DIV MUL PUSH1 0x20 ADD PUSH1 0x40 MLOAD SWAP1 DUP2 ADD PUSH1 0x40 MSTORE DUP1 SWAP3 SWAP2 SWAP1 DUP2 DUP2 MSTORE PUSH1 0x20 ADD DUP3 DUP1 SLOAD PUSH2 0x976 SWAP1 PUSH2 0x1975 JUMP JUMPDEST DUP1 ISZERO PUSH2 0x9C3 JUMPI DUP1 PUSH1 0x1F LT PUSH2 0x998 JUMPI PUSH2 0x100 DUP1 DUP4 SLOAD DIV MUL DUP4 MSTORE SWAP2 PUSH1 0x20 ADD SWAP2 PUSH2 0x9C3 JUMP JUMPDEST DUP3 ADD SWAP2 SWAP1 PUSH1 0x0 MSTORE PUSH1 0x20 PUSH1 0x0 KECCAK256 SWAP1 JUMPDEST DUP2 SLOAD DUP2 MSTORE SWAP1 PUSH1 0x1 ADD SWAP1 PUSH1 0x20 ADD DUP1 DUP4 GT PUSH2 0x9A6 JUMPI DUP3 SWAP1 SUB PUSH1 0x1F AND DUP3 ADD SWAP2 JUMPDEST POP POP POP POP POP DUP2 MSTORE PUSH1 0x20 ADD SWAP1 PUSH1 0x1 ADD SWAP1 PUSH2 0x92B JUMP JUMPDEST POP POP POP POP SWAP1 POP SWAP1 JUMP JUMPDEST PUSH1 0x60 PUSH1 0x5 PUSH1 0x0 CALLER PUSH20 0xFFFFFFFFFFFFFFFFFFFFFFFFFFFFFFFFFFFFFFFF AND PUSH20 0xFFFFFFFFFFFFFFFFFFFFFFFFFFFFFFFFFFFFFFFF AND DUP2 MSTORE PUSH1 0x20 ADD SWAP1 DUP2 MSTORE PUSH1 0x20 ADD PUSH1 0x0 KECCAK256 DUP1 SLOAD DUP1 PUSH1 0x20 MUL PUSH1 0x20 ADD PUSH1 0x40 MLOAD SWAP1 DUP2 ADD PUSH1 0x40 MSTORE DUP1 SWAP3 SWAP2 SWAP1 DUP2 DUP2 MSTORE PUSH1 0x20 ADD PUSH1 0x0 SWAP1 JUMPDEST DUP3 DUP3 LT ISZERO PUSH2 0xAED JUMPI DUP4 DUP3 SWAP1 PUSH1 0x0 MSTORE PUSH1 0x20 PUSH1 0x0 KECCAK256 ADD DUP1 SLOAD PUSH2 0xA60 SWAP1 PUSH2 0x1975 JUMP JUMPDEST DUP1 PUSH1 0x1F ADD PUSH1 0x20 DUP1 SWAP2 DIV MUL PUSH1 0x20 ADD PUSH1 0x40 MLOAD SWAP1 DUP2 ADD PUSH1 0x40 MSTORE DUP1 SWAP3 SWAP2 SWAP1 DUP2 DUP2 MSTORE PUSH1 0x20 ADD DUP3 DUP1 SLOAD PUSH2 0xA8C SWAP1 PUSH2 0x1975 JUMP JUMPDEST DUP1 ISZERO PUSH2 0xAD9 JUMPI DUP1 PUSH1 0x1F LT PUSH2 0xAAE JUMPI PUSH2 0x100 DUP1 DUP4 SLOAD DIV MUL DUP4 MSTORE SWAP2 PUSH1 0x20 ADD SWAP2 PUSH2 0xAD9 JUMP JUMPDEST DUP3 ADD SWAP2 SWAP1 PUSH1 0x0 MSTORE PUSH1 0x20 PUSH1 0x0 KECCAK256 SWAP1 JUMPDEST DUP2 SLOAD DUP2 MSTORE SWAP1 PUSH1 0x1 ADD SWAP1 PUSH1 0x20 ADD DUP1 DUP4 GT PUSH2 0xABC JUMPI DUP3 SWAP1 SUB PUSH1 0x1F AND DUP3 ADD SWAP2 JUMPDEST POP POP POP POP POP DUP2 MSTORE PUSH1 0x20 ADD SWAP1 PUSH1 0x1 ADD SWAP1 PUSH2 0xA41 JUMP JUMPDEST POP POP POP POP SWAP1 POP SWAP1 JUMP JUMPDEST PUSH1 0x0 DUP1 PUSH1 0x0 SWAP1 SLOAD SWAP1 PUSH2 0x100 EXP SWAP1 DIV PUSH20 0xFFFFFFFFFFFFFFFFFFFFFFFFFFFFFFFFFFFFFFFF AND PUSH20 0xFFFFFFFFFFFFFFFFFFFFFFFFFFFFFFFFFFFFFFFF AND PUSH4 0x70A08231 CALLER PUSH1 0x40 MLOAD DUP3 PUSH4 0xFFFFFFFF AND PUSH1 0xE0 SHL DUP2 MSTORE PUSH1 0x4 ADD PUSH2 0xB52 SWAP2 SWAP1 PUSH2 0x1874 JUMP JUMPDEST PUSH1 0x20 PUSH1 0x40 MLOAD DUP1 DUP4 SUB DUP2 DUP7 GAS STATICCALL ISZERO DUP1 ISZERO PUSH2 0xB6F JUMPI RETURNDATASIZE PUSH1 0x0 DUP1 RETURNDATACOPY RETURNDATASIZE PUSH1 0x0 REVERT JUMPDEST POP POP POP POP PUSH1 0x40 MLOAD RETURNDATASIZE PUSH1 0x1F NOT PUSH1 0x1F DUP3 ADD AND DUP3 ADD DUP1 PUSH1 0x40 MSTORE POP DUP2 ADD SWAP1 PUSH2 0xB93 SWAP2 SWAP1 PUSH2 0x18A4 JUMP JUMPDEST SWAP1 POP SWAP1 JUMP JUMPDEST PUSH1 0x3 DUP2 DUP1 MLOAD PUSH1 0x20 DUP2 ADD DUP3 ADD DUP1 MLOAD DUP5 DUP3 MSTORE PUSH1 0x20 DUP4 ADD PUSH1 0x20 DUP6 ADD KECCAK256 DUP2 DUP4 MSTORE DUP1 SWAP6 POP POP POP POP POP POP PUSH1 0x0 SWAP2 POP SWAP1 POP DUP1 PUSH1 0x0 ADD DUP1 SLOAD PUSH2 0xBD1 SWAP1 PUSH2 0x1975 JUMP JUMPDEST DUP1 PUSH1 0x1F ADD PUSH1 0x20 DUP1 SWAP2 DIV MUL PUSH1 0x20 ADD PUSH1 0x40 MLOAD SWAP1 DUP2 ADD PUSH1 0x40 MSTORE DUP1 SWAP3 SWAP2 SWAP1 DUP2 DUP2 MSTORE PUSH1 0x20 ADD DUP3 DUP1 SLOAD PUSH2 0xBFD SWAP1 PUSH2 0x1975 JUMP JUMPDEST DUP1 ISZERO PUSH2 0xC4A JUMPI DUP1 PUSH1 0x1F LT PUSH2 0xC1F JUMPI PUSH2 0x100 DUP1 DUP4 SLOAD DIV MUL DUP4 MSTORE SWAP2 PUSH1 0x20 ADD SWAP2 PUSH2 0xC4A JUMP JUMPDEST DUP3 ADD SWAP2 SWAP1 PUSH1 0x0 MSTORE PUSH1 0x20 PUSH1 0x0 KECCAK256 SWAP1 JUMPDEST DUP2 SLOAD DUP2 MSTORE SWAP1 PUSH1 0x1 ADD SWAP1 PUSH1 0x20 ADD DUP1 DUP4 GT PUSH2 0xC2D JUMPI DUP3 SWAP1 SUB PUSH1 0x1F AND DUP3 ADD SWAP2 JUMPDEST POP POP POP POP POP SWAP1 DUP1 PUSH1 0x1 ADD SLOAD SWAP1 DUP1 PUSH1 0x2 ADD PUSH1 0x0 SWAP1 SLOAD SWAP1 PUSH2 0x100 EXP SWAP1 DIV PUSH1 0xFF AND SWAP1 POP DUP4 JUMP JUMPDEST PUSH1 0x1 ISZERO ISZERO PUSH1 0x3 DUP3 PUSH1 0x40 MLOAD PUSH2 0xC81 SWAP2 SWAP1 PUSH2 0x190D JUMP JUMPDEST SWAP1 DUP2 MSTORE PUSH1 0x20 ADD PUSH1 0x40 MLOAD DUP1 SWAP2 SUB SWAP1 KECCAK256 PUSH1 0x2 ADD PUSH1 0x0 SWAP1 SLOAD SWAP1 PUSH2 0x100 EXP SWAP1 DIV PUSH1 0xFF AND ISZERO ISZERO EQ PUSH2 0xCE2 JUMPI PUSH1 0x40 MLOAD PUSH32 0x8C379A000000000000000000000000000000000000000000000000000000000 DUP2 MSTORE PUSH1 0x4 ADD PUSH2 0xCD9 SWAP1 PUSH2 0x19F2 JUMP JUMPDEST PUSH1 0x40 MLOAD DUP1 SWAP2 SUB SWAP1 REVERT JUMPDEST PUSH1 0x0 PUSH1 0x3 DUP3 PUSH1 0x40 MLOAD PUSH2 0xCF4 SWAP2 SWAP1 PUSH2 0x190D JUMP JUMPDEST SWAP1 DUP2 MSTORE PUSH1 0x20 ADD PUSH1 0x40 MLOAD DUP1 SWAP2 SUB SWAP1 KECCAK256 PUSH1 0x1 ADD SLOAD SWAP1 POP DUP1 PUSH2 0xD11 PUSH2 0xAF6 JUMP JUMPDEST LT ISZERO PUSH2 0xD52 JUMPI PUSH1 0x40 MLOAD PUSH32 0x8C379A000000000000000000000000000000000000000000000000000000000 DUP2 MSTORE PUSH1 0x4 ADD PUSH2 0xD49 SWAP1 PUSH2 0x181D JUMP JUMPDEST PUSH1 0x40 MLOAD DUP1 SWAP2 SUB SWAP1 REVERT JUMPDEST PUSH1 0x0 DUP1 SLOAD SWAP1 PUSH2 0x100 EXP SWAP1 DIV PUSH20 0xFFFFFFFFFFFFFFFFFFFFFFFFFFFFFFFFFFFFFFFF AND PUSH20 0xFFFFFFFFFFFFFFFFFFFFFFFFFFFFFFFFFFFFFFFF AND PUSH4 0xE0631F7F CALLER ADDRESS DUP5 PUSH1 0x40 MLOAD DUP5 PUSH4 0xFFFFFFFF AND PUSH1 0xE0 SHL DUP2 MSTORE PUSH1 0x4 ADD PUSH2 0xDAF SWAP4 SWAP3 SWAP2 SWAP1 PUSH2 0x183D JUMP JUMPDEST PUSH1 0x20 PUSH1 0x40 MLOAD DUP1 DUP4 SUB DUP2 PUSH1 0x0 DUP8 GAS CALL ISZERO DUP1 ISZERO PUSH2 0xDCE JUMPI RETURNDATASIZE PUSH1 0x0 DUP1 RETURNDATACOPY RETURNDATASIZE PUSH1 0x0 REVERT JUMPDEST POP POP POP POP PUSH1 0x40 MLOAD RETURNDATASIZE PUSH1 0x1F NOT PUSH1 0x1F DUP3 ADD AND DUP3 ADD DUP1 PUSH1 0x40 MSTORE POP DUP2 ADD SWAP1 PUSH2 0xDF2 SWAP2 SWAP1 PUSH2 0x1704 JUMP JUMPDEST POP PUSH1 0x5 PUSH1 0x0 CALLER PUSH20 0xFFFFFFFFFFFFFFFFFFFFFFFFFFFFFFFFFFFFFFFF AND PUSH20 0xFFFFFFFFFFFFFFFFFFFFFFFFFFFFFFFFFFFFFFFF AND DUP2 MSTORE PUSH1 0x20 ADD SWAP1 DUP2 MSTORE PUSH1 0x20 ADD PUSH1 0x0 KECCAK256 DUP3 SWAP1 DUP1 PUSH1 0x1 DUP2 SLOAD ADD DUP1 DUP3 SSTORE DUP1 SWAP2 POP POP PUSH1 0x1 SWAP1 SUB SWAP1 PUSH1 0x0 MSTORE PUSH1 0x20 PUSH1 0x0 KECCAK256 ADD PUSH1 0x0 SWAP1 SWAP2 SWAP1 SWAP2 SWAP1 SWAP2 POP SWAP1 DUP2 PUSH2 0xE64 SWAP2 SWAP1 PUSH2 0x1BBE JUMP JUMPDEST POP PUSH32 0xFCEC2A140106A441FBAAE966BD30F8CACD5C4AE875E31E09ACEC6324F2A065B3 DUP3 DUP3 CALLER PUSH1 0x40 MLOAD PUSH2 0xE98 SWAP4 SWAP3 SWAP2 SWAP1 PUSH2 0x1C90 JUMP JUMPDEST PUSH1 0x40 MLOAD DUP1 SWAP2 SUB SWAP1 LOG1 POP POP JUMP JUMPDEST PUSH1 0x1 PUSH1 0x0 SWAP1 SLOAD SWAP1 PUSH2 0x100 EXP SWAP1 DIV PUSH20 0xFFFFFFFFFFFFFFFFFFFFFFFFFFFFFFFFFFFFFFFF AND PUSH20 0xFFFFFFFFFFFFFFFFFFFFFFFFFFFFFFFFFFFFFFFF AND CALLER PUSH20 0xFFFFFFFFFFFFFFFFFFFFFFFFFFFFFFFFFFFFFFFF AND EQ PUSH2 0xEFE JUMPI PUSH1 0x0 DUP1 REVERT JUMPDEST PUSH1 0x40 MLOAD DUP1 PUSH1 0x60 ADD PUSH1 0x40 MSTORE DUP1 DUP4 DUP2 MSTORE PUSH1 0x20 ADD DUP3 DUP2 MSTORE PUSH1 0x20 ADD PUSH1 0x1 ISZERO ISZERO DUP2 MSTORE POP PUSH1 0x3 DUP4 PUSH1 0x40 MLOAD PUSH2 0xF2C SWAP2 SWAP1 PUSH2 0x190D JUMP JUMPDEST SWAP1 DUP2 MSTORE PUSH1 0x20 ADD PUSH1 0x40 MLOAD DUP1 SWAP2 SUB SWAP1 KECCAK256 PUSH1 0x0 DUP3 ADD MLOAD DUP2 PUSH1 0x0 ADD SWAP1 DUP2 PUSH2 0xF4F SWAP2 SWAP1 PUSH2 0x1BBE JUMP JUMPDEST POP PUSH1 0x20 DUP3 ADD MLOAD DUP2 PUSH1 0x1 ADD SSTORE PUSH1 0x40 DUP3 ADD MLOAD DUP2 PUSH1 0x2 ADD PUSH1 0x0 PUSH2 0x100 EXP DUP2 SLOAD DUP2 PUSH1 0xFF MUL NOT AND SWAP1 DUP4 ISZERO ISZERO MUL OR SWAP1 SSTORE POP SWAP1 POP POP PUSH1 0x4 DUP3 SWAP1 DUP1 PUSH1 0x1 DUP2 SLOAD ADD DUP1 DUP3 SSTORE DUP1 SWAP2 POP POP PUSH1 0x1 SWAP1 SUB SWAP1 PUSH1 0x0 MSTORE PUSH1 0x20 PUSH1 0x0 KECCAK256 ADD PUSH1 0x0 SWAP1 SWAP2 SWAP1 SWAP2 SWAP1 SWAP2 POP SWAP1 DUP2 PUSH2 0xFB1 SWAP2 SWAP1 PUSH2 0x1BBE JUMP JUMPDEST POP PUSH32 0x7881AAF671F51BE7F8D7A5D3E85D5C6C2E67C380908056A877BC6CFC1B8BFC5E DUP3 DUP3 PUSH1 0x40 MLOAD PUSH2 0xFE3 SWAP3 SWAP2 SWAP1 PUSH2 0x1CCE JUMP JUMPDEST PUSH1 0x40 MLOAD DUP1 SWAP2 SUB SWAP1 LOG1 POP POP JUMP JUMPDEST PUSH1 0x0 PUSH8 0xDE0B6B3A7640000 DUP3 PUSH2 0x1005 SWAP2 SWAP1 PUSH2 0x1CFE JUMP JUMPDEST SWAP1 POP SWAP2 SWAP1 POP JUMP JUMPDEST PUSH1 0x0 PUSH1 0x40 MLOAD SWAP1 POP SWAP1 JUMP JUMPDEST PUSH1 0x0 DUP1 REVERT JUMPDEST PUSH1 0x0 DUP1 REVERT JUMPDEST PUSH1 0x0 DUP2 SWAP1 POP SWAP2 SWAP1 POP JUMP JUMPDEST PUSH2 0x1033 DUP2 PUSH2 0x1020 JUMP JUMPDEST DUP2 EQ PUSH2 0x103E JUMPI PUSH1 0x0 DUP1 REVERT JUMPDEST POP JUMP JUMPDEST PUSH1 0x0 DUP2 CALLDATALOAD SWAP1 POP PUSH2 0x1050 DUP2 PUSH2 0x102A JUMP JUMPDEST SWAP3 SWAP2 POP POP JUMP JUMPDEST PUSH1 0x0 PUSH1 0x20 DUP3 DUP5 SUB SLT ISZERO PUSH2 0x106C JUMPI PUSH2 0x106B PUSH2 0x1016 JUMP JUMPDEST JUMPDEST PUSH1 0x0 PUSH2 0x107A DUP5 DUP3 DUP6 ADD PUSH2 0x1041 JUMP JUMPDEST SWAP2 POP POP SWAP3 SWAP2 POP POP JUMP JUMPDEST PUSH2 0x108C DUP2 PUSH2 0x1020 JUMP JUMPDEST DUP3 MSTORE POP POP JUMP JUMPDEST PUSH1 0x0 PUSH1 0x20 DUP3 ADD SWAP1 POP PUSH2 0x10A7 PUSH1 0x0 DUP4 ADD DUP5 PUSH2 0x1083 JUMP JUMPDEST SWAP3 SWAP2 POP POP JUMP JUMPDEST PUSH1 0x0 DUP1 REVERT JUMPDEST PUSH1 0x0 DUP1 REVERT JUMPDEST PUSH1 0x0 PUSH1 0x1F NOT PUSH1 0x1F DUP4 ADD AND SWAP1 POP SWAP2 SWAP1 POP JUMP JUMPDEST PUSH32 0x4E487B7100000000000000000000000000000000000000000000000000000000 PUSH1 0x0 MSTORE PUSH1 0x41 PUSH1 0x4 MSTORE PUSH1 0x24 PUSH1 0x0 REVERT JUMPDEST PUSH2 0x1100 DUP3 PUSH2 0x10B7 JUMP JUMPDEST DUP2 ADD DUP2 DUP2 LT PUSH8 0xFFFFFFFFFFFFFFFF DUP3 GT OR ISZERO PUSH2 0x111F JUMPI PUSH2 0x111E PUSH2 0x10C8 JUMP JUMPDEST JUMPDEST DUP1 PUSH1 0x40 MSTORE POP POP POP JUMP JUMPDEST PUSH1 0x0 PUSH2 0x1132 PUSH2 0x100C JUMP JUMPDEST SWAP1 POP PUSH2 0x113E DUP3 DUP3 PUSH2 0x10F7 JUMP JUMPDEST SWAP2 SWAP1 POP JUMP JUMPDEST PUSH1 0x0 PUSH8 0xFFFFFFFFFFFFFFFF DUP3 GT ISZERO PUSH2 0x115E JUMPI PUSH2 0x115D PUSH2 0x10C8 JUMP JUMPDEST JUMPDEST PUSH2 0x1167 DUP3 PUSH2 0x10B7 JUMP JUMPDEST SWAP1 POP PUSH1 0x20 DUP2 ADD SWAP1 POP SWAP2 SWAP1 POP JUMP JUMPDEST DUP3 DUP2 DUP4 CALLDATACOPY PUSH1 0x0 DUP4 DUP4 ADD MSTORE POP POP POP JUMP JUMPDEST PUSH1 0x0 PUSH2 0x1196 PUSH2 0x1191 DUP5 PUSH2 0x1143 JUMP JUMPDEST PUSH2 0x1128 JUMP JUMPDEST SWAP1 POP DUP3 DUP2 MSTORE PUSH1 0x20 DUP2 ADD DUP5 DUP5 DUP5 ADD GT ISZERO PUSH2 0x11B2 JUMPI PUSH2 0x11B1 PUSH2 0x10B2 JUMP JUMPDEST JUMPDEST PUSH2 0x11BD DUP5 DUP3 DUP6 PUSH2 0x1174 JUMP JUMPDEST POP SWAP4 SWAP3 POP POP POP JUMP JUMPDEST PUSH1 0x0 DUP3 PUSH1 0x1F DUP4 ADD SLT PUSH2 0x11DA JUMPI PUSH2 0x11D9 PUSH2 0x10AD JUMP JUMPDEST JUMPDEST DUP2 CALLDATALOAD PUSH2 0x11EA DUP5 DUP3 PUSH1 0x20 DUP7 ADD PUSH2 0x1183 JUMP JUMPDEST SWAP2 POP POP SWAP3 SWAP2 POP POP JUMP JUMPDEST PUSH1 0x0 PUSH1 0x20 DUP3 DUP5 SUB SLT ISZERO PUSH2 0x1209 JUMPI PUSH2 0x1208 PUSH2 0x1016 JUMP JUMPDEST JUMPDEST PUSH1 0x0 DUP3 ADD CALLDATALOAD PUSH8 0xFFFFFFFFFFFFFFFF DUP2 GT ISZERO PUSH2 0x1227 JUMPI PUSH2 0x1226 PUSH2 0x101B JUMP JUMPDEST JUMPDEST PUSH2 0x1233 DUP5 DUP3 DUP6 ADD PUSH2 0x11C5 JUMP JUMPDEST SWAP2 POP POP SWAP3 SWAP2 POP POP JUMP JUMPDEST PUSH1 0x0 PUSH20 0xFFFFFFFFFFFFFFFFFFFFFFFFFFFFFFFFFFFFFFFF DUP3 AND SWAP1 POP SWAP2 SWAP1 POP JUMP JUMPDEST PUSH1 0x0 PUSH2 0x1267 DUP3 PUSH2 0x123C JUMP JUMPDEST SWAP1 POP SWAP2 SWAP1 POP JUMP JUMPDEST PUSH2 0x1277 DUP2 PUSH2 0x125C JUMP JUMPDEST DUP3 MSTORE POP POP JUMP JUMPDEST PUSH1 0x0 PUSH1 0x20 DUP3 ADD SWAP1 POP PUSH2 0x1292 PUSH1 0x0 DUP4 ADD DUP5 PUSH2 0x126E JUMP JUMPDEST SWAP3 SWAP2 POP POP JUMP JUMPDEST PUSH1 0x0 PUSH2 0x12A3 DUP3 PUSH2 0x123C JUMP JUMPDEST SWAP1 POP SWAP2 SWAP1 POP JUMP JUMPDEST PUSH2 0x12B3 DUP2 PUSH2 0x1298 JUMP JUMPDEST DUP2 EQ PUSH2 0x12BE JUMPI PUSH1 0x0 DUP1 REVERT JUMPDEST POP JUMP JUMPDEST PUSH1 0x0 DUP2 CALLDATALOAD SWAP1 POP PUSH2 0x12D0 DUP2 PUSH2 0x12AA JUMP JUMPDEST SWAP3 SWAP2 POP POP JUMP JUMPDEST PUSH1 0x0 PUSH1 0x20 DUP3 DUP5 SUB SLT ISZERO PUSH2 0x12EC JUMPI PUSH2 0x12EB PUSH2 0x1016 JUMP JUMPDEST JUMPDEST PUSH1 0x0 PUSH2 0x12FA DUP5 DUP3 DUP6 ADD PUSH2 0x12C1 JUMP JUMPDEST SWAP2 POP POP SWAP3 SWAP2 POP POP JUMP JUMPDEST PUSH1 0x0 DUP2 MLOAD SWAP1 POP SWAP2 SWAP1 POP JUMP JUMPDEST PUSH1 0x0 DUP3 DUP3 MSTORE PUSH1 0x20 DUP3 ADD SWAP1 POP SWAP3 SWAP2 POP POP JUMP JUMPDEST PUSH1 0x0 DUP2 SWAP1 POP PUSH1 0x20 DUP3 ADD SWAP1 POP SWAP2 SWAP1 POP JUMP JUMPDEST PUSH1 0x0 DUP2 MLOAD SWAP1 POP SWAP2 SWAP1 POP JUMP JUMPDEST PUSH1 0x0 DUP3 DUP3 MSTORE PUSH1 0x20 DUP3 ADD SWAP1 POP SWAP3 SWAP2 POP POP JUMP JUMPDEST PUSH1 0x0 JUMPDEST DUP4 DUP2 LT ISZERO PUSH2 0x1369 JUMPI DUP1 DUP3 ADD MLOAD DUP2 DUP5 ADD MSTORE PUSH1 0x20 DUP2 ADD SWAP1 POP PUSH2 0x134E JUMP JUMPDEST PUSH1 0x0 DUP5 DUP5 ADD MSTORE POP POP POP POP JUMP JUMPDEST PUSH1 0x0 PUSH2 0x1380 DUP3 PUSH2 0x132F JUMP JUMPDEST PUSH2 0x138A DUP2 DUP6 PUSH2 0x133A JUMP JUMPDEST SWAP4 POP PUSH2 0x139A DUP2 DUP6 PUSH1 0x20 DUP7 ADD PUSH2 0x134B JUMP JUMPDEST PUSH2 0x13A3 DUP2 PUSH2 0x10B7 JUMP JUMPDEST DUP5 ADD SWAP2 POP POP SWAP3 SWAP2 POP POP JUMP JUMPDEST PUSH1 0x0 PUSH2 0x13BA DUP4 DUP4 PUSH2 0x1375 JUMP JUMPDEST SWAP1 POP SWAP3 SWAP2 POP POP JUMP JUMPDEST PUSH1 0x0 PUSH1 0x20 DUP3 ADD SWAP1 POP SWAP2 SWAP1 POP JUMP JUMPDEST PUSH1 0x0 PUSH2 0x13DA DUP3 PUSH2 0x1303 JUMP JUMPDEST PUSH2 0x13E4 DUP2 DUP6 PUSH2 0x130E JUMP JUMPDEST SWAP4 POP DUP4 PUSH1 0x20 DUP3 MUL DUP6 ADD PUSH2 0x13F6 DUP6 PUSH2 0x131F JUMP JUMPDEST DUP1 PUSH1 0x0 JUMPDEST DUP6 DUP2 LT ISZERO PUSH2 0x1432 JUMPI DUP5 DUP5 SUB DUP10 MSTORE DUP2 MLOAD PUSH2 0x1413 DUP6 DUP3 PUSH2 0x13AE JUMP JUMPDEST SWAP5 POP PUSH2 0x141E DUP4 PUSH2 0x13C2 JUMP JUMPDEST SWAP3 POP PUSH1 0x20 DUP11 ADD SWAP10 POP POP PUSH1 0x1 DUP2 ADD SWAP1 POP PUSH2 0x13FA JUMP JUMPDEST POP DUP3 SWAP8 POP DUP8 SWAP6 POP POP POP POP POP POP SWAP3 SWAP2 POP POP JUMP JUMPDEST PUSH1 0x0 PUSH1 0x20 DUP3 ADD SWAP1 POP DUP2 DUP2 SUB PUSH1 0x0 DUP4 ADD MSTORE PUSH2 0x145E DUP2 DUP5 PUSH2 0x13CF JUMP JUMPDEST SWAP1 POP SWAP3 SWAP2 POP POP JUMP JUMPDEST PUSH1 0x0 DUP3 DUP3 MSTORE PUSH1 0x20 DUP3 ADD SWAP1 POP SWAP3 SWAP2 POP POP JUMP JUMPDEST PUSH1 0x0 PUSH2 0x1482 DUP3 PUSH2 0x132F JUMP JUMPDEST PUSH2 0x148C DUP2 DUP6 PUSH2 0x1466 JUMP JUMPDEST SWAP4 POP PUSH2 0x149C DUP2 DUP6 PUSH1 0x20 DUP7 ADD PUSH2 0x134B JUMP JUMPDEST PUSH2 0x14A5 DUP2 PUSH2 0x10B7 JUMP JUMPDEST DUP5 ADD SWAP2 POP POP SWAP3 SWAP2 POP POP JUMP JUMPDEST PUSH1 0x0 DUP2 ISZERO ISZERO SWAP1 POP SWAP2 SWAP1 POP JUMP JUMPDEST PUSH2 0x14C5 DUP2 PUSH2 0x14B0 JUMP JUMPDEST DUP3 MSTORE POP POP JUMP JUMPDEST PUSH1 0x0 PUSH1 0x60 DUP3 ADD SWAP1 POP DUP2 DUP2 SUB PUSH1 0x0 DUP4 ADD MSTORE PUSH2 0x14E5 DUP2 DUP7 PUSH2 0x1477 JUMP JUMPDEST SWAP1 POP PUSH2 0x14F4 PUSH1 0x20 DUP4 ADD DUP6 PUSH2 0x1083 JUMP JUMPDEST PUSH2 0x1501 PUSH1 0x40 DUP4 ADD DUP5 PUSH2 0x14BC JUMP JUMPDEST SWAP5 SWAP4 POP POP POP POP JUMP JUMPDEST PUSH1 0x0 DUP1 PUSH1 0x40 DUP4 DUP6 SUB SLT ISZERO PUSH2 0x1520 JUMPI PUSH2 0x151F PUSH2 0x1016 JUMP JUMPDEST JUMPDEST PUSH1 0x0 DUP4 ADD CALLDATALOAD PUSH8 0xFFFFFFFFFFFFFFFF DUP2 GT ISZERO PUSH2 0x153E JUMPI PUSH2 0x153D PUSH2 0x101B JUMP JUMPDEST JUMPDEST PUSH2 0x154A DUP6 DUP3 DUP7 ADD PUSH2 0x11C5 JUMP JUMPDEST SWAP3 POP POP PUSH1 0x20 PUSH2 0x155B DUP6 DUP3 DUP7 ADD PUSH2 0x1041 JUMP JUMPDEST SWAP2 POP POP SWAP3 POP SWAP3 SWAP1 POP JUMP JUMPDEST PUSH32 0x496E73756666696369656E7420616D6F756E7400000000000000000000000000 PUSH1 0x0 DUP3 ADD MSTORE POP JUMP JUMPDEST PUSH1 0x0 PUSH2 0x159B PUSH1 0x13 DUP4 PUSH2 0x1466 JUMP JUMPDEST SWAP2 POP PUSH2 0x15A6 DUP3 PUSH2 0x1565 JUMP JUMPDEST PUSH1 0x20 DUP3 ADD SWAP1 POP SWAP2 SWAP1 POP JUMP JUMPDEST PUSH1 0x0 PUSH1 0x20 DUP3 ADD SWAP1 POP DUP2 DUP2 SUB PUSH1 0x0 DUP4 ADD MSTORE PUSH2 0x15CA DUP2 PUSH2 0x158E JUMP JUMPDEST SWAP1 POP SWAP2 SWAP1 POP JUMP JUMPDEST PUSH32 0x4E487B7100000000000000000000000000000000000000000000000000000000 PUSH1 0x0 MSTORE PUSH1 0x11 PUSH1 0x4 MSTORE PUSH1 0x24 PUSH1 0x0 REVERT JUMPDEST PUSH1 0x0 PUSH2 0x160B DUP3 PUSH2 0x1020 JUMP JUMPDEST SWAP2 POP PUSH2 0x1616 DUP4 PUSH2 0x1020 JUMP JUMPDEST SWAP3 POP DUP3 DUP3 SUB SWAP1 POP DUP2 DUP2 GT ISZERO PUSH2 0x162E JUMPI PUSH2 0x162D PUSH2 0x15D1 JUMP JUMPDEST JUMPDEST SWAP3 SWAP2 POP POP JUMP JUMPDEST PUSH32 0x5472616E73616374696F6E206661696C65640000000000000000000000000000 PUSH1 0x0 DUP3 ADD MSTORE POP JUMP JUMPDEST PUSH1 0x0 PUSH2 0x166A PUSH1 0x12 DUP4 PUSH2 0x1466 JUMP JUMPDEST SWAP2 POP PUSH2 0x1675 DUP3 PUSH2 0x1634 JUMP JUMPDEST PUSH1 0x20 DUP3 ADD SWAP1 POP SWAP2 SWAP1 POP JUMP JUMPDEST PUSH1 0x0 PUSH1 0x20 DUP3 ADD SWAP1 POP DUP2 DUP2 SUB PUSH1 0x0 DUP4 ADD MSTORE PUSH2 0x1699 DUP2 PUSH2 0x165D JUMP JUMPDEST SWAP1 POP SWAP2 SWAP1 POP JUMP JUMPDEST PUSH2 0x16A9 DUP2 PUSH2 0x1298 JUMP JUMPDEST DUP3 MSTORE POP POP JUMP JUMPDEST PUSH1 0x0 PUSH1 0x40 DUP3 ADD SWAP1 POP PUSH2 0x16C4 PUSH1 0x0 DUP4 ADD DUP6 PUSH2 0x16A0 JUMP JUMPDEST PUSH2 0x16D1 PUSH1 0x20 DUP4 ADD DUP5 PUSH2 0x1083 JUMP JUMPDEST SWAP4 SWAP3 POP POP POP JUMP JUMPDEST PUSH2 0x16E1 DUP2 PUSH2 0x14B0 JUMP JUMPDEST DUP2 EQ PUSH2 0x16EC JUMPI PUSH1 0x0 DUP1 REVERT JUMPDEST POP JUMP JUMPDEST PUSH1 0x0 DUP2 MLOAD SWAP1 POP PUSH2 0x16FE DUP2 PUSH2 0x16D8 JUMP JUMPDEST SWAP3 SWAP2 POP POP JUMP JUMPDEST PUSH1 0x0 PUSH1 0x20 DUP3 DUP5 SUB SLT ISZERO PUSH2 0x171A JUMPI PUSH2 0x1719 PUSH2 0x1016 JUMP JUMPDEST JUMPDEST PUSH1 0x0 PUSH2 0x1728 DUP5 DUP3 DUP6 ADD PUSH2 0x16EF JUMP JUMPDEST SWAP2 POP POP SWAP3 SWAP2 POP POP JUMP JUMPDEST PUSH1 0x0 PUSH2 0x173C DUP3 PUSH2 0x1020 JUMP JUMPDEST SWAP2 POP PUSH2 0x1747 DUP4 PUSH2 0x1020 JUMP JUMPDEST SWAP3 POP DUP3 DUP3 ADD SWAP1 POP DUP1 DUP3 GT ISZERO PUSH2 0x175F JUMPI PUSH2 0x175E PUSH2 0x15D1 JUMP JUMPDEST JUMPDEST SWAP3 SWAP2 POP POP JUMP JUMPDEST PUSH32 0x43616E2774206265206E65676174697665210000000000000000000000000000 PUSH1 0x0 DUP3 ADD MSTORE POP JUMP JUMPDEST PUSH1 0x0 PUSH2 0x179B PUSH1 0x12 DUP4 PUSH2 0x1466 JUMP JUMPDEST SWAP2 POP PUSH2 0x17A6 DUP3 PUSH2 0x1765 JUMP JUMPDEST PUSH1 0x20 DUP3 ADD SWAP1 POP SWAP2 SWAP1 POP JUMP JUMPDEST PUSH1 0x0 PUSH1 0x20 DUP3 ADD SWAP1 POP DUP2 DUP2 SUB PUSH1 0x0 DUP4 ADD MSTORE PUSH2 0x17CA DUP2 PUSH2 0x178E JUMP JUMPDEST SWAP1 POP SWAP2 SWAP1 POP JUMP JUMPDEST PUSH32 0x496E73756666696369656E742042616C616E6365000000000000000000000000 PUSH1 0x0 DUP3 ADD MSTORE POP JUMP JUMPDEST PUSH1 0x0 PUSH2 0x1807 PUSH1 0x14 DUP4 PUSH2 0x1466 JUMP JUMPDEST SWAP2 POP PUSH2 0x1812 DUP3 PUSH2 0x17D1 JUMP JUMPDEST PUSH1 0x20 DUP3 ADD SWAP1 POP SWAP2 SWAP1 POP JUMP JUMPDEST PUSH1 0x0 PUSH1 0x20 DUP3 ADD SWAP1 POP DUP2 DUP2 SUB PUSH1 0x0 DUP4 ADD MSTORE PUSH2 0x1836 DUP2 PUSH2 0x17FA JUMP JUMPDEST SWAP1 POP SWAP2 SWAP1 POP JUMP JUMPDEST PUSH1 0x0 PUSH1 0x60 DUP3 ADD SWAP1 POP PUSH2 0x1852 PUSH1 0x0 DUP4 ADD DUP7 PUSH2 0x16A0 JUMP JUMPDEST PUSH2 0x185F PUSH1 0x20 DUP4 ADD DUP6 PUSH2 0x16A0 JUMP JUMPDEST PUSH2 0x186C PUSH1 0x40 DUP4 ADD DUP5 PUSH2 0x1083 JUMP JUMPDEST SWAP5 SWAP4 POP POP POP POP JUMP JUMPDEST PUSH1 0x0 PUSH1 0x20 DUP3 ADD SWAP1 POP PUSH2 0x1889 PUSH1 0x0 DUP4 ADD DUP5 PUSH2 0x16A0 JUMP JUMPDEST SWAP3 SWAP2 POP POP JUMP JUMPDEST PUSH1 0x0 DUP2 MLOAD SWAP1 POP PUSH2 0x189E DUP2 PUSH2 0x102A JUMP JUMPDEST SWAP3 SWAP2 POP POP JUMP JUMPDEST PUSH1 0x0 PUSH1 0x20 DUP3 DUP5 SUB SLT ISZERO PUSH2 0x18BA JUMPI PUSH2 0x18B9 PUSH2 0x1016 JUMP JUMPDEST JUMPDEST PUSH1 0x0 PUSH2 0x18C8 DUP5 DUP3 DUP6 ADD PUSH2 0x188F JUMP JUMPDEST SWAP2 POP POP SWAP3 SWAP2 POP POP JUMP JUMPDEST PUSH1 0x0 DUP2 SWAP1 POP SWAP3 SWAP2 POP POP JUMP JUMPDEST PUSH1 0x0 PUSH2 0x18E7 DUP3 PUSH2 0x132F JUMP JUMPDEST PUSH2 0x18F1 DUP2 DUP6 PUSH2 0x18D1 JUMP JUMPDEST SWAP4 POP PUSH2 0x1901 DUP2 DUP6 PUSH1 0x20 DUP7 ADD PUSH2 0x134B JUMP JUMPDEST DUP1 DUP5 ADD SWAP2 POP POP SWAP3 SWAP2 POP POP JUMP JUMPDEST PUSH1 0x0 PUSH2 0x1919 DUP3 DUP5 PUSH2 0x18DC JUMP JUMPDEST SWAP2 POP DUP2 SWAP1 POP SWAP3 SWAP2 POP POP JUMP JUMPDEST PUSH1 0x0 PUSH1 0x20 DUP3 ADD SWAP1 POP DUP2 DUP2 SUB PUSH1 0x0 DUP4 ADD MSTORE PUSH2 0x193E DUP2 DUP5 PUSH2 0x1477 JUMP JUMPDEST SWAP1 POP SWAP3 SWAP2 POP POP JUMP JUMPDEST PUSH32 0x4E487B7100000000000000000000000000000000000000000000000000000000 PUSH1 0x0 MSTORE PUSH1 0x22 PUSH1 0x4 MSTORE PUSH1 0x24 PUSH1 0x0 REVERT JUMPDEST PUSH1 0x0 PUSH1 0x2 DUP3 DIV SWAP1 POP PUSH1 0x1 DUP3 AND DUP1 PUSH2 0x198D JUMPI PUSH1 0x7F DUP3 AND SWAP2 POP JUMPDEST PUSH1 0x20 DUP3 LT DUP2 SUB PUSH2 0x19A0 JUMPI PUSH2 0x199F PUSH2 0x1946 JUMP JUMPDEST JUMPDEST POP SWAP2 SWAP1 POP JUMP JUMPDEST PUSH32 0x41747472616374696F6E20436C6F736500000000000000000000000000000000 PUSH1 0x0 DUP3 ADD MSTORE POP JUMP JUMPDEST PUSH1 0x0 PUSH2 0x19DC PUSH1 0x10 DUP4 PUSH2 0x1466 JUMP JUMPDEST SWAP2 POP PUSH2 0x19E7 DUP3 PUSH2 0x19A6 JUMP JUMPDEST PUSH1 0x20 DUP3 ADD SWAP1 POP SWAP2 SWAP1 POP JUMP JUMPDEST PUSH1 0x0 PUSH1 0x20 DUP3 ADD SWAP1 POP DUP2 DUP2 SUB PUSH1 0x0 DUP4 ADD MSTORE PUSH2 0x1A0B DUP2 PUSH2 0x19CF JUMP JUMPDEST SWAP1 POP SWAP2 SWAP1 POP JUMP JUMPDEST PUSH1 0x0 DUP2 SWAP1 POP DUP2 PUSH1 0x0 MSTORE PUSH1 0x20 PUSH1 0x0 KECCAK256 SWAP1 POP SWAP2 SWAP1 POP JUMP JUMPDEST PUSH1 0x0 PUSH1 0x20 PUSH1 0x1F DUP4 ADD DIV SWAP1 POP SWAP2 SWAP1 POP JUMP JUMPDEST PUSH1 0x0 DUP3 DUP3 SHL SWAP1 POP SWAP3 SWAP2 POP POP JUMP JUMPDEST PUSH1 0x0 PUSH1 0x8 DUP4 MUL PUSH2 0x1A74 PUSH32 0xFFFFFFFFFFFFFFFFFFFFFFFFFFFFFFFFFFFFFFFFFFFFFFFFFFFFFFFFFFFFFFFF DUP3 PUSH2 0x1A37 JUMP JUMPDEST PUSH2 0x1A7E DUP7 DUP4 PUSH2 0x1A37 JUMP JUMPDEST SWAP6 POP DUP1 NOT DUP5 AND SWAP4 POP DUP1 DUP7 AND DUP5 OR SWAP3 POP POP POP SWAP4 SWAP3 POP POP POP JUMP JUMPDEST PUSH1 0x0 DUP2 SWAP1 POP SWAP2 SWAP1 POP JUMP JUMPDEST PUSH1 0x0 PUSH2 0x1ABB PUSH2 0x1AB6 PUSH2 0x1AB1 DUP5 PUSH2 0x1020 JUMP JUMPDEST PUSH2 0x1A96 JUMP JUMPDEST PUSH2 0x1020 JUMP JUMPDEST SWAP1 POP SWAP2 SWAP1 POP JUMP JUMPDEST PUSH1 0x0 DUP2 SWAP1 POP SWAP2 SWAP1 POP JUMP JUMPDEST PUSH2 0x1AD5 DUP4 PUSH2 0x1AA0 JUMP JUMPDEST PUSH2 0x1AE9 PUSH2 0x1AE1 DUP3 PUSH2 0x1AC2 JUMP JUMPDEST DUP5 DUP5 SLOAD PUSH2 0x1A44 JUMP JUMPDEST DUP3 SSTORE POP POP POP POP JUMP JUMPDEST PUSH1 0x0 SWAP1 JUMP JUMPDEST PUSH2 0x1AFE PUSH2 0x1AF1 JUMP JUMPDEST PUSH2 0x1B09 DUP2 DUP5 DUP5 PUSH2 0x1ACC JUMP JUMPDEST POP POP POP JUMP JUMPDEST JUMPDEST DUP2 DUP2 LT ISZERO PUSH2 0x1B2D JUMPI PUSH2 0x1B22 PUSH1 0x0 DUP3 PUSH2 0x1AF6 JUMP JUMPDEST PUSH1 0x1 DUP2 ADD SWAP1 POP PUSH2 0x1B0F JUMP JUMPDEST POP POP JUMP JUMPDEST PUSH1 0x1F DUP3 GT ISZERO PUSH2 0x1B72 JUMPI PUSH2 0x1B43 DUP2 PUSH2 0x1A12 JUMP JUMPDEST PUSH2 0x1B4C DUP5 PUSH2 0x1A27 JUMP JUMPDEST DUP2 ADD PUSH1 0x20 DUP6 LT ISZERO PUSH2 0x1B5B JUMPI DUP2 SWAP1 POP JUMPDEST PUSH2 0x1B6F PUSH2 0x1B67 DUP6 PUSH2 0x1A27 JUMP JUMPDEST DUP4 ADD DUP3 PUSH2 0x1B0E JUMP JUMPDEST POP POP JUMPDEST POP POP POP JUMP JUMPDEST PUSH1 0x0 DUP3 DUP3 SHR SWAP1 POP SWAP3 SWAP2 POP POP JUMP JUMPDEST PUSH1 0x0 PUSH2 0x1B95 PUSH1 0x0 NOT DUP5 PUSH1 0x8 MUL PUSH2 0x1B77 JUMP JUMPDEST NOT DUP1 DUP4 AND SWAP2 POP POP SWAP3 SWAP2 POP POP JUMP JUMPDEST PUSH1 0x0 PUSH2 0x1BAE DUP4 DUP4 PUSH2 0x1B84 JUMP JUMPDEST SWAP2 POP DUP3 PUSH1 0x2 MUL DUP3 OR SWAP1 POP SWAP3 SWAP2 POP POP JUMP JUMPDEST PUSH2 0x1BC7 DUP3 PUSH2 0x132F JUMP JUMPDEST PUSH8 0xFFFFFFFFFFFFFFFF DUP2 GT ISZERO PUSH2 0x1BE0 JUMPI PUSH2 0x1BDF PUSH2 0x10C8 JUMP JUMPDEST JUMPDEST PUSH2 0x1BEA DUP3 SLOAD PUSH2 0x1975 JUMP JUMPDEST PUSH2 0x1BF5 DUP3 DUP3 DUP6 PUSH2 0x1B31 JUMP JUMPDEST PUSH1 0x0 PUSH1 0x20 SWAP1 POP PUSH1 0x1F DUP4 GT PUSH1 0x1 DUP2 EQ PUSH2 0x1C28 JUMPI PUSH1 0x0 DUP5 ISZERO PUSH2 0x1C16 JUMPI DUP3 DUP8 ADD MLOAD SWAP1 POP JUMPDEST PUSH2 0x1C20 DUP6 DUP3 PUSH2 0x1BA2 JUMP JUMPDEST DUP7 SSTORE POP PUSH2 0x1C88 JUMP JUMPDEST PUSH1 0x1F NOT DUP5 AND PUSH2 0x1C36 DUP7 PUSH2 0x1A12 JUMP JUMPDEST PUSH1 0x0 JUMPDEST DUP3 DUP2 LT ISZERO PUSH2 0x1C5E JUMPI DUP5 DUP10 ADD MLOAD DUP3 SSTORE PUSH1 0x1 DUP3 ADD SWAP2 POP PUSH1 0x20 DUP6 ADD SWAP5 POP PUSH1 0x20 DUP2 ADD SWAP1 POP PUSH2 0x1C39 JUMP JUMPDEST DUP7 DUP4 LT ISZERO PUSH2 0x1C7B JUMPI DUP5 DUP10 ADD MLOAD PUSH2 0x1C77 PUSH1 0x1F DUP10 AND DUP3 PUSH2 0x1B84 JUMP JUMPDEST DUP4 SSTORE POP JUMPDEST PUSH1 0x1 PUSH1 0x2 DUP9 MUL ADD DUP9 SSTORE POP POP POP JUMPDEST POP POP POP POP POP POP JUMP JUMPDEST PUSH1 0x0 PUSH1 0x60 DUP3 ADD SWAP1 POP DUP2 DUP2 SUB PUSH1 0x0 DUP4 ADD MSTORE PUSH2 0x1CAA DUP2 DUP7 PUSH2 0x1477 JUMP JUMPDEST SWAP1 POP PUSH2 0x1CB9 PUSH1 0x20 DUP4 ADD DUP6 PUSH2 0x1083 JUMP JUMPDEST PUSH2 0x1CC6 PUSH1 0x40 DUP4 ADD DUP5 PUSH2 0x16A0 JUMP JUMPDEST SWAP5 SWAP4 POP POP POP POP JUMP JUMPDEST PUSH1 0x0 PUSH1 0x40 DUP3 ADD SWAP1 POP DUP2 DUP2 SUB PUSH1 0x0 DUP4 ADD MSTORE PUSH2 0x1CE8 DUP2 DUP6 PUSH2 0x1477 JUMP JUMPDEST SWAP1 POP PUSH2 0x1CF7 PUSH1 0x20 DUP4 ADD DUP5 PUSH2 0x1083 JUMP JUMPDEST SWAP4 SWAP3 POP POP POP JUMP JUMPDEST PUSH1 0x0 PUSH2 0x1D09 DUP3 PUSH2 0x1020 JUMP JUMPDEST SWAP2 POP PUSH2 0x1D14 DUP4 PUSH2 0x1020 JUMP JUMPDEST SWAP3 POP DUP3 DUP3 MUL PUSH2 0x1D22 DUP2 PUSH2 0x1020 JUMP JUMPDEST SWAP2 POP DUP3 DUP3 DIV DUP5 EQ DUP4 ISZERO OR PUSH2 0x1D39 JUMPI PUSH2 0x1D38 PUSH2 0x15D1 JUMP JUMPDEST JUMPDEST POP SWAP3 SWAP2 POP POP JUMP INVALID LOG2 PUSH5 0x6970667358 0x22 SLT KECCAK256 PUSH2 0xE932 RETURNDATASIZE 0xE9 PUSH26 0xA03FC7E21EEE1DB6B98E5BB10856468DD432CE3EBF0E994D866F PUSH5 0x736F6C6343 STOP ADDMOD SLT STOP CALLER PUSH1 0x80 PUSH1 0x40 MSTORE CALLVALUE DUP1 ISZERO PUSH3 0x11 JUMPI PUSH1 0x0 DUP1 REVERT JUMPDEST POP PUSH1 0x40 MLOAD PUSH3 0x1438 CODESIZE SUB DUP1 PUSH3 0x1438 DUP4 CODECOPY DUP2 DUP2 ADD PUSH1 0x40 MSTORE DUP2 ADD SWAP1 PUSH3 0x37 SWAP2 SWAP1 PUSH3 0x10B JUMP JUMPDEST CALLER PUSH1 0x0 DUP1 PUSH2 0x100 EXP DUP2 SLOAD DUP2 PUSH20 0xFFFFFFFFFFFFFFFFFFFFFFFFFFFFFFFFFFFFFFFF MUL NOT AND SWAP1 DUP4 PUSH20 0xFFFFFFFFFFFFFFFFFFFFFFFFFFFFFFFFFFFFFFFF AND MUL OR SWAP1 SSTORE POP DUP1 PUSH1 0x3 DUP2 SWAP1 SSTORE POP PUSH1 0x3 SLOAD PUSH1 0x1 PUSH1 0x0 CALLER PUSH20 0xFFFFFFFFFFFFFFFFFFFFFFFFFFFFFFFFFFFFFFFF AND PUSH20 0xFFFFFFFFFFFFFFFFFFFFFFFFFFFFFFFFFFFFFFFF AND DUP2 MSTORE PUSH1 0x20 ADD SWAP1 DUP2 MSTORE PUSH1 0x20 ADD PUSH1 0x0 KECCAK256 DUP2 SWAP1 SSTORE POP POP PUSH3 0x13D JUMP JUMPDEST PUSH1 0x0 DUP1 REVERT JUMPDEST PUSH1 0x0 DUP2 SWAP1 POP SWAP2 SWAP1 POP JUMP JUMPDEST PUSH3 0xE5 DUP2 PUSH3 0xD0 JUMP JUMPDEST DUP2 EQ PUSH3 0xF1 JUMPI PUSH1 0x0 DUP1 REVERT JUMPDEST POP JUMP JUMPDEST PUSH1 0x0 DUP2 MLOAD SWAP1 POP PUSH3 0x105 DUP2 PUSH3 0xDA JUMP JUMPDEST SWAP3 SWAP2 POP POP JUMP JUMPDEST PUSH1 0x0 PUSH1 0x20 DUP3 DUP5 SUB SLT ISZERO PUSH3 0x124 JUMPI PUSH3 0x123 PUSH3 0xCB JUMP JUMPDEST JUMPDEST PUSH1 0x0 PUSH3 0x134 DUP5 DUP3 DUP6 ADD PUSH3 0xF4 JUMP JUMPDEST SWAP2 POP POP SWAP3 SWAP2 POP POP JUMP JUMPDEST PUSH2 0x12EB DUP1 PUSH3 0x14D PUSH1 0x0 CODECOPY PUSH1 0x0 RETURN INVALID PUSH1 0x80 PUSH1 0x40 MSTORE CALLVALUE DUP1 ISZERO PUSH2 0x10 JUMPI PUSH1 0x0 DUP1 REVERT JUMPDEST POP PUSH1 0x4 CALLDATASIZE LT PUSH2 0xB4 JUMPI PUSH1 0x0 CALLDATALOAD PUSH1 0xE0 SHR DUP1 PUSH4 0x70A08231 GT PUSH2 0x71 JUMPI DUP1 PUSH4 0x70A08231 EQ PUSH2 0x18F JUMPI DUP1 PUSH4 0x715018A6 EQ PUSH2 0x1BF JUMPI DUP1 PUSH4 0x95D89B41 EQ PUSH2 0x1C9 JUMPI DUP1 PUSH4 0xA9059CBB EQ PUSH2 0x1E7 JUMPI DUP1 PUSH4 0xDD62ED3E EQ PUSH2 0x217 JUMPI DUP1 PUSH4 0xE0631F7F EQ PUSH2 0x247 JUMPI PUSH2 0xB4 JUMP JUMPDEST DUP1 PUSH4 0x6FDDE03 EQ PUSH2 0xB9 JUMPI DUP1 PUSH4 0x95EA7B3 EQ PUSH2 0xD7 JUMPI DUP1 PUSH4 0x18160DDD EQ PUSH2 0x107 JUMPI DUP1 PUSH4 0x1D43CC98 EQ PUSH2 0x125 JUMPI DUP1 PUSH4 0x23B872DD EQ PUSH2 0x141 JUMPI DUP1 PUSH4 0x313CE567 EQ PUSH2 0x171 JUMPI JUMPDEST PUSH1 0x0 DUP1 REVERT JUMPDEST PUSH2 0xC1 PUSH2 0x277 JUMP JUMPDEST PUSH1 0x40 MLOAD PUSH2 0xCE SWAP2 SWAP1 PUSH2 0xF04 JUMP JUMPDEST PUSH1 0x40 MLOAD DUP1 SWAP2 SUB SWAP1 RETURN JUMPDEST PUSH2 0xF1 PUSH1 0x4 DUP1 CALLDATASIZE SUB DUP2 ADD SWAP1 PUSH2 0xEC SWAP2 SWAP1 PUSH2 0xFBF JUMP JUMPDEST PUSH2 0x2B0 JUMP JUMPDEST PUSH1 0x40 MLOAD PUSH2 0xFE SWAP2 SWAP1 PUSH2 0x101A JUMP JUMPDEST PUSH1 0x40 MLOAD DUP1 SWAP2 SUB SWAP1 RETURN JUMPDEST PUSH2 0x10F PUSH2 0x3EE JUMP JUMPDEST PUSH1 0x40 MLOAD PUSH2 0x11C SWAP2 SWAP1 PUSH2 0x1044 JUMP JUMPDEST PUSH1 0x40 MLOAD DUP1 SWAP2 SUB SWAP1 RETURN JUMPDEST PUSH2 0x13F PUSH1 0x4 DUP1 CALLDATASIZE SUB DUP2 ADD SWAP1 PUSH2 0x13A SWAP2 SWAP1 PUSH2 0x105F JUMP JUMPDEST PUSH2 0x3F8 JUMP JUMPDEST STOP JUMPDEST PUSH2 0x15B PUSH1 0x4 DUP1 CALLDATASIZE SUB DUP2 ADD SWAP1 PUSH2 0x156 SWAP2 SWAP1 PUSH2 0x108C JUMP JUMPDEST PUSH2 0x4F8 JUMP JUMPDEST PUSH1 0x40 MLOAD PUSH2 0x168 SWAP2 SWAP1 PUSH2 0x101A JUMP JUMPDEST PUSH1 0x40 MLOAD DUP1 SWAP2 SUB SWAP1 RETURN JUMPDEST PUSH2 0x179 PUSH2 0x878 JUMP JUMPDEST PUSH1 0x40 MLOAD PUSH2 0x186 SWAP2 SWAP1 PUSH2 0x10FB JUMP JUMPDEST PUSH1 0x40 MLOAD DUP1 SWAP2 SUB SWAP1 RETURN JUMPDEST PUSH2 0x1A9 PUSH1 0x4 DUP1 CALLDATASIZE SUB DUP2 ADD SWAP1 PUSH2 0x1A4 SWAP2 SWAP1 PUSH2 0x1116 JUMP JUMPDEST PUSH2 0x87D JUMP JUMPDEST PUSH1 0x40 MLOAD PUSH2 0x1B6 SWAP2 SWAP1 PUSH2 0x1044 JUMP JUMPDEST PUSH1 0x40 MLOAD DUP1 SWAP2 SUB SWAP1 RETURN JUMPDEST PUSH2 0x1C7 PUSH2 0x8C6 JUMP JUMPDEST STOP JUMPDEST PUSH2 0x1D1 PUSH2 0x997 JUMP JUMPDEST PUSH1 0x40 MLOAD PUSH2 0x1DE SWAP2 SWAP1 PUSH2 0xF04 JUMP JUMPDEST PUSH1 0x40 MLOAD DUP1 SWAP2 SUB SWAP1 RETURN JUMPDEST PUSH2 0x201 PUSH1 0x4 DUP1 CALLDATASIZE SUB DUP2 ADD SWAP1 PUSH2 0x1FC SWAP2 SWAP1 PUSH2 0xFBF JUMP JUMPDEST PUSH2 0x9D0 JUMP JUMPDEST PUSH1 0x40 MLOAD PUSH2 0x20E SWAP2 SWAP1 PUSH2 0x101A JUMP JUMPDEST PUSH1 0x40 MLOAD DUP1 SWAP2 SUB SWAP1 RETURN JUMPDEST PUSH2 0x231 PUSH1 0x4 DUP1 CALLDATASIZE SUB DUP2 ADD SWAP1 PUSH2 0x22C SWAP2 SWAP1 PUSH2 0x1143 JUMP JUMPDEST PUSH2 0xBB7 JUMP JUMPDEST PUSH1 0x40 MLOAD PUSH2 0x23E SWAP2 SWAP1 PUSH2 0x1044 JUMP JUMPDEST PUSH1 0x40 MLOAD DUP1 SWAP2 SUB SWAP1 RETURN JUMPDEST PUSH2 0x261 PUSH1 0x4 DUP1 CALLDATASIZE SUB DUP2 ADD SWAP1 PUSH2 0x25C SWAP2 SWAP1 PUSH2 0x108C JUMP JUMPDEST PUSH2 0xC3E JUMP JUMPDEST PUSH1 0x40 MLOAD PUSH2 0x26E SWAP2 SWAP1 PUSH2 0x101A JUMP JUMPDEST PUSH1 0x40 MLOAD DUP1 SWAP2 SUB SWAP1 RETURN JUMPDEST PUSH1 0x40 MLOAD DUP1 PUSH1 0x40 ADD PUSH1 0x40 MSTORE DUP1 PUSH1 0x6 DUP2 MSTORE PUSH1 0x20 ADD PUSH32 0x5265736F72740000000000000000000000000000000000000000000000000000 DUP2 MSTORE POP DUP2 JUMP JUMPDEST PUSH1 0x0 PUSH1 0x1 PUSH1 0x0 CALLER PUSH20 0xFFFFFFFFFFFFFFFFFFFFFFFFFFFFFFFFFFFFFFFF AND PUSH20 0xFFFFFFFFFFFFFFFFFFFFFFFFFFFFFFFFFFFFFFFF AND DUP2 MSTORE PUSH1 0x20 ADD SWAP1 DUP2 MSTORE PUSH1 0x20 ADD PUSH1 0x0 KECCAK256 SLOAD DUP3 GT ISZERO PUSH2 0x2FE JUMPI PUSH1 0x0 DUP1 REVERT JUMPDEST DUP2 PUSH1 0x2 PUSH1 0x0 CALLER PUSH20 0xFFFFFFFFFFFFFFFFFFFFFFFFFFFFFFFFFFFFFFFF AND PUSH20 0xFFFFFFFFFFFFFFFFFFFFFFFFFFFFFFFFFFFFFFFF AND DUP2 MSTORE PUSH1 0x20 ADD SWAP1 DUP2 MSTORE PUSH1 0x20 ADD PUSH1 0x0 KECCAK256 PUSH1 0x0 DUP6 PUSH20 0xFFFFFFFFFFFFFFFFFFFFFFFFFFFFFFFFFFFFFFFF AND PUSH20 0xFFFFFFFFFFFFFFFFFFFFFFFFFFFFFFFFFFFFFFFF AND DUP2 MSTORE PUSH1 0x20 ADD SWAP1 DUP2 MSTORE PUSH1 0x20 ADD PUSH1 0x0 KECCAK256 DUP2 SWAP1 SSTORE POP DUP3 PUSH20 0xFFFFFFFFFFFFFFFFFFFFFFFFFFFFFFFFFFFFFFFF AND CALLER PUSH20 0xFFFFFFFFFFFFFFFFFFFFFFFFFFFFFFFFFFFFFFFF AND PUSH32 0x8C5BE1E5EBEC7D5BD14F71427D1E84F3DD0314C0F7B2291E5B200AC8C7C3B925 DUP5 PUSH1 0x40 MLOAD PUSH2 0x3DC SWAP2 SWAP1 PUSH2 0x1044 JUMP JUMPDEST PUSH1 0x40 MLOAD DUP1 SWAP2 SUB SWAP1 LOG3 PUSH1 0x1 SWAP1 POP SWAP3 SWAP2 POP POP JUMP JUMPDEST PUSH1 0x0 PUSH1 0x3 SLOAD SWAP1 POP SWAP1 JUMP JUMPDEST CALLER PUSH20 0xFFFFFFFFFFFFFFFFFFFFFFFFFFFFFFFFFFFFFFFF AND PUSH1 0x0 DUP1 SLOAD SWAP1 PUSH2 0x100 EXP SWAP1 DIV PUSH20 0xFFFFFFFFFFFFFFFFFFFFFFFFFFFFFFFFFFFFFFFF AND PUSH20 0xFFFFFFFFFFFFFFFFFFFFFFFFFFFFFFFFFFFFFFFF AND EQ PUSH2 0x486 JUMPI PUSH1 0x40 MLOAD PUSH32 0x8C379A000000000000000000000000000000000000000000000000000000000 DUP2 MSTORE PUSH1 0x4 ADD PUSH2 0x47D SWAP1 PUSH2 0x11CF JUMP JUMPDEST PUSH1 0x40 MLOAD DUP1 SWAP2 SUB SWAP1 REVERT JUMPDEST DUP1 PUSH1 0x3 PUSH1 0x0 DUP3 DUP3 SLOAD PUSH2 0x498 SWAP2 SWAP1 PUSH2 0x121E JUMP JUMPDEST SWAP3 POP POP DUP2 SWAP1 SSTORE POP DUP1 PUSH1 0x1 PUSH1 0x0 CALLER PUSH20 0xFFFFFFFFFFFFFFFFFFFFFFFFFFFFFFFFFFFFFFFF AND PUSH20 0xFFFFFFFFFFFFFFFFFFFFFFFFFFFFFFFFFFFFFFFF AND DUP2 MSTORE PUSH1 0x20 ADD SWAP1 DUP2 MSTORE PUSH1 0x20 ADD PUSH1 0x0 KECCAK256 PUSH1 0x0 DUP3 DUP3 SLOAD PUSH2 0x4EE SWAP2 SWAP1 PUSH2 0x121E JUMP JUMPDEST SWAP3 POP POP DUP2 SWAP1 SSTORE POP POP JUMP JUMPDEST PUSH1 0x0 PUSH1 0x1 PUSH1 0x0 DUP6 PUSH20 0xFFFFFFFFFFFFFFFFFFFFFFFFFFFFFFFFFFFFFFFF AND PUSH20 0xFFFFFFFFFFFFFFFFFFFFFFFFFFFFFFFFFFFFFFFF AND DUP2 MSTORE PUSH1 0x20 ADD SWAP1 DUP2 MSTORE PUSH1 0x20 ADD PUSH1 0x0 KECCAK256 SLOAD DUP3 GT ISZERO PUSH2 0x546 JUMPI PUSH1 0x0 DUP1 REVERT JUMPDEST PUSH1 0x2 PUSH1 0x0 DUP6 PUSH20 0xFFFFFFFFFFFFFFFFFFFFFFFFFFFFFFFFFFFFFFFF AND PUSH20 0xFFFFFFFFFFFFFFFFFFFFFFFFFFFFFFFFFFFFFFFF AND DUP2 MSTORE PUSH1 0x20 ADD SWAP1 DUP2 MSTORE PUSH1 0x20 ADD PUSH1 0x0 KECCAK256 PUSH1 0x0 CALLER PUSH20 0xFFFFFFFFFFFFFFFFFFFFFFFFFFFFFFFFFFFFFFFF AND PUSH20 0xFFFFFFFFFFFFFFFFFFFFFFFFFFFFFFFFFFFFFFFF AND DUP2 MSTORE PUSH1 0x20 ADD SWAP1 DUP2 MSTORE PUSH1 0x20 ADD PUSH1 0x0 KECCAK256 SLOAD DUP3 GT ISZERO PUSH2 0x5CF JUMPI PUSH1 0x0 DUP1 REVERT JUMPDEST PUSH2 0x621 DUP3 PUSH1 0x1 PUSH1 0x0 DUP8 PUSH20 0xFFFFFFFFFFFFFFFFFFFFFFFFFFFFFFFFFFFFFFFF AND PUSH20 0xFFFFFFFFFFFFFFFFFFFFFFFFFFFFFFFFFFFFFFFF AND DUP2 MSTORE PUSH1 0x20 ADD SWAP1 DUP2 MSTORE PUSH1 0x20 ADD PUSH1 0x0 KECCAK256 SLOAD PUSH2 0xE26 SWAP1 SWAP2 SWAP1 PUSH4 0xFFFFFFFF AND JUMP JUMPDEST PUSH1 0x1 PUSH1 0x0 DUP7 PUSH20 0xFFFFFFFFFFFFFFFFFFFFFFFFFFFFFFFFFFFFFFFF AND PUSH20 0xFFFFFFFFFFFFFFFFFFFFFFFFFFFFFFFFFFFFFFFF AND DUP2 MSTORE PUSH1 0x20 ADD SWAP1 DUP2 MSTORE PUSH1 0x20 ADD PUSH1 0x0 KECCAK256 DUP2 SWAP1 SSTORE POP PUSH2 0x6F3 DUP3 PUSH1 0x2 PUSH1 0x0 DUP8 PUSH20 0xFFFFFFFFFFFFFFFFFFFFFFFFFFFFFFFFFFFFFFFF AND PUSH20 0xFFFFFFFFFFFFFFFFFFFFFFFFFFFFFFFFFFFFFFFF AND DUP2 MSTORE PUSH1 0x20 ADD SWAP1 DUP2 MSTORE PUSH1 0x20 ADD PUSH1 0x0 KECCAK256 PUSH1 0x0 CALLER PUSH20 0xFFFFFFFFFFFFFFFFFFFFFFFFFFFFFFFFFFFFFFFF AND PUSH20 0xFFFFFFFFFFFFFFFFFFFFFFFFFFFFFFFFFFFFFFFF AND DUP2 MSTORE PUSH1 0x20 ADD SWAP1 DUP2 MSTORE PUSH1 0x20 ADD PUSH1 0x0 KECCAK256 SLOAD PUSH2 0xE26 SWAP1 SWAP2 SWAP1 PUSH4 0xFFFFFFFF AND JUMP JUMPDEST PUSH1 0x2 PUSH1 0x0 DUP7 PUSH20 0xFFFFFFFFFFFFFFFFFFFFFFFFFFFFFFFFFFFFFFFF AND PUSH20 0xFFFFFFFFFFFFFFFFFFFFFFFFFFFFFFFFFFFFFFFF AND DUP2 MSTORE PUSH1 0x20 ADD SWAP1 DUP2 MSTORE PUSH1 0x20 ADD PUSH1 0x0 KECCAK256 PUSH1 0x0 CALLER PUSH20 0xFFFFFFFFFFFFFFFFFFFFFFFFFFFFFFFFFFFFFFFF AND PUSH20 0xFFFFFFFFFFFFFFFFFFFFFFFFFFFFFFFFFFFFFFFF AND DUP2 MSTORE PUSH1 0x20 ADD SWAP1 DUP2 MSTORE PUSH1 0x20 ADD PUSH1 0x0 KECCAK256 DUP2 SWAP1 SSTORE POP PUSH2 0x7C5 DUP3 PUSH1 0x1 PUSH1 0x0 DUP7 PUSH20 0xFFFFFFFFFFFFFFFFFFFFFFFFFFFFFFFFFFFFFFFF AND PUSH20 0xFFFFFFFFFFFFFFFFFFFFFFFFFFFFFFFFFFFFFFFF AND DUP2 MSTORE PUSH1 0x20 ADD SWAP1 DUP2 MSTORE PUSH1 0x20 ADD PUSH1 0x0 KECCAK256 SLOAD PUSH2 0xE4D SWAP1 SWAP2 SWAP1 PUSH4 0xFFFFFFFF AND JUMP JUMPDEST PUSH1 0x1 PUSH1 0x0 DUP6 PUSH20 0xFFFFFFFFFFFFFFFFFFFFFFFFFFFFFFFFFFFFFFFF AND PUSH20 0xFFFFFFFFFFFFFFFFFFFFFFFFFFFFFFFFFFFFFFFF AND DUP2 MSTORE PUSH1 0x20 ADD SWAP1 DUP2 MSTORE PUSH1 0x20 ADD PUSH1 0x0 KECCAK256 DUP2 SWAP1 SSTORE POP DUP3 PUSH20 0xFFFFFFFFFFFFFFFFFFFFFFFFFFFFFFFFFFFFFFFF AND DUP5 PUSH20 0xFFFFFFFFFFFFFFFFFFFFFFFFFFFFFFFFFFFFFFFF AND PUSH32 0xDDF252AD1BE2C89B69C2B068FC378DAA952BA7F163C4A11628F55A4DF523B3EF DUP5 PUSH1 0x40 MLOAD PUSH2 0x865 SWAP2 SWAP1 PUSH2 0x1044 JUMP JUMPDEST PUSH1 0x40 MLOAD DUP1 SWAP2 SUB SWAP1 LOG3 PUSH1 0x0 SWAP1 POP SWAP4 SWAP3 POP POP POP JUMP JUMPDEST PUSH1 0x12 DUP2 JUMP JUMPDEST PUSH1 0x0 PUSH1 0x1 PUSH1 0x0 DUP4 PUSH20 0xFFFFFFFFFFFFFFFFFFFFFFFFFFFFFFFFFFFFFFFF AND PUSH20 0xFFFFFFFFFFFFFFFFFFFFFFFFFFFFFFFFFFFFFFFF AND DUP2 MSTORE PUSH1 0x20 ADD SWAP1 DUP2 MSTORE PUSH1 0x20 ADD PUSH1 0x0 KECCAK256 SLOAD SWAP1 POP SWAP2 SWAP1 POP JUMP JUMPDEST CALLER PUSH20 0xFFFFFFFFFFFFFFFFFFFFFFFFFFFFFFFFFFFFFFFF AND PUSH1 0x0 DUP1 SLOAD SWAP1 PUSH2 0x100 EXP SWAP1 DIV PUSH20 0xFFFFFFFFFFFFFFFFFFFFFFFFFFFFFFFFFFFFFFFF AND PUSH20 0xFFFFFFFFFFFFFFFFFFFFFFFFFFFFFFFFFFFFFFFF AND EQ PUSH2 0x954 JUMPI PUSH1 0x40 MLOAD PUSH32 0x8C379A000000000000000000000000000000000000000000000000000000000 DUP2 MSTORE PUSH1 0x4 ADD PUSH2 0x94B SWAP1 PUSH2 0x11CF JUMP JUMPDEST PUSH1 0x40 MLOAD DUP1 SWAP2 SUB SWAP1 REVERT JUMPDEST PUSH1 0x0 DUP1 PUSH1 0x0 PUSH2 0x100 EXP DUP2 SLOAD DUP2 PUSH20 0xFFFFFFFFFFFFFFFFFFFFFFFFFFFFFFFFFFFFFFFF MUL NOT AND SWAP1 DUP4 PUSH20 0xFFFFFFFFFFFFFFFFFFFFFFFFFFFFFFFFFFFFFFFF AND MUL OR SWAP1 SSTORE POP JUMP JUMPDEST PUSH1 0x40 MLOAD DUP1 PUSH1 0x40 ADD PUSH1 0x40 MSTORE DUP1 PUSH1 0x3 DUP2 MSTORE PUSH1 0x20 ADD PUSH32 0x5253540000000000000000000000000000000000000000000000000000000000 DUP2 MSTORE POP DUP2 JUMP JUMPDEST PUSH1 0x0 PUSH1 0x1 PUSH1 0x0 CALLER PUSH20 0xFFFFFFFFFFFFFFFFFFFFFFFFFFFFFFFFFFFFFFFF AND PUSH20 0xFFFFFFFFFFFFFFFFFFFFFFFFFFFFFFFFFFFFFFFF AND DUP2 MSTORE PUSH1 0x20 ADD SWAP1 DUP2 MSTORE PUSH1 0x20 ADD PUSH1 0x0 KECCAK256 SLOAD DUP3 GT ISZERO PUSH2 0xA1E JUMPI PUSH1 0x0 DUP1 REVERT JUMPDEST PUSH2 0xA70 DUP3 PUSH1 0x1 PUSH1 0x0 CALLER PUSH20 0xFFFFFFFFFFFFFFFFFFFFFFFFFFFFFFFFFFFFFFFF AND PUSH20 0xFFFFFFFFFFFFFFFFFFFFFFFFFFFFFFFFFFFFFFFF AND DUP2 MSTORE PUSH1 0x20 ADD SWAP1 DUP2 MSTORE PUSH1 0x20 ADD PUSH1 0x0 KECCAK256 SLOAD PUSH2 0xE26 SWAP1 SWAP2 SWAP1 PUSH4 0xFFFFFFFF AND JUMP JUMPDEST PUSH1 0x1 PUSH1 0x0 CALLER PUSH20 0xFFFFFFFFFFFFFFFFFFFFFFFFFFFFFFFFFFFFFFFF AND PUSH20 0xFFFFFFFFFFFFFFFFFFFFFFFFFFFFFFFFFFFFFFFF AND DUP2 MSTORE PUSH1 0x20 ADD SWAP1 DUP2 MSTORE PUSH1 0x20 ADD PUSH1 0x0 KECCAK256 DUP2 SWAP1 SSTORE POP PUSH2 0xB05 DUP3 PUSH1 0x1 PUSH1 0x0 DUP7 PUSH20 0xFFFFFFFFFFFFFFFFFFFFFFFFFFFFFFFFFFFFFFFF AND PUSH20 0xFFFFFFFFFFFFFFFFFFFFFFFFFFFFFFFFFFFFFFFF AND DUP2 MSTORE PUSH1 0x20 ADD SWAP1 DUP2 MSTORE PUSH1 0x20 ADD PUSH1 0x0 KECCAK256 SLOAD PUSH2 0xE4D SWAP1 SWAP2 SWAP1 PUSH4 0xFFFFFFFF AND JUMP JUMPDEST PUSH1 0x1 PUSH1 0x0 DUP6 PUSH20 0xFFFFFFFFFFFFFFFFFFFFFFFFFFFFFFFFFFFFFFFF AND PUSH20 0xFFFFFFFFFFFFFFFFFFFFFFFFFFFFFFFFFFFFFFFF AND DUP2 MSTORE PUSH1 0x20 ADD SWAP1 DUP2 MSTORE PUSH1 0x20 ADD PUSH1 0x0 KECCAK256 DUP2 SWAP1 SSTORE POP DUP3 PUSH20 0xFFFFFFFFFFFFFFFFFFFFFFFFFFFFFFFFFFFFFFFF AND CALLER PUSH20 0xFFFFFFFFFFFFFFFFFFFFFFFFFFFFFFFFFFFFFFFF AND PUSH32 0xDDF252AD1BE2C89B69C2B068FC378DAA952BA7F163C4A11628F55A4DF523B3EF DUP5 PUSH1 0x40 MLOAD PUSH2 0xBA5 SWAP2 SWAP1 PUSH2 0x1044 JUMP JUMPDEST PUSH1 0x40 MLOAD DUP1 SWAP2 SUB SWAP1 LOG3 PUSH1 0x1 SWAP1 POP SWAP3 SWAP2 POP POP JUMP JUMPDEST PUSH1 0x0 PUSH1 0x2 PUSH1 0x0 DUP5 PUSH20 0xFFFFFFFFFFFFFFFFFFFFFFFFFFFFFFFFFFFFFFFF AND PUSH20 0xFFFFFFFFFFFFFFFFFFFFFFFFFFFFFFFFFFFFFFFF AND DUP2 MSTORE PUSH1 0x20 ADD SWAP1 DUP2 MSTORE PUSH1 0x20 ADD PUSH1 0x0 KECCAK256 PUSH1 0x0 DUP4 PUSH20 0xFFFFFFFFFFFFFFFFFFFFFFFFFFFFFFFFFFFFFFFF AND PUSH20 0xFFFFFFFFFFFFFFFFFFFFFFFFFFFFFFFFFFFFFFFF AND DUP2 MSTORE PUSH1 0x20 ADD SWAP1 DUP2 MSTORE PUSH1 0x20 ADD PUSH1 0x0 KECCAK256 SLOAD SWAP1 POP SWAP3 SWAP2 POP POP JUMP JUMPDEST PUSH1 0x0 PUSH1 0x1 PUSH1 0x0 DUP6 PUSH20 0xFFFFFFFFFFFFFFFFFFFFFFFFFFFFFFFFFFFFFFFF AND PUSH20 0xFFFFFFFFFFFFFFFFFFFFFFFFFFFFFFFFFFFFFFFF AND DUP2 MSTORE PUSH1 0x20 ADD SWAP1 DUP2 MSTORE PUSH1 0x20 ADD PUSH1 0x0 KECCAK256 SLOAD DUP3 GT ISZERO PUSH2 0xC8C JUMPI PUSH1 0x0 DUP1 REVERT JUMPDEST PUSH2 0xCDE DUP3 PUSH1 0x1 PUSH1 0x0 DUP8 PUSH20 0xFFFFFFFFFFFFFFFFFFFFFFFFFFFFFFFFFFFFFFFF AND PUSH20 0xFFFFFFFFFFFFFFFFFFFFFFFFFFFFFFFFFFFFFFFF AND DUP2 MSTORE PUSH1 0x20 ADD SWAP1 DUP2 MSTORE PUSH1 0x20 ADD PUSH1 0x0 KECCAK256 SLOAD PUSH2 0xE26 SWAP1 SWAP2 SWAP1 PUSH4 0xFFFFFFFF AND JUMP JUMPDEST PUSH1 0x1 PUSH1 0x0 DUP7 PUSH20 0xFFFFFFFFFFFFFFFFFFFFFFFFFFFFFFFFFFFFFFFF AND PUSH20 0xFFFFFFFFFFFFFFFFFFFFFFFFFFFFFFFFFFFFFFFF AND DUP2 MSTORE PUSH1 0x20 ADD SWAP1 DUP2 MSTORE PUSH1 0x20 ADD PUSH1 0x0 KECCAK256 DUP2 SWAP1 SSTORE POP PUSH2 0xD73 DUP3 PUSH1 0x1 PUSH1 0x0 DUP7 PUSH20 0xFFFFFFFFFFFFFFFFFFFFFFFFFFFFFFFFFFFFFFFF AND PUSH20 0xFFFFFFFFFFFFFFFFFFFFFFFFFFFFFFFFFFFFFFFF AND DUP2 MSTORE PUSH1 0x20 ADD SWAP1 DUP2 MSTORE PUSH1 0x20 ADD PUSH1 0x0 KECCAK256 SLOAD PUSH2 0xE4D SWAP1 SWAP2 SWAP1 PUSH4 0xFFFFFFFF AND JUMP JUMPDEST PUSH1 0x1 PUSH1 0x0 DUP6 PUSH20 0xFFFFFFFFFFFFFFFFFFFFFFFFFFFFFFFFFFFFFFFF AND PUSH20 0xFFFFFFFFFFFFFFFFFFFFFFFFFFFFFFFFFFFFFFFF AND DUP2 MSTORE PUSH1 0x20 ADD SWAP1 DUP2 MSTORE PUSH1 0x20 ADD PUSH1 0x0 KECCAK256 DUP2 SWAP1 SSTORE POP DUP3 PUSH20 0xFFFFFFFFFFFFFFFFFFFFFFFFFFFFFFFFFFFFFFFF AND CALLER PUSH20 0xFFFFFFFFFFFFFFFFFFFFFFFFFFFFFFFFFFFFFFFF AND PUSH32 0xDDF252AD1BE2C89B69C2B068FC378DAA952BA7F163C4A11628F55A4DF523B3EF DUP5 PUSH1 0x40 MLOAD PUSH2 0xE13 SWAP2 SWAP1 PUSH2 0x1044 JUMP JUMPDEST PUSH1 0x40 MLOAD DUP1 SWAP2 SUB SWAP1 LOG3 PUSH1 0x1 SWAP1 POP SWAP4 SWAP3 POP POP POP JUMP JUMPDEST PUSH1 0x0 DUP3 DUP3 GT ISZERO PUSH2 0xE39 JUMPI PUSH2 0xE38 PUSH2 0x1252 JUMP JUMPDEST JUMPDEST DUP2 DUP4 PUSH2 0xE45 SWAP2 SWAP1 PUSH2 0x1281 JUMP JUMPDEST SWAP1 POP SWAP3 SWAP2 POP POP JUMP JUMPDEST PUSH1 0x0 DUP2 DUP4 PUSH2 0xE5B SWAP2 SWAP1 PUSH2 0x121E JUMP JUMPDEST SWAP1 POP DUP3 DUP2 LT ISZERO PUSH2 0xE6E JUMPI PUSH2 0xE6D PUSH2 0x1252 JUMP JUMPDEST JUMPDEST SWAP3 SWAP2 POP POP JUMP JUMPDEST PUSH1 0x0 DUP2 MLOAD SWAP1 POP SWAP2 SWAP1 POP JUMP JUMPDEST PUSH1 0x0 DUP3 DUP3 MSTORE PUSH1 0x20 DUP3 ADD SWAP1 POP SWAP3 SWAP2 POP POP JUMP JUMPDEST PUSH1 0x0 JUMPDEST DUP4 DUP2 LT ISZERO PUSH2 0xEAE JUMPI DUP1 DUP3 ADD MLOAD DUP2 DUP5 ADD MSTORE PUSH1 0x20 DUP2 ADD SWAP1 POP PUSH2 0xE93 JUMP JUMPDEST PUSH1 0x0 DUP5 DUP5 ADD MSTORE POP POP POP POP JUMP JUMPDEST PUSH1 0x0 PUSH1 0x1F NOT PUSH1 0x1F DUP4 ADD AND SWAP1 POP SWAP2 SWAP1 POP JUMP JUMPDEST PUSH1 0x0 PUSH2 0xED6 DUP3 PUSH2 0xE74 JUMP JUMPDEST PUSH2 0xEE0 DUP2 DUP6 PUSH2 0xE7F JUMP JUMPDEST SWAP4 POP PUSH2 0xEF0 DUP2 DUP6 PUSH1 0x20 DUP7 ADD PUSH2 0xE90 JUMP JUMPDEST PUSH2 0xEF9 DUP2 PUSH2 0xEBA JUMP JUMPDEST DUP5 ADD SWAP2 POP POP SWAP3 SWAP2 POP POP JUMP JUMPDEST PUSH1 0x0 PUSH1 0x20 DUP3 ADD SWAP1 POP DUP2 DUP2 SUB PUSH1 0x0 DUP4 ADD MSTORE PUSH2 0xF1E DUP2 DUP5 PUSH2 0xECB JUMP JUMPDEST SWAP1 POP SWAP3 SWAP2 POP POP JUMP JUMPDEST PUSH1 0x0 DUP1 REVERT JUMPDEST PUSH1 0x0 PUSH20 0xFFFFFFFFFFFFFFFFFFFFFFFFFFFFFFFFFFFFFFFF DUP3 AND SWAP1 POP SWAP2 SWAP1 POP JUMP JUMPDEST PUSH1 0x0 PUSH2 0xF56 DUP3 PUSH2 0xF2B JUMP JUMPDEST SWAP1 POP SWAP2 SWAP1 POP JUMP JUMPDEST PUSH2 0xF66 DUP2 PUSH2 0xF4B JUMP JUMPDEST DUP2 EQ PUSH2 0xF71 JUMPI PUSH1 0x0 DUP1 REVERT JUMPDEST POP JUMP JUMPDEST PUSH1 0x0 DUP2 CALLDATALOAD SWAP1 POP PUSH2 0xF83 DUP2 PUSH2 0xF5D JUMP JUMPDEST SWAP3 SWAP2 POP POP JUMP JUMPDEST PUSH1 0x0 DUP2 SWAP1 POP SWAP2 SWAP1 POP JUMP JUMPDEST PUSH2 0xF9C DUP2 PUSH2 0xF89 JUMP JUMPDEST DUP2 EQ PUSH2 0xFA7 JUMPI PUSH1 0x0 DUP1 REVERT JUMPDEST POP JUMP JUMPDEST PUSH1 0x0 DUP2 CALLDATALOAD SWAP1 POP PUSH2 0xFB9 DUP2 PUSH2 0xF93 JUMP JUMPDEST SWAP3 SWAP2 POP POP JUMP JUMPDEST PUSH1 0x0 DUP1 PUSH1 0x40 DUP4 DUP6 SUB SLT ISZERO PUSH2 0xFD6 JUMPI PUSH2 0xFD5 PUSH2 0xF26 JUMP JUMPDEST JUMPDEST PUSH1 0x0 PUSH2 0xFE4 DUP6 DUP3 DUP7 ADD PUSH2 0xF74 JUMP JUMPDEST SWAP3 POP POP PUSH1 0x20 PUSH2 0xFF5 DUP6 DUP3 DUP7 ADD PUSH2 0xFAA JUMP JUMPDEST SWAP2 POP POP SWAP3 POP SWAP3 SWAP1 POP JUMP JUMPDEST PUSH1 0x0 DUP2 ISZERO ISZERO SWAP1 POP SWAP2 SWAP1 POP JUMP JUMPDEST PUSH2 0x1014 DUP2 PUSH2 0xFFF JUMP JUMPDEST DUP3 MSTORE POP POP JUMP JUMPDEST PUSH1 0x0 PUSH1 0x20 DUP3 ADD SWAP1 POP PUSH2 0x102F PUSH1 0x0 DUP4 ADD DUP5 PUSH2 0x100B JUMP JUMPDEST SWAP3 SWAP2 POP POP JUMP JUMPDEST PUSH2 0x103E DUP2 PUSH2 0xF89 JUMP JUMPDEST DUP3 MSTORE POP POP JUMP JUMPDEST PUSH1 0x0 PUSH1 0x20 DUP3 ADD SWAP1 POP PUSH2 0x1059 PUSH1 0x0 DUP4 ADD DUP5 PUSH2 0x1035 JUMP JUMPDEST SWAP3 SWAP2 POP POP JUMP JUMPDEST PUSH1 0x0 PUSH1 0x20 DUP3 DUP5 SUB SLT ISZERO PUSH2 0x1075 JUMPI PUSH2 0x1074 PUSH2 0xF26 JUMP JUMPDEST JUMPDEST PUSH1 0x0 PUSH2 0x1083 DUP5 DUP3 DUP6 ADD PUSH2 0xFAA JUMP JUMPDEST SWAP2 POP POP SWAP3 SWAP2 POP POP JUMP JUMPDEST PUSH1 0x0 DUP1 PUSH1 0x0 PUSH1 0x60 DUP5 DUP7 SUB SLT ISZERO PUSH2 0x10A5 JUMPI PUSH2 0x10A4 PUSH2 0xF26 JUMP JUMPDEST JUMPDEST PUSH1 0x0 PUSH2 0x10B3 DUP7 DUP3 DUP8 ADD PUSH2 0xF74 JUMP JUMPDEST SWAP4 POP POP PUSH1 0x20 PUSH2 0x10C4 DUP7 DUP3 DUP8 ADD PUSH2 0xF74 JUMP JUMPDEST SWAP3 POP POP PUSH1 0x40 PUSH2 0x10D5 DUP7 DUP3 DUP8 ADD PUSH2 0xFAA JUMP JUMPDEST SWAP2 POP POP SWAP3 POP SWAP3 POP SWAP3 JUMP JUMPDEST PUSH1 0x0 PUSH1 0xFF DUP3 AND SWAP1 POP SWAP2 SWAP1 POP JUMP JUMPDEST PUSH2 0x10F5 DUP2 PUSH2 0x10DF JUMP JUMPDEST DUP3 MSTORE POP POP JUMP JUMPDEST PUSH1 0x0 PUSH1 0x20 DUP3 ADD SWAP1 POP PUSH2 0x1110 PUSH1 0x0 DUP4 ADD DUP5 PUSH2 0x10EC JUMP JUMPDEST SWAP3 SWAP2 POP POP JUMP JUMPDEST PUSH1 0x0 PUSH1 0x20 DUP3 DUP5 SUB SLT ISZERO PUSH2 0x112C JUMPI PUSH2 0x112B PUSH2 0xF26 JUMP JUMPDEST JUMPDEST PUSH1 0x0 PUSH2 0x113A DUP5 DUP3 DUP6 ADD PUSH2 0xF74 JUMP JUMPDEST SWAP2 POP POP SWAP3 SWAP2 POP POP JUMP JUMPDEST PUSH1 0x0 DUP1 PUSH1 0x40 DUP4 DUP6 SUB SLT ISZERO PUSH2 0x115A JUMPI PUSH2 0x1159 PUSH2 0xF26 JUMP JUMPDEST JUMPDEST PUSH1 0x0 PUSH2 0x1168 DUP6 DUP3 DUP7 ADD PUSH2 0xF74 JUMP JUMPDEST SWAP3 POP POP PUSH1 0x20 PUSH2 0x1179 DUP6 DUP3 DUP7 ADD PUSH2 0xF74 JUMP JUMPDEST SWAP2 POP POP SWAP3 POP SWAP3 SWAP1 POP JUMP JUMPDEST PUSH32 0x4D757374206265204F776E657200000000000000000000000000000000000000 PUSH1 0x0 DUP3 ADD MSTORE POP JUMP JUMPDEST PUSH1 0x0 PUSH2 0x11B9 PUSH1 0xD DUP4 PUSH2 0xE7F JUMP JUMPDEST SWAP2 POP PUSH2 0x11C4 DUP3 PUSH2 0x1183 JUMP JUMPDEST PUSH1 0x20 DUP3 ADD SWAP1 POP SWAP2 SWAP1 POP JUMP JUMPDEST PUSH1 0x0 PUSH1 0x20 DUP3 ADD SWAP1 POP DUP2 DUP2 SUB PUSH1 0x0 DUP4 ADD MSTORE PUSH2 0x11E8 DUP2 PUSH2 0x11AC JUMP JUMPDEST SWAP1 POP SWAP2 SWAP1 POP JUMP JUMPDEST PUSH32 0x4E487B7100000000000000000000000000000000000000000000000000000000 PUSH1 0x0 MSTORE PUSH1 0x11 PUSH1 0x4 MSTORE PUSH1 0x24 PUSH1 0x0 REVERT JUMPDEST PUSH1 0x0 PUSH2 0x1229 DUP3 PUSH2 0xF89 JUMP JUMPDEST SWAP2 POP PUSH2 0x1234 DUP4 PUSH2 0xF89 JUMP JUMPDEST SWAP3 POP DUP3 DUP3 ADD SWAP1 POP DUP1 DUP3 GT ISZERO PUSH2 0x124C JUMPI PUSH2 0x124B PUSH2 0x11EF JUMP JUMPDEST JUMPDEST SWAP3 SWAP2 POP POP JUMP JUMPDEST PUSH32 0x4E487B7100000000000000000000000000000000000000000000000000000000 PUSH1 0x0 MSTORE PUSH1 0x1 PUSH1 0x4 MSTORE PUSH1 0x24 PUSH1 0x0 REVERT JUMPDEST PUSH1 0x0 PUSH2 0x128C DUP3 PUSH2 0xF89 JUMP JUMPDEST SWAP2 POP PUSH2 0x1297 DUP4 PUSH2 0xF89 JUMP JUMPDEST SWAP3 POP DUP3 DUP3 SUB SWAP1 POP DUP2 DUP2 GT ISZERO PUSH2 0x12AF JUMPI PUSH2 0x12AE PUSH2 0x11EF JUMP JUMPDEST JUMPDEST SWAP3 SWAP2 POP POP JUMP INVALID LOG2 PUSH5 0x6970667358 0x22 SLT KECCAK256 DUP8 0xD9 0xDC 0xD9 0xCA DUP8 0x29 SMOD 0x5F 0xC0 0xE9 SMOD SLT BYTE DUP8 0xB3 0xEC 0xF7 SWAP10 0xCB 0xCF SWAP8 0xA9 EXTCODECOPY 0xEC 0xBA 0xAB BYTE SHR 0xD6 0x4B 0xEA PUSH5 0x736F6C6343 STOP ADDMOD SLT STOP CALLER "
				},
				"gasEstimates": {
					"creation": {
						"codeDepositCost": "1508400",
						"executionCost": "infinite",
						"totalCost": "infinite"
					},
					"external": {
						"Attractions(string)": "infinite",
						"Clients(address)": "2851",
						"Record()": "infinite",
						"availableAttractions()": "infinite",
						"balanceOf()": "infinite",
						"buyTokens(uint256)": "infinite",
						"closeAttraction(string)": "infinite",
						"mintTokens(uint256)": "infinite",
						"myTokenAmount()": "infinite",
						"newAttraction(string,uint256)": "infinite",
						"owner()": "2603",
						"returnTokens(uint256)": "infinite",
						"useAttraction(string)": "infinite"
					},
					"internal": {
						"tokenPrice(uint256)": "infinite"
					}
				},
				"methodIdentifiers": {
					"Attractions(string)": "c4e5dff2",
					"Clients(address)": "a5956738",
					"Record()": "c2be10dd",
					"availableAttractions()": "b96f2cd4",
					"balanceOf()": "722713f7",
					"buyTokens(uint256)": "3610724e",
					"closeAttraction(string)": "79ac996a",
					"mintTokens(uint256)": "97304ced",
					"myTokenAmount()": "c4834899",
					"newAttraction(string,uint256)": "fbd98b20",
					"owner()": "8da5cb5b",
					"returnTokens(uint256)": "3ae1786f",
					"useAttraction(string)": "cb0a4a33"
				}
			},
			"storageLayout": {
				"storage": [
					{
						"astId": 442,
						"contract": "RESORT/Resort.sol:Resort",
						"label": "token",
						"offset": 0,
						"slot": "0",
						"type": "t_contract(ERC20Basic)436"
					},
					{
						"astId": 444,
						"contract": "RESORT/Resort.sol:Resort",
						"label": "owner",
						"offset": 0,
						"slot": "1",
						"type": "t_address_payable"
					},
					{
						"astId": 475,
						"contract": "RESORT/Resort.sol:Resort",
						"label": "Clients",
						"offset": 0,
						"slot": "2",
						"type": "t_mapping(t_address,t_struct(client)470_storage)"
					},
					{
						"astId": 633,
						"contract": "RESORT/Resort.sol:Resort",
						"label": "Attractions",
						"offset": 0,
						"slot": "3",
						"type": "t_mapping(t_string_memory_ptr,t_struct(attraction)628_storage)"
					},
					{
						"astId": 636,
						"contract": "RESORT/Resort.sol:Resort",
						"label": "attractions",
						"offset": 0,
						"slot": "4",
						"type": "t_array(t_string_storage)dyn_storage"
					},
					{
						"astId": 641,
						"contract": "RESORT/Resort.sol:Resort",
						"label": "attractionsRecords",
						"offset": 0,
						"slot": "5",
						"type": "t_mapping(t_address,t_array(t_string_storage)dyn_storage)"
					}
				],
				"types": {
					"t_address": {
						"encoding": "inplace",
						"label": "address",
						"numberOfBytes": "20"
					},
					"t_address_payable": {
						"encoding": "inplace",
						"label": "address payable",
						"numberOfBytes": "20"
					},
					"t_array(t_string_storage)dyn_storage": {
						"base": "t_string_storage",
						"encoding": "dynamic_array",
						"label": "string[]",
						"numberOfBytes": "32"
					},
					"t_bool": {
						"encoding": "inplace",
						"label": "bool",
						"numberOfBytes": "1"
					},
					"t_contract(ERC20Basic)436": {
						"encoding": "inplace",
						"label": "contract ERC20Basic",
						"numberOfBytes": "20"
					},
					"t_mapping(t_address,t_array(t_string_storage)dyn_storage)": {
						"encoding": "mapping",
						"key": "t_address",
						"label": "mapping(address => string[])",
						"numberOfBytes": "32",
						"value": "t_array(t_string_storage)dyn_storage"
					},
					"t_mapping(t_address,t_struct(client)470_storage)": {
						"encoding": "mapping",
						"key": "t_address",
						"label": "mapping(address => struct Resort.client)",
						"numberOfBytes": "32",
						"value": "t_struct(client)470_storage"
					},
					"t_mapping(t_string_memory_ptr,t_struct(attraction)628_storage)": {
						"encoding": "mapping",
						"key": "t_string_memory_ptr",
						"label": "mapping(string => struct Resort.attraction)",
						"numberOfBytes": "32",
						"value": "t_struct(attraction)628_storage"
					},
					"t_string_memory_ptr": {
						"encoding": "bytes",
						"label": "string",
						"numberOfBytes": "32"
					},
					"t_string_storage": {
						"encoding": "bytes",
						"label": "string",
						"numberOfBytes": "32"
					},
					"t_struct(attraction)628_storage": {
						"encoding": "inplace",
						"label": "struct Resort.attraction",
						"members": [
							{
								"astId": 623,
								"contract": "RESORT/Resort.sol:Resort",
								"label": "attraction_name",
								"offset": 0,
								"slot": "0",
								"type": "t_string_storage"
							},
							{
								"astId": 625,
								"contract": "RESORT/Resort.sol:Resort",
								"label": "attraction_price",
								"offset": 0,
								"slot": "1",
								"type": "t_uint256"
							},
							{
								"astId": 627,
								"contract": "RESORT/Resort.sol:Resort",
								"label": "attraction_state",
								"offset": 0,
								"slot": "2",
								"type": "t_bool"
							}
						],
						"numberOfBytes": "96"
					},
					"t_struct(client)470_storage": {
						"encoding": "inplace",
						"label": "struct Resort.client",
						"members": [
							{
								"astId": 466,
								"contract": "RESORT/Resort.sol:Resort",
								"label": "total_buyed_tokens",
								"offset": 0,
								"slot": "0",
								"type": "t_uint256"
							},
							{
								"astId": 469,
								"contract": "RESORT/Resort.sol:Resort",
								"label": "favorite_attractions",
								"offset": 0,
								"slot": "1",
								"type": "t_array(t_string_storage)dyn_storage"
							}
						],
						"numberOfBytes": "64"
					},
					"t_uint256": {
						"encoding": "inplace",
						"label": "uint256",
						"numberOfBytes": "32"
					}
				}
			},
			"userdoc": {
				"kind": "user",
				"methods": {},
				"version": 1
			}
		}
	}
}